:100000000C9437010C945F010C945F010C945F0118
:100010000C945F010C945F010C945F010C94350407
:100020000C945F010C945F010C945F010C94FB0E27
:100030000C945F010C945F010C945F010C945F01C0
:100040000C9450050C945F010C94AA030C94840347
:100050000C945F010C945F010C945F010C945F01A0
:100060000C949A050C945F01084AD73B3BCE016E75
:1000700084BCBFFDC12F3D6C74319ABD56833DDAFF
:100080003D00C77F11BED9E4BB4C3E916BAAAABE0E
:10009000000000803F072C7AA5BA6CC590DA3B932C
:1000A00065FC8BBC53F810FD3C5692834DBD879D7B
:1000B0003AB63DCBC9BF5BBE73DA0FC93F05A84C4A
:1000C000CDB2D44EB93836A9020C50B99186880801
:1000D0003CA6AAAA2ABE000000803F000000000043
:1000E000240027002A000000000023002600290029
:1000F00000000008000201000003040700000000E7
:1001000000000000010204081020408001020408E1
:100110001020010204081020000000002500280023
:100120002B00040404040404040402020202020278
:10013000030303030303024E414E494E49545949F8
:100140004E46CDCCCC3D0AD7233C17B7D13877CC1F
:100150002B329595E6241FB14F0A00002041000084
:10016000C84200401C4620BCBE4CCA1B0E5AAEC53D
:100170009D7400407A10F35A00A0724E18090010C6
:10018000A5D4E80000E87648170000E40B5402000C
:1001900000CA9A3B000000E1F50500008096980037
:1001A000000040420F000000A08601000000102760
:1001B00000000000E80300000000640000000000F0
:1001C0000A00000000000100000000002C76D88822
:1001D000DC674F0823DFC1DFAE59E1B1B796E5E335
:1001E000E453C63AE651997696E8E6C28426EB894E
:1001F0008C9B62ED407C6FFCEFBC9C9F40F2BAA5EB
:100200006FA5F490055A2AF75C936B6CF9676DC182
:100210001BFCE0E40D47FEF520E6B500D0ED902E86
:100220000300943577050080841E080000204E0AE4
:10023000000000C80C333333330F986E1283114122
:10024000EF8D2114893BE65516CFFEE6DB18D184ED
:100250004B381BF77C1D901DA4BBE4242032847214
:100260005E228100C9F124ECA1E53D27652B112414
:100270001FBECFEFD8E0DEBFCDBF11E0A0E0B1E000
:10028000E2E1FFE602C005900D92AE3AB107D9F760
:1002900026E0AEEAB1E001C01D92A63BB207E1F74D
:1002A00011E0C7E3D1E004C02197FE010E94942C25
:1002B000C633D107C9F70E94811C0C9487370C9470
:1002C0000000CF92DF92EF92FF920F931F93CF9394
:1002D000DF936C017A018B01C0E0D0E0CE15DF0521
:1002E00089F0D8016D918D01D601ED91FC910190BD
:1002F000F081E02DC6010995892B11F47E0102C021
:100300002196ECCFC701DF91CF911F910F91FF9004
:10031000EF90DF90CF900895FC01918D828D98171A
:1003200061F0828DDF01A80FB11D5D968C91928DD9
:100330009F5F9F73928F90E008958FEF9FEF0895D6
:10034000FC01918D828D981731F0828DE80FF11D9F
:10035000858D90E008958FEF9FEF0895FC01918DBA
:10036000228D892F90E0805C9F4F821B91098F73B3
:10037000992708958EE292E00E94AE0121E0892B38
:1003800009F420E0822F0895FC01848DDF01A80F7D
:10039000B11DA35ABF4F2C91848D90E001968F73AD
:1003A0009927848FA689B7892C93A089B1898C91CC
:1003B00080648C93938D848D981306C00288F38992
:1003C000E02D80818F7D80830895EF92FF920F93BF
:1003D0001F93CF93DF93EC0181E0888F9B8D8C8DF1
:1003E000981305C0E889F989808185FD24C0F62E1F
:1003F0000B8D10E00F5F1F4F0F731127E02E8C8DB8
:10040000E8120CC00FB607FCFACFE889F9898081A1
:1004100085FFF5CFCE010E94C401F1CF8B8DFE0187
:10042000E80FF11DE35AFF4FF0820B8FEA89FB8939
:100430008081806207C0EE89FF896083E889F9893D
:1004400080818064808381E090E0DF91CF911F9173
:100450000F91FF90EF900895CF93DF93EC01888D7B
:100460008823C9F0EA89FB89808185FD05C0A889B8
:10047000B9898C9186FD0FC00FB607FCF5CF80813E
:1004800085FFF2CFA889B9898C9185FFEDCFCE0188
:100490000E94C401E7CFDF91CF91089580E090E002
:1004A000892B29F00E94BA0181110C940000089553
:1004B000833081F028F4813099F08230A1F00895E2
:1004C0008730A9F08830B9F08430D1F48091800071
:1004D0008F7D03C0809180008F7780938000089586
:1004E00084B58F7702C084B58F7D84BD08958091D7
:1004F000B0008F7703C08091B0008F7D8093B000F3
:1005000008953FB7F8948091230290912402A0911E
:100510002502B091260226B5A89B05C02F3F19F0F1
:100520000196A11DB11D3FBFBA2FA92F982F882773
:10053000820F911DA11DB11DBC01CD0142E0660FCE
:10054000771F881F991F4A95D1F7089585ED8093ED
:10055000BC008091BC0084FDFCCF1092F80108958E
:100560004091D201262F30E0240F311D2132310578
:10057000DCF42091F8012430C9F4FC0180E090E023
:10058000861758F43091D2012191DC01A055BE4F5D
:10059000A30FB11D2C930196F3CF8091D201680F68
:1005A0006093D20180E0089581E0089582E008958B
:1005B00008958FEF9FEF08958FEF9FEF089580913B
:1005C000AF0190E09195819591090895CF93DF93C4
:1005D00000D0CDB7DEB7CB01642F49835A830E9488
:1005E000B0024981842F5A81952F0F900F90DF918F
:1005F000CF910895CF93DF931F92CDB7DEB7698374
:1006000061E0CE0101960E94B00281E090E00F907F
:10061000DF91CF91089598E087FF02C0449A01C00E
:100620004498880F459A45989150B1F70895459898
:100630004498459A449A089527B13C98449A459A1B
:1006400096B1892F8071459894FF04C00E941703CA
:1006500081E0089527B90895459A449A44984598A9
:1006600008950E94FE30FC01808191810C949C2FA2
:10067000EF92FF920F931F93CF93DF93EC011982B8
:1006800018821B821A821D821C8261157105A9F1D4
:100690007B01FB0101900020E9F731978F01061BD8
:1006A000170BB8016F5F7F4F80E090E00E943430FD
:1006B000009759F0998388831B830A832C813D819D
:1006C000232B81F4FC0110820DC088819981009751
:1006D00011F00E949C2F198218821D821C821B829D
:1006E0001A820BC01D830C83B701DF91CF911F913C
:1006F0000F91FF90EF900C941731DF91CF911F91E4
:100700000F91FF90EF9008951F920F920FB60F92E6
:1007100011242F933F934F935F936F937F938F9306
:100720009F93AF93BF93EF93FF938EE292E00E946B
:10073000C401FF91EF91BF91AF919F918F917F91F4
:100740006F915F914F913F912F910F900FBE0F903E
:100750001F9018951F920F920FB60F9211242F938E
:100760008F939F93EF93FF93E0913E02F0913F02AE
:100770008081E0914402F091450282FD12C0908197
:10078000809147028F5F8F7320914802821751F04A
:10079000E0914702F0E0E25DFD4F958F80934702C4
:1007A00001C08081FF91EF919F918F912F910F90C8
:1007B0000FBE0F901F901895CF93DF93282F30E036
:1007C000F901E051FF4F8491F901EC5FFE4FD491A4
:1007D000F901EE5DFE4FC491CC2391F081110E948E
:1007E0005802EC2FF0E0EE0FFF1FEA51FF4FA591EA
:1007F000B491EC91ED2381E090E021F480E002C01F
:1008000080E090E0DF91CF9108951F93CF93DF9325
:10081000282F30E0F901E051FF4F8491F901EC5F9E
:10082000FE4FD491F901EE5DFE4FC491CC23C9F087
:10083000162F81110E945802EC2FF0E0EE0FFF1FDF
:10084000E85EFE4FA591B4918FB7F894111105C0E1
:100850009C91ED2FE095E92302C0EC91ED2BEC93F8
:100860008FBFDF91CF911F9108951F920F920FB606
:100870000F9211242F933F934F935F936F937F9326
:100880008F939F93AF93BF93EF93FF9380912A022F
:1008900090912B02A0912C02B0912D02892B8A2BD2
:1008A0008B2B59F180912702E0912802F0912902C7
:1008B00090818927808380912A0290912B02A091B8
:1008C0002C02B0912D02181619061A061B060CF000
:1008D0003DC080912A0290912B02A0912C02B091F0
:1008E0002D020197A109B10980932A0290932B024E
:1008F000A0932C02B0932D0229C080910001E6E361
:10090000F1E0E4919FEF90930001E130B9F098F0AD
:10091000E230C9F4909170009D7F9093700091E057
:100920009093B0009091B100987F94609093B10043
:100930001092B30008C010926E0005C090916F0035
:100940009D7F90936F0060E00E940504FF91EF91FE
:10095000BF91AF919F918F917F916F915F914F91D7
:100960003F912F910F900FBE0F901F901895CF932E
:10097000DF9390E0FC01EC5FFE4F2491FC01EE5D03
:10098000FE4F8491882361F190E0880F991FFC014C
:10099000E452FF4FC591D491FC01E85EFE4FA59152
:1009A000B491611109C09FB7F89488812095822382
:1009B0008883EC912E230BC0623061F49FB7F894CA
:1009C0003881822F809583238883EC912E2B2C9362
:1009D0009FBF06C08FB7F894E8812E2B28838FBF66
:1009E000DF91CF9108958E3008F08E50877080642B
:1009F00080937C0080917A00806480937A0080915B
:100A00007A0086FDFCCF809178002091790090E0FB
:100A1000922B08958F929F92AF92BF92CF92DF92C6
:100A2000EF92FF926B017C010E9481024B015C01FD
:100A3000C114D104E104F104F1F00E948102DC014F
:100A4000CB0188199909AA09BB09883E9340A105E1
:100A5000B10570F321E0C21AD108E108F10888EE6F
:100A6000880E83E0981EA11CB11CC114D104E104BE
:100A7000F10419F7DDCFFF90EF90DF90CF90BF909A
:100A8000AF909F908F9008952FB7F89460911F02B8
:100A90007091200280912102909122022FBF08952F
:100AA0001F920F920FB60F9211242F933F938F93A3
:100AB0009F93AF93BF9380911F0290912002A091CA
:100AC0002102B091220230911E0223E0230F2D3724
:100AD00020F40196A11DB11D05C026E8230F029642
:100AE000A11DB11D20931E0280931F02909320022E
:100AF000A0932102B09322028091230290912402BC
:100B0000A0912502B09126020196A11DB11D8093EE
:100B1000230290932402A0932502B0932602BF9152
:100B2000AF919F918F913F912F910F900FBE0F909A
:100B30001F9018951F920F920FB60F9211242F93AA
:100B40003F934F935F936F937F938F939F93AF9355
:100B5000BF93EF93FF938091B900887F803609F4AB
:100B60009CC068F5883209F45BC090F4803109F4C8
:100B700054C038F4882309F4F6C0883009F44DC015
:100B8000F6C0883109F44CC0803209F45DC0EFC072
:100B9000803409F468C048F4803309F455C08833C0
:100BA00009F0E5C08093F701D8C0803509F44FC043
:100BB000883509F45DC0883409F0D9C0D6C08839B9
:100BC00009F4C7C0A8F4883709F467C038F4883638
:100BD00009F463C0803709F460C0C9C0883809F4DB
:100BE000B8C0803909F45FC0803809F0C0C05BC06C
:100BF000803B09F486C038F4803A09F466C0883A2C
:100C000009F47FC0B4C0803C09F4A7C0883C09F453
:100C1000A4C0883B09F48AC0AAC080911D0210C0FC
:100C200090911C0280911B02981770F5E0911C02B4
:100C300081E08E0F80931C02F0E0E550FE4F808132
:100C40008093BB0085EC86C08093F7018EC0E09155
:100C50001C0281E08E0F80931C028091BB00F0E0AB
:100C6000E550FE4F808390911C0280911B026EC064
:100C7000E0911C0281E08E0F80931C028091BB00EA
:100C8000F0E0E550FE4F80838091FA0181116DC044
:100C900081E08093F90184EA61C083E08093F801E8
:100CA0001092F601CFCF8091F601803208F051C04A
:100CB000E091F60181E08E0F8093F6018091BB00F8
:100CC000F0E0EA52FE4F8083BDCF85EC8093BC00FC
:100CD0001092F8018091F601803230F4E091F60133
:100CE000F0E0EA52FE4F10826091F60170E0E09170
:100CF000D401F091D50186ED91E009951092F601AD
:100D000036C084E08093F8011092D3011092D20192
:100D1000E091D001F091D10109958091D20181112A
:100D200005C081E08093D2011092B001E091D3011F
:100D300081E08E0F8093D301F0E0E055FE4F80817B
:100D40008093BB009091D3018091D201981708F451
:100D500079CF85E88093BC000AC085EC8093BC0005
:100D60001092F80104C01092F7010E94A602FF91B0
:100D7000EF91BF91AF919F918F917F916F915F9113
:100D80004F913F912F910F900FBE0F901F9018958C
:100D9000DF92EF92FF920F931F93CF93DF931F92F7
:100DA000CDB7DEB78C01E62EF42ED22E3D9A3C9ABA
:100DB000459A449A59830E942C038E2D0E940B035E
:100DC0000E941C035981882311F081E03DC0852FCA
:100DD0000E940B030E941C038111F7CF8F2D0E94EC
:100DE0000B030E941C038111F0CF0E942C0381E0B1
:100DF0008E0D0E940B030E941C038111E6CF2D2D46
:100E00004D2D50E02223E1F0FA01E21BF109E00F41
:100E1000F11F67B13C9838E090E0459A990F3499FA
:100E20009160459867B93150C1F79083215041F0E6
:100E300097B13C9A4498459A459897B9449AE2CF1D
:100E400089830E94170389810F90DF91CF911F91B1
:100E50000F91FF90EF90DF900895CF92DF92EF9285
:100E6000FF920F931F93CF93DF9300D0CDB7DEB7E0
:100E70008C01F42EC22E3D9A3C9A459A449A5A838C
:100E800069830E942C0389810E940B030E941C032A
:100E90005A81882319F0DD24D39429C0852F0E941C
:100EA0000B030E941C038111F6CF8F2D0E940B03B0
:100EB0000E941C03D82E8111EECFEC2CF12CCC20FB
:100EC000A1F0F701EC19F109E00FF11F80810E94F8
:100ED0000B03CA940E941C038111DDCF65E070E012
:100EE00080E090E00E940A05EACF0E9417038D2D52
:100EF0000F900F90DF91CF911F910F91FF90EF9086
:100F0000DF90CF900895CF92DF92EF92FF920F93F0
:100F10001F93CF93DF93EB017B0124E0E20EF11CE2
:100F20008B016C01C61AD70AC601800F911F0E945F
:100F3000DF36F80181938F01EE15FF05A9F7CE0189
:100F4000DF91CF911F910F91FF90EF90DF90CF90A5
:100F50000895CF92DF92EF92FF920F931F93CF935A
:100F6000DF93CDB7DEB761970FB6F894DEBF0FBE43
:100F7000CDBF8E010F5F1F4F6E0181E1C80ED11CE6
:100F80007801862F698B0E94F304F8018193919375
:100F90008F016989EC15FD05A1F720E030E040E004
:100FA000842F90E0B901680F791F67307105BCF498
:100FB000880F991FD701A80FB91F6D917C911197C8
:100FC0000296F701E80FF91F808191818617970734
:100FD00020F48D939C93718360834F5FE1CF2F5FEB
:100FE0003F4F28303105D9F62F8138858D819E817C
:100FF000820F931F29853A85820F931F2B853C858D
:10100000820F931F969587959695879561960FB653
:10101000F894DEBF0FBECDBFDF91CF911F910F912E
:10102000FF90EF90DF90CF9008954F925F926F9274
:101030007F928F929F92AF92BF92CF92DF92EF9268
:10104000FF92CF93DF93EC017A015901FB0160819C
:101050007181828193819B01AC010E94D92E811103
:101060001AC0F701C080D180E280F380A701960109
:10107000C701B6010E94D92E81110DC0F5018080F3
:101080009180A280B380A5019401C501B4010E94A2
:10109000D92E882311F082E05CC028A539A54AA585
:1010A0005BA5C701B6010E94AC2C2B013C0120E0DE
:1010B00030E040EA50E40E94B83587FD49C020E0A6
:1010C00030E040EF52E4C301B2010E947A2E1816BC
:1010D0000CF43EC02CA53DA54EA55FA5C501B401ED
:1010E0000E94AC2C2B013C0120E030E040EA50E4AF
:1010F0000E94B83587FD2CC020E030E040EF52E47C
:10110000C301B2010E947A2E181614F1A7019601AC
:1011100060E070E084E393E40E94AB2CA5019401AD
:101120000E94AB2C6B017C0120E030E046E153E4EF
:101130000E947A2E181664F020E030E040EF51E46F
:10114000C701B6010E94B83587FD02C081E001C029
:1011500083E0DF91CF91FF90EF90DF90CF90BF9031
:10116000AF909F908F907F906F905F904F90089579
:101170002F923F924F925F926F927F928F929F92A7
:10118000AF92BF92CF92DF92EF92FF920F931F9395
:10119000CF93DF93CDB7DEB729970FB6F894DEBFB4
:1011A0000FBECDBF98878F832A013B0109831A8325
:1011B0002B833C8315019E828D820E8D1F8D88A10D
:1011C000898720E030EC4CE455ECC301B2010E9469
:1011D000B83587FD12C020E030EC4CE455E4C30183
:1011E000B2010E947A2E18167CF4412C20EC522E6B
:1011F0002CE4622E25E4722E07C0412C30EC532ED5
:101200003CE4632E35EC732E20E030EC4CE455ECDE
:1012100069817A818B819C810E94B83587FD11C0DC
:1012200020E030EC4CE455E469817A818B819C812B
:101230000E947A2E18166CF480E090ECACE4B5E4D1
:1012400004C080E090ECACE4B5EC89839A83AB8376
:10125000BC8320E030EC4CE455ECC701B6010E94A1
:10126000B83587FD12C020E030EC4CE455E4C701EE
:10127000B6010E947A2E18167CF4C12C80ECD82E70
:101280008CE4E82E85E4F82E07C0C12C90ECD92E12
:101290009CE4E92E95ECF92E20E030E040E251E4A8
:1012A000C301B2010E941E360E94BE2D072E000C03
:1012B000880B990B0E94BF3520E030E040E251E4FA
:1012C0000E944C2D2B013C0120E030E040E251E433
:1012D00069817A818B819C810E941E360E94BE2D7D
:1012E000072E000C880B990B0E94BF3520E030E0E0
:1012F00040E251E40E944C2D4B015C0120E030E0C3
:1013000040E251E4C701B6010E941E360E94BE2D84
:10131000072E000C880B990B0E94BF3520E030E0AF
:1013200040E251E40E944C2D26E636EE46ED52E4B2
:101330000E94AB2C20E030E444E153E40E944C2DA9
:101340006B017C019985911109C020E030E0A90171
:10135000C501B4010E94B83587FD4CC120E030E0E2
:10136000A901C301B2010E94B83581110AC080E011
:1013700090E0A4EBB2E4F10180839183A283B38374
:101380003FC020E030E0A901C301B2010E947A2EE3
:101390001816A4F4A3019201C501B4010E944C2DBA
:1013A0000E94182D26EE3EE245E652E40E941E36CB
:1013B000D1016D937D938D939C93139720E030E042
:1013C000A901C301B2010E94B83587FF19C0A3016A
:1013D0009201C501B4010E944C2D0E94182D26EEE9
:1013E0003EE245E652E40E941E3620E030E044E34F
:1013F00053E40E94AC2CF101608371838283938358
:10140000D1018D919D910D90BC91A02D89839A83DE
:10141000AB83BC8320E030E044EB52E4BC01CD015F
:101420000E94B8358823B9F026EE3EE245E652E444
:1014300069817A818B819C810E944C2D0E94472D6D
:101440009B01AC01C301B2010E944C2D29E23CE595
:1014500049EA51E406C029E23CE549EA51E4C50104
:10146000B4010E94AB2C20E030E048EC51E40E9433
:10147000AB2C20E030E444E153E40E944C2D4B01BE
:101480005C019B01AC01C701B6010E944C2D0E947A
:10149000182D26EE3EE245E652E40E941E362B0150
:1014A0003C01A7019601C701B6010E941E366B01DF
:1014B0007C01A5019401C501B4010E941E369B0167
:1014C000AC01C701B6010E94AC2C0E94952E6B01A5
:1014D0007C019B01AC010E941E364B015C0123E99B
:1014E00037E745E95FE30E94AC2C20E030E040E8BC
:1014F0005FE30E94AB2C69837A838B839C8325E511
:1015000031E54AE050E4C701B6010E941E369B0156
:10151000AC0169817A818B819C810E944C2D0E9453
:101520009A2C26EE3EE245E652E40E941E36F80171
:10153000608371838283938320E030E040E85FE33F
:10154000C501B4010E94AC2C23E937E745E95FE30C
:101550000E94AB2C4B015C01A7019601C701B601AB
:101560000E94AC2C9B01AC01C501B4010E944C2D22
:101570000E949A2C26EE3EE245E652E40E941E3678
:10158000A30192010E94AC2CAD81BE816D937D932D
:101590008D939C931397A3019201F801608171814F
:1015A000828193810E94AB2CD8016D937D938D93A2
:1015B0009C93139798014D815E81B1018F8198852D
:1015C00029960FB6F894DEBF0FBECDBFDF91CF9145
:1015D0001F910F91FF90EF90DF90CF90BF90AF9051
:1015E0009F908F907F906F905F904F903F902F9043
:1015F0000C94150882E029960FB6F894DEBF0FBE52
:10160000CDBFDF91CF911F910F91FF90EF90DF90B1
:10161000CF90BF90AF909F908F907F906F905F9092
:101620004F903F902F9008952F923F924F925F924C
:101630006F927F928F929F92AF92BF92CF92DF92E2
:10164000EF92FF920F931F93CF93DF93CDB7DEB747
:101650002C970FB6F894DEBF0FBECDBF1B015E8383
:101660004D8338872F83E986FA860B871C87C6014E
:10167000B50126EE3EE245E652E40E944C2D4B01B8
:101680005C010E94472D2B013C0126EE3EE245E61F
:1016900052E469A17AA18BA19CA10E944C2D6B01FF
:1016A0007C010E94472D69837A838B839C8320E091
:1016B00030E444E153E4C301B2010E941E362B0121
:1016C0003C0123E333E340E253E469817A818B8177
:1016D0009C810E941E369B01AC01C301B2010E9495
:1016E000AC2C29E23CE549EA51E40E94AC2C20E014
:1016F00030E048EC51E40E94AC2C2B013C01C501C8
:10170000B4010E94872E4B015C01C701B6010E9403
:10171000872E69837A838B839C8326EE3EE245E69F
:1017200052E469857A858B859C850E944C2D6B01DE
:101730007C010E94472D9B01AC01C301B2010E94B4
:101740001E36F1016083718382839383C701B601E2
:101750000E94872E9B01AC01C301B2010E941E367C
:10176000ED81FE81608371838283938320E030E486
:1017700044E153E4C501B4010E941E366B017C01B3
:1017800023E333E340E253E469817A818B819C81D6
:101790000E941E369B01AC01C701B6010E94AB2C12
:1017A00026E636EE46ED52E40E94AC2CEF81F88539
:1017B000608371838283938381E02C960FB6F894C3
:1017C000DEBF0FBECDBFDF91CF911F910F91FF9074
:1017D000EF90DF90CF90BF90AF909F908F907F90D1
:1017E0006F905F904F903F902F9008952F923F926F
:1017F0004F925F926F927F928F929F92AF92BF9221
:10180000CF92DF92EF92FF920F931F93CF93DF93CC
:10181000CDB7DEB728970FB6F894DEBF0FBECDBFA9
:1018200098878F838B011A013E832D8326EE3EE23B
:1018300045E652E4FC0160897189828993890E949E
:101840004C2D4B015C010E94472D2B013C0126EEE3
:101850003EE245E652E4EF81F88564897589868920
:1018600097890E944C2D6B017C010E94472D698352
:101870007A838B839C8320E030E444E153E4C3010A
:10188000B2010E941E362B013C0123E333E340E208
:1018900053E469817A818B819C810E941E369B0171
:1018A000AC01C301B2010E94AC2C29E23CE549EA3B
:1018B00051E40E94AC2C20E030E048EC51E40E945E
:1018C000AC2C2B013C01C501B4010E94872E4B01B9
:1018D0005C01C701B6010E94872E6B017C0126EED8
:1018E0003EE245E652E4EF81F8856485758586859C
:1018F00097850E944C2D0E94472D9B01AC01C3018E
:10190000B2010E941E36F801608371838283938343
:1019100026EE3EE245E652E4EF81F8856485758562
:10192000868597850E944C2D0E94872E9B01AC01D5
:10193000C301B2010E941E36F1016083718382836C
:10194000938320E030E444E153E4C501B4010E94F4
:101950001E364B015C0123E333E340E253E4C7014D
:10196000B6010E941E369B01AC01C501B4010E9464
:10197000AB2C26E636EE46ED52E40E94AC2CED810F
:10198000FE81608371838283938381E028960FB602
:10199000F894DEBF0FBECDBFDF91CF911F910F91A5
:1019A000FF90EF90DF90CF90BF90AF909F908F907F
:1019B0007F906F905F904F903F902F90089560E0E0
:1019C00086E00E94050461E085E00C94050461E076
:1019D00086E00E94050460E085E00C9405044F92C7
:1019E0005F926F927F928F929F92AF92BF92CF92AF
:1019F000DF92EF92FF920F931F93CF93DF93CDB7B8
:101A0000DEB7C057D1090FB6F894DEBF0FBECDBF09
:101A1000CD57DF4FE880F980C358D040CB57DF4F18
:101A200088809980C558D040F401A12CB12C8191B7
:101A3000882331F08532D9F78FEFA81AB80AF7CF8B
:101A4000F70110828E0109571F4F612C712CC12C98
:101A5000D12C82E3482E512CF401EC0DFD1D808128
:101A6000882309F488C0E4E3F0E0EC0FFD1FE60DE5
:101A7000F71D853209F065C01082BE016C5C7F4F96
:101A8000C7010E940C311CAAFFEFCF1ADF0AF40134
:101A9000EC0DFD1D8081863691F1A4F4833609F4A6
:101AA00040C0843609F061C0380182E0680E711CC4
:101AB0004AE0BE016F5F7F4FF801808191810E94F3
:101AC0006E3137C08C3659F0833709F04EC038017B
:101AD000F2E06F0E711CF801608171812DC0380138
:101AE000F4E06F0E711CF801608171818281938135
:101AF0002AE0AE014F5F5F4F0E9479311AC0380172
:101B0000F4E06F0E711CF801608171818281938114
:101B10008E0109591F4F22E044E00E941E31B80196
:101B20000BC03801F2E06F0E711CF80180818983CF
:101B30001A82BE016F5F7F4FC7010E940C31830183
:101B400014C08083C3010196B2010E946C2C3C0139
:101B5000892B69F4A7961FAEA797BE016C5C7F4FD7
:101B6000C7010E940C311CAA02C0612C712CFFEF2E
:101B7000CF1ADF0A71CFC5010196C059DF4F0FB6EA
:101B8000F894DEBF0FBECDBFDF91CF911F910F91B3
:101B9000FF90EF90DF90CF90BF90AF909F908F908D
:101BA0007F906F905F904F900895EF92FF920F9308
:101BB0001F93CF93DF931F92CDB7DEB77C01FC015B
:101BC00000811181C80169830E94DF36698168172D
:101BD00019F0C8010E94E736C7010F90DF91CF913D
:101BE0001F910F91FF90EF900895CF93DF93EC0139
:101BF0008C819D8182309105A1F01CF4019739F010
:101C00003DC08330910599F00497E1F037C0888199
:101C10000E94DC03892B91F51A82198282E090E000
:101C20002BC088810E94DC03892BB1F418C0888105
:101C30000E94DC03892BF1F489819A8101969A83B1
:101C400089831CC089819A81449710F082E001C089
:101C500081E08B831A82198281E090E00DC044E616
:101C600050E060E070E080EA9FE00E94031983E0AA
:101C700090E002C084E090E09D838C83DF91CF915F
:101C800008958F929F92AF92BF92CF92DF92EF9280
:101C9000FF921F93CF93DF93EC014A015B0120E099
:101CA00030E04AEF53E4C501B4010E94B83587FF24
:101CB00060C020E030E0A901C501B4010E94B83540
:101CC00087FD11C020E030E044E353E4C501B401D6
:101CD0000E947A2E181654F4812C912C74E3A72EAE
:101CE00073E4B72E03C0812C912C540189812DE718
:101CF00030E06901C81AD10887FDD394CC0CDD1CF3
:101D0000CC0CDD1C0D2C000CEE08FF0820E030E0B0
:101D100040E251E4C501B4010E941E360E94BE2D6E
:101D20009B01AC016A8181E792E0861B910967FD06
:101D30009395880F991F880F991F092E000CAA0BE5
:101D4000BB0BBC01CD016C197D098E099F090E9456
:101D5000502C28E037E040E050E00E94F536CA0100
:101D6000B9016C0D7D1D8E1D9F1D0E94BF354B015D
:101D70005C0118811C3098F5C501B4010E94BE2D8C
:101D800049812DE730E0241B310947FD3395220FAF
:101D9000331F220F331F6217730794F02A8141E724
:101DA00052E0FA01E21BF10927FDF395AF01440F60
:101DB000551F440F551F9B01461757070CF49A01F6
:101DC00022503109220F331F8FB7F89496E0199FE4
:101DD000F0011124EC5EFC4F328321838FBFDF9131
:101DE000CF911F91FF90EF90DF90CF90BF90AF9079
:101DF0009F908F9008951F920F920FB60F9211240B
:101E00002F933F934F935F936F937F938F939F9302
:101E1000AF93BF93EF93FF938091AE0187FF05C00F
:101E2000109285001092840016C02091AE01022EFF
:101E3000000C330B80915C0390E0281739075CF4A9
:101E40003091AE0126E03203F0011124EC5EFC4F2C
:101E5000808186FD15C08091AE018F5F8093AE01B9
:101E60002091AE01022E000C330B80915C0390E0B8
:101E70002817390794F48091AE018C3034F10DC0ED
:101E80003091AE013203F0011124EC5EFC4F8081F1
:101E900060E08F730E940504DECF809184009091F2
:101EA0008500049680349C4918F480E49CE905C0C0
:101EB000809184009091850004969093890080938E
:101EC00088008FEF8093AE01BDC03091AE0126E057
:101ED0003203F0011124EC5EFC4F8581882309F464
:101EE00087C03091AE014091AE014203F001112450
:101EF000EC5EFC4F818192813203F0011124EC5E93
:101F0000FC4F438154818417950768F54091AE01D9
:101F10003091AE013203F0011124EC5EFC4F81815F
:101F200092814203D0011124AC5EBC4F15963C91C6
:101F3000830F911D928381833091AE014091AE0158
:101F40004203F0011124EC5EFC4F81819281320347
:101F5000F0011124EC5EFC4F4381548184179507F6
:101F600008F446C02BC04091AE013091AE0132035F
:101F7000F0011124EC5EFC4F818192814203D0017B
:101F80001124AC5EBC4F15963C91831B9109928342
:101F900081833091AE014091AE014203F0011124E2
:101FA000EC5EFC4F818192813203F0011124EC5EE2
:101FB000FC4F4381548148175907D0F03091AE014E
:101FC0004091AE014203F0011124EC5EFC4F83818D
:101FD00094813203F0011124EC5EFC4F92838183E3
:101FE0003091AE013203F0011124EC5EFC4F1582FA
:101FF00080918400909185003091AE0126E03203FB
:10200000F0011124EC5EFC4F41815281840F951F39
:1020100090938900809388003091AE013203F001E3
:102020001124EC5EFC4F808186FF0CC03091AE0124
:102030003203F0011124EC5EFC4F808161E08F736C
:102040000E940504FF91EF91BF91AF919F918F91F5
:102050007F916F915F914F913F912F910F900FBEA4
:102060000F901F9018952F923F924F925F926F9210
:102070007F928F929F92AF92BF92CF92DF92EF9218
:10208000FF920F931F93CF93DF93CDB7DEB72B97BC
:102090000FB6F894DEBF0FBECDBF29013A0118017B
:1020A000870120E030E040E251E40E944C2D4B01DA
:1020B0005C0120E030E040E251E4C301B2010E9443
:1020C0004C2DA50194010E94AB2C69837A838B83EC
:1020D0009C8321E02B87C701FF0CAA0BBB0B8F83CE
:1020E0009887A987BA87EB856E2E712C0615170580
:1020F0000CF45DC0AB856A2F70E080E090E00E9438
:10210000BD356B017C016F81788589859A850E9438
:10211000BF359B01AC01C701B6010E944C2D6B017C
:102120007C01B1E06B1AB0EC7B0A660C771C660C84
:10213000771CF101E60DF71DFE83ED83A7019601E3
:10214000C701B6010E941E3629813A814B815C810C
:102150000E941E362B013C0120E030E040E050ECB4
:10216000C701B6010E941E3620E030E040E450E492
:102170000E94AC2C9B01AC01C301B2010E941E362F
:102180009B01AC01C501B4010E94AC2C20E030E001
:1021900040E251E40E941E36AD81BE816D937D9375
:1021A0008D939C931397BB85BF5FBB879CCF2B966A
:1021B0000FB6F894DEBF0FBECDBFDF91CF911F9158
:1021C0000F91FF90EF90DF90CF90BF90AF909F90D6
:1021D0008F907F906F905F904F903F902F900895D9
:1021E0004F925F926F927F928F929F92AF92BF9227
:1021F000DF92EF92FF920F931F93CF93DF9329010A
:102200003A0120E030E040E251E40E944C2D4B01C5
:102210005C0120E030E040E251E4C301B2010E94E1
:102220004C2DA50194010E94AB2C2B013C01B70160
:102230000F2C000C880B990B0E94BF359B01AC0141
:10224000C301B2010E944C2D2B013C01DD24D3942B
:102250006D2D70E0E616F7063CF1EB01C150D04C55
:10226000CC0FDD1FCC0FDD1FC00FD11F072E000CC0
:10227000880B990B0E94BF359B01AC01C301B201D1
:102280000E941E369B01AC01C501B4010E94AC2C1A
:1022900020E030E040E251E40E941E3668837983FA
:1022A0008A839B83D394D4CFDF91CF911F910F91D9
:1022B000FF90EF90DF90BF90AF909F908F907F90B6
:1022C0006F905F904F900895009769F0FC01019026
:1022D0000020E9F73197AF01481B590BBC018EE292
:1022E00092E00C94610180E090E008958F929F92BB
:1022F000AF92BF92CF92DF92EF92FF920F931F9314
:10230000CF93DF9349015A0167017801CDE5D3E00E
:102310006C877D878E879F872CA13DA14EA15FA1F1
:102320000E94AC2CAB01BC01CE010E94410E888AF8
:10233000998AAA8ABB8A28A539A54AA55BA5C501A1
:10234000B4010E94AC2CAB01BC0180E693E00E947A
:10235000410ECC8ADD8AEE8AFF8A2CA53DA54EA5CA
:102360005FA5C701B6010E94AC2CAB01BC0183E69E
:1023700093E0DF91CF911F910F91FF90EF90DF904D
:10238000CF90BF90AF909F908F900C94410E2F9262
:102390003F924F925F926F927F928F929F92AF92F5
:1023A000BF92CF92DF92EF92FF920F931F93CF9342
:1023B000DF93CDB7DEB7C654D1090FB6F894DEBFB0
:1023C0000FBECDBF6BA77CA78DA79EA72FA738AB4D
:1023D00049AB5AABEBAAFCAA0DAB1EABAFA2B8A699
:1023E000C9A6DAA619A21AA21BA21CA21D8E1E8EB5
:1023F0001F8E18A2198E1A8E1B8E1C8E1D8A1E8A85
:102400001F8A188E198A1A8A1B8A1C8A1D861E86A4
:102410001F86188A19861A861B861C861D821E82B4
:102420001F82188619821A821B821C8281E08F9378
:10243000CE010D969F938F939E012F5E3F4F4901D2
:1024400008965C01CBA8DCA8EDA8FEA80FA518A9EA
:1024500029A93AA94BA55CA56DA57EA58DE593E0BC
:102460000E94B8080F900F900F90823011F482E014
:1024700092C220E030E0A9016FA178A589A59AA5B4
:102480000E94B835811115C08FEF9FEF90939B0389
:1024900080939A03ED84FE840F85188929893A89EF
:1024A0004B895C896D897E898F89988D0E94761110
:1024B000BBC18091690390916A03A0916B03B091B5
:1024C0006C038BAF9CAFADAFBEAF80916D039091AD
:1024D0006E03A0916F03B091700323968CAF9DAFF4
:1024E000AEAFBFAF23978091710390917203A0911B
:1024F0007303B091740327968CAF9DAFAEAFBFAF9F
:1025000027979E012F5F3F4FAE014B5F5F4FBE018C
:10251000675F7F4F8DE593E00E94F60B2BAD3CADDE
:102520004DAD5EAD6D897E898F89988D0E94AB2CF3
:102530006B017C0120E030E0A9010E947A2E260187
:102540003701181624F077FA709477F87094239670
:102550002CAD3DAD4EAD5FAD239769897A898B89EE
:102560009C890E94AB2C4B015C0120E030E0A9016A
:102570000E947A2E181624F0B7FAB094B7F8B094E7
:10258000A5019401C301B2010E947A2E181684F4A9
:1025900020E030E0A901C701B6010E947A2E18168A
:1025A0001CF4C701B60106C0C701B601905802C0AD
:1025B000C501B4010E94BE2D3B01072E000C880B03
:1025C000990B0E94BF354B015C0127962CAD3DADA8
:1025D0004EAD5FAD27976D857E858F8598890E946A
:1025E000AB2C6B017C0120E030E0A9010E947A2E27
:1025F000181624F0F7FAF094F7F8F094A701960172
:10260000C501B4010E947A2E18162CF0C701B6013C
:102610000E94BE2D3B01161417040CF028CF830135
:102620000D33110514F00CE310E089859A85AB8514
:10263000BC858FAB98AFA9AFBAAF9C01AD016BA5BC
:102640007CA58DA59EA50E94AB2C4B015C012D8124
:102650003E814F8158856FA578A989A99AA90E94C2
:10266000AB2C6B017C0129813A814B815C816BA988
:102670007CA98DA99EA90E94AB2C2B013C01A50130
:102680009401C501B4010E941E364B015C01A701F3
:102690009601C701B6010E941E369B01AC01C5011F
:1026A000B4010E94AC2C6B017C01A3019201C30117
:1026B000B2010E941E369B01AC01C701B6010E9407
:1026C000AC2C0E94952E4B015C0120E030E048ECE0
:1026D00052E46FA178A589A59AA50E94B83587FF15
:1026E000A5C080E090E0A8ECB2E48FA398A7A9A7CA
:1026F000BAA7B801012E000C880B990B0E94BF35B8
:102700006B017C012FA138A549A55AA5C501B401CB
:102710000E944C2D20E030E04AE754E40E941E362F
:10272000A70196010E944C2D0E94C52D78A76FA38A
:102730006531710508F08CC038010D3311051CF0AE
:102740004CE3642E712C730104EA13E02BA53CA525
:102750004DA55EA56FA978AD89AD9AAD0E943310E5
:102760006D817E818F81988504E914E02FA538A9B9
:1027700049A95AA90E94331069817A818B819C8171
:1027800004E815E02BA93CA94DA95EA90E943310CD
:102790003DE5432E33E0532E212C312CDE0159969A
:1027A000BEA3ADA3261437040CF47DC0C301880F6B
:1027B000991F880F991F875A9C4FFC01E95BFF4FB7
:1027C0004D895E896F89788D4083518362837383DD
:1027D000E051FF4F49895A896B897C894083518335
:1027E00062837383E051FF4F8D859E85AF85B889E5
:1027F00080839183A283B3832FA138A530939F0355
:1028000020939E0370929D0360929C0310929B0301
:1028100010929A030E9444056093A0037093A10351
:102820008093A2039093A30381E0B5C020E030E041
:102830004AE754E46FA178A589A59AA50E947A2E4B
:1028400018160CF056CF80E090E0AAE7B4E44DCF24
:1028500080E090E00E94BD3520E030E040EA51E4A5
:102860000E944C2D9B01AC01C701B6010E941E368F
:102870006B017C0120E030E040E752E40E94B83573
:1028800087FF0AC0C701B6010E94BE2D8B0124E15B
:1028900030E038A72FA350CF84E190E098A78FA312
:1028A0000CE310E049CFF201E95DFD4FC080D1801B
:1028B000E280F380E05FF1090081118122813381A0
:1028C000E05FF1094081518162817381B1E0BF9382
:1028D0008EA18F939DA19F93DE015D964D01CE0148
:1028E00081965C018DE593E00E94B80894E0490E62
:1028F000511C0F900F900F90813019F589A19AA16A
:10290000ABA1BCA1F201ED5BFF4F80839183A28359
:10291000B3838D8D9E8DAF8DB8A1E051FF4F808325
:102920009183A283B383898D9A8DAB8DBC8DE05149
:10293000FF4F80839183A283B383AFEF2A1A3A0AB1
:1029400031CF2D893E894F89588D730104EA13E0F8
:102950006BAD7CAD8DAD9EAD0E94331029893A8957
:102960004B895C8904E914E023966CAD7DAD8EAD96
:102970009FAD23970E9433102D853E854F85588942
:1029800004E815E027966CAD7DAD8EAD9FAD279721
:102990000E9433100BCFCA5BDF4F0FB6F894DEBF37
:1029A0000FBECDBFDF91CF911F910F91FF90EF90A0
:1029B000DF90CF90BF90AF909F908F907F906F905F
:1029C0005F904F903F902F900895AF92BF92CF921B
:1029D000DF92EF92FF920F931F93CF93DF93CDB7C8
:1029E000DEB728970FB6F894DEBF0FBECDBF7C01CF
:1029F000062F10E0FC016330D1F463AD0E94A907FB
:102A0000A0E0B0E09C01AD01225631094109510915
:102A1000A4EBB0E00E9414372AE631E040E050E039
:102A20000E94F536CA01B9010E94BF3534C0E00FDB
:102A3000F11F60AD0E94A9075C011D821E821F82EA
:102A4000188619821A821B821C82BE016B5F7F4F1F
:102A50006801CC0CDD1CCC0CDD1CC6018A5B9F4FD1
:102A60000E948307BE016F5F7F4FC601C2960E941E
:102A70008307B501BB0C880B990B0E94BF352981D8
:102A80003A814B815C810E941E362D813E814F81AF
:102A900058850E94AC2C075F1F4F000F111F000FBD
:102AA000111FF701E00FF11F208131814281538115
:102AB0000E94AB2C6B017C0120E030E0A9010E9458
:102AC000B83587FD11C020E030E044E353E4C7018E
:102AD000B6010E947A2E181654F4C12CD12C84E32E
:102AE000E82E83E4F82E03C0C12CD12C7601C70157
:102AF000B60128960FB6F894DEBF0FBECDBFDF91AA
:102B0000CF911F910F91FF90EF90DF90CF90BF90EA
:102B1000AF9008950F931F93CF938C01C62FDC01C4
:102B20008C918C3008F049C061E08C2F0E94B70472
:102B3000F801808196E0899FF0011124EC5EFC4F42
:102B4000CF739081907CC92BC0836CE00E94602C75
:102B5000ACE08A9FA001112420E030E096E0B901AA
:102B6000640F751F969FF001979FF00D1124EC5E86
:102B7000FC4F608166FD16C02F5F3F4F2C30310542
:102B800071F781110FC01092800082E08093810064
:102B90001092850010928400B19A80916F0082603B
:102BA00080936F00D801EC91B6E0EB9FF001112407
:102BB000EC5EFC4F808180648083F8018081CF913E
:102BC0001F910F9108950F931F93CF93DF9301E906
:102BD00013E0CDE5D3E0F80161918F0170E0CE0103
:102BE0000E948A152396F3E0C936DF07A1F7DF912B
:102BF000CF911F910F910895EF92FF920F931F9322
:102C0000CF93DF938C017B01D82FDF77DC37D0F0B7
:102C1000E0E8CE2FCD1B2C2FAC0160EAC7010E944B
:102C20002D0765E070E080E090E00E940A058C2F9F
:102C300090E025E82D0FAC01400F511F60EA8E0D8A
:102C40009F1D04C025E0AC0160EAC701DF91CF9170
:102C50001F910F91FF90EF900C942D072F923F92B0
:102C60004F925F926F927F928F929F92AF92BF929C
:102C7000CF92DF92EF92FF920F931F93CF93DF9348
:102C8000CDB7DEB7CA54D1090FB6F894DEBF0FBE78
:102C9000CDBF0091750610917606302F3F773C37F7
:102CA00028F180E8F82EF31A2F2DA80160EACE0152
:102CB00001962B963FAF2B970E94C80665E070E007
:102CC00080E090E00E940A058F2D90E02B963FADAA
:102CD0002B9725E8230FAC01400F511F60EAA1E0BC
:102CE000B0E0AC0FBD1F8A0F9B1F05C025E0A801F7
:102CF00060EACE0101960E94C80619811F3F09F4BF
:102D00004DC16A8170E080E090E00E94BD356CABFF
:102D10007DAB1C01612F70E080E090E00E94BD352A
:102D20006CA77DA78EA79FA76B8170E080E090E0E5
:102D30000E94BD3568AB79AB8AAB9BAB1EA21FA2CC
:102D400018A619A61AA21BA21CA21DA21E8E1F8EB7
:102D500018A219A21A8E1B8E1C8E1D8E1E8A1F8A07
:102D6000188E198E1A8A1B8A1C8A1D8A1E861F8637
:102D7000188A198A1A861B861C861D861E821F8247
:102D8000188619863F922F92BDA9BF93ECA9EF93A5
:102D9000ACA4BDA4CEA4DFA4E8A8F9A80AA91BA9E5
:102DA0009E012E5E3F4FAE014A5E5F4FBE01665EE2
:102DB0007F4F8DE593E00E94140B0F900F900F90C2
:102DC0000F90823009F4B8C02091690330916A03F2
:102DD00040916B0350916C032CAF3DAF4EAF5FAF92
:102DE00080916D0390916E03A0916F03B091700379
:102DF00024968CAF9DAFAEAFBFAF249720917103E7
:102E000030917203409173035091740328962CAF54
:102E10003DAF4EAF5FAF28979E012A5F3F4FAE0197
:102E2000465F5F4FBE01625F7F4F8DE593E00E947A
:102E3000F60B2CAD3DAD4EAD5FAD68A979A98AA961
:102E40009BA90E94AB2C6B017C0120E030E0A90122
:102E50000E947A2E26013701181624F077FA709412
:102E600077F8709424962CAD3DAD4EAD5FAD2497B0
:102E70006CA57DA58EA59FA50E94AB2C4B015C0186
:102E800020E030E0A9010E947A2E181624F0B7FA4B
:102E9000B094B7F8B094A5019401C301B2010E94A7
:102EA0007A2E181684F420E030E0A901C701B6019B
:102EB0000E947A2E18161CF4C701B60106C0C7017D
:102EC000B601905802C0C501B4010E94BE2D7B011D
:102ED000072E000C880B990B0E94BF352B013C017B
:102EE00028962CAD3DAD4EAD5FAD2897BCA9ADA9E0
:102EF0006B2F7A2F822D932D0E94AB2C4B015C01FE
:102F000020E030E0A9010E947A2E181624F0B7FACA
:102F1000B094B7F8B094A5019401C301B2010E9426
:102F20007A2E18162CF0C501B4010E94BE2D7B012B
:102F30001E141F040CF443C06C8170E080E090E02C
:102F40000E94BD3560937503709376038093770379
:102F50009093780320918D0330918E0340918F03DD
:102F6000509190030E94AC2CAB01BC0186E693E02B
:102F70000E94410E86E00E94DC032D8131E0019722
:102F800009F030E0321781F08DE593E0222319F04B
:102F90000E94E70C09C00E94DF0C06C08DE593E09B
:102FA0000E94DF0C80E015C1809175069091760635
:102FB0000596909376068093750681E00AC13701E5
:102FC0003DE3E316F1041CF03CE3632E712C82E335
:102FD00090E0B3010E946C2C2A967FAF6EAF2A97C7
:102FE0002A8D3B8D4C8D5D8D6E857F858889998975
:102FF000730104EA13E00E94F0102E893F89488D86
:10300000598D6A857B858C859D8504E914E00E9435
:10301000F0102A893B894C895D896E817F81888582
:10302000998504E815E00E94F01044EA53E059AF96
:1030300048AF84E994E09BAF8AAF1FAB0EAB412C45
:10304000512CFE017E96FBA7EAA7AEA9BFA9CD90A1
:10305000DD90ED90FC90EAADFBAD00811181228105
:103060003381A8ADB9AD4D915D916D917C91B1E089
:10307000BF93EBA5EF93FAA5FF93CE0182964C0187
:10308000DE0196965D018DE593E00E94B8080F90F1
:103090000F900F90813061F58EA19FA1A8A5B9A5D1
:1030A000E8ADF9AD81939193A193B193F9AFE8AFF6
:1030B0008AA19BA1ACA1BDA1EAADFBAD8193919387
:1030C000A193B193FBAFEAAF8E8D9F8DA8A1B9A15B
:1030D000EEA9FFA981939193A193B193FFABEEABBE
:1030E000FFEF4F1A5F0A4614570409F0AECF2EC007
:1030F000461457045CF5730104EA13E028A939A9C2
:103100004AA95BA96CAD7DAD8EAD9FAD0E94F0105C
:1031100004E914E02CA53DA54EA55FA524966CAD51
:103120007DAD8EAD9FAD24970E94F01004E815E0B0
:103130007CA96DA9272F362F422D532D28966CADD3
:103140007DAD8EAD9FAD28970E94F010C301880F12
:10315000991F880F991F875A9C4FFC01E95BFF4F0D
:1031600028A939A94AA95BA92083318342835383C3
:10317000E051FF4F2CA53DA54EA55FA520833183CF
:1031800042835383E051FF4F5CA94DA9852F942FB3
:10319000A22DB32D80839183A283B3832A964EAD53
:1031A0005FAD2A9750939F0340939E0370929D03B7
:1031B00060929C0310929B0310929A030E94440514
:1031C0006093A0037093A1038093A2039093A30341
:1031D000B3CEC65BDF4F0FB6F894DEBF0FBECDBFD8
:1031E000DF91CF911F910F91FF90EF90DF90CF90E3
:1031F000BF90AF909F908F907F906F905F904F9017
:103200003F902F9008953F924F925F926F927F92DE
:103210008F929F92AF92BF92CF92DF92EF92FF92E6
:103220000F931F93CF93DF9300D000D0CDB7DEB7BD
:103230008C012A013B0181E080930B0361E08091C6
:103240000A030E94B7044092100350921103609247
:103250001203709213030E94440560930C03709351
:103260000D0380930E0390930F0380910A039091B6
:103270000001981721F09F3F09F033C204C0E6E334
:10328000F1E0349081C080930001E6E3F1E0E49145
:10329000EF3F09F426C2E13031F1E23009F44BC0CE
:1032A000E11171C014BC15BC94B5926094BD95B584
:1032B000916095BD282F30E0F901EE5DFE4FE4915D
:1032C000F0E0EE0FFF1FE85EFE4F459154915093E2
:1032D000990640939806F901EC5FFE4FE491E09364
:1032E0009706312C53C0109280001092810090916B
:1032F00081009860909381009091810091609093FB
:103300008100282F30E0F901EE5DFE4FE491F0E0FE
:10331000EE0FFF1FE85EFE4F4591549150939606C5
:1033200040939506F901EC5FFE4FE491E09394061B
:10333000332433942BC01092B0001092B1009091BE
:10334000B00092609093B0009091B1009160909322
:10335000B100282F30E0F901EE5DFE4FE491F0E07E
:10336000EE0FFF1FE85EFE4F4591549150932902E6
:1033700040932802F901EC5FFE4FE491E0932702AD
:1033800062E0362E03C03E2E37FCABC161E00E94E6
:10339000B7044801A12CB12C832D8D7F09F0BBC04F
:1033A00060E072E18AE790E0A50194010E94F536A1
:1033B00029833A834B835C8369017A0121E0C21A35
:1033C000D108E108F1088FEFC816D104E104F10437
:1033D00009F008F44CC060E472E48FE090E0A501CD
:1033E00094010E94F53669017A01E1E0CE1AD10814
:1033F000E108F108F2E03F1220C02FEFC216D1041D
:10340000E104F10409F008F46AC160E970ED83E0B9
:1034100090E0A50194010E94F53669017A0181E0EE
:10342000C81AD108E108F108EFEFCE16D104E10483
:10343000F10409F0D0F583E067C0FFEFCF16D104A7
:10344000E104F104B1F0A8F068E478EE81E090E0E6
:10345000A50194010E94F53669017A0181E0C81A3C
:10346000D108E108F108332009F4DFC02FC181E061
:1034700001C082E03320A1F047C089819A81AB81ED
:10348000BC812AE0B595A795979587952A95D1F7A0
:103490006C017D0121E0C21AD108E108F10885E044
:1034A00095B5987F892B85BD6FC068E478EE81E083
:1034B00090E0A50194010E94F53669017A01F1E0DE
:1034C000CF1AD108E108F1082FEFC216D104E104A8
:1034D000F10409F008F4A7C064E274EF80E090E022
:1034E000A50194010E94F53669017A01E1E0CE1A46
:1034F000D108E108F108FFEFCF16D104E104F1048F
:1035000011F008F0B4C085E09091B100987F892B4C
:103510008093B10039C060E072E18AE790E0A501D4
:1035200094010E94F53669017A0181E0C81AD10838
:10353000E108F108C114D104E1E0EE06F10488F0DD
:1035400068E478EE81E090E0A50194010E94F536F0
:1035500069017A01F1E0CF1AD108E108F10893E09E
:1035600001C091E021E032120FC080918100887F7C
:10357000892B80938100411451046104710449F442
:103580002FEF3FEFA9012DC04114510461047104D4
:1035900071F0D801AA0FBB1FA30192010E9414373A
:1035A00028EE33E040E050E00E94563703C02FEF92
:1035B0003FEFA90181E03816A1F0E2E03E1619F1D3
:1035C00031108FC0C7BC20939E0630939F06409356
:1035D000A0065093A10680916E00826080936E00D9
:1035E00080C0D0928900C092880020939A063093C0
:1035F0009B0640939C0650939D0680916F008260CD
:1036000080936F006EC0C092B30020932A02309363
:103610002B0240932C0250932D0280917000826007
:10362000809370005EC084E06FCFFFEFCF16D104AF
:10363000E104F104D1F0C8F062E17AE780E090E0C3
:10364000A50194010E94F53669017A0181E0C81A4A
:10365000D108E108F108EFEFCE16D104E104F1043E
:1036600011F008F00ACF84E01BCF83E019CF62E1AC
:103670007AE780E090E0A50194010E94F5366901A7
:103680007A0181E0C81AD108E108F108EFEFCE16FF
:10369000D104E104F104C1F0B8F089819A81AB81D1
:1036A000BC814AE0B595A795979587954A95D1F73E
:1036B0006C017D0121E0C21AD108E108F108332034
:1036C00009F4EDCE87E020CF86E0D4CEFFEFCF1611
:1036D000D104E104F10409F050F684E0CBCE82E09D
:1036E00013CF0F900F900F900F90DF91CF911F91FC
:1036F0000F91FF90EF90DF90CF90BF90AF909F9091
:103700008F907F906F905F904F903F900895CF93F0
:10371000DF93FC0144815581608171818EE292E0EA
:103720000E946101EC018EE391E00E9464118C0F14
:103730009D1FDF91CF9108950C9464118F929F92F9
:10374000AF92BF920F931F93CF93DF93CDB7DEB7A6
:10375000A1970FB6F894DEBF0FBECDBF19A24230BD
:1037600008F44AE08E010F5D1F4F842E912CA12C8E
:10377000B12CA50194010E945637E62FB901CA0168
:1037800001501109EA3014F4E05D01C0E95CD80190
:10379000EC93232B242B252B61F7C8010E94641185
:1037A000A1960FB6F894DEBF0FBECDBFDF91CF91CB
:1037B0001F910F91BF90AF909F908F900895CF92DF
:1037C000DF92EF92FF92CF93DF9397FF21C06B01BF
:1037D0007C01E0912E02F0912F020190F081E02D0A
:1037E0006DE28EE292E00995EC0166277727CB0126
:1037F0006C197D098E099F094AE00E949E1B8C0F5F
:103800009D1FDF91CF91FF90EF90DF90CF900895B3
:103810004AE0DF91CF91FF90EF90DF90CF900C9432
:103820009E1B0F931F93CF9309E613E0C0E06C2F0C
:103830008DE593E00E94E514F80161937193819303
:1038400091938F01CF5FC43091F7CF911F910F916A
:1038500008950F931F93CF93DF938C01EB0181E4C5
:1038600091E00E949C1BB801110F880B990B0E94DC
:10387000DF1B83EA91E00E949C1BBE0180E090E088
:103880004AE00E949E1B8EE391E0DF91CF911F9151
:103890000F910C9464110F931F93CF93DF93EC015E
:1038A0008B0181E491E00E949C1BBE01DD0F880B1F
:1038B000990B0E94DF1B86EA91E00E949C1BC801C5
:1038C000DF91CF911F910F910C94871BCF93DF93C2
:1038D000EC0181E491E00E949C1BBE01DD0F880B8E
:1038E000990B0E94DF1B89EA91E00E949C1B8BEAE6
:1038F00091E00E9464118EE391E0DF91CF910C94EE
:103900006411CF93DF93CDB7DEB7C95CD1090FB691
:10391000F894DEBF0FBECDBF789484B5826084BDBD
:1039200084B5816084BD85B5826085BD85B58160C3
:1039300085BD80916E00816080936E001092810041
:1039400080918100826080938100809181008160FC
:1039500080938100809180008160809380008091BD
:10396000B10084608093B1008091B0008160809349
:10397000B00080917A00846080937A0080917A0010
:10398000826080937A0080917A00816080937A00CF
:1039900080917A00806880937A001092C100E09153
:1039A0003E02F0913F0282E08083E0913A02F09182
:1039B0003B021082E0913C02F0913D0280E1808365
:1039C00010924602E0914202F091430286E0808329
:1039D000E0914002F0914102808180618083E0911A
:1039E0004002F0914102808188608083E091400232
:1039F000F0914102808180688083E0914002F091E3
:103A0000410280818F7D808362E084E00E94B70460
:103A100061E083E00E94B70462E082E00E94B704A4
:103A200062E087E00E94B70461E086E00E94B7048C
:103A300061E089E00E94B70461E085E00E94B7047C
:103A40000EE110E019821A821B821C82BE016F5F98
:103A50007F4FC8010E94830769817A818B819C8195
:103A60009B01AC010E94D92E98012C5F3F4F690148
:103A7000811116C0F801E35AFC4F89819A81AB810C
:103A8000BC8186839783A087B18786010E3211059A
:103A9000C9F619E7E12E13E0F12E00E010E01DC099
:103AA00019821A821B821C82CE0101965C01780168
:103AB000D5016D915D01CF57DF4FF982E882C15882
:103AC000D040CE018F579F4F0E94D50DBFEFEB1A0C
:103AD000FB0AEC14FD0461F7CDCF6AE070E080E0F2
:103AE00090E00E940A05A8014C505E4E22E062EA76
:103AF000CE0101960E94C806898190E0982F882700
:103B00002A81820F911DF701819391937F011C5FA0
:103B10000115FCE01F0709F710925E0310925F0386
:103B20001092610310926203109264031092650375
:103B300087EE8093670389E1809368030E94E31511
:103B400060E08DE593E00E94E51460936903709353
:103B50006A0380936B0390936C0361E08DE593E0BF
:103B60000E94E51460936D0370936E0380936F035E
:103B70009093700362E08DE593E00E94E5146093FA
:103B8000710370937203809373039093740363E0E3
:103B90008DE593E00E94E5146093750370937603BE
:103BA000809377039093780384E080937C0681E090
:103BB00090E0909381068093800627E02093820610
:103BC000909387068093860683E080930A038FEFA5
:103BD0009FEF90939B0380939A0390939D03809310
:103BE0009C03A12CB12CF8ECCF2EF2E4DF2EE12CBB
:103BF000F12C06E113E4A801970160E070E0CB012D
:103C00000E94C7118BE391E00E9464118EE391E062
:103C10000E9464111E0129E9220E311CCE01815639
:103C20009F4FC555DF4F99838883CB5AD040D10130
:103C30001496CB53DF4FB983A883C55CD040E1E82D
:103C4000F0E0EC0FFD1F7096C953DF4FF983E88356
:103C5000C75CD0409E012F5F3F4F39012E0135E0F8
:103C6000430E511C81E890E08C0F9D1F0C96CF53A2
:103C7000DF4F99838883C15CD040A1E8B0E0AC0FEE
:103C8000BD1F1896CD53DF4FB983A883C35CD040C6
:103C90008EE292E00E94AE01892B31F08EE292E03A
:103CA0000E948C018F3F39F480919A0390919B037D
:103CB00097FF9DC006C12091CB023091CC02211507
:103CC000310521F02130310551F08CC0833201F7EC
:103CD000E1E0F0E0F093CC02E093CB0207C09091DA
:103CE00009039C3308F07EC0833219F41092090353
:103CF000CFCF292F30E08A3021F5F901E553FD4F70
:103D00001282EDECF2E001900020E9F78F010E5CE9
:103D10001240980123533D4F7901101611060CF003
:103D200061C0D7018E917D01082E000C990B0E9475
:103D30008735892B09F4B4C2F701108201501109AB
:103D4000ECCF9F5F90930903F901E553FD4F828308
:103D50009FCF06301105D9F00115110509F0AEC24B
:103D60000E943E31CF57DF4F688379838A839B83DC
:103D7000C158D04069EA71E080E090E00E94423191
:103D80000F5F1F4FF4E0CF0ED11C009711F7CF57F4
:103D9000DF4F688179818A819B81C158D0400E9420
:103DA000BE2DC355DF4F688379838A839B83CD5AA9
:103DB000D040CB57DF4F688179818A819B81C5587C
:103DC000D0400E94BE2D025011092DE4F21609F4D4
:103DD00039C430E5F31611F40C94CD2887E4F816B5
:103DE00009F489C21092CC021092CB0251CF2091DB
:103DF0009C0330919D03821793070CF062C00E94D0
:103E0000440500919A0310919B03C090A003D090A9
:103E1000A103E090A203F090A303AB01BC014C19F5
:103E20005D096E097F0920919E0330919F03029FD7
:103E3000C001039F900D129F900D1124A0E0B0E0EF
:103E4000481759076A077B0708F441C0000F111F84
:103E5000000F111F98012C573A4FA8014C565B4F89
:103E6000B8016C557C4F8DE593E00E9415088230B7
:103E7000C1F0C801835A9C4FFC01E95DFD4FE08011
:103E8000F18002811381E05FF1092081318142815B
:103E90005381E05FF10960817181828193810E9489
:103EA000761180919A0390919B03019690939B03C6
:103EB00080939A0320919C0330919D03821793076E
:103EC00034F08FEF9FEF90939B0380939A03809140
:103ED0007F06813009F040C010927F068091740601
:103EE000823050F08230C1F585E0809374068DE514
:103EF00093E00E94DF0C30C082E080937406109241
:103F0000760610927506E0915D0386E08E9FF001C3
:103F10001124EC5EFC4F90819F7B9083E0916003C5
:103F20008E9FF0011124EC5EFC4F90819F7B90836B
:103F3000E09163038E9FF0011124EC5EFC4F9081B1
:103F40009F7B9083E09166038E9FF0011124EC5ECD
:103F5000FC4F80818F7B808380918506823061F465
:103F60001092850680917406823058F5109276067C
:103F70001092750684E017C0813019F510928506FD
:103F800080917406823091F048F08530D0F48DE550
:103F900093E00E94DF0C1092740613C01092760614
:103FA0001092750683E0809374060BC086E00E9431
:103FB000DC03019711F00C945F2B8DE593E00E94D8
:103FC000DF0C8091880690918906892B09F49AC0AC
:103FD0000E94440500918C0610918D0620918E065A
:103FE00030918F06AB01BC01401B510B620B730B70
:103FF0008091880690918906A0E0B0E048175907A3
:104000006A077B0708F47EC00E94440560938C0613
:1040100070938D0680938E0690938F060E94111CDC
:104020009101AE0141565F4FBE016D557F4F8DE549
:1040300093E00E94F60BF10183818F9382818F932D
:1040400081818F9380818F93CE55DF4F8881C25AB3
:10405000D0408F93CF55DF4F8881C15AD0408F9386
:10406000C056DF4F8881C05AD0408F93C156DF4F72
:104070008881CF59D0408F93CA55DF4F8881C65A67
:10408000D0408F93CB55DF4F8881C55AD0408F9356
:10409000CC55DF4F8881C45AD0408F93CD55DF4F28
:1040A0008881C35AD0408F938DE591E09F938F9381
:1040B0008E010F5F1F4F1F930F930E94EF0CB801EB
:1040C000CE018F579F4F0E94380381EA91E00E94F2
:1040D0009C1B63E070E080E090E00E94DF1B89EAB7
:1040E00091E00E949C1BCE018F579F4F0E94871B1F
:1040F000CE018F579F4F0E9433030FB6F894DEBF57
:104100000FBECDBF0E94440500917806109179063C
:1041100020917A0630917B06DC01CB01801B910B4C
:10412000A20BB30BC297A105B10590F00E94440504
:10413000609378067093790680937A0690937B0655
:1041400082E896E00E94F50D8CE796E00E94F50D5E
:104150000E944405009190061091910620919206CC
:1041600030919306DC01CB01801B910BA20BB30BAA
:10417000C297A105B10508F490C00E944405609360
:104180009006709391068093920690939306909177
:104190007406933049F018F49230B1F07EC0943038
:1041A00051F0953089F079C00E942E16811175C0AA
:1041B0001092740604C00E942E1681116EC01092D7
:1041C00076061092750669C02091750630917606C4
:1041D0002B3F8FEF380748F0109274061092760646
:1041E000109275060E94E31558C02A3FAFEF3A07B8
:1041F00009F44AC0953009F447C060E08DE593E0CA
:104200000E94E5146B017C0161E08DE593E00E9462
:10421000E5142B013C0162E08DE593E00E94E5147A
:104220004B015C01C301B2010E94C52D6983C50128
:10423000B4010E94C52D6A83C701B6010E94C52D35
:104240006B8363E08DE593E00E94E5140E94C52D29
:104250006C8386E00E94DC0321E0019709F020E0F6
:104260002D83BE016F5F7F4F80917506909176061A
:104270000E94FC15809175069091760605969093A4
:1042800076068093750609C08FEF8983BE016F5F44
:104290007F4FC9010E94FC159FCF0E944E02DACCCD
:1042A00069EA71E08DEC92E00E944231FE01EF5725
:1042B000FF4F6F01F12C00E010E067CD9C012F5FF4
:1042C0003F4F0130110571F4DC01FC90C9010E94DF
:1042D0003E31CB57DF4F688379838A839B83C558F0
:1042E000D04048CDC9010E943E31F6016083718300
:1042F000828393833FCD6A3C710509F4C5C044F4C1
:104300006115710579F0693C710591F10C944A2BA6
:104310006B3C710509F4F7C06C3C710509F4FEC0F3
:104320000C944A2B0430110511F00C944D2BCB56F4
:10433000DF4FA880B980CA80DB80C559D040CF56F6
:10434000DF4FE880F9800A811B81C159D040C357F3
:10435000DF4F288139814A815B81CD58D040C757D2
:10436000DF4F688179818A819B81C958D04055C1CE
:104370000430110511F00C944D2BC757DF4F888185
:104380009981AA81BB81C958D040CF54DF4F88831F
:104390009983AA83BB83C15BD04026EE3EE245E60B
:1043A00052E4C357DF4F688179818A819B81CD5860
:1043B000D0400E944C2D6B017C010E94472DCB54B4
:1043C000DF4F688379838A839B83C55BD040C701B5
:1043D000B6010E94872E9B01AC01CB56DF4FA8800F
:1043E000B980CA80DB80C559D040CF56DF4F888165
:1043F0009981AA81BB81C159D040C754DF4F8883BE
:104400009983AA83BB83C95BD040CF54DF4F6881B7
:1044100079818A819B81C15BD0400E941E36C35442
:10442000DF4F688379838A839B83CD5BD040CB54F5
:10443000DF4F288139814A815B81C55BD040CF54F1
:10444000DF4F688179818A819B81C15BD0400E9466
:104450001E36C754DF4FE880F9800A811B81C95B93
:10446000D040C354DF4F288139814A815B81CD5BC5
:10447000D0400E94C711C355DF4F88819981CD5A22
:10448000D0400E94661CAECC0230110511F00C9495
:104490004D2BC357DF4FC880D980EA80FB80CD58B1
:1044A000D040C757DF4F688179818A819B81C95885
:1044B000D0400E94C52D062F10E0F801EE0FFF1F1F
:1044C000EE0FFF1FE759FC4FC082D182E282F382D8
:1044D000F801EE0FFF1FEE0FFF1FEF57FC4F20817B
:1044E000318142815381C701B6010E94AC2CAB01DE
:1044F000BC01C801880F991F800F911F835A9C4FE0
:104500000E94410EB8CF012B11F00C944D2B8FEF70
:104510009FEF90939B0380939A03ADCF04301105D6
:1045200011F00C944D2B9301A101BE0161567F4FF8
:104530008DE593E00E94F60BC156DF4F288139814B
:104540004A815B81CF59D040C757DF4F688179815D
:104550008A819B81C958D0400E94AC2CCF54DF4F38
:10456000688379838A839B83C15BD040C757DF4FC1
:10457000688379838A839B83C958D040D1012D9168
:104580003D914D915C91C357DF4F688179818A815C
:104590009B81CD58D0400E94AC2CCB54DF4F688318
:1045A00079838A839B83C55BD040C357DF4F688381
:1045B00079838A839B83CD58D04029813A814B816E
:1045C0005C81CF56DF4F688179818A819B81C15997
:1045D000D0400E94AC2CCF56DF4F688379838A830A
:1045E0009B83C159D040CB56DF4FA880B980CA8089
:1045F000DB80C559D0407B018C01CB54DF4F288133
:1046000039814A815B81C55BD040CF54DF4F6881DF
:1046100079818A819B81C15BD0400E94C711823021
:1046200009F029CF1AE081E491E00E949C1BC35558
:10463000DF4FE881F981CD5AD040BF01FF0F880BD1
:10464000990B94C5643D710509F42BC2D4F4693CFF
:10465000710509F455C04CF46837710569F1683C7F
:10466000710509F442C00C944A2B623D710509F4AE
:1046700088C00CF0B3C06A3C710509F460C00C94AA
:104680004A2B6E3D710509F472C44CF46C3D710502
:1046900009F40CC36D3D710509F4B7C3FBC7683E4F
:1046A000710509F40DC5603F710509F421C5673E28
:1046B000710509F0EFC7E7C40130110509F047C5DE
:1046C00020E030E04AE754E4C757DF4F6881798142
:1046D0008A819B81C958D0400E941E360E94C52DF8
:1046E0007093890660938806C6CE012B09F02FC50A
:1046F00080919A0390919B03019609F470C7D0C7EB
:104700000130110509F023C5C757DF4F6881798152
:104710008A819B81C958D0400E94C52D862F90E088
:10472000FC01E35AFC4F64A970E09C01220F331F87
:10473000820F931F835A9C4F0E948A159CCE013092
:10474000110509F004C5C757DF4F688179818A8157
:104750009B81C958D0400E94C52D70E0FB01EE0F2F
:10476000FF1F6E0F7F1FFB01E35AFC4FE08126E025
:10477000E29FF0011124EC5EFC4F80818F7B8083EF
:104780007ACE0230110509F0E2C420E030E04AE7B9
:1047900054E4C357DF4F688179818A819B81CD586A
:1047A000D0400E941E360E94C52D6B017C01C75768
:1047B000DF4F688179818A819B81C958D0400E94EE
:1047C000C52DDC01CB01C114D104E104F10409F4CD
:1047D00052CEB701A6010E9403194DCE0330110538
:1047E00009F0B5C4C357DF4F688179818A819B8105
:1047F000CD58D0400E94C52D6B017C01C757DF4FBB
:10480000688179818A819B81C958D0400E94BE2DE0
:10481000CF54DF4F688379838A839B83C15BD04009
:10482000CF54DF4FA880B980C15BD040CF56DF4F57
:10483000688179818A819B81C159D0400E94BE2DB7
:104840004B0131E0A316B10409F474C082E0A8164C
:10485000B10421F0AB2809F027C202C032EA6DC0D2
:1048600092E08916910471F0A4E08A16910451F146
:10487000B1E08B16910409F05FC0C6010E94DF36DB
:104880001F9210C0F10111821082C6010E94DF3612
:10489000D1018C93C60101960E94DF36F10181831C
:1048A0008F9380818F9389E491E09F938F937F9280
:1048B0006F920E94EF0C0F900F900F900F900F903F
:1048C0000F903AC0D1011D921D921D921C92139718
:1048D0005101860102191309C8018A0D9B1D0E940E
:1048E000DF36F50181935F01CB53DF4F288139819A
:1048F000C55CD040E217F30779F7D10113968C918C
:1049000013978F9312968C9112978F9311968C9187
:1049100011978F938C918F938DE491E09F938F9358
:104920007F926F920E94EF0C0FB6F894DEBF0FBE1D
:10493000CDBF02C030EA01C030E0CF54DF4F8881E4
:104940009981C15BD0400197029708F04DC6F2E013
:104950008F16910461F024E08216910459F081E0F1
:104960008816910409F0F3C301E010E005C002E0ED
:1049700010E002C004E010E02C2D2F77422F50E011
:1049800081E890E0801B910B481759074CF110E823
:10499000121B212FA601632FCE0181569F4FC753B3
:1049A000DF4F3883C95CD0400E94C80665E070E0E4
:1049B00080E090E00E940A05812F90E0202F211BCB
:1049C000AC014C0D5D1DC753DF4F3881C95CD04031
:1049D000632FAFE9B0E0AC0FBD1F8A0F9B1F06C06D
:1049E000202FA601632FCE0181569F4F0E94C8063B
:1049F000B2E08B16910479F0E4E08E16910459F13F
:104A00008A94892809F0F0C5C156DF4F8881CF59B3
:104A1000D0401F9210C0C156DF4F8881CF59D0407F
:104A200090E0982F8827C056DF4F2881C05AD04089
:104A3000820F911D9F938F9389E491E09F938F93B1
:104A40007F926F920E94EF0C0F900F900F900F903B
:104A50000F900F90C9C5CE55DF4F8881C25AD04004
:104A60008F93CF55DF4F8881C15AD0408F93C05666
:104A7000DF4F8881C05AD0408F93C156DF4F888165
:104A8000CF59D0408F938DE491E09F938F937F9285
:104A90006F920E94EF0C0FB6F894DEBF0FBECDBF31
:104AA000A3C50430110509F052C3C357DF4F688115
:104AB00079818A819B81CD58D0400E94C52D6B01A0
:104AC0007C01CF56DF4F688179818A819B81C159F2
:104AD000D0400E94BE2D8B01C757DF4F688179817E
:104AE0008A819B81C958D0400E94BE2DCF54DF4F90
:104AF000688379838A839B83C15BD040CF54DF4F27
:104B000088819981C15BD0408130910509F45EC0F4
:104B10008230910521F0892B09F0C6C003C022EA3A
:104B2000B22E58C002301105A9F00430110571F100
:104B30000130110509F04DC0CB56DF4F68817981F6
:104B40008A819B81C559D0400E94C52DC6010E9413
:104B5000E7363FC0CB56DF4F688179818A819B81E0
:104B6000C559D0400E94BE2DD1016D937C93DA824D
:104B7000C982C3010E94D50DF1016181C601019670
:104B80009A838983C3010E94D50D23C0CB56DF4F82
:104B900088819981AA81BB81C559D04089839A8334
:104BA000AB83BC835301460186189708C4018A0D64
:104BB0009B1DD5016D915D01F10191838083C10140
:104BC0000E94D50DA414B50489F703C090EAB92E4C
:104BD00001C0B12CCF54DF4F88819981C15BD04097
:104BE0000197029708F047CC02301105A9F0043074
:104BF000110509F10130110509F0A9C2CB56DF4FAB
:104C0000688179818A819B81C559D0400E94C52DD8
:104C1000698301E010E01DC0CB56DF4F68817981C8
:104C20008A819B81C559D0400E94BE2D79836A83B9
:104C300002E010E00EC0CB56DF4F88819981AA8137
:104C4000BB81C559D04089839A83AB83BC8304E080
:104C500010E04C2D4F77242F30E081E890E0801B4E
:104C6000910B28173907CCF010E8141B212FA6014F
:104C70006B2DC3010E942D0765E070E080E090E09D
:104C80000E940A05812F90E0202F211BAC014C0DC2
:104C90005D1D6B2D860D971D04C0202FA6016B2D69
:104CA000C3010E942D07E7CB16E152C20330110564
:104CB00009F04DC2CF56DF4FC880D980EA80FB8013
:104CC000C159D040C357DF4F088119812A813B81E8
:104CD000CD58D040C757DF4F488159816A817B81C9
:104CE000C958D04081E08F93C455DF4FF881CC5A2A
:104CF000D040FF93C555DF4F8881CB5AD0408F936A
:104D0000DE01AD55BF4F4D01FE01E955FF4F5F017B
:104D10008DE593E00E94B808C955DF4F7881C75AE6
:104D2000D040C855DF4F6881C85AD040C755DF4FC3
:104D30009881C95AD040C655DF4F8881CA5AD040A1
:104D4000272F362F492F582FC901DA01C757DF4FB8
:104D500088839983AA83BB83C958D040CD55DF4F40
:104D6000B881C35AD040CC55DF4FA881C45AD04037
:104D7000CB55DF4F9881C55AD040CA55DF4F888147
:104D8000C65AD0406B2F7A2FE92FF82FCB01DF01C5
:104D9000C357DF4F88839983AA83BB83CD58D04004
:104DA000C156DF4FB881CF59D040C056DF4FA881E0
:104DB000C05AD040CF55DF4F9881C15AD040CE5510
:104DC000DF4F8881C25AD0408D017C01812F902F06
:104DD000AF2DBE2DCF56DF4F88839983AA83BB8327
:104DE000C159D040EF92FF920F931F93FF93EF931F
:104DF0007F936F935F934F933F932F9381E591E060
:104E00009F938F937F926F92A8C30330110509F08F
:104E10009EC1C357DF4FA880B980CA80DB80CD58C0
:104E2000D040C757DF4FE880F9800A811B81C958FD
:104E3000D040CC56DF4F8881C459D0408F93CD5697
:104E4000DF4F8881C359D0408F93CE56DF4F888182
:104E5000C259D0408F93CF56DF4F8881C159D0407F
:104E60008F939E0121563F4FAE014D555F4FBE01BE
:104E700069557F4F8DE593E00E94140BC955DF4FB4
:104E80007881C75AD040C855DF4F6881C85AD04092
:104E9000C755DF4F9881C95AD040C655DF4F88812A
:104EA000CA5AD040272F362F492F582FC901DA016F
:104EB000C757DF4F88839983AA83BB83C958D040E3
:104EC000CD55DF4FB881C35AD040CC55DF4FA881B4
:104ED000C45AD040CB55DF4F9881C55AD040CA55EF
:104EE000DF4F8881C65AD0406B2F7A2FE92FF82FD9
:104EF000CB01DF01C357DF4F88839983AA83BB832C
:104F0000CD58D040C156DF4FB881CF59D040C056A0
:104F1000DF4FA881C05AD040CF55DF4F9881C15A8A
:104F2000D040CE55DF4F8881C25AD0408D017C01E0
:104F3000812F902FAF2DBE2DCF56DF4F88839983C1
:104F4000AA83BB83C159D040EF92FF920F931F9366
:104F5000FF93EF937F936F935F934F933F932F93C1
:104F60008DE591E09F938F937F926F92F6C204300C
:104F7000110509F0ECC020E030E040E85FE3CB56DB
:104F8000DF4F688179818A819B81C559D0400E9419
:104F9000B83581113AC0C757DF4FC880D980EA8041
:104FA000FB80C958D04026EE3EE245E652E4C357A6
:104FB000DF4F688179818A819B81CD58D0400E94E2
:104FC0004C2D4B015C010E94472D9B01AC01C70198
:104FD000B6010E941E36C757DF4F688379838A83E4
:104FE0009B83C958D040C501B4010E94872E9B0104
:104FF000AC01C701B6010E941E36C357DF4F68835C
:1050000079838A839B83CD58D040CF56DF4FC880A9
:10501000D980EA80FB80C159D040C357DF4F088157
:1050200019812A813B81CD58D040C757DF4F488135
:1050300059816A817B81C958D0401F92C455DF4F86
:105040009881CC5AD0409F93C555DF4FA881CB5A49
:10505000D040AF93FE01ED55FF4F4F01CE01895572
:105060009F4F5C018DE593E00E94B8080F900F9070
:105070000F90823009F4B3C28A3009F4B0C2813093
:1050800009F0B2C20DC30130110509F060C020E083
:1050900030E0A901C757DF4F688179818A819B8100
:1050A000C958D0400E94B835811105C08DE593E004
:1050B0000E94DF0CE0C98DE593E00E94E70CDBC99C
:1050C0000130110509F043C020E030E0A901C757C5
:1050D000DF4F688179818A819B81C958D0400E94C5
:1050E000B835811102C061E001C060E089E02CC0E8
:1050F0000230110561F520E030E040E85FE3C3577E
:10510000DF4F688179818A819B81CD58D0400E9490
:10511000B83581110DC0C757DF4F688179818A8109
:105120009B81C958D0400E94C52D862F61E00CC0DC
:10513000C757DF4F688179818A819B81C958D040E8
:105140000E94C52D862F60E00E94050494C915E1D8
:1051500081E491E00E949C1BC355DF4FA881B98177
:10516000CD5AD040BD01BB0F880B990B0E94DF1BAD
:1051700089EA91E00E949C1B84EA91E00E949C1BBA
:10518000612F70E080E090E04AE00E949E1B8EE379
:1051900091E00E9464110C94F21E6C3D710509F4BB
:1051A000E0C0C4F46A3C710509F4C5C044F4683C2D
:1051B000710559F1693C710509F4B7C06BC26C3CCB
:1051C000710509F4BEC00CF4BCC06D3C710509F456
:1051D000C2C060C2683E710509F4E1C14CF46D3D86
:1051E000710509F424C1673E710509F4CFC152C2AB
:1051F000603F710509F40AC2613F710509F418C2E4
:10520000693E710509F046C2E1C1012B09F04BC2AC
:1052100060E08DE593E00E94E514C757DF4F688397
:1052200079838A839B83C958D04061E08DE593E000
:105230000E94E514C357DF4F688379838A839B8379
:10524000CD58D04062E08DE593E00E94E514CF5642
:10525000DF4F688379838A839B83C159D04063E0A1
:105260008DE593E00E94E5149B01AC01CB01DA01CE
:10527000CB56DF4F88839983AA83BB83C559D0401F
:105280005F934F933F932F93CC56DF4F8881C45940
:10529000D0408F93CD56DF4F8881C359D0408F9334
:1052A000CE56DF4F8881C259D0408F93CF56DF4F03
:1052B0008881C159D0408F93C057DF4F8881C05932
:1052C000D0408F93C157DF4F8881CF58D0408F9304
:1052D000C257DF4F8881CE58D0408F93C357DF4FDE
:1052E0008881CD58D0408F93C457DF4F8881CC58E8
:1052F000D0408F93C557DF4F8881CB58D0408F93D4
:10530000C657DF4F8881CA58D0408F93C757DF4FA9
:105310008881C958D0408F9389E691E09F938F93FD
:105320007F926F920E94EF0C1AC1012B09F0BBC152
:1053300089E791E00BC0012B09F0B5C185E891E048
:1053400005C0012B09F0AFC183E891E09F938F93D3
:105350008FE791E081C1012B09F0A5C169E871E0F7
:1053600040C1012B09F09FC10E94111CC953DF4F9E
:1053700028813981C75CD040CF53DF4F48815981A4
:10538000C15CD040CD53DF4F68817981C35CD04090
:105390008DE593E00E94F60BCC56DF4F8881C4590F
:1053A000D0408F93CD56DF4F8881C359D0408F9323
:1053B000CE56DF4F8881C259D0408F93CF56DF4FF2
:1053C0008881C159D0408F93C057DF4F8881C05921
:1053D000D0408F93C157DF4F8881CF58D0408F93F3
:1053E000C257DF4F8881CE58D0408F93C357DF4FCD
:1053F0008881CD58D0408F93C457DF4F8881CC58D7
:10540000D0408F93C557DF4F8881CB58D0408F93C2
:10541000C657DF4F8881CA58D0408F93C757DF4F98
:105420008881C958D0408F938DE591E092C0012BBF
:1054300009F039C10E94111C9E0121563F4FAE0157
:105440004D555F4FBE0169557F4F8DE593E00E943A
:10545000F60B8090690390906A03A0906B03B09064
:105460006C03C955DF4F688179818A819B81C75A56
:10547000D040CD55DF4FC880D980EA80FB80C35A29
:10548000D0409B01AC010E941E36CF54DF4F688391
:1054900079838A839B83C15BD040A7019601C701B2
:1054A000B6010E941E369B01AC01CF54DF4F6881CC
:1054B00079818A819B81C15BD0400E94AC2C0E9483
:1054C000952E9B01AC01CB01DA01C757DF4F8883D2
:1054D0009983AA83BB83C958D040B401F501CB019D
:1054E000DF01C357DF4F88839983AA83BB83CD58DD
:1054F000D040C156DF4FB881CF59D040C056DF4FA2
:10550000A881C05AD040CF55DF4F9881C15AD040B2
:10551000CE55DF4F8881C25AD0408D017C01812F4A
:10552000902FAF2DBE2DCF56DF4F88839983AA834E
:10553000BB83C159D040EF92FF920F931F93FF930B
:10554000EF937F936F935F934F933F932F9385E9EF
:1055500091E09F938F937F926F920E94EF0CB30123
:10556000C1010E943803B101C355DF4F8881998181
:10557000CD5AD0400E944B1CC1010E9433030FB68C
:10558000F894DEBF0FBECDBF0C94F21E012B09F0C4
:105590008AC086E00E94DC03019709F581C0012BD7
:1055A00009F081C089E00E94DC03019751F064E1B9
:1055B0008DE593E00E94A9078935924020F482E0AE
:1055C00003C080E001C081E01F9243C0012B09F0BD
:1055D0006AC082E00E94DC03892B09F061C066E4A6
:1055E00071E0C3010E941731B301C1010E94380369
:1055F000B101C355DF4F88819981CD5AD0400E94B7
:105600004B1CC1010E9433030C94F21E01301105A2
:1056100009F049C0C757DF4F688179818A819B8132
:10562000C958D0400E94C52D862F0E94DC0310C0AF
:1056300001301105C1F5C757DF4F688179818A8133
:105640009B81C958D0400E94C52D862F0E94F3042B
:105650009F938F9389E491E09F938F937F926F92B2
:105660000E94EF0CB301C1010E943803B101C35580
:10567000DF4F88819981CD5AD0400E944B1CC101D7
:105680000E9433030F900F900F900F900F900F9088
:105690000C94F21E64E170E008C015E10C94132331
:1056A00063E471E09ECF65E170E0C355DF4F888110
:1056B0009981CD5AD0400E94291C0C94F21E8DE590
:1056C00093E00E94E70C0C94E11F109231021092BB
:1056D000300288EE93E0A0E0B0E080933202909335
:1056E0003302A0933402B09335022FE131E03093BE
:1056F0002F0220932E0225EC30E030933B022093C2
:105700003A0224EC30E030933D0220933C0220EC3E
:1057100030E030933F0220933E0221EC30E03093A2
:1057200041022093400222EC30E030934302209368
:10573000420226EC30E0309345022093440210925E
:105740004702109248021092490210924A021092A7
:10575000A5061092A4068093A6069093A706A09390
:10576000A806B093A9068FE291E09093A3068093D8
:10577000A206109209031092CC021092CB02109252
:105780000B0380915C03EDE5F3E09FEF26E048EB2F
:105790005BE08C3060F48083289FD0011124AC5EE4
:1057A000BC4F12965C934E9311978F5F01C090830C
:1057B000339633E0E936F30761F780935C0380E1C9
:1057C000EBE0F1E0A9E6B3E001900D928A95E1F7F4
:1057D00088E0E9E7F3E0DF011D928A95E9F784EBC1
:1057E00090E090937A03809379038BE08093910308
:1057F0008DE0809392038CE0809393038AE0809302
:10580000940382E0809395031092960381E0809345
:10581000970383E0809398031092740610927606A3
:10582000109275068FEF80937C061092810610927D
:10583000800610927F06809382061092870610924F
:105840008606109285068FEF9FEF90939B038093BF
:105850009A0390939D0380939C0310928906109263
:1058600088060E94440560938C0670938D06809391
:105870008E0690938F060E9444056093780670937D
:10588000790680937A0690937B060E944405609384
:1058900090067093910680939206909393060895D4
:1058A000DB018F939F930E941437BF91AF91A29F0A
:1058B000800D911DA39F900DB29F900D112408950E
:1058C000991B79E004C0991F961708F0961B881F52
:1058D0007A95C9F78095089597FB072E16F40094E2
:1058E00007D077FD09D00E94802C07FC05D03EF43C
:1058F000909581959F4F0895709561957F4F08957C
:10590000AA1BBB1B51E107C0AA1FBB1FA617B707E5
:1059100010F0A61BB70B881F991F5A95A9F7809501
:105920009095BC01CD010895EE0FFF1F0590F491F5
:10593000E02D09949F939F770E94F42D0F900020F3
:1059400042F49058A2EA2AED3FE049E450E40E9474
:10595000C32C0C94A5365058BB27AA270E94C32CF1
:105960000C94A5360E94973638F00E949E3620F09F
:1059700039F49F3F19F426F40C9494360EF4E09514
:10598000E7FB0C948E36E92F0E94B63658F3BA170F
:10599000620773078407950720F079F4A6F50C9445
:1059A000D8360EF4E0950B2EBA2FA02D0B01B901BD
:1059B00090010C01CA01A0011124FF27591B99F085
:1059C000593F50F4503E68F11A16F040A22F232F91
:1059D000342F4427585FF3CF469537952795A795E1
:1059E000F0405395C9F77EF41F16BA0B620B730B88
:1059F000840BBAF09150A1F0FF0FBB1F661F771FF9
:105A0000881FC2F70EC0BA0F621F731F841F48F4AD
:105A1000879577956795B795F7959E3F08F0B0CF36
:105A20009395880F08F09927EE0F9795879508951D
:105A3000DF93DD27B92FBF7740E85FE3161617061F
:105A400048075B0718F4D92F0E947F2E9F938F93EE
:105A50007F936F930E94D52EE8E6F0E00E94142E0B
:105A60000E94A5362F913F914F915F910E94313650
:105A7000DD2351F09058A2EA2AED3FE049EC5FE3C4
:105A8000D0785D270E94C32CDF910C94A5360E942C
:105A90003D2EE3950C94662E0E94602D0C94A53645
:105AA0000E949E3658F00E94973640F029F45F3FDE
:105AB00029F00C948E3651110C94D9360C949436EE
:105AC0000E94B63668F39923B1F3552391F3951BE1
:105AD000550BBB27AA2762177307840738F09F5F0F
