:100000000C9432010C945A010C945A010C945A012C
:100010000C945A010C945A010C945A010C945A01F4
:100020000C945A010C945A010C945A010C94D81156
:100030000C945A010C945A010C945A010C945A01D4
:100040000C948E110C945A010C945C110C94361182
:100050000C945A010C945A010C945A010C945A01B4
:100060000C945A010C945A01084AD73B3BCE016EBE
:1000700084BCBFFDC12F3D6C74319ABD56833DDAFF
:100080003D00C77F11BED9E4BB4C3E916BAAAABE0E
:10009000000000803F072C7AA5BA6CC590DA3B932C
:1000A00065FC8BBC53F810FD3C5692834DBD879D7B
:1000B0003AB63DCBC9BF5BBE73DA0FC93F05A84C4A
:1000C000CDB2D44EB93836A9020C50B99186880801
:1000D0003CA6AAAA2ABE000000803F004E414E491D
:1000E0004E495459494E46CDCCCC3D0AD7233C17F6
:1000F000B7D13877CC2B329595E6241FB14F0A0043
:100100000020410000C84200401C4620BCBE4CCA32
:100110001B0E5AAEC59D7400407A10F35A00A072AF
:100120004E18090010A5D4E80000E8764817000032
:10013000E40B54020000CA9A3B000000E1F5050000
:100140000080969800000040420F000000A0860149
:10015000000000102700000000E803000000006419
:1001600000000000000A0000000000010000000084
:10017000002C76D888DC674F0823DFC1DFAE59E159
:10018000B1B796E5E3E453C63AE651997696E8E6C8
:10019000C28426EB898C9B62ED407C6FFCEFBC9C9B
:1001A0009F40F2BAA56FA5F490055A2AF75C936BAD
:1001B0006CF9676DC11BFCE0E40D47FEF520E6B568
:1001C00000D0ED902E0300943577050080841E0842
:1001D0000000204E0A000000C80C333333330F9860
:1001E0006E12831141EF8D2114893BE65516CFFE27
:1001F000E6DB18D1844B381BF77C1D901DA4BBE4B3
:1002000024203284725E228100C9F124ECA1E53DF4
:10021000270000000800020100000304070000009E
:10022000000000000000000000250028002B000056
:10023000000000240027002A00040404040404042D
:100240000402020202020203030303030301020485
:100250000810204080010204081020010204081048
:100260002000131311241FBECFEFD8E0DEBFCDBF97
:1002700011E0A0E0B1E0E4EFF7E402C005900D92D8
:10028000AC35B107D9F725E0ACE5B1E001C01D926E
:10029000A53DB207E1F711E0C2E3D1E004C0219728
:1002A000FE010E94F521C133D107C9F70E949F13B7
:1002B0000C94F8230C9400003F924F925F926F923F
:1002C0007F928F929F92AF92BF92CF92DF92EF92E6
:1002D000FF920F931F93CF93DF93C82F6A017B0187
:1002E00020E030E0A901CB01B6010E94751D87FD19
:1002F000C4C020E030E044E353E4C701B6010E94EB
:10030000242118160CF4BDC0D0E0FE01EE0FFF1F33
:10031000EE0FFF1FE657FA4FC586D686E786F08AAE
:10032000258D368D478D50A1C701B6010E94561FFD
:100330006B017C01309096058E01000F111F20E0AB
:1003400030E04AEF53E4332009F4ADC00E94751D3C
:1003500087FF5EC020E030E040E251E4C701B60113
:100360000E94DB1D2B013C0120E030E0A9010E942E
:10037000751D87FD8DC020E030E041EE54E4C301DF
:10038000B2010E94242118160CF486C0F801EC0F6B
:10039000FD1FE657FA4F81814DE7842E912C881A74
:1003A000910887FD9394880C991C880C991C092C42
:1003B000000CAA08BB08828161E7C62E62E0D62E37
:1003C000C81AD10887FDD394CC0CDD1CCC0CDD1CE5
:1003D0000D2C000CEE08FF08C818D908EA08FB0825
:1003E000C301B2010E946820A70196010E94B121B9
:1003F00028E037E040E050E00E94B21ECA01B90197
:10040000680D791D8A1D9B1D0E947C1D6B017C015E
:10041000C00FD11FC657DA4FC881CC30E0F420E0BE
:1004200030E040E851E4C701B6010E94DB1D1FB770
:10043000F89426E0C29FE0011124CF5BDA4F20E060
:1004400030E040E05EE30E94DB1D0E946F207C8371
:100450006B833D821FBFDF91CF911F910F91FF9062
:10046000EF90DF90CF90BF90AF909F908F907F9054
:100470006F905F904F903F900895C12CD12C7601E2
:1004800043CFC12CD12CD4E3ED2ED3E4FD2E3CCFB1
:10049000412C512C32017ACF412C512CE1EE6E2EA1
:1004A000E4E47E2E73CF0E94751D87FF61C020E0BB
:1004B00030E0A901C701B6010E94751D87FD91C0FA
:1004C00020E030E044E353E4C701B6010E94242158
:1004D000181634F4C12CD12C34E3E32E33E4F32E7C
:1004E000F801EC0FFD1FE657FA4F8181ADE74A2E68
:1004F000512C481A510887FD5394440C551C440C48
:10050000551C052C000C66087708828191E7892E1E
:1005100092E0992E881A910887FD9394880C991C73
:10052000880C991C092C000CAA08BB088418950893
:10053000A608B70820E030E040E251E4C701B60168
:100540000E94DB1D0E946820A50194010E94B12138
:1005500028E037E040E050E00E94B21ECA01B90135
:10056000640D751D861D971D0E947C1D6B017C010D
:10057000C00FD11FC657DA4F18811C3008F06BCF5F
:10058000C701B6010E946820AB01E9818DE790E0C8
:100590008E1B9109E7FD9395880F991F880F991F6E
:1005A000481759077CF0EA8181E792E08E1B910998
:1005B000E7FD9395880F991F880F991F48175907D2
:1005C0000CF4CA010297880F991F2FB7F89436E0F0
:1005D000139FF0011124EF5BFA4F928381832FBFA9
:1005E0003ACFC12CD12C76017BCF8F929F92AF92C4
:1005F000BF92CF92DF92EF92FF920F931F93490128
:100600005A016701AB01BC0180E00E945C01B501A9
:10061000A40181E00E945C01B801A60182E01F9163
:100620000F91FF90EF90DF90CF90BF90AF909F9091
:100630008F900C945C012F923F924F925F926F9239
:100640007F928F929F92AF92BF92CF92DF92EF9262
:10065000FF921F93CF93DF93CDB7DEB728970FB6E6
:10066000F894DEBF0FBECDBF9E838D8378876F83E6
:100670001A01DC018D909D90AD90BC90A501940174
:10068000C501B4010E948321811188C0AF81B88562
:100690008D919D910D90BC91A02D89839A83AB8300
:1006A000BC839C01AD01CD01B9010E948321811160
:1006B00075C0F101C080D180E280F380A70196016E
:1006C000C701B6010E948321811168C02091AB054A
:1006D0003091AC054091AD055091AE0569817A81AC
:1006E0008B819C810E94561F2B013C0120E030E051
:1006F00040EA50E40E94751D87FD4EC020E030E0C6
:1007000040EF52E4C301B2010E94242118160CF4F8
:1007100043C02091AF053091B0054091B105509193
:10072000B205C701B6010E94561F2B013C0120E013
:1007300030E040EA50E40E94751D87FD2DC020E0A6
:1007400030E040EF52E4C301B2010E9424211816A8
:100750001CF129813A814B815C8160E070E084E387
:1007600093E40E94551FA70196010E94551F6B013B
:100770007C0120E030E046E153E40E942421181679
:100780005CF020E030E040EF51E4C701B6010E9488
:10079000751D11E087FF03C013E001C012E020E0E7
:1007A00030E0A901C501B4010E94751D87FD51C04B
:1007B00020E030E044E353E4C501B4010E94242169
:1007C00018160CF44AC0AD81BE818D929D92AD92F7
:1007D000BC921397EF81F88580809180A280B380CE
:1007E00020E030E0A901C501B4010E94751D87FD1C
:1007F0003BC020E030E044E353E4C501B4010E9473
:1008000024211816ACF1AF81B8858D929D92AD92DE
:10081000BC921397F10180809180A280B38020E088
:1008200030E0A901C501B4010E94751D87FD27C0F4
:1008300020E030E044E353E4C501B4010E942421E8
:10084000181604F5812C912C84E3A82E83E4B82E8D
:1008500019C0812C912C5401B6CF812C912C24E30A
:10086000A22E23E4B22EAFCF812C912C5401CBCFFA
:10087000812C912C94E3A92E93E4B92EC4CF812C22
:10088000912C5401D1018D929D92AD92BC921397FF
:10089000812F28960FB6F894DEBF0FBECDBFDF9133
:1008A000CF911F91FF90EF90DF90CF90BF90AF90CE
:1008B0009F908F907F906F905F904F903F902F9080
:1008C000089590E0FC01E35BFD4F2491875C9D4F10
:1008D000FC018491882399F090E0880F991FFC0116
:1008E000E15DFD4FA591B491FC01EB5DFD4F85915C
:1008F00094918FB7F894EC91E22BEC938FBF08950D
:10090000AF92BF92CF92DF92EF92FF920F931F931D
:10091000CF93DF936C017B018B01040F151FEB015B
:100920005E01AE18BF08C017D10759F06991D60112
:10093000ED91FC910190F081E02DC6010995892B84
:1009400079F7C501DF91CF911F910F91FF90EF9043
:10095000DF90CF90BF90AF900895FC01538D448DF0
:10096000252F30E0842F90E0821B930B541710F05A
:10097000CF96089501970895FC01918D828D981767
:1009800061F0A28DAE0FBF2FB11D5D968C91928D3F
:100990009F5F9F73928F90E008958FEF9FEF089570
:1009A000FC01918D828D981731F0828DE80FF11D39
:1009B000858D90E008958FEF9FEF0895FC01918D54
:1009C000228D892F90E0805C9F4F821B91098F734D
:1009D0009927089584EA94E00E94DE0421E0892B9F
:1009E00009F420E0822F089580E090E0892B29F01F
:1009F0000E94EA0481110C9400000895FC01A48D6A
:100A0000A80FB92FB11DA35ABF4F2C91848D90E030
:100A100001968F739927848FA689B7892C93A08913
:100A2000B1898C91837080648C93938D848D98139D
:100A300006C00288F389E02D80818F7D8083089530
:100A4000EF92FF920F931F93CF93DF93EC0181E01E
:100A5000888F9B8D8C8D98131AC0E889F9898081C5
:100A600085FF15C09FB7F894EE89FF896083E889F8
:100A7000F98980818370806480839FBF81E090E0EA
:100A8000DF91CF911F910F91FF90EF900895F62E77
:100A90000B8D10E00F5F1F4F0F731127E02E8C8D11
:100AA0008E110CC00FB607FCFACFE889F989808156
:100AB00085FFF5CFCE010E94FE04F1CFEB8DEC0F48
:100AC000FD2FF11DE35AFF4FF0829FB7F8940B8F73
:100AD000EA89FB8980818062CFCFCF93DF93EC01DD
:100AE000888D8823B9F0AA89BB89E889F9898C9116
:100AF00085FD03C0808186FD0DC00FB607FCF7CFD2
:100B00008C9185FFF2CF808185FFEDCFCE010E94D1
:100B1000FE04E9CFDF91CF91089590E0FC01EF5EF4
:100B2000FD4F2491FC01E35BFD4F3491FC01E75C38
:100B3000FD4FE491EE23C9F0222339F0233001F177
:100B4000A8F4213019F1223029F1F0E0EE0FFF1F57
:100B5000EB5DFD4FA591B4918FB7F894EC916111C5
:100B600026C030953E233C938FBF08952730A9F0CF
:100B70002830C9F0243049F7809180008F7D03C070
:100B8000809180008F7780938000DFCF84B58F774E
:100B900084BDDBCF84B58F7DFBCF8091B0008F7794
:100BA0008093B000D2CF8091B0008F7DF9CF3E2BE3
:100BB000DACF3FB7F8948091380490913904A0912E
:100BC0003A04B0913B0426B5A89B05C02F3F19F00D
:100BD0000196A11DB11D3FBFBA2FA92F982F8827BD
:100BE000BC01CD01620F711D811D911D42E0660F98
:100BF000771F881F991F4A95D1F708952F923F922A
:100C00004F925F926F927F928F929F92AF92BF921C
:100C1000CF92DF92EF92FF920F931F93CF93DF93C8
:100C2000CDB7DEB72B970FB6F894DEBF0FBECDBFA2
:100C300029013A011801870120E030E040E251E447
:100C40000E94F61F4B015C0120E030E040E251E4DD
:100C5000C301B2010E94F61FA50194010E94551F15
:100C600069837A838B839C8321E02B87C701FF0CE8
:100C7000AA0BBB0B8F839887A987BA879B85692EA0
:100C8000712C061517050CF45AC0692F70E090E01E
:100C900080E00E947A1D6B017C016F8178858985D7
:100CA0009A850E947C1D9B01AC01C701B6010E9480
:100CB000F61F6B017C01A1E06A1AA0EC7A0A660CAF
:100CC000771C660C771CF101E60DF71DFE83ED83A2
:100CD000A7019601C701B6010E94DB1D29813A8157
:100CE0004B815C810E94DB1D2B013C0120E030E048
:100CF00040E050ECC701B6010E94DB1D20E030E06F
:100D000040E450E40E94561F9B01AC01C301B201B4
:100D10000E94DB1DA50194010E94561F20E030E0D7
:100D200040E251E40E94DB1DAD81BE816D937D9355
:100D30008D939C931397BB85BF5FBB879FCF2B96EB
:100D40000FB6F894DEBF0FBECDBFDF91CF911F91DC
:100D50000F91FF90EF90DF90CF90BF90AF909F905A
:100D60008F907F906F905F904F903F902F9008955D
:100D70006F927F928F929F92AF92BF92CF92DF92AB
:100D8000EF92FF920F931F93CF93DF93CC24CA94DB
:100D9000DC2C80913E0490913F0497FD6FC0209120
:100DA0003C0430913D04821793070CF067C08FB765
:100DB000F894409134045091350460913604709158
:100DC00037048FBFC0913E04D0913F0480912F041F
:100DD00090913004A0913104B0913204481B590B1A
:100DE0006A0B7B0B20912D0430912E04C29FC00111
:100DF000C39F900DD29F900D1124B0E0A0E0481742
:100E000059076A077B0728F2CE01880F991F880FC0
:100E1000991F8C01035C1C4F9C01235B3D4F3901E2
:100E2000FC01E35AFE4F4F01A801B901CF010E9416
:100E30001B03A0903C04B0903D04823089F0F8017F
:100E4000E080F18002811381F301208131814281B0
:100E50005381F40160817181828193810E94F50246
:100E60002196D0933F04C0933E04CA15DB050CF4D1
:100E700090CFD0923F04C0923E048BCFDF91CF91B0
:100E80001F910F91FF90EF90DF90CF90BF90AF90A8
:100E90009F908F907F906F900895CF93DF93CDB701
:100EA000DEB760970FB6F894DEBF0FBECDBF92EFEE
:100EB000980F8E3008F0892F87708064FE0131967C
:100EC000BE016F5E7F4FAF0180937C0090917A00EE
:100ED000906490937A0090917A0096FDFCCF909167
:100EE000780020917900322F292F219331936E17AA
:100EF0007F0751F780E090E0E92FF0E09F01280F95
:100F0000311D27303105B4F4EE0FFF1FDA01AE0FAB
:100F1000BF1F2D913C9111973296E40FF51F608110
:100F200071816217730720F46D937C933183208362
:100F30009F5FE2CF8F5F8830F1F68D819E812F8198
:100F40003885820F931F29853A85820F931F2B8541
:100F50003C85820F931F9695879596958795609609
:100F60000FB6F894DEBF0FBECDBFDF91CF910895CD
:100F7000892B79F41092800082E080938100109296
:100F8000850010928400B19A80916F0082608093F6
:100F90006F000895FC0101900020E9F73197AF013F
:100FA000481B590BBC0184EA94E00C9480048F9296
:100FB0009F92AF92BF920F931F93CF93DF93CDB7C2
:100FC000DEB7A1970FB6F894DEBF0FBECDBF19A252
:100FD000423008F44AE08E010F5D1F4F842E912CA1
:100FE000B12CA12CA50194010E94131FE62FB90179
:100FF000CA01EA30F4F4E05DD801EE938D01232BB1
:10100000242B252B79F790E080E0109719F0CD0183
:101010000E94CA07A1960FB6F894DEBF0FBECDBFDF
:10102000DF91CF911F910F91BF90AF909F908F90C4
:101030000895E95CE1CF0C94CA072F923F924F923A
:101040005F926F927F928F929F92AF92BF92CF9258
:10105000DF92EF92FF920F931F93CF93DF93CDB761
:10106000DEB72A970FB6F894DEBF0FBECDBF2B01B7
:101070003C0129833A834B835C83ED82FE820F839C
:1010800018878601BA86A986140120E030EC4CE46A
:1010900055EC0E94751D87FDB0C120E030EC4CE49A
:1010A00055E4C301B2010E94242118160CF4ADC10D
:1010B00020E030EC4CE455EC69817A818B819C8195
:1010C0000E94751D87FDA9C120E030EC4CE455E479
:1010D00069817A818B819C810E94242118160CF4ED
:1010E000A5C120E030EC4CE455EC6D817E818F8110
:1010F00098850E94751D87FD9EC120E030EC4CE470
:1011000055E46D817E818F8198850E942421181677
:101110000CF49AC120E030E040E251E46D817E8120
:101120008F8198850E94DB1D0E946820072E000C8D
:10113000880B990B0E947C1D20E030E040E251E4D6
:101140000E94F61F6B017C0120E030E042E853E48E
:101150000E94242118160CF4C3C120E030E040EFB7
:1011600052ECC701B6010E94751D87FDB9C120E090
:1011700030E040E251E4C301B2010E94DB1D0E9455
:101180006820072E000C880B990B0E947C1D20E024
:1011900030E040E251E40E94F61F2B013C0120E0C8
:1011A00030E040E251E469817A818B819C810E9428
:1011B000DB1D0E946820072E000C880B990B0E94F3
:1011C0007C1D20E030E040E251E40E94F61F4B011C
:1011D0005C0126E636EE46ED52E4C701B6010E94F8
:1011E000551F20E030E444E153E40E94F61F6B01F8
:1011F0007C0120E030E0A901C301B2010E94751D0D
:10120000811127C180E090E0A4EBB2E4F801808373
:101210009183A283B383D8018D919D910D90BC9150
:10122000A02D89839A83AB83BC8320E030E044EB1C
:1012300052E4BC01CD010E94751D882309F449C107
:1012400026EE3EE245E652E469817A818B819C81FB
:101250000E94F61F0E94F11F9B01AC01C301B20165
:101260000E94F61F29E23CE549EA51E40E94551F1D
:1012700020E030E048EC51E40E94551F20E030E4CB
:1012800044E153E40E94F61F4B015C01AC019B0159
:10129000C701B6010E94F61F0E94C21F26EE3EE261
:1012A00045E652E40E94DB1D2B013C01A70196019B
:1012B000C701B6010E94DB1D6B017C01A5019401F1
:1012C000C501B4010E94DB1D9B01AC01C701B60141
:1012D0000E94561F0E943F216B017C01AC019B01C3
:1012E0000E94DB1D4B015C0123E937E745E95FE321
:1012F0000E94561F20E030E040E85FE30E94551F47
:1013000069837A838B839C8325E531E54AE050E449
:10131000C701B6010E94DB1D9B01AC0169817A8186
:101320008B819C810E94F61F0E94441F26EE3EE2A4
:1013300045E652E40E94DB1DF101608371838283E4
:10134000938320E030E040E85FE3C501B4010E94F0
:10135000561F23E937E745E95FE30E94551F4B011C
:101360005C01A7019601C701B6010E94561F9B01AF
:10137000AC01C501B4010E94F61F0E94441F26EE75
:101380003EE245E652E40E94DB1DA30192010E9469
:10139000561FA985BA856D937D938D939C93139762
:1013A000A3019201F10160817181828193810E9488
:1013B000551FD1016D937D938D939C931397A1013C
:1013C00069857A85C8012A960FB6F894DEBF0FBEEC
:1013D000CDBFDF91CF911F910F91FF90EF90DF90E4
:1013E000CF90BF90AF909F908F907F906F905F90C5
:1013F0004F903F902F900C941B03412C90EC592E52
:101400009CE4692E95EC792E53CE412C80EC582E1D
:101410008CE4682E85E4782E4BCE80E090ECACE432
:10142000B5EC89839A83AB83BC835BCE80E090EC80
:10143000ACE4B5E4F6CF80E090ECACE4B5EC8D83A1
:101440009E83AF83B88766CE80E090ECACE4B5E4D1
:10145000F6CF20E030E0A901C301B2010E942421AF
:101460001816A4F4A3019201C501B4010E94F61F4D
:101470000E94C21F26EE3EE245E652E40E94DB1DBA
:10148000D8016D937D938D939C93139720E030E06A
:10149000A901C301B2010E94751D87FFBCCEA30143
:1014A0009201C501B4010E94F61F0E94C21F26EEE0
:1014B0003EE245E652E40E94DB1D20E030E044E3DA
:1014C00053E40E94561FF8016083718382839383E3
:1014D000A2CE29E23CE549EA51E4C501B401C6CEF9
:1014E00082E02A960FB6F894DEBF0FBECDBFDF9123
:1014F000CF911F910F91FF90EF90DF90CF90BF9011
:10150000AF909F908F907F906F905F904F903F90A3
:101510002F9008952F923F924F925F926F927F92F9
:101520008F929F92AF92BF92CF92DF92EF92FF92F3
:101530000F931F93CF93DF9300D000D000D0CDB78F
:10154000DEB78C011B015E834D8326EE3EE245E64D
:1015500052E460919B0570919C0580919D0590914E
:101560009E050E94F61F4B015C010E94F11F2B019A
:101570003C0126EE3EE245E652E460919F05709103
:10158000A0058091A1059091A2050E94F61F6B0114
:101590007C010E94F11F69837A838B839C8320E006
:1015A00030E444E153E4C301B2010E94DB1D2B018E
:1015B0003C0123E333E340E253E469817A818B8188
:1015C0009C810E94DB1D9B01AC01C301B2010E9402
:1015D000561F29E23CE549EA51E40E94561F20E0EB
:1015E00030E048EC51E40E94561F2B013C01C5013C
:1015F000B4010E9431214B015C01C701B6010E9478
:1016000031216B017C0126EE3EE245E652E4609119
:101610009705709198058091990590919A050E947F
:10162000F61F0E94F11F9B01AC01C301B2010E9491
:10163000DB1DF801608371838283938326EE3EE293
:1016400045E652E46091970570919805809199055F
:1016500090919A050E94F61F0E9431219B01AC01D6
:10166000C301B2010E94DB1DF1016083718382839B
:10167000938320E030E444E153E4C501B4010E94C7
:10168000DB1D4B015C0123E333E340E253E4C7017C
:10169000B6010E94DB1D9B01AC01C501B4010E9493
:1016A000551F26E636EE46ED52E40E94561FED81A8
:1016B000FE81608371838283938381E026960FB6D7
:1016C000F894DEBF0FBECDBFDF91CF911F910F9178
:1016D000FF90EF90DF90CF90BF90AF909F908F9052
:1016E0007F906F905F904F903F902F9008952F9232
:1016F0003F924F925F926F927F928F929F92AF92A2
:10170000BF92CF92DF92EF92FF920F931F93CF93EE
:10171000DF93CDB7DEB7C454D1090FB6F894DEBF5E
:101720000FBECDBF69A77AA78BA79CA72DA73EA701
:101730004FA758ABE9AAFAAA0BAB1CABADA2BEA24D
:10174000CFA2D8A619821A821B821C821D821E82F9
:101750001F82188619861A861B861C861D861E8681
:101760001F86188A198A1A8A1B8A1C8A1D8A1E8A51
:101770001F8A188E198E1A8E1B8E1C8E1D8E1E8E21
:101780001F8E18A219A21AA21BA21CA2CE01459656
:101790004C01DE0151965D01FE013D966F0169A588
:1017A0007AA58BA59CA50E941D08823001F120E03E
:1017B00030E0A9016DA17EA18FA198A50E94751DA1
:1017C00081112FC08FEF9FEF90933F0480933E04D1
:1017D000ED88FE880F89188D29893A894B895C89A3
:1017E0006D857E858F8598890E94F50281E0CC5BAE
:1017F000DF4F0FB6F894DEBF0FBECDBFDF91CF91A4
:101800001F910F91FF90EF90DF90CF90BF90AF901E
:101810009F908F907F906F905F904F903F902F9010
:1018200008958091970590919805A0919905B091A0
:101830009A0589AF9AAFABAFBCAF80919B059091F1
:101840009C05A0919D05B0919E0521968CAF9DAF02
:10185000AEAFBFAF219780919F059091A005A09159
:10186000A105B091A20525968CAF9DAFAEAFBFAFDD
:101870002597AE014F5D5F4FBE01635E7F4FCE0186
:1018800049960E948A0A29AD3AAD4BAD5CAD6D8593
:101890007E858F8598890E94551F2B013C0120E091
:1018A00030E0A9010E94242153014201181624F0BE
:1018B000B7FAB094B7F8B09421962CAD3DAD4EADCB
:1018C0005FAD219769897A898B899C890E94551F10
:1018D0006B017C0120E030E0A9010E942421181650
:1018E0000CF406C2F7FAF094F7F8F094A701960109
:1018F000C501B4010E94242118160CF001C220E099
:1019000030E0A901C301B2010E94242118160CF095
:1019100075C1C301B2010E9468208B01072E000C23
:10192000880B990B0E947C1D4B015C0125962CAD08
:101930003DAD4EAD5FAD25976D897E898F89988DC0
:101940000E94551F6B017C0120E030E0A9010E943C
:101950002421181624F0F7FAF094F7F8F094A70170
:101960009601C501B4010E94242118162CF0C7016C
:10197000B6010E9468208B0184E0101611060CF05D
:1019800036CF0D33110514F00CE310E0898D9A8DDC
:10199000AB8DBC8D8DAB9EABAFABB8AF9C01AD0139
:1019A00069A57AA58BA59CA50E94551F2B013C011A
:1019B0002D8D3E8D4F8D58A16DA57EA58FA598A923
:1019C0000E94551F4B015C0129A13AA14BA15CA1CA
:1019D00069A97AA98BA99CA90E94551F6B017C015A
:1019E000A3019201C301B2010E94DB1D2B013C0146
:1019F000A5019401C501B4010E94DB1D9B01AC014E
:101A0000C301B2010E94561F4B015C01A701960160
:101A1000C701B6010E94DB1D9B01AC01C501B401E9
:101A20000E94561F0E943F214B015C0120E030E0E4
:101A300048EC52E46DA17EA18FA198A50E94751D6E
:101A400087FDE0C020E030E04AE754E46DA17EA1CC
:101A50008FA198A50E942421181644F480E090E0FC
:101A6000AAE7B4E48DA39EA3AFA3B8A7B801012E43
:101A7000000C880B990B0E947C1D6B017C012DA131
:101A80003EA14FA158A5C501B4010E94F61F20E058
:101A900030E04AE754E40E94DB1DA70196010E9452
:101AA000F61F0E946F201B016531710528F190E03F
:101AB00080E00E947A1D20E030E040EA51E40E947C
:101AC000F61FA70196010E94DB1D6B017C0120E03F
:101AD00030E040E752E40E94751D44E1242E312C91
:101AE0000CE310E087FF08C0C701B6010E94682020
:101AF0008B0154E1252E312C38010D3311051CF0DA
:101B00003CE3632E712C73010DE511E029A53AA584
:101B10004BA55CA56DA97EA98FA998AD0E94FE0575
:101B20006D8D7E8D8F8D98A10DE412E02DA53EA5C3
:101B30004FA558A90E94FE0569A17AA18BA19CA17D
:101B40000DE313E029A93AA94BA95CA90E94FE055F
:101B5000EDE5F1E0FEA7EDA78DE492E09AA789A755
:101B60001EA30DA3512C412C461457040CF078C031
:101B7000EDA1FEA1E080F18002811381A9A5BAA5A3
:101B80002D913D914D915C91EDA5FEA560817181F6
:101B900082819381DE0119964D01FE0135965F0128
:101BA00018976D010E941D08813089F589819A81FD
:101BB000AB81BC81EDA5FEA581939193A193B193D7
:101BC000FEA7EDA78D819E81AF81B885E9A5FAA515
:101BD00081939193A193B193FAA7E9A789859A85F7
:101BE000AB85BC85EDA1FEA181939193A193B193A7
:101BF000FEA3EDA3FFEF4F1A5F0AB6CFC301B201F8
:101C0000905889CE80E090E0A8ECB2E42BCF2D85EF
:101C10003E854F85588973010DE511E069AD7AADB8
:101C20008BAD9CAD0E94FE0529893A894B895C8960
:101C30000DE412E021966CAD7DAD8EAD9FAD219788
:101C40000E94FE052D893E894F89588D0DE313E0D2
:101C500025966CAD7DAD8EAD9FAD25970E94FE059E
:101C6000C3010197880F991F880F991FFC01E35A40
:101C7000FE4F4D855E856F857889408351836283F1
:101C80007383FC01E35BFD4F49895A896B897C8929
:101C90004083518362837383835C9C4F4D895E894B
:101CA0006F89788DDC014D935D936D937C931397D1
:101CB00030922E0420922D0470923D0460923C04D8
:101CC00010923F0410923E042FB7F8948091340490
:101CD00090913504A0913604B09137042FBF8093C2
:101CE0002F0490933004A0933104B09332047ECD3E
:101CF000A5019401C701B6010E94751D87FDFFCDA6
:101D0000C701B60108CECF92DF92EF92FF92CF9338
:101D1000DF936C01990FEE08FF08F7FE19C06DE222
:101D200084EA94E00E942005EC0166277727CB0126
:101D30006C197D098E099F094AE00E94D7078C0F14
:101D40009D1FDF91CF91FF90EF90DF90CF9008958E
:101D50004AE0C701B601DF91CF91FF90EF90DF908D
:101D6000CF900C94D7070F931F93CF93DF938C01E1
:101D7000EB01181619065CF480E391E00E941B0841
:101D8000C8010E94830E84E391E00E941B0882E355
:101D900091E00E941B084C815D816881798184EA11
:101DA00094E00E94800486E391E0DF91CF911F913F
:101DB0000F910C94CA07CF93DF93EC011816190604
:101DC0005CF480E391E00E941B08CE010E94830E28
:101DD00084E391E00E941B0889E391E00E94CA0716
:101DE00086E391E0DF91CF910C94CA070F931F9384
:101DF000CF93DF938C01EB01181619065CF480E396
:101E000091E00E941B08C8010E94830E84E391E0C8
:101E10000E941B088CE391E00E941B08BE0190E029
:101E200080E04AE00E94D70786E391E0DF91CF91FE
:101E30001F910F910C94CA07CF92DF92EF92FF92FD
:101E40000F931F93CF93DF93EB017B0124E0E20E0E
:101E5000F11C8B016C01C61AD70AC601800F911FB5
:101E60000E949C1EF80181938F01EE15FF05A9F7D2
:101E7000CE01DF91CF911F910F91FF90EF90DF90F6
:101E8000CF900895CF92DF92EF92FF920F931F931E
:101E9000CF93DF93CDB7DEB728970FB6F894DEBFA8
:101EA0000FBECDBF282F30E08901000F111F000F9A
:101EB000111F833009F04EC08091BE0590E00E9452
:101EC0004D07B0E0A0E09C01AD0122563109410967
:101ED0005109A4EBB0E00E94D11E2AE631E040E0B7
:101EE00050E00E94B21ECA01B9010E947C1DF80197
:101EF000E657FA4F258D368D478D50A10E94551F0C
:101F00006B017C0120E030E0A9010E94751D87FD76
:101F100053C020E030E044E353E4C701B6010E941F
:101F20002421181634F4C12CD12C84E3E82E83E448
:101F3000F82EC701B60128960FB6F894DEBF0FBE83
:101F4000CDBFDF91CF911F910F91FF90EF90DF9068
:101F5000CF90089526573A4FF90181A990E00E9449
:101F60004D077C011D821E821F82188619821A82EB
:101F70001B821C82BE016B5F7F4FC8018A5B9F4F33
:101F80000E941C0FBE016F5F7F4FC801C2960E9466
:101F90001C0FB701FF0C880B990B0E947C1D298137
:101FA0003A814B815C810E94DB1D2D813E814F81F6
:101FB00058850E94561F9BCFC12CD12C7601B9CFDA
:101FC000FC0180819181009711F00C949722089573
:101FD000EF92FF920F931F93CF93DF93EC017B015E
:101FE000198218821B821A821D821C82FB010190B9
:101FF0000020E9F731978F01061B170BB8016F5FBF
:102000007F4F90E080E00E9420230097B9F09983F1
:1020100088831B830A832C813D81232B11F4FC01CF
:1020200010821D830C83B70188819981DF91CF9144
:102030001F910F91FF90EF900C94F123888199816B
:10204000009711F00E949722198218821D821C822B
:102050001B821A82DF91CF911F910F91FF90EF9019
:1020600008952F923F924F925F926F927F928F923C
:102070009F92AF92BF92CF92DF92EF92FF920F9317
:102080001F93CF93DF93CDB7DEB7C057D1090FB6FB
:10209000F894DEBF0FBECDBFCB57DF4FC880D980CD
:1020A000C558D040C957DF4F68807980C758D040A5
:1020B000D301F30110E000E0819148019FEF891AFC
:1020C000990A882329F0853209F048018401F4CF68
:1020D000F60110820115110571F58D91882311F01B
:1020E0008193FBCF1082E1E0F0E0EC0FFD1FE00FE9
:1020F000F11F1082BE016F5F7F4FC6010E94E62371
:10210000C401C059DF4F0FB6F894DEBF0FBECDBF7C
:10211000DF91CF911F910F91FF90EF90DF90CF90C3
:10212000BF90AF909F908F907F906F905F904F90F7
:102130003F902F9008957E01F9E8EF0EF11C10E01A
:1021400000E0B12CA12C82E3282E312CF301EA0D02
:10215000FB1D8081882339F2853209F06CC08FEF36
:10216000A81AB80AE1E0F0E0EC0FFD1FE00FF11F44
:102170001082BE016F5F7F4FC6010E94E623198265
:10218000F301EA0DFB1D80818636B9F144F48336F4
:1021900009F449C0843671F010E000E063C08C3669
:1021A000E9F08337C9F787010E5F1F4FF7016081A0
:1021B00071810FC087010E5F1F4F4AE0BE016C5C4A
:1021C0007F4FF701808191810E946719BE016C5C8D
:1021D0007F4FC6010E94E6237801DECF87010C5FA6
:1021E0001F4FF70160817181828193812AE0AE01E6
:1021F0004C5C5F4F0E947219E9CF2701F4E04F0E4B
:10220000511CF70160817181828193818E0109598E
:102210001F4F22E044E00E941919B801C6010E9434
:10222000E6237201B9CF87010E5F1F4FF70180814E
:102230008CAB1DAACBCFE1E0F0E0EC0FFD1FE00F6F
:10224000F11F8083C8010196B1010E94CD218C014C
:10225000892B41F41BAABE016F5F7F4FC6010E940C
:10226000E6231982FFEFAF1ABF0A70CF1F920F92B9
:102270000FB60F9211242F933F934F935F936F9359
:102280007F938F939F93AF93BF93EF93FF9384EAD2
:1022900094E00E94FE04FF91EF91BF91AF919F9156
:1022A0008F917F916F915F914F913F912F910F90FF
:1022B0000FBE0F901F9018951F920F920FB60F929E
:1022C00011242F938F939F93EF93FF93E091B40486
:1022D000F091B5048081E091BA04F091BB0482FDD5
:1022E0001BC090818091BD048F5F8F732091BE04CD
:1022F000821741F0E091BD04F0E0EC55FB4F958F63
:102300008093BD04FF91EF919F918F912F910F903A
:102310000FBE0F901F9018958081F4CF1F920F92DF
:102320000FB60F9211242F933F938F939F93AF93E8
:10233000BF938091340490913504A0913604B091FC
:1023400037043091330423E0230F2D3758F50196DD
:10235000A11DB11D20933304809334049093350460
:10236000A0933604B09337048091380490913904D7
:10237000A0913A04B0913B040196A11DB11D809338
:10238000380490933904A0933A04B0933B04BF916E
:10239000AF919F918F913F912F910F900FBE0F9012
:1023A0001F90189526E8230F0296A11DB11DD2CFCC
:1023B0001F920F920FB60F9211242F933F934F93BA
:1023C0005F936F937F938F939F93AF93BF93CF93BD
:1023D000DF93EF93FF9380915C01C0918905D0E07A
:1023E00087FF24C0109285001092840080915C01C8
:1023F0008F5F80935C0180915C01082E000C990B2B
:102400008C179D0724F480915C018C307CF18091C5
:10241000840090918500049680349C4908F4F9C0AA
:1024200080918400909185000496F5C080915C01B4
:10243000082E000C990B8C179D07C4F630915C0197
:1024400026E03203F0011124EF5BFA4F808186FF12
:10245000CDCF30915C013203F0011124EF5BFA4FD4
:10246000808160E08F730E948D05C0CF30915C0148
:1024700026E03203F0011124EF5BFA4F85818823B7
:1024800009F48AC030915C0140915C014203F00183
:102490001124EF5BFA4F818192813203F001112404
:1024A000EF5BFA4F438154818417950708F048C0C9
:1024B00040915C0130915C013203F0011124EF5B2B
:1024C000FA4F618172814203D0011124AF5BBA4F90
:1024D00015968C91860F972F911D92838183309151
:1024E0005C0140915C014203F0011124EF5BFA4F63
:1024F000818192813203F0011124EF5BFA4F438115
:1025000054818417950708F447C040915C013091CD
:102510005C014203F0011124EF5BFA4F8381948147
:102520003203F0011124EF5BFA4F928381833091E3
:102530005C013203F0011124EF5BFA4F15822CC0CD
:1025400040915C0130915C013203F0011124EF5B9A
:10255000FA4F818192814203D0011124AF5BBA4FBF
:1025600015963C91831B91099283818330915C0184
:1025700040915C014203F0011124EF5BFA4F81812D
:1025800092813203F0011124EF5BFA4F43815481B1
:102590004817590708F0B9CF8091840090918500C1
:1025A00030915C0126E03203F0011124EF5BFA4F19
:1025B00041815281840F951F9093890080938800F8
:1025C00030915C013203F0011124EF5BFA4F8081FE
:1025D00086FF0CC030915C013203F0011124EF5BE7
:1025E000FA4F808161E08F730E948D05FF91EF911A
:1025F000DF91CF91BF91AF919F918F917F916F911B
:102600005F914F913F912F910F900FBE0F901F90B0
:10261000189580E49CE990938900809388008FEF5F
:1026200080935C01E3CF1092A7041092A60488EE79
:1026300093E0A0E0B0E08093A8049093A904A09355
:10264000AA04B093AB0482E291E09093A504809336
:10265000A40485EC90E09093B1048093B00484ECE2
:1026600090E09093B3048093B20480EC90E0909358
:10267000B5048093B40481EC90E09093B704809308
:10268000B60482EC90E09093B9048093B80486EC91
:1026900090E09093BB048093BA041092BD04109212
:1026A000BE041092BF041092C004AAE8B5E08FEFF8
:1026B00096E028EB3BE0E0918905EC30F0F541E055
:1026C0004E0F40938905EC939E9FF0011124EF5B20
:1026D000FA4F32832183139645E0A639B40759F7A0
:1026E0008FEF8093960580E1E6E0F1E0A7E9B5E0A1
:1026F00001900D928A95E1F7809116019091170152
:10270000A0911801B09119018093B7059093B80575
:10271000A093B905B093BA0580911A0190911B015D
:10272000A0911C01B0911D018093BB059093BC0545
:10273000A093BD05B093BE0508958C93CCCFCF93E5
:10274000DF93CDB7DEB7CD55D1090FB6F894DEBF14
:102750000FBECDBF789484B5826084BD84B581609E
:1027600084BD85B5826085BD85B5816085BD80915C
:102770006E00816080936E001092810080918100D4
:1027800082608093810080918100816080938100CC
:10279000809180008160809380008091B10084608E
:1027A0008093B1008091B00081608093B0008091EF
:1027B0007A00846080937A0080917A0082608093AE
:1027C0007A0080917A00816080937A0080917A000B
:1027D000806880937A001092C100E091B404F09177
:1027E000B50482E08083E091B004F091B1041082DE
:1027F000E091B204F091B30480E180831092BC04B4
:10280000E091B804F091B90486E08083E091B604C9
:10281000F091B704808180618083E091B604F091EB
:10282000B704808188608083E091B604F091B7049A
:10283000808180688083E091B604F091B704808144
:102840008F7D808386E00E94610489E00E9461049C
:1028500085E00E946104B7EAAB2EB5E0BB2E0EE125
:1028600010E019821A821B821C82BE016F5F7F4FAB
:10287000C8010E941C0F69817A818B819C819B0118
:10288000AC010E94832198012C5F3F4F790188237E
:10289000C1F019821A821B821C82CE0101966C0142
:1028A000D6017D906D01C8010E949C1E781621F012
:1028B000672DC8010E94A41E0F5F1F4FE016F1068E
:1028C00079F789819A81AB81BC81F50181939193DC
:1028D000A193B1935F0187010E32110511F603E058
:1028E00010E00E94D9052B013C01AAE0CA2ED12C90
:1028F000E12CF12C0E94D905641975098609970904
:10290000683E734081059105A8F3F1E0CF1AD10824
:10291000E108F10828EE420E23E0521E611C711CF2
:10292000C114D104E104F10429F701501109C9F6D9
:1029300010928B0510928C0510928E0510928F05C7
:10294000109291051092920587EE8093940589E18B
:10295000809395050AE815E07801E6E0DE2EFCE0BC
:10296000CF2ED8018C918C30C8F5F701B5A48B2DF2
:102970000E946104D8018C91D89EF0011124EF5B74
:10298000FA4F2B2D2F739081907C922B90836C2D7E
:102990000E94C1218C9DA001112430E020E0BA01E9
:1029A000620F731FD69EF001D79EF00D1124EF5BCE
:1029B000FA4F908196FD08C02F5F3F4F2C303105B4
:1029C00071F790E00E94B807D801EC91DE9EF0010B
:1029D0001124EF5BFA4F8081806480830D5F1F4F6D
:1029E000BFEFEB1AFB0AE5E006391E0709F0B9CF85
:1029F00080E00E94420F6093970570939805809342
:102A0000990590939A0581E00E94420F60939B057F
:102A100070939C0580939D0590939E0582E00E9493
:102A2000420F60939F057093A0058093A10590933A
:102A3000A20583E00E94420F6093A3057093A40552
:102A40008093A5059093A6058FEF9FEF90933F0489
:102A500080933E0490933D0480933C041092BF0504
:102A60001092C0051092C1051092C2051092C305C4
:102A70001092C4051092C5051092C60580E494E03A
:102A80009093C8058093C70580E390E0A0E0B0E094
:102A90008093C9059093CA05A093CB05B093CC054C
:102AA0008FEF80939605A12CB12C68ECC62E62E4C2
:102AB000D62EE12CF12C06E113E4A801970160E089
:102AC00070E0CB010E94770B823011F00E94B806B3
:102AD0008EE391E00E94CA0786E391E00E94CA0754
:102AE0008091BF059091C005A091C105B091C2052C
:102AF0000091C3051091C4052091C5053091C6050C
:102B000080179107A207B30709F421C3E091C70515
:102B1000F091C805E80FF91F1081BC01CD016F5F6E
:102B20007F4F8F4F9F4F2091C9053091CA0540912B
:102B3000CB055091CC050E94131F6093BF05709385
:102B4000C0058093C1059093C2058091A204909125
:102B5000A304009739F00197F9F01092A3041092A2
:102B6000A204BECF133239F0173429F01D3419F006
:102B7000103509F0B5CF21E030E03093A304209365
:102B8000A204133279F081E08093A00481E0809365
:102B9000A10410937004A4CFE091A104E033E8F6FF
:102BA000133219F41092A004F1CF173421F01D3420
:102BB00011F0103579F48091A0048111E7CF81E004
:102BC0008093A0048E0F8093A104F0E0E059FB4FA6
:102BD000108386CFAE2FB0E0A059BB4F1A3009F05A
:102BE000B1C21C92E0E7F4E001900020E9F73197D0
:102BF00034E0E037F30709F4B0CFDF018E918D01A7
:102C0000082E000C990B0E94441D892B09F405C362
:102C1000F8011082EDCFB3E2FB1621F02081669619
:102C20002FAF66970E9437196BAB7CAB8DAB9EAB19
:102C300064E371E090E080E00E943B19FC010F5FCB
:102C40001F4F309759F10630110541F1CF01019620
:102C50000115110501F30130110591F00E9437199A
:102C6000F801EE0FFF1FEE0FFF1F23E330E02C0FE4
:102C70003D1FE20FF31F6083718382839383D8CF5C
:102C800033E2F31204C0A0816696AFAF66970E944C
:102C900037196FAB78AF89AF9AAFCACF6BA97CA950
:102CA0008DA99EA90E9468201B0133E2F3124EC039
:102CB0006FA978AD89AD9AAD0E94682002501109C4
:102CC00082E090E06696AFAD6697AD3409F4AEC091
:102CD000A03509F47BC1A73409F03FCF672B09F079
:102CE00028C20430110509F055C1880F991F880FBB
:102CF000991FE3E3F0E0EC0FFD1FE80FF91FA48438
:102D0000B584C684D78480859185A285B3856A966B
:102D10008CAF9DAFAEAFBFAF6A97448055806680E1
:102D2000778080819181A281B3816E968CAF9DAFB7
:102D3000AEAFBFAF6E9720E030E0A901C601B5018C
:102D40000E94751D87FF09C01AE025C101501109B5
:102D5000312C212C81E090E0B5CF20E030E048EC30
:102D600052E4C601B5010E94751D87FF46C0C60129
:102D7000B5010E9468209B01AC01AFEFB0E00E945A
:102D8000D11E23E630E040E050E00E94B21E2093C6
:102D90009605DE0111964D01FE01E55BFF4F5F01D7
:102DA0009E012F5A3F4F69016A96ECACFDAC0EAD07
:102DB0001FAD6A97A30192016E966CAD7DAD8EAD8D
:102DC0009FAD6E970E941D08823009F4BDCFE98047
:102DD000FA800B811C812F962CAD3DAD4EAD5FADC1
:102DE0002F9765966CAD7DAD8EAD9FAD65970E94BA
:102DF000F502C1010E94DB0EB0CE8FEF80939605E5
:102E00006A96ECACFDAC0EAD1FAD6A97A3019201C2
:102E10006E966CAD7DAD8EAD9FAD6E970E94770BBB
:102E2000823009F491CF0E94B806E3CF880F991F32
:102E3000880F991FE3E3F0E0EC0FFD1FE80FF91F87
:102E40006A3C710509F46BC0673E710509F485C0E1
:102E5000693C710509F06DC10130110509F09AC096
:102E600060817181828193810E946F20643008F0BB
:102E70006BCF062F10E0F801E657FA4FB5A47801A2
:102E8000EE0CFF1CC701800F911FDC01A657BA4F43
:102E90006D018C918C3008F0ACCF8B2D0E946104B9
:102EA000F601808126E0829FF0011124EF5BFA4F4A
:102EB0002B2D2F739081907C922B90832CE0622F8E
:102EC0000E94C121482F50E0829FB001112430E0C0
:102ED00020E086E0DB01A20FB31F8A9FF0018B9FE9
:102EE000F00D1124EF5BFA4F908196FD08C02F5F23
:102EF0003F4F2C30310571F7CA010E94B8070E0D03
:102F00001F1DF801E657FA4FE08136E0E39FF0011C
:102F10001124EF5BFA4F8081806480836ACF013097
:102F20001105C1F560817181828193810E946F20BA
:102F3000643008F009CF70E0FB01EE0FFF1FE60FD1
:102F4000F71FE657FA4FE08186E0E89FF001112471
:102F5000EF5BFA4F80818F7BE0CF01301105D1F418
:102F600020E030E0A90160817181828193810E941B
:102F7000751D811109C060E086E00E948D0561E049
:102F800085E00E948D0535CF61E086E00E948D05C9
:102F900060E0F6CF15E180E391E00E941B08C101DB
:102FA0000E94830E84E391E00E941B088CE391E071
:102FB0000E941B08612F70E090E080E04AE00E94D0
:102FC000D70786E391E00E94CA07C7CD6B3C710525
:102FD000A9F16C3D710509F443C06A3C710509F023
:102FE000A8C0012B09F0ABC0A1E4B1E0BF93AF933F
:102FF00025E431E03F932F93A1E0B0E0AC0FBD1F7B
:10300000BF93AF930E943110BE016F5F7F4FCE011F
:10301000855B9F4F0E94E80FBE01655B7F4FC1013A
:103020000E94B30ECE01855B9F4F0E94E00F0F9070
:103030000F900F900F900F900F908FCD012B09F0F4
:103040007EC0E9E4F1E0FF93EF9385E491E09F9384
:103050008F93E1E0F0E0EC0FFD1FFF93EF93D2CFF1
:10306000012B09F06CC03C01660C771C660C771CC8
:1030700023E330E02C0F3D1F620E731E730138E016
:10308000E30EF11C230184E0480E511C07E915E012
:10309000D12C8D2D0E94420FD8016D937D938D937D
:1030A0009D938D01D394B4E0DB12F3CFA701B2015D
:1030B000C3010E948A0AF30183858F9382858F93CF
:1030C00081858F9380858F9387818F9386818F935E
:1030D00085818F9384818F9383818F9382818F9356
:1030E00081818F9380818F932FE431E03F932F93E1
:1030F000A1E0B0E0AC0FBD1FBF93AF930E943110B1
:10310000BE016F5F7F4FCE01855B9F4F0E94E80F2E
:10311000BE01655B7F4FC1010E94B30ECE01855B8E
:103120009F4F0E94E00F0FB6F894DEBF0FBECDBFD9
:1031300014CD64E170E0C1010E94F60E0ECD65E190
:1031400070E0F9CFEF5FE093A1041C93C9CC84EA4F
:1031500094E00E94DE04892B09F452C084EA94E0D2
:103160000E94BC048C01019691F3C090C305D090DD
:10317000C405E090C505F090C605C701B6016F5FB4
:103180007F4F8F4F9F4F2091C9053091CA054091C5
:10319000CB055091CC050E94131F4090BF05509065
:1031A000C0056090C1057090C2056415750586055F
:1031B000970569F2E091C705F091C805EC0DFD1D7A
:1031C00000836091C3057091C4058091C5059091FD
:1031D000C6056F5F7F4F8F4F9F4F2091C90530917C
:1031E000CA054091CB055091CC050E94131F6093F6
:1031F000C3057093C4058093C5059093C605A7CFFA
:1032000080E090E0892B09F46BCC0E94EA048823CB
:1032100009F466CC0E94000063CCF090700464E373
:1032200071E080E794E00E943B19FC0110E000E0AF
:1032300008CDEF920F931F93CF93DF93E80134E013
:1032400047FD34E1042E000C550B57FF03C0519588
:1032500041955109E32E022F242FAE010E94BD1982
:10326000CE01DF91CF911F910F91EF9008956627C6
:1032700077270C941C1B4DEC55E00E9440190895D3
:10328000FA01A191B081009719F41097E1F0CD01F6
:10329000DC01CD010D90002011F4C00113C0FB0131
:1032A0002191222319F02015D9F7F3CFFB012191A9
:1032B000201519F41E92119606C02223C1F70D9015
:1032C0000020A1F7D001FA01A193B0830895BB2794
:1032D0004A3031F4992322F4BDE2909581959F4FB5
:1032E0000C94A419BB272A3051F4992342F4BDE26F
:1032F00090958095709561957F4F8F4F9F4F0C945F
:103300008219BB27FA01A62F621771058105910565
:10331000330B30FB66F0AA27660F771F881F991FB3
:10332000AA1FA21710F0A21B63953850A9F7A05D41
:10333000AA3308F0A95DA19336F7B111B1931082B9
:10334000CA010C94651DBB27FB015527AA27880FCE
:10335000991FAA1FA41710F0A41B83955051B9F709
:10336000A05DAA3308F0A95DA193009779F7B11188
:10337000B1931192CB010C94651DA9E0B0E0E3EC90
:10338000F9E10C94E21E6A01F22EB02E102FFBE33D
:10339000AF2EA01608F41BE31F5F012F27E0AE013C
:1033A0004F5F5F4F0E946C1CBC018981982F997000
:1033B000913009F43FC09BE2E1FC04C09E2D917066
:1033C000E0FC3AC05E2D5071E82FE87083FF46C0E4
:1033D00084E0911101C083E0EF2DE81B8F1508F008
:1033E000E0E0D6018E2F20E2552351F1992329F0F8
:1033F000D6019C93C60101966C0196012D5F3F4F4B
:10340000E2FE24C08EE4D6018C9391E411969C9345
:10341000119712968C93D9018E2F90E281111BC0C7
:10342000E20FF32FF11D10828EEF9FEF2996ECE053
:103430000C94FE1E9DE2C6CF90E2C4CF2D93815026
:103440008111FCCFCE0ED11CE0E0D0CF8EE6D601AC
:103450008C9391E6DBCF9D938150E0CF482F447051
:1034600082FF3DC084E0911101C083E08F1510F40C
:10347000EF2DE81BD6018E2F20E2552309F1992369
:1034800029F0D6019C93C60101966C0196012D5F2F
:103490003F4FE2FE1BC089E4D6018C938EE4119667
:1034A0008C93119786E412968C93D9018E2F90E21B
:1034B000882309F4B5CF9D938150FACF2D93815085
:1034C0008111FCCFCE0ED11CE0E0D9CF89E6D60128
:1034D0008C938EE611968C93119786E6E4CF9B0130
:1034E00077FF02C030E020E0A1E0B0E0911102C01F
:1034F000B0E0A0E0F9013196AE0FBF1F8B2C912CEC
:10350000BB2009F461C05401EFEFAE1ABE0AAA0D48
:10351000BB1DFA161B0619F014F04F2D4A1B511152
:1035200088C0E3FC59C07601A42FB0E2A1114FC0BE
:10353000C40ED11C992309F45BC040E0D60111965A
:10354000F60190836D01552309F448C0012F060F41
:103550009A81582F507184FF03C0913309F40150B0
:1035600010160CF047C0093008F008E0EEE2FE2E1D
:103570005B01A01AB10885019194819491082F3FB5
:10358000320729F4D601FC92F60131966F016217D9
:10359000730794F1021713077CF5DB01A21BB30B31
:1035A000AA24A394B12CAC0EBD1EAA0DBB1D11966E
:1035B0008C9121503109D601119628153905F4F066
:1035C000F60180836D01DBCFB12CA12CA0CFF701D8
:1035D000B1937F01A150AACF9111B0CFD601942F02
:1035E00050E302C05D9391509111FCCFC40ED11CE9
:1035F00040E0ACCF01E0BACF80E3DBCF62177307C6
:1036000031F4963388F4953311F4552369F0F601BB
:103610008083FD01842F90E2811108C0A40FB11DA9
:103620001C9290E080E002CF81E3F1CF9193815032
:10363000F3CF911183CF8ACFB0E0A0E0E2E2FBE1CB
:103640000C94E21E5C017B016115710519F0DB0130
:103650008D939C9385010F5F1F4FF501D0818D2FB6
:1036600090E00E94441D6C01892BB9F5DD32B9F55B
:103670000F5F1F4FD5011196DC91C1E05801F1E0B9
:10368000AF1AB10843E050E064EE70E0C5010E945B
:103690004D1D892B69F5680182E0C80ED11C45E0FB
:1036A00050E06FED70E0C6010E944D1D892B21F4A2
:1036B000680197E0C90ED11CE114F10419F0D7019B
:1036C000CD92DC9260E070E080E89FEFC111FFC016
:1036D00060E070E080E89FE7FAC05801BBCFDB32C2
:1036E00029F485010E5F1F4FF501D181C0E0C6CFDF
:1036F00043E050E06CED70E0C5010E944D1D892B48
:10370000E9F0F80110E000E020E030E0A9015F01FD
:10371000B0ED8B2E8D0E89E08815C8F19C2E689433
:1037200091F88C2F8870C2FF16C0811102C00F5F04
:103730001F4F3196D501DC91C92DE9CFE114F10479
:1037400029F00E5F1F4FF7011183008360E070E0E6
:1037500080EC9FE7BCC0882311F001501109A5E05F
:10376000B0E00E94D11E9B01AC01220F331F441F09
:10377000551F280D311D411D511D283999E9390763
:10378000490799E15907A8F2C6609C2ED2CFAEEF47
:103790008A1206C0C3FD3CC09C2E689493F8C9CF22
:1037A000DF7DD534A9F580818D3239F4C061DF0128
:1037B0001296818162E070E006C0DF018B32C1F3B6
:1037C000119661E070E080535D01A61AB70A8A3055
:1037D000F8F4E0E8CE16ECE0DE065CF4B601660F25
:1037E000771F660F771FC60ED71ECC0CDD1CC80EC8
:1037F000D11C5D01FFEFAF1ABF0A8C9180538A3054
:10380000A8F1C4FF03C0D194C194D1080C0D1D1DB3
:10381000C1FF09C0E114F10431F081E0A81AB10838
:10382000D701AD92BC92CA01B9010E947A1DC37042
:10383000C33009F490584B015C0120E030E0A9014D
:103840000E94751D882309F440C0C3E1D1E017FF31
:1038500005C0119501951109CBEFD0E06E01B8E1DB
:10386000CB1AD10880E2E82EF12C0FC0D501B1CFE0
:10387000FE0125913591459154910E191F09C501FD
:10388000B4010E94DB1D4B015C01D501C4010E1582
:103890001F0574F72497F594E794CC16DD06A9F775
:1038A0008A2F880F8B2F881F8F3F49F020E030E050
:1038B000A901C501B4010E94751D811106C082E2F3
:1038C00090E09093D0058093CF05C501B401CDB7AA
:1038D000DEB7ECE00C94FE1E283008F027E033271A
:1038E000DA01990F311D87FD916000966105710520
:1038F00039F432602E5F3D9330E32A95E1F7089565
:103900009F3F30F080387105610509F03C5F3C5FF6
:103910003D93913008F08068911DDF93CF931F9302
:103920000F93FF92EF92192F987F9695E92F969516
:103930009695E90FFF27EF58FE4F99273327EE247E
:10394000FF24A701E70105900894079428F4360F97
:10395000E71EF81E491F511D660F771F881F991F0C
:103960000694A1F70590079428F4E70EF81E491F66
:10397000561FC11D770F881F991F661F0694A1F758
:103980000590079428F4F80E491F561FC71FD11D34
:10399000880F991F661F771F0694A1F7059007945B
:1039A00020F4490F561FC71FD81F990F661F771F96
:1039B000881F0694A9F784911095177041F0D69549
:1039C000C79557954795F794E7941A95C1F7E7E19E
:1039D000F1E0689415901591359165919591059058
:1039E0007FE27395E118F10A430B560BC90BD0091E
:1039F000C0F7E10CF11E431F561FC91FD01D7EF4F6
:103A0000703311F48A95E6CFE894015030F0080F36
:103A10000AF40027021708F4202F2395022F7A3387
:103A200028F079E37D932A95E9F710C07D932A95D4
:103A300089F6069497956795379517951794E11829
:103A4000F10A430B560BC90BD00998F023957E91D0
:103A500073957A3308F070E37C932013B8F77E9166
:103A600070617D9330F0839571E37D9370E32A95C7
:103A7000E1F71124EF90FF900F911F91CF91DF910B
:103A8000992787FD9095089591110C94481E8032D6
:103A900019F089508550C8F70895FB01DC014150A9
:103AA000504088F08D9181341CF08B350CF4805E91
:103AB000659161341CF06B350CF4605E861B6111FE
:103AC00071F3990B0895881BFCCFDC01FC01672F73
:103AD00071917723E1F7329704C07C916D937083E5
:103AE0006291AE17BF07C8F308950E94B71D08F48E
:103AF00081E00895E89409C097FB3EF49095809585
:103B0000709561957F4F8F4F9F4F9923A9F0F92FA3
:103B100096E9BB279395F695879577956795B79521
:103B2000F111F8CFFAF4BB0F11F460FF1BC06F5F07
:103B30007F4F8F4F9F4F16C0882311F096E911C019
:103B4000772321F09EE8872F762F05C0662371F03A
:103B500096E8862F70E060E02AF09A95660F771F4E
:103B6000881FDAF7880F9695879597F90895990F2A
:103B70000008550FAA0BE0E8FEEF16161706E80737
:103B8000F907C0F012161306E407F50798F0621B58
:103B9000730B840B950B39F40A2661F0232B242B2D
:103BA000252B21F408950A2609F4A140A6958FEF4C
:103BB000811D811D08950E94EE1D0C94621E0E94BD
:103BC000541E38F00E945B1E20F0952311F00C94D7
:103BD0004B1E0C94511E11240C94961E0E94731EB1
:103BE00070F3959FC1F3950F50E0551F629FF00150
:103BF000729FBB27F00DB11D639FAA27F00DB11D69
:103C0000AA1F649F6627B00DA11D661F829F2227F1
:103C1000B00DA11D621F739FB00DA11D621F839F78
:103C2000A00D611D221F749F3327A00D611D231F4E
:103C3000849F600D211D822F762F6A2F11249F579C
:103C400050409AF0F1F088234AF0EE0FFF1FBB1F9F
:103C5000661F771F881F91505040A9F79E3F51055E
:103C600080F00C944B1E0C94961E5F3FE4F3983E3C
:103C7000D4F3869577956795B795F795E7959F5F08
:103C8000C1F7FE2B880F911D9695879597F908959A
:103C900099278827089597F99F6780E870E060E08A
:103CA00008959FEF80EC089500240A9416161706D5
:103CB00018060906089500240A941216130614061D
:103CC00005060895092E0394000C11F4882352F080
:103CD000BB0F40F4BF2B11F460FF04C06F5F7F4F38
:103CE0008F4F9F4F089557FD9058440F551F59F01F
:103CF0005F3F71F04795880F97FB991F61F09F3FD9
:103D000079F087950895121613061406551FF2CF01
:103D10004695F1DF08C0161617061806991FF1CF51
:103D200086957105610508940895E894BB27662778
:103D30007727CB0197F90895F999FECF92BD81BD00
:103D4000F89A992780B50895262FF999FECF1FBAC2
:103D500092BD81BD20BD0FB6F894FA9AF99A0FBEB4
:103D600001960895052E97FB1EF400940E94C91E2B
:103D700057FD07D00E94131F07FC03D04EF40C948C
:103D8000C91E50954095309521953F4F4F4F5F4F3D
:103D9000089590958095709561957F4F8F4F9F4FB7
:103DA00008950E94351FA59F900DB49F900DA49F6C
:103DB000800D911D112408952F923F924F925F9292
:103DC0006F927F928F929F92AF92BF92CF92DF922B
:103DD000EF92FF920F931F93CF93DF93CDB7DEB790
:103DE000CA1BDB0B0FB6F894DEBF0FBECDBF099424
:103DF0002A88398848885F846E847D848C849B847B
:103E0000AA84B984C884DF80EE80FD800C811B8188
:103E1000AA81B981CE0FD11D0FB6F894DEBF0FBEB7
:103E2000CDBFED010895A1E21A2EAA1BBB1BFD0117
:103E30000DC0AA1FBB1FEE1FFF1FA217B307E40789
:103E4000F50720F0A21BB30BE40BF50B661F771FE1
:103E5000881F991F1A9469F76095709580959095C1
:103E60009B01AC01BD01CF010895A29FB001B39F9A
:103E7000C001A39F700D811D1124911DB29F700D73
:103E8000811D1124911D08959F939F770E949E206C
:103E90000F90002042F49058A2EA2AED3FE049E456
:103EA00050E40E946D1F0C94621E5058BB27AA2735
:103EB0000E946D1F0C94621E0E94541E38F00E94D6
:103EC0005B1E20F039F49F3F19F426F40C94511E28
:103ED0000EF4E095E7FB0C944B1EE92F0E94731E35
:103EE00058F3BA17620773078407950720F079F42F
:103EF000A6F50C94951E0EF4E0950B2EBA2FA02D6E
:103F00000B01B90190010C01CA01A0011124FF2786
:103F1000591B99F0593F50F4503E68F11A16F04081
:103F2000A22F232F342F4427585FF3CF4695379580
:103F30002795A795F0405395C9F77EF41F16BA0B45
:103F4000620B730B840BBAF09150A1F0FF0FBB1FF3
:103F5000661F771F881FC2F70EC0BA0F621F731F3C
:103F6000841F48F4879577956795B795F7959E3F99
:103F700008F0B0CF9395880F08F09927EE0F97952A
:103F800087950895DF93DD27B92FBF7740E85FE37A
:103F90001616170648075B0718F4D92F0E94292127
:103FA0009F938F937F936F930E947F21E8E6F0E0C9
:103FB0000E94BE200E94621E2F913F914F915F91FF
:103FC0000E94EE1DDD2351F09058A2EA2AED3FE059
:103FD00049EC5FE3D0785D270E946D1FDF910C9460
:103FE000621E0E94E720E3950C9410210E940A2093
:103FF0000C94621E0E945B1E58F00E94541E40F0FA
:1040000029F45F3F29F00C944B1E51110C94961E1D
:104010000C94511E0E94731E68F39923B1F355232B
:1040200091F3951B550BBB27AA27621773078407CB
:1040300038F09F5F5F4F220F331F441FAA1FA9F361
:1040400035D00E2E3AF0E0E832D091505040E6954F
:10405000001CCAF72BD0FE2F29D0660F771F881FB0
:10406000BB1F261737074807AB07B0E809F0BB0BA3
:10407000802DBF01FF2793585F4F3AF09E3F5105B7
:1040800078F00C944B1E0C94961E5F3FE4F3983E20
:10409000D4F3869577956795B795F7959F5FC9F7A0
:1040A000880F911D9695879597F90895E1E0660F21
:1040B000771F881FBB1F621773078407BA0720F09A
:1040C000621B730B840BBA0BEE1F88F7E095089503
:1040D0000E946F206894B1110C94961E08950E945E
:1040E0007B1E88F09F5798F0B92F9927B751B0F0F1
:1040F000E1F0660F771F881F991F1AF0BA95C9F76C
:1041000014C0B13091F00E94951EB1E008950C9456
:10411000951E672F782F8827B85F39F0B93FCCF309
:10412000869577956795B395D9F73EF490958095E8
:10413000709561957F4F8F4F9F4F0895DF93CF9379
:104140001F930F938B01EC01E5E9F0E00E94BE2084
:104150000E94621E9801AE018B01EC0160E070E0EC
:1041600080E89FE30E94551F0E943F219801AE0105
:104170000F911F91CF91DF910C94EE1DDF93CF93A0
:104180001F930F93FF92EF92DF927B018C01689453
:1041900006C0DA2EEF010E94EE1DFE01E894A59103
:1041A0002591359145915591A6F3EF010E946D1F20
:1041B000FE019701A801DA9469F7DF90EF90FF9074
:1041C0000F911F91CF91DF9108950C94511E0E9481
:1041D0007B1ED8F3E894E0E0BB279F57F0F02AED70
:1041E0003FE049EC06C0EE0FBB0F661F771F881F2C
:1041F00028F0B23A62077307840728F0B25A620BBC
:10420000730B840BE3959A9572F7803830F49A9586
:10421000BB0F661F771F881FD2F790480C948A2126
:10422000EF93E0FF07C0A2EA2AED3FE049EC5FEB25
:104230000E946D1F0E94621E0F90039401FC905813
:10424000EDEBF0E00C949D210E94B71D08F48FEF78
:1042500008959B01AC0160E070E080E89FE30C945E
:10426000F61F9F930E94E7200F9007FCEE5F0C94CF
:10427000102119F416F40C94511E0C9488210E94FC
:104280007B1EB8F39923C9F3B6F39F57550B87FFED
:104290000E9496210024A0E640EA9001805856959D
:1042A000979528F4805C660F771F881F20F02617EB
:1042B0003707480730F4621B730B840B2029312920
:1042C0004A2BA69517940794202531254A2758F79D
:1042D000660F771F881F20F026173707480730F42E
:1042E000620B730B840B200D311D411DA09581F7CE
:1042F000B901842F9158880F9695879508959B0151
:10430000AC010C94DB1D0E94B71D880B990B08951E
:104310009F3F31F0915020F4879577956795B79539
:10432000880F911D9695879597F908959150504063
:10433000660F771F881FD2F708959F938F937F93FF
:104340006F93FF93EF939B01AC010E94DB1DEF91F4
:10435000FF910E94BE202F913F914F915F910C944D
:10436000DB1DDB018F939F930E94D11EBF91AF9104
:10437000A29F800D911DA39F900DB29F900D1124BF
:104380000895991B79E004C0991F961708F0961BB1
:10439000881F7A95C9F78095089597FB072E16F424
:1043A000009407D077FD09D00E94E12107FC05D0D9
:1043B0003EF4909581959F4F0895709561957F4F3C
:1043C0000895AA1BBB1B51E107C0AA1FBB1FA6175C
:1043D000B70710F0A61BB70B881F991F5A95A9F7AE
:1043E00080959095BC01CD010895EE0FFF1F0590BB
:1043F000F491E02D09940F931F93CF93DF938230B4
:10440000910510F482E090E0E091D305F091D4059D
:1044100030E020E0B0E0A0E0309799F421153105BC
:1044200009F44AC0281B390B24303105D8F58A819C
:104430009B816115710589F1FB0193838283FE01E4
:1044400011C0408151810281138148175907E0F062
:104450004817590799F4109761F012960C93129728
:1044600013961C933296CF01DF91CF911F910F913C
:1044700008950093D3051093D405F4CF2115310589
:1044800051F04217530738F0A901DB019A01BD0131
:10449000DF01F801C1CFEF01F9CF9093D4058093EC
:1044A000D305CDCFFE01E20FF31F819391932250EC
:1044B000310939832883D7CF2091D1053091D20596
:1044C000232B41F420910201309103013093D20556
:1044D0002093D10520910001309101012115310572
:1044E00041F42DB73EB74091040150910501241BC2
:1044F000350BE091D105F091D205E217F307A0F456
:104500002E1B3F0B2817390778F0AC014E5F5F4F29
:104510002417350748F04E0F5F1F5093D205409384
:10452000D105819391939FCFF0E0E0E09CCFCF93B2
:10453000DF930097E9F0FC01329713821282A09179
:10454000D305B091D405ED0130E020E01097A1F43F
:1045500020813181820F931F2091D1053091D205A6
:104560002817390709F061C0F093D205E093D1050F
:10457000DF91CF910895EA01CE17DF07E8F54A8170
:104580005B819E0141155105B1F7E901FB83EA8387
:1045900049915991C40FD51FEC17FD0761F4808133
:1045A00091810296840F951FE90199838883828106
:1045B00093819B838A83F0E0E0E012968D919C9139
:1045C00013970097B9F52D913C911197CD01029663
:1045D000820F931F2091D1053091D20528173907FA
:1045E00039F6309751F51092D4051092D305B09357
:1045F000D205A093D105BCCFD383C2834081518122
:10460000840F951FC817D90761F44E5F5F4F8881EB
:104610009981480F591F518340838A819B819383DD
:1046200082832115310509F0B0CFF093D405E093D2
:10463000D3059ECFFD01DC01C0CF13821282D7CFFC
:10464000B0E0A0E0E6E2F3E20C94DE1E8C010097FD
:1046500051F4CB010E94FB218C01C801CDB7DEB71C
:10466000E0E10C94FA1EFC01E60FF71F9C012250BA
:104670003109E217F30708F49DC0D901CD91DC910F
:104680001197C617D70798F0C530D10530F3CE0182
:1046900004978617970708F3C61BD70B2297C19379
:1046A000D1936D937C93CF010E949722D6CF5B016B
:1046B000AC1ABD0A4C018C0E9D1EA091D305B09181
:1046C000D405512C412CF12CE12C109731F580911F
:1046D000D1059091D2058815990509F05CC0461660
:1046E000570608F058C08091000190910101009791
:1046F00041F48DB79EB74091040150910501841B90
:10470000950BE817F90708F055C0F093D205E09330
:10471000D105F90171836083A0CF8D919C91119790
:1047200012966C90129713967C901397A815B90562
:1047300059F56C0142E0C40ED11CCA14DB0420F10F
:10474000AC014A195B09DA011296159780F0628272
:10475000738251834083D9016D937C93E114F104FA
:1047600071F0D7011396FC93EE93129776CF2296B1
:104770008C0F9D1FF90191838083F301EFCFF0939C
:10478000D405E093D30569CF4816590608F42C01E7
:104790007D01D3019ACFCB010E94FB217C010097C0
:1047A00049F0AE01B8010E94DD23C8010E949722A2
:1047B000870153CF10E000E050CFFB01DC0102C0C5
:1047C00001900D9241505040D8F70895FB01DC0153
:1047D0000D900020E9F7119701900D920020E1F76C
:1047E0000895FB01DC0101900D920020E1F708958E
:0447F000F894FFCF6B
:1047F4000000D50580000000B4420000B44200006F
:1048040000000000B4420B0D0C0A0200010300007A
:10481400000020058004AD046D05DE04BC04D00452
:1048240024004F4B20000D0A004F4B00450040313F
:1048340000322E310056257300322E322E330058AA
:0C484400256620592566205A25660000D4
:00000001FF
