:100000000C9437010C945F010C945F010C945F0118
:100010000C945F010C945F010C945F010C945F01E0
:100020000C945F010C945F010C945F010C945612C8
:100030000C945F010C945F010C945F010C945F01C0
:100040000C940C120C945F010C94DA110C94B41102
:100050000C945F010C945F010C945F010C945F01A0
:100060000C945F010C945F01084AD73B3BCE016EB4
:1000700084BCBFFDC12F3D6C74319ABD56833DDAFF
:100080003D00C77F11BED9E4BB4C3E916BAAAABE0E
:10009000000000803F072C7AA5BA6CC590DA3B932C
:1000A00065FC8BBC53F810FD3C5692834DBD879D7B
:1000B0003AB63DCBC9BF5BBE73DA0FC93F05A84C4A
:1000C000CDB2D44EB93836A9020C50B99186880801
:1000D0003CA6AAAA2ABE000000803F004E414E491D
:1000E0004E495459494E46CDCCCC3D0AD7233C17F6
:1000F000B7D13877CC2B329595E6241FB14F0A0043
:100100000020410000C84200401C4620BCBE4CCA32
:100110001B0E5AAEC59D7400407A10F35A00A072AF
:100120004E18090010A5D4E80000E8764817000032
:10013000E40B54020000CA9A3B000000E1F5050000
:100140000080969800000040420F000000A0860149
:10015000000000102700000000E803000000006419
:1001600000000000000A0000000000010000000084
:10017000002C76D888DC674F0823DFC1DFAE59E159
:10018000B1B796E5E3E453C63AE651997696E8E6C8
:10019000C28426EB898C9B62ED407C6FFCEFBC9C9B
:1001A0009F40F2BAA56FA5F490055A2AF75C936BAD
:1001B0006CF9676DC11BFCE0E40D47FEF520E6B568
:1001C00000D0ED902E0300943577050080841E0842
:1001D0000000204E0A000000C80C333333330F9860
:1001E0006E12831141EF8D2114893BE65516CFFE27
:1001F000E6DB18D1844B381BF77C1D901DA4BBE4B3
:1002000024203284725E228100C9F124ECA1E53DF4
:10021000270000000023002600290000000008003D
:1002200002010000030407000000000000000000BD
:10023000000000250028002B0000000000240027FB
:10024000002A00040404040404040402020202025A
:10025000020303030303030102040810204080018A
:100260000204081020010204081020009113112438
:100270001FBECFEFD8E0DEBFCDBF11E0A0E0B1E000
:10028000EAE5FEE402C005900D92A439B107D9F762
:1002900026E0A4E9B1E001C01D92AD30B207E1F75C
:1002A00011E0C7E3D1E004C02197FE010E94282598
:1002B000C633D107C9F70E941D140C942B270C9448
:1002C00000003F924F925F926F927F928F929F9227
:1002D000AF92BF92CF92DF92EF92FF920F931F9354
:1002E000CF93DF93C82F6A017B0120E030E0A901A2
:1002F000CB01B6010E94A82087FDC4C020E030E0F9
:1003000044E353E4C701B6010E94572418160CF4C5
:10031000BDC0D0E0FE01EE0FFF1FEE0FFF1FEE533A
:10032000FA4FC586D686E786F08A258D368D478DAD
:1003300050A1C701B6010E9489226B017C01309057
:10034000CE058E01000F111F20E030E04AEF53E48C
:10035000332009F4ADC00E94A82087FF5EC020E0D2
:1003600030E040E251E4C701B6010E940E212B01AA
:100370003C0120E030E0A9010E94A82087FD8DC04B
:1003800020E030E041EE54E4C301B2010E94572462
:1003900018160CF486C0F801EC0FFD1FEE53FA4F4F
:1003A00081814DE7842E912C881A910887FD9394C2
:1003B000880C991C880C991C092C000CAA08BB08F5
:1003C000828161E7C62E62E0D62EC81AD10887FD69
:1003D000D394CC0CDD1CCC0CDD1C0D2C000CEE08D9
:1003E000FF08C818D908EA08FB08C301B2010E9437
:1003F0009B23A70196010E94E42428E037E040E017
:1004000050E00E94E521CA01B901680D791D8A1DDD
:100410009B1D0E94AF206B017C01C00FD11FCE53EA
:10042000DA4FC881CC30E0F420E030E040E851E41D
:10043000C701B6010E940E211FB7F89426E0C29FA3
:10044000E0011124C758DA4F20E030E040E05EE3DD
:100450000E940E210E94A2237C836B833D821FBFDA
:10046000DF91CF911F910F91FF90EF90DF90CF9090
:10047000BF90AF909F908F907F906F905F904F90C4
:100480003F900895C12CD12C760143CFC12CD12CA3
:10049000D4E3ED2ED3E4FD2E3CCF412C512C320180
:1004A0007ACF412C512CE1EE6E2EE4E47E2E73CFF8
:1004B0000E94A82087FF61C020E030E0A901C701A9
:1004C000B6010E94A82087FD91C020E030E044E3FF
:1004D00053E4C701B6010E945724181634F4C12C06
:1004E000D12C34E3E32E33E4F32EF801EC0FFD1F9F
:1004F000EE53FA4F8181ADE74A2E512C481A51082C
:1005000087FD5394440C551C440C551C052C000CC1
:1005100066087708828191E7892E92E0992E881AE1
:10052000910887FD9394880C991C880C991C092CC0
:10053000000CAA08BB0884189508A608B70820E094
:1005400030E040E251E4C701B6010E940E210E9452
:100550009B23A50194010E94E42428E037E040E0B9
:1005600050E00E94E521CA01B901640D751D861D88
:10057000971D0E94AF206B017C01C00FD11FCE538D
:10058000DA4F18811C3008F06BCFC701B6010E940A
:100590009B23AB01E9818DE790E08E1B9109E7FD7C
:1005A0009395880F991F880F991F481759077CF05A
:1005B000EA8181E792E08E1B9109E7FD9395880F10
:1005C000991F880F991F481759070CF4CA01029701
:1005D000880F991F2FB7F89436E0139FF00111246C
:1005E000E758FA4F928381832FBF3ACFC12CD12C89
:1005F00076017BCF8F929F92AF92BF92CF92DF9284
:10060000EF92FF920F931F9349015A016701AB01CB
:10061000BC0180E00E946101B501A40181E00E945B
:100620006101B801A60182E01F910F91FF90EF9048
:10063000DF90CF90BF90AF909F908F900C9461010E
:100640002F923F924F925F926F927F928F929F92E2
:10065000AF92BF92CF92DF92EF92FF921F93CF9310
:10066000DF93CDB7DEB728970FB6F894DEBF0FBE85
:10067000CDBF9E838D8378876F831A01DC018D90B7
:100680009D90AD90BC90A5019401C501B4010E945C
:10069000B624811188C0AF81B8858D919D910D9050
:1006A000BC91A02D89839A83AB83BC839C01AD014F
:1006B000CD01B9010E94B624811175C0F101C0803D
:1006C000D180E280F380A7019601C701B6010E94A4
:1006D000B624811168C02091E3053091E405409172
:1006E000E5055091E60569817A818B819C810E94A4
:1006F00089222B013C0120E030E040EA50E40E94D6
:10070000A82087FD4EC020E030E040EF52E4C30156
:10071000B2010E94572418160CF443C02091E7053B
:100720003091E8054091E9055091EA05C701B6010D
:100730000E9489222B013C0120E030E040EA50E495
:100740000E94A82087FD2DC020E030E040EF52E459
:10075000C301B2010E94572418161CF129813A8165
:100760004B815C8160E070E084E393E40E94882226
:10077000A70196010E9488226B017C0120E030E0F5
:1007800046E153E40E94572418165CF020E030E064
:1007900040EF51E4C701B6010E94A82011E087FF95
:1007A00003C013E001C012E020E030E0A901C50160
:1007B000B4010E94A82087FD51C020E030E044E34E
:1007C00053E4C501B4010E94572418160CF44AC022
:1007D000AD81BE818D929D92AD92BC921397EF81B7
:1007E000F88580809180A280B38020E030E0A9016C
:1007F000C501B4010E94A82087FD3BC020E030E085
:1008000044E353E4C501B4010E9457241816ACF127
:10081000AF81B8858D929D92AD92BC921397F101F4
:1008200080809180A280B38020E030E0A901C501E2
:10083000B4010E94A82087FD27C020E030E044E3F7
:1008400053E4C501B4010E945724181604F5812C05
:10085000912C84E3A82E83E4B82E19C0812C912C0E
:100860005401B6CF812C912C24E3A22E23E4B22E86
:10087000AFCF812C912C5401CBCF812C912C94E3C0
:10088000A92E93E4B92EC4CF812C912C5401D1010F
:100890008D929D92AD92BC921397812F28960FB6A0
:1008A000F894DEBF0FBECDBFDF91CF911F91FF90B7
:1008B000EF90DF90CF90BF90AF909F908F907F9000
:1008C0006F905F904F903F902F90089590E0FC01C3
:1008D000E95AFD4F24918D5B9D4FFC018491882343
:1008E00099F090E0880F991FFC01E75CFD4FA591FE
:1008F000B491FC01E15DFD4F859194918FB7F8941F
:10090000EC91E22BEC938FBF0895AF92BF92CF9200
:10091000DF92EF92FF920F931F93CF93DF936C01BF
:100920007B018B01040F151FEB015E01AE18BF08A0
:10093000C017D10759F06991D601ED91FC91019052
:10094000F081E02DC6010995892B79F7C501DF916A
:10095000CF911F910F91FF90EF90DF90CF90BF90BC
:10096000AF900895FC01538D448D252F30E0842FE6
:1009700090E0821B930B541710F0CF9608950197C7
:100980000895FC01918D828D981761F0A28DAE0FB4
:10099000BF2FB11D5D968C91928D9F5F9F73928F3B
:1009A00090E008958FEF9FEF0895FC01918D828D67
:1009B000981731F0828DE80FF11D858D90E0089534
:1009C0008FEF9FEF0895FC01918D228D892F90E08C
:1009D000805C9F4F821B91098F73992708958CED3E
:1009E00094E00E94E30421E0892B09F420E0822FA7
:1009F000089580E090E0892B29F00E94EF04811196
:100A00000C9400000895FC01A48DA80FB92FB11D0E
:100A1000A35ABF4F2C91848D90E001968F73992734
:100A2000848FA689B7892C93A089B1898C91837012
:100A300080648C93938D848D981306C00288F3890B
:100A4000E02D80818F7D80830895EF92FF920F9338
:100A50001F93CF93DF93EC0181E0888F9B8D8C8D6A
:100A600098131AC0E889F989808185FF15C09FB75E
:100A7000F894EE89FF896083E889F9898081837021
:100A8000806480839FBF81E090E0DF91CF911F91D0
:100A90000F91FF90EF900895F62E0B8D10E00F5FF1
:100AA0001F4F0F731127E02E8C8D8E110CC00FB6C7
:100AB00007FCFACFE889F989808185FFF5CFCE015F
:100AC0000E940305F1CFEB8DEC0FFD2FF11DE35AD2
:100AD000FF4FF0829FB7F8940B8FEA89FB898081E2
:100AE0008062CFCFCF93DF93EC01888D8823B9F05C
:100AF000AA89BB89E889F9898C9185FD03C0808129
:100B000086FD0DC00FB607FCF7CF8C9185FFF2CFA5
:100B1000808185FFEDCFCE010E940305E9CFDF91F3
:100B2000CF910895833081F028F4813099F082309C
:100B3000A9F008958730A9F08830C9F08430B1F465
:100B4000809180008F7D03C0809180008F7780939B
:100B50008000089584B58F7784BD089584B58F7D16
:100B6000FBCF8091B0008F778093B0000895809183
:100B7000B0008F7DF9CFCF93DF93282F30E0F901BC
:100B8000E55EFD4F8491F901E95AFD4FD491F901D9
:100B9000ED5BFD4FC491CC23A1F081110E94920521
:100BA000EC2FF0E0EE0FFF1FEF5EFD4FA591B4912B
:100BB000EC91ED2381E090E009F480E0DF91CF91AA
:100BC000089580E090E0FACF1F93CF93DF93282F12
:100BD00030E0F901E55EFD4F8491F901E95AFD4FDE
:100BE000D491F901ED5BFD4FC491CC23A9F0162FF0
:100BF00081110E949205EC2FF0E0EE0FFF1FE15DE6
:100C0000FD4FA591B4918FB7F894EC91111108C0E4
:100C1000D095DE23DC938FBFDF91CF911F91089594
:100C2000DE2BF8CF3FB7F894809170049091710457
:100C3000A0917204B091730426B5A89B05C02F3F04
:100C400019F00196A11DB11D3FBFBA2FA92F982FF2
:100C50008827BC01CD01620F711D811D911D42E0ED
:100C6000660F771F881F991F4A95D1F708952F9215
:100C70003F924F925F926F927F928F929F92AF922C
:100C8000BF92CF92DF92EF92FF920F931F93CF9379
:100C9000DF93CDB7DEB72B970FB6F894DEBF0FBE4C
:100CA000CDBF29013A011801870120E030E040E280
:100CB00051E40E9429234B015C0120E030E040E236
:100CC00051E4C301B2010E942923A50194010E94AD
:100CD000882269837A838B839C8321E02B87C701D9
:100CE000FF0CAA0BBB0B8F839887A987BA879B85BC
:100CF000692E712C061517050CF45AC0692F70E087
:100D000090E080E00E94AD206B017C016F817885CE
:100D100089859A850E94AF209B01AC01C701B6016D
:100D20000E9429236B017C01A1E06A1AA0EC7A0AD7
:100D3000660C771C660C771CF101E60DF71DFE832F
:100D4000ED83A7019601C701B6010E940E212981FA
:100D50003A814B815C810E940E212B013C0120E0F5
:100D600030E040E050ECC701B6010E940E2120E0C7
:100D700030E040E450E40E9489229B01AC01C301B1
:100D8000B2010E940E21A50194010E94892220E057
:100D900030E040E251E40E940E21AD81BE816D93AE
:100DA0007D938D939C931397BB85BF5FBB879FCF2C
:100DB0002B960FB6F894DEBF0FBECDBFDF91CF915B
:100DC0001F910F91FF90EF90DF90CF90BF90AF9069
:100DD0009F908F907F906F905F904F903F902F905B
:100DE00008956F927F928F929F92AF92BF92CF920F
:100DF000DF92EF92FF920F931F93CF93DF93CC2458
:100E0000CA94DC2C809176049091770497FD6FC092
:100E10002091740430917504821793070CF067C019
:100E20008FB7F89440916C0450916D0460916E04FA
:100E300070916F048FBFC0917604D0917704809138
:100E4000670490916804A0916904B0916A04481BFA
:100E5000590B6A0B7B0B2091650430916604C29F8D
:100E6000C001C39F900DD29F900D1124B0E0A0E06F
:100E7000481759076A077B0728F2CE01880F991F88
:100E8000880F991F8C010B581C4F9C012B573D4F0D
:100E90003901FC01EB56FE4F4F01A801B901CF010A
:100EA0000E942003A0907404B0907504823089F0F1
:100EB000F801E080F18002811381F301208131810A
:100EC00042815381F40160817181828193810E940A
:100ED000FA022196D0937704C0937604CA15DB05F5
:100EE0000CF490CFD0927704C09276048BCFDF9130
:100EF000CF911F910F91FF90EF90DF90CF90BF9017
:100F0000AF909F908F907F906F900895CF93DF93D5
:100F1000CDB7DEB760970FB6F894DEBF0FBECDBF7A
:100F200092EF980F8E3008F0892F87708064FE0151
:100F30003196BE016F5E7F4FAF0180937C00909130
:100F40007A00906490937A0090917A0096FDFCCF9D
:100F50009091780020917900322F292F219331939D
:100F60006E177F0751F780E090E0E92FF0E09F01D6
:100F7000280F311D27303105B4F4EE0FFF1FDA01C1
:100F8000AE0FBF1F2D913C9111973296E40FF51FC4
:100F9000608171816217730720F46D937C933183B4
:100FA00020839F5FE2CF8F5F8830F1F68D819E8135
:100FB0002F813885820F931F29853A85820F931FD1
:100FC0002B853C85820F931F9695879596958795DF
:100FD00060960FB6F894DEBF0FBECDBFDF91CF9104
:100FE0000895892B79F41092800082E0809381002B
:100FF0001092850010928400B19A80916F008260F7
:1010000080936F000895FC0101900020E9F731976B
:10101000AF01481B590BBC018CED94E00C94850486
:101020008F929F92AF92BF920F931F93CF93DF93B4
:10103000CDB7DEB7A1970FB6F894DEBF0FBECDBF18
:1010400019A2423008F44AE08E010F5D1F4F842E32
:10105000912CB12CA12CA50194010E944622E62FCF
:10106000B901CA01EA30F4F4E05DD801EE938D01D4
:10107000232B242B252B79F790E080E0109719F093
:10108000CD010E940308A1960FB6F894DEBF0FBEF3
:10109000CDBFDF91CF911F910F91BF90AF909F90E7
:1010A0008F900895E95CE1CF0C9403082F923F9252
:1010B0004F925F926F927F928F929F92AF92BF9268
:1010C000CF92DF92EF92FF920F931F93CF93DF9314
:1010D000CDB7DEB72A970FB6F894DEBF0FBECDBFEF
:1010E0002B013C0129833A834B835C83ED82FE8292
:1010F0000F8318878601BA86A986140120E030EC98
:101100004CE455EC0E94A82087FDB0C120E030ECF3
:101110004CE455E4C301B2010E94572418160CF4A4
:10112000ADC120E030EC4CE455EC69817A818B81D3
:101130009C810E94A82087FDA9C120E030EC4CE4EE
:1011400055E469817A818B819C810E94572418160D
:101150000CF4A5C120E030EC4CE455EC6D817E81AF
:101160008F8198850E94A82087FD9EC120E030ECE9
:101170004CE455E46D817E818F8198850E945724CF
:1011800018160CF49AC120E030E040E251E46D8181
:101190007E818F8198850E940E210E949B23072EBD
:1011A000000C880B990B0E94AF2020E030E040E259
:1011B00051E40E9429236B017C0120E030E042E8E9
:1011C00053E40E94572418160CF4C3C120E030E009
:1011D00040EF52ECC701B6010E94A82087FDB9C1BB
:1011E00020E030E040E251E4C301B2010E940E2150
:1011F0000E949B23072E000C880B990B0E94AF20A6
:1012000020E030E040E251E40E9429232B013C0120
:1012100020E030E040E251E469817A818B819C8159
:101220000E940E210E949B23072E000C880B990B15
:101230000E94AF2020E030E040E251E40E942923E8
:101240004B015C0126E636EE46ED52E4C701B601DD
:101250000E94882220E030E444E153E40E942923E4
:101260006B017C0120E030E0A901C301B2010E94C2
:10127000A820811127C180E090E0A4EBB2E4F8013E
:1012800080839183A283B383D8018D919D910D902A
:10129000BC91A02D89839A83AB83BC8320E030E08E
:1012A00044EB52E4BC01CD010E94A820882309F43C
:1012B00049C126EE3EE245E652E469817A818B819E
:1012C0009C810E9429230E9424239B01AC01C3011D
:1012D000B2010E94292329E23CE549EA51E40E9437
:1012E000882220E030E048EC51E40E94882220E08F
:1012F00030E444E153E40E9429234B015C01AC013A
:101300009B01C701B6010E9429230E94F52226EE07
:101310003EE245E652E40E940E212B013C01A7016A
:101320009601C701B6010E940E216B017C01A50147
:101330009401C501B4010E940E219B01AC01C701BB
:10134000B6010E9489220E9472246B017C01AC01CB
:101350009B010E940E214B015C0123E937E745E91F
:101360005FE30E94892220E030E040E85FE30E94D2
:10137000882269837A838B839C8325E531E54AE063
:1013800050E4C701B6010E940E219B01AC016981A6
:101390007A818B819C810E9429230E94772226EEEC
:1013A0003EE245E652E40E940E21F1016083718322
:1013B0008283938320E030E040E85FE3C501B4011D
:1013C0000E94892223E937E745E95FE30E948822EA
:1013D0004B015C01A7019601C701B6010E94892259
:1013E0009B01AC01C501B4010E9429230E94772210
:1013F00026EE3EE245E652E40E940E21A301920150
:101400000E948922A985BA856D937D938D939C93C3
:101410001397A3019201F10160817181828193810F
:101420000E948822D1016D937D938D939C93139795
:10143000A10169857A85C8012A960FB6F894DEBFA6
:101440000FBECDBFDF91CF911F910F91FF90EF9015
:10145000DF90CF90BF90AF909F908F907F906F90D4
:101460005F904F903F902F900C942003412C90EC74
:10147000592E9CE4692E95EC792E53CE412C80ECAC
:10148000582E8CE4682E85E4782E4BCE80E090ECCC
:10149000ACE4B5EC89839A83AB83BC835BCE80E0FC
:1014A00090ECACE4B5E4F6CF80E090ECACE4B5ECC5
:1014B0008D839E83AF83B88766CE80E090ECACE4EA
:1014C000B5E4F6CF20E030E0A901C301B2010E94EB
:1014D00057241816A4F4A3019201C501B4010E9477
:1014E00029230E94F52226EE3EE245E652E40E94C0
:1014F0000E21D8016D937D938D939C93139720E0DB
:1015000030E0A901C301B2010E94A82087FFBCCE30
:10151000A3019201C501B4010E9429230E94F52272
:1015200026EE3EE245E652E40E940E2120E030E045
:1015300044E353E40E948922F8016083718382832B
:101540009383A2CE29E23CE549EA51E4C501B40106
:10155000C6CE82E02A960FB6F894DEBF0FBECDBF8E
:10156000DF91CF911F910F91FF90EF90DF90CF907F
:10157000BF90AF909F908F907F906F905F904F90B3
:101580003F902F9008952F923F924F925F926F92CB
:101590007F928F929F92AF92BF92CF92DF92EF9203
:1015A000FF920F931F93CF93DF9300D000D000D012
:1015B000CDB7DEB78C011B015E834D8326EE3EE284
:1015C00045E652E46091D3057091D4058091D5052C
:1015D0009091D6050E9429234B015C010E9424238F
:1015E0002B013C0126EE3EE245E652E46091D70530
:1015F0007091D8058091D9059091DA050E94292330
:101600006B017C010E94242369837A838B839C83F2
:1016100020E030E444E153E4C301B2010E940E2112
:101620002B013C0123E333E340E253E469817A81F7
:101630008B819C810E940E219B01AC01C301B201F0
:101640000E94892229E23CE549EA51E40E9489226C
:1016500020E030E048EC51E40E9489222B013C015B
:10166000C501B4010E9464244B015C01C701B601AD
:101670000E9464246B017C0126EE3EE245E652E4C2
:101680006091CF057091D0058091D1059091D205E0
:101690000E9429230E9424239B01AC01C301B201B3
:1016A0000E940E21F801608371838283938326EE6A
:1016B0003EE245E652E46091CF057091D0058091FD
:1016C000D1059091D2050E9429230E9464249B0198
:1016D000AC01C301B2010E940E21F101608371834C
:1016E0008283938320E030E444E153E4C501B401F4
:1016F0000E940E214B015C0123E333E340E253E4FB
:10170000C701B6010E940E219B01AC01C501B401C5
:101710000E94882226E636EE46ED52E40E94892297
:10172000ED81FE81608371838283938381E02696BD
:101730000FB6F894DEBF0FBECDBFDF91CF911F91E2
:101740000F91FF90EF90DF90CF90BF90AF909F9060
:101750008F907F906F905F904F903F902F90089563
:101760002F923F924F925F926F927F928F929F92B1
:10177000AF92BF92CF92DF92EF92FF920F931F939F
:10178000CF93DF93CDB7DEB7C454D1090FB6F89429
:10179000DEBF0FBECDBF69A77AA78BA79CA72DA7D9
:1017A0003EA74FA758ABE9AAFAAA0BAB1CABADA258
:1017B000BEA2CFA2D8A619821A821B821C821D82C9
:1017C0001E821F82188619861A861B861C861D8615
:1017D0001E861F86188A198A1A8A1B8A1C8A1D8AE5
:1017E0001E8A1F8A188E198E1A8E1B8E1C8E1D8EB5
:1017F0001E8E1F8E18A219A21AA21BA21CA2CE0115
:1018000045964C01DE0151965D01FE013D966F014A
:1018100069A57AA58BA59CA50E945608823001F186
:1018200020E030E0A9016DA17EA18FA198A50E94C2
:10183000A82081112FC08FEF9FEF909377048093A2
:101840007604ED88FE880F89188D29893A894B899D
:101850005C896D857E858F8598890E94FA0281E07A
:10186000CC5BDF4F0FB6F894DEBF0FBECDBFDF916C
:10187000CF911F910F91FF90EF90DF90CF90BF908D
:10188000AF909F908F907F906F905F904F903F9020
:101890002F9008958091CF059091D005A091D1050A
:1018A000B091D20589AF9AAFABAFBCAF8091D305F1
:1018B0009091D405A091D505B091D60521968CAF15
:1018C0009DAFAEAFBFAF21978091D7059091D8055E
:1018D000A091D905B091DA0525968CAF9DAFAEAF3A
:1018E000BFAF2597AE014F5D5F4FBE01635E7F4F77
:1018F000CE0149960E94C30A29AD3AAD4BAD5CAD0D
:101900006D857E858F8598890E9488222B013C01F8
:1019100020E030E0A9010E9457245301420118162B
:1019200024F0B7FAB094B7F8B09421962CAD3DAD41
:101930004EAD5FAD219769897A898B899C890E9418
:1019400088226B017C0120E030E0A9010E9457242D
:1019500018160CF406C2F7FAF094F7F8F094A70101
:101960009601C501B4010E94572418160CF001C25B
:1019700020E030E0A901C301B2010E9457241816EB
:101980000CF075C1C301B2010E949B238B01072E8D
:10199000000C880B990B0E94AF204B015C0125962F
:1019A0002CAD3DAD4EAD5FAD25976D897E898F899C
:1019B000988D0E9488226B017C0120E030E0A90113
:1019C0000E945724181624F0F7FAF094F7F8F094D0
:1019D000A7019601C501B4010E94572418162CF0E6
:1019E000C701B6010E949B238B0184E010161106EB
:1019F0000CF036CF0D33110514F00CE310E0898D97
:101A00009A8DAB8DBC8D8DAB9EABAFABB8AF9C014F
:101A1000AD0169A57AA58BA59CA50E9488222B0102
:101A20003C012D8D3E8D4F8D58A16DA57EA58FA5B6
:101A300098A90E9488224B015C0129A13AA14BA1DF
:101A40005CA169A97AA98BA99CA90E9488226B0133
:101A50007C01A3019201C301B2010E940E212B015E
:101A60003C01A5019401C501B4010E940E219B0116
:101A7000AC01C301B2010E9489224B015C01A701A4
:101A80009601C701B6010E940E219B01AC01C50160
:101A9000B4010E9489220E9472244B015C0120E063
:101AA00030E048EC52E46DA17EA18FA198A50E9480
:101AB000A82087FDE0C020E030E04AE754E46DA1B3
:101AC0007EA18FA198A50E945724181644F480E0A7
:101AD00090E0AAE7B4E48DA39EA3AFA3B8A7B80192
:101AE000012E000C880B990B0E94AF206B017C012A
:101AF0002DA13EA14FA158A5C501B4010E942923E3
:101B000020E030E04AE754E40E940E21A70196014C
:101B10000E9429230E94A2231B016531710528F12F
:101B200090E080E00E94AD2020E030E040EA51E407
:101B30000E942923A70196010E940E216B017C01BE
:101B400020E030E040E752E40E94A82044E1242E47
:101B5000312C0CE310E087FF08C0C701B6010E94DA
:101B60009B238B0154E1252E312C38010D331105B7
:101B70001CF03CE3632E712C730105E911E029A5EB
:101B80003AA54BA55CA56DA97EA98FA998AD0E9429
:101B900037066D8D7E8D8F8D98A105E812E02DA5FD
:101BA0003EA54FA558A90E94370669A17AA18BA12D
:101BB0009CA105E713E029A93AA94BA95CA90E94B9
:101BC0003706E5E9F1E0FEA7EDA785E892E09AA7E0
:101BD00089A71EA30DA3512C412C461457040CF0C9
:101BE00078C0EDA1FEA1E080F18002811381A9A55A
:101BF000BAA52D913D914D915C91EDA5FEA5608119
:101C0000718182819381DE0119964D01FE01359625
:101C10005F0118976D010E945608813089F589810E
:101C20009A81AB81BC81EDA5FEA581939193A1938F
:101C3000B193FEA7EDA78D819E81AF81B885E9A5FF
:101C4000FAA581939193A193B193FAA7E9A7898506
:101C50009A85AB85BC85EDA1FEA181939193A1935B
:101C6000B193FEA3EDA3FFEF4F1A5F0AB6CFC301F6
:101C7000B201905889CE80E090E0A8ECB2E42BCF7E
:101C80002D853E854F855889730105E911E069ADC1
:101C90007AAD8BAD9CAD0E94370629893A894B8974
:101CA0005C8905E812E021966CAD7DAD8EAD9FADEF
:101CB00021970E9437062D893E894F89588D05E767
:101CC00013E025966CAD7DAD8EAD9FAD25970E943E
:101CD0003706C3010197880F991F880F991FFC01D0
:101CE000EB56FE4F4D855E856F8578894083518325
:101CF00062837383FC01EB57FD4F49895A896B89D5
:101D00007C8940835183628373838B589C4F4D89B8
:101D10005E896F89788DDC014D935D936D937C9323
:101D20001397309266042092650470927504609255
:101D3000740410927704109276042FB7F89480916F
:101D40006C0490916D04A0916E04B0916F042FBF4C
:101D50008093670490936804A0936904B0936A0425
:101D60007ECDA5019401C701B6010E94A82087FD80
:101D7000FFCDC701B60108CECF92DF92EF92FF925E
:101D8000CF93DF936C01990FEE08FF08F7FE19C09F
:101D90006DE28CED94E00E942505EC016627772723
:101DA000CB016C197D098E099F094AE00E94100839
:101DB0008C0F9D1FDF91CF91FF90EF90DF90CF9020
:101DC00008954AE0C701B601DF91CF91FF90EF90EF
:101DD000DF90CF900C9410080F931F93CF93DF9355
:101DE0008C01EB01181619065CF480E391E00E9467
:101DF0005408C8010E94BC0E84E391E00E9454087C
:101E000082E391E00E9454084C815D816881798170
:101E10008CED94E00E94850486E391E0DF91CF9100
:101E20001F910F910C940308CF93DF93EC011816C8
:101E300019065CF480E391E00E945408CE010E94F0
:101E4000BC0E84E391E00E94540889E391E00E9473
:101E5000030886E391E0DF91CF910C9403080F9380
:101E60001F93CF93DF938C01EB01181619065CF4D6
:101E700080E391E00E945408C8010E94BC0E84E3F4
:101E800091E00E9454088CE391E00E945408BE0146
:101E900090E080E04AE00E94100886E391E0DF9144
:101EA000CF911F910F910C940308CF92DF92EF9284
:101EB000FF920F931F93CF93DF93EB017B0124E0FD
:101EC000E20EF11C8B016C01C61AD70AC601800F05
:101ED000911F0E94CF21F80181938F01EE15FF051C
:101EE000A9F7CE01DF91CF911F910F91FF90EF9055
:101EF000DF90CF900895CF92DF92EF92FF920F93F1
:101F00001F93CF93DF93CDB7DEB728970FB6F89422
:101F1000DEBF0FBECDBF282F30E08901000F111F9B
:101F2000000F111F833009F04EC08091F60590E03C
:101F30000E948607B0E0A0E09C01AD012256310965
:101F400041095109A4EBB0E00E9404222AE631E0E5
:101F500040E050E00E94E521CA01B9010E94AF2093
:101F6000F801EE53FA4F258D368D478D50A10E9412
:101F700088226B017C0120E030E0A9010E94A820AA
:101F800087FD53C020E030E044E353E4C701B601CD
:101F90000E945724181634F4C12CD12C84E3E82E67
:101FA00083E4F82EC701B60128960FB6F894DEBF79
:101FB0000FBECDBFDF91CF911F910F91FF90EF909A
:101FC000DF90CF9008952E533A4FF90181A990E008
:101FD0000E9486077C011D821E821F82188619823C
:101FE0001A821B821C82BE016B5F7F4FC8018A5B15
:101FF0009F4F0E94550FBE016F5F7F4FC801C29671
:102000000E94550FB701FF0C880B990B0E94AF205F
:1020100029813A814B815C810E940E212D813E8174
:102020004F8158850E9489229BCFC12CD12C7601EB
:10203000B9CFFC0180819181009711F00C94CA25E1
:102040000895EF92FF920F931F93CF93DF93EC01CC
:102050007B01198218821B821A821D821C82FB015D
:1020600001900020E9F731978F01061B170BB8018B
:102070006F5F7F4F90E080E00E9453260097B9F099
:10208000998388831B830A832C813D81232B11F440
:10209000FC0110821D830C83B70188819981DF9137
:1020A000CF911F910F91FF90EF900C94242788817E
:1020B0009981009711F00E94CA25198218821D8209
:1020C0001C821B821A82DF91CF911F910F91FF908A
:1020D000EF9008952F923F924F925F926F927F926E
:1020E0008F929F92AF92BF92CF92DF92EF92FF9228
:1020F0000F931F93CF93DF93CDB7DEB7C057D109AE
:102100000FB6F894DEBF0FBECDBFCB57DF4FC880F0
:10211000D980C558D040C957DF4F68807980C758EB
:10212000D040D301F30110E000E0819148019FEF1E
:10213000891A990A882329F0853209F04801840117
:10214000F4CFF60110820115110571F58D918823E8
:1021500011F08193FBCF1082E1E0F0E0EC0FFD1F66
:10216000E00FF11F1082BE016F5F7F4FC6010E941A
:102170001927C401C059DF4F0FB6F894DEBF0FBE58
:10218000CDBFDF91CF911F910F91FF90EF90DF9026
:10219000CF90BF90AF909F908F907F906F905F9007
:1021A0004F903F902F9008957E01F9E8EF0EF11CBB
:1021B00010E000E0B12CA12C82E3282E312CF30199
:1021C000EA0DFB1D8081882339F2853209F06CC04D
:1021D0008FEFA81AB80AE1E0F0E0EC0FFD1FE00F66
:1021E000F11F1082BE016F5F7F4FC6010E94192749
:1021F0001982F301EA0DFB1D80818636B9F144F4A2
:10220000833609F449C0843671F010E000E063C001
:102210008C36E9F08337C9F787010E5F1F4FF7014E
:10222000608171810FC087010E5F1F4F4AE0BE01C0
:102230006C5C7F4FF701808191810E949A1CBE01E6
:102240006C5C7F4FC6010E9419277801DECF8701A1
:102250000C5F1F4FF70160817181828193812AE0B9
:10226000AE014C5C5F4F0E94A51CE9CF2701F4E052
:102270004F0E511CF70160817181828193818E0123
:1022800009591F4F22E044E00E944C1CB801C601CE
:102290000E9419277201B9CF87010E5F1F4FF70106
:1022A00080818CAB1DAACBCFE1E0F0E0EC0FFD1FED
:1022B000E00FF11F8083C8010196B1010E94002543
:1022C0008C01892B41F41BAABE016F5F7F4FC601B1
:1022D0000E9419271982FFEFAF1ABF0A70CFEF9241
:1022E000FF920F931F93CF93DF93CDB7DEB7E8979D
:1022F0000FB6F894DEBF0FBECDBF672B99F58C01EA
:102300008EE391E09F938F9384E491E09F938F936A
:10231000CE0101967C019F938F930E946A10B701B2
:10232000CE01C3960E942110BE016D5C7F4FC80193
:102330000E94EC0ECE01C3960E9419100F900F90D0
:102340000F900F900F900F9080E0E8960FB6F894E2
:10235000DEBF0FBECDBFDF91CF911F910F91FF90D8
:10236000EF90089585E1F1CF1F920F920FB60F9273
:1023700011242F933F934F935F936F937F938F938A
:102380009F93AF93BF93EF93FF938CED94E00E94E4
:102390000305FF91EF91BF91AF919F918F917F9135
:1023A0006F915F914F913F912F910F900FBE0F90C2
:1023B0001F9018951F920F920FB60F9211242F9312
:1023C0008F939F93EF93FF93E091EC04F091ED04D2
:1023D0008081E091F204F091F30482FD1BC09081B2
:1023E0008091F5048F5F8F732091F604821741F07E
:1023F000E091F504F0E0E452FB4F958F8093F504F3
:10240000FF91EF919F918F912F910F900FBE0F90A1
:102410001F9018958081F4CF1F920F920FB60F92E4
:1024200011242F933F938F939F93AF93BF938091EA
:102430006C0490916D04A0916E04B0916F04309182
:102440006B0423E0230F2D3758F50196A11DB11D14
:1024500020936B0480936C0490936D04A0936E049E
:10246000B0936F048091700490917104A0917204F4
:10247000B09173040196A11DB11D809370049093D7
:102480007104A0937204B0937304BF91AF919F91B4
:102490008F913F912F910F900FBE0F901F90189525
:1024A00026E8230F0296A11DB11DD2CF1F920F92D5
:1024B0000FB60F9211242F933F934F935F936F9317
:1024C0007F938F939F93AF93BF93CF93DF93EF93BC
:1024D000FF9380919401C091C105D0E087FF24C093
:1024E0001092850010928400809194018F5F8093F8
:1024F000940180919401082E000C990B8C179D0774
:1025000024F4809194018C307CF18091840090912E
:102510008500049680349C4908F4F9C080918400B9
:10252000909185000496F5C080919401082E000CCE
:10253000990B8C179D07C4F63091940126E0320365
:10254000F0011124E758FA4F808186FFCDCF3091FA
:1025500094013203F0011124E758FA4F808160E0C2
:102560008F730E94E405C0CF3091940126E03203BE
:10257000F0011124E758FA4F8581882309F48AC0B5
:1025800030919401409194014203F0011124E758E5
:10259000FA4F818192813203F0011124E758FA4FFA
:1025A000438154818417950708F048C040919401F5
:1025B000309194013203F0011124E758FA4F618100
:1025C00072814203D0011124A758BA4F15968C91FD
:1025D000860F972F911D92838183309194014091B2
:1025E00094014203F0011124E758FA4F818192814E
:1025F0003203F0011124E758FA4F438154818417C4
:10260000950708F447C0409194013091940142032A
:10261000F0011124E758FA4F838194813203F001CD
:102620001124E758FA4F9283818330919401320349
:10263000F0011124E758FA4F15822CC04091940103
:10264000309194013203F0011124E758FA4F81814F
:1026500092814203D0011124A758BA4F15963C919C
:10266000831B91099283818330919401409194015D
:102670004203F0011124E758FA4F8181928132031D
:10268000F0011124E758FA4F438154814817590744
:1026900008F0B9CF80918400909185003091940129
:1026A00026E03203F0011124E758FA4F41815281AC
:1026B000840F951F90938900809388003091940136
:1026C0003203F0011124E758FA4F808186FF0CC0D5
:1026D000309194013203F0011124E758FA4F8081C0
:1026E00061E08F730E94E405FF91EF91DF91CF913C
:1026F000BF91AF919F918F917F916F915F914F911A
:102700003F912F910F900FBE0F901F90189580E46E
:102710009CE990938900809388008FEF80939401C7
:10272000E3CF1092DF041092DE0488EE93E0A0E085
:10273000B0E08093E0049093E104A093E204B093AE
:10274000E30482E291E09093DD048093DC0485EC65
:1027500090E09093E9048093E80484EC90E09093F7
:10276000EB048093EA0480EC90E09093ED04809376
:10277000EC0481EC90E09093EF048093EE0482EC03
:1027800090E09093F1048093F00486EC90E09093B5
:10279000F3048093F2041092F5041092F604109260
:1027A000F7041092F804A2ECB5E08FEF96E028EB66
:1027B0003BE0E091C105EC30F0F541E04E0F409375
:1027C000C105EC939E9FF0011124E758FA4F328324
:1027D0002183139645E0AE3CB40759F78FEF809301
:1027E000CE0580E1E6E0F1E0AFECB5E001900D92BE
:1027F0008A95E1F78091160190911701A091180137
:10280000B09119018093EF059093F005A093F10525
:10281000B093F20580911A0190911B01A0911C01C7
:10282000B0911D018093F3059093F405A093F505F5
:10283000B093F60508958C93CCCFCF93DF93CDB7AB
:10284000DEB7C956D1090FB6F894DEBF0FBECDBFB3
:10285000789484B5826084BD84B5816084BD85B57B
:10286000826085BD85B5816085BD80916E00816087
:1028700080936E001092810080918100826080932D
:10288000810080918100816080938100809180002F
:102890008160809380008091B10084608093B1005A
:1028A0008091B00081608093B00080917A00846054
:1028B00080937A0080917A00826080937A00809180
:1028C0007A00816080937A0080917A00806880939A
:1028D0007A001092C100E091EC04F091ED0482E0E6
:1028E0008083E091E804F091E9041082E091EA0429
:1028F000F091EB0480E180831092F404E091F00405
:10290000F091F10486E08083E091EE04F091EF0411
:10291000808180618083E091EE04F091EF048081FA
:1029200088608083E091EE04F091EF0480818068FC
:102930008083E091EE04F091EF0480818F7D8083AD
:1029400086E00E94660489E00E94660485E00E9499
:1029500066045FEDA52E55E0B52E0EE110E019825C
:102960001A821B821C82BE016F5F7F4FC8010E94CA
:10297000550F69817A818B819C819B01AC010E94FA
:10298000B62498012C5F3F4F79018823C1F019824A
:102990001A821B821C82CE0101966C01D6019D9089
:1029A0006D01C8010E94CF21981621F0692DC80140
:1029B0000E94D7210F5F1F4FE016F10679F789813A
:1029C0009A81AB81BC81F50181939193A193B193DD
:1029D0005F0187010E32110511F603E010E00E943D
:1029E00012066B017C014AE0842E912CA12CB12CA3
:1029F0000E9412066C197D098E099F09683E73407A
:102A000081059105A8F3F1E08F1A9108A108B1089A
:102A100028EEC20E23E0D21EE11CF11C81149104A9
:102A2000A104B10429F701501109C9F61092C30598
:102A30001092C4051092C6051092C7051092C905E0
:102A40001092CA0587EE8093CC0589E18093CD056D
:102A500002EC15E09EECC92E95E0D92E780126E017
:102A6000B22E3CE0A32ED8018C918C30C8F5F70132
:102A700095A4892D0E946604D8018C91B89EF0011E
:102A80001124E758FA4F292D2F739081907C922BB7
:102A900090836A2D0E94F4248A9DA001112430E0C5
:102AA00020E0BA01620F731FB69EF001B79EF00DD1
:102AB0001124E758FA4F908196FD08C02F5F3F4FD1
:102AC0002C30310571F790E00E94F107D801EC91AC
:102AD000BE9EF0011124E758FA4F80818064808304
:102AE0000D5F1F4FBFEFEB1AFB0AC016D10609F0AE
:102AF000BACF80E00E947B0F6093CF057093D00522
:102B00008093D1059093D20581E00E947B0F609362
:102B1000D3057093D4058093D5059093D60582E0B4
:102B20000E947B0F6093D7057093D8058093D905D9
:102B30009093DA0583E00E947B0F6093DB0570932E
:102B4000DC058093DD059093DE058FEF9FEF90937A
:102B500077048093760490937504809374041092A4
:102B6000F7051092F8051092F9051092FA051092E7
:102B7000FB051092FC051092FD051092FE0588E7FA
:102B800094E0909300068093FF0580E390E0A0E03E
:102B9000B0E08093010690930206A0930306B093E1
:102BA00004068FEF8093CE05A12CB12CB8ECCB2E70
:102BB000B2E4DB2EE12CF12C06E113E4A80197012D
:102BC00060E070E0CB010E94B00B823011F00E94F7
:102BD000F10688E491E00E94030886E391E00E94F8
:102BE0000308FE0131963F018091F7059091F805A9
:102BF000A091F905B091FA050091FB051091FC0533
:102C00002091FD053091FE0580179107A207B307BB
:102C100009F4D0C5E091FF05F0910006E80FF91F17
:102C20001081BC01CD016F5F7F4F8F4F9F4F20916F
:102C300001063091020640910306509104060E945D
:102C400046226093F7057093F8058093F9059093F9
:102C5000FA058091DA049091DB04009739F001972E
:102C6000F9F01092DB041092DA04BECF133239F07F
:102C7000173429F01D3419F0103509F0B5CF21E0D3
:102C800030E03093DB042093DA04133279F081E0F2
:102C90008093D80481E08093D9041093A804A4CF32
:102CA000E091D904E033E8F6133219F41092D80415
:102CB000F1CF173421F01D3411F0103579F48091E3
:102CC000D8048111E7CF81E08093D8048E0F8093E0
:102CD000D904F0E0E855FB4F108386CFAE2FB0E06B
:102CE000A855BB4F1A3009F060C51C92E8EAF4E021
:102CF00001900020E9F7319734E0E83AF30709F44E
:102D0000B0CFDF018E918D01082E000C990B0E942F
:102D10007720892B09F4B4C5F8011082EDCFB3E216
:102D2000FB1621F02081AA962FAFAA970E946A1C59
:102D30006BAB7CAB8DAB9EAB64E371E090E080E06D
:102D40000E946E1CFC010F5F1F4F309759F1063037
:102D5000110541F1CF0101960115110501F3013073
:102D6000110591F00E946A1CF801EE0FFF1FEE0F93
:102D7000FF1FA3E3B0E0AC0FBD1FEA0FFB1F608392
:102D8000718382839383D8CF33E2F31204C04081EE
:102D9000AA964FAFAA970E946A1C6FAB78AF89AF13
:102DA0009AAFCACF6BA97CA98DA99EA90E949B232B
:102DB0001B01B3E2FB122EC06FA978AD89AD9AADAD
:102DC0000E949B230250110922E030E0AA96EFAD49
:102DD000AA97ED3409F4FEC0E03509F481C3E73465
:102DE00009F03FCF7901EE0CFF1CEE0CFF1C23E332
:102DF00030E02C0F3D1FE20EF31E6115710589F0C6
:102E00006A3C710509F4B8C064E170E0C1010E9438
:102E10002F0F27CF01501109312C212C21E030E058
:102E2000D5CF0430110509F03FC3D7011C96AD90F2
:102E3000BD90CD90DC901F9720E030E0A901C60145
:102E4000B5010E94A82087FF02C01AE02EC3D70157
:102E500018968D919D910D90BC91A02DA1968CAF4F
:102E60009DAFAEAFBFAFA197D70114968D919D9145
:102E70000D90BC91A02DA5968CAF9DAFAEAFBFAF0E
:102E8000A597D7018D919D910D90BC91A02DA996EC
:102E90008CAF9DAFAEAFBFAFA99720E030E048EC5C
:102EA00052E4C601B5010E94A82087FF48C0C601B0
:102EB000B5010E949B239B01AC01AFEFB0E00E94E3
:102EC000042223E630E040E050E00E94E521209318
:102ED000CE054301FE01E55BFF4F5F019E012F5AC6
:102EE0003F4F6901A196ECACFDAC0EAD1FADA197B3
:102EF000A5962CAD3DAD4EAD5FADA597A9966CAD39
:102F00007DAD8EAD9FADA9970E945608823009F421
:102F10009CCFE980FA800B811C812F962CAD3DADB2
:102F20004EAD5FAD2F9765966CAD7DAD8EAD9FAD0F
:102F300065970E94FA02C1010E94140F92CE8FEF92
:102F40008093CE05A196ECACFDAC0EAD1FADA19764
:102F5000A5962CAD3DAD4EAD5FADA597A9966CADD8
:102F60007DAD8EAD9FADA9970E94B00B823009F464
:102F70006CCF0E94F106DFCF0230110509F094C238
:102F8000D7016D917D918D919C910E94A223162F66
:102F9000643008F089C2F701C480D580E680F780EC
:102FA00020E030E044E353E4C701B6010E94572417
:102FB00018160CF479C220E030E0A901C701B6016F
:102FC0000E94A82087FD70C2B701A601812F0E9430
:102FD0006101B1CF220F331F220F331F53E3452E60
:102FE000512C4C0E5D1E420E531E6D3D710509F4B1
:102FF00028C10CF070C06A3C710509F491C06C3DA9
:10300000710509F4ADC0693C710509F0FDCE0130D0
:10301000110509F049C2D2016D917D918D919C916C
:103020000E94A223643008F010CF062F10E0F801B0
:10303000EE53FA4FB5A47801EE0CFF1CC701800FC8
:10304000911FFC01EE53FA4F6F0180818C3008F024
:1030500072CF8B2D0E946604D6018C91B6E08B9FB7
:10306000F0011124E758FA4F2B2D2F739081907C9B
:10307000922B90832CE0622F0E94F424482F50E082
:10308000829FB001112430E020E086E0DB01A20F36
:10309000B31F8A9FF0018B9FF00D1124E758FA4F60
:1030A000908196FD08C02F5F3F4F2C30310571F79E
:1030B000CA010E94F1070E0D1F1DF801EE53FA4FD1
:1030C000E08126E0E29FF0011124E758FA4F808169
:1030D0008064808330CF683E710509F4BAC1603FD7
:1030E000710509F4C8C1673E710509F08DCE013044
:1030F000110509F0D9C120E030E0A901D2016D919C
:103100007D918D919C910E94A82081119CC160E0CD
:1031100086E00E94E40561E085E00E94E4050BCFB3
:103120000130110509F0C0C1D2016D917D918D91E1
:103130009C910E94A223643008F087CE70E0FB01CE
:10314000EE0FFF1FE60FF71FEE53FA4FE081B6E0D8
:10315000EB9FF0011124E758FA4F80818F7BB9CFA4
:103160000330110509F0A0C1F201E084F184028569
:1031700013852481358146815781608171818281E7
:103180009381DE01AF5ABF4F4D01FE01EB5AFF4F55
:103190005F0118966D010E9456086A963FAD6A97C6
:1031A0006B962FAD6B976C969FAD6C976D968FADB0
:1031B0006D97632F722F6C01CB01AD2DBC2DF201E9
:1031C00080839183A283B38366963FAD66976796AB
:1031D0002FAD679768969FAD689769968FAD699791
:1031E00089017C01812F902FAF2DBE2D8483958383
:1031F000A683B7836296BFAD62976396AFAD6397C0
:1032000064969FAD649765968FAD65972B2F3A2F87
:10321000492F582FC901DA0180879187A287B38788
:103220005F934F933F932F93EF92FF920F931F93D0
:10323000CF92DF927F936F932BE431E03F932F93F4
:10324000FDC00330110509F02FC126EE3EE245E630
:1032500052E4D20114966D917D918D919C911797B6
:103260000E9429236B017C010E9424234B015C01F5
:1032700026EE3EE245E652E4F201608571858285E4
:1032800093850E942923A1966CAF7DAF8EAF9FAF2F
:10329000A1970E942423A5966CAF7DAF8EAF9FAF00
:1032A000A59720E030E444E153E4C501B4010E9455
:1032B0000E214B015C0123E333E340E253E4A59686
:1032C0006CAD7DAD8EAD9FADA5970E940E219B018B
:1032D000AC01C501B4010E94892229E23CE549EA1A
:1032E00051E40E94892220E030E048EC51E40E9441
:1032F00089224B015C01C701B6010E9464246B0165
:103300007C01A1966CAD7DAD8EAD9FADA1970E9465
:103310006424A1966CAF7DAF8EAF9FAFA19720E0E4
:1033200030E444E153E4C701B6010E940E216B0171
:103330007C0123E333E340E253E4A1966CAD7DAD21
:103340008EAD9FADA1970E940E219B01AC01C701DC
:10335000B6010E94882226E636EE46ED52E40E942F
:103360008922162F072FA2968FAFA297A6969FAFFE
:10337000A69726EE3EE245E652E4D2016D917D919C
:103380008D919C910E942923A1966CAF7DAF8EAF49
:103390009FAFA1970E9424239B01AC01C501B401FA
:1033A0000E940E21F62EE72ED82EC92EA1966CADC6
:1033B0007DAD8EAD9FADA1970E9464249B01AC01B1
:1033C000C501B4010E940E219B01D701F6014B2FCC
:1033D0005A2F6F2F7E2FF2014083518362837383B4
:1033E000422F532F682F792FD20114964D935D935E
:1033F0006D937C931797D801A296FFADA297A696DE
:10340000EFADA6974B2F5A2F6F2F7E2FF2014087DB
:103410005187628773877F93A2964FADA2974F9390
:103420000F931F939F938F933F932F93CF92DF928E
:10343000EF92FF9287E591E09F938F937F926F9237
:103440000E946A10B6C061E086E00E94E40560E078
:1034500063CE0130110541F520E030E0A901F20111
:1034600060817181828193810E94A82061E0811135
:1034700060E089E052CE02301105B1F4D2016D91C5
:103480007D918D919C910E94A223162FF20164815F
:103490007581868197810E94A223662319F061E0DD
:1034A000812F3BCE60E0FCCF15E180E391E00E94EC
:1034B0005408C1010E94BC0E84E391E00E945408AC
:1034C0008CE391E00E945408612F70E090E080E06E
:1034D0004AE00E94100886E391E00E940308C1CBF5
:1034E0007901EE0CFF1CEE0CFF1C23E330E02C0FE7
:1034F0003D1FE20EF31E6C3C710509F410C10CF087
:103500007FC0693C710509F4DCC00CF069C0683CFF
:10351000710509F079CC012B09F0D7C080E00E9439
:103520007B0FD7016D937D938D939C93139781E0CF
:103530000E947B0FF701648375838683978382E003
:103540000E947B0FD70118966D937D938D939C936A
:103550001B9783E00E947B0F9B01AC01CB01DA013A
:10356000F70184879587A687B7875F934F933F932B
:103570002F9383858F9382858F9381858F93808509
:103580008F9387818F9386818F9385818F93848199
:103590008F9383818F9382818F9381818F93808199
:1035A0008F9383E691E09F938F937F926F920E9417
:1035B0006A10B301CE01855B9F4F0E942110BE01AE
:1035C000655B7F4FC1010E94EC0ECE01855B9F4F72
:1035D0000E9419100FB6F894DEBF0FBECDBF41CBCD
:1035E0006A3C710509F475C06B3C710509F00CCC9F
:1035F000B801C1010E946F11882309F432CB66C063
:10360000673E710509F4A9C00CF044C06D3C71051A
:1036100009F48AC06C3D710509F0F6CB012B09F065
:1036200054C0570138E0A30EB11C670144E0C40E3A
:10363000D11C0FEC15E0912C892D0E947B0FD80135
:103640006D937D938D939D938D019394B4E09B1224
:10365000F3CFA501B601C7010E94C30AF701838514
:103660008F9382858F9381858F9380858F938781B8
:103670008F9386818F9385818F9384818F938381AC
:103680008F9382818F9381818F9380818F9327E5A0
:1036900031E0D4CD683E710509F46CC0613F71051D
:1036A00009F0B2CB0130110581F4D7016D917D9104
:1036B0008D919C910E94A223CB010E9486079F932B
:1036C0006AC083E791E0012B41F085E1682F70E04B
:1036D0009DCB012BD1F789E791E09F938F9384E4F1
:1036E00091E09F938F937F926F920E946A10B30133
:1036F000CE01855B9F4F0E942110BE01655B7F4F0D
:10370000C1010E94EC0ECE01855B9F4F0E941910F3
:103710000F900F900F900F900F900F90A2CAB801CA
:10372000C1010E946F1168CF6DE771E0012B69F64E
:10373000C3010E942427B301CE01855B9F4F0E94E5
:103740002110BE01655B7F4FC1010E94EC0ECE01CE
:10375000855B9F4F0E94191084CA012B09F0B5CFD9
:1037600086E00E94BB0569E871E0019709F76CE803
:1037700071E0DECF012B09F0A8CF89E00E94BB05E4
:10378000019779F084E190E00E94860789359240A4
:1037900054F081E01F928F93EFE8F1E0FF93EF93F5
:1037A000A2CF80E0F7CF82E0F5CFEF5FE093D904BE
:1037B0001C931ACA8CED94E00E94E304892B09F44F
:1037C00052C08CED94E00E94C1048C01019691F3EB
:1037D000C090FB05D090FC05E090FD05F090FE0543
:1037E000C701B6016F5F7F4F8F4F9F4F209101063A
:1037F0003091020640910306509104060E94462231
:103800008090F7059090F805A090F905B090FA0522
:10381000681579058A059B0569F2E091FF05F0912D
:103820000006EC0DFD1D00836091FB057091FC0509
:103830008091FD059091FE056F5F7F4F8F4F9F4FE9
:103840002091010630910206409103065091040632
:103850000E9446226093FB057093FC058093FD0552
:103860009093FE05A7CF80E090E0892B09F4BCC9B6
:103870000E94EF04882309F4B4C90E940000B1C972
:10388000F090A80464E371E088EA94E00E946E1C62
:10389000FC0110E000E059CAEF920F931F93CF9301
:1038A000DF93E80134E047FD34E1042E000C550BB2
:1038B00057FF03C0519541955109E32E022F242F44
:1038C000AE010E94F01CCE01DF91CF911F910F91AC
:1038D000EF900895662777270C944F1E45E056E039
:1038E0000E94731C0895FA01A191B081009719F408
:1038F0001097E1F0CD01DC01CD010D90002011F415
:10390000C00113C0FB012191222319F02015D9F722
:10391000F3CFFB012191201519F41E92119606C0D8
:103920002223C1F70D900020A1F7D001FA01A19345
:10393000B0830895BB274A3031F4992322F4BDE2C5
:10394000909581959F4F0C94D71CBB272A3051F43A
:10395000992342F4BDE290958095709561957F4FD3
:103960008F4F9F4F0C94B51CBB27FA01A62F6217EF
:10397000710581059105330B30FB66F0AA27660FB0
:10398000771F881F991FAA1FA21710F0A21B63950B
:103990003850A9F7A05DAA3308F0A95DA19336F7C6
:1039A000B111B1931082CA010C949820BB27FB017E
:1039B0005527AA27880F991FAA1FA41710F0A41B28
:1039C00083955051B9F7A05DAA3308F0A95DA19382
:1039D000009779F7B111B1931192CB010C94982013
:1039E000A9E0B0E0E6EFFCE10C9415226A01F22EAA
:1039F000B02E102FFBE3AF2EA01608F41BE31F5FC1
:103A0000012F27E0AE014F5F5F4F0E949F1FBC0157
:103A10008981982F9970913009F43FC09BE2E1FCB5
:103A200004C09E2D9170E0FC3AC05E2D5071E82FCD
:103A3000E87083FF46C084E0911101C083E0EF2D60
:103A4000E81B8F1508F0E0E0D6018E2F20E2552309
:103A500051F1992329F0D6019C93C60101966C017E
:103A600096012D5F3F4FE2FE24C08EE4D6018C9379
:103A700091E411969C93119712968C93D9018E2FF5
:103A800090E281111BC0E20FF32FF11D10828EEF27
:103A90009FEF2996ECE00C9431229DE2C6CF90E294
:103AA000C4CF2D9381508111FCCFCE0ED11CE0E00C
:103AB000D0CF8EE6D6018C9391E6DBCF9D938150DB
:103AC000E0CF482F447082FF3DC084E0911101C0D7
:103AD00083E08F1510F4EF2DE81BD6018E2F20E226
:103AE000552309F1992329F0D6019C93C60101962B
:103AF0006C0196012D5F3F4FE2FE1BC089E4D601A9
:103B00008C938EE411968C93119786E412968C9385
:103B1000D9018E2F90E2882309F4B5CF9D9381506F
:103B2000FACF2D9381508111FCCFCE0ED11CE0E055
:103B3000D9CF89E6D6018C938EE611968C93119796
:103B400086E6E4CF9B0177FF02C030E020E0A1E0F1
:103B5000B0E0911102C0B0E0A0E0F9013196AE0FE3
:103B6000BF1F8B2C912CBB2009F461C05401EFEFD7
:103B7000AE1ABE0AAA0DBB1DFA161B0619F014F0E8
:103B80004F2D4A1B511188C0E3FC59C07601A42F68
:103B9000B0E2A1114FC0C40ED11C992309F45BC03F
:103BA00040E0D6011196F60190836D01552309F48A
:103BB00048C0012F060F9A81582F507184FF03C00F
:103BC000913309F4015010160CF047C0093008F089
:103BD00008E0EEE2FE2E5B01A01AB1088501919487
:103BE000819491082F3F320729F4D601FC92F60107
:103BF00031966F016217730794F1021713077CF572
:103C0000DB01A21BB30BAA24A394B12CAC0EBD1EE6
:103C1000AA0DBB1D11968C9121503109D601119628
:103C200028153905F4F0F60180836D01DBCFB12C46
:103C3000A12CA0CFF701B1937F01A150AACF911180
:103C4000B0CFD601942F50E302C05D9391509111F3
:103C5000FCCFC40ED11C40E0ACCF01E0BACF80E372
:103C6000DBCF6217730731F4963388F4953311F480
:103C7000552369F0F6018083FD01842F90E28111C4
:103C800008C0A40FB11D1C9290E080E002CF81E338
:103C9000F1CF91938150F3CF911183CF8ACFB0E0D0
:103CA000A0E0E5E5FEE10C9415225C017B016115C5
:103CB000710519F0DB018D939C9385010F5F1F4FF8
:103CC000F501D0818D2F90E00E9477206C01892B27
:103CD000B9F5DD32B9F50F5F1F4FD5011196DC91B3
:103CE000C1E05801F1E0AF1AB10843E050E064EEE2
:103CF00070E0C5010E948020892B69F5680182E08F
:103D0000C80ED11C45E050E06FED70E0C6010E9486
:103D10008020892B21F4680197E0C90ED11CE114A1
:103D2000F10419F0D701CD92DC9260E070E080E8F8
:103D30009FEFC111FFC060E070E080E89FE7FAC02C
:103D40005801BBCFDB3229F485010E5F1F4FF5010F
:103D5000D181C0E0C6CF43E050E06CED70E0C5011A
:103D60000E948020892BE9F0F80110E000E020E0BB
:103D700030E0A9015F01B0ED8B2E8D0E89E0881532
:103D8000C8F19C2E689491F88C2F8870C2FF16C0E1
:103D9000811102C00F5F1F4F3196D501DC91C92DF3
:103DA000E9CFE114F10429F00E5F1F4FF7011183F1
:103DB000008360E070E080EC9FE7BCC0882311F0D6
:103DC00001501109A5E0B0E00E9404229B01AC0162
:103DD000220F331F441F551F280D311D411D511D3A
:103DE000283999E93907490799E15907A8F2C660C6
:103DF0009C2ED2CFAEEF8A1206C0C3FD3CC09C2ED3
:103E0000689493F8C9CFDF7DD534A9F580818D32D0
:103E100039F4C061DF011296818162E070E006C072
:103E2000DF018B32C1F3119661E070E080535D01D8
:103E3000A61AB70A8A30F8F4E0E8CE16ECE0DE06FF
:103E40005CF4B601660F771F660F771FC60ED71E8C
:103E5000CC0CDD1CC80ED11C5D01FFEFAF1ABF0AF0
:103E60008C9180538A30A8F1C4FF03C0D194C194CF
:103E7000D1080C0D1D1DC1FF09C0E114F10431F082
:103E800081E0A81AB108D701AD92BC92CA01B9016C
:103E90000E94AD20C370C33009F490584B015C01FF
:103EA00020E030E0A9010E94A820882309F440C046
:103EB000C3E1D1E017FF05C0119501951109CBEFC2
:103EC000D0E06E01B8E1CB1AD10880E2E82EF12CE7
:103ED0000FC0D501B1CFFE01259135914591549187
:103EE0000E191F09C501B4010E940E214B015C018E
:103EF000D501C4010E151F0574F72497F594E794B6
:103F0000CC16DD06A9F78A2F880F8B2F881F8F3FCD
:103F100049F020E030E0A901C501B4010E94A820C9
:103F2000811106C082E290E0909308068093070614
:103F3000C501B401CDB7DEB7ECE00C9431222830D6
:103F400008F027E03327DA01990F311D87FD9160D2
:103F500000966105710539F432602E5F3D9330E3C0
:103F60002A95E1F708959F3F30F08038710561058B
:103F700009F03C5F3C5F3D93913008F08068911DF3
:103F8000DF93CF931F930F93FF92EF92192F987F98
:103F90009695E92F96959695E90FFF27EF58FE4FD6
:103FA00099273327EE24FF24A701E7010590089401
:103FB000079428F4360FE71EF81E491F511D660F9F
:103FC000771F881F991F0694A1F70590079428F47E
:103FD000E70EF81E491F561FC11D770F881F991F36
:103FE000661F0694A1F70590079428F4F80E491F60
:103FF000561FC71FD11D880F991F661F771F069474
:10400000A1F70590079420F4490F561FC71FD81F2A
:10401000990F661F771F881F0694A9F78491109542
:10402000177041F0D695C79557954795F794E79443
:104030001A95C1F7E7E1F1E0689415901591359173
:104040006591959105907FE27395E118F10A430B14
:10405000560BC90BD009C0F7E10CF11E431F561FC8
:10406000C91FD01D7EF4703311F48A95E6CFE89411
:10407000015030F0080F0AF40027021708F4202F2F
:104080002395022F7A3328F079E37D932A95E9F777
:1040900010C07D932A9589F6069497956795379574
:1040A00017951794E118F10A430B560BC90BD00969
:1040B00098F023957E9173957A3308F070E37C93A2
:1040C0002013B8F77E9170617D9330F0839571E392
:1040D0007D9370E32A95E1F71124EF90FF900F9103
:1040E0001F91CF91DF91992787FD909508959111A8
:1040F0000C947B21803219F089508550C8F70895BF
:10410000FB01DC014150504088F08D9181341CF05E
:104110008B350CF4805E659161341CF06B350CF4CA
:10412000605E861B611171F3990B0895881BFCCFAB
:10413000DC01FC01672F71917723E1F7329704C00E
:104140007C916D9370836291AE17BF07C8F3089599
:104150000E94EA2008F481E00895E89409C097FBE2
:104160003EF490958095709561957F4F8F4F9F4F4E
:104170009923A9F0F92F96E9BB279395F695879592
:1041800077956795B795F111F8CFFAF4BB0F11F455
:1041900060FF1BC06F5F7F4F8F4F9F4F16C08823FC
:1041A00011F096E911C0772321F09EE8872F762F32
:1041B00005C0662371F096E8862F70E060E02AF073
:1041C0009A95660F771F881FDAF7880F969587955F
:1041D00097F90895990F0008550FAA0BE0E8FEEF34
:1041E00016161706E807F907C0F012161306E407BB
:1041F000F50798F0621B730B840B950B39F40A26B4
:1042000061F0232B242B252B21F408950A2609F491
:10421000A140A6958FEF811D811D08950E94212147
:104220000C9495210E94872138F00E948E2120F065
:10423000952311F00C947E210C94842111240C946C
:10424000C9210E94A62170F3959FC1F3950F50E0FC
:10425000551F629FF001729FBB27F00DB11D639F38
:10426000AA27F00DB11DAA1F649F6627B00DA11DDE
:10427000661F829F2227B00DA11D621F739FB00D84
:10428000A11D621F839FA00D611D221F749F3327F4
:10429000A00D611D231F849F600D211D822F762F8D
:1042A0006A2F11249F5750409AF0F1F088234AF06A
:1042B000EE0FFF1FBB1F661F771F881F91505040D6
:1042C000A9F79E3F510580F00C947E210C94C921E2
:1042D0005F3FE4F3983ED4F3869577956795B7955D
:1042E000F795E7959F5FC1F7FE2B880F911D969577
:1042F000879597F9089599278827089597F99F67D3
:1043000080E870E060E008959FEF80EC089500245D
:104310000A941616170618060906089500240A942A
:1043200012161306140605060895092E0394000CB0
:1043300011F4882352F0BB0F40F4BF2B11F460FF3F
:1043400004C06F5F7F4F8F4F9F4F089557FD905868
:10435000440F551F59F05F3F71F04795880F97FB49
:10436000991F61F09F3F79F0879508951216130603
:104370001406551FF2CF4695F1DF08C01616170632
:104380001806991FF1CF8695710561050894089567
:10439000E894BB2766277727CB0197F90895F99909
:1043A000FECF92BD81BDF89A992780B50895262F3A
:1043B000F999FECF1FBA92BD81BD20BD0FB6F8940A
:1043C000FA9AF99A0FBE01960895052E97FB1EF4EE
:1043D00000940E94FC2157FD07D00E94462207FC52
:1043E00003D04EF40C94FC215095409530952195C6
:1043F0003F4F4F4F5F4F0895909580957095619511
:104400007F4F8F4F9F4F08950E946822A59F900D68
:10441000B49F900DA49F800D911D112408952F929B
:104420003F924F925F926F927F928F929F92AF9244
:10443000BF92CF92DF92EF92FF920F931F93CF9391
:10444000DF93CDB7DEB7CA1BDB0B0FB6F894DEBF28
:104450000FBECDBF09942A88398848885F846E844E
:104460007D848C849B84AA84B984C884DF80EE8098
:10447000FD800C811B81AA81B981CE0FD11D0FB6A1
:10448000F894DEBF0FBECDBFED010895A1E21A2E54
:10449000AA1BBB1BFD010DC0AA1FBB1FEE1FFF1FE8
:1044A000A217B307E407F50720F0A21BB30BE40B38
:1044B000F50B661F771F881F991F1A9469F760957F
:1044C0007095809590959B01AC01BD01CF01089539
:1044D000A29FB001B39FC001A39F700D811D112445
:1044E000911DB29F700D811D1124911D08959F9300
:1044F0009F770E94D1230F90002042F49058A2EAA7
:104500002AED3FE049E450E40E94A0220C9495215A
:104510005058BB27AA270E94A0220C9495210E94E4
:10452000872138F00E948E2120F039F49F3F19F442
:1045300026F40C9484210EF4E095E7FB0C947E2184
:10454000E92F0E94A62158F3BA1762077307840760
:10455000950720F079F4A6F50C94C8210EF4E095A7
:104560000B2EBA2FA02D0B01B90190010C01CA012D
:10457000A0011124FF27591B99F0593F50F4503ED8
:1045800068F11A16F040A22F232F342F4427585FCA
:10459000F3CF469537952795A795F0405395C9F7E2
:1045A0007EF41F16BA0B620B730B840BBAF091509A
:1045B000A1F0FF0FBB1F661F771F881FC2F70EC039
:1045C000BA0F621F731F841F48F48795779567950C
:1045D000B795F7959E3F08F0B0CF9395880F08F0F8
:1045E0009927EE0F979587950895DF93DD27B92FCB
:1045F000BF7740E85FE31616170648075B0718F415
:10460000D92F0E945C249F938F937F936F930E9476
:10461000B224E8E6F0E00E94F1230E9495212F9158
:104620003F914F915F910E942121DD2351F09058DD
:10463000A2EA2AED3FE049EC5FE3D0785D270E94D3
:10464000A022DF910C9495210E941A24E3950C94EA
:1046500043240E943D230C9495210E948E2158F002
:104660000E94872140F029F45F3F29F00C947E21BD
:1046700051110C94C9210C9484210E94A62168F345
:104680009923B1F3552391F3951B550BBB27AA270B
:1046900062177307840738F09F5F5F4F220F331F45
:1046A000441FAA1FA9F335D00E2E3AF0E0E832D00D
:1046B00091505040E695001CCAF72BD0FE2F29D010
:1046C000660F771F881FBB1F261737074807AB07E2
:1046D000B0E809F0BB0B802DBF01FF2793585F4F57
:1046E0003AF09E3F510578F00C947E210C94C9213C
:1046F0005F3FE4F3983ED4F3869577956795B79539
:10470000F7959F5FC9F7880F911D9695879597F943
:104710000895E1E0660F771F881FBB1F62177307BC
:104720008407BA0720F0621B730B840BBA0BEE1FD1
:1047300088F7E09508950E94A2236894B1110C9423
:10474000C92108950E94AE2188F09F5798F0B92F93
:104750009927B751B0F0E1F0660F771F881F991FB6
:104760001AF0BA95C9F714C0B13091F00E94C8216F
:10477000B1E008950C94C821672F782F8827B85F7F
:1047800039F0B93FCCF3869577956795B395D9F70E
:104790003EF490958095709561957F4F8F4F9F4F18
:1047A0000895DF93CF931F930F938B01EC01E5E9FD
:1047B000F0E00E94F1230E9495219801AE018B0147
:1047C000EC0160E070E080E89FE30E9488220E9494
:1047D00072249801AE010F911F91CF91DF910C943B
:1047E0002121DF93CF931F930F93FF92EF92DF92DC
:1047F0007B018C01689406C0DA2EEF010E94212112
:10480000FE01E894A5912591359145915591A6F326
:10481000EF010E94A022FE019701A801DA9469F736
:10482000DF90EF90FF900F911F91CF91DF9108954E
:104830000C9484210E94AE21D8F3E894E0E0BB27D9
:104840009F57F0F02AED3FE049EC06C0EE0FBB0F9A
:10485000661F771F881F28F0B23A62077307840724
:1048600028F0B25A620B730B840BE3959A9572F79A
:10487000803830F49A95BB0F661F771F881FD2F7D8
:1048800090480C94BD24EF93E0FF07C0A2EA2AED04
:104890003FE049EC5FEB0E94A0220E9495210F901F
:1048A000039401FC9058EDEBF0E00C94D0240E94AE
:1048B000EA2008F48FEF08959B01AC0160E070E0FE
:1048C00080E89FE30C9429239F930E941A240F9061
:1048D00007FCEE5F0C94432419F416F40C94842125
:1048E0000C94BB240E94AE21B8F39923C9F3B6F30C
:1048F0009F57550B87FF0E94C9240024A0E640EA79
:10490000900180585695979528F4805C660F771F24
:10491000881F20F026173707480730F4621B730BF7
:10492000840B202931294A2BA6951794079420251A
:1049300031254A2758F7660F771F881F20F0261762
:104940003707480730F4620B730B840B200D311DC1
:10495000411DA09581F7B901842F9158880F969534
:10496000879508959B01AC010C940E210E94EA20CA
:10497000880B990B08959F3F31F0915020F4879553
:1049800077956795B795880F911D9695879597F9B7
:10499000089591505040660F771F881FD2F70895F1
:1049A0009F938F937F936F93FF93EF939B01AC0142
:1049B0000E940E21EF91FF910E94F1232F913F91D0
:1049C0004F915F910C940E21DB018F939F930E9476
:1049D0000422BF91AF91A29F800D911DA39F900DC6
:1049E000B29F900D11240895991B79E004C0991F7E
:1049F000961708F0961B881F7A95C9F78095089539
:104A000097FB072E16F4009407D077FD09D00E947B
:104A1000142507FC05D03EF4909581959F4F08958D
:104A2000709561957F4F0895AA1BBB1B51E107C08C
:104A3000AA1FBB1FA617B70710F0A61BB70B881F2E
:104A4000991F5A95A9F780959095BC01CD010895BD
:104A5000EE0FFF1F0590F491E02D09940F931F9323
:104A6000CF93DF938230910510F482E090E0E091E3
:104A70000B06F0910C0630E020E0B0E0A0E03097AB
:104A800099F42115310509F44AC0281B390B24304B
:104A90003105D8F58A819B816115710589F1FB018A
:104AA00093838283FE0111C0408151810281138171
:104AB00048175907E0F04817590799F4109761F023
:104AC00012960C93129713961C933296CF01DF9196
:104AD000CF911F910F91089500930B0610930C0630
:104AE000F4CF2115310551F04217530738F0A901D1
:104AF000DB019A01BD01DF01F801C1CFEF01F9CF60
:104B000090930C0680930B06CDCFFE01E20FF31FAE
:104B1000819391932250310939832883D7CF2091F3
:104B2000090630910A06232B41F4209102013091AD
:104B3000030130930A062093090620910001309169
:104B400001012115310541F42DB73EB74091040113
:104B500050910501241B350BE0910906F0910A06DE
:104B6000E217F307A0F42E1B3F0B2817390778F044
:104B7000AC014E5F5F4F2417350748F04E0F5F1FA3
:104B800050930A0640930906819391939FCFF0E0DA
:104B9000E0E09CCFCF93DF930097E9F0FC013297E0
:104BA00013821282A0910B06B0910C06ED0130E049
:104BB00020E01097A1F420813181820F931F209172
:104BC000090630910A062817390709F061C0F093E9
:104BD0000A06E0930906DF91CF910895EA01CE1706
:104BE000DF07E8F54A815B819E0141155105B1F768
:104BF000E901FB83EA8349915991C40FD51FEC1752
:104C0000FD0761F4808191810296840F951FE9016F
:104C100099838883828193819B838A83F0E0E0E09B
:104C200012968D919C9113970097B9F52D913C9117
:104C30001197CD010296820F931F209109063091A2
:104C40000A062817390739F6309751F510920C06E5
:104C500010920B06B0930A06A0930906BCCFD3832B
:104C6000C28340815181840F951FC817D90761F411
:104C70004E5F5F4F88819981480F591F5183408350
:104C80008A819B81938382832115310509F0B0CFFE
:104C9000F0930C06E0930B069ECFFD01DC01C0CF24
:104CA00013821282D7CFB0E0A0E0E9E5F6E20C94DF
:104CB00011228C01009751F4CB010E942E258C010A
:104CC000C801CDB7DEB7E0E10C942D22FC01E60F60
:104CD000F71F9C0122503109E217F30708F49DC029
:104CE000D901CD91DC911197C617D70798F0C5303F
:104CF000D10530F3CE0104978617970708F3C61B3A
:104D0000D70B2297C193D1936D937C93CF010E94CF
:104D1000CA25D6CF5B01AC1ABD0A4C018C0E9D1E74
:104D2000A0910B06B0910C06512C412CF12CE12CDA
:104D3000109731F58091090690910A06881599051A
:104D400009F05CC04616570608F058C08091000173
:104D500090910101009741F48DB79EB740910401F5
:104D600050910501841B950BE817F90708F055C011
:104D7000F0930A06E0930906F90171836083A0CFDE
:104D80008D919C91119712966C90129713967C902E
:104D90001397A815B90559F56C0142E0C40ED11C52
:104DA000CA14DB0420F1AC014A195B09DA0112963E
:104DB000159780F06282738251834083D9016D938D
:104DC0007C93E114F10471F0D7011396FC93EE93F8
:104DD000129776CF22968C0F9D1FF90191838083C5
:104DE000F301EFCFF0930C06E0930B0669CF481662
:104DF000590608F42C017D01D3019ACFCB010E9402
:104E00002E257C01009749F0AE01B8010E941027C1
:104E1000C8010E94CA25870153CF10E000E050CF9F
:104E2000FB01DC0102C001900D9241505040D8F7C7
:104E30000895FB01DC010D900020E9F71197019026
:104E40000D920020E1F70895FB01DC0101900D9225
:0A4E50000020E1F70895F894FFCF69
:104E5A0000000D0680000000B4420000B4420000C9
:104E6A0000000000B4420B0D0C0A0200010300000E
:104E7A00000025058504B2047205E304C104D504C3
:104E8A0024004F4B20000D0A004F4B004500322EE4
:104E9A00322E330056257300403100422566204CDD
:104EAA002566205225660058256620592566205A0F
:104EBA00256600422566204C256620522566204834
:104ECA002566004D6574616C00322E310056313210
:104EDA0033343536373839300056300056310056BB
:044EEA00256400003B
:00000001FF
