:100000000C9437010C945F010C945F010C945F0118
:100010000C945F010C945F010C945F010C945F01E0
:100020000C945F010C945F010C945F010C94240EFE
:100030000C945F010C945F010C945F010C945F01C0
:100040000C94DA0D0C945F010C94A80D0C94820DA5
:100050000C945F010C945F010C945F010C945F01A0
:100060000C945F010C945F01084AD73B3BCE016EB4
:1000700084BCBFFDC12F3D6C74319ABD56833DDAFF
:100080003D00C77F11BED9E4BB4C3E916BAAAABE0E
:10009000000000803F072C7AA5BA6CC590DA3B932C
:1000A00065FC8BBC53F810FD3C5692834DBD879D7B
:1000B0003AB63DCBC9BF5BBE73DA0FC93F05A84C4A
:1000C000CDB2D44EB93836A9020C50B99186880801
:1000D0003CA6AAAA2ABE000000803F004E414E491D
:1000E0004E495459494E46CDCCCC3D0AD7233C17F6
:1000F000B7D13877CC2B329595E6241FB14F0A0043
:100100000020410000C84200401C4620BCBE4CCA32
:100110001B0E5AAEC59D7400407A10F35A00A072AF
:100120004E18090010A5D4E80000E8764817000032
:10013000E40B54020000CA9A3B000000E1F5050000
:100140000080969800000040420F000000A0860149
:10015000000000102700000000E803000000006419
:1001600000000000000A0000000000010000000084
:10017000002C76D888DC674F0823DFC1DFAE59E159
:10018000B1B796E5E3E453C63AE651997696E8E6C8
:10019000C28426EB898C9B62ED407C6FFCEFBC9C9B
:1001A0009F40F2BAA56FA5F490055A2AF75C936BAD
:1001B0006CF9676DC11BFCE0E40D47FEF520E6B568
:1001C00000D0ED902E0300943577050080841E0842
:1001D0000000204E0A000000C80C333333330F9860
:1001E0006E12831141EF8D2114893BE65516CFFE27
:1001F000E6DB18D1844B381BF77C1D901DA4BBE4B3
:1002000024203284725E228100C9F124ECA1E53DF4
:10021000270000000023002600290000000008003D
:1002200002010000030407000000000000000000BD
:10023000000000250028002B0000000000240027FB
:10024000002A00040404040404040402020202025A
:10025000020303030303030102040810204080018A
:100260000204081020010204081020005F0F11246E
:100270001FBECFEFD8E0DEBFCDBF11E0A0E0B1E000
:10028000E0ECF7E402C005900D92A03BB107D9F76E
:1002900026E0A0EBB1E001C01D92A732B207E1F762
:1002A00011E0C7E3D1E004C02197FE010E94D621EE
:1002B000C633D107C9F70E9408100C94DE230C94B2
:1002C0000000CF93DF93CDB7DEB760970FB6F894F9
:1002D000DEBF0FBECDBF92EF980F8E3008F0892F92
:1002E00087708064FE013196BE016F5E7F4FAF0163
:1002F00080937C0090917A00906490937A00909122
:100300007A0096FDFCCF9091780020917900322FF1
:10031000292F219331936E177F0751F780E090E0EA
:10032000E92FF0E09F01280F311D27303105B4F48B
:10033000EE0FFF1FDA01AE0FBF1F2D913C911197F9
:100340003296E40FF51F608171816217730720F404
:100350006D937C93318320839F5FE2CF8F5F8830E2
:10036000F1F68D819E812F813885820F931F29851B
:100370003A85820F931F2B853C85820F931F96959C
:1003800087959695879560960FB6F894DEBF0FBE59
:10039000CDBFDF91CF91089590E0FC01E95AFD4F68
:1003A00024918D5B9D4FFC018491882399F090E00E
:1003B000880F991FFC01E75CFD4FA591B491FC01EA
:1003C000E15DFD4F859194918FB7F894EC91E22B0C
:1003D000EC938FBF0895CF92DF92EF92FF920F932D
:1003E0001F93CF93DF93082F6A017B0120E030E059
:1003F000A901CB01B6010E94741D87FDA4C020E0B5
:1004000030E044E353E4C701B6010E9415211816F9
:100410000CF49DC010E0F801EE0FFF1FEE0FFF1F60
:10042000EC52FA4FC586D686E786F08A258D368D42
:10043000478D50A1C701B6010E94471F0E94592055
:100440009B01E801CC0FDD1F643F41E074070CF015
:100450003EC0FE01E00FF11FEC52FA4F2181ADE7E3
:10046000CA2ED12CC21AD10827FDD394CC0CDD1C86
:10047000CC0CDD1C0D2C000CEE08FF08428121E79E
:1004800032E0241B310947FD3395220F331F220F21
:10049000331F032E000C440B550B2C193D094E093C
:1004A0005F09DB01653B710514F0A4EBB0E0B7FF19
:1004B00002C0B0E0A0E00E94C51E24EB30E040E0A6
:1004C00050E00E949B1E2C0D3D1D4E1D5F1DC00F58
:1004D000D11FCC52DA4FE881EC3060F589814DE7CD
:1004E00050E0481B510987FD5395440F551F440F99
:1004F000551F241735077CF08A8141E752E0481BDD
:10050000510987FD5395440F551F440F551F24175C
:1005100035070CF4A90142505109440F551F8FB7FC
:10052000F89496E0E99FF0011124E557FA4F5283C1
:1005300041838FBFDF91CF911F910F91FF90EF907B
:10054000DF90CF900895C12CD12C760163CFC12CC0
:10055000D12C54E3E52E53E4F52E5CCF8F929F927D
:10056000AF92BF92CF92DF92EF92FF920F931F93C1
:1005700049015A016701AB01BC0180E00E94EB0117
:10058000B501A40181E00E94EB01B801A60182E05F
:100590001F910F91FF90EF90DF90CF90BF90AF90A1
:1005A0009F908F900C94EB012F923F924F925F920D
:1005B0006F927F928F929F92AF92BF92CF92DF9273
:1005C000EF92FF921F93CF93DF93CDB7DEB72897BB
:1005D0000FB6F894DEBF0FBECDBF9E838D837887A4
:1005E0006F831A01DC018D909D90AD90BC90A501A8
:1005F0009401C501B4010E947421811188C0AF81AA
:10060000B8858D919D910D90BC91A02D89839A8381
:10061000AB83BC839C01AD01CD01B9010E94742163
:10062000811175C0F101C080D180E280F380A70103
:100630009601C701B6010E947421811168C0209102
:10064000F5053091F6054091F7055091F80569815F
:100650007A818B819C810E94471F2B013C0120E005
:1006600030E040EA50E40E94741D87FD4EC020E057
:1006700030E040EF52E4C301B2010E941521181688
:100680000CF443C02091F9053091FA054091FB0527
:100690005091FC05C701B6010E94471F2B013C0188
:1006A00020E030E040EA50E40E94741D87FD2DC038
:1006B00020E030E040EF52E4C301B2010E94152176
:1006C00018161CF129813A814B815C8160E070E051
:1006D00084E393E40E94461FA70196010E94461FEF
:1006E0006B017C0120E030E046E153E40E941521DB
:1006F00018165CF020E030E040EF51E4C701B6018D
:100700000E94741D11E087FF03C013E001C012E0D6
:1007100020E030E0A901C501B4010E94741D87FDED
:1007200051C020E030E044E353E4C501B4010E942D
:10073000152118160CF44AC0AD81BE818D929D9290
:10074000AD92BC921397EF81F88580809180A28052
:10075000B38020E030E0A901C501B4010E94741DFE
:1007600087FD3BC020E030E044E353E4C501B40121
:100770000E9415211816ACF1AF81B8858D929D921B
:10078000AD92BC921397F10180809180A280B380DA
:1007900020E030E0A901C501B4010E94741D87FD6D
:1007A00027C020E030E044E353E4C501B4010E94D7
:1007B0001521181604F5812C912C84E3A82E83E4CE
:1007C000B82E19C0812C912C5401B6CF812C912CBC
:1007D00024E3A22E23E4B22EAFCF812C912C54011E
:1007E000CBCF812C912C94E3A92E93E4B92EC4CFC6
:1007F000812C912C5401D1018D929D92AD92BC928D
:100800001397812F28960FB6F894DEBF0FBECDBF89
:10081000DF91CF911F91FF90EF90DF90CF90BF902D
:10082000AF909F908F907F906F905F904F903F9090
:100830002F900895AF92BF92CF92DF92EF92FF92E6
:100840000F931F93CF93DF936C017B018B01040FF8
:10085000151FEB015E01AE18BF08C017D10759F094
:100860006991D601ED91FC910190F081E02DC601D6
:100870000995892B79F7C501DF91CF911F910F91D0
:10088000FF90EF90DF90CF90BF90AF900895FC0164
:10089000538D448D252F30E0842F90E0821B930BE5
:1008A000541710F0CF96089501970895FC01918D8B
:1008B000828D981761F0A28DAE0FBF2FB11D5D968E
:1008C0008C91928D9F5F9F73928F90E008958FEF30
:1008D0009FEF0895FC01918D828D981731F0828DE4
:1008E000E80FF11D858D90E008958FEF9FEF08953B
:1008F000FC01918D228D892F90E0805C9F4F821B9F
:1009000091098F73992708958EEE94E00E947804E0
:1009100021E0892B09F420E0822F089580E090E007
:10092000892B29F00E94840481110C940000089501
:10093000FC01A48DA80FB92FB11DA35ABF4F2C9154
:10094000848D90E001968F739927848FA689B7894B
:100950002C93A089B1898C91837080648C93938D42
:10096000848D981306C00288F389E02D80818F7DE5
:1009700080830895EF92FF920F931F93CF93DF939D
:10098000EC0181E0888F9B8D8C8D98131AC0E889CB
:10099000F989808185FF15C09FB7F894EE89FF899A
:1009A0006083E889F98980818370806480839FBF38
:1009B00081E090E0DF91CF911F910F91FF90EF9038
:1009C0000895F62E0B8D10E00F5F1F4F0F73112748
:1009D000E02E8C8D8E110CC00FB607FCFACFE88983
:1009E000F989808185FFF5CFCE010E949804F1CF6F
:1009F000EB8DEC0FFD2FF11DE35AFF4FF0829FB7F7
:100A0000F8940B8FEA89FB8980818062CFCFCF93E6
:100A1000DF93EC01888D8823B9F0AA89BB89E88926
:100A2000F9898C9185FD03C0808186FD0DC00FB6CC
:100A300007FCF7CF8C9185FFF2CF808185FFEDCF4A
:100A4000CE010E949804E9CFDF91CF9108958330C1
:100A500081F028F4813099F08230A9F00895873030
:100A6000A9F08830C9F08430B1F4809180008F7D86
:100A700003C0809180008F7780938000089584B5B3
:100A80008F7784BD089584B58F7DFBCF8091B000B2
:100A90008F778093B00008958091B0008F7DF9CF5B
:100AA000CF93DF93282F30E0F901E55EFD4F84916D
:100AB000F901E95AFD4FD491F901ED5BFD4FC49165
:100AC000CC23A1F081110E942705EC2FF0E0EE0F5E
:100AD000FF1FEF5EFD4FA591B491EC91ED2381E0F6
:100AE00090E009F480E0DF91CF91089580E090E0FC
:100AF000FACF1F93CF93DF93282F30E0F901E55E03
:100B0000FD4F8491F901E95AFD4FD491F901ED5B54
:100B1000FD4FC491CC23A9F0162F81110E94270507
:100B2000EC2FF0E0EE0FFF1FE15DFD4FA591B491BA
:100B30008FB7F894EC91111108C0D095DE23DC93A7
:100B40008FBFDF91CF911F910895DE2BF8CF892BB6
:100B500079F41092800082E08093810010928500E9
:100B600010928400B19A80916F00826080936F0030
:100B700008956F927F92AF92BF92CF92DF92EF92E1
:100B8000FF920F931F93CF93DF93CC24CA94DC2C56
:100B9000809188049091890497FD50C0209186042B
:100BA00030918704821793070CF048C08FB7F894F0
:100BB00040911706509118066091190670911A0617
:100BC0008FBFA0908804B0908904E501CC0FDD1F91
:100BD000CC0FDD1F8E0100571C4FCE0180569D4F5C
:100BE0003C01C055DE4FA801BC01CE010E94D402D9
:100BF000823081F0F801E080F18002811381F301FD
:100C00002081318142815381688179818A819B81F0
:100C10000E94AE02FFEFAF1ABF0AB0928904A09201
:100C200088042091860430918704A216B3060CF440
:100C3000AFCFD0928904C0928804AACFDF91CF9120
:100C40001F910F91FF90EF90DF90CF90BF90AF90EA
:100C50007F906F9008958F929F92AF92BF92CF92A4
:100C6000DF92EF92FF921F93CF93DF93182FC82F3D
:100C7000D0E0833009F04EC08091080690E00E94D9
:100C80006101B0E0A0E09C01AD01225631094109AB
:100C90005109A4EBB0E00E94BA1E2AE631E040E020
:100CA00050E00E949B1ECA01B9010E947B1DCC0F1F
:100CB000DD1FCC0FDD1FCC52DA4F2D8D3E8D4F8DB9
:100CC00058A10E94461F6B017C0120E030E0A90181
:100CD0000E94741D87FD7EC020E030E044E353E4B1
:100CE000C701B6010E941521181634F4C12CD12C6D
:100CF00084E3E82E83E4F82EC701B601DF91CF919B
:100D00001F91FF90EF90DF90CF90BF90AF909F909A
:100D10008F900895FE01EC52FA4F81A990E00E9455
:100D20006101113009F445C0A0F11230A1F077ED56
:100D3000872E73EA972E70EFA72E7EE3B72EE4E19D
:100D4000CE2EEEEADE2EEAE2EE2EE2ECFE2E13309E
:100D500089F00E94BE23F3E38F2E982CF3EBAF2E85
:100D6000FEE3BF2EADECCA2EACECDA2EACEEEA2ED2
:100D7000A1ECFA2EBC01990F880B990B0E947B1DE8
:100D8000A50194010E94DA1DA70196010E94471F48
:100D90008ECF53E3852E982C53EBA52E5EE3B52E14
:100DA0006AE9C62E69E9D62E63EFE62E61ECF62ECF
:100DB000E1CF3BE7832E34E1932E3EEAA32E3EE3C0
:100DC000B32E43ECC42E45EFD42E42EEE42E41EC7C
:100DD000F42ED0CFC12CD12C76018ECFFC01019006
:100DE0000020E9F73197AF01481B590BBC018EEE8B
:100DF00094E00C941A048F929F92AF92BF920F933B
:100E00001F93CF93DF93CDB7DEB7A1970FB6F894BA
:100E1000DEBF0FBECDBF19A2423008F44AE08E01FA
:100E20000F5D1F4F842E912CB12CA12CA501940194
:100E30000E94041FE62FB901CA01EA30F4F4E05D14
:100E4000D801EE938D01232B242B252B79F790E0ED
:100E500080E0109719F0CD010E94EE06A1960FB622
:100E6000F894DEBF0FBECDBFDF91CF911F910F91E0
:100E7000BF90AF909F908F900895E95CE1CF0C9464
:100E8000EE062F923F924F925F926F927F928F92D7
:100E90009F92AF92BF92CF92DF92EF92FF920F9309
:100EA0001F93CF93DF93CDB7DEB72B970FB6F89490
:100EB000DEBF0FBECDBF2B013C0129833A834B839C
:100EC0005C83ED82FE820F8318878601BA86A9862D
:100ED000140188A18B8720E030EC4CE455ECC30171
:100EE0000E94741D87FDBAC120E030EC4CE455E44B
:100EF000C301B2010E94152118160CF4B7C120E0FD
:100F000030EC4CE455EC69817A818B819C810E94A4
:100F1000741D87FDB3C120E030EC4CE455E46981D9
:100F20007A818B819C810E94152118160CF4AFC127
:100F300020E030EC4CE455EC6D817E818F8198850A
:100F40000E94741D87FDA8C120E030EC4CE455E4FC
:100F50006D817E818F8198850E94152118160CF471
:100F6000A4C120E030E040E251E46D817E818F81B8
:100F700098850E94DA1D0E945920072E000C880BCC
:100F8000990B0E947B1D20E030E040E251E40E947A
:100F9000E71F4B015C0120E030E042E853E40E948F
:100FA000152118160CF4CDC120E030E040EF52ECD2
:100FB000C501B4010E94741D87FDC3C120E030E06B
:100FC00040E251E469817A818B819C810E94DA1D23
:100FD0000E945920072E000C880B990B0E947B1D44
:100FE00020E030E040E251E40E94E71F6B017C0109
:100FF00026E636EE46ED52E4C501B4010E94461FD6
:1010000020E030E444E153E40E94E71F4B015C011F
:101010009B85911109C020E030E0A901C701B6010C
:101020000E94741D87FD8DC120E030E040E251E454
:10103000C301B2010E94DA1D0E945920072E000C44
:10104000880B990B0E947B1D20E030E040E251E4C8
:101050000E94E71F2B013C0120E030E0A9010E9423
:10106000741D811127C180E090E0A4EBB2E4F80187
:1010700080839183A283B383D8018D919D910D903C
:10108000BC91A02D89839A83AB83BC8320E030E0A0
:1010900044EB52E4BC01CD010E94741D882309F485
:1010A00049C126EE3EE245E652E469817A818B81B0
:1010B0009C810E94E71F0E94E21F9B01AC01C301BB
:1010C000B2010E94E71F29E23CE549EA51E40E948F
:1010D000461F20E030E048EC51E40E94461F20E02B
:1010E00030E444E153E40E94E71F6B017C01AC0152
:1010F0009B01C501B4010E94E71F0E94B31F26EEA9
:101100003EE245E652E40E94DA1D2B013C01A501B6
:101110009401C501B4010E94DA1D4B015C01A701D5
:101120009601C701B6010E94DA1D9B01AC01C50101
:10113000B4010E94471F0E9430216B017C01AC0169
:101140009B010E94DA1D4B015C0123E937E745E969
:101150005FE30E94471F20E030E040E85FE30E9429
:10116000461F69837A838B839C8325E531E54AE0BA
:1011700050E4C701B6010E94DA1D9B01AC016981F0
:101180007A818B819C810E94E71F0E94351F26EE89
:101190003EE245E652E40E94DA1DF101608371836C
:1011A0008283938320E030E040E85FE3C501B4012F
:1011B0000E94471F23E937E745E95FE30E94461F86
:1011C0004B015C01A7019601C701B6010E94471FB0
:1011D0009B01AC01C501B4010E94E71F0E94351FAD
:1011E00026EE3EE245E652E40E94DA1DA30192019A
:1011F0000E94471FA985BA856D937D938D939C931B
:101200001397A3019201F101608171818281938121
:101210000E94461FD1016D937D938D939C931397EC
:10122000A10169857A85C8012B960FB6F894DEBFB7
:101230000FBECDBFDF91CF911F910F91FF90EF9027
:10124000DF90CF90BF90AF909F908F907F906F90E6
:101250005F904F903F902F900C94D402412C90ECD3
:10126000592E9CE4692E95EC792E49CE412C80ECC8
:10127000582E8CE4682E85E4782E41CE80E090ECE8
:10128000ACE4B5EC89839A83AB83BC8351CE80E018
:1012900090ECACE4B5E4F6CF80E090ECACE4B5ECD7
:1012A0008D839E83AF83B8875CCE80E090ECACE406
:1012B000B5E4F6CF20E030E0A901C301B2010E94FD
:1012C00015211816A4F4A3019201C701B6010E94CA
:1012D000E71F0E94B31F26EE3EE245E652E40E945D
:1012E000DA1DD8016D937D938D939C93139720E025
:1012F00030E0A901C301B2010E94741D87FFBCCE7A
:10130000A3019201C701B6010E94E71F0E94B31F0B
:1013100026EE3EE245E652E40E94DA1D20E030E08F
:1013200044E353E40E94471FF80160837183828382
:101330009383A2CE29E23CE549EA51E4C701B60114
:10134000C6CE82E02B960FB6F894DEBF0FBECDBF9F
:10135000DF91CF911F910F91FF90EF90DF90CF9091
:10136000BF90AF909F908F907F906F905F904F90C5
:101370003F902F9008958F929F92AF92BF92CF92FD
:10138000DF92EF92FF920F931F93CF93DF93CDB72E
:10139000DEB72C970FB6F894DEBF0FBECDBF198213
:1013A0001A821B821C821D821E821F821886198649
:1013B0001A861B861C86E1E0EF93FE0139964F01E9
:1013C00034975F0134976F010E9441070F9082307C
:1013D000A9F08FEF9FEF9093890480938804E984AC
:1013E000FA840B851C852D813E814F81588569814A
:1013F0007A818B819C810E94AE0281E02C960FB68F
:10140000F894DEBF0FBECDBFDF91CF911F910F913A
:10141000FF90EF90DF90CF90BF90AF909F908F9014
:1014200008958F929F92AF92BF92CF92DF92EF92E8
:10143000FF920F931F93CF93DF93CDB7DEB72C9717
:101440000FB6F894DEBF0FBECDBF19821A821B8281
:101450001C821D821E821F82188619861A861B8690
:101460001C86E1E0EF93FE0139964F0134975F014E
:1014700034976F010E9441070F90823079F0E98420
:10148000FA840B851C852D813E814F8158856981A9
:101490007A818B819C810E94AE0281E02C960FB6EE
:1014A000F894DEBF0FBECDBFDF91CF911F910F919A
:1014B000FF90EF90DF90CF90BF90AF909F908F9074
:1014C0000895CF92DF92EF92FF92CF93DF936C015A
:1014D000990FEE08FF08F7FE19C06DE28EEE94E05A
:1014E0000E94BA04EC0166277727CB016C197D09AD
:1014F0008E099F094AE00E94FB068C0F9D1FDF9119
:10150000CF91FF90EF90DF90CF9008954AE0C70110
:10151000B601DF91CF91FF90EF90DF90CF900C94C8
:10152000FB060F931F93CF93DF938C01EB011816EB
:1015300019065CF480E491E00E943F07C8010E9414
:10154000610A84E491E00E943F0782E491E00E94F6
:101550003F074C815D81688179818EEE94E00E9425
:101560001A0486E491E0DF91CF911F910F910C94C2
:10157000EE06CF93DF93EC01181619065CF480E4B5
:1015800091E00E943F07CE010E94610A84E491E04D
:101590000E943F0789E491E00E94EE0686E491E014
:1015A000DF91CF910C94EE060F931F93CF93DF93AF
:1015B0008C01EB01181619065CF480E491E00E949E
:1015C0003F07C8010E94610A84E491E00E943F073E
:1015D0008CE491E00E943F07BE0190E080E04AE089
:1015E0000E94FB0686E491E0DF91CF911F910F915D
:1015F0000C94EE062F923F924F925F926F927F92E1
:101600008F929F92AF92BF92CF92DF92EF92FF9212
:101610000F931F93CF93DF9300D000D000D0CDB7AE
:10162000DEB78C011B015E834D8326EE3EE245E66C
:1016300052E46091E5057091E6058091E70590918F
:10164000E8050E94E71F4B015C010E94E21F2B018D
:101650003C0126EE3EE245E652E46091E9057091D8
:10166000EA058091EB059091EC050E94E71F6B0164
:101670007C010E94E21F69837A838B839C8320E034
:1016800030E444E153E4C301B2010E94DA1D2B01AE
:101690003C0123E333E340E253E469817A818B81A7
:1016A0009C810E94DA1D9B01AC01C301B2010E9422
:1016B000471F29E23CE549EA51E40E94471F20E028
:1016C00030E048EC51E40E94471F2B013C01C5016A
:1016D000B4010E9422214B015C01C701B6010E94A6
:1016E00022216B017C0126EE3EE245E652E4609148
:1016F000E1057091E2058091E3059091E4050E9477
:10170000E71F0E94E21F9B01AC01C301B2010E94CE
:10171000DA1DF801608371838283938326EE3EE2B3
:1017200045E652E46091E1057091E2058091E305A0
:101730009091E4050E94E71F0E9422219B01AC01C9
:10174000C301B2010E94DA1DF101608371838283BB
:10175000938320E030E444E153E4C501B4010E94E6
:10176000DA1D4B015C0123E333E340E253E4C7019C
:10177000B6010E94DA1D9B01AC01C501B4010E94B3
:10178000461F26E636EE46ED52E40E94471FED81E5
:10179000FE81608371838283938381E026960FB6F6
:1017A000F894DEBF0FBECDBFDF91CF911F910F9197
:1017B000FF90EF90DF90CF90BF90AF909F908F9071
:1017C0007F906F905F904F903F902F900895FC0115
:1017D00080819181009711F00C9478220895EF9206
:1017E000FF920F931F93CF93DF93EC017B0119823C
:1017F00018821B821A821D821C82FB01019000202C
:10180000E9F731978F01061B170BB8016F5F7F4F08
:1018100090E080E00E9401230097B9F099838883CB
:101820001B830A832C813D81232B11F4FC01108240
:101830001D830C83B70188819981DF91CF911F911E
:101840000F91FF90EF900C94D72388819981009796
:1018500011F00E947822198218821D821C821B823C
:101860001A82DF91CF911F910F91FF90EF90089511
:101870002F923F924F925F926F927F928F929F92A0
:10188000AF92BF92CF92DF92EF92FF920F931F938E
:10189000CF93DF93CDB7DEB7C057D1090FB6F89419
:1018A000DEBF0FBECDBFCB57DF4FC880D980C55834
:1018B000D040C957DF4F68807980C758D040D301E6
:1018C000F30110E000E0819148019FEF891A990A25
:1018D000882329F0853209F048018401F4CFF6010C
:1018E00010820115110571F58D91882311F08193F6
:1018F000FBCF1082E1E0F0E0EC0FFD1FE00FF11FE5
:101900001082BE016F5F7F4FC6010E94CC23C401CD
:10191000C059DF4F0FB6F894DEBF0FBECDBFDF91C9
:10192000CF911F910F91FF90EF90DF90CF90BF90DC
:10193000AF909F908F907F906F905F904F903F906F
:101940002F9008957E01F9E8EF0EF11C10E000E001
:10195000B12CA12C82E3282E312CF301EA0DFB1DC2
:101960008081882339F2853209F06CC08FEFA81A84
:10197000B80AE1E0F0E0EC0FFD1FE00FF11F10826C
:10198000BE016F5F7F4FC6010E94CC231982F30115
:10199000EA0DFB1D80818636B9F144F4833609F4E3
:1019A00049C0843671F010E000E063C08C36E9F085
:1019B0008337C9F787010E5F1F4FF701608171817F
:1019C0000FC087010E5F1F4F4AE0BE016C5C7F4F66
:1019D000F701808191810E946619BE016C5C7F4F86
:1019E000C6010E94CC237801DECF87010C5F1F4F18
:1019F000F70160817181828193812AE0AE014C5CA4
:101A00005F4F0E947119E9CF2701F4E04F0E511C7E
:101A1000F70160817181828193818E0109591F4F85
:101A200022E044E00E941819B801C6010E94CC23AC
:101A30007201B9CF87010E5F1F4FF70180818CAB18
:101A40001DAACBCFE1E0F0E0EC0FFD1FE00FF11F8E
:101A50008083C8010196B1010E94AE218C01892BBF
:101A600041F41BAABE016F5F7F4FC6010E94CC23C9
:101A70001982FFEFAF1ABF0A70CFEF92FF920F9358
:101A80001F93CF93DF93CDB7DEB7E8970FB6F894E7
:101A9000DEBF0FBECDBF672B99F58C018EE491E0C0
:101AA0009F938F9384E591E09F938F93CE0101964E
:101AB0007C019F938F930E94380CB701CE01C3968F
:101AC0000E94EF0BBE016D5C7F4FC8010E94910A1E
:101AD000CE01C3960E94E70B0F900F900F900F90CE
:101AE0000F900F9080E0E8960FB6F894DEBF0FBE1F
:101AF000CDBFDF91CF911F910F91FF90EF9008958F
:101B000085E1F1CF1F920F920FB60F9211242F9300
:101B10003F934F935F936F937F938F939F93AF9375
:101B2000BF93EF93FF938EEE94E00E949804FF9191
:101B3000EF91BF91AF919F918F917F916F915F9145
:101B40004F913F912F910F900FBE0F901F901895BE
:101B50001F920F920FB60F9211242F938F939F9382
:101B6000EF93FF93E091FE04F091FF048081E091F8
:101B70000405F091050582FD1BC090818091070549
:101B80008F5F8F7320910805821741F0E091070560
:101B9000F0E0E251FB4F958F80930705FF91EF91A5
:101BA0009F918F912F910F900FBE0F901F901895BE
:101BB0008081F4CF1F920F920FB60F9211242F93B2
:101BC0003F938F939F93AF93BF938091170690910C
:101BD0001806A0911906B0911A063091850423E0E9
:101BE000230F2D3758F50196A11DB11D20938504B3
:101BF0008093170690931806A0931906B0931A06BF
:101C00008091810490918204A0918304B091840416
:101C10000196A11DB11D8093810490938204A0932D
:101C20008304B0938404BF91AF919F918F913F91B2
:101C30002F910F900FBE0F901F90189526E8230F3D
:101C40000296A11DB11DD2CF1F920F920FB60F9217
:101C500011242F933F934F935F936F937F938F93B1
:101C60009F93AF93BF93CF93DF93EF93FF938091B5
:101C70008004C091D305D0E087FF24C01092850076
:101C800010928400809180048F5F80938004809103
:101C90008004082E000C990B8C179D0724F480916A
:101CA00080048C307CF180918400909185000496B2
:101CB00080349C4908F4F9C080918400909185009B
:101CC0000496F5C080918004082E000C990B8C17A7
:101CD0009D07C4F63091800426E03203F001112400
:101CE000E557FA4F808186FFCDCF309180043203D3
:101CF000F0011124E557FA4F808160E08F730E9454
:101D00007905C0CF3091800426E03203F001112420
:101D1000E557FA4F8581882309F48AC03091800401
:101D2000409180044203F0011124E557FA4F81816C
:101D300092813203F0011124E557FA4F4381548117
:101D40008417950708F048C04091800430918004C2
:101D50003203F0011124E557FA4F61817281420389
:101D6000D0011124A557BA4F15968C91860F972F45
:101D7000911D9283818330918004409180044203BD
:101D8000F0011124E557FA4F818192813203F0016D
:101D90001124E557FA4F438154818417950708F4BD
:101DA00047C040918004309180044203F001112427
:101DB000E557FA4F838194813203F0011124E557EE
:101DC000FA4F92838183309180043203F001112411
:101DD000E557FA4F15822CC0409180043091800461
:101DE0003203F0011124E557FA4F818192814203B9
:101DF000D0011124A557BA4F15963C91831B910928
:101E00009283818330918004409180044203F001E9
:101E10001124E557FA4F818192813203F001112498
:101E2000E557FA4F438154814817590708F0B9CF55
:101E300080918400909185003091800426E03203E7
:101E4000F0011124E557FA4F41815281840F951F0B
:101E50009093890080938800309180043203F001D0
:101E60001124E557FA4F808186FF0CC03091800421
:101E70003203F0011124E557FA4F808161E08F733E
:101E80000E947905FF91EF91DF91CF91BF91AF91C2
:101E90009F918F917F916F915F914F913F912F9182
:101EA0000F900FBE0F901F90189580E49CE99093BF
:101EB0008900809388008FEF80938004E3CF109295
:101EC000F1041092F00488EE93E0A0E0B0E080937B
:101ED000F2049093F304A093F404B093F50482E326
:101EE00091E09093EF048093EE0485EC90E0909362
:101EF000FB048093FA0484EC90E09093FD048093BB
:101F0000FC0480EC90E09093FF048093FE0481EC4D
:101F100090E0909301058093000582EC90E090930F
:101F200003058093020586EC90E09093050580936D
:101F300004051092070510920805109209051092E9
:101F40000A05A4EDB5E08FEF96E028EB3BE0E091C9
:101F5000D305EC3008F05AC041E04E0F4093D30552
:101F6000EC939E9FF0011124E557FA4F32832183B1
:101F7000139645E0A03EB40751F78FEF8093E0053C
:101F800080E1E6E0F1E0A1EEB5E001900D928A95E6
:101F9000E1F780E1E6E1F1E0A1EFB5E001900D921B
:101FA0008A95E1F78091260190912701A09128015F
:101FB000B09129018093010690930206A093030635
:101FC000B093040680912A0190912B01A0912C01DD
:101FD000B0912D018093050690930606A093070605
:101FE000B09308062FB7F8948091170690911806C1
:101FF000A0911906B0911A062FBF80931B069093EB
:102000001C06A0931D06B0931E0608958C93B0CFB6
:10201000CF93DF93CDB7DEB7C556D1090FB6F8948D
:10202000DEBF0FBECDBF789484B5826084BD84B519
:10203000816084BD85B5826085BD85B5816085BDC3
:1020400080916E00816080936E001092810080917B
:102050008100826080938100809181008160809303
:102060008100809180008160809380008091B10028
:1020700084608093B1008091B00081608093B00053
:1020800080917A00846080937A0080917A008260E7
:1020900080937A0080917A00816080937A008091A9
:1020A0007A00806880937A001092C100E091FE046B
:1020B000F091FF0482E08083E091FA04F091FB0448
:1020C0001082E091FC04F091FD0480E18083109285
:1020D0000605E0910205F091030586E08083E0911A
:1020E0000005F0910105808180618083E091000509
:1020F000F0910105808188608083E0910005F09176
:102100000105808180688083E0910005F0910105E0
:1021100080818F7D808386E00E94CC0189E00E94CF
:10212000CC0185E00E94CC011092D5051092D60515
:102130001092D8051092D9051092DB051092DC059B
:1021400087EE8093DE0589E18093DF0504ED15E0DD
:10215000780186E0D82E9CE0C92ED8018C918C3075
:10216000F0F5F701B5A48B2D0E94CC01D8018C911C
:10217000D89EF0011124E557FA4F2B2D2F73908133
:10218000907C922B908311961C92119712961C9220
:102190006C2D0E94A2218C9DA001112430E020E032
:1021A000BA01620F731FD69EF001D79EF00D112465
:1021B000E557FA4F908196FD08C02F5F3F4F2C30B6
:1021C000310571F790E00E94A705D801EC91DE9EE1
:1021D000F0011124E557FA4F8081806480830D5F00
:1021E0001F4FBFEFEB1AFB0AE5E0003E1E0709F0A8
:1021F000B4CF80E00E942B066093E1057093E20566
:102200008093E3059093E40581E00E942B066093A0
:10221000E5057093E6058093E7059093E80582E075
:102220000E942B066093E9057093EA058093EB0505
:102230009093EC0583E00E942B066093ED0570936C
:10224000EE058093EF059093F0058FEF9FEF90934D
:102250008904809388049093870480938604109265
:10226000090610920A0610920B0610920C061092A4
:102270000D0610920E0610920F06109210068AE8B4
:1022800094E0909312068093110680E390E0A0E022
:10229000B0E08093130690931406A0931506B093B4
:1022A0001606E12CF12C06E113E4A801970160E089
:1022B00070E0CB010E94110A88E591E00E94EE06D1
:1022C00086E491E00E94EE068091090690910A064C
:1022D000A0910B06B0910C0600910D0610910E0610
:1022E00020910F063091100680179107A207B307BF
:1022F00009F4FEC6E0911106F0911206E80FF91FED
:102300001081BC01CD016F5F7F4F8F4F9F4F209198
:1023100013063091140640911506509116060E943E
:10232000041F6093090670930A0680930B0690932E
:102330000C068091EC049091ED04009739F0019720
:10234000F9F01092ED041092EC04BECF133239F084
:10235000173429F01D3419F0103509F0B5CF21E0FC
:1023600030E03093ED042093EC04133279F081E0F7
:102370008093EA0481E08093EB041093BA04A4CF25
:10238000E091EB04E033E8F6133219F41092EA041A
:10239000F1CF173421F01D3411F0103579F480910C
:1023A000EA048111E7CF81E08093EA048E0F8093E5
:1023B000EB04F0E0E654FB4F108386CFAE2FB0E085
:1023C000A654BB4F1A3009F08EC61C92EAEBF4E01B
:1023D00001900020E9F7319734E0EA3BF30709F474
:1023E000B0CFDF018E918D01082E000C990B0E9459
:1023F000431D892B09F410C7F8011082EDCFB3E219
:10240000FB1621F02081A2962FAFA2970E943619C9
:102410006BAB7CAB8DAB9EAB64E471E090E080E095
:102420000E943A19FC010F5F1F4F309759F1063097
:10243000110541F1CF0101960115110501F301309C
:10244000110591F00E943619F801EE0FFF1FEE0FF3
:10245000FF1F23E330E02C0F3D1FE20FF31F6083CB
:10246000718382839383D8CF33E2F31204C0A081B7
:10247000A296AFAFA2970E9436196FAB78AF89AF23
:102480009AAFCACF6BA97CA98DA99EA90E94592099
:102490001B0133E2F3122FC06FA978AD89AD9AAD5D
:1024A0000E9459200250110922E030E0A2968FAD1F
:1024B000A2978D3409F411C1803509F41CC4873406
:1024C00009F03FCF5901AA0CBB1CAA0CBB1CA3E30B
:1024D000B0E0AC0FBD1FAA0EBB1E693C710509F42C
:1024E00083C084F4672B09F467C064E170E0C10124
:1024F0000E94D40A26CF01501109312C212C21E051
:1025000030E0D4CF6A3C710509F4B8C06C3C710569
:1025100061F70430110509F0D2C3F501C084D184FC
:10252000E284F38444805580668077808080918047
:10253000A280B380AE014F5F5F4FBE01655B7F4FEE
:10254000CE018F5A9F4F0E94FA0A65962CAD3DAD81
:102550004EAD5FAD6597C501B4010E94471F4B01A9
:102560005C0165968CAE9DAEAEAEBFAE65972F9604
:102570002CAD3DAD4EAD5FAD2F97C301B2010E94B2
:10258000471F2B013C012F964CAE5DAE6EAE7FAE69
:102590002F9729813A814B815C81C701B6010E9446
:1025A000471F69837A838B839C837B018C01A30102
:1025B0009201C501B40157C00430110509F07FC371
:1025C000F501E084F18402851385248135814681FB
:1025D000578160817181828193810E94110A8230CA
:1025E00009F048C01AE06CC30430110509F067C354
:1025F000D501CD90DD90ED90FC90139726EE3EE254
:1026000045E652E414966D917D918D919C911797BA
:102610000E94E71F2B013C010E94E21FA1966CAFB4
:102620007DAF8EAF9FAFA197C301B2010E9422215F
:102630009B01AC01F5014084518462847384C7011D
:10264000B6010E94DA1D4B015C01A1962CAD3DAD97
:102650004EAD5FADA197C701B6010E94DA1D83019F
:102660007201A50194010E94BB09823009F4BACF1E
:102670000E94B905C1010E94B90A63CE023011055A
:1026800009F01DC3D5011496CD90DD90ED90FC901E
:1026900017976D917D918D919C910E946020162FCE
:1026A000643008F00CC320E030E044E353E4C70199
:1026B000B6010E94152118160CF401C320E030E089
:1026C000A901C701B6010E94741D87FDF8C2B701B8
:1026D000A601812F0E94EB01CDCF220F331F220FC5
:1026E000331F53E3652E712C6C0E7D1E620E731E1C
:1026F0006D3D710509F4BBC10CF073C06A3C7105F6
:1027000009F41AC16C3D710509F436C1693C7105C3
:1027100009F0EBCE0130110509F0D1C2D3016D9162
:102720007D918D919C910E946020643008F05ACF79
:10273000062F10E0F801EC52FA4FB5A46801CC0C5A
:10274000DD1CC601800F911FFC01EC52FA4F7F0186
:1027500080818C3008F08ECF8B2D0E94CC01D70168
:102760008C91B6E08B9FF0011124E557FA4F2B2D89
:102770002F739081907C922B9083F70111821282AB
:102780002CE0622F0E94A221482F50E0829FB001CE
:10279000112430E020E086E0DB01A20FB31F8A9F06
:1027A000F0018B9FF00D1124E557FA4F908196FDB3
:1027B00008C02F5F3F4F2C30310571F7CA010E94CE
:1027C000A7050C0D1D1DF801EC52FA4FE08126E023
:1027D000E29FF0011124E557FA4F808180648083E5
:1027E00049CF673E710509F438C20CF082C06E3DD6
:1027F000710509F07ACE0430110509F060C2D301E9
:1028000014968D909D90AD90BC901797CD90DD90D3
:10281000ED90FC90139720E030E040E85FE31C96D9
:102820006D917D918D919C911F970E94741D8111D6
:1028300024C026EE3EE245E652E4C501B4010E9402
:10284000E71F4B015C010E94E21FA70196010E9455
:10285000DA1DF3016083718382839383C501B40120
:102860000E942221A70196010E94DA1DD30114962D
:102870006D937D938D939C931797F301E084F1847E
:10288000028513852481358146815781608171815C
:10289000828193811F92DE0111964D01FE01E55B5D
:1028A000FF4F5F01A05BBF4F6D010E9441070F907A
:1028B000823009F4F0C38A3009F4EDC3813029F481
:1028C00063E771E0C4010E94D723BE016F5F7F4FB1
:1028D000CE01855B9F4F0E94EF0BBE01655B7F4F72
:1028E000C1010E94910ACE01855B9F4F0E94E70BB8
:1028F00028CD683E710509F4CEC1603F710509F02D
:10290000F4CD0230110509F0DAC1F3016081718163
:10291000828193810E946020162FD30114966D91BD
:102920007D918D919C9117970E946020662309F4F8
:10293000C4C161E0812FA6C10130110509F0BFC1FA
:10294000D3016D917D918D919C910E9460206430A6
:1029500008F048CE70E0FB01EE0FFF1FE60FF71FF7
:10296000EC52FA4FE081B6E0EB9FF0011124E557FD
:10297000FA4F80818F7B33CF0330110509F09FC15F
:10298000F301E084F1840285138524813581468139
:1029900057816081718182819381E1E0EF93DE0153
:1029A000AF5ABF4F4D01FE01EB5AFF4F5F01189622
:1029B0006D010E9441076A963FAD6A976B962FADF5
:1029C0006B976C969FAD6C976D968FAD6D97632FDF
:1029D000722F6C01CB01AD2DBC2DF301808391834F
:1029E000A283B38366963FAD669767962FAD6797D0
:1029F00068969FAD689769968FAD699789017C014C
:102A0000812F902FAF2DBE2D84839583A683B7830E
:102A10006296BFAD62976396AFAD639764969FADC4
:102A2000649765968FAD65972B2F3A2F492F582FB6
:102A3000C901DA0180879187A287B3875F934F939B
:102A40003F932F93EF92FF920F931F93CF92DF92BA
:102A50007F936F932BE531E03F932F93A1E0B0E09C
:102A6000AC0FBD1FBF93AF930E94380C7CC20330E4
:102A7000110509F024C126EE3EE245E652E4D301F9
:102A800014966D917D918D919C9117970E94E71FEF
:102A90006B017C010E94E21F4B015C0126EE3EE2CD
:102AA00045E652E4F30160857185828593850E9435
:102AB000E71FA1966CAF7DAF8EAF9FAFA1970E942D
:102AC000E21FA6966CAF7DAF8EAF9FAFA69720E0BA
:102AD00030E444E153E4C501B4010E94DA1D4B0126
:102AE0005C0123E333E340E253E4A6966CAD7DAD95
:102AF0008EAD9FADA6970E94DA1D9B01AC01C5016A
:102B0000B4010E94471F29E23CE549EA51E40E94D2
:102B1000471F20E030E048EC51E40E94471F4B0182
:102B20005C01C701B6010E9422216B017C01A196C4
:102B30006CAD7DAD8EAD9FADA1970E942221A19677
:102B40006CAF7DAF8EAF9FAFA19720E030E444E142
:102B500053E4C701B6010E94DA1D6B017C0123E337
:102B600033E340E253E4A1966CAD7DAD8EAD9FADF5
:102B7000A1970E94DA1D9B01AC01C701B6010E941A
:102B8000461F26E636EE46ED52E40E94471F2B0113
:102B9000182F092F26EE3EE245E652E4D3016D914F
:102BA0007D918D919C910E94E71FA1966CAF7DAFA6
:102BB0008EAF9FAFA1970E94E21F9B01AC01C501A0
:102BC000B4010E94DA1DF62EE72ED82EC92EA1964A
:102BD0006CAD7DAD8EAD9FADA1970E9422219B0172
:102BE000AC01C501B4010E94DA1D9B01D701F601B9
:102BF0004B2F5A2F6F2F7E2FF30140835183628317
:102C00007383422F532F682F792FD30114964D933E
:102C10005D936D937C931797F801442D552D6F2F7D
:102C20007E2FF30140875187628773870F931F932D
:102C30005F924F929F938F933F932F93CF92DF9208
:102C4000EF92FF9227E631E03F932F93A1E0B0E0AF
:102C5000AC0FBD1FBF93AF9307CF0130110579F5BE
:102C600020E030E0A901F3016081718182819381CC
:102C70000E94741D811109C060E086E00E94790500
:102C800061E085E00E947905F5CC61E086E00E9474
:102C9000790560E0F6CF0130110589F420E030E0DD
:102CA000A901D3016D917D918D919C910E94741D1C
:102CB00061E0811160E089E0E5CF60E03BCE15E1A5
:102CC00080E491E00E943F07C1010E94610A84E410
:102CD00091E00E943F078CE491E00E943F07612F42
:102CE00070E090E080E04AE00E94FB0686E491E01C
:102CF0000E94EE0626CB5901AA0CBB1CAA0CBB1CD9
:102D0000E3E3F0E0EC0FFD1FAE0EBF1E6D3C71055E
:102D100009F476C164F56A3C710509F43DC1D4F447
:102D2000683C710509F4CDC0693C710509F0DDCB43
:102D3000012B09F06AC189E891E09F938F9384E5A4
:102D400091E09F938F93A1E0B0E0AC0FBD1FBF93C4
:102D5000AF9332C16B3C710509F44AC16C3C7105FB
:102D600009F0C3CBB801C1010E943D0D45C1673ECA
:102D7000710509F487C10CF07FC06C3D710509F441
:102D800048C16D3D710509F0B0CB012B09F03DC183
:102D900081EEE82E85E0F82E10E0812F0E942B06B0
:102DA000D7016D937D938D939D937D011F5F1430AB
:102DB000A1F7AE014F5F5F4FBE01655B7F4FCE0154
:102DC0008F5A9F4F0E94FA0A8090E1059090E20589
:102DD0000091E3051091E40565966CAD7DAD8EAD77
:102DE0009FAD65972F96CCACDDACEEACFFAC2F97CA
:102DF0009B01AC010E94DA1D2B013C01A701960149
:102E0000C701B6010E94DA1D9B01AC01C301B201EA
:102E10000E94471F0E9430219B01AC01CB01DA01C7
:102E2000F50180839183A283B383B401D02EC12E98
:102E3000CB01A02FB12F84839583A683B783B9815B
:102E4000AA819B818C818D017C01812F902FAF2DD8
:102E5000BE2D80879187A287B387EF92FF920F9351
:102E60001F93CF92DF927F936F935F934F933F9324
:102E70002F932FE931E0E8CE603F710509F414C1CA
:102E8000613F710509F420C1683E710509F02DCB41
:102E9000012B09F0BAC089E00E945005019709F49E
:102EA000FFC084E190E00E946101893592400CF4FA
:102EB000F9C081E01F928F932BEA31E03F932F936B
:102EC00042CF012B09F0A1C080E00E942B06D50162
:102ED0006D937D938D939C93139781E00E942B06B5
:102EE000F501648375838683978382E00E942B06B5
:102EF000D50118966D937D938D939C931B9783E0DA
:102F00000E942B069B01AC01CB01DA01F5018487FD
:102F10009587A687B7875F934F933F932F938385BA
:102F20008F9382858F9381858F9380858F938781FF
:102F30008F9386818F9385818F9384818F938381F3
:102F40008F9382818F9381818F9380818F9389E783
:102F500091E09F938F9321E030E02C0F3D1F3F9332
:102F60002F930E94380CBE016F5F7F4FCE01855BAF
:102F70009F4F0E94EF0BBE01655B7F4FC1010E9416
:102F8000910ACE01855B9F4F0E94E70B0FB6F89424
:102F9000DEBF0FBECDBFD5C9012BB9F58FE891E0DB
:102FA0009F938F9384E591E09F938F93E1E0F0E00E
:102FB000EC0FFD1FFF93EF930E94380CBE016F5F73
:102FC0007F4FCE01855B9F4F0E94EF0BBE01655B7B
:102FD0007F4FC1010E94910ACE01855B9F4F0E94E5
:102FE000E70B0F900F900F900F900F900F90A9C9C3
:102FF000B801C1010E943D0D882309F4A2C906C091
:1030000063E971E0012B09F448C085E1682F70E0A5
:103010006ECA012BD1F76501F8E0CF0ED11C750106
:1030200024E0E20EF11C01EE15E0912C892D0E94A6
:103030002B06D8016D937D938D939D938D01939471
:10304000B4E09B12F3CFA601B701C5010E94FA0AB2
:10305000F50183858F9382858F9381858F938085FA
:103060008F9387818F9386818F9385818F938481BE
:103070008F9383818F9382818F9381818F938081BE
:103080008F93E0CD012B09F686E00E94500563E79F
:1030900071E0019711F066E771E0CE01019613CC63
:1030A00080E008CF82E006CF0130110509F0ADCFF6
:1030B000F50160817181828193810E946020862F59
:1030C0000E9450059F93F7CE0130110509F09DCF66
:1030D000F50160817181828193810E946020CB0122
:1030E0000E946101EFCFEF5FE093EB041C93ECC80B
:1030F0008EEE94E00E947804892B09F452C08EEE83
:1031000094E00E9456048C01019691F3C0900D0644
:10311000D0900E06E0900F06F0901006C701B601A1
:103120006F5F7F4F8F4F9F4F209113063091140692
:1031300040911506509116060E94041F80900906C2
:1031400090900A06A0900B06B0900C0668157905C1
:103150008A059B0569F2E0911106F0911206EC0DCB
:10316000FD1D008360910D0670910E0680910F0683
:10317000909110066F5F7F4F8F4F9F4F20911306E6
:103180003091140640911506509116060E94041FB6
:1031900060930D0670930E0680930F0690931006B1
:1031A000A7CF2FB7F8948091170690911806A09199
:1031B0001906B0911A062FBF40911B0650911C06AC
:1031C00060911D0670911E06841B950BA60BB70B14
:1031D000C297A105B10598F02FB7F8948091170612
:1031E00090911806A0911906B0911A062FBF8093EE
:1031F0001B0690931C06A0931D06B0931E0680E04C
:1032000090E0892B09F460C80E948404882309F4A3
:103210005BC80E94000058C8F090BA0464E471E0F2
:103220008AEB94E00E943A19FC0110E000E0FDC82E
:10323000EF920F931F93CF93DF93E80134E047FDA4
:1032400034E1042E000C550B57FF03C051954195F6
:103250005109E32E022F242FAE010E94BC19CE018A
:10326000DF91CF911F910F91EF90089566277727F7
:103270000C941B1B4FE156E00E943F190895FA0180
:10328000A191B081009719F41097E1F0CD01DC0114
:10329000CD010D90002011F4C00113C0FB0121915C
:1032A000222319F02015D9F7F3CFFB012191201526
:1032B00019F41E92119606C02223C1F70D9000202A
:1032C000A1F7D001FA01A193B0830895BB274A303A
:1032D00031F4992322F4BDE2909581959F4F0C948F
:1032E000A319BB272A3051F4992342F4BDE29095EB
:1032F0008095709561957F4F8F4F9F4F0C948119EA
:10330000BB27FA01A62F6217710581059105330BC2
:1033100030FB66F0AA27660F771F881F991FAA1F28
:10332000A21710F0A21B63953850A9F7A05DAA332D
:1033300008F0A95DA19336F7B111B1931082CA01CB
:103340000C94641DBB27FB015527AA27880F991FE2
:10335000AA1FA41710F0A41B83955051B9F7A05DC4
:10336000AA3308F0A95DA193009779F7B111B19341
:103370001192CB010C94641DA9E0B0E0E2ECF9E1FC
:103380000C94D31E6A01F22EB02E102FFBE3AF2E49
:10339000A01608F41BE31F5F012F27E0AE014F5F6B
:1033A0005F4F0E946B1CBC018981982F99709130EE
:1033B00009F43FC09BE2E1FC04C09E2D9170E0FC4B
:1033C0003AC05E2D5071E82FE87083FF46C084E05C
:1033D000911101C083E0EF2DE81B8F1508F0E0E0AC
:1033E000D6018E2F20E2552351F1992329F0D601E1
:1033F0009C93C60101966C0196012D5F3F4FE2FE42
:1034000024C08EE4D6018C9391E411969C9311977D
:1034100012968C93D9018E2F90E281111BC0E20F7E
:10342000F32FF11D10828EEF9FEF2996ECE00C94A4
:10343000EF1E9DE2C6CF90E2C4CF2D938150811143
:10344000FCCFCE0ED11CE0E0D0CF8EE6D6018C931F
:1034500091E6DBCF9D938150E0CF482F447082FFEF
:103460003DC084E0911101C083E08F1510F4EF2D71
:10347000E81BD6018E2F20E2552309F1992329F06C
:10348000D6019C93C60101966C0196012D5F3F4FBA
:10349000E2FE1BC089E4D6018C938EE411968C93D6
:1034A000119786E412968C93D9018E2F90E288238F
:1034B00009F4B5CF9D938150FACF2D93815081119E
:1034C000FCCFCE0ED11CE0E0D9CF89E6D6018C939B
:1034D0008EE611968C93119786E6E4CF9B0177FFD9
:1034E00002C030E020E0A1E0B0E0911102C0B0E005
:1034F000A0E0F9013196AE0FBF1F8B2C912CBB20A1
:1035000009F461C05401EFEFAE1ABE0AAA0DBB1D4B
:10351000FA161B0619F014F04F2D4A1B511188C0E2
:10352000E3FC59C07601A42FB0E2A1114FC0C40E34
:10353000D11C992309F45BC040E0D6011196F60135
:1035400090836D01552309F448C0012F060F9A811D
:10355000582F507184FF03C0913309F401501016A5
:103560000CF047C0093008F008E0EEE2FE2E5B01E7
:10357000A01AB10885019194819491082F3F3207D8
:1035800029F4D601FC92F60131966F016217730798
:1035900094F1021713077CF5DB01A21BB30BAA24DD
:1035A000A394B12CAC0EBD1EAA0DBB1D11968C911F
:1035B00021503109D601119628153905F4F0F6018C
:1035C00080836D01DBCFB12CA12CA0CFF701B1938B
:1035D0007F01A150AACF9111B0CFD601942F50E313
:1035E00002C05D9391509111FCCFC40ED11C40E0FC
:1035F000ACCF01E0BACF80E3DBCF6217730731F4C1
:10360000963388F4953311F4552369F0F6018083DD
:10361000FD01842F90E2811108C0A40FB11D1C92FE
:1036200090E080E002CF81E3F1CF91938150F3CF1E
:10363000911183CF8ACFB0E0A0E0E1E2FBE10C94EE
:10364000D31E5C017B016115710519F0DB018D93BF
:103650009C9385010F5F1F4FF501D0818D2F90E066
:103660000E94431D6C01892BB9F5DD32B9F50F5F5E
:103670001F4FD5011196DC91C1E05801F1E0AF1A5E
:10368000B10843E050E064EE70E0C5010E944C1DBB
:10369000892B69F5680182E0C80ED11C45E050E035
:1036A0006FED70E0C6010E944C1D892B21F468016A
:1036B00097E0C90ED11CE114F10419F0D701CD92A5
:1036C000DC9260E070E080E89FEFC111FFC060E035
:1036D00070E080E89FE7FAC05801BBCFDB3229F4E5
:1036E00085010E5F1F4FF501D181C0E0C6CF43E0D9
:1036F00050E06CED70E0C5010E944C1D892BE9F093
:10370000F80110E000E020E030E0A9015F01B0ED39
:103710008B2E8D0E89E08815C8F19C2E689491F847
:103720008C2F8870C2FF16C0811102C00F5F1F4F1F
:103730003196D501DC91C92DE9CFE114F10429F0CE
:103740000E5F1F4FF7011183008360E070E080EC93
:103750009FE7BCC0882311F001501109A5E0B0E03B
:103760000E94BA1E9B01AC01220F331F441F551F3C
:10377000280D311D411D511D283999E93907490787
:1037800099E15907A8F2C6609C2ED2CFAEEF8A12FB
:1037900006C0C3FD3CC09C2E689493F8C9CFDF7D62
:1037A000D534A9F580818D3239F4C061DF011296DC
:1037B000818162E070E006C0DF018B32C1F31196B7
:1037C00061E070E080535D01A61AB70A8A30F8F410
:1037D000E0E8CE16ECE0DE065CF4B601660F771F7B
:1037E000660F771FC60ED71ECC0CDD1CC80ED11C71
:1037F0005D01FFEFAF1ABF0A8C9180538A30A8F1A8
:10380000C4FF03C0D194C194D1080C0D1D1DC1FF8C
:1038100009C0E114F10431F081E0A81AB108D70120
:10382000AD92BC92CA01B9010E94791DC370C33028
:1038300009F490584B015C0120E030E0A9010E949E
:10384000741D882309F440C0C3E1D1E017FF05C00F
:10385000119501951109CBEFD0E06E01B8E1CB1ABB
:10386000D10880E2E82EF12C0FC0D501B1CFFE01C6
:1038700025913591459154910E191F09C501B40147
:103880000E94DA1D4B015C01D501C4010E151F0514
:1038900074F72497F594E794CC16DD06A9F78A2FE0
:1038A000880F8B2F881F8F3F49F020E030E0A9015F
:1038B000C501B4010E94741D811106C082E290E02E
:1038C0009093220680932106C501B401CDB7DEB7DF
:1038D000ECE00C94EF1E283008F027E03327DA01E3
:1038E000990F311D87FD916000966105710539F4CE
:1038F00032602E5F3D9330E32A95E1F708959F3FB4
:1039000030F080387105610509F03C5F3C5F3D9304
:10391000913008F08068911DDF93CF931F930F9330
:10392000FF92EF92192F987F9695E92F969596958D
:10393000E90FFF27EF58FE4F99273327EE24FF2486
:10394000A701E70105900894079428F4360FE71EB5
:10395000F81E491F511D660F771F881F991F069477
:10396000A1F70590079428F4E70EF81E491F561F8B
:10397000C11D770F881F991F661F0694A1F7059038
:10398000079428F4F80E491F561FC71FD11D880F32
:10399000991F661F771F0694A1F70590079420F4DE
:1039A000490F561FC71FD81F990F661F771F881F03
:1039B0000694A9F784911095177041F0D695C79594
:1039C00057954795F794E7941A95C1F7E7E1F1E029
:1039D00068941590159135916591959105907FE2C8
:1039E0007395E118F10A430B560BC90BD009C0F7C8
:1039F000E10CF11E431F561FC91FD01D7EF470330A
:103A000011F48A95E6CFE894015030F0080F0AF4DB
:103A10000027021708F4202F2395022F7A3328F06D
:103A200079E37D932A95E9F710C07D932A9589F66D
:103A3000069497956795379517951794E118F10AAD
:103A4000430B560BC90BD00998F023957E917395C3
:103A50007A3308F070E37C932013B8F77E9170619D
:103A60007D9330F0839571E37D9370E32A95E1F7C0
:103A70001124EF90FF900F911F91CF91DF91992723
:103A800087FD9095089591110C94471E803219F08E
:103A900089508550C8F70895FB01DC014150504022
:103AA00088F08D9181341CF08B350CF4805E65912B
:103AB00061341CF06B350CF4605E861B611171F390
:103AC000990B0895881BFCCFDC01FC01672F7191D5
:103AD0007723E1F7329704C07C916D9370836291F4
:103AE000AE17BF07C8F308950E94B61D08F481E021
:103AF0000895E89409C097FB3EF4909580957095E1
:103B000061957F4F8F4F9F4F9923A9F0F92F96E929
:103B1000BB279395F695879577956795B795F1119E
:103B2000F8CFFAF4BB0F11F460FF1BC06F5F7F4F3B
:103B30008F4F9F4F16C0882311F096E911C077234D
:103B400021F09EE8872F762F05C0662371F096E856
:103B5000862F70E060E02AF09A95660F771F881F25
:103B6000DAF7880F9695879597F90895990F0008C9
:103B7000550FAA0BE0E8FEEF16161706E807F9073F
:103B8000C0F012161306E407F50798F0621B730BDA
:103B9000840B950B39F40A2661F0232B242B252B5B
:103BA00021F408950A2609F4A140A6958FEF811DFE
:103BB000811D08950E94ED1D0C94611E0E94531EEC
:103BC00038F00E945A1E20F0952311F00C944A1EE2
:103BD0000C94501E11240C94951E0E94721E70F3BA
:103BE000959FC1F3950F50E0551F629FF001729FA2
:103BF000BB27F00DB11D639FAA27F00DB11DAA1FB1
:103C0000649F6627B00DA11D661F829F2227B00DFD
:103C1000A11D621F739FB00DA11D621F839FA00D88
:103C2000611D221F749F3327A00D611D231F849FD8
:103C3000600D211D822F762F6A2F11249F5750402F
:103C40009AF0F1F088234AF0EE0FFF1FBB1F661FAA
:103C5000771F881F91505040A9F79E3F510580F073
:103C60000C944A1E0C94951E5F3FE4F3983ED4F3E7
:103C7000869577956795B795F795E7959F5FC1F717
:103C8000FE2B880F911D9695879597F90895992792
:103C90008827089597F99F6780E870E060E00895AD
:103CA0009FEF80EC089500240A9416161706180654
:103CB0000906089500240A94121613061406050630
:103CC0000895092E0394000C11F4882352F0BB0FC1
:103CD00040F4BF2B11F460FF04C06F5F7F4F8F4F24
:103CE0009F4F089557FD9058440F551F59F05F3F5F
:103CF00071F04795880F97FB991F61F09F3F79F00E
:103D000087950895121613061406551FF2CF46958F
:103D1000F1DF08C0161617061806991FF1CF869511
:103D20007105610508940895E894BB2766277727F5
:103D3000CB0197F90895052E97FB1EF400940E947D
:103D4000B21E57FD07D00E94041F07FC03D04EF49B
:103D50000C94B21E50954095309521953F4F4F4F92
:103D60005F4F089590958095709561957F4F8F4F27
:103D70009F4F08950E94261FA59F900DB49F900D00
:103D8000A49F800D911D11240895B7FF0C94BA1EB5
:103D90000E94BA1E821B930B08952F923F924F925E
:103DA0005F926F927F928F929F92AF92BF92CF92CB
:103DB000DF92EF92FF920F931F93CF93DF93CDB7D4
:103DC000DEB7CA1BDB0B0FB6F894DEBF0FBECDBF4C
:103DD00009942A88398848885F846E847D848C841D
:103DE0009B84AA84B984C884DF80EE80FD800C8126
:103DF0001B81AA81B981CE0FD11D0FB6F894DEBF09
:103E00000FBECDBFED010895A1E21A2EAA1BBB1B68
:103E1000FD010DC0AA1FBB1FEE1FFF1FA217B30796
:103E2000E407F50720F0A21BB30BE40BF50B661FAC
:103E3000771F881F991F1A9469F760957095809570
:103E400090959B01AC01BD01CF010895A29FB001E7
:103E5000B39FC001A39F700D811D1124911DB29FBE
:103E6000700D811D1124911D08959F939F770E94CD
:103E70008F200F90002042F49058A2EA2AED3FE0F4
:103E800049E450E40E945E1F0C94611E5058BB2709
:103E9000AA270E945E1F0C94611E0E94531E38F0D8
:103EA0000E945A1E20F039F49F3F19F426F40C9416
:103EB000501E0EF4E095E7FB0C944A1EE92F0E9479
:103EC000721E58F3BA17620773078407950720F02C
:103ED00079F4A6F50C94941E0EF4E0950B2EBA2FEF
:103EE000A02D0B01B90190010C01CA01A001112400
:103EF000FF27591B99F0593F50F4503E68F11A16AC
:103F0000F040A22F232F342F4427585FF3CF46953C
:103F100037952795A795F0405395C9F77EF41F165E
:103F2000BA0B620B730B840BBAF09150A1F0FF0F28
:103F3000BB1F661F771F881FC2F70EC0BA0F621F14
:103F4000731F841F48F4879577956795B795F79504
:103F50009E3F08F0B0CF9395880F08F09927EE0F99
:103F6000979587950895DF93DD27B92FBF7740E8B0
:103F70005FE31616170648075B0718F4D92F0E944F
:103F80001A219F938F937F936F930E947021E8E68D
:103F9000F0E00E94AF200E94611E2F913F914F914F
:103FA0005F910E94ED1DDD2351F09058A2EA2AEDA9
:103FB0003FE049EC5FE3D0785D270E945E1FDF9110
:103FC0000C94611E0E94D820E3950C9401210E945C
:103FD000FB1F0C94611E0E945A1E58F00E94531E33
:103FE00040F029F45F3F29F00C944A1E51110C94C3
:103FF000951E0C94501E0E94721E68F39923B1F313
:10400000552391F3951B550BBB27AA2762177307FE
:10401000840738F09F5F5F4F220F331F441FAA1F92
:10402000A9F335D00E2E3AF0E0E832D0915050404E
:10403000E695001CCAF72BD0FE2F29D0660F771FFC
:10404000881FBB1F261737074807AB07B0E809F0E2
:10405000BB0B802DBF01FF2793585F4F3AF09E3F67
:10406000510578F00C944A1E0C94951E5F3FE4F3C2
:10407000983ED4F3869577956795B795F7959F5FAA
:10408000C9F7880F911D9695879597F90895E1E0F6
:10409000660F771F881FBB1F621773078407BA0755
:1040A00020F0621B730B840BBA0BEE1F88F7E095B0
:1040B00008950E9460206894B1110C94951E089593
:1040C0000E947A1E88F09F5798F0B92F9927B75110
:1040D000B0F0E1F0660F771F881F991F1AF0BA95AC
:1040E000C9F714C0B13091F00E94941EB1E0089558
:1040F0000C94941E672F782F8827B85F39F0B93F4A
:10410000CCF3869577956795B395D9F73EF490955E
:104110008095709561957F4F8F4F9F4F0895DF93E6
:10412000CF931F930F938B01EC01E5E9F0E00E9420
:10413000AF200E94611E9801AE018B01EC0160E08E
:1041400070E080E89FE30E94461F0E9430219801A2
:10415000AE010F911F91CF91DF910C94ED1DDF9374
:10416000CF931F930F93FF92EF92DF927B018C010D
:10417000689406C0DA2EEF010E94ED1DFE01E8945E
:10418000A5912591359145915591A6F3EF010E9496
:104190005E1FFE019701A801DA9469F7DF90EF90A6
:1041A000FF900F911F91CF91DF9108950C94501EB5
:1041B0000E947A1ED8F3E894E0E0BB279F57F0F006
:1041C0002AED3FE049EC06C0EE0FBB0F661F771FDC
:1041D000881F28F0B23A62077307840728F0B25AA2
:1041E000620B730B840BE3959A9572F7803830F469
:1041F0009A95BB0F661F771F881FD2F790480C94C3
:104200007B21EF93E0FF07C0A2EA2AED3FE049ECF3
:104210005FEB0E945E1F0E94611E0F90039401FCE1
:104220009058EDEBF0E00C948E210E94B61D08F43E
:104230008FEF08959B01AC0160E070E080E89FE3A0
:104240000C94E71F9F930E94D8200F9007FCEE5F0D
:104250000C94012119F416F40C94501E0C9479213D
:104260000E947A1EB8F39923C9F3B6F39F57550BF2
:1042700087FF0E9487210024A0E640EA9001805831
:104280005695979528F4805C660F771F881F20F05D
:1042900026173707480730F4621B730B840B20295D
:1042A00031294A2BA69517940794202531254A27B2
:1042B00058F7660F771F881F20F026173707480723
:1042C00030F4620B730B840B200D311D411DA09542
:1042D00081F7B901842F9158880F96958795089595
:1042E0009B01AC010C94DA1D0E94B61D880B990B42
:1042F00008959F3F31F0915020F487957795679509
:10430000B795880F911D9695879597F908959150C7
:104310005040660F771F881FD2F708959F938F93A1
:104320007F936F93FF93EF939B01AC010E94DA1D83
:10433000EF91FF910E94AF202F913F914F915F919C
:104340000C94DA1D991B79E004C0991F961708F0A8
:10435000961B881F7A95C9F78095089597FB072EBD
:1043600016F4009407D077FD09D00E94C22107FC03
:1043700005D03EF4909581959F4F08957095619575
:104380007F4F0895AA1BBB1B51E107C0AA1FBB1F8B
:10439000A617B70710F0A61BB70B881F991F5A95D1
:1043A000A9F780959095BC01CD010895EE0FFF1FF0
:1043B0000590F491E02D09940F931F93CF93DF9311
:1043C0008230910510F482E090E0E0912506F091B2
:1043D000260630E020E0B0E0A0E0309799F4211507
:1043E000310509F44AC0281B390B24303105D8F5B2
:1043F0008A819B816115710589F1FB019383828319
:10440000FE0111C040815181028113814817590773
:10441000E0F04817590799F4109761F012960C9341
:10442000129713961C933296CF01DF91CF911F9173
:104430000F9108950093250610932606F4CF2115B9
:10444000310551F04217530738F0A901DB019A01F9
:10445000BD01DF01F801C1CFEF01F9CF909326062E
:1044600080932506CDCFFE01E20FF31F8193919338
:104470002250310939832883D7CF209123063091E8
:104480002406232B41F42091020130910301309343
:10449000240620932306209100013091010121156B
:1044A000310541F42DB73EB740910401509105010B
:1044B000241B350BE0912306F0912406E217F30745
:1044C000A0F42E1B3F0B2817390778F0AC014E5F84
:1044D0005F4F2417350748F04E0F5F1F5093240697
:1044E00040932306819391939FCFF0E0E0E09CCF2F
:1044F000CF93DF930097E9F0FC0132971382128289
:10450000A0912506B0912606ED0130E020E010973D
:10451000A1F420813181820F931F209123063091D5
:1045200024062817390709F061C0F0932406E093A8
:104530002306DF91CF910895EA01CE17DF07E8F552
:104540004A815B819E0141155105B1F7E901FB8369
:10455000EA8349915991C40FD51FEC17FD0761F407
:10456000808191810296840F951FE9019983888348
:10457000828193819B838A83F0E0E0E012968D91A3
:104580009C9113970097B9F52D913C911197CD010E
:104590000296820F931F209123063091240628173C
:1045A000390739F6309751F51092260610922506F4
:1045B000B0932406A0932306BCCFD383C28340814B
:1045C0005181840F951FC817D90761F44E5F5F4F63
:1045D00088819981480F591F518340838A819B812B
:1045E000938382832115310509F0B0CFF09326061D
:1045F000E09325069ECFFD01DC01C0CF138212821D
:10460000D7CFB0E0A0E0E7E0F3E20C94CF1E8C013E
:10461000009751F4CB010E94DC218C01C801CDB779
:10462000DEB7E0E10C94EB1EFC01E60FF71F9C01E6
:1046300022503109E217F30708F49DC0D901CD914A
:10464000DC911197C617D70798F0C530D10530F324
:10465000CE0104978617970708F3C61BD70B22973E
:10466000C193D1936D937C93CF010E947822D6CFD2
:104670005B01AC1ABD0A4C018C0E9D1EA091250653
:10468000B0912606512C412CF12CE12C109731F5DC
:1046900080912306909124068815990509F05CC045
:1046A0004616570608F058C080910001909101010C
:1046B000009741F48DB79EB74091040150910501D8
:1046C000841B950BE817F90708F055C0F0932406F2
:1046D000E0932306F90171836083A0CF8D919C91B3
:1046E000119712966C90129713967C901397A815B9
:1046F000B90559F56C0142E0C40ED11CCA14DB04A3
:1047000020F1AC014A195B09DA011296159780F085
:104710006282738251834083D9016D937C93E1144B
:10472000F10471F0D7011396FC93EE93129776CFB4
:1047300022968C0F9D1FF90191838083F301EFCFA7
:10474000F0932606E093250669CF4816590608F42B
:104750002C017D01D3019ACFCB010E94DC217C0189
:10476000009749F0AE01B8010E94C323C8010E941E
:104770007822870153CF10E000E050CF81E090E035
:10478000F8940C94DE23FB01DC0102C001900D9231
:1047900041505040D8F70895FB01DC010D900020F6
:1047A000E9F7119701900D920020E1F70895FB01C0
:1047B000DC0101900D920020E1F70895F894FFCFFD
:1047C0000000270680000000B4420000B442000050
:1047D00000000000B4427B1496C10000204100009C
:1047E000A0C1000000000B0D0C0A02000103000034
:1047F0000000BA041A0447040705780456046A0442
:1048000024004F4B20000D0A004F4B004500322E74
:10481000322E330056257300403100422566204C6D
:104820002566205225660058256620592566205A9F
:10483000256600563100563000422566204C25661C
:104840002052256620482566004D6574616C003253
:104850002E31005631323334353637383930005343
:1048600025662052256620482566005625640000EE
:00000001FF
