:100000000C9437010C945F010C945F010C945F0118
:100010000C945F010C945F010C945F010C945F01E0
:100020000C945F010C945F010C945F010C94A61575
:100030000C945F010C945F010C945F010C945F01C0
:100040000C9441140C945F010C940F140C94E9135C
:100050000C945F010C945F010C945F010C945F01A0
:100060000C948B140C945F01084AD73B3BCE016E75
:1000700084BCBFFDC12F3D6C74319ABD56833DDAFF
:100080003D00C77F11BED9E4BB4C3E916BAAAABE0E
:10009000000000803F072C7AA5BA6CC590DA3B932C
:1000A00065FC8BBC53F810FD3C5692834DBD879D7B
:1000B0003AB63DCBC9BF5BBE73DA0FC93F05A84C4A
:1000C000CDB2D44EB93836A9020C50B99186880801
:1000D0003CA6AAAA2ABE000000803F004E414E491D
:1000E0004E495459494E46CDCCCC3D0AD7233C17F6
:1000F000B7D13877CC2B329595E6241FB14F0A0043
:100100000020410000C84200401C4620BCBE4CCA32
:100110001B0E5AAEC59D7400407A10F35A00A072AF
:100120004E18090010A5D4E80000E8764817000032
:10013000E40B54020000CA9A3B000000E1F5050000
:100140000080969800000040420F000000A0860149
:10015000000000102700000000E803000000006419
:1001600000000000000A0000000000010000000084
:10017000002C76D888DC674F0823DFC1DFAE59E159
:10018000B1B796E5E3E453C63AE651997696E8E6C8
:10019000C28426EB898C9B62ED407C6FFCEFBC9C9B
:1001A0009F40F2BAA56FA5F490055A2AF75C936BAD
:1001B0006CF9676DC11BFCE0E40D47FEF520E6B568
:1001C00000D0ED902E0300943577050080841E0842
:1001D0000000204E0A000000C80C333333330F9860
:1001E0006E12831141EF8D2114893BE65516CFFE27
:1001F000E6DB18D1844B381BF77C1D901DA4BBE4B3
:1002000024203284725E228100C9F124ECA1E53DF4
:10021000270000000023002600290000000008003D
:1002200002010000030407000000000000000000BD
:10023000000000250028002B0000000000240027FB
:10024000002A00040404040404040402020202025A
:10025000020303030303030102040810204080018A
:10026000020408102001020408102000E1161124E5
:100270001FBECFEFD8E0DEBFCDBF11E0A0E0B1E000
:10028000E0E5FCE502C005900D92A43AB107D9F76C
:1002900026E0A4EAB1E001C01D92A639B207E1F759
:1002A00011E0C7E3D1E004C02197FE010E94232C96
:1002B000C633D107C9F70E947B170C94262E0C94E5
:1002C00000003F924F925F926F927F928F929F9227
:1002D000AF92BF92CF92DF92EF92FF920F931F9354
:1002E000CF93DF93C82F6A017B0120E030E0A901A2
:1002F000CB01B6010E94A32787FDC4C020E030E0F7
:1003000044E353E4C701B6010E94522B18160CF4C3
:10031000BDC0D0E0FE01EE0FFF1FEE0FFF1FED5B33
:10032000F94FC586D686E786F08A25A136A147A172
:1003300050A5C701B6010E9484296B017C01309051
:100340004F068E01000F111F20E030E04AEF53E40A
:10035000332009F4ADC00E94A32787FF5EC020E0D0
:1003600030E040E251E4C701B6010E9409282B01A8
:100370003C0120E030E0A9010E94A32787FD8DC049
:1003800020E030E041EE54E4C301B2010E94522B60
:1003900018160CF486C0F801EC0FFD1FED5BF94F49
:1003A00081814DE7842E912C881A910887FD9394C2
:1003B000880C991C880C991C092C000CAA08BB08F5
:1003C000828161E7C62E62E0D62EC81AD10887FD69
:1003D000D394CC0CDD1CCC0CDD1C0D2C000CEE08D9
:1003E000FF08C818D908EA08FB08C301B2010E9437
:1003F000962AA70196010E94DF2B28E037E040E013
:1004000050E00E94E028CA01B901680D791D8A1DDB
:100410009B1D0E94AA276B017C01C00FD11FCD5BE1
:10042000D94FC881CC30E0F420E030E040E851E41E
:10043000C701B6010E9409281FB7F89426E0C29FA1
:10044000E0011124C650DA4F20E030E040E05EE3E6
:100450000E9409280E949D2A7C836B833D821FBFD6
:10046000DF91CF911F910F91FF90EF90DF90CF9090
:10047000BF90AF909F908F907F906F905F904F90C4
:100480003F900895C12CD12C760143CFC12CD12CA3
:10049000D4E3ED2ED3E4FD2E3CCF412C512C320180
:1004A0007ACF412C512CE1EE6E2EE4E47E2E73CFF8
:1004B0000E94A32787FF61C020E030E0A901C701A7
:1004C000B6010E94A32787FD91C020E030E044E3FD
:1004D00053E4C701B6010E94522B181634F4C12C04
:1004E000D12C34E3E32E33E4F32EF801EC0FFD1F9F
:1004F000ED5BF94F8181ADE74A2E512C481A510826
:1005000087FD5394440C551C440C551C052C000CC1
:1005100066087708828191E7892E92E0992E881AE1
:10052000910887FD9394880C991C880C991C092CC0
:10053000000CAA08BB0884189508A608B70820E094
:1005400030E040E251E4C701B6010E9409280E9450
:10055000962AA50194010E94DF2B28E037E040E0B5
:1005600050E00E94E028CA01B901640D751D861D86
:10057000971D0E94AA276B017C01C00FD11FCD5B84
:10058000D94F18811C3008F06BCFC701B6010E940B
:10059000962AAB01E9818DE790E08E1B9109E7FD7A
:1005A0009395880F991F880F991F481759077CF05A
:1005B000EA8181E792E08E1B9109E7FD9395880F10
:1005C000991F880F991F481759070CF4CA01029701
:1005D000880F991F2FB7F89436E0139FF00111246C
:1005E000E650FA4F928381832FBF3ACFC12CD12C92
:1005F00076017BCF8F929F92AF92BF92CF92DF9284
:10060000EF92FF920F931F9349015A016701AB01CB
:10061000BC0180E00E946101B501A40181E00E945B
:100620006101B801A60182E01F910F91FF90EF9048
:10063000DF90CF90BF90AF909F908F900C9461010E
:100640002F923F924F925F926F927F928F929F92E2
:10065000AF92BF92CF92DF92EF92FF921F93CF9310
:10066000DF93CDB7DEB728970FB6F894DEBF0FBE85
:10067000CDBF9E838D8378876F831A01DC018D90B7
:100680009D90AD90BC90A5019401C501B4010E945C
:10069000B12B811188C0AF81B8858D919D910D904E
:1006A000BC91A02D89839A83AB83BC839C01AD014F
:1006B000CD01B9010E94B12B811175C0F101C0803B
:1006C000D180E280F380A7019601C701B6010E94A4
:1006D000B12B811168C020916C0630916D0640915C
:1006E0006E0650916F0669817A818B819C810E9490
:1006F00084292B013C0120E030E040EA50E40E94D4
:10070000A32787FD4EC020E030E040EF52E4C30154
:10071000B2010E94522B18160CF443C020917006AF
:10072000309171064091720650917306C701B6016F
:100730000E9484292B013C0120E030E040EA50E493
:100740000E94A32787FD2DC020E030E040EF52E457
:10075000C301B2010E94522B18161CF129813A8163
:100760004B815C8160E070E084E393E40E94832924
:10077000A70196010E9483296B017C0120E030E0F3
:1007800046E153E40E94522B18165CF020E030E062
:1007900040EF51E4C701B6010E94A32711E087FF93
:1007A00003C013E001C012E020E030E0A901C50160
:1007B000B4010E94A32787FD51C020E030E044E34C
:1007C00053E4C501B4010E94522B18160CF44AC020
:1007D000AD81BE818D929D92AD92BC921397EF81B7
:1007E000F88580809180A280B38020E030E0A9016C
:1007F000C501B4010E94A32787FD3BC020E030E083
:1008000044E353E4C501B4010E94522B1816ACF125
:10081000AF81B8858D929D92AD92BC921397F101F4
:1008200080809180A280B38020E030E0A901C501E2
:10083000B4010E94A32787FD27C020E030E044E3F5
:1008400053E4C501B4010E94522B181604F5812C03
:10085000912C84E3A82E83E4B82E19C0812C912C0E
:100860005401B6CF812C912C24E3A22E23E4B22E86
:10087000AFCF812C912C5401CBCF812C912C94E3C0
:10088000A92E93E4B92EC4CF812C912C5401D1010F
:100890008D929D92AD92BC921397812F28960FB6A0
:1008A000F894DEBF0FBECDBFDF91CF911F91FF90B7
:1008B000EF90DF90CF90BF90AF909F908F907F9000
:1008C0006F905F904F903F902F90089590E0FC01C3
:1008D000E95AFD4F24918D5B9D4FFC018491882343
:1008E00099F090E0880F991FFC01E75CFD4FA591FE
:1008F000B491FC01E15DFD4F859194918FB7F8941F
:10090000EC91E22BEC938FBF0895AF92BF92CF9200
:10091000DF92EF92FF920F931F93CF93DF936C01BF
:100920007B018B01040F151FEB015E01AE18BF08A0
:10093000C017D10759F06991D601ED91FC91019052
:10094000F081E02DC6010995892B79F7C501DF916A
:10095000CF911F910F91FF90EF90DF90CF90BF90BC
:10096000AF900895FC01538D448D252F30E0842FE6
:1009700090E0821B930B541710F0CF9608950197C7
:100980000895FC01918D828D981761F0A28DAE0FB4
:10099000BF2FB11D5D968C91928D9F5F9F73928F3B
:1009A00090E008958FEF9FEF0895FC01918D828D67
:1009B000981731F0828DE80FF11D858D90E0089534
:1009C0008FEF9FEF0895FC01918D228D892F90E08C
:1009D000805C9F4F821B91098F73992708958DE545
:1009E00095E00E94E30421E0892B09F420E0822FA6
:1009F000089580E090E0892B29F00E94EF04811196
:100A00000C9400000895FC01A48DA80FB92FB11D0E
:100A1000A35ABF4F2C91848D90E001968F73992734
:100A2000848FA689B7892C93A089B1898C91837012
:100A300080648C93938D848D981306C00288F3890B
:100A4000E02D80818F7D80830895EF92FF920F9338
:100A50001F93CF93DF93EC0181E0888F9B8D8C8D6A
:100A600098131AC0E889F989808185FF15C09FB75E
:100A7000F894EE89FF896083E889F9898081837021
:100A8000806480839FBF81E090E0DF91CF911F91D0
:100A90000F91FF90EF900895F62E0B8D10E00F5FF1
:100AA0001F4F0F731127E02E8C8D8E110CC00FB6C7
:100AB00007FCFACFE889F989808185FFF5CFCE015F
:100AC0000E940305F1CFEB8DEC0FFD2FF11DE35AD2
:100AD000FF4FF0829FB7F8940B8FEA89FB898081E2
:100AE0008062CFCFCF93DF93EC01888D8823B9F05C
:100AF000AA89BB89E889F9898C9185FD03C0808129
:100B000086FD0DC00FB607FCF7CF8C9185FFF2CFA5
:100B1000808185FFEDCFCE010E940305E9CFDF91F3
:100B2000CF910895833081F028F4813099F082309C
:100B3000A9F008958730A9F08830C9F08430B1F465
:100B4000809180008F7D03C0809180008F7780939B
:100B50008000089584B58F7784BD089584B58F7D16
:100B6000FBCF8091B0008F778093B0000895809183
:100B7000B0008F7DF9CFCF93DF93282F30E0F901BC
:100B8000E55EFD4F8491F901E95AFD4FD491F901D9
:100B9000ED5BFD4FC491CC23A1F081110E94920521
:100BA000EC2FF0E0EE0FFF1FEF5EFD4FA591B4912B
:100BB000EC91ED2381E090E009F480E0DF91CF91AA
:100BC000089580E090E0FACF1F93CF93DF93282F12
:100BD00030E0F901E55EFD4F8491F901E95AFD4FDE
:100BE000D491F901ED5BFD4FC491CC23A9F0162FF0
:100BF00081110E949205EC2FF0E0EE0FFF1FE15DE6
:100C0000FD4FA591B4918FB7F894EC91111108C0E4
:100C1000D095DE23DC938FBFDF91CF911F91089594
:100C2000DE2BF8CF3FB7F8948091F1049091F20455
:100C3000A091F304B091F40426B5A89B05C02F3F02
:100C400019F00196A11DB11D3FBFBA2FA92F982FF2
:100C50008827BC01CD01620F711D811D911D42E0ED
:100C6000660F771F881F991F4A95D1F708958F92B5
:100C70009F92AF92BF92CF92DF92EF92FF924B0181
:100C80005C010E9412066B017C010E9412066C1925
:100C90007D098E099F09683E734081059105A8F37F
:100CA00021E0821A9108A108B10888EEC80E83E0FD
:100CB000D81EE11CF11C81149104A104B10429F790
:100CC000FF90EF90DF90CF90BF90AF909F908F906C
:100CD00008952091A204260F3327331F21323105B6
:100CE000ECF42091C604FC0190E080E0243069F02F
:100CF00082E00895A091A2042191AC014E575B4F70
:100D0000A40FB52FB11D2C930196861798F38091EF
:100D1000A204680F6093A20480E0089581E0089522
:100D200008958FEF9FEF08958FEF9FEF08958091C3
:100D30007B0490E09195819591090895CF93DF937D
:100D4000CB01EA01642F0E946906CE01DF91CF91A9
:100D50000895CF93DF931F92CDB7DEB7698361E02B
:100D6000CE0101960E94690681E090E00F90DF912C
:100D7000CF91089590E080E0089598E087FF07C044
:100D8000449A880F459A45989150C1F70895449820
:100D9000F8CF45984498459A449A0895CF93C7B19F
:100DA0003C98449A459A96B1892F8071459894FF52
:100DB00006C00E94C906C7B981E0CF910895C7B99E
:100DC000FCCF459A449A449845980895EF92FF9233
:100DD0000F931F93CF93DF938C01D62FF42EE52E24
:100DE000C22F3D9A3C9A459A449A0E94E1068D2F63
:100DF0000E94BD060E94CE06882349F0C1E08C2FD8
:100E0000DF91CF911F910F91FF90EF9008958E2D5C
:100E10000E94BD060E94CE068111F0CF8F2D0E9448
:100E2000BD060E94CE068111E9CF0E94E10681E055
:100E30008D0F0E94BD060E94CE068111DFCFF80102
:100E4000CC23B9F027B13C9880E098E0459A880F10
:100E50003499816045989150C9F727B98193C15061
:100E600041F087B13C9A4498459A459887B9449A8D
:100E7000E7CF0E94C906C3CFEF92FF920F931F9353
:100E8000CF93DF93F82ED92FE62E142F052FC22FE4
:100E90003D9A3C9A459A449A0E94E1068E2D0E9402
:100EA000BD060E94CE06882349F0C1E08C2FDF9159
:100EB000CF911F910F91FF90EF900895802F0E9486
:100EC000BD060E94CE068111F0CF812F0E94BD0683
:100ED0000E94CE068111E9CF0F2D1D2FCC2389F062
:100EE000F80181918F010E94BD06C1500E94CE067B
:100EF0008111DBCF65E070E080E090E00E94370672
:100F0000EDCF0E94C906D2CF2F923F924F925F92AF
:100F10006F927F928F929F92AF92BF92CF92DF9209
:100F2000EF92FF920F931F93CF93DF93CDB7DEB76E
:100F30002B970FB6F894DEBF0FBECDBF29013A0143
:100F40001801870120E030E040E251E40E94242AA9
:100F50004B015C0120E030E040E251E4C301B2010A
:100F60000E94242AA50194010E94832969837A831F
:100F70008B839C8321E02B87C701FF0CAA0BBB0B43
:100F80008F839887A987BA879B85692E712C061550
:100F900017050CF45AC0692F70E090E080E00E94C1
:100FA000A8276B017C016F81788589859A850E94CD
:100FB000AA279B01AC01C701B6010E94242A6B013C
:100FC0007C01A1E06A1AA0EC7A0A660C771C660C18
:100FD000771CF101E60DF71DFE83ED83A701960155
:100FE000C701B6010E94092829813A814B815C81A1
:100FF0000E9409282B013C0120E030E040E050EC49
:10100000C701B6010E94092820E030E040E450E426
:101010000E9484299B01AC01C301B2010E940928EE
:10102000A50194010E94842920E030E040E251E4CF
:101030000E940928AD81BE816D937D938D939C9311
:101040001397BB85BF5FBB879FCF2B960FB6F894D6
:10105000DEBF0FBECDBFDF91CF911F910F91FF90EB
:10106000EF90DF90CF90BF90AF909F908F907F9048
:101070006F905F904F903F902F900895CF93DF93A4
:10108000CDB7DEB760970FB6F894DEBF0FBECDBF09
:1010900092EF980F8E3008F0892F87708064FE01E0
:1010A0003196BE016F5E7F4FAF0180937C009091BF
:1010B0007A00906490937A0090917A0096FDFCCF2C
:1010C0009091780020917900322F292F219331932C
:1010D0006E177F0751F780E090E0E92FF0E09F0165
:1010E000280F311D27303105B4F4EE0FFF1FDA0150
:1010F000AE0FBF1F2D913C9111973296E40FF51F53
:10110000608171816217730720F46D937C93318342
:1011100020839F5FE2CF8F5F8830F1F68D819E81C3
:101120002F813885820F931F29853A85820F931F5F
:101130002B853C85820F931F96958795969587956D
:1011400060960FB6F894DEBF0FBECDBFDF91CF9192
:101150000895892B79F41092800082E080938100B9
:101160001092850010928400B19A80916F00826085
:1011700080936F000895FC0101900020E9F73197FA
:10118000AF01481B590BBC018DE595E00C9485041B
:101190008F929F92AF92BF920F931F93CF93DF9343
:1011A000CDB7DEB7A1970FB6F894DEBF0FBECDBFA7
:1011B00019A2423008F44AE08E010F5D1F4F842EC1
:1011C000912CB12CA12CA50194010E944129E62F5C
:1011D000B901CA01EA30F4F4E05DD801EE938D0163
:1011E000232B242B252B79F790E080E0109719F022
:1011F000CD010E94BB08A1960FB6F894DEBF0FBECA
:10120000CDBFDF91CF911F910F91BF90AF909F9075
:101210008F900895E95CE1CF0C94BB082F923F9228
:101220004F925F926F927F928F929F92AF92BF92F6
:10123000CF92DF92EF92FF920F931F93CF93DF93A2
:10124000CDB7DEB72B970FB6F894DEBF0FBECDBF7C
:101250002B013C0129833A834B835C83ED82FE8220
:101260000F8318878601BA86A986140188A18B8707
:1012700020E030EC4CE455ECC3010E94A32787FD2D
:10128000BAC120E030EC4CE455E4C301B2010E9445
:10129000522B18160CF4B7C120E030EC4CE455EC9E
:1012A00069817A818B819C810E94A32787FDB3C1CC
:1012B00020E030EC4CE455E469817A818B819C819B
:1012C0000E94522B18160CF4AFC120E030EC4CE415
:1012D00055EC6D817E818F8198850E94A32787FDC3
:1012E000A8C120E030EC4CE455E46D817E818F8113
:1012F00098850E94522B18160CF4A4C120E030E00F
:1013000040E251E46D817E818F8198850E94092899
:101310000E94962A072E000C880B990B0E94AA2780
:1013200020E030E040E251E40E94242A4B015C01BD
:1013300020E030E042E853E40E94522B18160CF4EF
:10134000CDC120E030E040EF52ECC501B4010E9475
:10135000A32787FDC3C120E030E040E251E469816A
:101360007A818B819C810E9409280E94962A072EEF
:10137000000C880B990B0E94AA2720E030E040E285
:1013800051E40E94242A6B017C0126E636EE46EDEC
:1013900052E4C501B4010E94832920E030E444E115
:1013A00053E40E94242A4B015C019B85911109C0E2
:1013B00020E030E0A901C701B6010E94A32787FD04
:1013C0008DC120E030E040E251E4C301B2010E944F
:1013D00009280E94962A072E000C880B990B0E9460
:1013E000AA2720E030E040E251E40E94242A2B01A9
:1013F0003C0120E030E0A9010E94A327811127C110
:1014000080E090E0A4EBB2E4F80180839183A283B2
:10141000B383D8018D919D910D90BC91A02D8983AE
:101420009A83AB83BC8320E030E044EB52E4BC0100
:10143000CD010E94A327882309F449C126EE3EE28C
:1014400045E652E469817A818B819C810E94242A3D
:101450000E941F2A9B01AC01C301B2010E94242AF1
:1014600029E23CE549EA51E40E94832920E030E08A
:1014700048EC51E40E94832920E030E444E153E445
:101480000E94242A6B017C01AC019B01C501B401BF
:101490000E94242A0E94F02926EE3EE245E652E40C
:1014A0000E9409282B013C01A5019401C501B4014A
:1014B0000E9409284B015C01A7019601C701B601F2
:1014C0000E9409289B01AC01C501B4010E94842936
:1014D0000E946D2B6B017C01AC019B010E940928CD
:1014E0004B015C0123E937E745E95FE30E9484296A
:1014F00020E030E040E85FE30E94832969837A833B
:101500008B839C8325E531E54AE050E4C701B601B1
:101510000E9409289B01AC0169817A818B819C81A1
:101520000E94242A0E94722926EE3EE245E652E4F9
:101530000E940928F101608371838283938320E0F4
:1015400030E040E85FE3C501B4010E94842923E94B
:1015500037E745E95FE30E9483294B015C01A7015E
:101560009601C701B6010E9484299B01AC01C50107
:10157000B4010E94242A0E94722926EE3EE245E62A
:1015800052E40E940928A30192010E948429A9859E
:10159000BA856D937D938D939C931397A3019201CC
:1015A000F10160817181828193810E948329D1013F
:1015B0006D937D938D939C931397A10169857A8593
:1015C000C8012B960FB6F894DEBF0FBECDBFDF91DA
:1015D000CF911F910F91FF90EF90DF90CF90BF9030
:1015E000AF909F908F907F906F905F904F903F90C3
:1015F0002F900C942003412C90EC592E9CE4692EE2
:1016000095EC792E49CE412C80EC582E8CE4682E36
:1016100085E4782E41CE80E090ECACE4B5EC898393
:101620009A83AB83BC8351CE80E090ECACE4B5E40C
:10163000F6CF80E090ECACE4B5EC8D839E83AF8375
:10164000B8875CCE80E090ECACE4B5E4F6CF20E067
:1016500030E0A901C301B2010E94522B1816A4F474
:10166000A3019201C701B6010E94242A0E94F02919
:1016700026EE3EE245E652E40E940928D8016D9329
:101680007D938D939C93139720E030E0A901C301D3
:10169000B2010E94A32787FFBCCEA3019201C7011C
:1016A000B6010E94242A0E94F02926EE3EE245E679
:1016B00052E40E94092820E030E044E353E40E9411
:1016C0008429F8016083718382839383A2CE29E207
:1016D0003CE549EA51E4C701B601C6CE82E02B964B
:1016E0000FB6F894DEBF0FBECDBFDF91CF911F9133
:1016F0000F91FF90EF90DF90CF90BF90AF909F90B1
:101700008F907F906F905F904F903F902F900895B3
:101710002F923F924F925F926F927F928F929F9201
:10172000AF92BF92CF92DF92EF92FF920F931F93EF
:10173000CF93DF9300D000D000D0CDB7DEB78C01BF
:101740001B015E834D8326EE3EE245E652E4609146
:1017500054067091550680915606909157060E9446
:10176000242A4B015C010E941F2A2B013C0126EE1A
:101770003EE245E652E46091580670915906809128
:101780005A0690915B060E94242A6B017C010E94FC
:101790001F2A69837A838B839C8320E030E444E1B1
:1017A00053E4C301B2010E9409282B013C0123E349
:1017B00033E340E253E469817A818B819C810E940A
:1017C00009289B01AC01C301B2010E94842929E2CE
:1017D0003CE549EA51E40E94842920E030E048ECED
:1017E00051E40E9484292B013C01C501B4010E94EF
:1017F0005F2B4B015C01C701B6010E945F2B6B019F
:101800007C0126EE3EE245E652E46091500670917E
:10181000510680915206909153060E94242A0E94FC
:101820001F2A9B01AC01C301B2010E940928F801E3
:10183000608371838283938326EE3EE245E652E421
:101840006091500670915106809152069091530616
:101850000E94242A0E945F2B9B01AC01C301B201AC
:101860000E940928F101608371838283938320E0C1
:1018700030E444E153E4C501B4010E9409284B015E
:101880005C0123E333E340E253E4C701B6010E9465
:1018900009289B01AC01C501B4010E94832926E6F9
:1018A00036EE46ED52E40E948429ED81FE8160838C
:1018B00071838283938381E026960FB6F894DEBF0E
:1018C0000FBECDBFDF91CF911F910F91FF90EF9091
:1018D000DF90CF90BF90AF909F908F907F906F9050
:1018E0005F904F903F902F9008952F923F924F928C
:1018F0005F926F927F928F929F92AF92BF92CF92A0
:10190000DF92EF92FF920F931F93CF93DF93CDB7A8
:10191000DEB7C454D1090FB6F894DEBF0FBECDBFF9
:1019200069A77AA78BA79CA72DA73EA74FA758AB5F
:10193000E9AAFAAA0BAB1CABADA2BEA2CFA2D8A655
:1019400020E030E0A901C601B5010E94A32787FD70
:10195000A0C320E030E048EC52E4C601B5010E948B
:10196000A32787FF59C0C601B5010E94962A9B0193
:10197000AC01AFEFB0E00E94FF2823E630E040E08A
:1019800050E00E94E02820934F0681E08F93CE0123
:1019900001964C01DE0115965D01FE0139966F013D
:1019A000E9A8FAA80BA91CA92DA53EA54FA558A9E1
:1019B00069A57AA58BA59CA50E940E09782E0F908B
:1019C000F2E08F1771F0E980FA800B811C812D8184
:1019D0003E814F81588569857A858B859C850E94DB
:1019E000FA02872DCC5BDF4F0FB6F894DEBF0FBE37
:1019F000CDBFDF91CF911F910F91FF90EF90DF90BE
:101A0000CF90BF90AF909F908F907F906F905F909E
:101A10004F903F902F9008958FEF80934F0619A21B
:101A20001AA21BA21CA21D8E1E8E1F8E18A2198E1A
:101A30001A8E1B8E1C8E1D8A1E8A1F8A188E198A6A
:101A40001A8A1B8A1C8A1D861E861F86188A19867A
:101A50001A861B861C861D821E821F82188619828A
:101A60001A821B821C8281E08F93CE010D964C015D
:101A7000DE0151965D01FE0175966F01E9A8FAA895
:101A80000BA91CA92DA53EA54FA558A969A57AA506
:101A90008BA59CA50E940E09782E0F90F2E08F175F
:101AA00009F49FCF20E030E0A9016DA17EA18FA1B4
:101AB00098A50E94A327811191C08FEF9FEF90936B
:101AC000F8048093F704ED84FE840F851889298932
:101AD0003A894B895C896D897E898F89988D0E94AE
:101AE000FA027724739444244A94542C8091F70486
:101AF0009091F80497FD75CF2091F5043091F6048C
:101B0000821793070CF06DCF8FB7F8944091ED04D6
:101B10005091EE046091EF047091F0048FBFC0907B
:101B2000F704D090F8048091770490917804A09104
:101B30007904B0917A04481B590B6A0B7B0B2091F6
:101B4000750430917604C29EC001C39E900DD29E52
:101B5000900D1124B0E0A0E0481759076A077B07F1
:101B600028F28601000F111F000F111FF801EB571B
:101B7000FC4F7F01C8018B569D4F5C01D801AB55CE
:101B8000BE4F1D01AF01BC01CD010E94200380901A
:101B9000F5049090F604823089F0F701E080F1803E
:101BA00002811381D5012D913D914D915C91F101FF
:101BB00060817181828193810E94FA02FFEFCF1AC6
:101BC000DF0AD092F804C092F704C814D9040CF4C8
:101BD0008DCF5092F8044092F70488CF8091500640
:101BE00090915106A0915206B091530689AF9AAFD9
:101BF000ABAFBCAF8091540690915506A0915606AC
:101C0000B091570621968CAF9DAFAEAFBFAF219775
:101C10008091580690915906A0915A06B0915B06A2
:101C200025968CAF9DAFAEAFBFAF2597AE014F5F8E
:101C30005F4FBE016B5F7F4FCE0109960E94880BFC
:101C400029AD3AAD4BAD5CAD6D897E898F89988D9C
:101C50000E9483296B017C0120E030E0A9010E94F1
:101C6000522B26013701181624F077FA709477F872
:101C7000709421962CAD3DAD4EAD5FAD2197698935
:101C80007A898B899C890E9483294B015C0120E021
:101C900030E0A9010E94522B181624F0B7FAB09434
:101CA000B7F8B094A3019201C501B4010E94A32723
:101CB00087FF7BC120E030E0A901C701B6010E9487
:101CC000522B18160CF06DC1C701B6010E94962A5E
:101CD0008B01072E000C880B990B0E94AA274B0141
:101CE0005C0125962CAD3DAD4EAD5FAD25976D8564
:101CF0007E858F8598890E9483296B017C0120E075
:101D000030E0A9010E94522B181624F0F7FAF09443
:101D1000F7F8F094A7019601C501B4010E94522B77
:101D200018162CF0C701B6010E94962A8B0134E0E8
:101D3000732E101611060CF0D6CE0D33110514F0CB
:101D40000CE310E089859A85AB85BC858DAB9EAB95
:101D5000AFABB8AF9C01AD0169A57AA58BA59CA5D9
:101D60000E9483292B013C012D813E814F815885A2
:101D70006DA57EA58FA598A90E9483294B015C01C2
:101D800029813A814B815C8169A97AA98BA99CA997
:101D90000E9483296B017C01A3019201C301B2015E
:101DA0000E9409282B013C01A5019401C501B40141
:101DB0000E9409289B01AC01C301B2010E94842941
:101DC0004B015C01A7019601C701B6010E940928D9
:101DD0009B01AC01C501B4010E9484290E946D2BB6
:101DE0004B015C0120E030E04AE754E46DA17EA1A4
:101DF0008FA198A50E94522B181644F480E090E021
:101E0000AAE7B4E48DA39EA3AFA3B8A7B801012E9F
:101E1000000C880B990B0E94AA276B017C012DA155
:101E20003EA14FA158A5C501B4010E94242A20E07B
:101E300030E04AE754E40E940928A70196010E9475
:101E4000242A0E949D2A1B016531710528F190E02A
:101E500080E00E94A82720E030E040EA51E40E94A0
:101E6000242AA70196010E9409286B017C0120E029
:101E700030E040E752E40E94A32764E1262E312C93
:101E80000CE310E087FF08C0C701B6010E94962A44
:101E90008B0174E1272E312C38010D3311051CF014
:101EA0005CE3652E712C730105EA11E029A53AA5C2
:101EB0004BA55CA56DA97EA98FA998AD0E9484074A
:101EC0006D817E818F81988505E912E02DA53EA563
:101ED0004FA558A90E94840769817A818B819C81D2
:101EE00005E813E029A93AA94BA95CA90E94840737
:101EF000E5EAF1E0FEA7EDA785E992E09AA789A7B8
:101F00001EA30DA3512C412C461457040CF079C08C
:101F1000EDA1FEA1E080F18002811381A9A5BAA5FF
:101F20002D913D914D915C91EDA5FEA56081718152
:101F300082819381F1E0FF93DE0159964D01FE010C
:101F40007D965F0118966D010E940E090F908130F9
:101F500079F589A19AA1ABA1BCA1EDA5FEA58193BC
:101F60009193A193B193FEA7EDA78D8D9E8DAF8D1B
:101F7000B8A1E9A5FAA581939193A193B193FAA78A
:101F8000E9A7898D9A8DAB8DBC8DEDA1FEA18193C2
:101F90009193A193B193FEA3EDA3FFEF4F1A5F0AB4
:101FA000B3CFC701B601905891CEC501B4018ECE12
:101FB0002D893E894F89588D730105EA11E069AD7D
:101FC0007AAD8BAD9CAD0E94840729893A894B89F3
:101FD0005C8905E912E021966CAD7DAD8EAD9FADBB
:101FE00021970E9484072D853E854F85588905E8F5
:101FF00013E025966CAD7DAD8EAD9FAD25970E940B
:102000008407C3010197880F991F880F991FFC014E
:10201000EB55FE4F4D895E896F89788D40835183E2
:1020200062837383FC01EB56FD4F49895A896B89A2
:102030007C8940835183628373838B579C4F4D858A
:102040005E856F857889DC014D935D936D937C93FC
:10205000139730927604209275047092F604609281
:10206000F5041092F8041092F7042FB7F8948091B9
:10207000ED049091EE04A091EF04B091F0042FBF15
:102080008093770490937804A0937904B0937A04B2
:1020900028CD82E0782EA5CCCF92DF92EF92FF92EE
:1020A000CF93DF936C01990FEE08FF08F7FE19C07C
:1020B0006DE28DE595E00E942505EC016627772706
:1020C000CB016C197D098E099F094AE00E94C8085E
:1020D0008C0F9D1FDF91CF91FF90EF90DF90CF90FD
:1020E00008954AE0C701B601DF91CF91FF90EF90CC
:1020F000DF90CF900C94C8080F931F93CF93DF937A
:102100008C01EB01181619065CF480E391E00E9443
:102110000C09C8010E944C1084E391E00E940C0954
:1021200082E391E00E940C094C815D816881798194
:102130008DE595E00E94850486E391E0DF91CF91E3
:102140001F910F910C94BB08CF93DF93EC011816ED
:1021500019065CF480E391E00E940C09CE010E9414
:102160004C1084E391E00E940C0989E391E00E9405
:10217000BB0886E391E0DF91CF910C94BB080F93ED
:102180001F93CF93DF938C01EB01181619065CF4B3
:1021900080E391E00E940C09C8010E944C1084E386
:1021A00091E00E940C098CE391E00E940C09BE01B1
:1021B00090E080E04AE00E94C80886E391E0DF9169
:1021C000CF911F910F910C94BB08CF92DF92EF92A9
:1021D000FF920F931F93CF93DF93EB017B0124E0DA
:1021E000E20EF11C8B016C01C61AD70AC601800FE2
:1021F000911F0E94CA28F80181938F01EE15FF05F7
:10220000A9F7CE01DF91CF911F910F91FF90EF9031
:10221000DF90CF900895CF92DF92EF92FF920F93CD
:102220001F93CF93DF93CDB7DEB728970FB6F894FF
:10223000DEBF0FBECDBF282F30E08901000F111F78
:10224000000F111F833009F04EC080917F0690E08F
:102250000E943E08B0E0A0E09C01AD012256310989
:1022600041095109A4EBB0E00E94FF282AE631E0C1
:1022700040E050E00E94E028CA01B9010E94AA276C
:10228000F801ED5BF94F25A136A147A150A50E94A9
:1022900083296B017C0120E030E0A9010E94A32783
:1022A00087FD53C020E030E044E353E4C701B601AA
:1022B0000E94522B181634F4C12CD12C84E3E82E42
:1022C00083E4F82EC701B60128960FB6F894DEBF56
:1022D0000FBECDBFDF91CF911F910F91FF90EF9077
:1022E000DF90CF9008952D5B394FF90181AD90E0DB
:1022F0000E943E087C011D821E821F821886198260
:102300001A821B821C82BE016B5F7F4FC8018A5BF1
:102310009F4F0E94E510BE016F5F7F4FC801C296BC
:102320000E94E510B701FF0C880B990B0E94AA27A9
:1023300029813A814B815C810E9409282D813E814F
:102340004F8158850E9484299BCFC12CD12C7601C6
:10235000B9CF9F92AF92BF92CF92DF92EF92FF924E
:102360000F931F93CF93DF935C017B018B01D0E030
:10237000C0E0F80191908F016501CC0EDD1EC60111
:102380000E94CA28981621F0692DC6010E94D22801
:102390002196C430D10569F7C701DF91CF911F9114
:1023A0000F91FF90EF90DF90CF90BF90AF909F90F4
:1023B0000895FC0180819181009711F00C94C52C47
:1023C0000895EF92FF920F931F93CF93DF93EC0149
:1023D0007B01198218821B821A821D821C82FB01DA
:1023E00001900020E9F731978F01061B170BB80108
:1023F0006F5F7F4F90E080E00E944E2D0097B9F014
:10240000998388831B830A832C813D81232B11F4BC
:10241000FC0110821D830C83B70188819981DF91B3
:10242000CF911F910F91FF90EF900C941F2E8881F8
:102430009981009711F00E94C52C198218821D8283
:102440001C821B821A82DF91CF911F910F91FF9006
:10245000EF9008951F93CF93DF9385ED8093BC0099
:1024600080917E0490917F04A0918004B0918104BA
:102470000796A11DB11D23E0B695A7959795879561
:102480002A95D1F72091BC0024FD03C01092C60408
:1024900052C040917E0450917F04609180047091FD
:1024A0008104452B462B472B69F30097A105B10505
:1024B00041F025E32A95F1F700000197A109B10940
:1024C000E1CF80917D04C1E0C0937C04882399F121
:1024D000D091B8001091BA008091BC008A7B8093A3
:1024E000BC0060E082E10E94E40560E083E10E94BC
:1024F000E4051092C604C093C8041092C70461E0BA
:1025000082E10E94E40561E083E10E94E40580919C
:10251000B9008E7F8093B9008091B9008D7F809340
:10252000B90088E48093B80085E48093BC001093E0
:10253000BA00D093B800DF91CF911F9108952F92E8
:102540003F924F925F926F927F928F929F92AF9243
:10255000BF92CF92DF92EF92FF920F931F93CF9390
:10256000DF93CDB7DEB7C057D1090FB6F894DEBF01
:102570000FBECDBFCB57DF4FC880D980C558D040E4
:10258000C957DF4F68807980C758D040D301F30125
:1025900010E000E0819148019FEF891A990A882391
:1025A00029F0853209F048018401F4CFF601108248
:1025B0000115110571F58D91882311F08193FBCFE1
:1025C0001082E1E0F0E0EC0FFD1FE00FF11F108240
:1025D000BE016F5F7F4FC6010E94142EC401C05917
:1025E000DF4F0FB6F894DEBF0FBECDBFDF91CF91A6
:1025F0001F910F91FF90EF90DF90CF90BF90AF9021
:102600009F908F907F906F905F904F903F902F9012
:1026100008957E01F9E8EF0EF11C10E000E0B12C06
:10262000A12C82E3282E312CF301EA0DFB1D8081C1
:10263000882339F2853209F06CC08FEFA81AB80AE6
:10264000E1E0F0E0EC0FFD1FE00FF11F1082BE0192
:102650006F5F7F4FC6010E94142E1982F301EA0DAD
:10266000FB1D80818636B9F144F4833609F449C0F4
:10267000843671F010E000E063C08C36E9F08337F7
:10268000C9F787010E5F1F4FF701608171810FC08D
:1026900087010E5F1F4F4AE0BE016C5C7F4FF70160
:1026A000808191810E949523BE016C5C7F4FC601A1
:1026B0000E94142E7801DECF87010C5F1F4FF701B7
:1026C00060817181828193812AE0AE014C5C5F4F11
:1026D0000E94A023E9CF2701F4E04F0E511CF7011F
:1026E00060817181828193818E0109591F4F22E09F
:1026F00044E00E944723B801C6010E94142E7201D3
:10270000B9CF87010E5F1F4FF70180818CAB1DAAE7
:10271000CBCFE1E0F0E0EC0FFD1FE00FF11F808375
:10272000C8010196B1010E94FB2B8C01892B41F459
:102730001BAABE016F5F7F4FC6010E94142E198233
:10274000FFEFAF1ABF0A70CFEF92FF920F931F9364
:10275000CF93DF93CDB7DEB7E8970FB6F894DEBF1F
:102760000FBECDBF672B99F58C018EE391E09F934F
:102770008F9384E491E09F938F93CE0101967C0127
:102780009F938F930E949F12B701CE01C3960E9420
:10279000E111BE016D5C7F4FC8010E947C10CE012B
:1027A000C3960E94D9110F900F900F900F900F9029
:1027B0000F9080E0E8960FB6F894DEBF0FBECDBF55
:1027C000DF91CF911F910F91FF90EF90089585E1D8
:1027D000F1CF1F920F920FB60F9211242F933F93B8
:1027E0004F935F936F937F938F939F93AF93BF9319
:1027F000EF93FF938DE595E00E940305FF91EF9124
:10280000BF91AF919F918F917F916F915F914F9108
:102810003F912F910F900FBE0F901F9018951F9210
:102820000F920FB60F9211242F938F939F93EF93D4
:10283000FF93E0916D05F0916E058081E091730545
:10284000F091740582FD1BC09081809176058F5FA9
:102850008F7320917705821741F0E0917605F0E0C3
:10286000E35AFA4F958F80937605FF91EF919F91F0
:102870008F912F910F900FBE0F901F901895808110
:10288000F4CF1F920F920FB60F9211242F933F9304
:102890008F939F93AF93BF938091ED049091EE043B
:1028A000A091EF04B091F0043091EC0423E0230FE9
:1028B0002D3758F50196A11DB11D2093EC0480938E
:1028C000ED049093EE04A093EF04B093F004809194
:1028D000F1049091F204A091F304B091F4040196F4
:1028E000A11DB11D8093F1049093F204A093F30411
:1028F000B093F404BF91AF919F918F913F912F912D
:102900000F900FBE0F901F90189526E8230F029688
:10291000A11DB11DD2CF1F920F920FB60F9211249D
:102920002F933F934F935F936F937F938F939F93D7
:10293000AF93BF93EF93FF938091B900887F803668
:1029400009F44AC0F0F5883209F4A5C018F58031C1
:1029500009F499C0B8F4882309F4F5C0883009F463
:1029600092C0FF91EF91BF91AF919F918F917F9115
:102970006F915F914F913F912F910F900FBE0F90EC
:102980001F901895883109F486C0803251F78093E2
:10299000C50414C0803409F49BC040F48033B9F3FB
:1029A0008833F9F68093C50485ECAEC0803509F410
:1029B00083C0883509F494C0883499F60E942A129D
:1029C000D0CF883909F48AC038F5883729F050F417
:1029D000883611F0803729F683E08093C604109280
:1029E000C40455C0883809F479C0803919F080389A
:1029F00009F0B7CF8091C404803208F06FC0E09135
:102A0000C40481E08E0F8093C4048091BB00F0E089
:102A1000EC55FB4F80833BC0803B39F0D0F4803ACB
:102A200009F477C0883A09F09CCF84E08093C6040B
:102A30001092A3041092A204F0E0E0E009958091C6
:102A4000A20481110FC081E08093A204109282043D
:102A500009C0803C09F4A8CF883C09F4A5CF883B85
:102A600009F07FCFE091A30481E08E0F8093A3044F
:102A7000F0E0EE57FB4F80818093BB009091A30460
:102A80008091A20429C08091EB048093BB0085EC67
:102A90008093BC0066CF9091EA048091E904981776
:102AA00058F5E091EA0481E08E0F8093EA04F0E0AB
:102AB000E753FB4F8081E9CFE091EA0481E08E0F7C
:102AC0008093EA048091BB00F0E0E753FB4F8083E2
:102AD0009091EA048091E9049817C8F285E8D8CF6C
:102AE000E091EA0481E08E0F8093EA048091BB00BC
:102AF000F0E0E753FB4F80838091C80481115ECFE3
:102B000081E08093C70484EA8093BC001092C604DD
:102B100028CF85EC8093BC001092C6048091C40439
:102B2000803230F4E091C404F0E0EC55FB4F1082A9
:102B30006091C40470E084EA94E0F0E0E0E009957C
:102B40001092C4040ECF1092C50438CF1F920F927A
:102B50000FB60F9211242F933F934F935F936F9370
:102B60007F938F939F93AF93BF93CF93DF93EF9315
:102B7000FF938091A401C0914206D0E087FF24C05A
:102B800010928500109284008091A4018F5F809341
:102B9000A4018091A401082E000C990B8C179D07AD
:102BA00024F48091A4018C307CF180918400909178
:102BB0008500049680349C4908F4F9C08091840013
:102BC000909185000496F5C08091A401082E000C18
:102BD000990B8C179D07C4F63091A40126E03203AF
:102BE000F0011124E650FA4F808186FFCDCF30915D
:102BF000A4013203F0011124E650FA4F808160E015
:102C00008F730E94E405C0CF3091A40126E0320307
:102C1000F0011124E650FA4F8581882309F48AC017
:102C20003091A4014091A4014203F0011124E65027
:102C3000FA4F818192813203F0011124E650FA4F5C
:102C4000438154818417950708F048C04091A4013E
:102C50003091A4013203F0011124E650FA4F618152
:102C600072814203D0011124A650BA4F15968C915F
:102C7000860F972F911D928381833091A4014091FB
:102C8000A4014203F0011124E650FA4F81819281A0
:102C90003203F0011124E650FA4F43815481841726
:102CA000950708F447C04091A4013091A401420364
:102CB000F0011124E650FA4F838194813203F00130
:102CC0001124E650FA4F928381833091A40132039C
:102CD000F0011124E650FA4F15822CC04091A40156
:102CE0003091A4013203F0011124E650FA4F8181A2
:102CF00092814203D0011124A650BA4F15963C91FF
:102D0000831B9109928381833091A4014091A40196
:102D10004203F0011124E650FA4F8181928132037F
:102D2000F0011124E650FA4F4381548148175907A6
:102D300008F0B9CF80918400909185003091A40172
:102D400026E03203F0011124E650FA4F418152810E
:102D5000840F951F90938900809388003091A4017F
:102D60003203F0011124E650FA4F808186FF0CC037
:102D70003091A4013203F0011124E650FA4F808112
:102D800061E08F730E94E405FF91EF91DF91CF9195
:102D9000BF91AF919F918F917F916F915F914F9173
:102DA0003F912F910F900FBE0F901F90189580E4C8
:102DB0009CE990938900809388008FEF8093A40111
:102DC000E3CF1092600510925F0588EE93E0A0E0DB
:102DD000B0E08093610590936205A0936305B09382
:102DE000640582E291E090935E0580935D0585EC39
:102DF00090E090936A058093690584EC90E090934D
:102E00006C0580936B0580EC90E090936E05809349
:102E10006D0581EC90E09093700580936F0582ECD6
:102E200090E0909372058093710586EC90E090930A
:102E300074058093730510927605109277051092B1
:102E4000780510927905A3E4B6E08FEF96E028EBC1
:102E50003BE0E0914206EC3008F04BC041E04E0F01
:102E600040934206EC939E9FF0011124E650FA4FE6
:102E700032832183139646E0AF34B40751F78FEFC6
:102E800080934F0680E1E6E0F1E0A0E5B6E0019036
:102E90000D928A95E1F7E2E6F6E086E0DF011D9209
:102EA0008A95E9F784EB90E0909361068093600641
:102EB0008091160190911701A0911801B09119010C
:102EC0008093780690937906A0937A06B0937B0658
:102ED00080911A0190911B01A0911C01B0911D01DC
:102EE00080937C0690937D06A0937E06B0937F0628
:102EF00008958C93BFCFCF93DF93CDB7DEB7CE5677
:102F0000D1090FB6F894DEBF0FBECDBF789484B55B
:102F1000826084BD84B5816084BD85B5826085BDD5
:102F200085B5816085BD80916E00816080936E0063
:102F30001092810080918100826080938100809155
:102F40008100816080938100809180008160809306
:102F500080008091B10084608093B1008091B000C6
:102F600081608093B00080917A00846080937A00C1
:102F700080917A00826080937A0080917A008160EB
:102F800080937A0080917A00806880937A00109212
:102F9000C100E0916D05F0916E0582E08083E091C3
:102FA0006905F0916A051082E0916B05F0916C055E
:102FB00080E1808310927505E0917105F0917205B2
:102FC00086E08083E0916F05F091700580818061DB
:102FD0008083E0916F05F091700580818860808327
:102FE000E0916F05F0917005808180688083E091A9
:102FF0006F05F091700580818F7D808386E00E944F
:10300000660489E00E94660485E00E94660408E682
:10301000E02E06E0F02E0EE110E01BAA1CAA1DAA6D
:103020001EAA19821A821B821C82BE016F5F7F4F0B
:10303000C8010E94E51069817A818B819C816BAB0C
:103040007CAB8DAB9EAB9B01AC010E94B12B882366
:1030500051F01BAA1CAA1DAA1EAABE016D5C7F4FBF
:10306000C8010E94A9118BA99CA9ADA9BEA9F7010D
:1030700081939193A193B1937F010C5F1F4F0E3207
:10308000110559F610E6E12E16E0F12E04EF11E1DC
:103090006AE070E080E090E00E94370622E0A8013C
:1030A00062EACE0101960E94E606898190E0982F9F
:1030B00088272A81820F911DD7018D939D937D01D1
:1030C0001C5F043FBDE11B0719F7109244061092E4
:1030D0004506109247061092480610924A06109232
:1030E0004B0687EE80934D0689E180934E0603E4FC
:1030F00016E0EFE4CE2EE6E0DE2E7801F6E0BF2EFD
:10310000ACE0AA2EF80180818C30D0F5D701D5969D
:103110009C90892D0E946604F8018081B89EF00180
:103120001124E650FA4F292D2F739081907C922B19
:1031300090836A2D0E94EF2B8A9DA001112430E01C
:1031400020E0BA01620F731FB69EF001B79EF00D2A
:103150001124E650FA4F908196FD08C02F5F3F4F33
:103160002C30310571F790E00E94A908D801EC914C
:10317000BE9EF0011124E650FA4F80818064808366
:103180000D5F1F4FBFEFEB1AFB0AC016D10609F007
:10319000B9CF80E00E940B116093500670935106E6
:1031A000809352069093530681E00E940B11609326
:1031B000540670935506809356069093570682E006
:1031C0000E940B11609358067093590680935A061B
:1031D00090935B0683E00E940B1160935C067093F2
:1031E0005D0680935E0690935F068FEF9FEF90934E
:1031F000F8048093F7049093F6048093F5041092FA
:103200008006109281061092820610928306109218
:10321000840610928506109286061092870689EF22
:1032200094E0909389068093880680E390E0A0E084
:10323000B0E080938A0690938B06A0938C06B0939F
:103240008D06A12CB12C68ECC62E62E4D62EE12CA2
:10325000F12C06E113E4A801970160E070E0CB01D6
:103260000E94750C88E491E00E94BB0886E391E01F
:103270000E94BB08FE0131962F018091800690913B
:103280008106A0918206B091830600918406109178
:103290008506209186063091870680179107A20740
:1032A000B30711F40C94D122E0918806F0918906BD
:1032B000E80FF91F1081BC01CD016F5F7F4F8F4F69
:1032C0009F4F20918A0630918B0640918C06509139
:1032D0008D060E9441296093800670938106809339
:1032E00082069093830680915B0590915C05009720
:1032F00039F00197F9F010925C0510925B05BDCF93
:10330000133239F0173429F01D3419F0103509F053
:10331000B4CF21E030E030935C0520935B0513329D
:1033200079F081E08093590581E080935A051093EC
:103330002905A3CFE0915A05E033E8F6133219F4DA
:1033400010925905F1CF173421F01D3411F01035CA
:1033500079F4809159058111E7CF81E08093590577
:103360008E0F80935A05F0E0E75DFA4F108385CF0A
:10337000AE2FB0E0A75DBA4F1A3011F00C94CB22FB
:103380001C92E9E2F5E001900020E9F7319789E22B
:1033900095E08E179F0709F4AECFDF018E918D0166
:1033A000082E000C990B0E947227892B11F40C94A3
:1033B0003A23F8011082EBCFB3E2FB1621F0208113
:1033C000AA962FAFAA970E9465236BAB7CAB8DABFF
:1033D0009EAB64E371E090E080E00E946923FC0111
:1033E0000F5F1F4F309759F10630110541F1CF01A2
:1033F00001960115110501F30130110591F00E94AC
:103400006523F801EE0FFF1FEE0FFF1FA3E3B0E0EF
:10341000AC0FBD1FEA0FFB1F608371838283938310
:10342000D8CF33E2F31204C04081AA964FAFAA97D7
:103430000E9465236FAB78AF89AF9AAFCACF6BA9F3
:103440007CA98DA99EA90E94962A1B01B3E2FB12BA
:103450002FC06FA978AD89AD9AAD0E94962A02500F
:10346000110982E090E0AA96EFADAA97ED3409F435
:1034700071C1E03509F490C6E73409F03CCF3C0156
:10348000660C771C660C771C23E330E02C0F3D1F85
:10349000620E731E693C710509F4CDC084F4672B7C
:1034A00009F48DC064E170E0C1010E94BF1023CF18
:1034B00001501109312C212C81E090E0D4CF6A3CDD
:1034C000710509F417C16C3C710561F704301105F1
:1034D00009F060C6D3011C96AD90BD90CD90DC90F4
:1034E0001F9718968D919D910D90BC91A02DA5963A
:1034F0008CAF9DAFAEAFBFAFA597D30114968D91A2
:103500009D910D90BC91A02DA1968CAF9DAFAEAFBB
:10351000BFAFA197F3016080718082809380A20188
:10352000BE01655B7F4FCE018F5A9F4F0E94880B73
:1035300065962CAD3DAD4EAD5FAD6597C401B30151
:103540000E9484293B014C0165966CAE7DAE8EAE27
:103550009FAE65972F962CAD3DAD4EAD5FAD2F97CD
:10356000A1966CAD7DAD8EAD9FADA1970E948429D3
:10357000A1966CAF7DAF8EAF9FAFA1972F966CAF2A
:103580007DAF8EAF9FAF2F9729813A814B815C81B0
:10359000A5966CAD7DAD8EAD9FADA5970E9484299B
:1035A00069837A838B839C837B018C01A1962CADEC
:1035B0003DAD4EAD5FADA197C401B3011BC004305A
:1035C000110509F0E7C5D3011C96AD90BD90CD90D3
:1035D000DC901F971896ED90FD900D911C911B9714
:1035E00014962D913D914D915C9117976D917D9120
:1035F0008D919C910E94750C823009F0A7C01AE051
:1036000080E391E00E940C09C1010E944C1084E308
:1036100091E00E940C098CE391E00E940C09612F5B
:1036200070E090E080E04AE00E94C80886E391E004
:103630000E94BB0860CE0430110509F0ABC5D30170
:103640008D919D910D90BC91A02DA1968CAF9DAFB9
:10365000AEAFBFAFA19726EE3EE245E652E4F301DE
:1036600064817581868197810E94242A6B017C0187
:103670000E941F2AA5966CAF7DAF8EAF9FAFA59716
:10368000C701B6010E945F2B9B01AC01D3011C96C0
:10369000AD90BD90CD90DC901F9718968D919D9127
:1036A0000D90BC91A02DA9968CAF9DAFAEAFBFAFD2
:1036B000A997A1966CAD7DAD8EAD9FADA1970E94EF
:1036C00009283B014C01A5962CAD3DAD4EAD5FAD3B
:1036D000A597A1966CAD7DAD8EAD9FADA1970E94D3
:1036E0000928A996ECACFDAC0EAD1FADA997A401BD
:1036F000930180CF0230110509F04CC5F301C4805D
:10370000D580E680F78060817181828193810E94FB
:103710009D2A162F643008F03DC520E030E044E3D8
:1037200053E4C701B6010E94522B18160CF432C59F
:1037300020E030E0A901C701B6010E94A32787FD60
:1037400029C5B701A601812F0E946101C1010E9414
:10375000A410D1CD880F991F880F991F33E3632ED2
:10376000712C6C0E7D1E680E791E6C3D710509F47E
:1037700063C30CF0B2C06A3C710509F449C10CF096
:1037800068C0693C710509F08DCE0130110509F062
:1037900001C5D3016D917D918D919C910E949D2ACF
:1037A000643008F02CCF062F10E0F801ED5BF94FE4
:1037B000B5A87801EE0CFF1CC701800F911FFC011A
:1037C000ED5BF94F6F0180818C3008F0BFCF8B2DFE
:1037D0000E946604D6018C91B6E08B9FF001112403
:1037E000E650FA4F2B2D2F739081907C922B908373
:1037F0002CE0622F0E94EF2B482F50E0829FB001F7
:10380000112430E020E086E0DB01A20FB31F8A9F85
:10381000F0018B9FF00D1124E650FA4F908196FD38
:1038200008C02F5F3F4F2C30310571F7CA010E944D
:10383000A9080E0D1F1DF801ED5BF94FE08126E090
:10384000E29FF0011124E650FA4F8081806480836A
:103850007DCF633D710509F4FBC0643D710509F03E
:1038600021CE0430110509F095C4D30114966D9151
:103870007D918D919C9117970E949D2AA2966FAF82
:10388000A297A6967FAFA697F30184849584A68419
:10389000B78460857185828593850E94962A6E968D
:1038A0006FAF6E97A296EFACA297A696FFACA697C5
:1038B000D3016D917D918D919C910E94962A762ED7
:1038C000613009F408C208F44DC2623009F03ECFFD
:1038D00042EAAC964FAFAC9702C2673E710509F45D
:1038E00027C40CF074C06D3D710509F420C36E3D12
:1038F000710509F0D7CD0430110509F04BC4D3018F
:1039000014968D909D90AD90BC901797CD90DD90C2
:10391000ED90FC90139720E030E040E85FE31C96C8
:103920006D917D918D919C911F970E94A32781118C
:1039300028C026EE3EE245E652E4C501B4010E94ED
:10394000242A4B015C010E941F2A9B01AC01C70184
:10395000B6010E940928F3016083718382839383F7
:10396000C501B4010E945F2B9B01AC01C701B601E8
:103970000E940928D30114966D937D938D939C9397
:103980001797F301E084F184028513852481358142
:103990004681578160817181828193811F924201AA
:1039A000DE01A55BBF4F5D01FE01EF5AFF4F6F01C6
:1039B0000E940E090F90823009F4BCC58A3009F4C8
:1039C000B9C5813009F02AC16BE671E066C5683E71
:1039D000710509F4CBC3603F710509F063CD023076
:1039E000110509F0D7C3D3016D917D918D919C9103
:1039F0000E949D2A162FF30164817581868197812B
:103A00000E949D2A662309F4C3C361E0812FA5C3E8
:103A10000130110509F0BEC3D3016D917D918D91E7
:103A20009C910E949D2A643008F0E9CD70E0FB0172
:103A3000EE0FFF1FE60FF71FED5BF94FE081B6E0D9
:103A4000EB9FF0011124E650FA4F80818F7BFFCE6F
:103A50000330110509F09EC3F301608571858285ED
:103A600093850E94962A162FE62EF72ED3011496E0
:103A70006D917D918D919C9117970E949D2AA296A0
:103A80006FAFA297A72E6E961FAF6E97C62ED72E3A
:103A9000F30160817181828193810E94962AB62E02
:103AA000613059F098F0623009F464C010E000E031
:103AB00040EB942E21E4822EA4C0F0EAAB96FFAF37
:103AC000AB9710E000E0912C812C19C06E962FADC1
:103AD0006E97223059F12430E9F1213091F7A29606
:103AE0008FADA2979A2D0E94CA28682F70E090E0AF
:103AF00080E00E94AA27162F072F982E892E8FEF7D
:103B00008B0D823008F07DC06E964FAD6E974230BF
:103B100009F496C0443099F1AA24A394B12C413001
:103B200089F110E000E038EA932EC4CFA2960FADE1
:103B3000A2971A2DC8010E94CA288983C80101963C
:103B40000E94CA288A8369817A81072E000C880B1B
:103B5000990BCFCF19821A821B821C82B201A296C6
:103B60008FADA2979A2D0E94E51019810A819B8042
:103B70008C80C5CF32EAAB963FAFAB97A2CF74E053
:103B8000A72EB12CA2968FADA2978F7721E830E0B7
:103B90002A193B09821713060CF456C090E8B92E77
:103BA000B81A2B2DA601AB966FADAB97C2010E9440
:103BB000E60665E070E080E090E00E9437068B2D1D
:103BC00090E02A2D2B19A601480F591FAB966FAD17
:103BD000AB97840D951D0E94E6066E968FAD6E978D
:103BE0008230C9F1843009F446C0813051F46981D2
:103BF00070E090E080E00E94A827162F072F982EF3
:103C0000892E91E0E916F1044CF0A3E0EA16F104E4
:103C1000BCF1B4E0EB16F10409F44BC0B201CE01E3
:103C2000855B9F4F0E94E111BE01655B7F4FC10123
:103C30000E947C10CE01855B9F4F0E94D9115BCB07
:103C400062E0A62EB12C9ECF2A2DA601AB966FADB9
:103C5000AB97C201C0CF6981862F90E0982F88274B
:103C60006A81680F792F711D072E000C880B990B44
:103C70000E94AA27C2CF19810A819B808C80C1CF64
:103C8000A8019401652F702F832F982D0E94962AEA
:103C90007F936F93EBE4F1E0FF93EF935F924F928A
:103CA0000E949F120F900F900F900F900F900F9007
:103CB000B5CF8F929F920F931F938FE491E09F93C4
:103CC0008F935F924F920E949F120FB6F894DEBFBF
:103CD0000FBECDBFA3CFB0EAAC96BFAFAC978FEF0E
:103CE000870D823008F032CD6E968FAD6E978230A0
:103CF00009F48DC0843009F493C0813009F026CDD9
:103D0000C501B4010E949D2A698301E010E0A296DA
:103D10008FADA2978F7721E830E0201B310B8217FF
:103D200013060CF482C010E8181B212FA701AC96D3
:103D30006FADAC97C2010E943C0765E070E080E087
:103D400090E00E943706812F90E0202F211BA701D1
:103D5000480F591FAC966FADAC97840D951D0E940E
:103D60003C07F4CC6E96EFAD6E97E23099F0E430FC
:103D700009F43FC0E13009F0B2CFC501B4010E949F
:103D80009D2AA2968FADA297A6969FADA6970E9458
:103D9000D228A5CFC501B4010E94962AAD966FAF77
:103DA000AD97672EAE966FAFAE97AF967FAFAF97DA
:103DB000A296CFACA297A696DFACA697C6010E94AA
:103DC000CA28AE96FFADAE978F1721F06F2FC601B0
:103DD0000E94D2282FEFC21AD20AC6010E94CA2816
:103DE000AF963FADAF97831709F479CF662DC60123
:103DF000CECF89829A82AB82BC82B201A2968FAD6D
:103E0000A297A6969FADA6970E94A91168CFC5015B
:103E1000B4010E94962A79836A8302E010E077CF8A
:103E200089829A82AB82BC8272CF202FA701AC9686
:103E30006FADAC97C20193CF0330110509F0AAC151
:103E4000D3011896ED90FD900D911C911B9714963F
:103E50002D913D914D915C9117976D917D918D9133
:103E60009C91E1E0EF93FE01EF5AFF4F4F01DE011D
:103E7000AB5ABF4F5D0138966F010E940E096A96DA
:103E80003FAD6A976B962FAD6B976C969FAD6C9715
:103E90006D968FAD6D97632F722F6C01CB01AD2D99
:103EA000BC2DF30180839183A283B38366963FADDB
:103EB000669767962FAD679768969FAD68976996E6
:103EC0008FAD699789017C01812F902FAF2DBE2D79
:103ED00084839583A683B7836296BFAD629763960A
:103EE000AFAD639764969FAD649765968FAD659708
:103EF0002B2F3A2F492F582FC901DA01808791873C
:103F0000A287B3875F934F933F932F93EF92FF92D4
:103F10000F931F93CF92DF927F936F9323E531E04E
:103F20003F932F935F924F920E949F1268C203307B
:103F3000110509F02FC126EE3EE245E652E4D30119
:103F400014966D917D918D919C9117970E94242AD2
:103F50006B017C010E941F2A4B015C0126EE3EE2B0
:103F600045E652E4F30160857185828593850E9460
:103F7000242AA1966CAF7DAF8EAF9FAFA1970E9410
:103F80001F2AA5966CAF7DAF8EAF9FAFA59720E09F
:103F900030E444E153E4C501B4010E9409284B0117
:103FA0005C0123E333E340E253E4A5966CAD7DADC1
:103FB0008EAD9FADA5970E9409289B01AC01C5015C
:103FC000B4010E94842929E23CE549EA51E40E94B7
:103FD000842920E030E048EC51E40E9484294B0120
:103FE0005C01C701B6010E945F2B6B017C01A196A9
:103FF0006CAD7DAD8EAD9FADA1970E945F2BA1965C
:104000006CAF7DAF8EAF9FAFA19720E030E444E16D
:1040100053E4C701B6010E9409286B017C0123E328
:1040200033E340E253E4A1966CAD7DAD8EAD9FAD20
:10403000A1970E9409289B01AC01C701B6010E940B
:10404000832926E636EE46ED52E40E948429A296A4
:104050006FAFA297A6967FAFA697D82EC92E26EE51
:104060003EE245E652E4D3016D917D918D919C91A4
:104070000E94242AA1966CAF7DAF8EAF9FAFA1970F
:104080000E941F2A9B01AC01C501B4010E940928AE
:10409000162F072FF82EE92EA1966CAD7DAD8EADB3
:1040A0009FADA1970E945F2B9B01AC01C501B4019C
:1040B0000E9409289B01D801F7014B2F5A2F6F2F1F
:1040C0007E2FF3014083518362837383422F532FEA
:1040D000682F792FD30114964D935D936D937C9344
:1040E0001797A296BFADA297A696AFADA697F60179
:1040F0004B2F5A2F6F2F7E2FF301408751876287F6
:104100007387CF92DF92A696FFADA697FF93A296F4
:104110004FADA2974F939F938F933F932F93EF921F
:10412000FF920F931F938FE591E09F938F93F6C1BA
:104130000130110579F520E030E0A901D3016D913E
:104140007D918D919C910E94A327811109C060E00F
:1041500086E00E94E40561E085E00E94E405F6CA7D
:1041600061E086E00E94E40560E0F6CF01301105D1
:1041700089F420E030E0A901F3016081718182813E
:1041800093810E94A32761E0811160E089E0E5CF7F
:1041900060E03CCC15E134CA3C01660C771C660C2F
:1041A000771C23E330E02C0F3D1F620E731E6D3C25
:1041B000710509F46DC11CF56A3C710509F437C13C
:1041C0008CF4683C710509F4CCC0693C710509F0B8
:1041D00069C981E891E0012B09F42EC185E1682FBE
:1041E00070E062C96B3C710509F449C16C3C710512
:1041F00009F058C9B801C1010E94A41344C1673E27
:10420000710509F48EC10CF088C06C3D710509F48C
:1042100048C16D3D710509F045C9012BF9F680E5EE
:10422000E82E86E0F82E10E0812F0E940B11D701B6
:104230006D937D938D939D937D011F5F1430A1F746
:10424000A201BE01655B7F4FCE018F5A9F4F0E9436
:10425000880BB09150066E96BFAF6E97E0915106F5
:10426000A296EFAFA2970091520610915306659661
:104270006CAD7DAD8EAD9FAD65972F96CCACDDACB2
:10428000EEACFFAC2F979B01AC010E9409284B01BB
:104290005C01A7019601C701B6010E9409289B0194
:1042A000AC01C501B4010E9484290E946D2B9B01C1
:1042B000AC01CB01DA01F30180839183A283B38344
:1042C0006E966FAD6E97A2967FADA297D02EC12E3F
:1042D000CB01A02FB12F84839583A683B783B981A7
:1042E000AA819B818C818D017C01812F902FAF2D24
:1042F000BE2D80879187A287B387EF92FF920F939D
:104300001F93CF92DF927F936F935F934F933F936F
:104310002F9387E991E09F9309CF603F710509F4DE
:1043200010C1613F710509F421C1683E710509F0B2
:10433000B9C8012B09F052CF89E00E94BB05019753
:1043400009F4FBC084E190E00E943E088935924068
:104350000CF4F5C081E01F928F938BE491E09F9362
:1043600070C0012B09F03ACF80E00E940B11D301FD
:104370006D937D938D939C93139781E00E940B1115
:10438000F301648375838683978382E00E940B1117
:10439000D30118966D937D938D939C931B9783E027
:1043A0000E940B119B01AC01CB01DA01F301848760
:1043B0009587A687B7875F934F933F932F93838506
:1043C0008F9382858F9381858F9380858F9387814B
:1043D0008F9386818F9385818F9384818F9383813F
:1043E0008F9382818F9381818F9380818F9381E7D7
:1043F00091E09F938F935F924F920E949F12B20120
:10440000CE01855B9F4F0E94E111BE01655B7F4F2E
:10441000C1010E947C10CE01855B9F4F0E94D91183
:104420000FB6F894DEBF0FBECDBF0C947B19012BE5
:1044300009F0D4CE87E891E09F938F9384E491E0D4
:104440009F938F935F924F920E949F12B201CE0171
:10445000855B9F4F0E94E111BE01655B7F4FC101EB
:104460000E947C10CE01855B9F4F0E94D9110F9056
:104470000F900F900F900F900F900C947B19B80134
:10448000C1010E94A413882311F40C947B19A7CEB8
:104490006BE871E0012B09F0A1CEC2010E941F2E32
:1044A000BDCB012B09F09ACE630138E0C30ED11CBD
:1044B000730144E0E40EF11C00E516E0B12C8B2DF5
:1044C0000E940B11D8016D937D938D939D938D0167
:1044D000B394B4E0BB12F3CFA601B701C3010E94AD
:1044E000880BF30183858F9382858F9381858F93CA
:1044F00080858F9387818F9386818F9385818F931A
:1045000084818F9383818F9382818F9381818F9315
:1045100080818F932FE531E03F932F935F924F92ED
:1045200003CD012B09F05ACE86E00E94BB0501970E
:1045300009F44ACA6EE671E0B0CF80E00CCF82E0A9
:104540000ACF0130110509F049CEF3016081718174
:10455000828193810E949D2A862F0E94BB059F9392
:104560008F932BE431E03F932F936CCF01301105F3
:1045700009F034CED3016D917D918D919C910E9473
:104580009D2ACB010E943E089F938F93EBE4F1E0BC
:10459000FF93EF9357CFEF5FE0935A051C930C9472
:1045A0003D198DE595E00E94E304892B09F452C082
:1045B0008DE595E00E94C1048C01019691F3C090B5
:1045C0008406D0908506E0908606F0908706C701A5
:1045D000B6016F5F7F4F8F4F9F4F20918A063091BA
:1045E0008B0640918C0650918D060E944129809047
:1045F000800690908106A0908206B0908306681590
:1046000079058A059B0569F2E0918806F091890693
:10461000EC0DFD1D008360918406709185068091EC
:104620008606909187066F5F7F4F8F4F9F4F209137
:104630008A0630918B0640918C0650918D060E941F
:104640004129609384067093850680938606909333
:104650008706A7CF80E090E0892B11F40C943D19D8
:104660000E94EF04882311F40C943A190E94000070
:104670000C943A19F090290564E371E089E295E021
:104680000E946923FC0110E000E00C94F219EF9203
:104690000F931F93CF93DF93E80134E047FD34E19C
:1046A000042E000C550B57FF03C05195419551093D
:1046B000E32E022F242FAE010E94EB23CE01DF91C7
:1046C000CF911F910F91EF900895662777270C9453
:1046D0004A254EE856E00E946E230895FA01A19102
:1046E000B081009719F41097E1F0CD01DC01CD0104
:1046F0000D90002011F4C00113C0FB012191222371
:1047000019F02015D9F7F3CFFB012191201519F4E9
:104710001E92119606C02223C1F70D900020A1F72A
:10472000D001FA01A193B0830895BB274A3031F438
:10473000992322F4BDE2909581959F4F0C94D2234A
:10474000BB272A3051F4992342F4BDE2909580951D
:10475000709561957F4F8F4F9F4F0C94B023BB276F
:10476000FA01A62F6217710581059105330B30FB05
:1047700066F0AA27660F771F881F991FAA1FA21726
:1047800010F0A21B63953850A9F7A05DAA3308F07A
:10479000A95DA19336F7B111B1931082CA010C94AF
:1047A0009327BB27FB015527AA27880F991FAA1F0C
:1047B000A41710F0A41B83955051B9F7A05DAA333C
:1047C00008F0A95DA193009779F7B111B193119207
:1047D000CB010C949327A9E0B0E0E1EFF3E20C9455
:1047E00010296A01F22EB02E102FFBE3AF2EA01677
:1047F00008F41BE31F5F012F27E0AE014F5F5F4FFF
:104800000E949A26BC018981982F9970913009F4F1
:104810003FC09BE2E1FC04C09E2D9170E0FC3AC0D9
:104820005E2D5071E82FE87083FF46C084E091113F
:1048300001C083E0EF2DE81B8F1508F0E0E0D60102
:104840008E2F20E2552351F1992329F0D6019C9314
:10485000C60101966C0196012D5F3F4FE2FE24C018
:104860008EE4D6018C9391E411969C931197129645
:104870008C93D9018E2F90E281111BC0E20FF32F90
:10488000F11D10828EEF9FEF2996ECE00C942C29FD
:104890009DE2C6CF90E2C4CF2D9381508111FCCF11
:1048A000CE0ED11CE0E0D0CF8EE6D6018C9391E6FF
:1048B000DBCF9D938150E0CF482F447082FF3DC0F5
:1048C00084E0911101C083E08F1510F4EF2DE81BF7
:1048D000D6018E2F20E2552309F1992329F0D60124
:1048E0009C93C60101966C0196012D5F3F4FE2FE3D
:1048F0001BC089E4D6018C938EE411968C9311979A
:1049000086E412968C93D9018E2F90E2882309F4C5
:10491000B5CF9D938150FACF2D9381508111FCCF5B
:10492000CE0ED11CE0E0D9CF89E6D6018C938EE67D
:1049300011968C93119786E6E4CF9B0177FF02C016
:1049400030E020E0A1E0B0E0911102C0B0E0A0E0D2
:10495000F9013196AE0FBF1F8B2C912CBB2009F4AF
:1049600061C05401EFEFAE1ABE0AAA0DBB1DFA16C4
:104970001B0619F014F04F2D4A1B511188C0E3FC9F
:1049800059C07601A42FB0E2A1114FC0C40ED11CB2
:10499000992309F45BC040E0D6011196F60190839B
:1049A0006D01552309F448C0012F060F9A81582F35
:1049B000507184FF03C0913309F4015010160CF0BC
:1049C00047C0093008F008E0EEE2FE2E5B01A01AB5
:1049D000B10885019194819491082F3F320729F401
:1049E000D601FC92F60131966F016217730794F1BC
:1049F000021713077CF5DB01A21BB30BAA24A394B7
:104A0000B12CAC0EBD1EAA0DBB1D11968C91215070
:104A10003109D601119628153905F4F0F601808385
:104A20006D01DBCFB12CA12CA0CFF701B1937F0199
:104A3000A150AACF9111B0CFD601942F50E302C05C
:104A40005D9391509111FCCFC40ED11C40E0ACCFCE
:104A500001E0BACF80E3DBCF6217730731F49633FE
:104A600088F4953311F4552369F0F6018083FD0134
:104A7000842F90E2811108C0A40FB11D1C9290E018
:104A800080E002CF81E3F1CF91938150F3CF911178
:104A900083CF8ACFB0E0A0E0E0E5F5E20C941029E6
:104AA0005C017B016115710519F0DB018D939C930D
:104AB00085010F5F1F4FF501D0818D2F90E00E947F
:104AC00072276C01892BB9F5DD32B9F50F5F1F4FE5
:104AD000D5011196DC91C1E05801F1E0AF1AB1089F
:104AE00043E050E064EE70E0C5010E947B27892B13
:104AF00069F5680182E0C80ED11C45E050E06FED19
:104B000070E0C6010E947B27892B21F4680197E0A1
:104B1000C90ED11CE114F10419F0D701CD92DC9239
:104B200060E070E080E89FEFC111FFC060E070E0DE
:104B300080E89FE7FAC05801BBCFDB3229F485013A
:104B40000E5F1F4FF501D181C0E0C6CF43E050E0BA
:104B50006CED70E0C5010E947B27892BE9F0F8011C
:104B600010E000E020E030E0A9015F01B0ED8B2E05
:104B70008D0E89E08815C8F19C2E689491F88C2FD1
:104B80008870C2FF16C0811102C00F5F1F4F31969F
:104B9000D501DC91C92DE9CFE114F10429F00E5FB4
:104BA0001F4FF7011183008360E070E080EC9FE706
:104BB000BCC0882311F001501109A5E0B0E00E94AB
:104BC000FF289B01AC01220F331F441F551F280DE6
:104BD000311D411D511D283999E93907490799E1CE
:104BE0005907A8F2C6609C2ED2CFAEEF8A1206C03B
:104BF000C3FD3CC09C2E689493F8C9CFDF7DD534AB
:104C0000A9F580818D3239F4C061DF01129681816E
:104C100062E070E006C0DF018B32C1F3119661E003
:104C200070E080535D01A61AB70A8A30F8F4E0E814
:104C3000CE16ECE0DE065CF4B601660F771F660F59
:104C4000771FC60ED71ECC0CDD1CC80ED11C5D0113
:104C5000FFEFAF1ABF0A8C9180538A30A8F1C4FFCE
:104C600003C0D194C194D1080C0D1D1DC1FF09C012
:104C7000E114F10431F081E0A81AB108D701AD9236
:104C8000BC92CA01B9010E94A827C370C33009F4BD
:104C900090584B015C0120E030E0A9010E94A3275D
:104CA000882309F440C0C3E1D1E017FF05C0119586
:104CB00001951109CBEFD0E06E01B8E1CB1AD10814
:104CC00080E2E82EF12C0FC0D501B1CFFE01259175
:104CD0003591459154910E191F09C501B4010E94E7
:104CE00009284B015C01D501C4010E151F0574F79D
:104CF0002497F594E794CC16DD06A9F78A2F880F40
:104D00008B2F881F8F3F49F020E030E0A901C501BB
:104D1000B4010E94A327811106C082E290E0909323
:104D2000910680939006C501B401CDB7DEB7ECE0E3
:104D30000C942C29283008F027E03327DA01990F4A
:104D4000311D87FD916000966105710539F432606F
:104D50002E5F3D9330E32A95E1F708959F3F30F0B1
:104D600080387105610509F03C5F3C5F3D939130EF
:104D700008F08068911DDF93CF931F930F93FF92EC
:104D8000EF92192F987F9695E92F96959695E90FB2
:104D9000FF27EF58FE4F99273327EE24FF24A70162
:104DA000E70105900894079428F4360FE71EF81ED3
:104DB000491F511D660F771F881F991F0694A1F781
:104DC0000590079428F4E70EF81E491F561FC11DD1
:104DD000770F881F991F661F0694A1F70590079407
:104DE00028F4F80E491F561FC71FD11D880F991FA1
:104DF000661F771F0694A1F70590079420F4490FCA
:104E0000561FC71FD81F990F661F771F881F06944C
:104E1000A9F784911095177041F0D695C7955795CD
:104E20004795F794E7941A95C1F7E7E1F1E06894A4
:104E30001590159135916591959105907FE2739547
:104E4000E118F10A430B560BC90BD009C0F7E10C6E
:104E5000F11E431F561FC91FD01D7EF4703311F47D
:104E60008A95E6CFE894015030F0080F0AF4002745
:104E7000021708F4202F2395022F7A3328F079E3C4
:104E80007D932A95E9F710C07D932A9589F60694BB
:104E900097956795379517951794E118F10A430B85
:104EA000560BC90BD00998F023957E9173957A33F0
:104EB00008F070E37C932013B8F77E9170617D93C6
:104EC00030F0839571E37D9370E32A95E1F7112427
:104ED000EF90FF900F911F91CF91DF91992787FD60
:104EE0009095089591110C947628803219F089508C
:104EF0008550C8F70895FB01DC014150504088F00F
:104F00008D9181341CF08B350CF4805E6591613499
:104F10001CF06B350CF4605E861B611171F3990B0C
:104F20000895881BFCCFDC01FC01672F719177236A
:104F3000E1F7329704C07C916D9370836291AE1754
:104F4000BF07C8F308950E94E52708F481E008959B
:104F5000E89409C097FB3EF4909580957095619513
:104F60007F4F8F4F9F4F9923A9F0F92F96E9BB27C9
:104F70009395F695879577956795B795F111F8CF45
:104F8000FAF4BB0F11F460FF1BC06F5F7F4F8F4FB0
:104F90009F4F16C0882311F096E911C0772321F0A6
:104FA0009EE8872F762F05C0662371F096E8862F3E
:104FB00070E060E02AF09A95660F771F881FDAF795
:104FC000880F9695879597F90895990F0008550FC2
:104FD000AA0BE0E8FEEF16161706E807F907C0F07F
:104FE00012161306E407F50798F0621B730B840B87
:104FF000950B39F40A2661F0232B242B252B21F461
:1050000008950A2609F4A140A6958FEF811D811D00
:1050100008950E941C280C9490280E94822838F041
:105020000E94892820F0952311F00C9479280C9483
:105030007F2811240C94C4280E94A12870F3959F06
:10504000C1F3950F50E0551F629FF001729FBB277F
:10505000F00DB11D639FAA27F00DB11DAA1F649F1B
:105060006627B00DA11D661F829F2227B00DA11DCE
:10507000621F739FB00DA11D621F839FA00D611D54
:10508000221F749F3327A00D611D231F849F600D75
:10509000211D822F762F6A2F11249F5750409AF09E
:1050A000F1F088234AF0EE0FFF1FBB1F661F771F2A
:1050B000881F91505040A9F79E3F510580F00C94F5
:1050C00079280C94C4285F3FE4F3983ED4F3869586
:1050D00077956795B795F795E7959F5FC1F7FE2B95
:1050E000880F911D9695879597F908959927882798
:1050F000089597F99F6780E870E060E008959FEF5A
:1051000080EC089500240A9416161706180609065E
:10511000089500240A94121613061406050608952D
:10512000092E0394000C11F4882352F0BB0F40F4B5
:10513000BF2B11F460FF04C06F5F7F4F8F4F9F4FF5
:10514000089557FD9058440F551F59F05F3F71F077
:105150004795880F97FB991F61F09F3F79F08795DE
:105160000895121613061406551FF2CF4695F1DF67
:1051700008C0161617061806991FF1CF86957105F7
:10518000610508940895E894BB2766277727CB012B
:1051900097F90895F999FECF92BD81BDF89A9927A4
:1051A00080B50895262FF999FECF1FBA92BD81BD13
:1051B00020BD0FB6F894FA9AF99A0FBE0196089599
:1051C000052E97FB1EF400940E94F72857FD07D088
:1051D0000E94412907FC03D04EF40C94F728509507
:1051E0004095309521953F4F4F4F5F4F08959095D3
:1051F0008095709561957F4F8F4F9F4F08950E94C6
:105200006329A59F900DB49F900DA49F800D911DC3
:10521000112408952F923F924F925F926F927F9246
:105220008F929F92AF92BF92CF92DF92EF92FF92B6
:105230000F931F93CF93DF93CDB7DEB7CA1BDB0B62
:105240000FB6F894DEBF0FBECDBF09942A88398807
:1052500048885F846E847D848C849B84AA84B9840E
:10526000C884DF80EE80FD800C811B81AA81B9811A
:10527000CE0FD11D0FB6F894DEBF0FBECDBFED012E
:105280000895A1E21A2EAA1BBB1BFD010DC0AA1F87
:10529000BB1FEE1FFF1FA217B307E407F50720F09F
:1052A000A21BB30BE40BF50B661F771F881F991F1A
:1052B0001A9469F760957095809590959B01AC0163
:1052C000BD01CF010895A29FB001B39FC001A39F6C
:1052D000700D811D1124911DB29F700D811D11242F
:1052E000911D08959F939F770E94CC2A0F900020D4
:1052F00042F49058A2EA2AED3FE049E450E40E94CB
:105300009B290C9490285058BB27AA270E949B29C0
:105310000C9490280E94822838F00E94892820F05E
:1053200039F49F3F19F426F40C947F280EF4E0958D
:10533000E7FB0C947928E92F0E94A12858F3BA17AB
:10534000620773078407950720F079F4A6F50C949B
:10535000C3280EF4E0950B2EBA2FA02D0B01B90136
:1053600090010C01CA01A0011124FF27591B99F0DB
:10537000593F50F4503E68F11A16F040A22F232FE7
:10538000342F4427585FF3CF469537952795A79537
:10539000F0405395C9F77EF41F16BA0B620B730BDE
:1053A000840BBAF09150A1F0FF0FBB1F661F771F4F
:1053B000881FC2F70EC0BA0F621F731F841F48F404
:1053C000879577956795B795F7959E3F08F0B0CF8D
:1053D0009395880F08F09927EE0F97958795089574
:1053E000DF93DD27B92FBF7740E85FE31616170676
:1053F00048075B0718F4D92F0E94572B9F938F9370
:105400007F936F930E94AD2BE8E6F0E00E94EC2AB8
:105410000E9490282F913F914F915F910E941C28EC
:10542000DD2351F09058A2EA2AED3FE049EC5FE31A
:10543000D0785D270E949B29DF910C9490280E94D0
:10544000152BE3950C943E2B0E94382A0C9490283F
:105450000E94892858F00E94822840F029F45F3F7A
:1054600029F00C94792851110C94C4280C947F28AD
:105470000E94A12868F39923B1F3552391F3951B5A
:10548000550BBB27AA2762177307840738F09F5F65
:105490005F4F220F331F441FAA1FA9F335D00E2ED2
:1054A0003AF0E0E832D091505040E695001CCAF73F
:1054B0002BD0FE2F29D0660F771F881FBB1F261702
:1054C00037074807AB07B0E809F0BB0B802DBF01D9
:1054D000FF2793585F4F3AF09E3F510578F00C94A8
:1054E00079280C94C4285F3FE4F3983ED4F3869562
:1054F00077956795B795F7959F5FC9F7880F911DC9
:105500009695879597F90895E1E0660F771F881FB4
:10551000BB1F621773078407BA0720F0621B730B67
:10552000840BBA0BEE1F88F7E09508950E949D2A20
:105530006894B1110C94C42808950E94A92888F099
:105540009F5798F0B92F9927B751B0F0E1F0660F47
:10555000771F881F991F1AF0BA95C9F714C0B13088
:1055600091F00E94C328B1E008950C94C328672FDE
:10557000782F8827B85F39F0B93FCCF386957795B7
:105580006795B395D9F73EF49095809570956195A0
:105590007F4F8F4F9F4F0895DF93CF931F930F93AC
:1055A0008B01EC01E5E9F0E00E94EC2A0E949028D2
:1055B0009801AE018B01EC0160E070E080E89FE3B0
:1055C0000E9483290E946D2B9801AE010F911F91BB
:1055D000CF91DF910C941C28DF93CF931F930F93EF
:1055E000FF92EF92DF927B018C01689406C0DA2E65
:1055F000EF010E941C28FE01E894A59125913591A8
:1056000045915591A6F3EF010E949B29FE01970158
:10561000A801DA9469F7DF90EF90FF900F911F9146
:10562000CF91DF9108950C947F280E94A928D8F388
:10563000E894E0E0BB279F57F0F02AED3FE049EC0B
:1056400006C0EE0FBB0F661F771F881F28F0B23A07
:1056500062077307840728F0B25A620B730B840B3E
:10566000E3959A9572F7803830F49A95BB0F661FD0
:10567000771F881FD2F790480C94B82BEF93E0FF68
:1056800007C0A2EA2AED3FE049EC5FEB0E949B29AC
:105690000E9490280F90039401FC9058EDEBF0E0ED
:1056A0000C94CB2B0E94E52708F48FEF08959B0103
:1056B000AC0160E070E080E89FE30C94242A9F93A3
:1056C0000E94152B0F9007FCEE5F0C943E2B19F4F3
:1056D00016F40C947F280C94B62B0E94A928B8F3DA
:1056E0009923C9F3B6F39F57550B87FF0E94C42B2C
:1056F0000024A0E640EA900180585695979528F43A
:10570000805C660F771F881F20F026173707480731
:1057100030F4621B730B840B202931294A2BA69588
:1057200017940794202531254A2758F7660F771FCD
:10573000881F20F026173707480730F4620B730BD9
:10574000840B200D311D411DA09581F7B901842FD7
:105750009158880F9695879508959B01AC010C94FC
:1057600009280E94E527880B990B08959F3F31F087
:10577000915020F4879577956795B795880F911D7F
:105780009695879597F9089591505040660F771F29
:10579000881FD2F708959F938F937F936F93FF9302
:1057A000EF939B01AC010E940928EF91FF910E94A9
:1057B000EC2A2F913F914F915F910C940928DB01C6
:1057C0008F939F930E94FF28BF91AF91A29F800D5E
:1057D000911DA39F900DB29F900D11240895991BC8
:1057E00079E004C0991F961708F0961B881F7A95D8
:1057F000C9F78095089597FB072E16F4009407D0FB
:1058000077FD09D00E940F2C07FC05D03EF490953F
:1058100081959F4F0895709561957F4F0895AA1BBC
:10582000BB1B51E107C0AA1FBB1FA617B70710F08B
:10583000A61BB70B881F991F5A95A9F780959095BD
:10584000BC01CD010895EE0FFF1F0590F491E02DEE
:1058500009940F931F93CF93DF938230910510F437
:1058600082E090E0E0919406F091950630E020E02F
:10587000B0E0A0E0309799F42115310509F44AC051
:10588000281B390B24303105D8F58A819B8161159D
:10589000710589F1FB0193838283FE0111C0408170
:1058A00051810281138148175907E0F048175907C1
:1058B00099F4109761F012960C93129713961C931B
:1058C0003296CF01DF91CF911F910F9108950093F0
:1058D000940610939506F4CF2115310551F0421727
:1058E000530738F0A901DB019A01BD01DF01F8017E
:1058F000C1CFEF01F9CF9093950680939406CDCF59
:10590000FE01E20FF31F81939193225031093983F5
:105910002883D7CF2091920630919306232B41F410
:105920002091020130910301309393062093920657
:1059300020910001309101012115310541F42DB76D
:105940003EB74091040150910501241B350BE091B5
:105950009206F0919306E217F307A0F42E1B3F0B7B
:105960002817390778F0AC014E5F5F4F24173507D1
:1059700048F04E0F5F1F5093930640939206819319
:1059800091939FCFF0E0E0E09CCFCF93DF9300971F
:10599000E9F0FC01329713821282A0919406B09133
:1059A0009506ED0130E020E01097A1F420813181CF
:1059B000820F931F20919206309193062817390782
:1059C00009F061C0F0939306E0939206DF91CF91C6
:1059D0000895EA01CE17DF07E8F54A815B819E0151
:1059E00041155105B1F7E901FB83EA8349915991CA
:1059F000C40FD51FEC17FD0761F4808191810296D9
:105A0000840F951FE90199838883828193819B8309
:105A10008A83F0E0E0E012968D919C9113970097B5
:105A2000B9F52D913C911197CD010296820F931FEC
:105A300020919206309193062817390739F630974E
:105A400051F51092950610929406B0939306A09388
:105A50009206BCCFD383C28340815181840F951FAE
:105A6000C817D90761F44E5F5F4F88819981480F4D
:105A7000591F518340838A819B819383828321159F
:105A8000310509F0B0CFF0939506E09394069ECFD0
:105A9000FD01DC01C0CF13821282D7CFB0E0A0E0BD
:105AA000E4E5FDE20C940C298C01009751F4CB0144
:105AB0000E94292C8C01C801CDB7DEB7E0E10C941F
:105AC0002829FC01E60FF71F9C0122503109E2173B
:105AD000F30708F49DC0D901CD91DC911197C61749
