:100000000C9437010C945F010C945F010C945F0118
:100010000C945F010C945F010C945F010C945F01E0
:100020000C945F010C945F010C945F010C944512D9
:100030000C945F010C945F010C945F010C945F01C0
:100040000C94FB110C945F010C94C9110C94A31136
:100050000C945F010C945F010C945F010C945F01A0
:100060000C945F010C945F01084AD73B3BCE016EB4
:1000700084BCBFFDC12F3D6C74319ABD56833DDAFF
:100080003D00C77F11BED9E4BB4C3E916BAAAABE0E
:10009000000000803F072C7AA5BA6CC590DA3B932C
:1000A00065FC8BBC53F810FD3C5692834DBD879D7B
:1000B0003AB63DCBC9BF5BBE73DA0FC93F05A84C4A
:1000C000CDB2D44EB93836A9020C50B99186880801
:1000D0003CA6AAAA2ABE000000803F004E414E491D
:1000E0004E495459494E46CDCCCC3D0AD7233C17F6
:1000F000B7D13877CC2B329595E6241FB14F0A0043
:100100000020410000C84200401C4620BCBE4CCA32
:100110001B0E5AAEC59D7400407A10F35A00A072AF
:100120004E18090010A5D4E80000E8764817000032
:10013000E40B54020000CA9A3B000000E1F5050000
:100140000080969800000040420F000000A0860149
:10015000000000102700000000E803000000006419
:1001600000000000000A0000000000010000000084
:10017000002C76D888DC674F0823DFC1DFAE59E159
:10018000B1B796E5E3E453C63AE651997696E8E6C8
:10019000C28426EB898C9B62ED407C6FFCEFBC9C9B
:1001A0009F40F2BAA56FA5F490055A2AF75C936BAD
:1001B0006CF9676DC11BFCE0E40D47FEF520E6B568
:1001C00000D0ED902E0300943577050080841E0842
:1001D0000000204E0A000000C80C333333330F9860
:1001E0006E12831141EF8D2114893BE65516CFFE27
:1001F000E6DB18D1844B381BF77C1D901DA4BBE4B3
:1002000024203284725E228100C9F124ECA1E53DF4
:10021000270000000023002600290000000008003D
:1002200002010000030407000000000000000000BD
:10023000000000250028002B0000000000240027FB
:10024000002A00040404040404040402020202025A
:10025000020303030303030102040810204080018A
:100260000204081020010204081020008013112449
:100270001FBECFEFD8E0DEBFCDBF11E0A0E0B1E000
:10028000EAECF0E502C005900D92A03AB107D9F76B
:1002900026E0A0EAB1E001C01D92AD31B207E1F75E
:1002A00011E0C7E3D1E004C02197FE010E945B2664
:1002B000C633D107C9F70E9417140C9463280C9415
:1002C000000090E0FC01E95AFD4F24918D5B9D4FA9
:1002D000FC018491882399F090E0880F991FFC011C
:1002E000E75CFD4FA591B491FC01E15DFD4F859167
:1002F00094918FB7F894EC91E22BEC938FBF089513
:100300003F924F925F926F927F928F929F92AF92A5
:10031000BF92CF92DF92EF92FF920F931F93CF93F2
:10032000DF93C82F6A017B0120E030E0A901CB01F7
:10033000B6010E94E92187FDC8C020E030E044E317
:1003400053E4C701B6010E948A2518160CF4C1C0F7
:10035000D0E0FE01EE0FFF1FEE0FFF1FE253FA4F3A
:10036000C586D686E786F08A258D368D478D50A1C5
:10037000C701B6010E94BC236B017C014B015C01EB
:100380003090DA058E01000F111F332009F4B3C03D
:1003900020E030E04AEF53E4B601C7010E94E921B2
:1003A00087FF5EC020E030E040E251E4B601C701C3
:1003B0000E944F222B013C0120E030E0A9010E9465
:1003C000E92187FD8DC020E030E041EE54E4C30117
:1003D000B2010E948A2518160CF486C0F801EC0FB1
:1003E000FD1FE253FA4F81819DE7892E912C881AD7
:1003F000910887FD9394880C991C880C991C092CF2
:10040000000CAA08BB08828131E7C32E32E0D32E4C
:10041000C81AD10887FDD394CC0CDD1CCC0CDD1C94
:100420000D2C000CEE08FF08C818D908EA08FB08D4
:10043000C301B2010E94CE24A70196010E94172693
:1004400028E037E040E050E00E941023CA01B901E3
:10045000680D791D8A1D9B1D0E94F0214B015C01D6
:10046000C00FD11FC253DA4FC881CC30E0F420E076
:1004700030E040E851E4B401C5010E944F221FB7AB
:10048000F89426E0C29FE0011124CB57DA4F20E018
:1004900030E040E05EE30E944F220E94D5247C833E
:1004A0006B833D821FBFDF91CF911F910F91FF9012
:1004B000EF90DF90CF90BF90AF909F908F907F9004
:1004C0006F905F904F903F900895C12CD12C760192
:1004D0003FCFC12CD12CE4E3EE2EE3E4FE2E38CF47
:1004E000412C512C32017ACF412C512C51EE652EEA
:1004F00054E4752E73CFB601C7010E94CE249B0130
:10050000643F41E074070CF03EC0F801EC0FFD1FA2
:10051000E253FA4F2181ADE7CA2ED12CC21AD1087D
:1005200027FDD394CC0CDD1CCC0CDD1C0D2C000C59
:10053000EE08FF08428121E732E0241B310947FD24
:100540003395220F331F220F331F032E000C440B51
:10055000550B2C193D094E095F09DB01653B7105FF
:1005600014F0A4EBB0E0B7FF02C0B0E0A0E00E943E
:100570003A2324EB30E040E050E00E9410232C0DA1
:100580003D1D4E1D5F1DC00FD11FC253DA4FE881C4
:10059000EC3008F088CF49818DE790E0841B910909
:1005A00047FD9395880F991F880F991F28173907C2
:1005B0007CF04A8181E792E0841B910947FD939585
:1005C000880F991F880F991F281739070CF4C90144
:1005D0000297880F991F2FB7F89436E0E39FF00138
:1005E0001124EB57FA4F928381832FBF5CCF8F92F8
:1005F0009F92AF92BF92CF92DF92EF92FF920F93B2
:100600001F9349015A016701AB01BC0180E00E94C0
:100610008001B501A40181E00E948001B801A6011A
:1006200082E01F910F91FF90EF90DF90CF90BF90ED
:10063000AF909F908F900C9480012F923F924F9299
:100640005F926F927F928F929F92AF92BF92CF9262
:10065000DF92EF92FF921F93CF93DF93CDB7DEB778
:1006600028970FB6F894DEBF0FBECDBF9E838D8353
:1006700078876F831A01DC018D909D90AD90BC90BE
:10068000A5019401C501B4010E94E925811188C02A
:10069000AF81B8858D919D910D90BC91A02D8983DE
:1006A0009A83AB83BC839C01AD01CD01B9010E944B
:1006B000E925811175C0F101C080D180E280F3800D
:1006C000A7019601C701B6010E94E925811168C002
:1006D0002091EF053091F0054091F1055091F20520
:1006E00069817A818B819C810E94BC232B013C0112
:1006F00020E030E040EA50E40E94E92187FD4EC04E
:1007000020E030E040EF52E4C301B2010E948A25AC
:1007100018160CF443C02091F3053091F405409174
:10072000F5055091F605C701B6010E94BC232B01C7
:100730003C0120E030E040EA50E40E94E92187FDDE
:100740002DC020E030E040EF52E4C301B2010E942E
:100750008A2518161CF129813A814B815C8160E061
:1007600070E084E393E40E94BB23A70196010E94FA
:10077000BB236B017C0120E030E046E153E40E94A2
:100780008A2518165CF020E030E040EF51E4C70104
:10079000B6010E94E92111E087FF03C013E001C008
:1007A00012E020E030E0A901C501B4010E94E92176
:1007B00087FD51C020E030E044E353E4C501B401BB
:1007C0000E948A2518160CF44AC0AD81BE818D9214
:1007D0009D92AD92BC921397EF81F88580809180B5
:1007E000A280B38020E030E0A901C501B4010E94DD
:1007F000E92187FD3BC020E030E044E353E4C5013C
:10080000B4010E948A251816ACF1AF81B8858D928B
:100810009D92AD92BC921397F10180809180A2804D
:10082000B38020E030E0A901C501B4010E94E921B4
:1008300087FD27C020E030E044E353E4C501B40164
:100840000E948A25181604F5812C912C84E3A82E89
:1008500083E4B82E19C0812C912C5401B6CF812C81
:10086000912C24E3A22E23E4B22EAFCF812C912C25
:100870005401CBCF812C912C94E3A92E93E4B92E73
:10088000C4CF812C912C5401D1018D929D92AD92B7
:10089000BC921397812F28960FB6F894DEBF0FBE37
:1008A000CDBFDF91CF911F91FF90EF90DF90CF9060
:1008B000BF90AF909F908F907F906F905F904F9080
:1008C0003F902F900895AF92BF92CF92DF92EF9218
:1008D000FF920F931F93CF93DF936C017B018B01EA
:1008E000040F151FEB015E01AE18BF08C017D1073A
:1008F00059F06991D601ED91FC910190F081E02DC4
:10090000C6010995892B79F7C501DF91CF911F9118
:100910000F91FF90EF90DF90CF90BF90AF90089530
:10092000FC01538D448D252F30E0842F90E0821BF5
:10093000930B541710F0CF96089501970895FC017A
:10094000918D828D981761F0A28DAE0FBF2FB11DD2
:100950005D968C91928D9F5F9F73928F90E008952A
:100960008FEF9FEF0895FC01918D828D981731F0E4
:10097000828DE80FF11D858D90E008958FEF9FEF38
:100980000895FC01918D228D892F90E0805C9F4F0E
:10099000821B91098F739927089588EE94E00E9435
:1009A000C10421E0892B09F420E0822F089580E022
:1009B00090E0892B29F00E94CD0481110C94000055
:1009C0000895FC01A48DA80FB92FB11DA35ABF4FE4
:1009D0002C91848D90E001968F739927848FA6893E
:1009E000B7892C93A089B1898C91837080648C9392
:1009F000938D848D981306C00288F389E02D808141
:100A00008F7D80830895EF92FF920F931F93CF9372
:100A1000DF93EC0181E0888F9B8D8C8D98131AC039
:100A2000E889F989808185FF15C09FB7F894EE8920
:100A3000FF896083E889F98980818370806480837D
:100A40009FBF81E090E0DF91CF911F910F91FF90C8
:100A5000EF900895F62E0B8D10E00F5F1F4F0F7370
:100A60001127E02E8C8D8E110CC00FB607FCFACF2B
:100A7000E889F989808185FFF5CFCE010E94E104E4
:100A8000F1CFEB8DEC0FFD2FF11DE35AFF4FF082FC
:100A90009FB7F8940B8FEA89FB8980818062CFCF62
:100AA000CF93DF93EC01888D8823B9F0AA89BB89A5
:100AB000E889F9898C9185FD03C0808186FD0DC090
:100AC0000FB607FCF7CF8C9185FFF2CF808185FFB1
:100AD000EDCFCE010E94E104E9CFDF91CF910895DF
:100AE000833081F028F4813099F08230A9F00895A4
:100AF0008730A9F08830C9F08430B1F4809180004B
:100B00008F7D03C0809180008F778093800008954F
:100B100084B58F7784BD089584B58F7DFBCF809198
:100B2000B0008F778093B00008958091B0008F7DE2
:100B3000F9CFCF93DF93282F30E0F901E55EFD4F29
:100B40008491F901E95AFD4FD491F901ED5BFD4F14
:100B5000C491CC23A1F081110E947005EC2FF0E02C
:100B6000EE0FFF1FEF5EFD4FA591B491EC91ED23C9
:100B700081E090E009F480E0DF91CF91089580E07A
:100B800090E0FACF1F93CF93DF93282F30E0F90145
:100B9000E55EFD4F8491F901E95AFD4FD491F901C9
:100BA000ED5BFD4FC491CC23A9F0162F81110E945B
:100BB0007005EC2FF0E0EE0FFF1FE15DFD4FA591FA
:100BC000B4918FB7F894EC91111108C0D095DE2341
:100BD000DC938FBFDF91CF911F910895DE2BF8CF6B
:100BE0002FB7F89460917C0470917D0480917E040D
:100BF00090917F042FBF0895892B79F41092800083
:100C000082E0809381001092850010928400B19A56
:100C100080916F00826080936F0008952F923F92C1
:100C20004F925F926F927F928F929F92AF92BF92FC
:100C3000CF92DF92EF92FF920F931F93CF93DF93A8
:100C4000CDB7DEB72B970FB6F894DEBF0FBECDBF82
:100C500029013A011801870120E030E040E251E427
:100C60000E945C244B015C0120E030E040E251E452
:100C7000C301B2010E945C24A50194010E94BB2320
:100C800069837A838B839C8321E02B87C701FF0CC8
:100C9000AA0BBB0B8F839887A987BA879B85692E80
:100CA000712C061517050CF45AC0692F70E090E0FE
:100CB00080E00E94EE216B017C016F81788589853F
:100CC0009A850E94F0219B01AC01C701B6010E94E8
:100CD0005C246B017C01A1E06A1AA0EC7A0A660C24
:100CE000771C660C771CF101E60DF71DFE83ED8382
:100CF000A7019601C701B6010E944F2229813A81BE
:100D00004B815C810E944F222B013C0120E030E0AE
:100D100040E050ECC701B6010E944F2220E030E0D5
:100D200040E450E40E94BC239B01AC01C301B2012A
:100D30000E944F22A50194010E94BC2320E030E0D4
:100D400040E251E40E944F22AD81BE816D937D93BC
:100D50008D939C931397BB85BF5FBB879FCF2B96CB
:100D60000FB6F894DEBF0FBECDBFDF91CF911F91BC
:100D70000F91FF90EF90DF90CF90BF90AF909F903A
:100D80008F907F906F905F904F903F902F9008953D
:100D9000CF93DF93CDB7DEB760970FB6F894DEBF81
:100DA0000FBECDBF92EF980F8E3008F0892F87705D
:100DB0008064FE013196BE016F5E7F4FAF0180936C
:100DC0007C0090917A00906490937A0090917A00E0
:100DD00096FDFCCF9091780020917900322F292F39
:100DE000219331936E177F0751F780E090E0E92F50
:100DF000F0E09F01280F311D27303105B4F4EE0FCC
:100E0000FF1FDA01AE0FBF1F2D913C911197329653
:100E1000E40FF51F608171816217730720F46D93F1
:100E20007C93318320839F5FE2CF8F5F8830F1F620
:100E30008D819E812F813885820F931F29853A8568
:100E4000820F931F2B853C85820F931F9695879564
:100E50009695879560960FB6F894DEBF0FBECDBF0E
:100E6000DF91CF9108958F929F92AF92BF92CF92D0
:100E7000DF92EF92FF921F93CF93DF93182FC82F2B
:100E8000D0E0833009F04EC08091020690E00E94CD
:100E9000C806B0E0A0E09C01AD012256310941092D
:100EA0005109A4EBB0E00E942F232AE631E040E094
:100EB00050E00E941023CA01B9010E94F021CC0F1A
:100EC000DD1FCC0FDD1FC253DA4F2D8D3E8D4F8DB0
:100ED00058A10E94BB236B017C0120E030E0A901F6
:100EE0000E94E92187FD7EC020E030E044E353E426
:100EF000C701B6010E948A25181634F4C12CD12CE2
:100F000084E3E82E83E4F82EC701B601DF91CF9188
:100F10001F91FF90EF90DF90CF90BF90AF909F9088
:100F20008F900895FE01E253FA4F81A990E00E944C
:100F3000C806113009F445C0A0F11230A1F077EDD8
:100F4000872E73EA972E70EFA72E7EE3B72EE4E18B
:100F5000CE2EEEEADE2EEAE2EE2EE2ECFE2E13308C
:100F600089F00E944328F3E38F2E982CF3EBAF2EE9
:100F7000FEE3BF2EADECCA2EACECDA2EACEEEA2EC0
:100F8000A1ECFA2EBC01990F880B990B0E94F0215D
:100F9000A50194010E944F22A70196010E94BC2343
:100FA0008ECF53E3852E982C53EBA52E5EE3B52E02
:100FB0006AE9C62E69E9D62E63EFE62E61ECF62EBD
:100FC000E1CF3BE7832E34E1932E3EEAA32E3EE3AE
:100FD000B32E43ECC42E45EFD42E42EEE42E41EC6A
:100FE000F42ED0CFC12CD12C76018ECFFC010190F4
:100FF0000020E9F73197AF01481B590BBC0188EE7F
:1010000094E00C9463048F929F92AF92BF920F93DF
:101010001F93CF93DF93CDB7DEB7A1970FB6F894A8
:10102000DEBF0FBECDBF19A2423008F44AE08E01E8
:101030000F5D1F4F842E912CB12CA12CA501940182
:101040000E947923E62FB901CA01EA30F4F4E05D89
:10105000D801EE938D01232B242B252B79F790E0DB
:1010600080E0109719F0CD010E94F607A1960FB607
:10107000F894DEBF0FBECDBFDF91CF911F910F91CE
:10108000BF90AF909F908F900895E95CE1CF0C9452
:10109000F6072F923F924F925F926F927F928F92BC
:1010A0009F92AF92BF92CF92DF92EF92FF920F93F7
:1010B0001F93CF93DF93CDB7DEB72B970FB6F8947E
:1010C000DEBF0FBECDBF2B013C0129833A834B838A
:1010D0005C83ED82FE820F8318878601BA86A9861B
:1010E000140188A18B8720E030EC4CE455ECC3015F
:1010F0000E94E92187FDBAC120E030EC4CE455E4C0
:10110000C301B2010E948A2518160CF4B7C120E071
:1011100030EC4CE455EC69817A818B819C810E9492
:10112000E92187FDB3C120E030EC4CE455E469814E
:101130007A818B819C810E948A2518160CF4AFC19C
:1011400020E030EC4CE455EC6D817E818F819885F8
:101150000E94E92187FDA8C120E030EC4CE455E471
:101160006D817E818F8198850E948A2518160CF4E6
:10117000A4C120E030E040E251E46D817E818F81A6
:1011800098850E944F220E94CE24072E000C880BC7
:10119000990B0E94F02120E030E040E251E40E94EF
:1011A0005C244B015C0120E030E042E853E40E9403
:1011B0008A2518160CF4CDC120E030E040EF52EC47
:1011C000C501B4010E94E92187FDC3C120E030E0E0
:1011D00040E251E469817A818B819C810E944F2297
:1011E0000E94CE24072E000C880B990B0E94F02140
:1011F00020E030E040E251E40E945C246B017C017D
:1012000026E636EE46ED52E4C501B4010E94BB234A
:1012100020E030E444E153E40E945C244B015C0193
:101220009B85911109C020E030E0A901C701B601FA
:101230000E94E92187FD8DC120E030E040E251E4C9
:10124000C301B2010E944F220E94CE24072E000C3F
:10125000880B990B0E94F02120E030E040E251E43D
:101260000E945C242B013C0120E030E0A9010E9497
:10127000E921811127C180E090E0A4EBB2E4F801FC
:1012800080839183A283B383D8018D919D910D902A
:10129000BC91A02D89839A83AB83BC8320E030E08E
:1012A00044EB52E4BC01CD010E94E921882309F4FA
:1012B00049C126EE3EE245E652E469817A818B819E
:1012C0009C810E945C240E9457249B01AC01C301B5
:1012D000B2010E945C2429E23CE549EA51E40E9403
:1012E000BB2320E030E048EC51E40E94BB2320E027
:1012F00030E444E153E40E945C246B017C01AC01C6
:101300009B01C501B4010E945C240E94282426EEA2
:101310003EE245E652E40E944F222B013C01A5012A
:101320009401C501B4010E944F224B015C01A70149
:101330009601C701B6010E944F229B01AC01C50175
:10134000B4010E94BC230E94A5256B017C01AC0165
:101350009B010E944F224B015C0123E937E745E9DD
:101360005FE30E94BC2320E030E040E85FE30E949E
:10137000BB2369837A838B839C8325E531E54AE02F
:1013800050E4C701B6010E944F229B01AC01698164
:101390007A818B819C810E945C240E94AA2326EE84
:1013A0003EE245E652E40E944F22F10160837183E0
:1013B0008283938320E030E040E85FE3C501B4011D
:1013C0000E94BC2323E937E745E95FE30E94BB2382
:1013D0004B015C01A7019601C701B6010E94BC2325
:1013E0009B01AC01C501B4010E945C240E94AA23A8
:1013F00026EE3EE245E652E40E944F22A30192010E
:101400000E94BC23A985BA856D937D938D939C938F
:101410001397A3019201F10160817181828193810F
:101420000E94BB23D1016D937D938D939C93139761
:10143000A10169857A85C8012B960FB6F894DEBFA5
:101440000FBECDBFDF91CF911F910F91FF90EF9015
:10145000DF90CF90BF90AF909F908F907F906F90D4
:101460005F904F903F902F900C941D03412C90EC77
:10147000592E9CE4692E95EC792E49CE412C80ECB6
:10148000582E8CE4682E85E4782E41CE80E090ECD6
:10149000ACE4B5EC89839A83AB83BC8351CE80E006
:1014A00090ECACE4B5E4F6CF80E090ECACE4B5ECC5
:1014B0008D839E83AF83B8875CCE80E090ECACE4F4
:1014C000B5E4F6CF20E030E0A901C301B2010E94EB
:1014D0008A251816A4F4A3019201C701B6010E943F
:1014E0005C240E94282426EE3EE245E652E40E9457
:1014F0004F22D8016D937D938D939C93139720E099
:1015000030E0A901C301B2010E94E92187FFBCCEEE
:10151000A3019201C701B6010E945C240E94282405
:1015200026EE3EE245E652E40E944F2220E030E003
:1015300044E353E40E94BC23F801608371838283F7
:101540009383A2CE29E23CE549EA51E4C701B60102
:10155000C6CE82E02B960FB6F894DEBF0FBECDBF8D
:10156000DF91CF911F910F91FF90EF90DF90CF907F
:10157000BF90AF909F908F907F906F905F904F90B3
:101580003F902F9008952F923F924F925F926F92CB
:101590007F928F929F92AF92BF92CF92DF92EF9203
:1015A000FF920F931F93CF93DF9300D000D000D012
:1015B000CDB7DEB78C011B015E834D8326EE3EE284
:1015C00045E652E46091DF057091E0058091E10508
:1015D0009091E2050E945C244B015C010E9457241B
:1015E0002B013C0126EE3EE245E652E46091E30524
:1015F0007091E4058091E5059091E6050E945C24D8
:101600006B017C010E94572469837A838B839C83BE
:1016100020E030E444E153E4C301B2010E944F22D0
:101620002B013C0123E333E340E253E469817A81F7
:101630008B819C810E944F229B01AC01C301B201AE
:101640000E94BC2329E23CE549EA51E40E94BC2304
:1016500020E030E048EC51E40E94BC232B013C0127
:10166000C501B4010E9497254B015C01C701B60179
:101670000E9497256B017C0126EE3EE245E652E48E
:101680006091DB057091DC058091DD059091DE05B0
:101690000E945C240E9457249B01AC01C301B2014B
:1016A0000E944F22F801608371838283938326EE28
:1016B0003EE245E652E46091DB057091DC058091E5
:1016C000DD059091DE050E945C240E9497259B0118
:1016D000AC01C301B2010E944F22F101608371830A
:1016E0008283938320E030E444E153E4C501B401F4
:1016F0000E944F224B015C0123E333E340E253E4B9
:10170000C701B6010E944F229B01AC01C501B40183
:101710000E94BB2326E636EE46ED52E40E94BC232F
:10172000ED81FE81608371838283938381E02696BD
:101730000FB6F894DEBF0FBECDBFDF91CF911F91E2
:101740000F91FF90EF90DF90CF90BF90AF909F9060
:101750008F907F906F905F904F903F902F90089563
:101760002F923F924F925F926F927F928F929F92B1
:10177000AF92BF92CF92DF92EF92FF920F931F939F
:10178000CF93DF93CDB7DEB7C454D1090FB6F89429
:10179000DEBF0FBECDBF69A77AA78BA79CA72DA7D9
:1017A0003EA74FA758ABE9AAFAAA0BAB1CABADA258
:1017B000BEA2CFA2D8A620E030E0A901C601B501A3
:1017C0000E94E92187FD88C320E030E048EC52E424
:1017D000C601B5010E94E92187FF59C0C601B501C4
:1017E0000E94CE249B01AC01AFEFB0E00E942F23FA
:1017F00023E630E040E050E00E9410232093DA0519
:1018000081E08F93CE0101964C01DE0115965D01BA
:10181000FE0139966F01E9A8FAA80BA91CA92DA50C
:101820003EA54FA558A969A57AA58BA59CA50E94A0
:101830004908782E0F90F2E08F1771F0E980FA8056
:101840000B811C812D813E814F81588569857A8568
:101850008B859C850E94F702872DCC5BDF4F0FB6EE
:10186000F894DEBF0FBECDBFDF91CF911F910F91D6
:10187000FF90EF90DF90CF90BF90AF909F908F90B0
:101880007F906F905F904F903F902F9008958FEFD3
:101890008093DA0519A21AA21BA21CA21D8E1E8E0D
:1018A0001F8E18A2198E1A8E1B8E1C8E1D8A1E8AE0
:1018B0001F8A188E198A1A8A1B8A1C8A1D861E8600
:1018C0001F86188A19861A861B861C861D821E8210
:1018D0001F82188619821A821B821C8281E08F93D4
:1018E000CE010D964C01DE0151965D01FE0175960B
:1018F0006F01E9A8FAA80BA91CA92DA53EA54FA523
:1019000058A969A57AA58BA59CA50E944908782E9F
:101910000F90F2E08F1709F49FCF20E030E0A9018B
:101920006DA17EA18FA198A50E94E921811182C09D
:101930008FEF9FEF9093830480938204ED84FE8465
:101940000F85188929893A894B895C896D897E8937
:101950008F89988D0E94F7027724739444244A94C7
:10196000542CC0908204D0908304D7FC75CFA090F3
:101970008004B0908104CA14DB040CF06DCF0E9487
:10198000F005009172041091730420917404309159
:101990007504AB01BC01401B510B620B730B209112
:1019A000700430917104C29EC001C39E900DD29EFE
:1019B000900D1124B0E0A0E0481759076A077B0793
:1019C00080F28601000F111F000F111FF801E0586F
:1019D000FC4F7F01C80180579D4F4C01D801A05694
:1019E000BE4F1D01AF01BC01CD010E941D0382301D
:1019F00089F0F701E080F18002811381D4012D91FB
:101A00003D914D915C91F101608171818281938161
:101A10000E94F702FFEFCF1ADF0AD0928304C09230
:101A20008204CA14DB040CF49CCF509283044092CD
:101A3000820497CF8091DB059091DC05A091DD05B4
:101A4000B091DE0589AF9AAFABAFBCAF8091DF0537
:101A50009091E005A091E105B091E20521968CAF4F
:101A60009DAFAEAFBFAF21978091E3059091E405A4
:101A7000A091E505B091E60525968CAF9DAFAEAF80
:101A8000BFAF2597AE014F5F5F4FBE016B5F7F4FCA
:101A9000CE0109960E94C30A29AD3AAD4BAD5CADAB
:101AA0006D897E898F89988D0E94BB236B017C0193
:101AB00020E030E0A9010E948A252601370118168E
:101AC00024F077FA709477F8709421962CAD3DADA0
:101AD0004EAD5FAD219769897A898B899C890E9477
:101AE000BB234B015C0120E030E0A9010E948A2564
:101AF000181624F0B7FAB094B7F8B094A301920185
:101B0000C501B4010E94E92187FF7BC120E030E0DC
:101B1000A901C701B6010E948A2518160CF06DC1F3
:101B2000C701B6010E94CE248B01072E000C880B42
:101B3000990B0E94F0214B015C0125962CAD3DAD27
:101B40004EAD5FAD25976D857E858F8598890E9406
:101B5000BB236B017C0120E030E0A9010E948A25B3
:101B6000181624F0F7FAF094F7F8F094A70196010C
:101B7000C501B4010E948A2518162CF0C701B601D0
:101B80000E94CE248B0134E0732E101611060CF047
:101B9000E5CE0D33110514F00CE310E089859A852C
:101BA000AB85BC858DAB9EABAFABB8AF9C01AD0137
:101BB00069A57AA58BA59CA50E94BB232B013C019E
:101BC0002D813E814F8158856DA57EA58FA598A951
:101BD0000E94BB234B015C0129813A814B815C81CE
:101BE00069A97AA98BA99CA90E94BB236B017C01DE
:101BF000A3019201C301B2010E944F222B013C01BB
:101C0000A5019401C501B4010E944F229B01AC01C2
:101C1000C301B2010E94BC234B015C01A7019601E4
:101C2000C701B6010E944F229B01AC01C501B4015E
:101C30000E94BC230E94A5254B015C0120E030E0FE
:101C40004AE754E46DA17EA18FA198A50E948A2540
:101C5000181644F480E090E0AAE7B4E48DA39EA3B4
:101C6000AFA3B8A7B801012E000C880B990B0E94F6
:101C7000F0216B017C012DA13EA14FA158A5C5010A
:101C8000B4010E945C2420E030E04AE754E40E9462
:101C90004F22A70196010E945C240E94D5241B01BB
:101CA0006531710528F190E080E00E94EE2120E08E
:101CB00030E040EA51E40E945C24A70196010E94B2
:101CC0004F226B017C0120E030E040E752E40E94AB
:101CD000E92164E1262E312C0CE310E087FF08C0D7
:101CE000C701B6010E94CE248B0174E1272E312C4E
:101CF00038010D3311051CF05CE3652E712C730166
:101D000000EA11E029A53AA54BA55CA56DA97EA91D
:101D10008FA998AD0E940E066D817E818F81988576
:101D200000E912E02DA53EA54FA558A90E940E0678
:101D300069817A818B819C8100E813E029A93AA905
:101D40004BA95CA90E940E06E0EAF1E0FEA7EDA710
:101D500080E992E09EA38DA31AA709A7512C412CDC
:101D6000461457040CF079C0E9A5FAA5E080F1808B
:101D700002811381ADA1BEA12D913D914D915C9148
:101D8000EDA5FEA56081718182819381F1E0FF93D1
:101D9000DE0159964D01FE017D965F0118966D0199
:101DA0000E9449080F90813079F589A19AA1ABA1D1
:101DB000BCA1EDA5FEA581939193A193B193FEA73C
:101DC000EDA78D8D9E8DAF8DB8A1EDA1FEA1819364
:101DD0009193A193B193FEA3EDA3898D9A8DAB8DC1
:101DE000BC8DE9A5FAA581939193A193B193FAA72C
:101DF000E9A7FFEF4F1A5F0AB3CFC701B6019058AA
:101E000091CEC501B4018ECE2D893E894F89588D62
:101E1000730100EA11E069AD7AAD8BAD9CAD0E9413
:101E20000E0629893A894B895C8900E912E02196DE
:101E30006CAD7DAD8EAD9FAD21970E940E062D85B8
:101E40003E854F85588900E813E025966CAD7DAD41
:101E50008EAD9FAD25970E940E06C3010197880F96
:101E6000991F880F991FFC01E056FE4F4D895E892E
:101E70006F89788D4083518362837383FC01E057BF
:101E8000FD4F49895A896B897C89408351836283DC
:101E9000738380589C4F4D855E856F857889DC0102
:101EA0004D935D936D937C931397309271042092C0
:101EB00070047092810460928004109283041092E6
:101EC00082040E94F00560937204709373048093FF
:101ED00074049093750440CD82E0782EBDCCCF92EF
:101EE000DF92EF92FF92CF93DF936C01990FEE0890
:101EF000FF08F7FE19C06DE288EE94E00E9403052A
:101F0000EC0166277727CB016C197D098E099F09A3
:101F10004AE00E9403088C0F9D1FDF91CF91FF9034
:101F2000EF90DF90CF9008954AE0C701B601DF91AE
:101F3000CF91FF90EF90DF90CF900C9403080F9318
:101F40001F93CF93DF938C01EB01181619065CF4F5
:101F500080E391E00E944708C8010E946F0F84E36C
:101F600091E00E94470882E391E00E9447084C817B
:101F70005D816881798188EE94E00E94630486E344
:101F800091E0DF91CF911F910F910C94F607CF93C1
:101F9000DF93EC01181619065CF480E391E00E94CF
:101FA0004708CE010E946F0F84E391E00E9447082A
:101FB00089E391E00E94F60786E391E0DF91CF91FB
:101FC0000C94F6070F931F93CF93DF938C01EB01D3
:101FD000181619065CF480E391E00E944708C801D6
:101FE0000E946F0F84E391E00E9447088CE391E028
:101FF0000E944708BE0190E080E04AE00E9403088A
:1020000086E391E0DF91CF911F910F910C94F60739
:10201000FC0180819181009711F00C94FD260895B8
:10202000EF92FF920F931F93CF93DF93EC017B010D
:10203000198218821B821A821D821C82FB01019068
:102040000020E9F731978F01061B170BB8016F5F6E
:102050007F4F90E080E00E9486270097B9F0998337
:1020600088831B830A832C813D81232B11F4FC017F
:1020700010821D830C83B70188819981DF91CF91F4
:102080001F910F91FF90EF900C945C2888819981AB
:10209000009711F00E94FD26198218821D821C8271
:1020A0001B821A82DF91CF911F910F91FF90EF90C9
:1020B00008952F923F924F925F926F927F928F92EC
:1020C0009F92AF92BF92CF92DF92EF92FF920F93C7
:1020D0001F93CF93DF93CDB7DEB7C057D1090FB6AB
:1020E000F894DEBF0FBECDBFCB57DF4FC880D9807D
:1020F000C558D040C957DF4F68807980C758D04055
:10210000D301F30110E000E0819148019FEF891AAB
:10211000990A882329F0853209F048018401F4CF17
:10212000F60110820115110571F58D91882311F0CA
:102130008193FBCF1082E1E0F0E0EC0FFD1FE00F98
:10214000F11F1082BE016F5F7F4FC6010E945128B0
:10215000C401C059DF4F0FB6F894DEBF0FBECDBF2C
:10216000DF91CF911F910F91FF90EF90DF90CF9073
:10217000BF90AF909F908F907F906F905F904F90A7
:102180003F902F9008957E01F9E8EF0EF11C10E0CA
:1021900000E0B12CA12C82E3282E312CF301EA0DB2
:1021A000FB1D8081882339F2853209F06CC08FEFE6
:1021B000A81AB80AE1E0F0E0EC0FFD1FE00FF11FF4
:1021C0001082BE016F5F7F4FC6010E9451281982A5
:1021D000F301EA0DFB1D80818636B9F144F48336A4
:1021E00009F449C0843671F010E000E063C08C3619
:1021F000E9F08337C9F787010E5F1F4FF701608150
:1022000071810FC087010E5F1F4F4AE0BE016C5CF9
:102210007F4FF701808191810E94DB1DBE016C5CC4
:102220007F4FC6010E9451287801DECF87010C5FE5
:102230001F4FF70160817181828193812AE0AE0195
:102240004C5C5F4F0E94E61DE9CF2701F4E04F0E82
:10225000511CF70160817181828193818E0109593E
:102260001F4F22E044E00E948D1DB801C6010E946C
:1022700051287201B9CF87010E5F1F4FF70180818E
:102280008CAB1DAACBCFE1E0F0E0EC0FFD1FE00F1F
:10229000F11F8083C8010196B1010E9433268C0191
:1022A000892B41F41BAABE016F5F7F4FC6010E94BC
:1022B00051281982FFEFAF1ABF0A70CFEF92FF9239
:1022C0000F931F93CF93DF93CDB7DEB7E8970FB689
:1022D000F894DEBF0FBECDBF672B99F58C018EE35E
:1022E00091E09F938F9384E491E09F938F93CE012D
:1022F00001967C019F938F930E945910B701CE01E4
:10230000C3960E941010BE016D5C7F4FC8010E94F1
:102310009F0FCE01C3960E9408100F900F900F9050
:102320000F900F900F9080E0E8960FB6F894DEBF04
:102330000FBECDBFDF91CF911F910F91FF90EF9016
:10234000089585E1F1CF1F920F920FB60F921124DD
:102350002F933F934F935F936F937F938F939F93AD
:10236000AF93BF93EF93FF9388EE94E00E94E10454
:10237000FF91EF91BF91AF919F918F917F916F915D
:102380005F914F913F912F910F900FBE0F901F9033
:1023900018951F920F920FB60F9211242F938F93BF
:1023A0009F93EF93FF93E091F804F091F9048081FB
:1023B000E091FE04F091FF0482FD1BC090818091AA
:1023C00001058F5F8F7320910205821741F0E09124
:1023D0000105F0E0E851FB4F958F80930105FF91D7
:1023E000EF919F918F912F910F900FBE0F901F90A3
:1023F00018958081F4CF1F920F920FB60F9211247F
:102400002F933F938F939F93AF93BF9380917C04BF
:1024100090917D04A0917E04B0917F0430917B0463
:1024200023E0230F2D3758F50196A11DB11D2093F0
:102430007B0480937C0490937D04A0937E04B093EE
:102440007F048091770490917804A0917904B091F1
:102450007A040196A11DB11D8093770490937804AE
:10246000A0937904B0937A04BF91AF919F918F911B
:102470003F912F910F900FBE0F901F90189526E857
:10248000230F0296A11DB11DD2CF1F920F920FB63E
:102490000F9211242F933F934F935F936F937F93EA
:1024A0008F939F93AF93BF93CF93DF93EF93FF935C
:1024B00080917604C091CD05D0E087FF24C01092B2
:1024C000850010928400809176048F5F809376045B
:1024D00080917604082E000C990B8C179D0724F42C
:1024E000809176048C307CF18091840090918500FD
:1024F000049680349C4908F4F9C08091840090913E
:1025000085000496F5C080917604082E000C990B86
:102510008C179D07C4F63091760426E03203F00153
:102520001124EB57FA4F808186FFCDCF309176048E
:102530003203F0011124EB57FA4F808160E08F7372
:102540000E94C205C0CF3091760426E03203F0012C
:102550001124EB57FA4F8581882309F48AC0309102
:102560007604409176044203F0011124EB57FA4FB0
:10257000818192813203F0011124EB57FA4F43819C
:1025800054818417950708F048C040917604309133
:1025900076043203F0011124EB57FA4F6181728106
:1025A0004203D0011124AB57BA4F15968C91860F78
:1025B000972F911D92838183309176044091760408
:1025C0004203F0011124EB57FA4F818192813203CB
:1025D000F0011124EB57FA4F43815481841795077A
:1025E00008F447C040917604309176044203F0012C
:1025F0001124EB57FA4F838194813203F0011124A7
:10260000EB57FA4F92838183309176043203F001C5
:102610001124EB57FA4F15822CC04091760430916B
:1026200076043203F0011124EB57FA4F8181928135
:102630004203D0011124AB57BA4F15963C91831B2E
:10264000910992838183309176044091760442030C
:10265000F0011124EB57FA4F818192813203F0018E
:102660001124EB57FA4F438154814817590708F05A
:10267000B9CF80918400909185003091760426E056
:102680003203F0011124EB57FA4F41815281840F3C
:10269000951F9093890080938800309176043203CF
:1026A000F0011124EB57FA4F808186FF0CC0309166
:1026B00076043203F0011124EB57FA4F808161E078
:1026C0008F730E94C205FF91EF91DF91CF91BF916F
:1026D000AF919F918F917F916F915F914F913F91BA
:1026E0002F910F900FBE0F901F90189580E49CE9DA
:1026F00090938900809388008FEF80937604E3CFD6
:102700001092EB041092EA0488EE93E0A0E0B0E0AF
:102710008093EC049093ED04A093EE04B093EF0447
:1027200082E291E09093E9048093E80485EC90E0E4
:102730009093F5048093F40484EC90E09093F70474
:102740008093F60480EC90E09093F9048093F80471
:1027500081EC90E09093FB048093FA0482EC90E08B
:102760009093FD048093FC0486EC90E09093FF042A
:102770008093FE0410920105109202051092030549
:1027800010920405AEECB5E08FEF96E028EB3BE04D
:10279000E091CD05EC3008F048C041E04E0F409389
:1027A000CD05EC939E9FF0011124EB57FA4F328335
:1027B0002183139645E0AA3DB40751F78FEF80932C
:1027C000DA0580E1E6E0F1E0ABEDB5E001900D92D5
:1027D0008A95E1F78091160190911701A091180157
:1027E000B09119018093FB059093FC05A093FD0522
:1027F000B093FE0580911A0190911B01A0911C01DC
:10280000B0911D018093FF0590930006A0930106EF
:10281000B09302060E94F0056093110670931206B1
:10282000809313069093140608958C93C2CFCF9390
:10283000DF93CDB7DEB7C956D1090FB6F894DEBF26
:102840000FBECDBF789484B5826084BD84B58160AD
:1028500084BD85B5826085BD85B5816085BD80916B
:102860006E00816080936E001092810080918100E3
:1028700082608093810080918100816080938100DB
:10288000809180008160809380008091B10084609D
:102890008093B1008091B00081608093B0008091FE
:1028A0007A00846080937A0080917A0082608093BD
:1028B0007A0080917A00816080937A0080917A001A
:1028C000806880937A001092C100E091F804F09142
:1028D000F90482E08083E091F404F091F504108221
:1028E000E091F604F091F70480E1808310920005F6
:1028F000E091FC04F091FD0486E08083E091FA040D
:10290000F091FB04808180618083E091FA04F09172
:10291000FB04808188608083E091FA04F091FB04DD
:10292000808180688083E091FA04F091FB048081CB
:102930008F7D808386E00E94610189E00E946101B1
:1029400085E00E9461018BE794E1A6E9B1EC8093F8
:10295000EB059093EC05A093ED05B093EE0580E0B8
:1029600090E0A0E2B1E48093EF059093F005A0938E
:10297000F105B093F20580E090E0A0EAB1EC80931D
:10298000F3059093F405A093F505B093F605109226
:10299000F7051092F8051092F9051092FA051092B9
:1029A000CF051092D0051092D2051092D305109247
:1029B000D5051092D60587EE8093D80589E18093DE
:1029C000D9050EEC15E09AEDC92E95E0D92E7801C7
:1029D00026E0B22E3CE0A32ED8018C918C30F0F58D
:1029E000F70195A4892D0E946101D8018C91B89EB0
:1029F000F0011124EB57FA4F292D2F739081907C11
:102A0000922B908311961C92119712961C926A2D0C
:102A10000E9427268A9DA001112430E020E0BA01FF
:102A2000620F731FB69EF001B79EF00D1124EB5795
:102A3000FA4F908196FD08C02F5F3F4F2C30310533
:102A400071F790E00E94FC05D801EC91BE9EF00168
:102A50001124EB57FA4F8081806480830D5F1F4FF4
:102A6000BFEFEB1AFB0AC016D10609F0B5CF80E024
:102A70000E9433076093DB057093DC058093DD05CE
:102A80009093DE0581E00E9433076093DF05709329
:102A9000E0058093E1059093E20582E00E94330710
:102AA0006093E3057093E4058093E5059093E60554
:102AB00083E00E9433076093E7057093E8058093F5
:102AC000E9059093EA058FEF9FEF9093830480933D
:102AD00082049093810480938004109203061092E4
:102AE0000406109205061092060610920706109230
:102AF00008061092090610920A0684E894E0909362
:102B00000C0680930B0680E390E0A0E0B0E0809399
:102B10000D0690930E06A0930F06B0931006A12CFD
:102B2000B12CB8ECCB2EB2E4DB2EE12CF12C06E17B
:102B300013E4A801970160E070E0CB010E94B00BA4
:102B400088E491E00E94F60786E391E00E94F60790
:102B5000FE0131962F018091030690910406A09109
:102B60000506B0910606009107061091080620910F
:102B7000090630910A0680179107A207B30709F4E6
:102B80003DC7E0910B06F0910C06E80FF91F10818C
:102B9000BC01CD016F5F7F4F8F4F9F4F20910D067E
:102BA00030910E0640910F06509110060E94792335
:102BB00060930306709304068093050690930606BF
:102BC0008091E6049091E704009739F00197F9F0BD
:102BD0001092E7041092E604BECF133239F0173496
:102BE00029F01D3419F0103509F0B5CF21E030E09F
:102BF0003093E7042093E604133279F081E0809368
:102C0000E40481E08093E5041093B404A4CFE09140
:102C1000E504E033E8F6133219F41092E404F1CF3E
:102C2000173421F01D3411F0103579F48091E4044B
:102C30008111E7CF81E08093E4048E0F8093E50457
:102C4000F0E0EC54FB4F108386CFAE2FB0E0AC54D5
:102C5000BB4F1A3009F0CDC61C92E4EBF4E00190B2
:102C60000020E9F7319784EB94E08E179F0709F471
:102C7000AFCFDF018E918D01082E000C990B0E94C1
:102C8000B821892B09F43DC7F8011082ECCFB3E2DB
:102C9000FB1621F02081A6962FAFA6970E94AB1DB0
:102CA0006BAB7CAB8DAB9EAB64E371E090E080E0FE
:102CB0000E94AF1DFC010F5F1F4F309759F1063086
:102CC000110541F1CF0101960115110501F3013004
:102CD000110591F00E94AB1DF801EE0FFF1FEE0FE2
:102CE000FF1FA3E3B0E0AC0FBD1FEA0FFB1F608323
:102CF000718382839383D8CF33E2F31204C040817F
:102D0000A6964FAFA6970E94AB1D6FAB78AF89AF69
:102D10009AAFCACF6BA97CA98DA99EA90E94CE2487
:102D20001B01B3E2FB122FC06FA978AD89AD9AAD3C
:102D30000E94CE240250110922E030E0A696EFADA9
:102D4000A697ED3409F471C1E03509F452C4E734B3
:102D500009F03ECF3901660C771C660C771C23E323
:102D600030E02C0F3D1F620E731E693C710509F4A3
:102D7000CDC084F4672B09F48DC064E170E0C1011B
:102D80000E94E20F25CF01501109312C212C21E0A6
:102D900030E0D4CF6A3C710509F417C16C3C710571
:102DA00061F70430110509F022C4D3011C96AD90DF
:102DB000BD90CD90DC901F9718968D919D910D90B0
:102DC000BC91A02DA5968CAF9DAFAEAFBFAFA59720
:102DD000D30114968D919D910D90BC91A02DA1963B
:102DE0008CAF9DAFAEAFBFAFA197F3016080718094
:102DF00082809380A201BE01655B7F4FCE018F5A16
:102E00009F4F0E94C30A65962CAD3DAD4EAD5FADA0
:102E10006597C401B3010E94BC233B014C01659638
:102E20006CAE7DAE8EAE9FAE65972F962CAD3DAD50
:102E30004EAD5FAD2F97A1966CAD7DAD8EAD9FADC4
:102E4000A1970E94BC23A1966CAF7DAF8EAF9FAFC0
:102E5000A1972F966CAF7DAF8EAF9FAF2F97298133
:102E60003A814B815C81A5966CAD7DAD8EAD9FADF9
:102E7000A5970E94BC2369837A838B839C837B0103
:102E80008C01A1962CAD3DAD4EAD5FADA197C401B7
:102E9000B3011BC00430110509F0A9C3D3011C966E
:102EA000AD90BD90CD90DC901F971896ED90FD9061
:102EB0000D911C911B9714962D913D914D915C9114
:102EC00017976D917D918D919C910E94B00B8230EE
:102ED00009F0A7C01AE080E391E00E944708C10111
:102EE0000E946F0F84E391E00E9447088CE391E019
:102EF0000E944708612F70E090E080E04AE00E9465
:102F0000030886E391E00E94F60762CE04301105C3
:102F100009F06DC3D3018D919D910D90BC91A02DB1
:102F2000A1968CAF9DAFAEAFBFAFA19726EE3EE2AC
:102F300045E652E4F30164817581868197810E94A0
:102F40005C246B017C010E945724A5966CAF7DAF79
:102F50008EAF9FAFA597C701B6010E9497259B0131
:102F6000AC01D3011C96AD90BD90CD90DC901F9725
:102F700018968D919D910D90BC91A02DAA968CAF25
:102F80009DAFAEAFBFAFAA97A1966CAD7DAD8EAD34
:102F90009FADA1970E944F223B014C01A5962CADFD
:102FA0003DAD4EAD5FADA597A1966CAD7DAD8EAD3F
:102FB0009FADA1970E944F22AA96ECACFDAC0EAD3E
:102FC0001FADAA97A401930180CF0230110509F02B
:102FD0000EC3F301C480D580E680F78060817181E3
:102FE000828193810E94D524162F643008F0FFC29D
:102FF00020E030E044E353E4C701B6010E948A2593
:1030000018160CF4F4C220E030E0A901C701B601A3
:103010000E94E92187FDEBC2B701A601812F0E9422
:103020008001C1010E94C70FD3CD220F331F220F91
:10303000331F53E3652E712C6C0E7D1E620E731EC2
:103040006D3D710509F4A3C10CF073C06A3C7105B4
:1030500009F406C16C3D710509F422C1693C710592
:1030600009F08BCE0130110509F0C1C2D3016D9179
:103070007D918D919C910E94D524643008F02ACFD7
:10308000062F10E0F801E253FA4FB5A46801CC0C0A
:10309000DD1CC601800F911FFC01E253FA4F7F0136
:1030A00080818C3008F0BDCF8B2D0E946101D7014B
:1030B0008C91B6E08B9FF0011124EB57FA4F2B2D2A
:1030C0002F739081907C922B9083F7011182128252
:1030D0002CE0622F0E942726482F50E0829FB001EB
:1030E000112430E020E086E0DB01A20FB31F8A9FAD
:1030F000F0018B9FF00D1124EB57FA4F908196FD54
:1031000008C02F5F3F4F2C30310571F7CA010E9474
:10311000FC050C0D1D1DF801E253FA4FE08126E07D
:10312000E29FF0011124EB57FA4F80818064808385
:1031300078CF673E710509F428C20CF070C06E3D6F
:10314000710509F01ACE0430110509F050C2D301FF
:1031500014968D909D90AD90BC901797CD90DD907A
:10316000ED90FC90139720E030E040E85FE31C9680
:103170006D917D918D919C911F970E94E921811104
:1031800028C026EE3EE245E652E4C501B4010E94A5
:103190005C244B015C010E9457249B01AC01C701D8
:1031A000B6010E944F22F30160837183828393836F
:1031B000C501B4010E9497259B01AC01C701B6016E
:1031C0000E944F22D30114966D937D938D939C930F
:1031D0001797F301E084F1840285138524813581FA
:1031E0004681578160817181828193811F92420162
:1031F000DE01A55BBF4F5D01FE01EF5AFF4F6F017E
:103200000E9449080F90823009F4CDC38A3009F436
:10321000CAC3813009F06EC363E671E068C3683EDB
:10322000710509F4D0C1603F710509F0A6CD0230E7
:10323000110509F0DCC1D3016D917D918D919C91B7
:103240000E94D524162FF3016481758186819781B0
:103250000E94D524662309F4C8C161E0812FAAC168
:103260000130110509F0C3C1D3016D917D918D919C
:103270009C910E94D524643008F02CCE70E0FB01B4
:10328000EE0FFF1FE60FF71FE253FA4FE081B6E0A3
:10329000EB9FF0011124EB57FA4F80818F7B47CFD2
:1032A0000330110509F0A3C1F301E084F184028524
:1032B00013852481358146815781608171818281A6
:1032C0009381E1E0EF93DE01AF5ABF4F4D01FE0164
:1032D000EB5AFF4F5F0118966D010E9449086A96EC
:1032E0003FAD6A976B962FAD6B976C969FAD6C97C1
:1032F0006D968FAD6D97632F722F6C01CB01AD2D45
:10330000BC2DF30180839183A283B38366963FAD86
:10331000669767962FAD679768969FAD6897699691
:103320008FAD699789017C01812F902FAF2DBE2D24
:1033300084839583A683B7836296BFAD62976396B5
:10334000AFAD639764969FAD649765968FAD6597B3
:103350002B2F3A2F492F582FC901DA0180879187E7
:10336000A287B3875F934F933F932F93EF92FF9280
:103370000F931F93CF92DF927F936F932BE431E0F3
:103380003F932F935F924F920E94591065C2033072
:10339000110509F02CC126EE3EE245E652E4D301C8
:1033A00014966D917D918D919C9117970E945C244C
:1033B0006B017C010E9457244B015C0126EE3EE22A
:1033C00045E652E4F30160857185828593850E940C
:1033D0005C24A1966CAF7DAF8EAF9FAFA1970E948A
:1033E0005724A5966CAF7DAF8EAF9FAFA59720E019
:1033F00030E444E153E4C501B4010E944F224B0183
:103400005C0123E333E340E253E4A5966CAD7DAD6C
:103410008EAD9FADA5970E944F229B01AC01C501C7
:10342000B4010E94BC2329E23CE549EA51E40E9430
:10343000BC2320E030E048EC51E40E94BC234B0167
:103440005C01C701B6010E9497256B017C01A19622
:103450006CAD7DAD8EAD9FADA1970E949725A196D5
:103460006CAF7DAF8EAF9FAFA19720E030E444E119
:1034700053E4C701B6010E944F226B017C0123E394
:1034800033E340E253E4A1966CAD7DAD8EAD9FADCC
:10349000A1970E944F229B01AC01C701B6010E9477
:1034A000BB2326E636EE46ED52E40E94BC238B0198
:1034B000A2968FAFA297A7969FAFA79726EE3EE260
:1034C00045E652E4D3016D917D918D919C910E94CE
:1034D0005C24A1966CAF7DAF8EAF9FAFA1970E9489
:1034E00057249B01AC01C501B4010E944F22F62E66
:1034F000E72ED82EC92EA1966CAD7DAD8EAD9FADB9
:10350000A1970E9497259B01AC01C501B4010E94BF
:103510004F229B01D701F6014B2F5A2F6F2F7E2F81
:10352000F3014083518362837383422F532F682FAB
:10353000792FD30114964D935D936D937C931797D8
:10354000A296FFADA297A796EFADA797402F512F58
:103550006F2F7E2FF30140875187628773877F9398
:10356000A2964FADA2974F931F930F939F938F9364
:103570003F932F93CF92DF92EF92FF9287E591E0F6
:103580009F938F935F924F92FFCE0130110579F593
:1035900020E030E0A901D3016D917D918D919C9146
:1035A0000E94E921811109C060E086E00E94C20505
:1035B00061E085E00E94C20534CD61E086E00E94B2
:1035C000C20560E0F6CF0130110589F420E030E05B
:1035D000A901F30160817181828193810E94E921B7
:1035E00061E0811160E089E0E5CF60E037CE15E170
:1035F00072CC3901660C771C660C771C23E330E033
:103600002C0F3D1F620E731E6D3C710509F46AC1DB
:103610001CF56A3C710509F436C18CF4683C7105EF
:1036200009F4CCC0693C710509F0A7CB89E791E0AA
:10363000012B09F42DC185E1682F70E0A0CB6B3C14
:10364000710509F447C16C3C710509F096CBB801CE
:10365000C1010E945E1142C1673E710509F49AC121
:103660000CF087C06C3D710509F456C16D3D7105C4
:1036700009F083CB012BF9F68BEDE82E85E0F82ECF
:1036800010E0812F0E943307D7016D937D938D93B6
:103690009D937D011F5F1430A1F7A201BE01655B00
:1036A0007F4FCE018F5A9F4F0E94C30AB091DB0516
:1036B0006E96BFAF6E97E091DC05A296EFAFA29732
:1036C0000091DD051091DE0565966CAD7DAD8EAD8A
:1036D0009FAD65972F96CCACDDACEEACFFAC2F97D1
:1036E0009B01AC010E944F224B015C01A701960196
:1036F000C701B6010E944F229B01AC01C501B40174
:103700000E94BC230E94A5259B01AC01CB01DA01DC
:10371000F30180839183A283B3836E966FAD6E971E
:10372000A2967FADA297D02EC12ECB01A02FB12F94
:1037300084839583A683B783B981AA819B818C8179
:103740008D017C01812F902FAF2DBE2D8087918719
:10375000A287B387EF92FF920F931F93CF92DF92CE
:103760007F936F935F934F933F932F932FE831E0B5
:103770000EC1603F710509F41DC1613F710509F477
:1037800029C1683E710509F0F8CA012B09F053CF31
:1037900089E00E949905019709F408C184E190E04D
:1037A0000E94C806893592400CF402C181E01F9244
:1037B0008F93EBE9F1E0FF93EF9370C0012B09F0D9
:1037C0003ACF80E00E943307D3016D937D938D93B0
:1037D0009C93139781E00E943307F3016483758300
:1037E0008683978382E00E943307D30118966D93F6
:1037F0007D938D939C931B9783E00E9433079B01DD
:10380000AC01CB01DA01F30184879587A687B787DE
:103810005F934F933F932F9383858F9382858F93ED
:1038200081858F9380858F9387818F9386818F93F6
:1038300085818F9384818F9383818F9382818F93EE
:1038400081818F9380818F9389E691E09F938F93FD
:103850005F924F920E945910B201CE01855B9F4F3B
:103860000E941010BE01655B7F4FC1010E949F0F37
:10387000CE01855B9F4F0E9408100FB6F894DEBF03
:103880000FBECDBFA5C9012B09F0D5CE8FE791E0C2
:103890009F938F9384E491E09F938F935F924F92D5
:1038A0000E945910B201CE01855B9F4F0E941010FB
:1038B000BE01655B7F4FC1010E949F0FCE01855BFA
:1038C0009F4F0E9408100F900F900F900F900F9035
:1038D0000F907EC9B801C1010E945E11882309F4CE
:1038E00077C9AACE63E871E0012B09F0A4CEC2012A
:1038F0000E945C28B201CE01855B9F4F0E94101090
:10390000BE01655B7F4FC1010E949F0FCE01855BA9
:103910009F4F0E9408105CC9012B09F08CCE6301F7
:1039200038E0C30ED11C730144E0E40EF11C0BED32
:1039300015E0B12C8B2D0E943307D8016D937D9338
:103940008D939D938D01B394B4E0BB12F3CFA60188
:10395000B701C3010E94C30AF30183858F93828557
:103960008F9381858F9380858F9387818F938681B5
:103970008F9385818F9384818F9383818F938281AD
:103980008F9381818F9380818F9327E531E03F93DF
:103990002F93F8CD012B09F04ECE86E00E949905B9
:1039A000019709F439CC66E671E0A1CF80E0FFCE43
:1039B00082E0FDCE0130110509F03DCED3016D91BD
:1039C0007D918D919C910E94D524862F0E9499050E
:1039D0009F93EECE0130110509F02DCED3016D91EC
:1039E0007D918D919C910E94D524CB010E94C806A7
:1039F000EFCFEF5FE093E5041C93ADC888EE94E051
:103A00000E94C104892B09F452C088EE94E00E9400
:103A10009F048C01019691F3C0900706D090080690
:103A2000E0900906F0900A06C701B6016F5F7F4F6C
:103A30008F4F9F4F20910D0630910E0640910F063B
:103A4000509110060E9479238090030690900406FE
:103A5000A0900506B0900606681579058A059B05B5
:103A600069F2E0910B06F0910C06EC0DFD1D008350
:103A700060910706709108068091090690910A06E8
:103A80006F5F7F4F8F4F9F4F20910D0630910E0635
:103A900040910F06509110060E947923609307060B
:103AA000709308068093090690930A06A7CF0E9498
:103AB000F005009111061091120620911306309125
:103AC0001406601B710B820B930B62337105810529
:103AD000910550F00E94F005609311067093120654
:103AE000809313069093140680E090E0892B09F4EC
:103AF00032C80E94CD04882309F42AC80E9400001D
:103B000027C8F090B40464E371E084EB94E00E9471
:103B1000AF1DFC0110E000E0D0C8EF920F931F939F
:103B2000CF93DF93E80134E047FD34E1042E000C2D
:103B3000550B57FF03C0519541955109E32E022FB4
:103B4000242FAE010E94311ECE01DF91CF911F9133
:103B50000F91EF900895662777270C94901F45E109
:103B600056E00E94B41D0895FA01A191B08100971A
:103B700019F41097E1F0CD01DC01CD010D9000208A
:103B800011F4C00113C0FB012191222319F020156B
:103B9000D9F7F3CFFB012191201519F41E9211964C
:103BA00006C02223C1F70D900020A1F7D001FA0131
:103BB000A193B0830895BB274A3031F4992322F4AE
:103BC000BDE2909581959F4F0C94181EBB272A301B
:103BD00051F4992342F4BDE29095809570956195DA
:103BE0007F4F8F4F9F4F0C94F61DBB27FA01A62FD6
:103BF0006217710581059105330B30FB66F0AA272A
:103C0000660F771F881F991FAA1FA21710F0A21B0B
:103C100063953850A9F7A05DAA3308F0A95DA19378
:103C200036F7B111B1931082CA010C94D921BB2788
:103C3000FB015527AA27880F991FAA1FA41710F068
:103C4000A41B83955051B9F7A05DAA3308F0A95D74
:103C5000A193009779F7B111B1931192CB010C9414
:103C6000D921A9E0B0E0E7E3FEE10C9448236A0122
:103C7000F22EB02E102FFBE3AF2EA01608F41BE39C
:103C80001F5F012F27E0AE014F5F5F4F0E94E020D2
:103C9000BC018981982F9970913009F43FC09BE253
:103CA000E1FC04C09E2D9170E0FC3AC05E2D507185
:103CB000E82FE87083FF46C084E0911101C083E0E3
:103CC000EF2DE81B8F1508F0E0E0D6018E2F20E2E3
:103CD000552351F1992329F0D6019C93C6010196F1
:103CE0006C0196012D5F3F4FE2FE24C08EE4D601A9
:103CF0008C9391E411969C93119712968C93D90111
:103D00008E2F90E281111BC0E20FF32FF11D108264
:103D10008EEF9FEF2996ECE00C9464239DE2C6CFD2
:103D200090E2C4CF2D9381508111FCCFCE0ED11CD7
:103D3000E0E0D0CF8EE6D6018C9391E6DBCF9D9369
:103D40008150E0CF482F447082FF3DC084E0911144
:103D500001C083E08F1510F4EF2DE81BD6018E2FE4
:103D600020E2552309F1992329F0D6019C93C6013D
:103D700001966C0196012D5F3F4FE2FE1BC089E466
:103D8000D6018C938EE411968C93119786E412964B
:103D90008C93D9018E2F90E2882309F4B5CF9D939F
:103DA0008150FACF2D9381508111FCCFCE0ED11CC2
:103DB000E0E0D9CF89E6D6018C938EE611968C93FC
:103DC000119786E6E4CF9B0177FF02C030E020E048
:103DD000A1E0B0E0911102C0B0E0A0E0F90131969D
:103DE000AE0FBF1F8B2C912CBB2009F461C0540176
:103DF000EFEFAE1ABE0AAA0DBB1DFA161B0619F08C
:103E000014F04F2D4A1B511188C0E3FC59C07601B4
:103E1000A42FB0E2A1114FC0C40ED11C992309F404
:103E20005BC040E0D6011196F60190836D015523E9
:103E300009F448C0012F060F9A81582F507184FF52
:103E400003C0913309F4015010160CF047C009303B
:103E500008F008E0EEE2FE2E5B01A01AB108850131
:103E60009194819491082F3F320729F4D601FC9256
:103E7000F60131966F016217730794F10217130769
:103E80007CF5DB01A21BB30BAA24A394B12CAC0ECE
:103E9000BD1EAA0DBB1D11968C9121503109D60172
:103EA000119628153905F4F0F60180836D01DBCFFA
:103EB000B12CA12CA0CFF701B1937F01A150AACFC3
:103EC0009111B0CFD601942F50E302C05D93915071
:103ED0009111FCCFC40ED11C40E0ACCF01E0BACFB1
:103EE00080E3DBCF6217730731F4963388F49533A0
:103EF00011F4552369F0F6018083FD01842F90E2CF
:103F0000811108C0A40FB11D1C9290E080E002CF87
:103F100081E3F1CF91938150F3CF911183CF8ACF79
:103F2000B0E0A0E0E6E9FFE10C9448235C017B01EE
:103F30006115710519F0DB018D939C9385010F5F6D
:103F40001F4FF501D0818D2F90E00E94B8216C01A8
:103F5000892BB9F5DD32B9F50F5F1F4FD5011196E9
:103F6000DC91C1E05801F1E0AF1AB10843E050E044
:103F700064EE70E0C5010E94C121892B69F56801DA
:103F800082E0C80ED11C45E050E06FED70E0C60144
:103F90000E94C121892B21F4680197E0C90ED11C30
:103FA000E114F10419F0D701CD92DC9260E070E0E9
:103FB00080E89FEFC111FFC060E070E080E89FE7FC
:103FC000FAC05801BBCFDB3229F485010E5F1F4FC9
:103FD000F501D181C0E0C6CF43E050E06CED70E068
:103FE000C5010E94C121892BE9F0F80110E000E031
:103FF00020E030E0A9015F01B0ED8B2E8D0E89E04D
:104000008815C8F19C2E689491F88C2F8870C2FF97
:1040100016C0811102C00F5F1F4F3196D501DC9190
:10402000C92DE9CFE114F10429F00E5F1F4FF7010C
:104030001183008360E070E080EC9FE7BCC08823C0
:1040400011F001501109A5E0B0E00E942F239B015F
:10405000AC01220F331F441F551F280D311D411D78
:10406000511D283999E93907490799E15907A8F2FB
:10407000C6609C2ED2CFAEEF8A1206C0C3FD3CC0F4
:104080009C2E689493F8C9CFDF7DD534A9F5808143
:104090008D3239F4C061DF011296818162E070E0F7
:1040A00006C0DF018B32C1F3119661E070E08053EE
:1040B0005D01A61AB70A8A30F8F4E0E8CE16ECE003
:1040C000DE065CF4B601660F771F660F771FC60E1B
:1040D000D71ECC0CDD1CC80ED11C5D01FFEFAF1A42
:1040E000BF0A8C9180538A30A8F1C4FF03C0D194D9
:1040F000C194D1080C0D1D1DC1FF09C0E114F104CC
:1041000031F081E0A81AB108D701AD92BC92CA0182
:10411000B9010E94EE21C370C33009F490584B01DD
:104120005C0120E030E0A9010E94E921882309F424
:1041300040C0C3E1D1E017FF05C0119501951109F9
:10414000CBEFD0E06E01B8E1CB1AD10880E2E82EC7
:10415000F12C0FC0D501B1CFFE01259135914591CC
:1041600054910E191F09C501B4010E944F224B0141
:104170005C01D501C4010E151F0574F72497F59451
:10418000E794CC16DD06A9F78A2F880F8B2F881F9E
:104190008F3F49F020E030E0A901C501B4010E9441
:1041A000E921811106C082E290E090931806809385
:1041B0001706C501B401CDB7DEB7ECE00C9464235B
:1041C000283008F027E03327DA01990F311D87FDE9
:1041D000916000966105710539F432602E5F3D9360
:1041E00030E32A95E1F708959F3F30F0803871055C
:1041F000610509F03C5F3C5F3D93913008F08068B9
:10420000911DDF93CF931F930F93FF92EF92192F7E
:10421000987F9695E92F96959695E90FFF27EF5889
:10422000FE4F99273327EE24FF24A701E7010590CD
:104230000894079428F4360FE71EF81E491F511DF5
:10424000660F771F881F991F0694A1F705900794A2
:1042500028F4E70EF81E491F561FC11D770F881F4F
:10426000991F661F0694A1F70590079428F4F80E8D
:10427000491F561FC71FD11D880F991F661F771F23
:104280000694A1F70590079420F4490F561FC71F05
:10429000D81F990F661F771F881F0694A9F784916E
:1042A0001095177041F0D695C79557954795F79497
:1042B000E7941A95C1F7E7E1F1E06894159015913C
:1042C00035916591959105907FE27395E118F10A1A
:1042D000430B560BC90BD009C0F7E10CF11E431F6D
:1042E000561FC91FD01D7EF4703311F48A95E6CF96
:1042F000E894015030F0080F0AF40027021708F480
:10430000202F2395022F7A3328F079E37D932A9585
:10431000E9F710C07D932A9589F6069497956795DD
:10432000379517951794E118F10A430B560BC90BF3
:10433000D00998F023957E9173957A3308F070E355
:104340007C932013B8F77E9170617D9330F0839554
:1043500071E37D9370E32A95E1F71124EF90FF90CC
:104360000F911F91CF91DF91992787FD9095089527
:1043700091110C94BC22803219F089508550C8F7F5
:104380000895FB01DC014150504088F08D9181344B
:104390001CF08B350CF4805E659161341CF06B353C
:1043A0000CF4605E861B611171F3990B0895881BF4
:1043B000FCCFDC01FC01672F71917723E1F7329785
:1043C00004C07C916D9370836291AE17BF07C8F3F0
:1043D00008950E942B2208F481E00895E89409C012
:1043E00097FB3EF490958095709561957F4F8F4F28
:1043F0009F4F9923A9F0F92F96E9BB279395F6953E
:10440000879577956795B795F111F8CFFAF4BB0FBB
:1044100011F460FF1BC06F5F7F4F8F4F9F4F16C01F
:10442000882311F096E911C0772321F09EE8872FA9
:10443000762F05C0662371F096E8862F70E060E065
:104440002AF09A95660F771F881FDAF7880F9695DE
:10445000879597F90895990F0008550FAA0BE0E882
:10446000FEEF16161706E807F907C0F01216130636
:10447000E407F50798F0621B730B840B950B39F476
:104480000A2661F0232B242B252B21F408950A26DC
:1044900009F4A140A6958FEF811D811D08950E940A
:1044A00062220C94D6220E94C82238F00E94CF22A9
:1044B00020F0952311F00C94BF220C94C5221124F6
:1044C0000C940A230E94E72270F3959FC1F3950F85
:1044D00050E0551F629FF001729FBB27F00DB11D88
:1044E000639FAA27F00DB11DAA1F649F6627B00D18
:1044F000A11D661F829F2227B00DA11D621F739F01
:10450000B00DA11D621F839FA00D611D221F749F0E
:104510003327A00D611D231F849F600D211D822F55
:10452000762F6A2F11249F5750409AF0F1F088237C
:104530004AF0EE0FFF1FBB1F661F771F881F9150A9
:104540005040A9F79E3F510580F00C94BF220C9477
:104550000A235F3FE4F3983ED4F3869577956795F9
:10456000B795F795E7959F5FC1F7FE2B880F911DD3
:104570009695879597F9089599278827089597F92B
:104580009F6780E870E060E008959FEF80EC0895F9
:1045900000240A9416161706180609060895002422
:1045A0000A9412161306140605060895092E03949C
:1045B000000C11F4882352F0BB0F40F4BF2B11F410
:1045C00060FF04C06F5F7F4F8F4F9F4F089557FD6F
:1045D0009058440F551F59F05F3F71F04795880F71
:1045E00097FB991F61F09F3F79F087950895121608
:1045F00013061406551FF2CF4695F1DF08C01616B4
:1046000017061806991FF1CF869571056105089464
:104610000895E894BB2766277727CB0197F908957B
:10462000052E97FB1EF400940E94272357FD07D008
:104630000E94792307FC03D04EF40C942723509555
:104640004095309521953F4F4F4F5F4F089590957E
:104650008095709561957F4F8F4F9F4F08950E9471
:104660009B23A59F900DB49F900DA49F800D911D3D
:1046700011240895B7FF0C942F230E942F23821B2F
:10468000930B08952F923F924F925F926F927F9279
:104690008F929F92AF92BF92CF92DF92EF92FF9252
:1046A0000F931F93CF93DF93CDB7DEB7CA1BDB0BFE
:1046B0000FB6F894DEBF0FBECDBF09942A883988A3
:1046C00048885F846E847D848C849B84AA84B984AA
:1046D000C884DF80EE80FD800C811B81AA81B981B6
:1046E000CE0FD11D0FB6F894DEBF0FBECDBFED01CA
:1046F0000895A1E21A2EAA1BBB1BFD010DC0AA1F23
:10470000BB1FEE1FFF1FA217B307E407F50720F03A
:10471000A21BB30BE40BF50B661F771F881F991FB5
:104720001A9469F760957095809590959B01AC01FE
:10473000BD01CF010895A29FB001B39FC001A39F07
:10474000700D811D1124911DB29F700D811D1124CA
:10475000911D08959F939F770E9404250F9000203C
:1047600042F49058A2EA2AED3FE049E450E40E9466
:10477000D3230C94D6225058BB27AA270E94D323B8
:104780000C94D6220E94C82238F00E94CF2220F03A
:1047900039F49F3F19F426F40C94C5220EF4E095E9
:1047A000E7FB0C94BF22E92F0E94E72258F3BA17C7
:1047B000620773078407950720F079F4A6F50C9437
:1047C00009230EF4E0950B2EBA2FA02D0B01B90191
:1047D00090010C01CA01A0011124FF27591B99F077
:1047E000593F50F4503E68F11A16F040A22F232F83
:1047F000342F4427585FF3CF469537952795A795D3
:10480000F0405395C9F77EF41F16BA0B620B730B79
:10481000840BBAF09150A1F0FF0FBB1F661F771FEA
:10482000881FC2F70EC0BA0F621F731F841F48F49F
:10483000879577956795B795F7959E3F08F0B0CF28
:104840009395880F08F09927EE0F9795879508950F
:10485000DF93DD27B92FBF7740E85FE31616170611
:1048600048075B0718F4D92F0E948F259F938F93D9
:104870007F936F930E94E525E8E6F0E00E942425EF
:104880000E94D6222F913F914F915F910E94622208
:10489000DD2351F09058A2EA2AED3FE049EC5FE3B6
:1048A000D0785D270E94D323DF910C94D6220E94FA
:1048B0004D25E3950C9476250E9470240C94D62205
:1048C0000E94CF2258F00E94C82240F029F45F3F96
:1048D00029F00C94BF2251110C940A230C94C52288
:1048E0000E94E72268F39923B1F3552391F3951BB6
:1048F000550BBB27AA2762177307840738F09F5F01
:104900005F4F220F331F441FAA1FA9F335D00E2E6D
:104910003AF0E0E832D091505040E695001CCAF7DA
:104920002BD0FE2F29D0660F771F881FBB1F26179D
:1049300037074807AB07B0E809F0BB0B802DBF0174
:10494000FF2793585F4F3AF09E3F510578F00C9443
:10495000BF220C940A235F3FE4F3983ED4F386957C
:1049600077956795B795F7959F5FC9F7880F911D64
:104970009695879597F90895E1E0660F771F881F50
:10498000BB1F621773078407BA0720F0621B730B03
:10499000840BBA0BEE1F88F7E09508950E94D5248A
:1049A0006894B1110C940A2308950E94EF2288F0B4
:1049B0009F5798F0B92F9927B751B0F0E1F0660FE3
:1049C000771F881F991F1AF0BA95C9F714C0B13024
:1049D00091F00E940923B1E008950C940923672FF8
:1049E000782F8827B85F39F0B93FCCF38695779553
:1049F0006795B395D9F73EF490958095709561953C
:104A00007F4F8F4F9F4F0895DF93CF931F930F9347
:104A10008B01EC01E5E9F0E00E9424250E94D622FA
:104A20009801AE018B01EC0160E070E080E89FE34B
:104A30000E94BB230E94A5259801AE010F911F91F2
:104A4000CF91DF910C946222DF93CF931F930F934A
:104A5000FF92EF92DF927B018C01689406C0DA2E00
:104A6000EF010E946222FE01E894A5912591359103
:104A700045915591A6F3EF010E94D323FE019701C2
:104A8000A801DA9469F7DF90EF90FF900F911F91E2
:104A9000CF91DF9108950C94C5220E94EF22D8F3A4
:104AA000E894E0E0BB279F57F0F02AED3FE049ECA7
:104AB00006C0EE0FBB0F661F771F881F28F0B23AA3
:104AC00062077307840728F0B25A620B730B840BDA
:104AD000E3959A9572F7803830F49A95BB0F661F6C
:104AE000771F881FD2F790480C94F025EF93E0FFD2
:104AF00007C0A2EA2AED3FE049EC5FEB0E94D32316
:104B00000E94D6220F90039401FC9058EDEBF0E048
:104B10000C9403260E942B2208F48FEF08959B012A
:104B2000AC0160E070E080E89FE30C945C249F930C
:104B30000E944D250F9007FCEE5F0C94762519F42A
:104B400016F40C94C5220C94EE250E94EF22B8F3C3
:104B50009923C9F3B6F39F57550B87FF0E94FC2595
:104B60000024A0E640EA900180585695979528F4D5
:104B7000805C660F771F881F20F0261737074807CD
:104B800030F4621B730B840B202931294A2BA69524
:104B900017940794202531254A2758F7660F771F69
:104BA000881F20F026173707480730F4620B730B75
:104BB000840B200D311D411DA09581F7B901842F73
:104BC0009158880F9695879508959B01AC010C9498
:104BD0004F220E942B22880B990B08959F3F31F0A2
:104BE000915020F4879577956795B795880F911D1B
:104BF0009695879597F9089591505040660F771FC5
:104C0000881FD2F708959F938F937F936F93FF939D
:104C1000EF939B01AC010E944F22EF91FF910E9404
:104C200024252F913F914F915F910C944F22DB01EE
:104C30008F939F930E942F23BF91AF91A29F800DCE
:104C4000911DA39F900DB29F900D11240895991B63
:104C500079E004C0991F961708F0961B881F7A9573
:104C6000C9F78095089597FB072E16F4009407D096
:104C700077FD09D00E94472607FC05D03EF49095A9
:104C800081959F4F0895709561957F4F0895AA1B58
:104C9000BB1B51E107C0AA1FBB1FA617B70710F027
:104CA000A61BB70B881F991F5A95A9F78095909559
:104CB000BC01CD010895EE0FFF1F0590F491E02D8A
:104CC00009940F931F93CF93DF938230910510F4D3
:104CD00082E090E0E0911B06F0911C0630E020E0BD
:104CE000B0E0A0E0309799F42115310509F44AC0ED
:104CF000281B390B24303105D8F58A819B81611539
:104D0000710589F1FB0193838283FE0111C040810B
:104D100051810281138148175907E0F0481759075C
:104D200099F4109761F012960C93129713961C93B6
:104D30003296CF01DF91CF911F910F91089500938B
:104D40001B0610931C06F4CF2115310551F04217B4
:104D5000530738F0A901DB019A01BD01DF01F80119
:104D6000C1CFEF01F9CF90931C0680931B06CDCFE6
:104D7000FE01E20FF31F8193919322503109398391
:104D80002883D7CF2091190630911A06232B41F49E
:104D9000209102013091030130931A0620931906E5
:104DA00020910001309101012115310541F42DB709
:104DB0003EB74091040150910501241B350BE09151
:104DC0001906F0911A06E217F307A0F42E1B3F0B09
:104DD0002817390778F0AC014E5F5F4F241735076D
:104DE00048F04E0F5F1F50931A06409319068193A7
:104DF00091939FCFF0E0E0E09CCFCF93DF930097BB
:104E0000E9F0FC01329713821282A0911B06B09147
:104E10001C06ED0130E020E01097A1F420813181E3
:104E2000820F931F2091190630911A06281739070F
:104E300009F061C0F0931A06E0931906DF91CF9153
:104E40000895EA01CE17DF07E8F54A815B819E01EC
:104E500041155105B1F7E901FB83EA834991599165
:104E6000C40FD51FEC17FD0761F480819181029674
:104E7000840F951FE90199838883828193819B83A5
:104E80008A83F0E0E0E012968D919C911397009751
:104E9000B9F52D913C911197CD010296820F931F88
:104EA0002091190630911A062817390739F63097DC
:104EB00051F510921C0610921B06B0931A06A0938F
:104EC0001906BCCFD383C28340815181840F951FC3
:104ED000C817D90761F44E5F5F4F88819981480FE9
:104EE000591F518340838A819B819383828321153B
:104EF000310509F0B0CFF0931C06E0931B069ECF5E
:104F0000FD01DC01C0CF13821282D7CFB0E0A0E058
:104F1000ECE8F7E20C9444238C01009751F4CB01A8
:104F20000E9461268C01C801CDB7DEB7E0E10C9488
:104F30006023FC01E60FF71F9C0122503109E217A4
:104F4000F30708F49DC0D901CD91DC911197C617E4
:104F5000D70798F0C530D10530F3CE0104978617F6
:104F6000970708F3C61BD70B2297C193D1936D9374
:104F70007C93CF010E94FD26D6CF5B01AC1ABD0AFF
:104F80004C018C0E9D1EA0911B06B0911C06512C4D
:104F9000412CF12CE12C109731F58091190690915C
:104FA0001A068815990509F05CC04616570608F0E0
:104FB00058C08091000190910101009741F48DB794
:104FC0009EB74091040150910501841B950BE81791
:104FD000F90708F055C0F0931A06E0931906F90195
:104FE00071836083A0CF8D919C91119712966C90E4
:104FF000129713967C901397A815B90559F56C0173
:1050000042E0C40ED11CCA14DB0420F1AC014A19E1
:105010005B09DA011296159780F0628273825183E0
:105020004083D9016D937C93E114F10471F0D701B1
:105030001396FC93EE93129776CF22968C0F9D1FBA
:10504000F90191838083F301EFCFF0931C06E09385
:105050001B0669CF4816590608F42C017D01D301BF
:105060009ACFCB010E9461267C01009749F0AE01E6
:10507000B8010E944828C8010E94FD26870153CF2D
:1050800010E000E050CF81E090E0F8940C946328A9
:10509000FB01DC0102C001900D9241505040D8F755
:1050A0000895FB01DC010D900020E9F711970190B4
:1050B0000D920020E1F70895FB01DC0101900D92B3
:0A50C0000020E1F70895F894FFCFF7
:1050CA0000001D0680000000B4420000B442000047
:1050DA0000000000B4420B0D0C0A0200010300009C
:1050EA0000000305630490045005C1049F04B3043F
:1050FA0024004F4B20000D0A004F4B004500322E72
:10510A00322E330056257300403100422566204C6A
:10511A002566205225660058256620592566205A9C
:10512A00256600563100563000422566204C256619
:10513A002052256620482566004D6574616C003250
:10514A002E31005631323334353637383930005340
:10515A0025662052256620482566005625640000EB
:00000001FF
