:100000000C9437010C945F010C945F010C945F0118
:100010000C945F010C945F010C945F010C945F01E0
:100020000C945F010C945F010C945F010C947415A7
:100030000C945F010C945F010C945F010C945F01C0
:100040000C940F140C945F010C94DD130C94B713F3
:100050000C945F010C945F010C945F010C945F01A0
:100060000C9459140C945F01084AD73B3BCE016EA7
:1000700084BCBFFDC12F3D6C74319ABD56833DDAFF
:100080003D00C77F11BED9E4BB4C3E916BAAAABE0E
:10009000000000803F072C7AA5BA6CC590DA3B932C
:1000A00065FC8BBC53F810FD3C5692834DBD879D7B
:1000B0003AB63DCBC9BF5BBE73DA0FC93F05A84C4A
:1000C000CDB2D44EB93836A9020C50B99186880801
:1000D0003CA6AAAA2ABE000000803F004E414E491D
:1000E0004E495459494E46CDCCCC3D0AD7233C17F6
:1000F000B7D13877CC2B329595E6241FB14F0A0043
:100100000020410000C84200401C4620BCBE4CCA32
:100110001B0E5AAEC59D7400407A10F35A00A072AF
:100120004E18090010A5D4E80000E8764817000032
:10013000E40B54020000CA9A3B000000E1F5050000
:100140000080969800000040420F000000A0860149
:10015000000000102700000000E803000000006419
:1001600000000000000A0000000000010000000084
:10017000002C76D888DC674F0823DFC1DFAE59E159
:10018000B1B796E5E3E453C63AE651997696E8E6C8
:10019000C28426EB898C9B62ED407C6FFCEFBC9C9B
:1001A0009F40F2BAA56FA5F490055A2AF75C936BAD
:1001B0006CF9676DC11BFCE0E40D47FEF520E6B568
:1001C00000D0ED902E0300943577050080841E0842
:1001D0000000204E0A000000C80C333333330F9860
:1001E0006E12831141EF8D2114893BE65516CFFE27
:1001F000E6DB18D1844B381BF77C1D901DA4BBE4B3
:1002000024203284725E228100C9F124ECA1E53DF4
:10021000270000000023002600290000000008003D
:1002200002010000030407000000000000000000BD
:10023000000000250028002B0000000000240027FB
:10024000002A00040404040404040402020202025A
:10025000020303030303030102040810204080018A
:10026000020408102001020408102000AF16112417
:100270001FBECFEFD8E0DEBFCDBF11E0A0E0B1E000
:10028000E6E2FCE502C005900D92A43AB107D9F769
:1002900026E0A4EAB1E001C01D92A639B207E1F759
:1002A00011E0C7E3D1E004C02197FE010E94092CB0
:1002B000C633D107C9F70E9449170C94112E0C942C
:1002C00000003F924F925F926F927F928F929F9227
:1002D000AF92BF92CF92DF92EF92FF920F931F9354
:1002E000CF93DF93C82F6A017B0120E030E0A901A2
:1002F000CB01B6010E94892787FDC4C020E030E011
:1003000044E353E4C701B6010E94382B18160CF4DD
:10031000BDC0D0E0FE01EE0FFF1FEE0FFF1FED5B33
:10032000F94FC586D686E786F08A25A136A147A172
:1003300050A5C701B6010E946A296B017C0130906B
:100340004F068E01000F111F20E030E04AEF53E40A
:10035000332009F4ADC00E94892787FF5EC020E0EA
:1003600030E040E251E4C701B6010E94EF272B01C3
:100370003C0120E030E0A9010E94892787FD8DC063
:1003800020E030E041EE54E4C301B2010E94382B7A
:1003900018160CF486C0F801EC0FFD1FED5BF94F49
:1003A00081814DE7842E912C881A910887FD9394C2
:1003B000880C991C880C991C092C000CAA08BB08F5
:1003C000828161E7C62E62E0D62EC81AD10887FD69
:1003D000D394CC0CDD1CCC0CDD1C0D2C000CEE08D9
:1003E000FF08C818D908EA08FB08C301B2010E9437
:1003F0007C2AA70196010E94C52B28E037E040E047
:1004000050E00E94C628CA01B901680D791D8A1DF5
:100410009B1D0E9490276B017C01C00FD11FCD5BFB
:10042000D94FC881CC30E0F420E030E040E851E41E
:10043000C701B6010E94EF271FB7F89426E0C29FBC
:10044000E0011124C650DA4F20E030E040E05EE3E6
:100450000E94EF270E94832A7C836B833D821FBF0B
:10046000DF91CF911F910F91FF90EF90DF90CF9090
:10047000BF90AF909F908F907F906F905F904F90C4
:100480003F900895C12CD12C760143CFC12CD12CA3
:10049000D4E3ED2ED3E4FD2E3CCF412C512C320180
:1004A0007ACF412C512CE1EE6E2EE4E47E2E73CFF8
:1004B0000E94892787FF61C020E030E0A901C701C1
:1004C000B6010E94892787FD91C020E030E044E317
:1004D00053E4C701B6010E94382B181634F4C12C1E
:1004E000D12C34E3E32E33E4F32EF801EC0FFD1F9F
:1004F000ED5BF94F8181ADE74A2E512C481A510826
:1005000087FD5394440C551C440C551C052C000CC1
:1005100066087708828191E7892E92E0992E881AE1
:10052000910887FD9394880C991C880C991C092CC0
:10053000000CAA08BB0884189508A608B70820E094
:1005400030E040E251E4C701B6010E94EF270E946B
:100550007C2AA50194010E94C52B28E037E040E0E9
:1005600050E00E94C628CA01B901640D751D861DA0
:10057000971D0E9490276B017C01C00FD11FCD5B9E
:10058000D94F18811C3008F06BCFC701B6010E940B
:100590007C2AAB01E9818DE790E08E1B9109E7FD94
:1005A0009395880F991F880F991F481759077CF05A
:1005B000EA8181E792E08E1B9109E7FD9395880F10
:1005C000991F880F991F481759070CF4CA01029701
:1005D000880F991F2FB7F89436E0139FF00111246C
:1005E000E650FA4F928381832FBF3ACFC12CD12C92
:1005F00076017BCF8F929F92AF92BF92CF92DF9284
:10060000EF92FF920F931F9349015A016701AB01CB
:10061000BC0180E00E946101B501A40181E00E945B
:100620006101B801A60182E01F910F91FF90EF9048
:10063000DF90CF90BF90AF909F908F900C9461010E
:100640002F923F924F925F926F927F928F929F92E2
:10065000AF92BF92CF92DF92EF92FF921F93CF9310
:10066000DF93CDB7DEB728970FB6F894DEBF0FBE85
:10067000CDBF9E838D8378876F831A01DC018D90B7
:100680009D90AD90BC90A5019401C501B4010E945C
:10069000972B811188C0AF81B8858D919D910D9068
:1006A000BC91A02D89839A83AB83BC839C01AD014F
:1006B000CD01B9010E94972B811175C0F101C08055
:1006C000D180E280F380A7019601C701B6010E94A4
:1006D000972B811168C020916C0630916D06409176
:1006E0006E0650916F0669817A818B819C810E9490
:1006F0006A292B013C0120E030E040EA50E40E94EE
:10070000892787FD4EC020E030E040EF52E4C3016E
:10071000B2010E94382B18160CF443C020917006C9
:10072000309171064091720650917306C701B6016F
:100730000E946A292B013C0120E030E040EA50E4AD
:100740000E94892787FD2DC020E030E040EF52E471
:10075000C301B2010E94382B18161CF129813A817D
:100760004B815C8160E070E084E393E40E9469293E
:10077000A70196010E9469296B017C0120E030E00D
:1007800046E153E40E94382B18165CF020E030E07C
:1007900040EF51E4C701B6010E94892711E087FFAD
:1007A00003C013E001C012E020E030E0A901C50160
:1007B000B4010E94892787FD51C020E030E044E366
:1007C00053E4C501B4010E94382B18160CF44AC03A
:1007D000AD81BE818D929D92AD92BC921397EF81B7
:1007E000F88580809180A280B38020E030E0A9016C
:1007F000C501B4010E94892787FD3BC020E030E09D
:1008000044E353E4C501B4010E94382B1816ACF13F
:10081000AF81B8858D929D92AD92BC921397F101F4
:1008200080809180A280B38020E030E0A901C501E2
:10083000B4010E94892787FD27C020E030E044E30F
:1008400053E4C501B4010E94382B181604F5812C1D
:10085000912C84E3A82E83E4B82E19C0812C912C0E
:100860005401B6CF812C912C24E3A22E23E4B22E86
:10087000AFCF812C912C5401CBCF812C912C94E3C0
:10088000A92E93E4B92EC4CF812C912C5401D1010F
:100890008D929D92AD92BC921397812F28960FB6A0
:1008A000F894DEBF0FBECDBFDF91CF911F91FF90B7
:1008B000EF90DF90CF90BF90AF909F908F907F9000
:1008C0006F905F904F903F902F90089590E0FC01C3
:1008D000E95AFD4F24918D5B9D4FFC018491882343
:1008E00099F090E0880F991FFC01E75CFD4FA591FE
:1008F000B491FC01E15DFD4F859194918FB7F8941F
:10090000EC91E22BEC938FBF0895AF92BF92CF9200
:10091000DF92EF92FF920F931F93CF93DF936C01BF
:100920007B018B01040F151FEB015E01AE18BF08A0
:10093000C017D10759F06991D601ED91FC91019052
:10094000F081E02DC6010995892B79F7C501DF916A
:10095000CF911F910F91FF90EF90DF90CF90BF90BC
:10096000AF900895FC01538D448D252F30E0842FE6
:1009700090E0821B930B541710F0CF9608950197C7
:100980000895FC01918D828D981761F0A28DAE0FB4
:10099000BF2FB11D5D968C91928D9F5F9F73928F3B
:1009A00090E008958FEF9FEF0895FC01918D828D67
:1009B000981731F0828DE80FF11D858D90E0089534
:1009C0008FEF9FEF0895FC01918D228D892F90E08C
:1009D000805C9F4F821B91098F73992708958DE545
:1009E00095E00E94E30421E0892B09F420E0822FA6
:1009F000089580E090E0892B29F00E94EF04811196
:100A00000C9400000895FC01A48DA80FB92FB11D0E
:100A1000A35ABF4F2C91848D90E001968F73992734
:100A2000848FA689B7892C93A089B1898C91837012
:100A300080648C93938D848D981306C00288F3890B
:100A4000E02D80818F7D80830895EF92FF920F9338
:100A50001F93CF93DF93EC0181E0888F9B8D8C8D6A
:100A600098131AC0E889F989808185FF15C09FB75E
:100A7000F894EE89FF896083E889F9898081837021
:100A8000806480839FBF81E090E0DF91CF911F91D0
:100A90000F91FF90EF900895F62E0B8D10E00F5FF1
:100AA0001F4F0F731127E02E8C8D8E110CC00FB6C7
:100AB00007FCFACFE889F989808185FFF5CFCE015F
:100AC0000E940305F1CFEB8DEC0FFD2FF11DE35AD2
:100AD000FF4FF0829FB7F8940B8FEA89FB898081E2
:100AE0008062CFCFCF93DF93EC01888D8823B9F05C
:100AF000AA89BB89E889F9898C9185FD03C0808129
:100B000086FD0DC00FB607FCF7CF8C9185FFF2CFA5
:100B1000808185FFEDCFCE010E940305E9CFDF91F3
:100B2000CF910895833081F028F4813099F082309C
:100B3000A9F008958730A9F08830C9F08430B1F465
:100B4000809180008F7D03C0809180008F7780939B
:100B50008000089584B58F7784BD089584B58F7D16
:100B6000FBCF8091B0008F778093B0000895809183
:100B7000B0008F7DF9CFCF93DF93282F30E0F901BC
:100B8000E55EFD4F8491F901E95AFD4FD491F901D9
:100B9000ED5BFD4FC491CC23A1F081110E94920521
:100BA000EC2FF0E0EE0FFF1FEF5EFD4FA591B4912B
:100BB000EC91ED2381E090E009F480E0DF91CF91AA
:100BC000089580E090E0FACF1F93CF93DF93282F12
:100BD00030E0F901E55EFD4F8491F901E95AFD4FDE
:100BE000D491F901ED5BFD4FC491CC23A9F0162FF0
:100BF00081110E949205EC2FF0E0EE0FFF1FE15DE6
:100C0000FD4FA591B4918FB7F894EC91111108C0E4
:100C1000D095DE23DC938FBFDF91CF911F91089594
:100C2000DE2BF8CF3FB7F8948091F1049091F20455
:100C3000A091F304B091F40426B5A89B05C02F3F02
:100C400019F00196A11DB11D3FBFBA2FA92F982FF2
:100C50008827BC01CD01620F711D811D911D42E0ED
:100C6000660F771F881F991F4A95D1F708958F92B5
:100C70009F92AF92BF92CF92DF92EF92FF920E942B
:100C800012064B015C0185E0C82ED12CE12CF12C21
:100C90000E941206681979098A099B09683E734007
:100CA00081059105A8F321E0C21AD108E108F108F5
:100CB00088EE880E83E0981EA11CB11CC114D104DB
:100CC000E104F10429F7FF90EF90DF90CF90BF90FF
:100CD000AF909F908F9008952091A204260F332704
:100CE000331F21323105ECF42091C604FC0190E061
:100CF00080E0243069F082E00895A091A20421915F
:100D0000AC014E575B4FA40FB52FB11D2C9301962C
:100D1000861798F38091A204680F6093A20480E084
:100D2000089581E0089508958FEF9FEF08958FEF64
:100D30009FEF089580917B0490E0919581959109B2
:100D40000895CF93DF93CB01EA01642F0E946C06D4
:100D5000CE01DF91CF910895CF93DF931F92CDB74E
:100D6000DEB7698361E0CE0101960E946C0681E0E6
:100D700090E00F90DF91CF91089590E080E008958A
:100D800098E087FF07C0449A880F459A459891508C
:100D9000C1F708954498F8CF45984498459A449AE5
:100DA0000895CF93C7B13C98449A459A96B1892F3C
:100DB0008071459894FF06C00E94CC06C7B981E0B7
:100DC000CF910895C7B9FCCF459A449A4498459865
:100DD0000895EF92FF920F931F93CF93DF938C01AF
:100DE000D62FF42EE52EC22F3D9A3C9A459A449A6E
:100DF0000E94E4068D2F0E94C0060E94D10688231F
:100E000049F0C1E08C2FDF91CF911F910F91FF909E
:100E1000EF9008958E2D0E94C0060E94D106811188
:100E2000F0CF8F2D0E94C0060E94D1068111E9CF1C
:100E30000E94E40681E08D0F0E94C0060E94D10648
:100E40008111DFCFF801CC23B9F027B13C9880E0C5
:100E500098E0459A880F3499816045989150C9F778
:100E600027B98193C15041F087B13C9A4498459A83
:100E7000459887B9449AE7CF0E94CC06C3CFEF923A
:100E8000FF920F931F93CF93DF93F82ED92FE62E67
:100E9000142F052FC22F3D9A3C9A459A449A0E94DE
:100EA000E4068E2D0E94C0060E94D106882349F0D8
:100EB000C1E08C2FDF91CF911F910F91FF90EF90A8
:100EC0000895802F0E94C0060E94D1068111F0CFA4
:100ED000812F0E94C0060E94D1068111E9CF0F2DFB
:100EE0001D2FCC2369F0F80181918F010E94C0066B
:100EF000C1500E94D1068111DBCF0E943706F1CF8D
:100F00000E94CC06D6CF2F923F924F925F926F9263
:100F10007F928F929F92AF92BF92CF92DF92EF9289
:100F2000FF920F931F93CF93DF93CDB7DEB72B972D
:100F30000FB6F894DEBF0FBECDBF29013A011801EC
:100F4000870120E030E040E251E40E940A2A4B0190
:100F50005C0120E030E040E251E4C301B2010E94B4
:100F60000A2AA50194010E94692969837A838B83E7
:100F70009C8321E02B87C701FF0CAA0BBB0B8F833F
:100F80009887A987BA879B85692E712C0615170546
:100F90000CF45AC0692F70E090E080E00E948E2728
:100FA0006B017C016F81788589859A850E949027E5
:100FB0009B01AC01C701B6010E940A2A6B017C01AA
:100FC000A1E06A1AA0EC7A0A660C771C660C771C02
:100FD000F101E60DF71DFE83ED83A7019601C70120
:100FE000B6010E94EF2729813A814B815C810E94E2
:100FF000EF272B013C0120E030E040E050ECC7013E
:10100000B6010E94EF2720E030E040E450E40E9467
:101010006A299B01AC01C301B2010E94EF27A5011F
:1010200094010E946A2920E030E040E251E40E94ED
:10103000EF27AD81BE816D937D938D939C93139724
:10104000BB85BF5FBB879FCF2B960FB6F894DEBFE3
:101050000FBECDBFDF91CF911F910F91FF90EF9009
:10106000DF90CF90BF90AF909F908F907F906F90C8
:101070005F904F903F902F900895CF93DF93CDB71F
:10108000DEB760970FB6F894DEBF0FBECDBF92EF0C
:10109000980F8E3008F0892F87708064FE0131969A
:1010A000BE016F5E7F4FAF0180937C0090917A000C
:1010B000906490937A0090917A0096FDFCCF909185
:1010C000780020917900322F292F219331936E17C8
:1010D0007F0751F780E090E0E92FF0E09F01280FB3
:1010E000311D27303105B4F4EE0FFF1FDA01AE0FCA
:1010F000BF1F2D913C9111973296E40FF51F60812F
:1011000071816217730720F46D937C933183208380
:101110009F5FE2CF8F5F8830F1F68D819E812F81B6
:101120003885820F931F29853A85820F931F2B855F
:101130003C85820F931F9695879596958795609627
:101140000FB6F894DEBF0FBECDBFDF91CF910895EB
:10115000892B79F41092800082E0809381001092B4
:10116000850010928400B19A80916F008260809314
:101170006F000895FC0101900020E9F73197AF015D
:10118000481B590BBC018DE595E00C9485048F92AA
:101190009F92AF92BF920F931F93CF93DF93CDB7E0
:1011A000DEB7A1970FB6F894DEBF0FBECDBF19A270
:1011B000423008F44AE08E010F5D1F4F842E912CBF
:1011C000B12CA12CA50194010E942729E62FB90179
:1011D000CA01EA30F4F4E05DD801EE938D01232BCF
:1011E000242B252B79F790E080E0109719F0CD01A2
:1011F0000E94BA08A1960FB6F894DEBF0FBECDBF0D
:10120000DF91CF911F910F91BF90AF909F908F90E2
:101210000895E95CE1CF0C94BA082F923F924F9267
:101220005F926F927F928F929F92AF92BF92CF9276
:10123000DF92EF92FF920F931F93CF93DF93CDB77F
:10124000DEB72B970FB6F894DEBF0FBECDBF2B01D4
:101250003C0129833A834B835C83ED82FE820F83BA
:1012600018878601BA86A986140188A18B8720E099
:1012700030EC4CE455ECC3010E94892787FDBAC1CC
:1012800020E030EC4CE455E4C301B2010E94382B5D
:1012900018160CF4B7C120E030EC4CE455EC698131
:1012A0007A818B819C810E94892787FDB3C120E0D0
:1012B00030EC4CE455E469817A818B819C810E94F9
:1012C000382B18160CF4AFC120E030EC4CE455EC90
:1012D0006D817E818F8198850E94892787FDA8C1B5
:1012E00020E030EC4CE455E46D817E818F8198855F
:1012F0000E94382B18160CF4A4C120E030E040E224
:1013000051E46D817E818F8198850E94EF270E9434
:101310007C2A072E000C880B990B0E94902720E056
:1013200030E040E251E40E940A2A4B015C0120E0D7
:1013300030E042E853E40E94382B18160CF4CDC17B
:1013400020E030E040EF52ECC501B4010E94892753
:1013500087FDC3C120E030E040E251E469817A8139
:101360008B819C810E94EF270E947C2A072E000C13
:10137000880B990B0E94902720E030E040E251E476
:101380000E940A2A6B017C0126E636EE46ED52E405
:10139000C501B4010E94692920E030E444E153E42E
:1013A0000E940A2A4B015C019B85911109C020E033
:1013B00030E0A901C701B6010E94892787FD8DC1D0
:1013C00020E030E040E251E4C301B2010E94EF2787
:1013D0000E947C2A072E000C880B990B0E949027F4
:1013E00020E030E040E251E40E940A2A2B013C0157
:1013F00020E030E0A9010E948927811127C180E007
:1014000090E0A4EBB2E4F80180839183A283B383DC
:10141000D8018D919D910D90BC91A02D89839A83C7
:10142000AB83BC8320E030E044EB52E4BC01CD014F
:101430000E948927882309F449C126EE3EE245E649
:1014400052E469817A818B819C810E940A2A0E94E0
:10145000052A9B01AC01C301B2010E940A2A29E2BC
:101460003CE549EA51E40E94692920E030E048EC7B
:1014700051E40E94692920E030E444E153E40E94F1
:101480000A2A6B017C01AC019B01C501B4010E94D9
:101490000A2A0E94D62926EE3EE245E652E40E9440
:1014A000EF272B013C01A5019401C501B4010E9465
:1014B000EF274B015C01A7019601C701B6010E940D
:1014C000EF279B01AC01C501B4010E946A290E946B
:1014D000532B6B017C01AC019B010E94EF274B0158
:1014E0005C0123E937E745E95FE30E946A2920E0D0
:1014F00030E040E85FE30E94692969837A838B8347
:101500009C8325E531E54AE050E4C701B6010E941D
:10151000EF279B01AC0169817A818B819C810E94BC
:101520000A2A0E94582926EE3EE245E652E40E942D
:10153000EF27F101608371838283938320E030E0A1
:1015400040E85FE3C501B4010E946A2923E937E757
:1015500045E95FE30E9469294B015C01A7019601FF
:10156000C701B6010E946A299B01AC01C501B40103
:101570000E940A2A0E94582926EE3EE245E652E4DD
:101580000E94EF27A30192010E946A29A985BA85CA
:101590006D937D938D939C931397A3019201F10119
:1015A00060817181828193810E946929D1016D934B
:1015B0007D938D939C931397A10169857A85C801CA
:1015C0002B960FB6F894DEBF0FBECDBFDF91CF9143
:1015D0001F910F91FF90EF90DF90CF90BF90AF9051
:1015E0009F908F907F906F905F904F903F902F9043
:1015F0000C942003412C90EC592E9CE4692E95EC20
:10160000792E49CE412C80EC582E8CE4682E85E44E
:10161000782E41CE80E090ECACE4B5EC89839A83DF
:10162000AB83BC8351CE80E090ECACE4B5E4F6CF64
:1016300080E090ECACE4B5EC8D839E83AF83B887FB
:101640005CCE80E090ECACE4B5E4F6CF20E030E096
:10165000A901C301B2010E94382B1816A4F4A301FA
:101660009201C701B6010E940A2A0E94D62926EEDD
:101670003EE245E652E40E94EF27D8016D937D9348
:101680008D939C93139720E030E0A901C301B20130
:101690000E94892787FFBCCEA3019201C701B60132
:1016A0000E940A2A0E94D62926EE3EE245E652E42E
:1016B0000E94EF2720E030E044E353E40E946A29CF
:1016C000F8016083718382839383A2CE29E23CE593
:1016D00049EA51E4C701B601C6CE82E02B960FB6A7
:1016E000F894DEBF0FBECDBFDF91CF911F910F9158
:1016F000FF90EF90DF90CF90BF90AF909F908F9032
:101700007F906F905F904F903F902F9008952F9211
:101710003F924F925F926F927F928F929F92AF9281
:10172000BF92CF92DF92EF92FF920F931F93CF93CE
:10173000DF9300D000D000D0CDB7DEB78C011B0105
:101740005E834D8326EE3EE245E652E46091540608
:101750007091550680915606909157060E940A2A6C
:101760004B015C010E94052A2B013C0126EE3EE262
:1017700045E652E4609158067091590680915A06E8
:1017800090915B060E940A2A6B017C010E94052A47
:1017900069837A838B839C8320E030E444E153E4C3
:1017A000C301B2010E94EF272B013C0123E333E385
:1017B00040E253E469817A818B819C810E94EF270A
:1017C0009B01AC01C301B2010E946A2929E23CE5F8
:1017D00049EA51E40E946A2920E030E048EC51E4F3
:1017E0000E946A292B013C01C501B4010E94452BCE
:1017F0004B015C01C701B6010E94452B6B017C01C6
:1018000026EE3EE245E652E46091500670915106A4
:1018100080915206909153060E940A2A0E94052A3E
:101820009B01AC01C301B2010E94EF27F801608364
:1018300071838283938326EE3EE245E652E4609113
:1018400050067091510680915206909153060E9465
:101850000A2A0E94452B9B01AC01C301B2010E94E0
:10186000EF27F101608371838283938320E030E46A
:1018700044E153E4C501B4010E94EF274B015C0130
:1018800023E333E340E253E4C701B6010E94EF27AC
:101890009B01AC01C501B4010E94692926E636EE20
:1018A00046ED52E40E946A29ED81FE8160837183D6
:1018B0008283938381E026960FB6F894DEBF0FBE35
:1018C000CDBFDF91CF911F910F91FF90EF90DF90EF
:1018D000CF90BF90AF909F908F907F906F905F90D0
:1018E0004F903F902F9008952F923F924F925F928A
:1018F0006F927F928F929F92AF92BF92CF92DF9220
:10190000EF92FF920F931F93CF93DF93CDB7DEB784
:10191000C454D1090FB6F894DEBF0FBECDBF69A77E
:101920007AA78BA79CA72DA73EA74FA758ABE9AADC
:10193000FAAA0BAB1CABADA2BEA2CFA2D8A620E0E8
:1019400030E0A901C601B5010E94892787FDA0C327
:1019500020E030E048EC52E4C601B5010E9489273E
:1019600087FF59C0C601B5010E947C2A9B01AC01CA
:10197000AFEFB0E00E94E52823E630E040E050E021
:101980000E94C62820934F0681E08F93CE010196D6
:101990004C01DE0115965D01FE0139966F01E9A843
:1019A000FAA80BA91CA92DA53EA54FA558A969A564
:1019B0007AA58BA59CA50E940D09782E0F90F2E0C8
:1019C0008F1771F0E980FA800B811C812D813E8197
:1019D0004F81588569857A858B859C850E94FA029E
:1019E000872DCC5BDF4F0FB6F894DEBF0FBECDBFA7
:1019F000DF91CF911F910F91FF90EF90DF90CF90EB
:101A0000BF90AF909F908F907F906F905F904F901E
:101A10003F902F9008958FEF80934F0619A21AA23E
:101A20001BA21CA21D8E1E8E1F8E18A2198E1A8E2E
:101A30001B8E1C8E1D8A1E8A1F8A188E198A1A8A6E
:101A40001B8A1C8A1D861E861F86188A19861A867E
:101A50001B861C861D821E821F82188619821A828E
:101A60001B821C8281E08F93CE010D964C01DE011A
:101A700051965D01FE0175966F01E9A8FAA80BA9C0
:101A80001CA92DA53EA54FA558A969A57AA58BA58A
:101A90009CA50E940D09782E0F90F2E08F1709F493
:101AA0009FCF20E030E0A9016DA17EA18FA198A574
:101AB0000E948927811191C08FEF9FEF9093F804C6
:101AC0008093F704ED84FE840F85188929893A896B
:101AD0004B895C896D897E898F89988D0E94FA0275
:101AE0007724739444244A94542C8091F704909161
:101AF000F80497FD75CF2091F5043091F604821714
:101B000093070CF06DCF8FB7F8944091ED0450918E
:101B1000EE046091EF047091F0048FBFC090F70461
:101B2000D090F8048091770490917804A091790482
:101B3000B0917A04481B590B6A0B7B0B20917504FA
:101B400030917604C29EC001C39E900DD29E900D2E
:101B50001124B0E0A0E0481759076A077B0728F274
:101B60008601000F111F000F111FF801EB57FC4FEA
:101B70007F01C8018B569D4F5C01D801AB55BE4F0C
:101B80001D01AF01BC01CD010E9420038090F5042E
:101B90009090F604823089F0F701E080F1800281B4
:101BA0001381D5012D913D914D915C91F1016081A1
:101BB0007181828193810E94FA02FFEFCF1ADF0ABE
:101BC000D092F804C092F704C814D9040CF48DCF55
:101BD0005092F8044092F70488CF8091500690917B
:101BE0005106A0915206B091530689AF9AAFABAFA0
:101BF000BCAF8091540690915506A0915606B091C5
:101C0000570621968CAF9DAFAEAFBFAF21978091A5
:101C1000580690915906A0915A06B0915B062596F8
:101C20008CAF9DAFAEAFBFAF2597AE014F5F5F4F9B
:101C3000BE016B5F7F4FCE0109960E94870B29ADD5
:101C40003AAD4BAD5CAD6D897E898F89988D0E94D0
:101C500069296B017C0120E030E0A9010E94382B4A
:101C600026013701181624F077FA709477F87094EB
:101C700021962CAD3DAD4EAD5FAD219769897A8936
:101C80008B899C890E9469294B015C0120E030E02E
:101C9000A9010E94382B181624F0B7FAB094B7F8AF
:101CA000B094A3019201C501B4010E94892787FF66
:101CB0007BC120E030E0A901C701B6010E94382BAA
:101CC00018160CF06DC1C701B6010E947C2A8B0169
:101CD000072E000C880B990B0E9490274B015C018A
:101CE00025962CAD3DAD4EAD5FAD25976D857E85BE
:101CF0008F8598890E9469296B017C0120E030E082
:101D0000A9010E94382B181624F0F7FAF094F7F87E
:101D1000F094A7019601C501B4010E94382B181652
:101D20002CF0C701B6010E947C2A8B0134E0732E8F
:101D3000101611060CF0D6CE0D33110514F00CE37D
:101D400010E089859A85AB85BC858DAB9EABAFAB2A
:101D5000B8AF9C01AD0169A57AA58BA59CA50E9491
:101D600069292B013C012D813E814F8158856DA54C
:101D70007EA58FA598A90E9469294B015C01298144
:101D80003A814B815C8169A97AA98BA99CA90E949F
:101D900069296B017C01A3019201C301B2010E9478
:101DA000EF272B013C01A5019401C501B4010E945C
:101DB000EF279B01AC01C301B2010E946A294B01CC
:101DC0005C01A7019601C701B6010E94EF279B01A4
:101DD000AC01C501B4010E946A290E94532B4B013A
:101DE0005C0120E030E04AE754E46DA17EA18FA1C0
:101DF00098A50E94382B181644F480E090E0AAE7DA
:101E0000B4E48DA39EA3AFA3B8A7B801012E000C24
:101E1000880B990B0E9490276B017C012DA13EA19C
:101E20004FA158A5C501B4010E940A2A20E030E064
:101E30004AE754E40E94EF27A70196010E940A2A6C
:101E40000E94832A1B016531710528F190E080E032
:101E50000E948E2720E030E040EA51E40E940A2AE6
:101E6000A70196010E94EF276B017C0120E030E082
:101E700040E752E40E94892764E1262E312C0CE3CE
:101E800010E087FF08C0C701B6010E947C2A8B01C1
:101E900074E1272E312C38010D3311051CF05CE361
:101EA000652E712C730105EA11E029A53AA54BA511
:101EB0005CA56DA97EA98FA998AD0E9483076D814D
:101EC0007E818F81988505E912E02DA53EA54FA55D
:101ED00058A90E94830769817A818B819C8105E8DA
:101EE00013E029A93AA94BA95CA90E948307E5EA56
:101EF000F1E0FEA7EDA785E992E09AA789A71EA3C6
:101F00000DA3512C412C461457040CF079C0EDA1BF
:101F1000FEA1E080F18002811381A9A5BAA52D91CF
:101F20003D914D915C91EDA5FEA56081718182810D
:101F30009381F1E0FF93DE0159964D01FE017D96FC
:101F40005F0118966D010E940D090F90813079F59F
:101F500089A19AA1ABA1BCA1EDA5FEA58193919306
:101F6000A193B193FEA7EDA78D8D9E8DAF8DB8A1E6
:101F7000E9A5FAA581939193A193B193FAA7E9A753
:101F8000898D9A8DAB8DBC8DEDA1FEA1819391932E
:101F9000A193B193FEA3EDA3FFEF4F1A5F0AB3CF56
:101FA000C701B601905891CEC501B4018ECE2D89DE
:101FB0003E894F89588D730105EA11E069AD7AAD0C
:101FC0008BAD9CAD0E94830729893A894B895C8936
:101FD00005E912E021966CAD7DAD8EAD9FAD2197E8
:101FE0000E9483072D853E854F85588905E813E0BB
:101FF00025966CAD7DAD8EAD9FAD25970E94830774
:10200000C3010197880F991F880F991FFC01EB5599
:10201000FE4F4D895E896F89788D4083518362833D
:102020007383FC01EB56FD4F49895A896B897C8982
:1020300040835183628373838B579C4F4D855E85AC
:102040006F857889DC014D935D936D937C93139735
:1020500030927604209275047092F6046092F50432
:102060001092F8041092F7042FB7F8948091ED04C1
:102070009091EE04A091EF04B091F0042FBF8093F3
:10208000770490937804A0937904B0937A0428CDD0
:1020900082E0782EA5CC8F929F92AF92BF92CF9282
:1020A000DF92EF92FF921F93CF93DF93182FC82FE9
:1020B000D0E0833009F04EC080917F0690E00E940E
:1020C0003D08B0E0A0E09C01AD0122563109410974
:1020D0005109A4EBB0E00E94E5282AE631E040E097
:1020E00050E00E94C628CA01B9010E949027CC0F77
:1020F000DD1FCC0FDD1FCD5BD94F2DA13EA14FA120
:1021000058A50E9469296B017C0120E030E0A901FB
:102110000E94892787FD7EC020E030E044E353E43D
:10212000C701B6010E94382B181634F4C12CD12CEB
:1021300084E3E82E83E4F82EC701B601DF91CF9146
:102140001F91FF90EF90DF90CF90BF90AF909F9046
:102150008F900895FE01ED5BF94F81AD90E00E94F4
:102160003D08113009F445C0A0F11230A1F077ED1F
:10217000872E73EA972E70EFA72E7EE3B72EE4E149
:10218000CE2EEEEADE2EEAE2EE2EE2ECFE2E13304A
:1021900089F00E94F12DF3E38F2E982CF3EBAF2EF4
:1021A000FEE3BF2EADECCA2EACECDA2EACEEEA2E7E
:1021B000A1ECFA2EBC01990F880B990B0E94902775
:1021C000A50194010E94EF27A70196010E946A29A8
:1021D0008ECF53E3852E982C53EBA52E5EE3B52EC0
:1021E0006AE9C62E69E9D62E63EFE62E61ECF62E7B
:1021F000E1CF3BE7832E34E1932E3EEAA32E3EE36C
:10220000B32E43ECC42E45EFD42E42EEE42E41EC27
:10221000F42ED0CFC12CD12C76018ECFCF92DF926D
:10222000EF92FF92CF93DF936C01990FEE08FF08B6
:10223000F7FE19C06DE28DE595E00E942505EC01E1
:1022400066277727CB016C197D098E099F094AE023
:102250000E94C7088C0F9D1FDF91CF91FF90EF90D8
:10226000DF90CF9008954AE0C701B601DF91CF918A
:10227000FF90EF90DF90CF900C94C7080F931F93BF
:10228000CF93DF938C01EB01181619065CF480E301
:1022900091E00E940B09C8010E940E1184E391E0B5
:1022A0000E940B0982E391E00E940B094C815D8141
:1022B000688179818DE595E00E94850486E391E04F
:1022C000DF91CF911F910F910C94BA08CF93DF93B8
:1022D000EC01181619065CF480E391E00E940B09EA
:1022E000CE010E940E1184E391E00E940B0989E364
:1022F00091E00E94BA0886E391E0DF91CF910C94BF
:10230000BA080F931F93CF93DF938C01EB0118163C
:1023100019065CF480E391E00E940B09C8010E9459
:102320000E1184E391E00E940B098CE391E00E947E
:102330000B09BE0190E080E04AE00E94C70886E3F6
:1023400091E0DF91CF911F910F910C94BA08FC019D
:1023500080819181009711F00C94AB2C0895EF923D
:10236000FF920F931F93CF93DF93EC017B011982B0
:1023700018821B821A821D821C82FB0101900020A0
:10238000E9F731978F01061B170BB8016F5F7F4F7D
:1023900090E080E00E94342D0097B9F09983888303
:1023A0001B830A832C813D81232B11F4FC011082B5
:1023B0001D830C83B70188819981DF91CF911F9193
:1023C0000F91FF90EF900C940A2E888199810097CD
:1023D00011F00E94AB2C198218821D821C821B8274
:1023E0001A82DF91CF911F910F91FF90EF90089586
:1023F0001F93CF93DF9385ED8093BC0080917E0483
:1024000090917F04A0918004B09181040796A11D52
:10241000B11D23E0B695A795979587952A95D1F795
:102420002091BC0024FD03C01092C60452C040910C
:102430007E0450917F046091800470918104452B4B
:10244000462B472B69F30097A105B10541F025E321
:102450002A95F1F700000197A109B109E1CF809118
:102460007D04C1E0C0937C04882399F1D091B80029
:102470001091BA008091BC008A7B8093BC0060E020
:1024800082E10E94E40560E083E10E94E40510928D
:10249000C604C093C8041092C70461E082E10E94A0
:1024A000E40561E083E10E94E4058091B9008E7F3C
:1024B0008093B9008091B9008D7F8093B90088E442
:1024C0008093B80085E48093BC001093BA00D09349
:1024D000B800DF91CF911F9108952F923F924F92B4
:1024E0005F926F927F928F929F92AF92BF92CF92A4
:1024F000DF92EF92FF920F931F93CF93DF93CDB7AD
:10250000DEB7C057D1090FB6F894DEBF0FBECDBFFE
:10251000CB57DF4FC880D980C558D040C957DF4F4F
:1025200068807980C758D040D301F30110E000E003
:10253000819148019FEF891A990A882329F08532F1
:1025400009F048018401F4CFF6011082011511054C
:1025500071F58D91882311F08193FBCF1082E1E01A
:10256000F0E0EC0FFD1FE00FF11F1082BE016F5F66
:102570007F4FC6010E94FF2DC401C059DF4F0FB627
:10258000F894DEBF0FBECDBFDF91CF911F910F91A9
:10259000FF90EF90DF90CF90BF90AF909F908F9083
:1025A0007F906F905F904F903F902F9008957E01A5
:1025B000F9E8EF0EF11C10E000E0B12CA12C82E351
:1025C000282E312CF301EA0DFB1D8081882339F27E
:1025D000853209F06CC08FEFA81AB80AE1E0F0E08C
:1025E000EC0FFD1FE00FF11F1082BE016F5F7F4FE8
:1025F000C6010E94FF2D1982F301EA0DFB1D8081A7
:102600008636B9F144F4833609F449C0843671F052
:1026100010E000E063C08C36E9F08337C9F787012A
:102620000E5F1F4FF701608171810FC087010E5F40
:102630001F4F4AE0BE016C5C7F4FF70180819181A2
:102640000E947B23BE016C5C7F4FC6010E94FF2D60
:102650007801DECF87010C5F1F4FF7016081718128
:10266000828193812AE0AE014C5C5F4F0E948623F9
:10267000E9CF2701F4E04F0E511CF7016081718111
:10268000828193818E0109591F4F22E044E00E940C
:102690002D23B801C6010E94FF2D7201B9CF870119
:1026A0000E5F1F4FF70180818CAB1DAACBCFE1E0FD
:1026B000F0E0EC0FFD1FE00FF11F8083C8010196D1
:1026C000B1010E94E12B8C01892B41F41BAABE01B0
:1026D0006F5F7F4FC6010E94FF2D1982FFEFAF1A77
:1026E000BF0A70CFEF92FF920F931F93CF93DF93A8
:1026F000CDB7DEB7E8970FB6F894DEBF0FBECDBFFB
:10270000672B99F58C018EE391E09F938F9384E47E
:1027100091E09F938F93CE0101967C019F938F93BD
:102720000E946D12B701CE01C3960E94AF11BE0187
:102730006D5C7F4FC8010E943E11CE01C3960E947E
:10274000A7110F900F900F900F900F900F9080E0B7
:10275000E8960FB6F894DEBF0FBECDBFDF91CF91E4
:102760001F910F91FF90EF90089585E1F1CF1F9297
:102770000F920FB60F9211242F933F934F935F93B5
:102780006F937F938F939F93AF93BF93EF93FF9339
:102790008DE595E00E940305FF91EF91BF91AF9108
:1027A0009F918F917F916F915F914F913F912F9169
:1027B0000F900FBE0F901F9018951F920F920FB69B
:1027C0000F9211242F938F939F93EF93FF93E09198
:1027D0006D05F0916E058081E0917305F0917405AF
:1027E00082FD1BC09081809176058F5F8F73209151
:1027F0007705821741F0E0917605F0E0E35AFA4F51
:10280000958F80937605FF91EF919F918F912F91F6
:102810000F900FBE0F901F9018958081F4CF1F92DC
:102820000F920FB60F9211242F933F938F939F9384
:10283000AF93BF938091ED049091EE04A091EF04CB
:10284000B091F0043091EC0423E0230F2D3758F5BC
:102850000196A11DB11D2093EC048093ED0490938B
:10286000EE04A093EF04B093F0048091F1049091F2
:10287000F204A091F304B091F4040196A11DB11DDE
:102880008093F1049093F204A093F304B093F404C2
:10289000BF91AF919F918F913F912F910F900FBE5C
:1028A0000F901F90189526E8230F0296A11DB11DC9
:1028B000D2CF1F920F920FB60F9211242F933F93F6
:1028C0004F935F936F937F938F939F93AF93BF9338
:1028D000EF93FF938091B900887F803609F44AC056
:1028E000F0F5883209F4A5C018F5803109F499C0D3
:1028F000B8F4882309F4F5C0883009F492C0FF9138
:10290000EF91BF91AF919F918F917F916F915F9167
:102910004F913F912F910F900FBE0F901F901895E0
:10292000883109F486C0803251F78093C50414C001
:10293000803409F49BC040F48033B9F38833F9F64E
:102940008093C50485ECAEC0803509F483C088351A
:1029500009F494C0883499F60E94F811D0CF8839D0
:1029600009F48AC038F5883729F050F4883611F018
:10297000803729F683E08093C6041092C40455C0C2
:10298000883809F479C0803919F0803809F0B7CF58
:102990008091C404803208F06FC0E091C40481E0EB
:1029A0008E0F8093C4048091BB00F0E0EC55FB4F88
:1029B00080833BC0803B39F0D0F4803A09F477C083
:1029C000883A09F09CCF84E08093C6041092A30457
:1029D0001092A204F0E0E0E009958091A204811138
:1029E0000FC081E08093A2041092820409C0803C51
:1029F00009F4A8CF883C09F4A5CF883B09F07FCF24
:102A0000E091A30481E08E0F8093A304F0E0EE57E1
:102A1000FB4F80818093BB009091A3048091A2041E
:102A200029C08091EB048093BB0085EC8093BC00AF
:102A300066CF9091EA048091E904981758F5E091E7
:102A4000EA0481E08E0F8093EA04F0E0E753FB4F45
:102A50008081E9CFE091EA0481E08E0F8093EA045F
:102A60008091BB00F0E0E753FB4F80839091EA0434
:102A70008091E9049817C8F285E8D8CFE091EA047C
:102A800081E08E0F8093EA048091BB00F0E0E75371
:102A9000FB4F80838091C80481115ECF81E08093D9
:102AA000C70484EA8093BC001092C60428CF85EC4A
:102AB0008093BC001092C6048091C404803230F42C
:102AC000E091C404F0E0EC55FB4F10826091C40427
:102AD00070E084EA94E0F0E0E0E009951092C4042C
:102AE0000ECF1092C50438CF1F920F920FB60F92DF
:102AF00011242F933F934F935F936F937F938F9303
:102B00009F93AF93BF93CF93DF93EF93FF93809106
:102B1000A401C0914206D0E087FF24C01092850036
:102B2000109284008091A4018F5F8093A401809112
:102B3000A401082E000C990B8C179D0724F480919A
:102B4000A4018C307CF180918400909185000496E2
:102B500080349C4908F4F9C08091840090918500EC
:102B60000496F5C08091A401082E000C990B8C17D7
:102B70009D07C4F63091A40126E03203F001112430
:102B8000E650FA4F808186FFCDCF3091A401320309
:102B9000F0011124E650FA4F808160E08F730E94AB
:102BA000E405C0CF3091A40126E03203F0011124E6
:102BB000E650FA4F8581882309F48AC03091A40138
:102BC0004091A4014203F0011124E650FA4F8181A3
:102BD00092813203F0011124E650FA4F438154816F
:102BE0008417950708F048C04091A4013091A401D2
:102BF0003203F0011124E650FA4F618172814203E1
:102C0000D0011124A650BA4F15968C91860F972F9C
:102C1000911D928381833091A4014091A4014203CC
:102C2000F0011124E650FA4F818192813203F001C4
:102C30001124E650FA4F438154818417950708F414
:102C400047C04091A4013091A4014203F001112436
:102C5000E650FA4F838194813203F0011124E6504B
:102C6000FA4F928381833091A4013203F001112441
:102C7000E650FA4F15822CC04091A4013091A40176
:102C80003203F0011124E650FA4F81819281420310
:102C9000D0011124A650BA4F15963C91831B91097F
:102CA000928381833091A4014091A4014203F001F9
:102CB0001124E650FA4F818192813203F0011124F0
:102CC000E650FA4F438154814817590708F0B9CFAD
:102CD00080918400909185003091A40126E0320318
:102CE000F0011124E650FA4F41815281840F951F63
:102CF00090938900809388003091A4013203F00101
:102D00001124E650FA4F808186FF0CC03091A40157
:102D10003203F0011124E650FA4F808161E08F7395
:102D20000E94E405FF91EF91DF91CF91BF91AF91A8
:102D30009F918F917F916F915F914F913F912F91D3
:102D40000F900FBE0F901F90189580E49CE9909310
:102D50008900809388008FEF8093A401E3CF1092C5
:102D6000600510925F0588EE93E0A0E0B0E08093EC
:102D7000610590936205A0936305B093640582E2B8
:102D800091E090935E0580935D0585EC90E09093D3
:102D90006A058093690584EC90E090936C058093BC
:102DA0006B0580EC90E090936E0580936D0581EC4F
:102DB00090E09093700580936F0582EC90E0909383
:102DC00072058093710586EC90E090937405809372
:102DD000730510927605109277051092780510927F
:102DE0007905A3E4B6E08FEF96E028EB3BE0E091B5
:102DF0004206EC3008F04BC041E04E0F40934206D3
:102E0000EC939E9FF0011124E650FA4F3283218308
:102E1000139646E0AF34B40751F78FEF80934F0617
:102E200080E1E6E0F1E0A0E5B6E001900D928A9540
:102E3000E1F7E2E6F6E086E0DF011D928A95E9F728
:102E400084EB90E090936106809360068091160178
:102E500090911701A0911801B09119018093780603
:102E600090937906A0937A06B0937B0680911A011D
:102E700090911B01A0911C01B0911D0180937C06D3
:102E800090937D06A0937E06B0937F0608958C9361
:102E9000BFCFCF93DF93CDB7DEB7C057D1090FB601
:102EA000F894DEBF0FBECDBF789484B5826084BD38
:102EB00084B5816084BD85B5826085BD85B581603E
:102EC00085BD80916E00816080936E0010928100BC
:102ED0008091810082608093810080918100816077
:102EE0008093810080918000816080938000809138
:102EF000B10084608093B1008091B00081608093C4
:102F0000B00080917A00846080937A0080917A008A
:102F1000826080937A0080917A00816080937A0049
:102F200080917A00806880937A001092C100E091CD
:102F30006D05F0916E0582E08083E0916905F09166
:102F40006A051082E0916B05F0916C0580E1808349
:102F500010927505E0917105F091720586E080830D
:102F6000E0916F05F0917005808180618083E09130
:102F70006F05F0917005808188608083E0916F0516
:102F8000F0917005808180688083E0916F05F091F9
:102F9000700580818F7D808386E00E94660489E0D1
:102FA0000E94660485E00E9466048BE794E1A6E92E
:102FB000B1EC8093680690936906A0936A06B0937B
:102FC0006B0680E090E0A0E2B1E480936C06909301
:102FD0006D06A0936E06B0936F0680E090E0A0EAC5
:102FE000B1EC8093700690937106A0937206B09333
:102FF000730610927406109275061092760610925F
:103000007706109261061092600610926306109285
:10301000620610926506109264061092670610927E
:1030200066061092440610924506109247061092CA
:10303000480610924A0610924B0687EE80934D0682
:1030400089E180934E0603E416E07FE4C72E76E024
:10305000D72E7801E6E0BE2EFCE0AF2ED8018C9191
:103060008C30C8F5F70195A8892D0E946604D80117
:103070008C91B89EF0011124E650FA4F292D2F7340
:103080009081907C922B90836A2D0E94D52B8A9DF3
:10309000A001112430E020E0BA01620F731FB69E38
:1030A000F001B79EF00D1124E650FA4F908196FD85
:1030B00008C02F5F3F4F2C30310571F790E00E9420
:1030C000A808D801EC91BE9EF0011124E650FA4FF9
:1030D0008081806480830D5F1F4FBFEFEB1AFB0A76
:1030E000C016D10609F0BACF80E00E944B10609361
:1030F000500670935106809352069093530681E0D8
:103100000E944B10609354067093550680935606A8
:103110009093570682E00E944B106093580670937C
:10312000590680935A0690935B0683E00E944B10E9
:1031300060935C0670935D0680935E0690935F06D5
:103140008FEF9FEF9093F8048093F7049093F60429
:103150008093F504109280061092810610928206E8
:1031600010928306109284061092850610928606AD
:103170001092870689EF94E09093890680938806E1
:1031800080E390E0A0E0B0E080938A0690938B0605
:10319000A0938C06B0938D06A12CB12C58ECC52EB3
:1031A00052E4D52EE12CF12C06E113E4A80197019D
:1031B00060E070E0CB010E94740C88E491E00E9412
:1031C000BA0886E391E00E94BA08FE0131961F0119
:1031D0009E012B5F3F4F6F963FAF2EAF6F97809151
:1031E000800690918106A0918206B091830600919D
:1031F00084061091850620918606309187068017F7
:103200009107A207B30711F40C94B722E091880646
:10321000F0918906E80FF91F1081BC01CD016F5FA5
:103220007F4F8F4F9F4F20918A0630918B064091A0
:103230008C0650918D060E9427296093800670931A
:103240008106809382069093830680915B0590911E
:103250005C05009739F00197F1F010925C0510922F
:103260005B05BDCF133239F0173429F01D3419F046
:10327000103509F0B4CF81E090E090935C05809325
:103280005B05133271F08093590581E080935A05F4
:1032900010932905A4CFE0915A05E033F0F61332DC
:1032A00019F410925905F1CF173421F01D3411F0A3
:1032B000103579F4809159058111E7CF81E0809331
:1032C00059058E0F80935A05F0E0E75DFA4F1083A1
:1032D00086CFAE2FB0E0A75DBA4F1A3011F00C9434
:1032E000B1221C92E9E2F5E001900020E9F7319764
:1032F000A9E2B5E0AE17BF0709F4AFCF82918F0105
:10330000082E000C990B0E945827892B11F40C945D
:103310002023F8011082ECCF23E2F21621F0308155
:10332000AE963FAFAE970E944B236BAB7CAB8DABA1
:103330009EAB64E371E090E080E00E944F23FC01CB
:103340000F5F1F4F309759F10630110541F1CF0142
:1033500001960115110501F30130110591F00E944C
:103360004B23F801EE0FFF1FEE0FFF1F23E330E0AA
:103370002C0F3D1FE20FF31F6083718382839383C1
:10338000D8CF43E2F41204C0A081AE96AFAFAE979F
:103390000E944B236FAB78AF89AF9AAFCACF6BA9AE
:1033A0007CA98DA99EA90E947C2AA5967FAF6EAFAD
:1033B000A59733E2F31232C06FA978AD89AD9AAD0B
:1033C0000E947C2A0250110982E090E0AE964FAD37
:1033D000AE974D3409F47CC1403509F4C2C6473478
:1033E00009F03BCF3C01660C771C660C771C83E32D
:1033F00090E08C0F9D1F680E791E693C710509F4E1
:10340000D5C0ACF4672B09F492C064E170E0A596D6
:103410008EAD9FADA5970E9481111FCF015011095C
:10342000A5961FAE1EAEA59781E090E0CFCF6A3C77
:10343000710509F41AC16C3C710539F704301105A6
:1034400009F08DC6D3011C96AD90BD90CD90DC9057
:103450001F9718968D919D910D90BC91A02DA996C6
:103460008CAF9DAFAEAFBFAFA997D30114968D912E
:103470009D910D90BC91A02DA3968CAF9DAFAEAF4A
:10348000BFAFA397F3014080518062807380A10198
:10349000BE01655B7F4FCE018F5A9F4F0E94870B05
:1034A00065962CAD3DAD4EAD5FAD6597C301B201E4
:1034B0000E946A292B013C0165964CAE5DAE6EAE52
:1034C0007FAE65972F962CAD3DAD4EAD5FAD2F977E
:1034D000A3966CAD7DAD8EAD9FADA3970E946A297A
:1034E000A3966CAF7DAF8EAF9FAFA3972F966CAFB7
:1034F0007DAF8EAF9FAF2F9729813A814B815C8141
:10350000A9966CAD7DAD8EAD9FADA9970E946A293D
:1035100069837A838B839C837B018C01A3962CAD7A
:103520003DAD4EAD5FADA397C301B2011BC00430EA
:10353000110509F014C6D3011C96AD90BD90CD9035
:10354000DC901F971896ED90FD900D911C911B97A4
:1035500014962D913D914D915C9117976D917D91B0
:103560008D919C910E94740C823009F0AAC01AE0DF
:1035700080E391E00E940B09A5968EAD9FADA597C3
:103580000E940E1184E391E00E940B098CE391E00C
:103590000E940B09612F70E090E080E04AE00E94F9
:1035A000C70886E391E00E94BA0857CE043011059F
:1035B00009F0D5C5D3018D919D910D90BC91A02DA1
:1035C000A3968CAF9DAFAEAFBFAFA39726EE3EE202
:1035D00045E652E4F30164817581868197810E94FA
:1035E0000A2A6B017C010E94052AA9966CAF7DAF67
:1035F0008EAF9FAFA997C701B6010E94452B9B01D3
:10360000AC01D3011C96AD90BD90CD90DC901F977E
:1036100018968D919D910D90BC91A02DAD968CAF7B
:103620009DAFAEAFBFAFAD97A3966CAD7DAD8EAD88
:103630009FADA3970E94EF272B013C01A9962CADCB
:103640003DAD4EAD5FADA997A3966CAD7DAD8EAD92
:103650009FADA3970E94EF27AD96ECACFDAC0EADED
:103660001FADAD97A30192017DCF0230110509F086
:1036700076C5F301C480D580E680F78060817181D2
:10368000828193810E94832A162F643008F067C5D7
:1036900020E030E044E353E4C701B6010E94382B38
:1036A00018160CF45CC520E030E0A901C701B60192
:1036B0000E94892787FD53C5B701A601812F0E946B
:1036C0006101A5968EAD9FADA5970E946611C5CDEF
:1036D000880F991F880F991F23E330E02C0F3D1F9F
:1036E000280F391FA1963FAF2EAFA1976C3D7105F2
:1036F00009F481C30CF0BCC06A3C710509F461C1D6
:103700000CF06BC0693C710509F07FCE01301105EA
:1037100009F025C5A196AEADBFADA1976D917D9184
:103720008D919C910E94832A643008F020CF062F4F
:1037300010E0F801ED5BF94FB5A87801EE0CFF1C25
:10374000C701800F911FFC01ED5BF94F6F01808174
:103750008C3008F0B6CF8B2D0E946604D6018C9178
:10376000B6E08B9FF0011124E650FA4F2B2D2F73FA
:103770009081907C922B90832CE0622F0E94D52B1D
:10378000482F50E0829FB001112430E020E086E015
:10379000DB01A20FB31F8A9FF0018B9FF00D112454
:1037A000E650FA4F908196FD08C02F5F3F4F2C30B6
:1037B000310571F7CA010E94A8080E0D1F1DF801FE
:1037C000ED5BF94FE08126E0E29FF0011124E65025
:1037D000FA4F80818064808374CF633D710509F462
:1037E00013C1643D710509F010CE0430110509F0D4
:1037F000B6C4A196AEADBFADA19714966D917D9163
:103800008D919C9117970E94832AAA966FAFAA97D1
:10381000B72EA196EEADFFADA19744845584668482
:10382000778460857185828593850E947C2AA6961F
:103830006FAFA697AA96EFACAA97FB2CA196AEAD58
:10384000BFADA1976D917D918D919C910E947C2A35
:10385000E1966FAFE197613009F414C208F457C2E2
:10386000623009F02ECF42EAE0964FAFE0970EC2E9
:10387000673E710509F43BC40CF07CC06D3D7105D9
:1038800009F43AC36E3D710509F0BFCD043011054E
:1038900009F065C4A196AEADBFADA19714968D9009
:1038A0009D90AD90BC901797CD90DD90ED90FC90E1
:1038B000139720E030E040E85FE31C966D917D9126
:1038C0008D919C911F970E94892781112AC026EE15
:1038D0003EE245E652E4C501B4010E940A2A4B01CA
:1038E0005C010E94052AA70196010E94EF27A1967C
:1038F000EEADFFADA1976083718382839383C50191
:10390000B4010E94452BA70196010E94EF27A196C2
:10391000AEADBFADA19714966D937D938D939C939F
:103920001797A196EEADFFADA197E084F1840285D3
:10393000138524813581468157816081718182811F
:1039400093811F924101DE01A55BBF4F5D01FE0126
:10395000EF5AFF4F6F010E940D090F90823009F45A
:10396000CFC58A3009F4CCC5813009F02DC16BE692
:1039700071E079C5683E710509F4DAC3603F7105ED
:1039800009F043CD0230110509F0E9C3A196AEADAF
:10399000BFADA1976D917D918D919C910E94832ADD
:1039A000162FA196EEADFFADA1976481758186813A
:1039B00097810E94832A662309F4CFC361E0812F97
:1039C000AEC30130110509F0CAC3A196AEADBFADBB
:1039D000A1976D917D918D919C910E94832A643075
:1039E00008F0C5CD70E0FB01EE0FFF1FE60FF71FDB
:1039F000ED5BF94FE081B6E0EB9FF0011124E6505A
:103A0000FA4F80818F7BE7CE0330110509F0A7C301
:103A1000A196EEADFFADA1976085718582859385F6
:103A20000E947C2A062FC62ED72EA196AEADBFAD22
:103A3000A19714966D917D918D919C9117970E94FD
:103A4000832A762E172FE62EF72EA196EEADFFAD28
:103A5000A19760817181828193810E947C2A662E68
:103A6000613059F098F0623009F466C010E0912C92
:103A700040EB842E21E4522E9AC0F0EAAF96FFAFBD
:103A8000AF9710E0912C812C512C14C0023031F1F1
:103A90000430B1F10130A9F7872D912F0E94B02891
:103AA000682F70E090E080E00E949027162F972EFC
:103AB000882E592E8FEF860D823008F078C00230A4
:103AC00009F497C00430D1F1AA24A394B12C013099
:103AD000C1F110E0912C38EA832ECCCFA72CB12E67
:103AE000C5010E94B0288983C50101960E94B028B3
:103AF0008A8369817A81072E000C880B990BD4CFB9
:103B000019821A821B821C8241015701A218B30834
:103B1000C501880D991D0E94B028D4018D934D01D7
:103B20006F96EEADFFAD6F97EA17FB0789F7198126
:103B30009A808B805C80BECFF2EAA0CF74E0A72E83
:103B4000B12C872D8F7721E830E02A193B098217A5
:103B500013060CF452C090E8B92EB81A2B2DA70109
:103B6000AF966FADAF97C1010E94E9060E9437067C
:103B70008B2D90E02A2D2B19A701480F591FAF96C6
:103B80006FADAF97820D931D0E94E9060230E1F1FF
:103B9000043009F449C0013051F4698170E090E0CB
:103BA00080E00E948E27162F972E882E592E21E016
:103BB000C216D1044CF033E0C316D104D4F144E072
:103BC000C416D10409F44CC0B101CE01855B9F4FEE
:103BD0000E94AF11BE01655B7F4FA5968EAD9FAD74
:103BE000A5970E943E11CE01855B9F4F0E94A711B1
:103BF00034CB62E0A62EB12CA4CF2A2DA701AF961C
:103C00006FADAF97C101C0CF6981862F90E0982F2B
:103C100088276A81680F792F711D072E000C880B89
:103C2000990B0E949027BFCF19819A808B805C806E
:103C3000BECF612F792D882D952D0E947C2A7F93F0
:103C40006F938BE491E09F938F933F922F920E940A
:103C50006D120F900F900F900F900F900F90B4CFA8
:103C60005F928F929F921F938FE491E09F938F9327
:103C70003F922F920E946D120FB6F894DEBF0FBED6
:103C8000CDBFA2CFB0EAE096BFAFE097E1968FAD8F
:103C9000E1978150823008F014CDA6968FADA6979B
:103CA000823009F493C0843009F499C0813009F05E
:103CB00008CDC301B2010E94832A698301E010E0AC
:103CC000AA968FADAA978F7721E830E0201B310BA1
:103CD000821713060CF488C010E8181B212FA701C7
:103CE000E0966FADE097C1010E943F070E94370642
:103CF000812F90E0202F211BA701480F591FE0962C
:103D00006FADE097820D931D0E943F07DACCA69617
:103D1000EFADA697E23081F0E43089F1E13009F0AF
:103D2000B5CFC301B2010E94832AAA968FADAA978C
:103D30009B2D0E94B828AACFC301B2010E947C2A01
:103D4000962EA72EA0966FAFA097872EAA96CFACDF
:103D5000AA97DB2CC6010E94B028891521F0692D95
:103D6000C6010E94B828FFEFCF1ADF0AC6010E94E1
:103D7000B028881609F48ACF6A2DC601DACF4982A5
:103D80005A826B827C829E012F5F3F4F5901D12C5A
:103D9000C12CD501ED915D01A096EFAFA097470131
:103DA0008C0C9D1CC4010E94B028A096FFADA0976A
:103DB000F81721F06F2FC4010E94B8282FEFC21A04
:103DC000D20A34E0C316D10421F760CFC301B20197
:103DD0000E947C2A79836A8302E010E071CF4982D5
:103DE0005A826B827C826CCF202FA701E0966FAD48
:103DF000E097C10189CF0330110509F0B0C1A19648
:103E0000AEADBFADA1971896ED90FD900D911C91B0
:103E10001B9714962D913D914D915C9117976D9143
:103E20007D918D919C91E1E0EF93FE01EF5AFF4F60
:103E30004F01DE01AB5ABF4F5D0138966F010E9402
:103E40000D096A963FAD6A976B962FAD6B976C968E
:103E50009FAD6C976D968FAD6D97632F722F6C0130
:103E6000CB01AD2DBC2DA196EEADFFADA19780830A
:103E70009183A283B38366963FAD669767962FAD15
:103E8000679768969FAD689769968FAD6997890126
:103E90007C01812F902FAF2DBE2D84839583A68327
:103EA000B7836296BFAD62976396AFAD6397649632
:103EB0009FAD649765968FAD65972B2F3A2F492F4D
:103EC000582FC901DA0180879187A287B3875F9352
:103ED0004F933F932F93EF92FF920F931F93CF92A5
:103EE000DF927F936F9323E531E03F932F933F92CF
:103EF0002F920E946D1260C20330110509F02FC18C
:103F000026EE3EE245E652E4A196AEADBFADA197E6
:103F100014966D917D918D919C9117970E940A2A1C
:103F20006B017C010E94052A4B015C0126EE3EE2FA
:103F300045E652E4A196EEADFFADA197608571858F
:103F4000828593850E940A2A2B013C010E94052A42
:103F5000A9966CAF7DAF8EAF9FAFA99720E030E4FC
:103F600044E153E4C501B4010E94EF274B015C0119
:103F700023E333E340E253E4A9966CAD7DAD8EAD0F
:103F80009FADA9970E94EF279B01AC01C501B40129
:103F90000E946A2929E23CE549EA51E40E946A2923
:103FA00020E030E048EC51E40E946A294B015C01BA
:103FB000C701B6010E94452B6B017C01C301B20110
:103FC0000E94452B2B013C0120E030E444E153E406
:103FD000C701B6010E94EF276B017C0123E333E3A5
:103FE00040E253E4C301B2010E94EF279B01AC0100
:103FF000C701B6010E94692926E636EE46ED52E475
:104000000E946A29A6966FAFA697AA967FAFAA9735
:10401000D82EC92E26EE3EE245E652E4A196AEAD7C
:10402000BFADA1976D917D918D919C910E940A2ABF
:104030002B013C010E94052A9B01AC01C501B40182
:104040000E94EF27162F072FF82EE92EC301B20189
:104050000E94452B9B01AC01C501B4010E94EF27D2
:104060009B01D801F7014B2F5A2F6F2F7E2FA1965E
:10407000EEADFFADA1974083518362837383422FDE
:10408000532F682F792FA196AEADBFADA19714968F
:104090004D935D936D937C931797A696BFADA697AE
:1040A000AA96AFADAA97F6014B2F5A2F6F2F7E2FEE
:1040B000A196EEADFFADA1974087518762877387C8
:1040C000CF92DF92AA96FFADAA97FF93A6964FAD27
:1040D000A6974F939F938F933F932F93EF92FF92C7
:1040E0000F931F938FE591E09F938F93FDC1013054
:1040F0001105A9F520E030E0A901A196AEADBFAD54
:10410000A1976D917D918D919C910E94892781113C
:1041100009C060E086E00E94E40561E085E00E945D
:10412000E405CFCA61E086E00E94E40560E0F6CFD6
:1041300001301105A1F420E030E0A901A196EEAD17
:10414000FFADA19760817181828193810E9489274F
:1041500061E0811160E089E0E2CF60E030CC15E100
:1041600007CA3C01660C771C660C771C23E330E021
:104170002C0F3D1F620E731E6D3C710509F46EC15C
:1041800034F56A3C710509F432C18CF4683C710560
:1041900009F4C4C0693C710509F037C981E891E0B0
:1041A000012B09F429C185E1682F70E030C96B3C0F
:1041B000710509F447C16C3C710509F026C9B801C5
:1041C000A5968EAD9FADA5970E94721342C1673E22
:1041D000710509F48CC10CF07DC06C3D710509F4CA
:1041E00046C16D3D710509F010C9012BE1F680E56E
:1041F000E82E86E0F82E10E0812F0E944B10D701A8
:104200006D937D938D939D937D011F5F1430A1F776
:10421000A101BE01655B7F4FCE018F5A9F4F0E9467
:10422000870B409050065090510600915206109115
:10423000530665966CAD7DAD8EAD9FAD65972F969F
:10424000CCACDDACEEACFFAC2F979B01AC010E9477
:10425000EF274B015C01A7019601C701B6010E943F
:10426000EF279B01AC01C501B4010E946A290E949D
:10427000532B9B01AC01CB01DA01F30180839183C5
:10428000A283B383B201D02EC12ECB01A02FB12FB8
:1042900084839583A683B783B981AA819B818C810E
:1042A0008D017C01812F902FAF2DBE2D80879187AE
:1042B000A287B387EF92FF920F931F93CF92DF9263
:1042C0007F936F935F934F933F932F9387E991E091
:1042D0009F930BCF603F710509F419C1613F7105D0
:1042E00009F42AC1683E710509F08FC8012B09F055
:1042F0005ACF89E00E94BB05019709F404C184E10B
:1043000090E00E943D08893592400CF4FEC081E0A7
:104310001F928F938BE491E09F9373C0012B09F060
:1043200042CF80E00E944B10D3016D937D938D931B
:104330009C93139781E00E944B10F3016483758373
:104340008683978382E00E944B10D30118966D9369
:104350007D938D939C931B9783E00E944B109B0150
:10436000AC01CB01DA01F30184879587A687B78773
:104370005F934F933F932F9383858F9382858F9382
:1043800081858F9380858F9387818F9386818F938B
:1043900085818F9384818F9383818F9382818F9383
:1043A00081818F9380818F9381E791E09F938F9399
:1043B0003F922F920E946D12B101CE01855B9F4FFB
:1043C0000E94AF11BE01655B7F4FA5968EAD9FAD7C
:1043D000A5970E943E11CE01855B9F4F0E94A711B9
:1043E0000FB6F894DEBF0FBECDBF0C942D19012B74
:1043F00009F0D9CE87E891E09F938F9384E491E010
:104400009F938F933F922F920E946D12B101CE0124
:10441000855B9F4F0E94AF11BE01655B7F4FA596E4
:104420008EAD9FADA5970E943E11CE01855B9F4F3B
:104430000E94A7110F900F900F900F900F900F9068
:104440000C942D19B801A5968EAD9FADA5970E942D
:104450007213882311F40C942D19A6CE6BE871E029
:10446000012B09F0A0CEC1010E940A2EADCB012B79
:1044700009F099CE630138E0C30ED11C730144E00A
:10448000E40EF11C00E516E0B12C8B2D0E944B10C0
:10449000D8016D937D938D939D938D01B394B4E07A
:1044A000BB12F3CFA601B701C3010E94870BF30132
:1044B00083858F9382858F9381858F9380858F935A
:1044C00087818F9386818F9385818F9384818F934A
:1044D00083818F9382818F9381818F9380818F934A
:1044E0002FE531E03F932F933F922F9202CD012B86
:1044F00009F059CE86E00E94BB05019709F437CA3E
:104500006EE671E0B0CF80E003CF82E001CF0130F2
:10451000110509F048CEF301608171818281938198
:104520000E94832A862F0E94BB059F938F932BE4C2
:1045300031E03F932F9366CF0130110509F033CE60
:10454000D3016D917D918D919C910E94832ACB0125
:104550000E943D089F938F93EBE4F1E0FF93EF936C
:1045600051CFEF5FE0935A051C930C94EF188DE543
:1045700095E00E94E304892B09F452C08DE595E093
:104580000E94C1048C01019691F3C0908406D090E2
:104590008506E0908606F0908706C701B6016F5F3A
:1045A0007F4F8F4F9F4F20918A0630918B0640910D
:1045B0008C0650918D060E9427298090800690904D
:1045C0008106A0908206B0908306681579058A0559
:1045D0009B0569F2E0918806F0918906EC0DFD1DBE
:1045E0000083609184067091850680918606909183
:1045F00087066F5F7F4F8F4F9F4F20918A063091C4
:104600008B0640918C0650918D060E94272960935D
:104610008406709385068093860690938706A7CFBD
:1046200080E090E0892B11F40C94EF180E94EF04C5
:10463000882311F40C94E5180E9400000C94E518EE
:10464000F090290564E371E089E295E00E944F2330
:10465000FC0110E000E00C94A219EF920F931F935D
:10466000CF93DF93E80134E047FD34E1042E000CE2
:10467000550B57FF03C0519541955109E32E022F69
:10468000242FAE010E94D123CE01DF91CF911F9143
:104690000F91EF900895662777270C9430254EE808
:1046A00056E00E9454230895FA01A191B081009729
:1046B00019F41097E1F0CD01DC01CD010D9000203F
:1046C00011F4C00113C0FB012191222319F0201520
:1046D000D9F7F3CFFB012191201519F41E92119601
:1046E00006C02223C1F70D900020A1F7D001FA01E6
:1046F000A193B0830895BB274A3031F4992322F463
:10470000BDE2909581959F4F0C94B823BB272A302A
:1047100051F4992342F4BDE290958095709561958E
:104720007F4F8F4F9F4F0C949623BB27FA01A62FE4
:104730006217710581059105330B30FB66F0AA27DE
:10474000660F771F881F991FAA1FA21710F0A21BC0
:1047500063953850A9F7A05DAA3308F0A95DA1932D
:1047600036F7B111B1931082CA010C947927BB2797
:10477000FB015527AA27880F991FAA1FA41710F01D
:10478000A41B83955051B9F7A05DAA3308F0A95D29
:10479000A193009779F7B111B1931192CB010C94C9
:1047A0007927A9E0B0E0E7EDF3E20C94F6286A017E
:1047B000F22EB02E102FFBE3AF2EA01608F41BE351
:1047C0001F5F012F27E0AE014F5F5F4F0E948026E1
:1047D000BC018981982F9970913009F43FC09BE208
:1047E000E1FC04C09E2D9170E0FC3AC05E2D50713A
:1047F000E82FE87083FF46C084E0911101C083E098
:10480000EF2DE81B8F1508F0E0E0D6018E2F20E297
:10481000552351F1992329F0D6019C93C6010196A5
:104820006C0196012D5F3F4FE2FE24C08EE4D6015D
:104830008C9391E411969C93119712968C93D901C5
:104840008E2F90E281111BC0E20FF32FF11D108219
:104850008EEF9FEF2996ECE00C9412299DE2C6CFD3
:1048600090E2C4CF2D9381508111FCCFCE0ED11C8C
:10487000E0E0D0CF8EE6D6018C9391E6DBCF9D931E
:104880008150E0CF482F447082FF3DC084E09111F9
:1048900001C083E08F1510F4EF2DE81BD6018E2F99
:1048A00020E2552309F1992329F0D6019C93C601F2
:1048B00001966C0196012D5F3F4FE2FE1BC089E41B
:1048C000D6018C938EE411968C93119786E4129600
:1048D0008C93D9018E2F90E2882309F4B5CF9D9354
:1048E0008150FACF2D9381508111FCCFCE0ED11C77
:1048F000E0E0D9CF89E6D6018C938EE611968C93B1
:10490000119786E6E4CF9B0177FF02C030E020E0FC
:10491000A1E0B0E0911102C0B0E0A0E0F901319651
:10492000AE0FBF1F8B2C912CBB2009F461C054012A
:10493000EFEFAE1ABE0AAA0DBB1DFA161B0619F040
:1049400014F04F2D4A1B511188C0E3FC59C0760169
:10495000A42FB0E2A1114FC0C40ED11C992309F4B9
:104960005BC040E0D6011196F60190836D0155239E
:1049700009F448C0012F060F9A81582F507184FF07
:1049800003C0913309F4015010160CF047C00930F0
:1049900008F008E0EEE2FE2E5B01A01AB1088501E6
:1049A0009194819491082F3F320729F4D601FC920B
:1049B000F60131966F016217730794F1021713071E
:1049C0007CF5DB01A21BB30BAA24A394B12CAC0E83
:1049D000BD1EAA0DBB1D11968C9121503109D60127
:1049E000119628153905F4F0F60180836D01DBCFAF
:1049F000B12CA12CA0CFF701B1937F01A150AACF78
:104A00009111B0CFD601942F50E302C05D93915025
:104A10009111FCCFC40ED11C40E0ACCF01E0BACF65
:104A200080E3DBCF6217730731F4963388F4953354
:104A300011F4552369F0F6018083FD01842F90E283
:104A4000811108C0A40FB11D1C9290E080E002CF3C
:104A500081E3F1CF91938150F3CF911183CF8ACF2E
:104A6000B0E0A0E0E6E3F5E20C94F6285C017B01FF
:104A70006115710519F0DB018D939C9385010F5F22
:104A80001F4FF501D0818D2F90E00E9458276C01B7
:104A9000892BB9F5DD32B9F50F5F1F4FD50111969E
:104AA000DC91C1E05801F1E0AF1AB10843E050E0F9
:104AB00064EE70E0C5010E946127892B69F56801E9
:104AC00082E0C80ED11C45E050E06FED70E0C601F9
:104AD0000E946127892B21F4680197E0C90ED11C3F
:104AE000E114F10419F0D701CD92DC9260E070E09E
:104AF00080E89FEFC111FFC060E070E080E89FE7B1
:104B0000FAC05801BBCFDB3229F485010E5F1F4F7D
:104B1000F501D181C0E0C6CF43E050E06CED70E01C
:104B2000C5010E946127892BE9F0F80110E000E03F
:104B300020E030E0A9015F01B0ED8B2E8D0E89E001
:104B40008815C8F19C2E689491F88C2F8870C2FF4C
:104B500016C0811102C00F5F1F4F3196D501DC9145
:104B6000C92DE9CFE114F10429F00E5F1F4FF701C1
:104B70001183008360E070E080EC9FE7BCC0882375
:104B800011F001501109A5E0B0E00E94E5289B0159
:104B9000AC01220F331F441F551F280D311D411D2D
:104BA000511D283999E93907490799E15907A8F2B0
:104BB000C6609C2ED2CFAEEF8A1206C0C3FD3CC0A9
:104BC0009C2E689493F8C9CFDF7DD534A9F58081F8
:104BD0008D3239F4C061DF011296818162E070E0AC
:104BE00006C0DF018B32C1F3119661E070E08053A3
:104BF0005D01A61AB70A8A30F8F4E0E8CE16ECE0B8
:104C0000DE065CF4B601660F771F660F771FC60ECF
:104C1000D71ECC0CDD1CC80ED11C5D01FFEFAF1AF6
:104C2000BF0A8C9180538A30A8F1C4FF03C0D1948D
:104C3000C194D1080C0D1D1DC1FF09C0E114F10480
:104C400031F081E0A81AB108D701AD92BC92CA0137
:104C5000B9010E948E27C370C33009F490584B01EC
:104C60005C0120E030E0A9010E948927882309F433
:104C700040C0C3E1D1E017FF05C0119501951109AE
:104C8000CBEFD0E06E01B8E1CB1AD10880E2E82E7C
:104C9000F12C0FC0D501B1CFFE0125913591459181
:104CA00054910E191F09C501B4010E94EF274B0151
:104CB0005C01D501C4010E151F0574F72497F59406
:104CC000E794CC16DD06A9F78A2F880F8B2F881F53
:104CD0008F3F49F020E030E0A901C501B4010E94F6
:104CE0008927811106C082E290E09093910680931B
:104CF0009006C501B401CDB7DEB7ECE00C941229E3
:104D0000283008F027E03327DA01990F311D87FD9D
:104D1000916000966105710539F432602E5F3D9314
:104D200030E32A95E1F708959F3F30F08038710510
:104D3000610509F03C5F3C5F3D93913008F080686D
:104D4000911DDF93CF931F930F93FF92EF92192F33
:104D5000987F9695E92F96959695E90FFF27EF583E
:104D6000FE4F99273327EE24FF24A701E701059082
:104D70000894079428F4360FE71EF81E491F511DAA
:104D8000660F771F881F991F0694A1F70590079457
:104D900028F4E70EF81E491F561FC11D770F881F04
:104DA000991F661F0694A1F70590079428F4F80E42
:104DB000491F561FC71FD11D880F991F661F771FD8
:104DC0000694A1F70590079420F4490F561FC71FBA
:104DD000D81F990F661F771F881F0694A9F7849123
:104DE0001095177041F0D695C79557954795F7944C
:104DF000E7941A95C1F7E7E1F1E0689415901591F1
:104E000035916591959105907FE27395E118F10ACE
:104E1000430B560BC90BD009C0F7E10CF11E431F21
:104E2000561FC91FD01D7EF4703311F48A95E6CF4A
:104E3000E894015030F0080F0AF40027021708F434
:104E4000202F2395022F7A3328F079E37D932A953A
:104E5000E9F710C07D932A9589F606949795679592
:104E6000379517951794E118F10A430B560BC90BA8
:104E7000D00998F023957E9173957A3308F070E30A
:104E80007C932013B8F77E9170617D9330F0839509
:104E900071E37D9370E32A95E1F71124EF90FF9081
:104EA0000F911F91CF91DF91992787FD90950895DC
:104EB00091110C945C28803219F089508550C8F704
:104EC0000895FB01DC014150504088F08D91813400
:104ED0001CF08B350CF4805E659161341CF06B35F1
:104EE0000CF4605E861B611171F3990B0895881BA9
:104EF000FCCFDC01FC01672F71917723E1F732973A
:104F000004C07C916D9370836291AE17BF07C8F3A4
:104F100008950E94CB2708F481E00895E89409C021
:104F200097FB3EF490958095709561957F4F8F4FDC
:104F30009F4F9923A9F0F92F96E9BB279395F695F2
:104F4000879577956795B795F111F8CFFAF4BB0F70
:104F500011F460FF1BC06F5F7F4F8F4F9F4F16C0D4
:104F6000882311F096E911C0772321F09EE8872F5E
:104F7000762F05C0662371F096E8862F70E060E01A
:104F80002AF09A95660F771F881FDAF7880F969593
:104F9000879597F90895990F0008550FAA0BE0E837
:104FA000FEEF16161706E807F907C0F012161306EB
:104FB000E407F50798F0621B730B840B950B39F42B
:104FC0000A2661F0232B242B252B21F408950A2691
:104FD00009F4A140A6958FEF811D811D08950E94BF
:104FE00002280C9476280E94682838F00E946F28C6
:104FF00020F0952311F00C945F280C94652811245F
:105000000C94AA280E94872870F3959FC1F3950FEE
:1050100050E0551F629FF001729FBB27F00DB11D3C
:10502000639FAA27F00DB11DAA1F649F6627B00DCC
:10503000A11D661F829F2227B00DA11D621F739FB5
:10504000B00DA11D621F839FA00D611D221F749FC3
:105050003327A00D611D231F849F600D211D822F0A
:10506000762F6A2F11249F5750409AF0F1F0882331
:105070004AF0EE0FFF1FBB1F661F771F881F91505E
:105080005040A9F79E3F510580F00C945F280C9486
:10509000AA285F3FE4F3983ED4F386957795679509
:1050A000B795F795E7959F5FC1F7FE2B880F911D88
:1050B0009695879597F9089599278827089597F9E0
:1050C0009F6780E870E060E008959FEF80EC0895AE
:1050D00000240A94161617061806090608950024D7
:1050E0000A9412161306140605060895092E039451
:1050F000000C11F4882352F0BB0F40F4BF2B11F4C5
:1051000060FF04C06F5F7F4F8F4F9F4F089557FD23
:105110009058440F551F59F05F3F71F04795880F25
:1051200097FB991F61F09F3F79F0879508951216BC
:1051300013061406551FF2CF4695F1DF08C0161668
:1051400017061806991FF1CF869571056105089419
:105150000895E894BB2766277727CB0197F9089530
:10516000F999FECF92BD81BDF89A992780B508952F
:10517000262FF999FECF1FBA92BD81BD20BD0FB673
:10518000F894FA9AF99A0FBE01960895052E97FBA6
:105190001EF400940E94DD2857FD07D00E942729A5
:1051A00007FC03D04EF40C94DD28509540953095C3
:1051B00021953F4F4F4F5F4F089590958095709583
:1051C00061957F4F8F4F9F4F08950E944929A59F5A
:1051D000900DB49F900DA49F800D911D11240895F2
:1051E0002F923F924F925F926F927F928F929F92F7
:1051F000AF92BF92CF92DF92EF92FF920F931F93E5
:10520000CF93DF93CDB7DEB7CA1BDB0B0FB6F89495
:10521000DEBF0FBECDBF09942A88398848885F84D5
:105220006E847D848C849B84AA84B984C884DF8046
:10523000EE80FD800C811B81AA81B981CE0FD11D2A
:105240000FB6F894DEBF0FBECDBFED010895A1E209
:105250001A2EAA1BBB1BFD010DC0AA1FBB1FEE1FF0
:10526000FF1FA217B307E407F50720F0A21BB30B3B
:10527000E40BF50B661F771F881F991F1A9469F7B7
:1052800060957095809590959B01AC01BD01CF0113
:105290000895A29FB001B39FC001A39F700D811D0F
:1052A0001124911DB29F700D811D1124911D08952F
:1052B0009F939F770E94B22A0F90002042F490584B
:1052C000A2EA2AED3FE049E450E40E9481290C94CF
:1052D00076285058BB27AA270E9481290C9476284B
:1052E0000E94682838F00E946F2820F039F49F3F10
:1052F00019F426F40C9465280EF4E095E7FB0C9461
:105300005F28E92F0E94872858F3BA1762077307AE
:105310008407950720F079F4A6F50C94A9280EF4DB
:10532000E0950B2EBA2FA02D0B01B90190010C01B5
:10533000CA01A0011124FF27591B99F0593F50F4CD
:10534000503E68F11A16F040A22F232F342F442725
:10535000585FF3CF469537952795A795F04053951D
:10536000C9F77EF41F16BA0B620B730B840BBAF0ED
:105370009150A1F0FF0FBB1F661F771F881FC2F758
:105380000EC0BA0F621F731F841F48F4879577956C
:105390006795B795F7959E3F08F0B0CF9395880F26
:1053A00008F09927EE0F979587950895DF93DD27ED
:1053B000B92FBF7740E85FE31616170648075B076B
:1053C00018F4D92F0E943D2B9F938F937F936F9357
:1053D0000E94932BE8E6F0E00E94D22A0E947628F1
:1053E0002F913F914F915F910E940228DD2351F050
:1053F0009058A2EA2AED3FE049EC5FE3D0785D27C0
:105400000E948129DF910C9476280E94FB2AE39563
:105410000C94242B0E941E2A0C9476280E946F283C
:1054200058F00E94682840F029F45F3F29F00C945E
:105430005F2851110C94AA280C9465280E94872893
:1054400068F39923B1F3552391F3951B550BBB27B3
:10545000AA2762177307840738F09F5F5F4F220FF8
:10546000331F441FAA1FA9F335D00E2E3AF0E0E8EF
:1054700032D091505040E695001CCAF72BD0FE2F39
:1054800029D0660F771F881FBB1F261737074807CD
:10549000AB07B0E809F0BB0B802DBF01FF27935885
:1054A0005F4F3AF09E3F510578F00C945F280C94C2
:1054B000AA285F3FE4F3983ED4F3869577956795E5
:1054C000B795F7959F5FC9F7880F911D96958795BA
:1054D00097F90895E1E0660F771F881FBB1F6217D9
:1054E00073078407BA0720F0621B730B840BBA0B97
:1054F000EE1F88F7E09508950E94832A6894B11101
:105500000C94AA2808950E948F2888F09F5798F03D
:10551000B92F9927B751B0F0E1F0660F771F881FB8
:10552000991F1AF0BA95C9F714C0B13091F00E94D2
:10553000A928B1E008950C94A928672F782F88270F
:10554000B85F39F0B93FCCF3869577956795B395F9
:10555000D9F73EF490958095709561957F4F8F4F68
:105560009F4F0895DF93CF931F930F938B01EC010F
:10557000E5E9F0E00E94D22A0E9476289801AE0167
:105580008B01EC0160E070E080E89FE30E946929F4
:105590000E94532B9801AE010F911F91CF91DF9183
:1055A0000C940228DF93CF931F930F93FF92EF92F7
:1055B000DF927B018C01689406C0DA2EEF010E9415
:1055C0000228FE01E894A5912591359145915591C8
:1055D000A6F3EF010E948129FE019701A801DA9448
:1055E00069F7DF90EF90FF900F911F91CF91DF91BE
:1055F00008950C9465280E948F28D8F3E894E0E081
:10560000BB279F57F0F02AED3FE049EC06C0EE0FB4
:10561000BB0F661F771F881F28F0B23A6207730717
:10562000840728F0B25A620B730B840BE3959A95AA
:1056300072F7803830F49A95BB0F661F771F881F6A
:10564000D2F790480C949E2BEF93E0FF07C0A2EA9C
:105650002AED3FE049EC5FEB0E9481290E94762809
:105660000F90039401FC9058EDEBF0E00C94B12BFB
:105670000E94CB2708F48FEF08959B01AC0160E0F6
:1056800070E080E89FE30C940A2A9F930E94FB2A13
:105690000F9007FCEE5F0C94242B19F416F40C9475
:1056A00065280C949C2B0E948F28B8F39923C9F38A
:1056B000B6F39F57550B87FF0E94AA2B0024A0E644
:1056C00040EA900180585695979528F4805C660FC3
:1056D000771F881F20F026173707480730F4621B12
:1056E000730B840B202931294A2BA6951794079414
:1056F000202531254A2758F7660F771F881F20F08D
:1057000026173707480730F4620B730B840B200D04
:10571000311D411DA09581F7B901842F9158880F43
:105720009695879508959B01AC010C94EF270E94F4
:10573000CB27880B990B08959F3F31F0915020F4AF
:10574000879577956795B795880F911D969587955D
:1057500097F9089591505040660F771F881FD2F730
:1057600008959F938F937F936F93FF93EF939B0184
:10577000AC010E94EF27EF91FF910E94D22A2F9156
:105780003F914F915F910C94EF27DB018F939F9393
:105790000E94E528BF91AF91A29F800D911DA39F0C
:1057A000900DB29F900D11240895991B79E004C0CB
:1057B000991F961708F0961B881F7A95C9F7809550
:1057C000089597FB072E16F4009407D077FD09D0B3
:1057D0000E94F52B07FC05D03EF4909581959F4FD4
:1057E0000895709561957F4F0895AA1BBB1B51E1E9
:1057F00007C0AA1FBB1FA617B70710F0A61BB70B41
:10580000881F991F5A95A9F780959095BC01CD01E5
:105810000895EE0FFF1F0590F491E02D09940F936A
:105820001F93CF93DF938230910510F482E090E0D4
:10583000E0919406F091950630E020E0B0E0A0E021
:10584000309799F42115310509F44AC0281B390B0A
:1058500024303105D8F58A819B816115710589F164
:10586000FB0193838283FE0111C04081518102813B
:10587000138148175907E0F04817590799F4109712
:1058800061F012960C93129713961C933296CF01E7
:10589000DF91CF911F910F9108950093940610937B
:1058A0009506F4CF2115310551F04217530738F012
:1058B000A901DB019A01BD01DF01F801C1CFEF01B0
:1058C000F9CF9093950680939406CDCFFE01E20F19
:1058D000F31F819391932250310939832883D7CFC5
:1058E0002091920630919306232B41F420910201DE
:1058F000309103013093930620939206209100018A
:10590000309101012115310541F42DB73EB7409189
:10591000040150910501241B350BE0919206F09192
:105920009306E217F307A0F42E1B3F0B2817390745
:1059300078F0AC014E5F5F4F2417350748F04E0FEB
:105940005F1F5093930640939206819391939FCF4C
:10595000F0E0E0E09CCFCF93DF930097E9F0FC010B
:10596000329713821282A0919406B0919506ED01B0
:1059700030E020E01097A1F420813181820F931F45
:1059800020919206309193062817390709F061C0DB
:10599000F0939306E0939206DF91CF910895EA0188
:1059A000CE17DF07E8F54A815B819E01411551055D
:1059B000B1F7E901FB83EA8349915991C40FD51FDF
:1059C000EC17FD0761F4808191810296840F951F89
:1059D000E90199838883828193819B838A83F0E0A4
:1059E000E0E012968D919C9113970097B9F52D9157
:1059F0003C911197CD010296820F931F2091920640
:105A0000309193062817390739F6309751F51092DF
:105A1000950610929406B0939306A0939206BCCF7D
:105A2000D383C28340815181840F951FC817D90742
:105A300061F44E5F5F4F88819981480F591F5183F0
:105A400040838A819B81938382832115310509F0EC
:105A5000B0CFF0939506E09394069ECFFD01DC0154
:105A6000C0CF13821282D7CFB0E0A0E0EAE3FDE21C
:105A70000C94F2288C01009751F4CB010E940F2C5A
:105A80008C01C801CDB7DEB7E0E10C940E29FC0112
:105A9000E60FF71F9C0122503109E217F30708F4C3
:105AA0009DC0D901CD91DC911197C617D70798F009
:105AB000C530D10530F3CE0104978617970708F358
:105AC000C61BD70B2297C193D1936D937C93CF01C3
:105AD0000E94AB2CD6CF5B01AC1ABD0A4C018C0ED8
