:100000000C9437010C945F010C945F010C945F0118
:100010000C945F010C945F010C945F010C94EF133E
:100020000C945F010C945F010C945F010C942E16EC
:100030000C945F010C945F010C945F010C945F01C0
:100040000C94C9140C945F010C9497140C947114C3
:100050000C945F010C945F010C945F010C945F01A0
:100060000C9413150C945F01084AD73B3BCE016EEC
:1000700084BCBFFDC12F3D6C74319ABD56833DDAFF
:100080003D00C77F11BED9E4BB4C3E916BAAAABE0E
:10009000000000803F072C7AA5BA6CC590DA3B932C
:1000A00065FC8BBC53F810FD3C5692834DBD879D7B
:1000B0003AB63DCBC9BF5BBE73DA0FC93F05A84C4A
:1000C000CDB2D44EB93836A9020C50B99186880801
:1000D0003CA6AAAA2ABE000000803F004E414E491D
:1000E0004E495459494E46CDCCCC3D0AD7233C17F6
:1000F000B7D13877CC2B329595E6241FB14F0A0043
:100100000020410000C84200401C4620BCBE4CCA32
:100110001B0E5AAEC59D7400407A10F35A00A072AF
:100120004E18090010A5D4E80000E8764817000032
:10013000E40B54020000CA9A3B000000E1F5050000
:100140000080969800000040420F000000A0860149
:10015000000000102700000000E803000000006419
:1001600000000000000A0000000000010000000084
:10017000002C76D888DC674F0823DFC1DFAE59E159
:10018000B1B796E5E3E453C63AE651997696E8E6C8
:10019000C28426EB898C9B62ED407C6FFCEFBC9C9B
:1001A0009F40F2BAA56FA5F490055A2AF75C936BAD
:1001B0006CF9676DC11BFCE0E40D47FEF520E6B568
:1001C00000D0ED902E0300943577050080841E0842
:1001D0000000204E0A000000C80C333333330F9860
:1001E0006E12831141EF8D2114893BE65516CFFE27
:1001F000E6DB18D1844B381BF77C1D901DA4BBE4B3
:1002000024203284725E228100C9F124ECA1E53DF4
:100210002700000000240027002A0000000000231F
:10022000002600290000000008000201000003046D
:100230000700000000000000000102040810204038
:1002400080010204081020010204081020000000B0
:1002500000250028002B0004040404040404040204
:1002600002020202020303030303030269171124BB
:100270001FBECFEFD8E0DEBFCDBF11E0A0E0B1E000
:10028000EAE2F3E602C005900D92A43AB107D9F76D
:1002900026E0A4EAB1E001C01D92AB3CB207E1F751
:1002A00011E0C7E3D1E004C02197FE010E94902F26
:1002B000C633D107C9F70E9435180C9493310C94BA
:1002C00000003F924F925F926F927F928F929F9227
:1002D000AF92BF92CF92DF92EF92FF920F931F9354
:1002E000CF93DF93C82F6A017B0120E030E0A901A2
:1002F000CB01B6010E94102B87FDC4C020E030E086
:1003000044E353E4C701B6010E94BF2E18160CF453
:10031000BDC0D0E0FE01EE0FFF1FEE0FFF1FEE5934
:10032000F94FC586D686E786F08A25A136A147A172
:1003300050A5C701B6010E94F12C6B017C013090E1
:100340006E068E01000F111F20E030E04AEF53E4EB
:10035000332009F4ADC00E94102B87FF5EC020E05F
:1003600030E040E251E4C701B6010E94762B2B0138
:100370003C0120E030E0A9010E94102B87FD8DC0D8
:1003800020E030E041EE54E4C301B2010E94BF2EF0
:1003900018160CF486C0F801EC0FFD1FEE59F94F4A
:1003A00081814DE7842E912C881A910887FD9394C2
:1003B000880C991C880C991C092C000CAA08BB08F5
:1003C000828161E7C62E62E0D62EC81AD10887FD69
:1003D000D394CC0CDD1CCC0CDD1C0D2C000CEE08D9
:1003E000FF08C818D908EA08FB08C301B2010E9437
:1003F000032EA70196010E944C2F28E037E040E031
:1004000050E00E944D2CCA01B901680D791D8A1D6A
:100410009B1D0E94172B6B017C01C00FD11FCE5971
:10042000D94FC881CC30E0F420E030E040E851E41E
:10043000C701B6010E94762B1FB7F89426E0C29F31
:10044000E0011124C75ED94F20E030E040E05EE3D8
:100450000E94762B0E940A2E7C836B833D821FBFF5
:10046000DF91CF911F910F91FF90EF90DF90CF9090
:10047000BF90AF909F908F907F906F905F904F90C4
:100480003F900895C12CD12C760143CFC12CD12CA3
:10049000D4E3ED2ED3E4FD2E3CCF412C512C320180
:1004A0007ACF412C512CE1EE6E2EE4E47E2E73CFF8
:1004B0000E94102B87FF61C020E030E0A901C70136
:1004C000B6010E94102B87FD91C020E030E044E38C
:1004D00053E4C701B6010E94BF2E181634F4C12C94
:1004E000D12C34E3E32E33E4F32EF801EC0FFD1F9F
:1004F000EE59F94F8181ADE74A2E512C481A510827
:1005000087FD5394440C551C440C551C052C000CC1
:1005100066087708828191E7892E92E0992E881AE1
:10052000910887FD9394880C991C880C991C092CC0
:10053000000CAA08BB0884189508A608B70820E094
:1005400030E040E251E4C701B6010E94762B0E94E0
:10055000032EA50194010E944C2F28E037E040E0D3
:1005600050E00E944D2CCA01B901640D751D861D15
:10057000971D0E94172B6B017C01C00FD11FCE5914
:10058000D94F18811C3008F06BCFC701B6010E940B
:10059000032EAB01E9818DE790E08E1B9109E7FD09
:1005A0009395880F991F880F991F481759077CF05A
:1005B000EA8181E792E08E1B9109E7FD9395880F10
:1005C000991F880F991F481759070CF4CA01029701
:1005D000880F991F2FB7F89436E0139FF00111246C
:1005E000E75EF94F928381832FBF3ACFC12CD12C84
:1005F00076017BCF8F929F92AF92BF92CF92DF9284
:10060000EF92FF920F931F9349015A016701AB01CB
:10061000BC0180E00E946101B501A40181E00E945B
:100620006101B801A60182E01F910F91FF90EF9048
:10063000DF90CF90BF90AF909F908F900C9461010E
:100640002F923F924F925F926F927F928F929F92E2
:10065000AF92BF92CF92DF92EF92FF921F93CF9310
:10066000DF93CDB7DEB728970FB6F894DEBF0FBE85
:10067000CDBF9E838D8378876F831A01DC018D90B7
:100680009D90AD90BC90A5019401C501B4010E945C
:100690001E2F811188C0AF81B8858D919D910D90DD
:1006A000BC91A02D89839A83AB83BC839C01AD014F
:1006B000CD01B9010E941E2F811175C0F101C080CA
:1006C000D180E280F380A7019601C701B6010E94A4
:1006D0001E2F811168C020918B0630918C064091AD
:1006E0008D0650918E0669817A818B819C810E9452
:1006F000F12C2B013C0120E030E040EA50E40E9464
:10070000102B87FD4EC020E030E040EF52E4C301E3
:10071000B2010E94BF2E18160CF443C020918F0620
:10072000309190064091910650919206C701B60112
:100730000E94F12C2B013C0120E030E040EA50E423
:100740000E94102B87FD2DC020E030E040EF52E4E6
:10075000C301B2010E94BF2E18161CF129813A81F3
:100760004B815C8160E070E084E393E40E94F02CB4
:10077000A70196010E94F02C6B017C0120E030E083
:1007800046E153E40E94BF2E18165CF020E030E0F2
:1007900040EF51E4C701B6010E94102B11E087FF22
:1007A00003C01AE001C012E020E030E0A901C50159
:1007B000B4010E94102B87FD51C020E030E044E3DB
:1007C00053E4C501B4010E94BF2E18160CF44AC0B0
:1007D000AD81BE818D929D92AD92BC921397EF81B7
:1007E000F88580809180A280B38020E030E0A9016C
:1007F000C501B4010E94102B87FD3BC020E030E012
:1008000044E353E4C501B4010E94BF2E1816ACF1B5
:10081000AF81B8858D929D92AD92BC921397F101F4
:1008200080809180A280B38020E030E0A901C501E2
:10083000B4010E94102B87FD27C020E030E044E384
:1008400053E4C501B4010E94BF2E181604F5812C93
:10085000912C84E3A82E83E4B82E19C0812C912C0E
:100860005401B6CF812C912C24E3A22E23E4B22E86
:10087000AFCF812C912C5401CBCF812C912C94E3C0
:10088000A92E93E4B92EC4CF812C912C5401D1010F
:100890008D929D92AD92BC921397812F28960FB6A0
:1008A000F894DEBF0FBECDBFDF91CF911F91FF90B7
:1008B000EF90DF90CF90BF90AF909F908F907F9000
:1008C0006F905F904F903F902F900895AF92BF929E
:1008D000CF92DF92EF92FF920F931F93CF93DF930C
:1008E0006C017B018B01040F151FEB015E01AE183B
:1008F000BF08C017D10759F06991D601ED91FC915D
:100900000190F081E02DC6010995892B79F7C50189
:10091000DF91CF911F910F91FF90EF90DF90CF90DB
:10092000BF90AF900895FC01538D448D252F30E08A
:10093000842F90E0821B930B541710F0CF960895EC
:1009400001970895FC01918D828D981761F0A28D19
:10095000AE0FBF2FB11D5D968C91928D9F5F9F73DF
:10096000928F90E008958FEF9FEF0895FC01918D95
:10097000828D981731F0828DE80FF11D858D90E002
:1009800008958FEF9FEF0895FC01918D228D892F9F
:1009900090E0805C9F4F821B91098F739927089587
:1009A0008EE695E00E94C40421E0892B09F420E042
:1009B000822F089580E090E0892B29F00E94D004D6
:1009C00081110C9400000895FC01A48DA80FB92F8B
:1009D000B11DA35ABF4F2C91848D90E001968F7367
:1009E0009927848FA689B7892C93A089B1898C9186
:1009F000837080648C93938D848D981306C00288D5
:100A0000F389E02D80818F7D80830895EF92FF929E
:100A10000F931F93CF93DF93EC0181E0888F9B8D21
:100A20008C8D98131AC0E889F989808185FF15C0DB
:100A30009FB7F894EE89FF896083E889F9898081FE
:100A40008370806480839FBF81E090E0DF91CF91CD
:100A50001F910F91FF90EF900895F62E0B8D10E0EF
:100A60000F5F1F4F0F731127E02E8C8D8E110CC05E
:100A70000FB607FCFACFE889F989808185FFF5CFA9
:100A8000CE010E94E404F1CFEB8DEC0FFD2FF11DA0
:100A9000E35AFF4FF0829FB7F8940B8FEA89FB89E6
:100AA00080818062CFCFCF93DF93EC01888D882344
:100AB000B9F0AA89BB89E889F9898C9185FD03C0C1
:100AC000808186FD0DC00FB607FCF7CF8C9185FFA6
:100AD000F2CF808185FFEDCFCE010E94E404E9CF03
:100AE000DF91CF910895833081F028F4813099F01F
:100AF0008230A9F008958730A9F08830C9F0843099
:100B0000B1F4809180008F7D03C0809180008F7749
:100B100080938000089584B58F7784BD089584B54F
:100B20008F7DFBCF8091B0008F778093B0000895C8
:100B30008091B0008F7DF9CFCF93DF93282F30E0E5
:100B4000F901EB5DFD4F8491F901E75CFD4FD49114
:100B5000F901E95AFD4FC491CC23A1F081110E9403
:100B60007305EC2FF0E0EE0FFF1FE55EFD4FA59142
:100B7000B491EC91ED2381E090E009F480E0DF9105
:100B8000CF91089580E090E0FACF1F93CF93DF9349
:100B9000282F30E0F901EB5DFD4F8491F901E75C0E
:100BA000FD4FD491F901E95AFD4FC491CC23A9F02E
:100BB000162F81110E947305EC2FF0E0EE0FFF1F3E
:100BC000E35BFD4FA591B4918FB7F894EC911111AF
:100BD00008C0D095DE23DC938FBFDF91CF911F91AA
:100BE0000895DE2BF8CFCF93DF9390E0FC01E75C14
:100BF000FD4F2491895A9D4FFC0184918823D1F0A7
:100C000090E0880F991FFC01EF5EFD4FA591B49114
:100C1000FC01E35BFD4FC591D491623071F49FB745
:100C2000F8943C91822F809583238C93E8812E2B1E
:100C300028839FBFDF91CF9108958FB7F894EC91EF
:100C40002E2B2C938FBFF6CF3FB7F8948091F104F1
:100C50009091F204A091F304B091F40426B5A89BFE
:100C600005C02F3F19F00196A11DB11D3FBFBA2F3E
:100C7000A92F982F8827BC01CD01620F711D811DFE
:100C8000911D42E0660F771F881F991F4A95D1F783
:100C900008958F929F92AF92BF92CF92DF92EF9280
:100CA000FF924B015C010E9424066B017C010E94B3
:100CB00024066C197D098E099F09683E73408105E1
:100CC0009105A8F321E0821A9108A108B10888EEE5
:100CD000C80E83E0D81EE11CF11C81149104A1040C
:100CE000B10429F7FF90EF90DF90CF90BF90AF90C5
:100CF0009F908F9008952FB7F8946091ED047091B4
:100D0000EE048091EF049091F0042FBF089520919C
:100D1000A204260F3327331F21323105ECF4209132
:100D2000C604FC0190E080E0243069F082E0089580
:100D3000A091A2042191AC014E575B4FA40FB52F97
:100D4000B11D2C930196861798F38091A204680F29
:100D50006093A20480E0089581E0089508958FEFE4
:100D60009FEF08958FEF9FEF089580917B0490E0AF
:100D70009195819591090895CF93DF93CB01EA0175
:100D8000642F0E948706CE01DF91CF910895CF9303
:100D9000DF931F92CDB7DEB7698361E0CE01019684
:100DA0000E94870681E090E00F90DF91CF91089537
:100DB00090E080E0089598E087FF07C0449A880F8C
:100DC000459A45989150C1F708954498F8CF4598B1
:100DD0004498459A449A0895CF93C7B13C98449A51
:100DE000459A96B1892F8071459894FF06C00E945C
:100DF000E706C7B981E0CF910895C7B9FCCF459AFE
:100E0000449A449845980895EF92FF920F931F9348
:100E1000CF93DF938C01D62FF42EE52EC22F3D9A6F
:100E20003C9A459A449A0E94FF068D2F0E94DB0649
:100E30000E94EC06882349F0C1E08C2FDF91CF910E
:100E40001F910F91FF90EF9008958E2D0E94DB0669
:100E50000E94EC068111F0CF8F2D0E94DB060E94CC
:100E6000EC068111E9CF0E94FF0681E08D0F0E9400
:100E7000DB060E94EC068111DFCFF801CC23B9F02C
:100E800027B13C9880E098E0459A880F34998160BA
:100E900045989150C9F727B98193C15041F087B166
:100EA0003C9A4498459A459887B9449AE7CF0E945E
:100EB000E706C3CFEF92FF920F931F93CF93DF9379
:100EC000F82ED92FE62E142F052FC22F3D9A3C9ACB
:100ED000459A449A0E94FF068E2D0E94DB060E94CE
:100EE000EC06882349F0C1E08C2FDF91CF911F9150
:100EF0000F91FF90EF900895802F0E94DB060E94D3
:100F0000EC068111F0CF812F0E94DB060E94EC06D7
:100F10008111E9CF0F2D1D2FCC2389F0F80181918C
:100F20008F010E94DB06C1500E94EC068111DBCFCD
:100F300065E070E080E090E00E944906EDCF0E94FD
:100F4000E706D2CF2F923F924F925F926F927F929D
:100F50008F929F92AF92BF92CF92DF92EF92FF92C9
:100F60000F931F93CF93DF93CDB7DEB72B970FB6B9
:100F7000F894DEBF0FBECDBF29013A0118018701E9
:100F800020E030E040E251E40E94912D4B015C01F1
:100F900020E030E040E251E4C301B2010E94912D13
:100FA000A50194010E94F02C69837A838B839C8332
:100FB00021E02B87C701FF0CAA0BBB0B8F839887FF
:100FC000A987BA879B85692E712C061517050CF425
:100FD0005AC0692F70E090E080E00E94152B6B01F1
:100FE0007C016F81788589859A850E94172B9B01EA
:100FF000AC01C701B6010E94912D6B017C01A1E0FB
:101000006A1AA0EC7A0A660C771C660C771CF10150
:10101000E60DF71DFE83ED83A7019601C701B6011A
:101020000E94762B29813A814B815C810E94762B2C
:101030002B013C0120E030E040E050ECC701B6015C
:101040000E94762B20E030E040E450E40E94F12C36
:101050009B01AC01C301B2010E94762BA501940152
:101060000E94F12C20E030E040E251E40E94762B17
:10107000AD81BE816D937D938D939C931397BB85BA
:10108000BF5FBB879FCF2B960FB6F894DEBF0FBE16
:10109000CDBFDF91CF911F910F91FF90EF90DF9027
:1010A000CF90BF90AF909F908F907F906F905F9008
:1010B0004F903F902F900895CF93DF93CDB7DEB739
:1010C00060970FB6F894DEBF0FBECDBF92EF980FBA
:1010D0008E3008F0892F87708064FE013196BE0142
:1010E0006F5E7F4FAF0180937C0090917A00906497
:1010F00090937A0090917A0096FDFCCF90917800C1
:1011000020917900322F292F219331936E177F0779
:1011100051F780E090E0E92FF0E09F01280F311DAA
:1011200027303105B4F4EE0FFF1FDA01AE0FBF1FF9
:101130002D913C9111973296E40FF51F60817181DA
:101140006217730720F46D937C93318320839F5F34
:10115000E2CF8F5F8830F1F68D819E812F813885B7
:10116000820F931F29853A85820F931F2B853C851B
:10117000820F931F969587959695879560960FB6E3
:10118000F894DEBF0FBECDBFDF91CF910895892BBC
:1011900079F41092800082E08093810010928500A3
:1011A00010928400B19A80916F00826080936F00EA
:1011B0000895FC0101900020E9F73197AF01481B29
:1011C000590BBC018EE695E00C9466048F929F92B9
:1011D000AF92BF920F931F93CF93DF93CDB7DEB73C
:1011E000A1970FB6F894DEBF0FBECDBF19A2423053
:1011F00008F44AE08E010F5D1F4F842E912CB12C14
:10120000A12CA50194010E94AE2CE62FB901CA01C0
:10121000EA30F4F4E05DD801EE938D01232B242B0A
:10122000252B79F790E080E0109719F0CD010E940E
:10123000D908A1960FB6F894DEBF0FBECDBFDF91DF
:10124000CF911F910F91BF90AF909F908F90089575
:10125000E95CE1CF0C94D9082F923F924F925F92B4
:101260006F927F928F929F92AF92BF92CF92DF92B6
:10127000EF92FF920F931F93CF93DF93CDB7DEB71B
:101280002B970FB6F894DEBF0FBECDBF2B013C01EC
:1012900029833A834B835C83ED82FE820F83188718
:1012A0008601BA86A986140188A18B8720E030ECDC
:1012B0004CE455ECC3010E94102B87FDBAC120E01D
:1012C00030EC4CE455E4C301B2010E94BF2E181665
:1012D0000CF4B7C120E030EC4CE455EC69817A8124
:1012E0008B819C810E94102B87FDB3C120E030ECE4
:1012F0004CE455E469817A818B819C810E94BF2EE8
:1013000018160CF4AFC120E030EC4CE455EC6D81C4
:101310007E818F8198850E94102B87FDA8C120E0D7
:1013200030EC4CE455E46D817E818F8198850E947C
:10133000BF2E18160CF4A4C120E030E040E251E4C6
:101340006D817E818F8198850E94762B0E94032E6D
:10135000072E000C880B990B0E94172B20E030E021
:1013600040E251E40E94912D4B015C0120E030E00D
:1013700042E853E40E94BF2E18160CF4CDC120E0C1
:1013800030E040EF52ECC501B4010E94102B87FD04
:10139000C3C120E030E040E251E469817A818B8171
:1013A0009C810E94762B0E94032E072E000C880B36
:1013B000990B0E94172B20E030E040E251E40E949C
:1013C000912D6B017C0126E636EE46ED52E4C50117
:1013D000B4010E94F02C20E030E444E153E40E9488
:1013E000912D4B015C019B85911109C020E030E0FB
:1013F000A901C701B6010E94102B87FD8DC120E015
:1014000030E040E251E4C301B2010E94762B0E9419
:10141000032E072E000C880B990B0E94172B20E03F
:1014200030E040E251E40E94912D2B013C0120E08C
:1014300030E0A9010E94102B811127C180E090E0CB
:10144000A4EBB2E4F80180839183A283B383D80133
:101450008D919D910D90BC91A02D89839A83AB8332
:10146000BC8320E030E044EB52E4BC01CD010E949B
:10147000102B882309F449C126EE3EE245E652E4EA
:1014800069817A818B819C810E94912D0E948C2D93
:101490009B01AC01C301B2010E94912D29E23CE500
:1014A00049EA51E40E94F02C20E030E048EC51E49D
:1014B0000E94F02C20E030E444E153E40E94912D9E
:1014C0006B017C01AC019B01C501B4010E94912D0F
:1014D0000E945D2D26EE3EE245E652E40E94762B08
:1014E0002B013C01A5019401C501B4010E94762B9A
:1014F0004B015C01A7019601C701B6010E94762B42
:101500009B01AC01C501B4010E94F12C0E94DA2EAE
:101510006B017C01AC019B010E94762B4B015C01AD
:1015200023E937E745E95FE30E94F12C20E030E052
:1015300040E85FE30E94F02C69837A838B839C836D
:1015400025E531E54AE050E4C701B6010E94762B5B
:101550009B01AC0169817A818B819C810E94912DD4
:101560000E94DF2C26EE3EE245E652E40E94762BF6
:10157000F101608371838283938320E030E040E84F
:101580005FE3C501B4010E94F12C23E937E745E987
:101590005FE30E94F02C4B015C01A7019601C7019B
:1015A000B6010E94F12C9B01AC01C501B4010E945F
:1015B000912D0E94DF2C26EE3EE245E652E40E9489
:1015C000762BA30192010E94F12CA985BA856D9317
:1015D0007D938D939C931397A3019201F1016081F8
:1015E0007181828193810E94F02CD1016D937D9352
:1015F0008D939C931397A10169857A85C8012B96D9
:101600000FB6F894DEBF0FBECDBFDF91CF911F9113
:101610000F91FF90EF90DF90CF90BF90AF909F9091
:101620008F907F906F905F904F903F902F900C9491
:101630002003412C90EC592E9CE4692E95EC792ED8
:1016400049CE412C80EC582E8CE4682E85E4782E0F
:1016500041CE80E090ECACE4B5EC89839A83AB8317
:10166000BC8351CE80E090ECACE4B5E4F6CF80E0F2
:1016700090ECACE4B5EC8D839E83AF83B8875CCEF1
:1016800080E090ECACE4B5E4F6CF20E030E0A901D6
:10169000C301B2010E94BF2E1816A4F4A301920147
:1016A000C701B6010E94912D0E945D2D26EE3EE2FB
:1016B00045E652E40E94762BD8016D937D938D937D
:1016C0009C93139720E030E0A901C301B2010E946E
:1016D000102B87FFBCCEA3019201C701B6010E9467
:1016E000912D0E945D2D26EE3EE245E652E40E94D9
:1016F000762B20E030E044E353E40E94F12CF80123
:101700006083718382839383A2CE29E23CE549EA18
:1017100051E4C701B601C6CE82E02B960FB6F8940D
:10172000DEBF0FBECDBFDF91CF911F910F91FF9014
:10173000EF90DF90CF90BF90AF909F908F907F9071
:101740006F905F904F903F902F9008952F923F920F
:101750004F925F926F927F928F929F92AF92BF92C1
:10176000CF92DF92EF92FF920F931F93CF93DF936D
:1017700000D000D000D0CDB7DEB78C011B015E8356
:101780004D8326EE3EE245E652E460917306709189
:10179000740680917506909176060E94912D4B01FA
:1017A0005C010E948C2D2B013C0126EE3EE245E6B9
:1017B00052E4609177067091780680917906909155
:1017C0007A060E94912D6B017C010E948C2D698309
:1017D0007A838B839C8320E030E444E153E4C301AB
:1017E000B2010E94762B2B013C0123E333E340E25C
:1017F00053E469817A818B819C810E94762B9B01C5
:10180000AC01C301B2010E94F12C29E23CE549EA96
:1018100051E40E94F12C20E030E048EC51E40E94B9
:10182000F12C2B013C01C501B4010E94CC2E4B01CF
:101830005C01C701B6010E94CC2E6B017C0126EE33
:101840003EE245E652E460916F0670917006809129
:101850007106909172060E94912D0E948C2D9B0121
:10186000AC01C301B2010E94762BF8016083718341
:101870008283938326EE3EE245E652E460916F0652
:101880007091700680917106909172060E94912D60
:101890000E94CC2E9B01AC01C301B2010E94762BA9
:1018A000F101608371838283938320E030E444E11B
:1018B00053E4C501B4010E94762B4B015C0123E384
:1018C00033E340E253E4C701B6010E94762B9B014B
:1018D000AC01C501B4010E94F02C26E636EE46EDBF
:1018E00052E40E94F12CED81FE816083718382833A
:1018F000938381E026960FB6F894DEBF0FBECDBF6E
:10190000DF91CF911F910F91FF90EF90DF90CF90DB
:10191000BF90AF909F908F907F906F905F904F900F
:101920003F902F9008952F923F924F925F926F9227
:101930007F928F929F92AF92BF92CF92DF92EF925F
:10194000FF920F931F93CF93DF93CDB7DEB7C454AD
:10195000D1090FB6F894DEBF0FBECDBF69A77AA735
:101960008BA79CA72DA73EA74FA758ABE9AAFAAA19
:101970000BAB1CABADA2BEA2CFA2D8A620E030E03C
:10198000A901C601B5010E94102B87FD88C320E084
:1019900030E048EC52E4C601B5010E94102B87FFED
:1019A00059C0C601B5010E94032E9B01AC01AFEFE7
:1019B000B0E00E946C2C23E630E040E050E00E9452
:1019C0004D2C20936E0681E08F93CE0101964C0141
:1019D000DE0115965D01FE0139966F01E9A8FAA8AE
:1019E0000BA91CA92DA53EA54FA558A969A57AA5A7
:1019F0008BA59CA50E942C09782E0F90F2E08F17E2
:101A000071F0E980FA800B811C812D813E814F812C
:101A1000588569857A858B859C850E94FA02872D79
:101A2000CC5BDF4F0FB6F894DEBF0FBECDBFDF91AA
:101A3000CF911F910F91FF90EF90DF90CF90BF90CB
:101A4000AF909F908F907F906F905F904F903F905E
:101A50002F9008958FEF80936E0619A21AA21BA2F1
:101A60001CA21D8E1E8E1F8E18A2198E1A8E1B8E02
:101A70001C8E1D8A1E8A1F8A188E198A1A8A1B8A32
:101A80001C8A1D861E861F86188A19861A861B8642
:101A90001C861D821E821F82188619821A821B8252
:101AA0001C8281E08F93CE010D964C01DE01519690
:101AB0005D01FE0175966F01E9A8FAA80BA91CA9A2
:101AC0002DA53EA54FA558A969A57AA58BA59CA5CE
:101AD0000E942C09782E0F90F2E08F1709F49FCF07
:101AE00020E030E0A9016DA17EA18FA198A50E9400
:101AF000102B811182C08FEF9FEF9093F804809399
:101B0000F704ED84FE840F85188929893A894B8969
:101B10005C896D897E898F89988D0E94FA0277246D
:101B2000739444244A94542CC090F704D090F80441
:101B3000D7FC75CFA090F504B090F604CA14DB046E
:101B40000CF06DCF0E947B06009177041091780411
:101B50002091790430917A04AB01BC01401B510BF8
:101B6000620B730B2091750430917604C29EC00104
:101B7000C39E900DD29E900D1124B0E0A0E04817B6
:101B800059076A077B0780F28601000F111F000FBB
:101B9000111FF801EB57FC4F7F01C8018B569D4F79
:101BA0004C01D801AB55BE4F1D01AF01BC01CD01A9
:101BB0000E942003823089F0F701E080F1800281E9
:101BC0001381D4012D913D914D915C91F101608182
:101BD0007181828193810E94FA02FFEFCF1ADF0A9E
:101BE000D092F804C092F704CA14DB040CF49CCF22
:101BF0005092F8044092F70497CF80916F0690912D
:101C00007006A0917106B091720689AF9AAFABAF22
:101C1000BCAF8091730690917406A0917506B09147
:101C2000760621968CAF9DAFAEAFBFAF2197809166
:101C3000770690917806A0917906B0917A0625965C
:101C40008CAF9DAFAEAFBFAF2597AE014F5F5F4F7B
:101C5000BE016B5F7F4FCE0109960E94A60B29AD96
:101C60003AAD4BAD5CAD6D897E898F89988D0E94B0
:101C7000F02C6B017C0120E030E0A9010E94BF2E16
:101C800026013701181624F077FA709477F87094CB
:101C900021962CAD3DAD4EAD5FAD219769897A8916
:101CA0008B899C890E94F02C4B015C0120E030E084
:101CB000A9010E94BF2E181624F0B7FAB094B7F805
:101CC000B094A3019201C501B4010E94102B87FFBB
:101CD0007BC120E030E0A901C701B6010E94BF2E00
:101CE00018160CF06DC1C701B6010E94032E8B01BE
:101CF000072E000C880B990B0E94172B4B015C01DF
:101D000025962CAD3DAD4EAD5FAD25976D857E859D
:101D10008F8598890E94F02C6B017C0120E030E0D7
:101D2000A9010E94BF2E181624F0F7FAF094F7F8D4
:101D3000F094A7019601C501B4010E94BF2E1816A8
:101D40002CF0C701B6010E94032E8B0134E0732EE4
:101D5000101611060CF0E5CE0D33110514F00CE34E
:101D600010E089859A85AB85BC858DAB9EABAFAB0A
:101D7000B8AF9C01AD0169A57AA58BA59CA50E9471
:101D8000F02C2B013C012D813E814F8158856DA5A2
:101D90007EA58FA598A90E94F02C4B015C0129819A
:101DA0003A814B815C8169A97AA98BA99CA90E947F
:101DB000F02C6B017C01A3019201C301B2010E94CE
:101DC000762B2B013C01A5019401C501B4010E94B1
:101DD000762B9B01AC01C301B2010E94F12C4B0197
:101DE0005C01A7019601C701B6010E94762B9B01F9
:101DF000AC01C501B4010E94F12C0E94DA2E4B0106
:101E00005C0120E030E04AE754E46DA17EA18FA19F
:101E100098A50E94BF2E181644F480E090E0AAE72F
:101E2000B4E48DA39EA3AFA3B8A7B801012E000C04
:101E3000880B990B0E94172B6B017C012DA13EA1F1
:101E40004FA158A5C501B4010E94912D20E030E0BA
:101E50004AE754E40E94762BA70196010E94912D37
:101E60000E940A2E1B016531710528F190E080E087
:101E70000E94152B20E030E040EA51E40E94912DB1
:101E8000A70196010E94762B6B017C0120E030E0D7
:101E900040E752E40E94102B64E1262E312C0CE323
:101EA00010E087FF08C0C701B6010E94032E8B0116
:101EB00074E1272E312C38010D3311051CF05CE341
:101EC000652E712C730105EA11E029A53AA54BA5F1
:101ED0005CA56DA97EA98FA998AD0E94A2076D810E
:101EE0007E818F81988505E912E02DA53EA54FA53D
:101EF00058A90E94A20769817A818B819C8105E89B
:101F000013E029A93AA94BA95CA90E94A207E5EA16
:101F1000F1E0FEA7EDA785E992E09EA38DA31AA7A5
:101F200009A7512C412C461457040CF079C0E9A59F
:101F3000FAA5E080F18002811381ADA1BEA12D91AF
:101F40003D914D915C91EDA5FEA5608171818281ED
:101F50009381F1E0FF93DE0159964D01FE017D96DC
:101F60005F0118966D010E942C090F90813079F560
:101F700089A19AA1ABA1BCA1EDA5FEA581939193E6
:101F8000A193B193FEA7EDA78D8D9E8DAF8DB8A1C6
:101F9000EDA1FEA181939193A193B193FEA3EDA333
:101FA000898D9A8DAB8DBC8DE9A5FAA5819391930E
:101FB000A193B193FAA7E9A7FFEF4F1A5F0AB3CF36
:101FC000C701B601905891CEC501B4018ECE2D89BE
:101FD0003E894F89588D730105EA11E069AD7AADEC
:101FE0008BAD9CAD0E94A20729893A894B895C89F7
:101FF00005E912E021966CAD7DAD8EAD9FAD2197C8
:102000000E94A2072D853E854F85588905E813E07B
:1020100025966CAD7DAD8EAD9FAD25970E94A20734
:10202000C3010197880F991F880F991FFC01EB5579
:10203000FE4F4D895E896F89788D4083518362831D
:102040007383FC01EB56FD4F49895A896B897C8962
:1020500040835183628373838B579C4F4D855E858C
:102060006F857889DC014D935D936D937C93139715
:1020700030927604209275047092F6046092F50412
:102080001092F8041092F7040E947B066093770484
:10209000709378048093790490937A0440CD82E021
:1020A000782EBDCCCF92DF92EF92FF92CF93DF9349
:1020B0006C01990FEE08FF08F7FE19C06DE28EE67D
:1020C00095E00E940605EC0166277727CB016C1985
:1020D0007D098E099F094AE00E94E6088C0F9D1F2A
:1020E000DF91CF91FF90EF90DF90CF9008954AE07D
:1020F000C701B601DF91CF91FF90EF90DF90CF90B5
:102100000C94E6080F931F93CF93DF938C01EB01A0
:10211000181619065CF481E391E00E942A09C801AF
:102120000E94521085E391E00E942A0983E391E026
:102130000E942A094C815D81688179818EE695E053
:102140000E94660487E391E0DF91CF911F910F9188
:102150000C94D908CF93DF93EC01181619065CF4A0
:1021600081E391E00E942A09CE010E94521085E38A
:1021700091E00E942A098AE391E00E94D90887E34E
:1021800091E0DF91CF910C94D9080F931F93CF93D7
:10219000DF938C01EB01181619065CF481E391E0E2
:1021A0000E942A09C8010E94521085E391E00E9412
:1021B0002A098DE391E00E942A09BE0190E080E0A7
:1021C0004AE00E94E60887E391E0DF91CF911F91FA
:1021D0000F910C94D908CF92DF92EF92FF920F9358
:1021E0001F93CF93DF93EB017B0124E0E20EF11C00
:1021F0008B016C01C61AD70AC601800F911F0E947D
:10220000372CF80181938F01EE15FF05A9F7CE0158
:10221000DF91CF911F910F91FF90EF90DF90CF90C2
:102220000895CF92DF92EF92FF920F931F93CF9377
:10223000DF93CDB7DEB728970FB6F894DEBF0FBE99
:10224000CDBF282F30E08901000F111F000F111F93
:10225000833009F04EC080919E0690E00E945C0899
:10226000B0E0A0E09C01AD012256310941095109BD
:10227000A4EBB0E00E946C2C2AE631E040E050E094
:102280000E944D2CCA01B9010E94172BF801EE598A
:10229000F94F25A136A147A150A50E94F02C6B0152
:1022A0007C0120E030E0A9010E94102B87FD53C083
:1022B00020E030E044E353E4C701B6010E94BF2EA2
:1022C000181634F4C12CD12C84E3E82E83E4F82EC4
:1022D000C701B60128960FB6F894DEBF0FBECDBF7A
:1022E000DF91CF911F910F91FF90EF90DF90CF90F2
:1022F00008952E59394FF90181AD90E00E945C0894
:102300007C011D821E821F82188619821A821B82FE
:102310001C82BE016B5F7F4FC8018A5B9F4F0E948A
:10232000EB10BE016F5F7F4FC801C2960E94EB1099
:10233000B701FF0C880B990B0E94172B29813A815A
:102340004B815C810E94762B2D813E814F81588587
:102350000E94F12C9BCFC12CD12C7601B9CF9F923A
:10236000AF92BF92CF92DF92EF92FF920F931F93A3
:10237000CF93DF935C017B018B01D0E0C0E0F801DB
:1023800091908F016501CC0EDD1EC6010E94372C95
:10239000981621F0692DC6010E943F2C2196C43069
:1023A000D10569F7C701DF91CF911F910F91FF9080
:1023B000EF90DF90CF90BF90AF909F900895FC0179
:1023C00080819181009711F00C9432300895EF9242
:1023D000FF920F931F93CF93DF93EC017B01198240
:1023E00018821B821A821D821C82FB010190002030
:1023F000E9F731978F01061B170BB8016F5F7F4F0D
:1024000090E080E00E94BB300097B9F09983888308
:102410001B830A832C813D81232B11F4FC01108244
:102420001D830C83B70188819981DF91CF911F9122
:102430000F91FF90EF900C948C31888199810097D7
:1024400011F00E943230198218821D821C821B8278
:102450001A82DF91CF911F910F91FF90EF90089515
:102460001F93CF93DF9385ED8093BC0080917E0412
:1024700090917F04A0918004B09181040796A11DE2
:10248000B11D23E0B695A795979587952A95D1F725
:102490002091BC0024FD03C01092C60452C040919C
:1024A0007E0450917F046091800470918104452BDB
:1024B000462B472B69F30097A105B10541F025E3B1
:1024C0002A95F1F700000197A109B109E1CF8091A8
:1024D0007D04C1E0C0937C04882399F1D091B800B9
:1024E0001091BA008091BC008A7B8093BC0060E0B0
:1024F00082E10E94C50560E083E10E94C50510925B
:10250000C604C093C8041092C70461E082E10E942F
:10251000C50561E083E10E94C5058091B9008E7F09
:102520008093B9008091B9008D7F8093B90088E4D1
:102530008093B80085E48093BC001093BA00D093D8
:10254000B800DF91CF911F9108952F923F924F9243
:102550005F926F927F928F929F92AF92BF92CF9233
:10256000DF92EF92FF920F931F93CF93DF93CDB73C
:10257000DEB7C057D1090FB6F894DEBF0FBECDBF8E
:10258000CB57DF4FC880D980C558D040C957DF4FDF
:1025900068807980C758D040D301F30110E000E093
:1025A000819148019FEF891A990A882329F0853281
:1025B00009F048018401F4CFF601108201151105DC
:1025C00071F58D91882311F08193FBCF1082E1E0AA
:1025D000F0E0EC0FFD1FE00FF11F1082BE016F5FF6
:1025E0007F4FC6010E948131C401C059DF4F0FB631
:1025F000F894DEBF0FBECDBFDF91CF911F910F9139
:10260000FF90EF90DF90CF90BF90AF909F908F9012
:102610007F906F905F904F903F902F9008957E0134
:10262000F9E8EF0EF11C10E000E0B12CA12C82E3E0
:10263000282E312CF301EA0DFB1D8081882339F20D
:10264000853209F06CC08FEFA81AB80AE1E0F0E01B
:10265000EC0FFD1FE00FF11F1082BE016F5F7F4F77
:10266000C6010E9481311982F301EA0DFB1D8081B0
:102670008636B9F144F4833609F449C0843671F0E2
:1026800010E000E063C08C36E9F08337C9F78701BA
:102690000E5F1F4FF701608171810FC087010E5FD0
:1026A0001F4F4AE0BE016C5C7F4FF7018081918132
:1026B0000E940227BE016C5C7F4FC6010E948131DF
:1026C0007801DECF87010C5F1F4FF70160817181B8
:1026D000828193812AE0AE014C5C5F4F0E940D27FE
:1026E000E9CF2701F4E04F0E511CF70160817181A1
:1026F000828193818E0109591F4F22E044E00E949C
:10270000B426B801C6010E9481317201B9CF870198
:102710000E5F1F4FF70180818CAB1DAACBCFE1E08C
:10272000F0E0EC0FFD1FE00FF11F8083C801019660
:10273000B1010E94682F8C01892B41F41BAABE01B4
:102740006F5F7F4FC6010E9481311982FFEFAF1A80
:10275000BF0A70CFEF92FF920F931F93CF93DF9337
:10276000CDB7DEB7E8970FB6F894DEBF0FBECDBF8A
:10277000672B99F58C018FE391E09F938F9385E40C
:1027800091E09F938F93CE0101967C019F938F934D
:102790000E94A512B701CE01C3960E94E711BE01A7
:1027A0006D5C7F4FC8010E948210CE01C3960E94CB
:1027B000DF110F900F900F900F900F900F9080E00F
:1027C000E8960FB6F894DEBF0FBECDBFDF91CF9174
:1027D0001F910F91FF90EF90089585E1F1CF1F9227
:1027E0000F920FB60F9211242F933F934F935F9345
:1027F0006F937F938F939F93AF93BF93EF93FF93C9
:1028000080912E0590912F05A0913005B091310552
:10281000892B8A2B8B2BD1F190912905E0912A05E8
:10282000F0912B0580818927808380912E059091DE
:102830002F05A0913005B0913105181619061A061A
:102840001B069CF480912E0590912F05A0913005D8
:10285000B09131050197A109B10980932E0590939C
:102860002F05A0933005B0933105FF91EF91BF91F3
:10287000AF919F918F917F916F915F914F913F9118
:102880002F910F900FBE0F901F901895809100010F
:10289000EBE6F2E0E4919FEF90930001E13051F01C
:1028A00030F0E23069F060E00E94C505DECF1092A2
:1028B0006E00F9CF90916F009D7F90936F00F3CFE2
:1028C000909170009D7F9093700091E09093B00084
:1028D0009091B100987F94609093B1001092B300F2
:1028E000E2CF1F920F920FB60F9211242F933F93B6
:1028F0004F935F936F937F938F939F93AF93BF9308
:10290000EF93FF938EE695E00E94E404FF91EF9130
:10291000BF91AF919F918F917F916F915F914F91F7
:102920003F912F910F900FBE0F901F9018951F92FF
:102930000F920FB60F9211242F938F939F93EF93C3
:10294000FF93E0917E05F0917F058081E091840501
:10295000F091850582FD1BC09081809187058F5F76
:102960008F7320918805821741F0E0918705F0E090
:10297000E259FA4F958F80938705FF91EF919F91D0
:102980008F912F910F900FBE0F901F9018958081FF
:10299000F4CF1F920F920FB60F9211242F933F93F3
:1029A0008F939F93AF93BF938091ED049091EE042A
:1029B000A091EF04B091F0043091EC0423E0230FD8
:1029C0002D3758F50196A11DB11D2093EC0480937D
:1029D000ED049093EE04A093EF04B093F004809183
:1029E000F1049091F204A091F304B091F4040196E3
:1029F000A11DB11D8093F1049093F204A093F30400
:102A0000B093F404BF91AF919F918F913F912F911B
:102A10000F900FBE0F901F90189526E8230F029677
:102A2000A11DB11DD2CF1F920F920FB60F9211248C
:102A30002F933F934F935F936F937F938F939F93C6
:102A4000AF93BF93EF93FF938091B900887F803657
:102A500009F44AC0F0F5883209F4A5C018F58031B0
:102A600009F499C0B8F4882309F4F5C0883009F452
:102A700092C0FF91EF91BF91AF919F918F917F9104
:102A80006F915F914F913F912F910F900FBE0F90DB
:102A90001F901895883109F486C0803251F78093D1
:102AA000C50414C0803409F49BC040F48033B9F3EA
:102AB0008833F9F68093C50485ECAEC0803509F4FF
:102AC00083C0883509F494C0883499F60E94301286
:102AD000D0CF883909F48AC038F5883729F050F406
:102AE000883611F0803729F683E08093C60410926F
:102AF000C40455C0883809F479C0803919F0803889
:102B000009F0B7CF8091C404803208F06FC0E09123
:102B1000C40481E08E0F8093C4048091BB00F0E078
:102B2000EC55FB4F80833BC0803B39F0D0F4803ABA
:102B300009F477C0883A09F09CCF84E08093C604FA
:102B40001092A3041092A204F0E0E0E009958091B5
:102B5000A20481110FC081E08093A204109282042C
:102B600009C0803C09F4A8CF883C09F4A5CF883B74
:102B700009F07FCFE091A30481E08E0F8093A3043E
:102B8000F0E0EE57FB4F80818093BB009091A3044F
:102B90008091A20429C08091EB048093BB0085EC56
:102BA0008093BC0066CF9091EA048091E904981765
:102BB00058F5E091EA0481E08E0F8093EA04F0E09A
:102BC000E753FB4F8081E9CFE091EA0481E08E0F6B
:102BD0008093EA048091BB00F0E0E753FB4F8083D1
:102BE0009091EA048091E9049817C8F285E8D8CF5B
:102BF000E091EA0481E08E0F8093EA048091BB00AB
:102C0000F0E0E753FB4F80838091C80481115ECFD1
:102C100081E08093C70484EA8093BC001092C604CC
:102C200028CF85EC8093BC001092C6048091C40428
:102C3000803230F4E091C404F0E0EC55FB4F108298
:102C40006091C40470E084EA94E0F0E0E0E009956B
:102C50001092C4040ECF1092C50438CF1F920F9269
:102C60000FB60F9211242F933F934F935F936F935F
:102C70007F938F939F93AF93BF93CF93DF93EF9304
:102C8000FF938091A401C0916106D0E087FF24C02A
:102C900010928500109284008091A4018F5F809330
:102CA000A4018091A401082E000C990B8C179D079C
:102CB00024F48091A4018C307CF180918400909167
:102CC0008500049680349C4908F4F9C08091840002
:102CD000909185000496F5C08091A401082E000C07
:102CE000990B8C179D07C4F63091A40126E032039E
:102CF000F0011124E75EF94F808186FFCDCF30913E
:102D0000A4013203F0011124E75EF94F808160E0F5
:102D10008F730E94C505C0CF3091A40126E0320315
:102D2000F0011124E75EF94F8581882309F48AC0F8
:102D30003091A4014091A4014203F0011124E75E07
:102D4000F94F818192813203F0011124E75EF94F3E
:102D5000438154818417950708F048C04091A4012D
:102D60003091A4013203F0011124E75EF94F618133
:102D700072814203D0011124A75EB94F15968C9140
:102D8000860F972F911D928381833091A4014091EA
:102D9000A4014203F0011124E75EF94F8181928181
:102DA0003203F0011124E75EF94F43815481841707
:102DB000950708F447C04091A4013091A401420353
:102DC000F0011124E75EF94F838194813203F00111
:102DD0001124E75EF94F928381833091A40132037D
:102DE000F0011124E75EF94F15822CC04091A40137
:102DF0003091A4013203F0011124E75EF94F818183
:102E000092814203D0011124A75EB94F15963C91DF
:102E1000831B9109928381833091A4014091A40185
:102E20004203F0011124E75EF94F81819281320360
:102E3000F0011124E75EF94F438154814817590787
:102E400008F0B9CF80918400909185003091A40161
:102E500026E03203F0011124E75EF94F41815281EF
:102E6000840F951F90938900809388003091A4016E
:102E70003203F0011124E75EF94F808186FF0CC018
:102E80003091A4013203F0011124E75EF94F8081F3
:102E900061E08F730E94C505FF91EF91DF91CF91A3
:102EA000BF91AF919F918F917F916F915F914F9162
:102EB0003F912F910F900FBE0F901F90189580E4B7
:102EC0009CE990938900809388008FEF8093A40100
:102ED000E3CF109271051092700588EE93E0A0E0A8
:102EE000B0E08093720590937305A0937405B0933E
:102EF000750583E291E090936F0580936E0585ECF4
:102F000090E090937B0580937A0584EC90E0909319
:102F10007D0580937C0580EC90E090937F05809305
:102F20007E0581EC90E0909381058093800582EC92
:102F300090E0909383058093820586EC90E09093D7
:102F4000850580938405109287051092880510925C
:102F5000890510928A0510920B0610920C061092A9
:102F60000E0610920D061092100610920F060E9487
:102F70007B0660931106709312068093130690935C
:102F800014060E947B0660931506709316068093C4
:102F9000170690931806A2E6B6E08FEF96E028EBAE
:102FA0003BE0E0916106EC3008F05DC041E04E0F7F
:102FB00040936106EC939E9FF0011124E75EF94F68
:102FC00032832183139646E0AE36B40751F78FEF74
:102FD00080936E0690E1E7E0F1E0AFE6B6E00190A5
:102FE0000D929A95E1F7E1E8F6E096E0DF011D9297
:102FF0009A95E9F724EB30E03093800620937F0622
:1030000040911701509118016091190170911A01B6
:1030100040939706509398066093990670939A068A
:1030200040911B0150911C0160911D0170911E0186
:1030300040939B0650939C0660939D0670939E065A
:103040001092AE068093BD061092C2061092C10681
:103050001092C0068093B7061092BC061092BB0671
:103060001092BA0608958C93ADCFCF93DF93CDB76E
:10307000DEB7CC56D1090FB6F894DEBF0FBECDBF78
:10308000789484B5826084BD84B5816084BD85B543
:10309000826085BD85B5816085BD80916E0081604F
:1030A00080936E00109281008091810082608093F5
:1030B00081008091810081608093810080918000F7
:1030C0008160809380008091B10084608093B10022
:1030D0008091B00081608093B00080917A0084601C
:1030E00080937A0080917A00826080937A00809148
:1030F0007A00816080937A0080917A008068809362
:103100007A001092C100E0917E05F0917F0582E087
:103110008083E0917A05F0917B051082E0917C0537
:10312000F0917D0580E1808310928605E091820513
:10313000F091830586E08083E0918005F091810520
:10314000808180618083E0918005F091810580819C
:1031500088608083E0918005F0918105808180689E
:103160008083E0918005F091810580818F7D80834F
:1031700062E084E00E94F30561E083E00E94F305D1
:1031800062E082E00E94F30562E087E00E94F305BE
:1031900061E086E00E94F30561E089E00E94F305AA
:1031A00061E085E00E94F30584E08093BD0681E044
:1031B00090E09093C2068093C10627E02093B70663
:1031C0009093BC068093BB0683E08093AD0607E82E
:1031D000E02E06E0F02E0EE110E01BAA1CAA1DAAAC
:1031E0001EAA19821A821B821C82BE016F5F7F4F4A
:1031F000C8010E94EB1069817A818B819C816BAB45
:103200007CAB8DAB9EAB9B01AC010E941E2F882333
:1032100051F01BAA1CAA1DAA1EAABE016D5C7F4FFD
:10322000C8010E94AF118BA99CA9ADA9BEA9F70145
:1032300081939193A193B1937F010C5F1F4F0E3245
:10324000110559F61FE7E12E16E0F12E04EF11E10A
:103250006AE070E080E090E00E94490622E0A80168
:1032600062EACE0101960E940407898190E0982FBE
:1032700088272A81820F911DD7018D939D937D010F
:103280001C5F043FBDE11B0719F710926306109203
:1032900064061092660610926706109269061092F4
:1032A0006A0687EE80936C0689E180936D0602E6DC
:1032B00016E07801F6E0DF2EACE0CA2EF80180813E
:1032C0008C30D8F5D701D596BC9061E08B2D0E944B
:1032D000F305F8018081D89EF0011124E75EF94FD3
:1032E0002B2D2F739081907C922B90836C2D0E94BC
:1032F0005C2F8C9DA001112430E020E0BA01620F08
:10330000731FD69EF001D79EF00D1124E75EF94F92
:10331000908196FD08C02F5F3F4F2C30310571F72B
:1033200090E00E94C708D801EC91DE9EF0011124C4
:10333000E75EF94F8081806480830D5F1F4FBFEF90
:10334000EB1AFB0AE6E00E361E0709F0B7CF80E065
:103350000E94111160936F0670937006809371063E
:103360009093720681E00E9411116093730670932E
:103370007406809375069093760682E00E94111180
:1033800060937706709378068093790690937A0617
:1033900083E00E94111160937B0670937C068093FA
:1033A0007D0690937E068FEF9FEF9093F8048093B5
:1033B000F7049093F6048093F50410929F06109200
:1033C000A0061092A1061092A2061092A3061092D7
:1033D000A4061092A5061092A60689EF94E0909399
:1033E000A8068093A70680E390E0A0E0B0E0809379
:1033F000A9069093AA06A093AB06B093AC06A12CA5
:10340000B12C78ECC72E72E4D72EE12CF12C06E11A
:1034100013E4A801970160E070E0CB010E94930CD7
:1034200089E491E00E94D90887E391E00E94D908DD
:1034300080919F069091A006A091A106B091A2064E
:103440000091A3061091A4062091A5063091A6062E
:1034500080179107A207B30711F40C943E26E09160
:10346000A706F091A806E80FF91F1081BC01CD0155
:103470006F5F7F4F8F4F9F4F2091A9063091AA0613
:103480004091AB065091AC060E94AE2C60939F0613
:103490007093A0068093A1069093A20680916C057C
:1034A00090916D05009739F00197F1F010926D053C
:1034B00010926C05BDCF133239F0173429F01D344A
:1034C00019F0103509F0B4CF81E090E090936D05CC
:1034D00080936C05133271F080936A0581E08093CC
:1034E0006B0510933A05A4CFE0916B05E033F0F63D
:1034F000133219F410926A05F1CF173421F01D34FC
:1035000011F0103579F480916A058111E7CF81E0DF
:1035100080936A058E0F80936B05F0E0E65CFA4FAE
:10352000108386CFAE2FB0E0A65CBA4F1A3011F0F0
:103530000C9438261C92EAE3F5E001900020E9F7AC
:1035400031976AE3E62E65E0F62EEE16FF0609F4E3
:10355000ADCFDF018E918D01082E000C990B0E94DA
:10356000DF2A892B11F40C94A726F8011082EDCFE5
:10357000B3E2FB1621F02081A6962FAFA6970E94FA
:10358000D2266BAB7CAB8DAB9EAB65E371E090E07C
:1035900080E00E94D626FC010F5F1F4F309759F143
:1035A0000630110541F1CF0101960115110501F316
:1035B0000130110591F00E94D226F801EE0FFF1F95
:1035C000EE0FFF1F23E330E02C0F3D1FE20FF31F30
:1035D0006083718382839383D8CF33E2F31204C074
:1035E000A081A696AFAFA6970E94D2266FAB78AF08
:1035F00089AF9AAFCACF6BA97CA98DA99EA90E9459
:10360000032E1B0133E2F31230C06FA978AD89ADF0
:103610009AAD0E94032E0250110982E090E0A69616
:10362000AFADA697AD3409F478C1A03511F40C9470
:103630003B24A73409F03ACF3C01660C771C660C9A
:10364000771CE3E3F0E0EC0FFD1F6E0E7F1E693C7C
:10365000710509F4D1C084F4672B09F490C064E1CA
:1036600070E0C1010E94C51021CF01501109312C19
:10367000212C81E090E0D3CF6A3C710509F41CC194
:103680006C3C710561F70430110511F00C9438247D
:10369000D3011C96AD90BD90CD90DC901F971896ED
:1036A0008D919D910D90BC91A02DA5968CAF9DAF55
:1036B000AEAFBFAFA597D30114968D919D910D909C
:1036C000BC91A02DA1968CAF9DAFAEAFBFAFA1971F
:1036D000F3014080518062807380AE014F5F5F4F85
:1036E000BE01655B7F4FCE018F5A9F4F0E94A60B94
:1036F00065962CAD3DAD4EAD5FAD6597C301B20192
:103700000E94F12C2B013C0165964CAE5DAE6EAE75
:103710007FAE65972F962CAD3DAD4EAD5FAD2F972B
:10372000A1966CAD7DAD8EAD9FADA1970E94F12CA1
:10373000A1966CAF7DAF8EAF9FAFA1972F966CAF68
:103740007DAF8EAF9FAF2F9729813A814B815C81EE
:10375000A5966CAD7DAD8EAD9FADA5970E94F12C69
:1037600069837A838B839C837B018C01A1962CAD2A
:103770003DAD4EAD5FADA197C301B2011CC0043099
:10378000110511F00C943824D3011C96AD90BD9016
:10379000CD90DC901F971896ED90FD900D911C91A7
:1037A0001B9714962D913D914D915C9117976D91BA
:1037B0007D918D919C910E94930C823009F0A9C05B
:1037C0001AE081E391E00E942A09C1010E9452108F
:1037D00085E391E00E942A098DE391E00E942A0985
:1037E000612F70E090E080E04AE00E94E60887E305
:1037F00091E00E94D9085ACE0430110511F00C94C2
:103800003824D3018D919D910D90BC91A02DA1964E
:103810008CAF9DAFAEAFBFAFA19726EE3EE245E6BF
:1038200052E4F30164817581868197810E94912D14
:103830006B017C010E948C2DA5966CAF7DAF8EAF85
:103840009FAFA597C701B6010E94CC2E9B01AC018A
:10385000D3011C96AD90BD90CD90DC901F9718962B
:103860008D919D910D90BC91A02DAC968CAF9DAF8C
:10387000AEAFBFAFAC97A1966CAD7DAD8EAD9FAD39
:10388000A1970E94762B2B013C01A5962CAD3DAD56
:103890004EAD5FADA597A1966CAD7DAD8EAD9FADE4
:1038A000A1970E94762BAC96ECACFDAC0EAD1FAD93
:1038B000AC97A30192017FCF0230110511F00C9457
:1038C0003824F301C480D580E680F780608171815F
:1038D000828193810E940A2E162F643008F0C8C797
:1038E00020E030E044E353E4C701B6010E94BF2E5C
:1038F00018160CF4BDC720E030E0A901C701B601DD
:103900000E94102B87FDB4C7B701A601812F0E942A
:103910006101C1010E94AA10C9CD880F991F880FAB
:10392000991F33E3432E512C4C0E5D1E480E591E39
:10393000653D710509F464C60CF0A5C16A3C7105CA
:1039400009F4DDC20CF06FC06837710509F4C1C21B
:10395000693C710509F083CE0130110509F088C773
:10396000F20160817181828193810E940A2E64300C
:1039700008F026CF062F10E0F801EE59F94FD5A830
:103980007801EE0CFF1CF701E00FF11FEE59F94F23
:1039900080818C3008F0BDCF61E08D2D0E94F30551
:1039A000F701E00FF11FEE59F94F808126E0829F69
:1039B000F0011124E75EF94F2D2D2F739081907C3B
:1039C000922B90832CE0622F0E945C2F482F50E0B6
:1039D000829FB001112430E020E086E0DB01A20FDD
:1039E000B31F8A9FF0018B9FF00D1124E75EF94F02
:1039F000908196FD08C02F5F3F4F2C30310571F745
:103A0000CA010E94C7080E0D1F1DF801EE59F94F9B
:103A1000E08136E0E39FF0011124E75EF94F8081F9
:103A20008064808376CF633D710509F4C4C30CF0D4
:103A30000AC5623D710509F012CE0230110509F088
:103A400017C720E030E04AE754E4F2016481758151
:103A5000868197810E94762B0E940A2EA1966CAFD8
:103A60007DAF8EAF9FAFA197D2016D917D918D916A
:103A70009C910E940A2EA5966CAF7DAF8EAF9FAF32
:103A8000A597A1968CAD9DADAEADBFADA197892B8D
:103A90008A2B8B2B09F43DCF81E08093AE0661E049
:103AA0008091AD060E94F305A1968CAD9DADAEADA3
:103AB000BFADA1978093B3069093B406A093B506CB
:103AC000B093B6060E947B066093AF067093B00673
:103AD0008093B1069093B2068091AD06909100015B
:103AE00098132DC2EBE6F2E0149117FD12CF61E0BE
:103AF0000E94F3051123C9F0A396AEADBFADA39705
:103B00004D01B12CA12C60E072E18AE790E0A501A3
:103B10009D010E944D2C69017A01B1E0CB1AD108B8
:103B2000E108F108123009F002C3A396EEADFFAD33
:103B3000A3974F01B12CA12C60E072E18AE790E0DD
:103B4000A5019F010E944D2C29013A017A016901CA
:103B5000F1E0CF1AD108E108F1082FEFC216D10425
:103B6000E104F10409F00CF4AFC260E472E48FE008
:103B700090E0A50194010E944D2C69017A0181E039
:103B8000C81AD108E108F108123009F054C282E0E5
:103B90009FEFC916D104E104F10409F00CF46CC0E4
:103BA00060E970ED83E090E0A50194010E944D2C46
:103BB00069017A01A1E0CA1AD108E108F10883E09D
:103BC000BFEFCB16D104E104F10409F00CF454C0AA
:103BD00068E478EE81E090E0A50194010E944D2C0C
:103BE00069017A0181E0C81AD108E108F10884E08E
:103BF0009FEFC916D104E104F104F1F1ECF164E2A4
:103C000074EF80E090E0A50194010E944D2C6901C1
:103C10007A0181E0C81AD108E108F10885E03FEF98
:103C2000C316D104E104F10439F130F162E17AE71D
:103C300080E090E0A50194010E944D2C69017A0179
:103C4000F1E0CF1AD108E108F10886E02FEFC216A3
:103C5000D104E104F10481F078F0730162018AE09B
:103C6000F594E794D794C7948A95D1F731E0C31AB5
:103C7000D108E108F10887E09091B100987F892B85
:103C80008093B10028C26E3D710509F44EC50CF059
:103C9000FBC06C3D710509F4CAC46D3D710509F0A6
:103CA000DECC0330110509F0E3C526EE3EE245E621
:103CB00052E4D20114966D917D918D919C9117974C
:103CC0000E94912DA1966CAF7DAF8EAF9FAFA19753
:103CD0000E948C2D6B017C0126EE3EE245E652E40B
:103CE000F20160857185828593850E94912DA5964C
:103CF0006CAF7DAF8EAF9FAFA5970E948C2D4B010F
:103D00005C0120E030E444E153E4C701B6010E94C5
:103D1000762B6B017C0123E333E340E253E4C501DE
:103D2000B4010E94762B9B01AC01C701B6010E9431
:103D3000F12C29E23CE549EA51E40E94F12C20E013
:103D400030E048EC51E40E94F12C4B015C01A1965B
:103D50006CAD7DAD8EAD9FADA1970E94CC2E6B0159
:103D60007C01A5966CAD7DAD8EAD9FADA5970E94F3
:103D7000CC2EA1966CAF7DAF8EAF9FAFA19720E008
:103D800030E444E153E4C701B6010E94762B6B0195
:103D90007C0123E333E340E253E4A1966CAD7DADB7
:103DA0008EAD9FADA1970E94762B9B01AC01C70100
:103DB000B6010E94F02C26E636EE46ED52E40E9453
:103DC000F12CC62E772E682E092F26EE3EE245E610
:103DD00052E4D2016D917D918D919C910E94912D23
:103DE000A1966CAF7DAF8EAF9FAFA1970E948C2D37
:103DF0009B01AC01C501B4010E94762B162FF72E52
:103E0000E82ED92EA1966CAD7DAD8EAD9FADA1975C
:103E10000E94CC2E9B01AC01C501B4010E94762BFF
:103E20009B01412F5F2D6E2D7D2DF201408351832B
:103E300062837383422F532F682F792FD2011496F8
:103E40004D935D936D937C9317974C2D572D662D55
:103E5000702FF20140875187628773870F936F92AB
:103E60007F92CF929F938F933F932F93DF92EF9206
:103E7000FF921F9380E691E09F938F938E010F5FD7
:103E80001F4F1F930F934EC4683E710509F4C3C4BE
:103E9000603F710509F4D1C4673E710509F0DFCBBD
:103EA0000130110509F0E4C420E030E0A901F2017D
:103EB00060817181828193810E94102B8111A5C440
:103EC00060E086E00E94C50561E085E00E94C505CE
:103ED00020CD0130110509F0CBC420E030E04AE7E5
:103EE00054E4D2016D917D918D919C910E94762B2D
:103EF0000E940A2E7093100660930F060ACD0130BF
:103F0000110509F0B5C4D2016D917D918D919C91FF
:103F10000E940A2E643008F053CC70E0FB01EE0FD3
:103F2000FF1FE60FF71FEE59F94FE081B6E0EB9F58
:103F3000F0011124E75EF94F80818F7B72CD9F3FA6
:103F400009F0E7CC80930001EBE6F2E014911F3F0B
:103F500009F4DFCC113039F148F0123009F445C0D2
:103F600017FDD7CC61E00E94F305C6CD14BC15BC8B
:103F700094B5926094BD95B5916095BD282F30E0C1
:103F8000F901E95AFD4FE491F0E0EE0FFF1FE35B0A
:103F9000FD4F45915491F901E75CFD4FE491E093A9
:103FA0002D0510E0A4CD1092800010928100909118
:103FB000810098609093810090918100916090932E
:103FC0008100282F30E0F901E95AFD4FE491F0E03B
:103FD000EE0FFF1FE35BFD4F45915491F901E75C44
:103FE000FD4FE491E0932C0582CD1092B000109229
:103FF000B1009091B00092609093B0009091B100A8
:1040000091609093B100282F30E0F901E95AFD4FFB
:10401000E491F0E0EE0FFF1FE35BFD4F45915491FB
:1040200050932B0540932A05F901E75CFD4FE4917D
:10403000E09329055CCDEFEFCE16D104E104F10445
:1040400009F00CF472C068E478EE81E090E0A5011C
:1040500094010E944D2C69017A01F1E0CF1AD10838
:10406000E108F10884E01111DACD83E0EFEFCE161C
:10407000D104E104F10459F154F162E17AE780E0FE
:1040800090E0A50194010E944D2C69017A01A1E004
:10409000CA1AD108E108F10884E0BFEFCB16D104B9
:1040A000E104F104A1F098F0730162019AE0F59443
:1040B000E794D794C7949A95D1F721E0C21AD10812
:1040C000E108F10885E003C081E01111D5CD95B577
:1040D000987F892B85BDA396AEADBFADA397AA0FE0
:1040E000BB1FA1962CAD3DAD4EAD5FADA1970E941B
:1040F0006C2C28EE33E040E050E00E94AE2C1130F2
:10410000C1F1123009F447C0111103CCC7BC209390
:104110003605309337054093380550933905809123
:104120006E00826080936E00F4CB82E0CECFC1142B
:10413000D10491E0E906F104D4F068E478EE81E07E
:1041400090E0A50194010E944D2C69017A01A1E043
:10415000CA1AD108E108F10893E0113009F0BBCF89
:1041600080918100887F892B80938100B4CF91E07A
:10417000F4CFD0928900C09288002093320530930A
:104180003305409334055093350580916F0082606C
:1041900080936F00BECBC092B30020932E05309366
:1041A0002F05409330055093310580917000826057
:1041B00080937000AECB0330110509F059C3F201B2
:1041C00060857185828593850E94032E762EE62E6A
:1041D000F72ED20114966D917D918D919C91179738
:1041E0000E940A2E662EA72EC62ED72EF2016081BF
:1041F0007181828193810E94032EB62E613059F025
:1042000098F0623009F460C010E000E060EB962E98
:1042100041E4842EA3C0F0EAA796FFAFA79710E071
:1042200000E0912C812C17C022E0721659F134E085
:104230007316D1F181E07812F2CF862D9A2D0E946B
:10424000372C682F70E090E080E00E94172B162F2B
:10425000072F982E892E8FEF8B0D823008F07EC0AD
:10426000A2E07A1609F49BC0B4E07B1691F1E1E07C
:10427000AA24A394B12C7E1679F110E000E058EA4C
:10428000952EC6CF062D1A2DC8010E94372C898382
:10429000C80101960E94372C8A8369817A81072E92
:1042A000000C880B990BD1CF19821A821B821C82B9
:1042B000BE016F5F7F4F862D9A2D0E94EB101981F2
:1042C0000A819B808C80C7CF92EAA7969FAFA79761
:1042D000A6CFF4E0AF2EB12C862D8F7721E830E009
:1042E0002A193B09821713060CF45DC090E8B92E19
:1042F000B81A2B2DA601A7966FADA797CE010196F0
:104300000E94040765E070E080E090E00E944906AA
:104310008B2D90E02A2D2B19A601480F591FA79627
:104320006FADA797A1E0B0E0AC0FBD1F8A0F9B1F38
:104330000E940407B2E07B16F1F1E4E07E1609F476
:104340004AC0F1E07F120AC0698170E090E080E02D
:104350000E94152B162F072F982E892E21E0E2168A
:10436000F1044CF033E0E316F104D4F184E0E816F4
:10437000F10409F452C0BE016F5F7F4FCE01855B2F
:104380009F4F0E94E711BE01655B7F4FC1010E94F4
:104390008210CE01855B9F4F0E94DF1187C8E2E04B
:1043A000AE2EB12C99CF2A2DA601A7966FADA79757
:1043B000CE010196BDCF6981862F90E0982F882786
:1043C0006A81680F792F711D072E000C880B990BDD
:1043D0000E94172BBFCF19810A819B808C80BECF92
:1043E000A8019401652F702F832F982D0E94032E12
:1043F0007F936F938CE491E09F938F93A1E0B0E063
:10440000AC0FBD1FBF93AF930E94A5120F900F90EA
:104410000F900F900F900F90AECF8F929F920F93AF
:104420001F9380E591E09F938F93E1E0F0E0EC0F24
:10443000FD1FFF93EF930E94A5120FB6F894DEBF05
:104440000FBECDBF98CF0430110509F011C2D201C3
:1044500014966D917D918D919C9117970E940A2ED3
:10446000762E672EF20184849584A684B7846085B5
:104470007185828593850E94032E6E966FAF6E972D
:10448000E72CF62CD2016D917D918D919C910E942B
:10449000032E462E613051F008F452C0623009F00C
:1044A00038CA82EAA8968FAFA89704C0B0EAA89647
:1044B000BFAFA8978FEF840D823008F02ACA6E969E
:1044C0009FAD6E97923009F485C0943009F48BC08B
:1044D000913009F01ECAC501B4010E940A2E6983F9
:1044E00001E010E0872D8F7721E830E0201B310BB1
:1044F000821713060CF47CC010E8181B212FA701AB
:10450000A8966FADA897CE0101960E945A0765E064
:1045100070E080E090E00E944906812F90E0202F1B
:10452000211BA701480F591FA8966FADA897A1E0BE
:10453000B0E0AC0FBD1F8A0F9B1F0E945A07E9C94C
:104540006E96EFAD6E97E23071F0E430B9F1E13084
:1045500009F0B0CFC501B4010E940A2E872D962D17
:104560000E943F2CA7CFC501B4010E94032EA29642
:104570006FAFA297572EA9966FAFA997AD967FAF51
:10458000AD97C72CD62CC6010E94372CA996FFAD3B
:10459000A9978F1721F06F2FC6010E943F2C2FEF94
:1045A000C21AD20AC6010E94372CAD963FADAD9714
:1045B000381709F47FCF652DC601D2CF89829A8240
:1045C000AB82BC82BE016F5F7F4F872D962D0E940C
:1045D000AF1170CFC501B4010E94032E79836A83A5
:1045E00002E010E07FCF89829A82AB82BC827ACFD0
:1045F000202FA701A8966FADA897CE0101969DCF59
:104600000130110509F034C120E030E0A901F201C8
:1046100060817181828193810E94102B882319F01F
:1046200010920B0676C981E080930B0672C90330A5
:10463000110509F01DC1D2011896ED90FD900D9164
:104640001C911B9714962D913D914D915C9117975C
:104650006D917D918D919C91E1E0EF93FE01EF5A78
:10466000FF4F4F01DE01AB5ABF4F5D0138966F011E
:104670000E942C096A963FAD6A976B962FAD6B9797
:104680006C969FAD6C976D968FAD6D97632F722F63
:104690006C01CB01AD2DBC2DF20180839183A283EF
:1046A000B38366963FAD669767962FAD679768961A
:1046B0009FAD689769968FAD699789017C01812FBD
:1046C000902FAF2DBE2D84839583A683B7836296EA
:1046D000BFAD62976396AFAD639764969FAD6497E5
:1046E00065968FAD65972B2F3A2F492F582FC9010B
:1046F000DA0180879187A287B3875F934F933F93B7
:104700002F93EF92FF920F931F93CF92DF927F939D
:104710006F9384E591E09F938F938E010F5F1F4FFE
:104720001F930F930E94A51260C10430110509F078
:104730009FC0D20114968D909D90AD90BC9017971C
:10474000CD90DD90ED90FC90139720E030E040E8B4
:104750005FE31C966D917D918D919C911F970E94B6
:10476000102B811128C026EE3EE245E652E4C50139
:10477000B4010E94912D4B015C010E948C2D9B0184
:10478000AC01C701B6010E94762BF20160837183F0
:1047900082839383C501B4010E94CC2E9B01AC019E
:1047A000C701B6010E94762BD20114966D937D93BA
:1047B0008D939C931797F201E084F1840285138511
:1047C0002481358146815781608171818281938105
:1047D0001F92DE0111964D01FE01E55BFF4F5F0167
:1047E000A05BBF4F6D010E942C090F90823009F42D
:1047F00091C08A3009F48EC0813009F0BCCD6CE6DE
:1048000071E0C4010E948C31B6CD61E086E00E9467
:10481000C50560E05ACB0130110551F520E030E0CC
:10482000A901D2016D917D918D919C910E94102BD7
:1048300061E0811160E089E049CB02301105C1F4EB
:10484000F20160817181828193810E940A2E162F6C
:10485000D20114966D917D918D919C9117970E9434
:104860000A2E662319F061E0812F30CB60E0FCCF87
:1048700015E10C94E11B3C01660C771C660C771C5F
:10488000E3E3F0E0EC0FFD1F6E0E7F1E6C3D710543
:1048900009F4FCC054F56A3C710509F4BEC09CF4EF
:1048A000683C710509F450C0693C710511F00C9425
:1048B0002F1B82E891E0012B09F4B4C085E1682F39
:1048C00070E00C94311B6C3C710509F4DAC00CF4F7
:1048D000CFC06D3C710511F00C942F1B6CE871E09A
:1048E000012B61F7CE0101968DCF683E710509F469
:1048F00087C19CF46D3D710509F402C1673E7105E5
:1049000011F00C942F1B012BC9F686E00E949C0528
:104910000197B9F06FE671E0E5CF603F710509F4EA
:1049200088C1613F710509F494C1693E710511F0B8
:104930000C942F1B012B11F682E00E949C05892B01
:1049400049F36CE671E0CECF012B09F0B7CF80E0E0
:104950000E941111D3016D937D938D939C931397B6
:1049600081E00E941111F30164837583868397832C
:1049700082E00E941111D30118966D937D938D935F
:104980009C931B9783E00E9411119B01AC01CB010A
:10499000DA01F30184879587A687B7875F934F93E2
:1049A0003F932F9383858F9382858F9381858F93F8
:1049B00080858F9387818F9386818F9385818F9355
:1049C00084818F9383818F9382818F9381818F9351
:1049D00080818F9382E791E09F938F938E010F5F89
:1049E0001F4F1F930F930E94A512B801CE01855B44
:1049F0009F4F0E94E711BE01655B7F4FC1010E947E
:104A00008210CE01855B9F4F0E94DF110FB6F89494
:104A1000DEBF0FBECDBF0C94561A012B09F04ECF4E
:104A200088E891E09F938F9385E491E09F938F9323
:104A30008E010F5F1F4F1F930F930E94A512B801A5
:104A4000CE01855B9F4F0E94E711BE01655B7F4FE2
:104A5000C1010E948210CE01855B9F4F0E94DF1131
:104A60000F900F900F900F900F900F900C94561A7C
:104A7000B801C1010E94AA13882311F40C94561A9C
:104A80001ECFB801C1010E94AA13F6CF012B09F075
:104A900015CF630138E0C30ED11C730184E0E80E2A
:104AA000F11C0FE616E0B12C8B2D0E941111D801DC
:104AB0006D937D938D939D938D01B394B4E0BB1260
:104AC000F3CFA601B701C3010E94A60BF3018385B2
:104AD0008F9382858F9381858F9380858F93878134
:104AE0008F9386818F9385818F9384818F93838128
:104AF0008F9382818F9381818F9380818F93BAC9A5
:104B0000012B09F0DBCE2FE6E22E26E0F22E10E09C
:104B1000812F0E941111D7016D937D938D939D93E9
:104B20007D011F5F1430A1F78E010F5F1F4FA80199
:104B3000BE01655B7F4FCE018F5A9F4F0E94A60B2F
:104B400080906F0690907006A0907106B0907206EB
:104B500065966CAD7DAD8EAD9FAD65972F96CCAC57
:104B6000DDACEEACFFAC2F979B01AC010E94762B25
:104B7000A1966CAF7DAF8EAF9FAFA197A7019601B5
:104B8000C701B6010E94762B9B01AC01A1966CADCA
:104B90007DAD8EAD9FADA1970E94F12C0E94DA2EC3
:104BA0009B01AC01CB01DA01F30180839183A283E5
:104BB000B383B401CB01AA2DBB2D84839583A68337
:104BC000B783B981AA819B818C817D016C018F2D76
:104BD0009E2DAD2DBC2D80879187A287B387CF9264
:104BE000DF92EF92FF92BF92AF927F936F935F93AA
:104BF0004F933F932F9388E991E09F938F9341C9FF
:104C0000012B09F05BCE89E00E949C05019769F0B9
:104C100084E190E00E945C088935924044F081E094
:104C20001F928F938CE491E001CF80E0F9CF82E076
:104C3000F7CF0130110509F041CED3016D917D917F
:104C40008D919C910E940A2E862F0E949C059F9315
:104C5000E8CF0130110509F031CEF3016081718197
:104C6000828193810E940A2ECB010E945C08EFCFC3
:104C7000EF5FE0936B051C930C94181A8EE695E099
:104C80000E94C404892B09F452C08EE695E00E946C
:104C9000A2048C01019691F3C090A306D090A406C3
:104CA000E090A506F090A606C701B6016F5F7F4FA2
:104CB0008F4F9F4F2091A9063091AA064091AB06D5
:104CC0005091AC060E94AE2C80909F069090A0065A
:104CD000A090A106B090A206681579058A059B05EB
:104CE00069F2E091A706F091A806EC0DFD1D008386
:104CF0006091A3067091A4068091A5069091A606E6
:104D00006F5F7F4F8F4F9F4F2091A9063091AA066A
:104D10004091AB065091AC060E94AE2C6093A30666
:104D20007093A4068093A5069093A606A7CF80E073
:104D300090E0892B11F40C94181A0E94D004882357
:104D400011F40C94181A0E9400000C94181AF09098
:104D50003A0565E371E08AE395E00E94D626FC01FE
:104D600010E000E00C94CE1AEF920F931F93CF93B4
:104D7000DF93E80134E047FD34E1042E000C550BCD
:104D800057FF03C0519541955109E32E022F242F5F
:104D9000AE010E945827CE01DF91CF911F910F9154
:104DA000EF900895662777270C94B72843EC56E0D8
:104DB0000E94DB260895FA01A191B081009719F4B1
:104DC0001097E1F0CD01DC01CD010D90002011F430
:104DD000C00113C0FB012191222319F02015D9F73E
:104DE000F3CFFB012191201519F41E92119606C0F4
:104DF0002223C1F70D900020A1F7D001FA01A19361
:104E0000B0830895BB274A3031F4992322F4BDE2E0
:104E1000909581959F4F0C943F27BB272A3051F4E2
:104E2000992342F4BDE290958095709561957F4FEE
:104E30008F4F9F4F0C941D27BB27FA01A62F621797
:104E4000710581059105330B30FB66F0AA27660FCB
:104E5000771F881F991FAA1FA21710F0A21B639526
:104E60003850A9F7A05DAA3308F0A95DA19336F7E1
:104E7000B111B1931082CA010C94002BBB27FB0126
:104E80005527AA27880F991FAA1FA41710F0A41B43
:104E900083955051B9F7A05DAA3308F0A95DA1939D
:104EA000009779F7B111B1931192CB010C94002BBB
:104EB000A9E0B0E0EEE5F7E20C947D2C6A01F22E59
:104EC000B02E102FFBE3AF2EA01608F41BE31F5FDC
:104ED000012F27E0AE014F5F5F4F0E94072ABC0100
:104EE0008981982F9970913009F43FC09BE2E1FCD1
:104EF00004C09E2D9170E0FC3AC05E2D5071E82FE9
:104F0000E87083FF46C084E0911101C083E0EF2D7B
:104F1000E81B8F1508F0E0E0D6018E2F20E2552324
:104F200051F1992329F0D6019C93C60101966C0199
:104F300096012D5F3F4FE2FE24C08EE4D6018C9394
:104F400091E411969C93119712968C93D9018E2F10
:104F500090E281111BC0E20FF32FF11D10828EEF42
:104F60009FEF2996ECE00C94992C9DE2C6CF90E23D
:104F7000C4CF2D9381508111FCCFCE0ED11CE0E027
:104F8000D0CF8EE6D6018C9391E6DBCF9D938150F6
:104F9000E0CF482F447082FF3DC084E0911101C0F2
:104FA00083E08F1510F4EF2DE81BD6018E2F20E241
:104FB000552309F1992329F0D6019C93C601019646
:104FC0006C0196012D5F3F4FE2FE1BC089E4D601C4
:104FD0008C938EE411968C93119786E412968C93A1
:104FE000D9018E2F90E2882309F4B5CF9D9381508B
:104FF000FACF2D9381508111FCCFCE0ED11CE0E071
:10500000D9CF89E6D6018C938EE611968C931197B1
:1050100086E6E4CF9B0177FF02C030E020E0A1E00C
:10502000B0E0911102C0B0E0A0E0F9013196AE0FFE
:10503000BF1F8B2C912CBB2009F461C05401EFEFF2
:10504000AE1ABE0AAA0DBB1DFA161B0619F014F003
:105050004F2D4A1B511188C0E3FC59C07601A42F83
:10506000B0E2A1114FC0C40ED11C992309F45BC05A
:1050700040E0D6011196F60190836D01552309F4A5
:1050800048C0012F060F9A81582F507184FF03C02A
:10509000913309F4015010160CF047C0093008F0A4
:1050A00008E0EEE2FE2E5B01A01AB10885019194A2
:1050B000819491082F3F320729F4D601FC92F60122
:1050C00031966F016217730794F1021713077CF58D
:1050D000DB01A21BB30BAA24A394B12CAC0EBD1E02
:1050E000AA0DBB1D11968C9121503109D601119644
:1050F00028153905F4F0F60180836D01DBCFB12C62
:10510000A12CA0CFF701B1937F01A150AACF91119B
:10511000B0CFD601942F50E302C05D93915091110E
:10512000FCCFC40ED11C40E0ACCF01E0BACF80E38D
:10513000DBCF6217730731F4963388F4953311F49B
:10514000552369F0F6018083FD01842F90E28111DF
:1051500008C0A40FB11D1C9290E080E002CF81E353
:10516000F1CF91938150F3CF911183CF8ACFB0E0EB
:10517000A0E0EDEBF8E20C947D2C5C017B01611565
:10518000710519F0DB018D939C9385010F5F1F4F13
:10519000F501D0818D2F90E00E94DF2A6C01892BD0
:1051A000B9F5DD32B9F50F5F1F4FD5011196DC91CE
:1051B000C1E05801F1E0AF1AB10843E050E064EEFD
:1051C00070E0C5010E94E82A892B69F5680182E038
:1051D000C80ED11C45E050E06FED70E0C6010E94A2
:1051E000E82A892B21F4680197E0C90ED11CE1144B
:1051F000F10419F0D701CD92DC9260E070E080E814
:105200009FEFC111FFC060E070E080E89FE7FAC047
:105210005801BBCFDB3229F485010E5F1F4FF5012A
:10522000D181C0E0C6CF43E050E06CED70E0C50135
:105230000E94E82A892BE9F0F80110E000E020E064
:1052400030E0A9015F01B0ED8B2E8D0E89E088154D
:10525000C8F19C2E689491F88C2F8870C2FF16C0FC
:10526000811102C00F5F1F4F3196D501DC91C92D0E
:10527000E9CFE114F10429F00E5F1F4FF70111830C
:10528000008360E070E080EC9FE7BCC0882311F0F1
:1052900001501109A5E0B0E00E946C2C9B01AC010B
:1052A000220F331F441F551F280D311D411D511D55
:1052B000283999E93907490799E15907A8F2C660E1
:1052C0009C2ED2CFAEEF8A1206C0C3FD3CC09C2EEE
:1052D000689493F8C9CFDF7DD534A9F580818D32EC
:1052E00039F4C061DF011296818162E070E006C08E
:1052F000DF018B32C1F3119661E070E080535D01F4
:10530000A61AB70A8A30F8F4E0E8CE16ECE0DE061A
:105310005CF4B601660F771F660F771FC60ED71EA7
:10532000CC0CDD1CC80ED11C5D01FFEFAF1ABF0A0B
:105330008C9180538A30A8F1C4FF03C0D194C194EA
:10534000D1080C0D1D1DC1FF09C0E114F10431F09D
:1053500081E0A81AB108D701AD92BC92CA01B90187
:105360000E94152BC370C33009F490584B015C01A7
:1053700020E030E0A9010E94102B882309F440C0EE
:10538000C3E1D1E017FF05C0119501951109CBEFDD
:10539000D0E06E01B8E1CB1AD10880E2E82EF12C02
:1053A0000FC0D501B1CFFE012591359145915491A2
:1053B0000E191F09C501B4010E94762B4B015C0137
:1053C000D501C4010E151F0574F72497F594E794D1
:1053D000CC16DD06A9F78A2F880F8B2F881F8F3FE9
:1053E00049F020E030E0A901C501B4010E94102B72
:1053F000811106C082E290E09093C6068093C506B4
:10540000C501B401CDB7DEB7ECE00C94992C28307F
:1054100008F027E03327DA01990F311D87FD9160ED
:1054200000966105710539F432602E5F3D9330E3DB
:105430002A95E1F708959F3F30F0803871056105A6
:1054400009F03C5F3C5F3D93913008F08068911D0E
:10545000DF93CF931F930F93FF92EF92192F987FB3
:105460009695E92F96959695E90FFF27EF58FE4FF1
:1054700099273327EE24FF24A701E701059008941C
:10548000079428F4360FE71EF81E491F511D660FBA
:10549000771F881F991F0694A1F70590079428F499
:1054A000E70EF81E491F561FC11D770F881F991F51
:1054B000661F0694A1F70590079428F4F80E491F7B
:1054C000561FC71FD11D880F991F661F771F06948F
:1054D000A1F70590079420F4490F561FC71FD81F46
:1054E000990F661F771F881F0694A9F7849110955E
:1054F000177041F0D695C79557954795F794E7945F
:105500001A95C1F7E7E1F1E068941590159135918E
:105510006591959105907FE27395E118F10A430B2F
:10552000560BC90BD009C0F7E10CF11E431F561FE3
:10553000C91FD01D7EF4703311F48A95E6CFE8942C
:10554000015030F0080F0AF40027021708F4202F4A
:105550002395022F7A3328F079E37D932A95E9F792
:1055600010C07D932A9589F606949795679537958F
:1055700017951794E118F10A430B560BC90BD00984
:1055800098F023957E9173957A3308F070E37C93BD
:105590002013B8F77E9170617D9330F0839571E3AD
:1055A0007D9370E32A95E1F71124EF90FF900F911E
:1055B0001F91CF91DF91992787FD909508959111C3
:1055C0000C94E32B803219F089508550C8F7089568
:1055D000FB01DC014150504088F08D9181341CF07A
:1055E0008B350CF4805E659161341CF06B350CF4E6
:1055F000605E861B611171F3990B0895881BFCCFC7
:10560000DC01FC01672F71917723E1F7329704C029
:105610007C916D9370836291AE17BF07C8F30895B4
:105620000E94522B08F481E00895E89409C097FB8A
:105630003EF490958095709561957F4F8F4F9F4F69
:105640009923A9F0F92F96E9BB279395F6958795AD
:1056500077956795B795F111F8CFFAF4BB0F11F470
:1056600060FF1BC06F5F7F4F8F4F9F4F16C0882317
:1056700011F096E911C0772321F09EE8872F762F4D
:1056800005C0662371F096E8862F70E060E02AF08E
:105690009A95660F771F881FDAF7880F969587957A
:1056A00097F90895990F0008550FAA0BE0E8FEEF4F
:1056B00016161706E807F907C0F012161306E407D6
:1056C000F50798F0621B730B840B950B39F40A26CF
:1056D00061F0232B242B252B21F408950A2609F4AD
:1056E000A140A6958FEF811D811D08950E94892BF1
:1056F0000C94FD2B0E94EF2B38F00E94F62B20F02B
:10570000952311F00C94E62B0C94EC2B11240C94A3
:10571000312C0E940E2C70F3959FC1F3950F50E031
:10572000551F629FF001729FBB27F00DB11D639F53
:10573000AA27F00DB11DAA1F649F6627B00DA11DF9
:10574000661F829F2227B00DA11D621F739FB00D9F
:10575000A11D621F839FA00D611D221F749F33270F
:10576000A00D611D231F849F600D211D822F762FA8
:105770006A2F11249F5750409AF0F1F088234AF085
:10578000EE0FFF1FBB1F661F771F881F91505040F1
:10579000A9F79E3F510580F00C94E62B0C94312C18
:1057A0005F3FE4F3983ED4F3869577956795B79578
:1057B000F795E7959F5FC1F7FE2B880F911D969592
:1057C000879597F9089599278827089597F99F67EE
:1057D00080E870E060E008959FEF80EC0895002479
:1057E0000A941616170618060906089500240A9446
:1057F00012161306140605060895092E0394000CCC
:1058000011F4882352F0BB0F40F4BF2B11F460FF5A
:1058100004C06F5F7F4F8F4F9F4F089557FD905883
:10582000440F551F59F05F3F71F04795880F97FB64
:10583000991F61F09F3F79F087950895121613061E
:105840001406551FF2CF4695F1DF08C0161617064D
:105850001806991FF1CF8695710561050894089582
:10586000E894BB2766277727CB0197F90895F99924
:10587000FECF92BD81BDF89A992780B50895262F55
:10588000F999FECF1FBA92BD81BD20BD0FB6F89425
:10589000FA9AF99A0FBE01960895052E97FB1EF409
:1058A00000940E94642C57FD07D00E94AE2C07FC88
:1058B00003D04EF40C94642C50954095309521956E
:1058C0003F4F4F4F5F4F089590958095709561952C
:1058D0007F4F8F4F9F4F08950E94D02CA59F900D12
:1058E000B49F900DA49F800D911D112408952F92B7
:1058F0003F924F925F926F927F928F929F92AF9260
:10590000BF92CF92DF92EF92FF920F931F93CF93AC
:10591000DF93CDB7DEB7CA1BDB0B0FB6F894DEBF43
:105920000FBECDBF09942A88398848885F846E8469
:105930007D848C849B84AA84B984C884DF80EE80B3
:10594000FD800C811B81AA81B981CE0FD11D0FB6BC
:10595000F894DEBF0FBECDBFED010895A1E21A2E6F
:10596000AA1BBB1BFD010DC0AA1FBB1FEE1FFF1F03
:10597000A217B307E407F50720F0A21BB30BE40B53
:10598000F50B661F771F881F991F1A9469F760959A
:105990007095809590959B01AC01BD01CF01089554
:1059A000A29FB001B39FC001A39F700D811D112460
:1059B000911DB29F700D811D1124911D08959F931B
:1059C0009F770E94392E0F90002042F49058A2EA4F
:1059D0002AED3FE049E450E40E94082D0C94FD2B91
:1059E0005058BB27AA270E94082D0C94FD2B0E941B
:1059F000EF2B38F00E94F62B20F039F49F3F19F47A
:105A000026F40C94EC2B0EF4E095E7FB0C94E62BBB
:105A1000E92F0E940E2C58F3BA1762077307840708
:105A2000950720F079F4A6F50C94302C0EF4E0954F
:105A30000B2EBA2FA02D0B01B90190010C01CA0148
:105A4000A0011124FF27591B99F0593F50F4503EF3
:105A500068F11A16F040A22F232F342F4427585FE5
:105A6000F3CF469537952795A795F0405395C9F7FD
:105A70007EF41F16BA0B620B730B840BBAF09150B5
:105A8000A1F0FF0FBB1F661F771F881FC2F70EC054
:105A9000BA0F621F731F841F48F487957795679527
:105AA000B795F7959E3F08F0B0CF9395880F08F013
:105AB0009927EE0F979587950895DF93DD27B92FE6
:105AC000BF7740E85FE31616170648075B0718F430
:105AD000D92F0E94C42E9F938F937F936F930E9420
