:100000000C9437010C945F010C945F010C945F0118
:100010000C945F010C945F010C945F010C945F01E0
:100020000C945F010C945F010C945F010C945714C5
:100030000C945F010C945F010C945F010C945F01C0
:100040000C94F2120C945F010C94C0120C949A124E
:100050000C945F010C945F010C945F010C945F01A0
:100060000C943C130C945F01084AD73B3BCE016EC5
:1000700084BCBFFDC12F3D6C74319ABD56833DDAFF
:100080003D00C77F11BED9E4BB4C3E916BAAAABE0E
:10009000000000803F072C7AA5BA6CC590DA3B932C
:1000A00065FC8BBC53F810FD3C5692834DBD879D7B
:1000B0003AB63DCBC9BF5BBE73DA0FC93F05A84C4A
:1000C000CDB2D44EB93836A9020C50B99186880801
:1000D0003CA6AAAA2ABE000000803F004E414E491D
:1000E0004E495459494E46CDCCCC3D0AD7233C17F6
:1000F000B7D13877CC2B329595E6241FB14F0A0043
:100100000020410000C84200401C4620BCBE4CCA32
:100110001B0E5AAEC59D7400407A10F35A00A072AF
:100120004E18090010A5D4E80000E8764817000032
:10013000E40B54020000CA9A3B000000E1F5050000
:100140000080969800000040420F000000A0860149
:10015000000000102700000000E803000000006419
:1001600000000000000A0000000000010000000084
:10017000002C76D888DC674F0823DFC1DFAE59E159
:10018000B1B796E5E3E453C63AE651997696E8E6C8
:10019000C28426EB898C9B62ED407C6FFCEFBC9C9B
:1001A0009F40F2BAA56FA5F490055A2AF75C936BAD
:1001B0006CF9676DC11BFCE0E40D47FEF520E6B568
:1001C00000D0ED902E0300943577050080841E0842
:1001D0000000204E0A000000C80C333333330F9860
:1001E0006E12831141EF8D2114893BE65516CFFE27
:1001F000E6DB18D1844B381BF77C1D901DA4BBE4B3
:1002000024203284725E228100C9F124ECA1E53DF4
:10021000270000000023002600290000000008003D
:1002200002010000030407000000000000000000BD
:10023000000000250028002B0000000000240027FB
:10024000002A00040404040404040402020202025A
:10025000020303030303030102040810204080018A
:100260000204081020010204081020009215112435
:100270001FBECFEFD8E0DEBFCDBF11E0A0E0B1E000
:10028000E6E8F4E502C005900D92A03AB107D9F76F
:1002900026E0A0EAB1E001C01D92A239B207E1F761
:1002A00011E0C7E3D1E004C02197FE010E94392884
:1002B000C633D107C9F70E9426160C94412A0C9424
:1002C00000003F924F925F926F927F928F929F9227
:1002D000AF92BF92CF92DF92EF92FF920F931F9354
:1002E000CF93DF93C82F6A017B0120E030E0A901A2
:1002F000CB01B6010E94CF2387FDC4C020E030E0CF
:1003000044E353E4C701B6010E94682718160CF4B1
:10031000BDC0D0E0FE01EE0FFF1FEE0FFF1FE15C3E
:10032000F94FC586D686E786F08A25A136A147A172
:1003300050A5C701B6010E949A256B017C0130903F
:100340004B068E01000F111F20E030E04AEF53E40E
:10035000332009F4ADC00E94CF2387FF5EC020E0A8
:1003600030E040E251E4C701B6010E9435242B0180
:100370003C0120E030E0A9010E94CF2387FD8DC021
:1003800020E030E041EE54E4C301B2010E9468274E
:1003900018160CF486C0F801EC0FFD1FE15CF94F54
:1003A00081814DE7842E912C881A910887FD9394C2
:1003B000880C991C880C991C092C000CAA08BB08F5
:1003C000828161E7C62E62E0D62EC81AD10887FD69
:1003D000D394CC0CDD1CCC0CDD1C0D2C000CEE08D9
:1003E000FF08C818D908EA08FB08C301B2010E9437
:1003F000AC26A70196010E94F52728E037E040E0EF
:1004000050E00E94F624CA01B901680D791D8A1DC9
:100410009B1D0E94D6236B017C01C00FD11FC15CC4
:10042000D94FC881CC30E0F420E030E040E851E41E
:10043000C701B6010E9435241FB7F89426E0C29F79
:10044000E0011124CA50DA4F20E030E040E05EE3E2
:100450000E9435240E94B3267C836B833D821FBF9C
:10046000DF91CF911F910F91FF90EF90DF90CF9090
:10047000BF90AF909F908F907F906F905F904F90C4
:100480003F900895C12CD12C760143CFC12CD12CA3
:10049000D4E3ED2ED3E4FD2E3CCF412C512C320180
:1004A0007ACF412C512CE1EE6E2EE4E47E2E73CFF8
:1004B0000E94CF2387FF61C020E030E0A901C7017F
:1004C000B6010E94CF2387FD91C020E030E044E3D5
:1004D00053E4C701B6010E946827181634F4C12CF2
:1004E000D12C34E3E32E33E4F32EF801EC0FFD1F9F
:1004F000E15CF94F8181ADE74A2E512C481A510831
:1005000087FD5394440C551C440C551C052C000CC1
:1005100066087708828191E7892E92E0992E881AE1
:10052000910887FD9394880C991C880C991C092CC0
:10053000000CAA08BB0884189508A608B70820E094
:1005400030E040E251E4C701B6010E9435240E9428
:10055000AC26A50194010E94F52728E037E040E091
:1005600050E00E94F624CA01B901640D751D861D74
:10057000971D0E94D6236B017C01C00FD11FC15C67
:10058000D94F18811C3008F06BCFC701B6010E940B
:10059000AC26AB01E9818DE790E08E1B9109E7FD68
:1005A0009395880F991F880F991F481759077CF05A
:1005B000EA8181E792E08E1B9109E7FD9395880F10
:1005C000991F880F991F481759070CF4CA01029701
:1005D000880F991F2FB7F89436E0139FF00111246C
:1005E000EA50FA4F928381832FBF3ACFC12CD12C8E
:1005F00076017BCF8F929F92AF92BF92CF92DF9284
:10060000EF92FF920F931F9349015A016701AB01CB
:10061000BC0180E00E946101B501A40181E00E945B
:100620006101B801A60182E01F910F91FF90EF9048
:10063000DF90CF90BF90AF909F908F900C9461010E
:100640002F923F924F925F926F927F928F929F92E2
:10065000AF92BF92CF92DF92EF92FF921F93CF9310
:10066000DF93CDB7DEB728970FB6F894DEBF0FBE85
:10067000CDBF9E838D8378876F831A01DC018D90B7
:100680009D90AD90BC90A5019401C501B4010E945C
:10069000C727811188C0AF81B8858D919D910D903C
:1006A000BC91A02D89839A83AB83BC839C01AD014F
:1006B000CD01B9010E94C727811175C0F101C08029
:1006C000D180E280F380A7019601C701B6010E94A4
:1006D000C727811168C02091680630916906409152
:1006E0006A0650916B0669817A818B819C810E9498
:1006F0009A252B013C0120E030E040EA50E40E94C2
:10070000CF2387FD4EC020E030E040EF52E4C3012C
:10071000B2010E94682718160CF443C020916C06A1
:1007200030916D0640916E0650916F06C701B6017B
:100730000E949A252B013C0120E030E040EA50E481
:100740000E94CF2387FD2DC020E030E040EF52E42F
:10075000C301B2010E94682718161CF129813A8151
:100760004B815C8160E070E084E393E40E94992512
:10077000A70196010E9499256B017C0120E030E0E1
:1007800046E153E40E94682718165CF020E030E050
:1007900040EF51E4C701B6010E94CF2311E087FF6B
:1007A00003C013E001C012E020E030E0A901C50160
:1007B000B4010E94CF2387FD51C020E030E044E324
:1007C00053E4C501B4010E94682718160CF44AC00E
:1007D000AD81BE818D929D92AD92BC921397EF81B7
:1007E000F88580809180A280B38020E030E0A9016C
:1007F000C501B4010E94CF2387FD3BC020E030E05B
:1008000044E353E4C501B4010E9468271816ACF113
:10081000AF81B8858D929D92AD92BC921397F101F4
:1008200080809180A280B38020E030E0A901C501E2
:10083000B4010E94CF2387FD27C020E030E044E3CD
:1008400053E4C501B4010E946827181604F5812CF1
:10085000912C84E3A82E83E4B82E19C0812C912C0E
:100860005401B6CF812C912C24E3A22E23E4B22E86
:10087000AFCF812C912C5401CBCF812C912C94E3C0
:10088000A92E93E4B92EC4CF812C912C5401D1010F
:100890008D929D92AD92BC921397812F28960FB6A0
:1008A000F894DEBF0FBECDBFDF91CF911F91FF90B7
:1008B000EF90DF90CF90BF90AF909F908F907F9000
:1008C0006F905F904F903F902F90089590E0FC01C3
:1008D000E95AFD4F24918D5B9D4FFC018491882343
:1008E00099F090E0880F991FFC01E75CFD4FA591FE
:1008F000B491FC01E15DFD4F859194918FB7F8941F
:10090000EC91E22BEC938FBF0895AF92BF92CF9200
:10091000DF92EF92FF920F931F93CF93DF936C01BF
:100920007B018B01040F151FEB015E01AE18BF08A0
:10093000C017D10759F06991D601ED91FC91019052
:10094000F081E02DC6010995892B79F7C501DF916A
:10095000CF911F910F91FF90EF90DF90CF90BF90BC
:10096000AF900895FC01538D448D252F30E0842FE6
:1009700090E0821B930B541710F0CF9608950197C7
:100980000895FC01918D828D981761F0A28DAE0FB4
:10099000BF2FB11D5D968C91928D9F5F9F73928F3B
:1009A00090E008958FEF9FEF0895FC01918D828D67
:1009B000981731F0828DE80FF11D858D90E0089534
:1009C0008FEF9FEF0895FC01918D228D892F90E08C
:1009D000805C9F4F821B91098F739927089589E549
:1009E00095E00E94E30421E0892B09F420E0822FA6
:1009F000089580E090E0892B29F00E94EF04811196
:100A00000C9400000895FC01A48DA80FB92FB11D0E
:100A1000A35ABF4F2C91848D90E001968F73992734
:100A2000848FA689B7892C93A089B1898C91837012
:100A300080648C93938D848D981306C00288F3890B
:100A4000E02D80818F7D80830895EF92FF920F9338
:100A50001F93CF93DF93EC0181E0888F9B8D8C8D6A
:100A600098131AC0E889F989808185FF15C09FB75E
:100A7000F894EE89FF896083E889F9898081837021
:100A8000806480839FBF81E090E0DF91CF911F91D0
:100A90000F91FF90EF900895F62E0B8D10E00F5FF1
:100AA0001F4F0F731127E02E8C8D8E110CC00FB6C7
:100AB00007FCFACFE889F989808185FFF5CFCE015F
:100AC0000E940305F1CFEB8DEC0FFD2FF11DE35AD2
:100AD000FF4FF0829FB7F8940B8FEA89FB898081E2
:100AE0008062CFCFCF93DF93EC01888D8823B9F05C
:100AF000AA89BB89E889F9898C9185FD03C0808129
:100B000086FD0DC00FB607FCF7CF8C9185FFF2CFA5
:100B1000808185FFEDCFCE010E940305E9CFDF91F3
:100B2000CF910895833081F028F4813099F082309C
:100B3000A9F008958730A9F08830C9F08430B1F465
:100B4000809180008F7D03C0809180008F7780939B
:100B50008000089584B58F7784BD089584B58F7D16
:100B6000FBCF8091B0008F778093B0000895809183
:100B7000B0008F7DF9CFCF93DF93282F30E0F901BC
:100B8000E55EFD4F8491F901E95AFD4FD491F901D9
:100B9000ED5BFD4FC491CC23A1F081110E94920521
:100BA000EC2FF0E0EE0FFF1FEF5EFD4FA591B4912B
:100BB000EC91ED2381E090E009F480E0DF91CF91AA
:100BC000089580E090E0FACF1F93CF93DF93282F12
:100BD00030E0F901E55EFD4F8491F901E95AFD4FDE
:100BE000D491F901ED5BFD4FC491CC23A9F0162FF0
:100BF00081110E949205EC2FF0E0EE0FFF1FE15DE6
:100C0000FD4FA591B4918FB7F894EC91111108C0E4
:100C1000D095DE23DC938FBFDF91CF911F91089594
:100C2000DE2BF8CF20919E04260F3327331F21326D
:100C30003105ECF42091C204FC0190E080E0243006
:100C400069F082E00895A0919E042191AC01425880
:100C50005B4FA40FB52FB11D2C930196861798F307
:100C600080919E04680F60939E0480E0089581E067
:100C7000089508958FEF9FEF08958FEF9FEF0895E8
:100C80008091770490E09195819591090895CF9393
:100C9000DF93CB01EA01642F0E941206CE01DF919F
:100CA000CF910895CF93DF931F92CDB7DEB76983BD
:100CB00061E0CE0101960E94120681E090E00F9063
:100CC000DF91CF91089590E080E008952F923F92B8
:100CD0004F925F926F927F928F929F92AF92BF924C
:100CE000CF92DF92EF92FF920F931F93CF93DF93F8
:100CF000CDB7DEB72B970FB6F894DEBF0FBECDBFD2
:100D000029013A011801870120E030E040E251E476
:100D10000E943A264B015C0120E030E040E251E4C1
:100D2000C301B2010E943A26A50194010E949925AF
:100D300069837A838B839C8321E02B87C701FF0C17
:100D4000AA0BBB0B8F839887A987BA879B85692ECF
:100D5000712C061517050CF45AC0692F70E090E04D
:100D600080E00E94D4236B017C016F8178858985A6
:100D70009A850E94D6239B01AC01C701B6010E944F
:100D80003A266B017C01A1E06A1AA0EC7A0A660C93
:100D9000771C660C771CF101E60DF71DFE83ED83D1
:100DA000A7019601C701B6010E94352429813A8125
:100DB0004B815C810E9435242B013C0120E030E016
:100DC00040E050ECC701B6010E94352420E030E03D
:100DD00040E450E40E949A259B01AC01C301B2019A
:100DE0000E943524A50194010E949A2520E030E05C
:100DF00040E251E40E943524AD81BE816D937D9324
:100E00008D939C931397BB85BF5FBB879FCF2B961A
:100E10000FB6F894DEBF0FBECDBFDF91CF911F910B
:100E20000F91FF90EF90DF90CF90BF90AF909F9089
:100E30008F907F906F905F904F903F902F9008958C
:100E4000CF93DF93CDB7DEB760970FB6F894DEBFD0
:100E50000FBECDBF92EF980F8E3008F0892F8770AC
:100E60008064FE013196BE016F5E7F4FAF018093BB
:100E70007C0090917A00906490937A0090917A002F
:100E800096FDFCCF9091780020917900322F292F88
:100E9000219331936E177F0751F780E090E0E92F9F
:100EA000F0E09F01280F311D27303105B4F4EE0F1B
:100EB000FF1FDA01AE0FBF1F2D913C9111973296A3
:100EC000E40FF51F608171816217730720F46D9341
:100ED0007C93318320839F5FE2CF8F5F8830F1F670
:100EE0008D819E812F813885820F931F29853A85B8
:100EF000820F931F2B853C85820F931F96958795B4
:100F00009695879560960FB6F894DEBF0FBECDBF5D
:100F1000DF91CF910895892B79F41092800082E0BF
:100F2000809381001092850010928400B19A809184
:100F30006F00826080936F000895FC010190002093
:100F4000E9F73197AF01481B590BBC0189E595E0E2
:100F50000C9485048F929F92AF92BF920F931F9330
:100F6000CF93DF93CDB7DEB7A1970FB6F894DEBF6E
:100F70000FBECDBF19A2423008F44AE08E010F5DCA
:100F80001F4F842E912CB12CA12CA50194010E94FD
:100F90005725E62FB901CA01EA30F4F4E05DD80123
:100FA000EE938D01232B242B252B79F790E080E005
:100FB000109719F0CD010E949D07A1960FB6F894E5
:100FC000DEBF0FBECDBFDF91CF911F910F91BF90BC
:100FD000AF909F908F900895E95CE1CF0C949D07AE
:100FE0002F923F924F925F926F927F928F929F9239
:100FF000AF92BF92CF92DF92EF92FF920F931F9327
:10100000CF93DF93CDB7DEB72B970FB6F894DEBF43
:101010000FBECDBF2B013C0129833A834B835C83F8
:10102000ED82FE820F8318878601BA86A986140195
:1010300088A18B8720E030EC4CE455ECC3010E9482
:10104000CF2387FDBAC120E030EC4CE455E4C30166
:10105000B2010E94682718160CF4B7C120E030ECEA
:101060004CE455EC69817A818B819C810E94CF236D
:1010700087FDB3C120E030EC4CE455E469817A810E
:101080008B819C810E94682718160CF4AFC120E068
:1010900030EC4CE455EC6D817E818F8198850E9407
:1010A000CF2387FDA8C120E030EC4CE455E46D81EE
:1010B0007E818F8198850E94682718160CF4A4C140
:1010C00020E030E040E251E46D817E818F8198859F
:1010D0000E9435240E94AC26072E000C880B990B29
:1010E0000E94D62320E030E040E251E40E943A26FC
:1010F0004B015C0120E030E042E853E40E946827A5
:1011000018160CF4CDC120E030E040EF52ECC501E0
:10111000B4010E94CF2387FDC3C120E030E040E24C
:1011200051E469817A818B819C810E9435240E94DF
:10113000AC26072E000C880B990B0E94D62320E0CA
:1011400030E040E251E40E943A266B017C0126E641
:1011500036EE46ED52E4C501B4010E94992520E027
:1011600030E444E153E40E943A264B015C019B8544
:10117000911109C020E030E0A901C701B6010E9429
:10118000CF2387FD8DC120E030E040E251E4C30170
:10119000B2010E9435240E94AC26072E000C880B59
:1011A000990B0E94D62320E030E040E251E40E94F7
:1011B0003A262B013C0120E030E0A9010E94CF2318
:1011C000811127C180E090E0A4EBB2E4F8018083B4
:1011D0009183A283B383D8018D919D910D90BC9191
:1011E000A02D89839A83AB83BC8320E030E044EB5D
:1011F00052E4BC01CD010E94CF23882309F449C1E8
:1012000026EE3EE245E652E469817A818B819C813B
:101210000E943A260E9435269B01AC01C301B2010F
:101220000E943A2629E23CE549EA51E40E949925C8
:1012300020E030E048EC51E40E94992520E030E4C1
:1012400044E153E40E943A266B017C01AC019B010E
:10125000C501B4010E943A260E94062626EE3EE20F
:1012600045E652E40E9435242B013C01A50194017E
:10127000C501B4010E9435244B015C01A701960110
:10128000C701B6010E9435249B01AC01C501B40120
:101290000E949A250E9483276B017C01AC019B016F
:1012A0000E9435244B015C0123E937E745E95FE300
:1012B0000E949A2520E030E040E85FE30E949925F3
:1012C00069837A838B839C8325E531E54AE050E48A
:1012D000C701B6010E9435249B01AC0169817A8166
:1012E0008B819C810E943A260E94882526EE3EE250
:1012F00045E652E40E943524F101608371838283C4
:10130000938320E030E040E85FE3C501B4010E9430
:101310009A2523E937E745E95FE30E9499254B01C8
:101320005C01A7019601C701B6010E949A259B01A5
:10133000AC01C501B4010E943A260E94882526EE20
:101340003EE245E652E40E943524A30192010E9448
:101350009A25A985BA856D937D938D939C93139758
:10136000A3019201F10160817181828193810E94C8
:101370009925D1016D937D938D939C931397A10132
:1013800069857A85C8012B960FB6F894DEBF0FBE2B
:10139000CDBFDF91CF911F910F91FF90EF90DF9024
:1013A000CF90BF90AF909F908F907F906F905F9005
:1013B0004F903F902F900C942003412C90EC592E8D
:1013C0009CE4692E95EC792E49CE412C80EC582E68
:1013D0008CE4682E85E4782E41CE80E090ECACE47D
:1013E000B5EC89839A83AB83BC8351CE80E090ECCB
:1013F000ACE4B5E4F6CF80E090ECACE4B5EC8D83E2
:101400009E83AF83B8875CCE80E090ECACE4B5E41B
:10141000F6CF20E030E0A901C301B2010E946827A5
:101420001816A4F4A3019201C701B6010E943A263E
:101430000E94062626EE3EE245E652E40E9435244E
:10144000D8016D937D938D939C93139720E030E0AA
:10145000A901C301B2010E94CF2387FFBCCEA30123
:101460009201C701B6010E943A260E94062626EE86
:101470003EE245E652E40E94352420E030E044E3B9
:1014800053E40E949A25F8016083718382839383D9
:10149000A2CE29E23CE549EA51E4C701B601C6CE35
:1014A00082E02B960FB6F894DEBF0FBECDBFDF9162
:1014B000CF911F910F91FF90EF90DF90CF90BF9051
:1014C000AF909F908F907F906F905F904F903F90E4
:1014D0002F9008952F923F924F925F926F927F923A
:1014E0008F929F92AF92BF92CF92DF92EF92FF9234
:1014F0000F931F93CF93DF9300D000D000D0CDB7D0
:10150000DEB78C011B015E834D8326EE3EE245E68D
:1015100052E460915006709151068091520690916C
:1015200053060E943A264B015C010E9435262B018E
:101530003C0126EE3EE245E652E46091540670918D
:10154000550680915606909157060E943A266B01E7
:101550007C010E94352669837A838B839C8320E0FB
:1015600030E444E153E4C301B2010E9435242B016D
:101570003C0123E333E340E253E469817A818B81C8
:101580009C810E9435249B01AC01C301B2010E94E1
:101590009A2529E23CE549EA51E40E949A2520E097
:1015A00030E048EC51E40E949A252B013C01C50132
:1015B000B4010E9475274B015C01C701B6010E946E
:1015C00075276B017C0126EE3EE245E652E4609110
:1015D0004C0670914D0680914E0690914F060E94E8
:1015E0003A260E9435269B01AC01C301B2010E943C
:1015F0003524F801608371838283938326EE3EE273
:1016000045E652E460914C0670914D0680914E067D
:1016100090914F060E943A260E9475279B01AC01CB
:10162000C301B2010E943524F1016083718382837A
:10163000938320E030E444E153E4C501B4010E9407
:1016400035244B015C0123E333E340E253E4C7015B
:10165000B6010E9435249B01AC01C501B4010E9472
:10166000992526E636EE46ED52E40E949A25ED8154
:10167000FE81608371838283938381E026960FB617
:10168000F894DEBF0FBECDBFDF91CF911F910F91B8
:10169000FF90EF90DF90CF90BF90AF909F908F9092
:1016A0007F906F905F904F903F902F9008952F9272
:1016B0003F924F925F926F927F928F929F92AF92E2
:1016C000BF92CF92DF92EF92FF920F931F93CF932F
:1016D000DF93CDB7DEB7C454D1090FB6F894DEBF9F
:1016E0000FBECDBF69A77AA78BA79CA72DA73EA742
:1016F0004FA758ABE9AAFAAA0BAB1CABADA2BEA28E
:10170000CFA2D8A620E030E0A901C601B5010E9411
:10171000CF2387FDA0C320E030E048EC52E4C601AF
:10172000B5010E94CF2387FF59C0C601B5010E94B1
:10173000AC269B01AC01AFEFB0E00E94152523E67B
:1017400030E040E050E00E94F62420934B0681E018
:101750008F93CE0101964C01DE0115965D01FE01CD
:1017600039966F01E9A8FAA80BA91CA92DA53EA5D9
:101770004FA558A969A57AA58BA59CA50E94F0073D
:10178000782E0F90F2E08F1771F0E980FA800B81CC
:101790001C812D813E814F81588569857A858B8595
:1017A0009C850E94FA02872DCC5BDF4F0FB6F89420
:1017B000DEBF0FBECDBFDF91CF911F910F91FF9084
:1017C000EF90DF90CF90BF90AF909F908F907F90E1
:1017D0006F905F904F903F902F9008958FEF809380
:1017E0004B0619A21AA21BA21CA21D8E1E8E1F8EB2
:1017F00018A2198E1A8E1B8E1C8E1D8A1E8A1F8A95
:10180000188E198A1A8A1B8A1C8A1D861E861F86B4
:10181000188A19861A861B861C861D821E821F82C4
:10182000188619821A821B821C8281E08F93CE0156
:101830000D964C01DE0151965D01FE0175966F011A
:10184000E9A8FAA80BA91CA92DA53EA54FA558A942
:1018500069A57AA58BA59CA50E94F007782E0F900C
:10186000F2E08F1709F49FCF20E030E0A9016DA1CD
:101870007EA18FA198A50E94CF23811191C08FEFE7
:101880009FEF9093F4048093F304ED84FE840F851E
:10189000188929893A894B895C896D897E898F8964
:1018A000988D0E94FA027724739444244A94542C0D
:1018B0008091F3049091F40497FD75CF2091F10489
:1018C0003091F204821793070CF06DCF8FB7F89424
:1018D0004091ED045091EE046091EF047091F0049A
:1018E0008FBFC090F304D090F40480917304909162
:1018F0007404A0917504B0917604481B590B6A0BCF
:101900007B0B2091710430917204C29EC001C39E72
:10191000900DD29E900D1124B0E0A0E04817590719
:101920006A077B0728F28601000F111F000F111FA5
:10193000F801EF57FC4F7F01C8018F569D4F5C01A6
:10194000D801AF55BE4F1D01AF01BC01CD010E94B2
:1019500020038090F1049090F204823089F0F70126
:10196000E080F18002811381D5012D913D914D914F
:101970005C91F10160817181828193810E94FA0200
:10198000FFEFCF1ADF0AD092F404C092F304C81418
:10199000D9040CF48DCF5092F4044092F30488CF14
:1019A00080914C0690914D06A0914E06B0914F0645
:1019B00089AF9AAFABAFBCAF809150069091510602
:1019C000A0915206B091530621968CAF9DAFAEAF59
:1019D000BFAF21978091540690915506A09156066D
:1019E000B091570625968CAF9DAFAEAFBFAF259790
:1019F000AE014F5F5F4FBE016B5F7F4FCE01099617
:101A00000E946A0A29AD3AAD4BAD5CAD6D897E8905
:101A10008F89988D0E9499256B017C0120E030E030
:101A2000A9010E94682726013701181624F077FAC9
:101A3000709477F8709421962CAD3DAD4EAD5FADAE
:101A4000219769897A898B899C890E9499254B0104
:101A50005C0120E030E0A9010E946827181624F0FC
:101A6000B7FAB094B7F8B094A3019201C501B401DC
:101A70000E94CF2387FF7BC120E030E0A901C7018E
:101A8000B6010E94682718160CF06DC1C701B60197
:101A90000E94AC268B01072E000C880B990B0E942C
:101AA000D6234B015C0125962CAD3DAD4EAD5FAD0F
:101AB00025976D857E858F8598890E9499256B0174
:101AC0007C0120E030E0A9010E946827181624F06C
:101AD000F7FAF094F7F8F094A7019601C501B40164
:101AE0000E94682718162CF0C701B6010E94AC2688
:101AF0008B0134E0732E101611060CF0D6CE0D3388
:101B0000110514F00CE310E089859A85AB85BC853E
:101B10008DAB9EABAFABB8AF9C01AD0169A57AA50B
:101B20008BA59CA50E9499252B013C012D813E810E
:101B30004F8158856DA57EA58FA598A90E949925EE
:101B40004B015C0129813A814B815C8169A97AA9A9
:101B50008BA99CA90E9499256B017C01A30192018C
:101B6000C301B2010E9435242B013C01A50194015F
:101B7000C501B4010E9435249B01AC01C301B2012F
:101B80000E949A254B015C01A7019601C701B6018D
:101B90000E9435249B01AC01C501B4010E949A2525
:101BA0000E9483274B015C0120E030E04AE754E4C7
:101BB0006DA17EA18FA198A50E946827181644F4F4
:101BC00080E090E0AAE7B4E48DA39EA3AFA3B8A7FA
:101BD000B801012E000C880B990B0E94D6236B01D3
:101BE0007C012DA13EA14FA158A5C501B4010E94C1
:101BF0003A2620E030E04AE754E40E943524A70169
:101C000096010E943A260E94B3261B016531710598
:101C100028F190E080E00E94D42320E030E040EA08
:101C200051E40E943A26A70196010E9435246B01D7
:101C30007C0120E030E040E752E40E94CF2364E1E1
:101C4000262E312C0CE310E087FF08C0C701B60137
:101C50000E94AC268B0174E1272E312C38010D3304
:101C600011051CF05CE3652E712C730101EA11E093
:101C700029A53AA54BA55CA56DA97EA98FA998AD0C
:101C80000E9466066D817E818F81988501E912E050
:101C90002DA53EA54FA558A90E94660669817A81A7
:101CA0008B819C8101E813E029A93AA94BA95CA981
:101CB0000E946606E1EAF1E0FEA7EDA781E992E065
:101CC0009AA789A71EA30DA3512C412C4614570493
:101CD0000CF079C0EDA1FEA1E080F18002811381BA
:101CE000A9A5BAA52D913D914D915C91EDA5FEA5BB
:101CF0006081718182819381F1E0FF93DE015996C9
:101D00004D01FE017D965F0118966D010E94F0075E
:101D10000F90813079F589A19AA1ABA1BCA1EDA565
:101D2000FEA581939193A193B193FEA7EDA78D8D0D
:101D30009E8DAF8DB8A1E9A5FAA581939193A1934A
:101D4000B193FAA7E9A7898D9A8DAB8DBC8DEDA1D2
:101D5000FEA181939193A193B193FEA3EDA3FFEF15
:101D60004F1A5F0AB3CFC701B601905891CEC50193
:101D7000B4018ECE2D893E894F89588D730101EAB9
:101D800011E069AD7AAD8BAD9CAD0E9466062989E4
:101D90003A894B895C8901E912E021966CAD7DADF1
:101DA0008EAD9FAD21970E9466062D853E854F859D
:101DB000588901E813E025966CAD7DAD8EAD9FADE1
:101DC00025970E946606C3010197880F991F880F07
:101DD000991FFC01EF55FE4F4D895E896F89788D03
:101DE0004083518362837383FC01EF56FD4F498921
:101DF0005A896B897C8940835183628373838F57AF
:101E00009C4F4D855E856F857889DC014D935D9390
:101E10006D937C93139730927204209271047092A8
:101E2000F2046092F1041092F4041092F3042FB7BC
:101E3000F8948091ED049091EE04A091EF04B0919C
:101E4000F0042FBF8093730490937404A0937504DF
:101E5000B093760428CD82E0782EA5CC8F929F9205
:101E6000AF92BF92CF92DF92EF92FF921F93CF93E8
:101E7000DF93182FC82FD0E0833009F04EC0809137
:101E80007B0690E00E942007B0E0A0E09C01AD013D
:101E90002256310941095109A4EBB0E00E941525F1
:101EA0002AE631E040E050E00E94F624CA01B90180
:101EB0000E94D623CC0FDD1FCC0FDD1FC15CD94F94
:101EC0002DA13EA14FA158A50E9499256B017C012F
:101ED00020E030E0A9010E94CF2387FD7EC020E0F2
:101EE00030E044E353E4C701B6010E9468271816A6
:101EF00034F4C12CD12C84E3E82E83E4F82EC701FE
:101F0000B601DF91CF911F91FF90EF90DF90CF90BE
:101F1000BF90AF909F908F900895FE01E15CF94FC4
:101F200081AD90E00E942007113009F445C0A0F176
:101F30001230A1F077ED872E73EA972E70EFA72E5F
:101F40007EE3B72EE4E1CE2EEEEADE2EEAE2EE2EBE
:101F5000E2ECFE2E133089F00E94212AF3E38F2E4B
:101F6000982CF3EBAF2EFEE3BF2EADECCA2EACECFB
:101F7000DA2EACEEEA2EA1ECFA2EBC01990F880BFA
:101F8000990B0E94D623A50194010E943524A70134
:101F900096010E949A258ECF53E3852E982C53EB01
:101FA000A52E5EE3B52E6AE9C62E69E9D62E63EF4B
:101FB000E62E61ECF62EE1CF3BE7832E34E1932E43
:101FC0003EEAA32E3EE3B32E43ECC42E45EFD42EBF
:101FD00042EEE42E41ECF42ED0CFC12CD12C760170
:101FE0008ECFCF92DF92EF92FF92CF93DF936C016F
:101FF000990FEE08FF08F7FE19C06DE289E595E03C
:102000000E942505EC0166277727CB016C197D0915
:102010008E099F094AE00E94AA078C0F9D1FDF913D
:10202000CF91FF90EF90DF90CF9008954AE0C701E5
:10203000B601DF91CF91FF90EF90DF90CF900C949D
:10204000AA070F931F93CF93DF938C01EB01181610
:1020500019065CF480E391E00E94EE07C8010E943B
:10206000F10F84E391E00E94EE0782E391E00E9489
:10207000EE074C815D816881798189E595E00E9458
:10208000850486E391E0DF91CF911F910F910C942D
:102090009D07CF93DF93EC01181619065CF480E3DB
:1020A00091E00E94EE07CE010E94F10F84E391E0DF
:1020B0000E94EE0789E391E00E949D0786E391E08C
:1020C000DF91CF910C949D070F931F93CF93DF93D4
:1020D0008C01EB01181619065CF480E391E00E9474
:1020E000EE07C8010E94F10F84E391E00E94EE0721
:1020F0008CE391E00E94EE07BE0190E080E04AE0B0
:102100000E94AA0786E391E0DF91CF911F910F9182
:102110000C949D07FC0180819181009711F00C9433
:10212000DB280895EF92FF920F931F93CF93DF93D5
:10213000EC017B01198218821B821A821D821C828B
:10214000FB0101900020E9F731978F01061B170B67
:10215000B8016F5F7F4F90E080E00E946429009794
:10216000B9F0998388831B830A832C813D81232BBB
:1021700011F4FC0110821D830C83B70188819981C1
:10218000DF91CF911F910F91FF90EF900C943A2A1D
:1021900088819981009711F00E94DB2819821882AA
:1021A0001D821C821B821A82DF91CF911F910F9199
:1021B000FF90EF9008951F93CF93DF9385ED809369
:1021C000BC0080917A0490917B04A0917C04B09132
:1021D0007D040796A11DB11D23E0B695A79597959F
:1021E00087952A95D1F72091BC0024FD03C0109259
:1021F000C20452C040917A0450917B0460917C04E7
:1022000070917D04452B462B472B69F30097A10560
:10221000B10541F025E32A95F1F700000197A109E6
:10222000B109E1CF80917904C1E0C093780488239B
:1022300099F1D091B8001091BA008091BC008A7BCE
:102240008093BC0060E082E10E94E40560E083E1ED
:102250000E94E4051092C204C093C4041092C30407
:1022600061E082E10E94E40561E083E10E94E4050F
:102270008091B9008E7F8093B9008091B9008D7FE5
:102280008093B90088E48093B80085E48093BC0013
:102290001093BA00D093B800DF91CF911F910895A9
:1022A0002F923F924F925F926F927F928F929F9266
:1022B000AF92BF92CF92DF92EF92FF920F931F9354
:1022C000CF93DF93CDB7DEB7C057D1090FB6F894DF
:1022D000DEBF0FBECDBFCB57DF4FC880D980C558FA
:1022E000D040C957DF4F68807980C758D040D301AC
:1022F000F30110E000E0819148019FEF891A990AEB
:10230000882329F0853209F048018401F4CFF601D1
:1023100010820115110571F58D91882311F08193BB
:10232000FBCF1082E1E0F0E0EC0FFD1FE00FF11FAA
:102330001082BE016F5F7F4FC6010E942F2AC40129
:10234000C059DF4F0FB6F894DEBF0FBECDBFDF918F
:10235000CF911F910F91FF90EF90DF90CF90BF90A2
:10236000AF909F908F907F906F905F904F903F9035
:102370002F9008957E01F9E8EF0EF11C10E000E0C7
:10238000B12CA12C82E3282E312CF301EA0DFB1D88
:102390008081882339F2853209F06CC08FEFA81A4A
:1023A000B80AE1E0F0E0EC0FFD1FE00FF11F108232
:1023B000BE016F5F7F4FC6010E942F2A1982F30171
:1023C000EA0DFB1D80818636B9F144F4833609F4A9
:1023D00049C0843671F010E000E063C08C36E9F04B
:1023E0008337C9F787010E5F1F4FF7016081718145
:1023F0000FC087010E5F1F4F4AE0BE016C5C7F4F2C
:10240000F701808191810E94C11FBE016C5C7F4FEA
:10241000C6010E942F2A7801DECF87010C5F1F4F73
:10242000F70160817181828193812AE0AE014C5C69
:102430005F4F0E94CC1FE9CF2701F4E04F0E511CE3
:10244000F70160817181828193818E0109591F4F4B
:1024500022E044E00E94731FB801C6010E942F2AA7
:102460007201B9CF87010E5F1F4FF70180818CABDE
:102470001DAACBCFE1E0F0E0EC0FFD1FE00FF11F54
:102480008083C8010196B1010E9411288C01892B1B
:1024900041F41BAABE016F5F7F4FC6010E942F2A25
:1024A0001982FFEFAF1ABF0A70CFEF92FF920F931E
:1024B0001F93CF93DF93CDB7DEB7E8970FB6F894AD
:1024C000DEBF0FBECDBF672B99F58C018EE391E087
:1024D0009F938F9384E491E09F938F93CE01019615
:1024E0007C019F938F930E945011B701CE01C39638
:1024F0000E949210BE016D5C7F4FC8010E942110A6
:10250000CE01C3960E948A100F900F900F900F90EB
:102510000F900F9080E0E8960FB6F894DEBF0FBEE4
:10252000CDBFDF91CF911F910F91FF90EF90089554
:1025300085E1F1CF1F920F920FB60F9211242F93C6
:102540003F934F935F936F937F938F939F93AF933B
:10255000BF93EF93FF9389E595E00E940305FF91F8
:10256000EF91BF91AF919F918F917F916F915F910B
:102570004F913F912F910F900FBE0F901F90189584
:102580001F920F920FB60F9211242F938F939F9348
:10259000EF93FF93E0916905F0916A058081E091E6
:1025A0006F05F091700582FD1BC0908180917205CE
:1025B0008F5F8F7320917305821741F0E091720550
:1025C000F0E0E75AFA4F958F80937205FF91EF91F3
:1025D0009F918F912F910F900FBE0F901F90189584
:1025E0008081F4CF1F920F920FB60F9211242F9378
:1025F0003F938F939F93AF93BF938091ED049091FE
:10260000EE04A091EF04B091F0043091EC0423E0CB
:10261000230F2D3758F50196A11DB11D2093EC0411
:102620008093ED049093EE04A093EF04B093F00434
:102630008091E8049091E904A091EA04B091EB0440
:102640000196A11DB11D8093E8049093E904A09325
:10265000EA04B093EB04BF91AF919F918F913F91AA
:102660002F910F900FBE0F901F90189526E8230F03
:102670000296A11DB11DD2CF1F920F920FB60F92DD
:1026800011242F933F934F935F936F937F938F9377
:102690009F93AF93BF93EF93FF938091B900887F8F
:1026A000803609F44AC0F0F5883209F4A5C018F55F
:1026B000803109F499C0B8F4882309F4F5C0883052
:1026C00009F492C0FF91EF91BF91AF919F918F91CB
:1026D0007F916F915F914F913F912F910F900FBE1E
:1026E0000F901F901895883109F486C0803251F7F9
:1026F0008093C10414C0803409F49BC040F480333B
:10270000B9F38833F9F68093C10485ECAEC0803507
:1027100009F483C0883509F494C0883499F60E947E
:10272000DB10D0CF883909F48AC038F5883729F012
:1027300050F4883611F0803729F683E08093C20484
:102740001092C00455C0883809F479C0803919F056
:10275000803809F0B7CF8091C004803208F06FC094
:10276000E091C00481E08E0F8093C0048091BB0093
:10277000F0E0E056FB4F80833BC0803B39F0D0F463
:10278000803A09F477C0883A09F09CCF84E08093BE
:10279000C20410929F0410929E04F0E0E0E00995BC
:1027A00080919E0481110FC081E080939E0410925D
:1027B0007E0409C0803C09F4A8CF883C09F4A5CF69
:1027C000883B09F07FCFE0919F0481E08E0F8093DA
:1027D0009F04F0E0E258FB4F80818093BB00909112
:1027E0009F0480919E0429C08091E7048093BB00E0
:1027F00085EC8093BC0066CF9091E6048091E5045F
:10280000981758F5E091E60481E08E0F8093E60476
:10281000F0E0EB53FB4F8081E9CFE091E60481E0EB
:102820008E0F8093E6048091BB00F0E0EB53FB4FEA
:1028300080839091E6048091E5049817C8F285E8BA
:10284000D8CFE091E60481E08E0F8093E60480917A
:10285000BB00F0E0EB53FB4F80838091C4048111F7
:102860005ECF81E08093C30484EA8093BC00109221
:10287000C20428CF85EC8093BC001092C2048091E2
:10288000C004803230F4E091C004F0E0E056FB4F29
:1028900010826091C00470E080EA94E0F0E0E0E033
:1028A00009951092C0040ECF1092C10438CF1F9228
:1028B0000F920FB60F9211242F933F934F935F9374
:1028C0006F937F938F939F93AF93BF93CF93DF9338
:1028D000EF93FF938091A001C0913E06D0E087FF67
:1028E00024C010928500109284008091A0018F5F17
:1028F0008093A0018091A001082E000C990B8C17E9
:102900009D0724F48091A0018C307CF1809184009B
:1029100090918500049680349C4908F4F9C0809118
:102920008400909185000496F5C08091A001082E46
:10293000000C990B8C179D07C4F63091A00126E07E
:102940003203F0011124EA50FA4F808186FFCDCF87
:102950003091A0013203F0011124EA50FA4F808136
:1029600060E08F730E94E405C0CF3091A00126E0A3
:102970003203F0011124EA50FA4F8581882309F4CB
:102980008AC03091A0014091A0014203F0011124BE
:10299000EA50FA4F818192813203F0011124EA500A
:1029A000FA4F438154818417950708F048C040913D
:1029B000A0013091A0013203F0011124EA50FA4F36
:1029C000618172814203D0011124AA50BA4F159639
:1029D0008C91860F972F911D928381833091A00156
:1029E0004091A0014203F0011124EA50FA4F818185
:1029F00092813203F0011124EA50FA4F438154814D
:102A00008417950708F447C04091A0013091A001B8
:102A10004203F0011124EA50FA4F8381948132037A
:102A2000F0011124EA50FA4F928381833091A00182
:102A30003203F0011124EA50FA4F15822CC0409164
:102A4000A0013091A0013203F0011124EA50FA4FA5
:102A5000818192814203D0011124AA50BA4F159668
:102A60003C91831B9109928381833091A001409115
:102A7000A0014203F0011124EA50FA4F81819281B2
:102A80003203F0011124EA50FA4F43815481481770
:102A9000590708F0B9CF809184009091850030915A
:102AA000A00126E03203F0011124EA50FA4F4181DF
:102AB0005281840F951F90938900809388003091F4
:102AC000A0013203F0011124EA50FA4F808186FF01
:102AD0000CC03091A0013203F0011124EA50FA4FEA
:102AE000808161E08F730E94E405FF91EF91DF9197
:102AF000CF91BF91AF919F918F917F916F915F9196
:102B00004F913F912F910F900FBE0F901F901895EE
:102B100080E49CE990938900809388008FEF8093F4
:102B2000A001E3CF10925C0510925B0588EE93E064
:102B3000A0E0B0E080935D0590935E05A0935F05F3
:102B4000B093600582E291E090935A058093590515
:102B500085EC90E0909366058093650584EC90E0A9
:102B6000909368058093670580EC90E090936A05E8
:102B70008093690581EC90E090936C0580936B05E0
:102B800082EC90E090936E0580936D0586EC90E06A
:102B90009093700580936F051092720510927305E3
:102BA0001092740510927505AFE3B6E08FEF96E0D2
:102BB00028EB3BE0E0913E06EC3008F045C041E0F8
:102BC0004E0F40933E06EC939E9FF0011124EA5075
:102BD000FA4F32832183139646E0AB34B40751F7A2
:102BE0008FEF80934B0680E1E6E0F1E0ACE4B6E0E5
:102BF00001900D928A95E1F7ECE5F6E088E0DF01BF
:102C00001D928A95E9F78091160190911701A09184
:102C10001801B09119018093740690937506A093E2
:102C20007606B093770680911A0190911B01A091CE
:102C30001C01B0911D018093780690937906A093B2
:102C40007A06B0937B0608958C93C5CFCF93DF931C
:102C5000CDB7DEB7C956D1090FB6F894DEBF0FBEA7
:102C6000CDBF789484B5826084BD84B5816084BD15
:102C700085B5826085BD85B5816085BD80916E001A
:102C8000816080936E00109281008091810082604B
:102C90008093810080918100816080938100809188
:102CA00080008160809380008091B1008460809377
:102CB000B1008091B00081608093B00080917A0073
:102CC000846080937A0080917A00826080937A0099
:102CD00080917A00816080937A0080917A00806888
:102CE00080937A001092C100E0916905F0916A0525
:102CF00082E08083E0916505F09166051082E091A5
:102D00006705F091680580E1808310927105E0917C
:102D10006D05F0916E0586E08083E0916B05F09182
:102D20006C05808180618083E0916B05F0916C057A
:102D3000808188608083E0916B05F0916C058081D3
:102D400080688083E0916B05F0916C0580818F7DB8
:102D5000808386E00E94660489E00E94660485E024
:102D60000E9466048BE794E1A6E9B1EC80936406C7
:102D700090936506A0936606B093670680E090E0A6
:102D8000A0E2B1E48093680690936906A0936A0676
:102D9000B0936B0680E090E0A0EAB1EC80936C0603
:102DA00090936D06A0936E06B0936F061092700616
:102DB00010927106109272061092730610924006DD
:102DC0001092410610924306109244061092460655
:102DD0001092470687EE8093490689E180934A0660
:102DE0000FE316E0780196E0D92E2CE0C22ED80130
:102DF0008C918C30C8F5F701B5A88B2D0E94660424
:102E0000D8018C91D89EF0011124EA50FA4F2B2D55
:102E10002F739081907C922B90836C2D0E940528BB
:102E20008C9DA001112430E020E0BA01620F731FD5
:102E3000D69EF001D79EF00D1124EA50FA4F9081F2
:102E400096FD08C02F5F3F4F2C30310571F790E0A1
:102E50000E948B07D801EC91DE9EF0011124EA500C
:102E6000FA4F8081806480830D5F1F4FBFEFEB1AA4
:102E7000FB0AE6E00B341E0709F0B9CF80E00E94A0
:102E80002E0F60934C0670934D0680934E069093E0
:102E90004F0681E00E942E0F6093500670935106FA
:102EA000809352069093530682E00E942E0F609307
:102EB000540670935506809356069093570683E008
:102EC0000E942E0F609358067093590680935A06FD
:102ED00090935B068FEF9FEF9093F4048093F3043D
:102EE0009093F2048093F10410927C0610927D0678
:102EF00010927E0610927F06109280061092810634
:102F0000109282061092830685EF94E090938506D6
:102F10008093840680E390E0A0E0B0E08093860692
:102F200090938706A0938806B0938906A12CB12CB4
:102F3000B8ECCB2EB2E4DB2EE12CF12C06E113E44D
:102F4000A801970160E070E0CB010E94570B88E474
:102F500091E00E949D0786E391E00E949D079E01FB
:102F60002F5F3F4F290180917C0690917D06A091B3
:102F70007E06B0917F060091800610918106209117
:102F800082063091830680179107A207B30709F4E0
:102F900038C7E0918406F0918506E80FF91F10818B
:102FA000BC01CD016F5F7F4F8F4F9F4F20918606F1
:102FB0003091870640918806509189060E945725D6
:102FC00060937C0670937D0680937E0690937F06C7
:102FD0008091570590915805009739F00197F1F0CD
:102FE0001092580510925705BECF133239F017349E
:102FF00029F01D3419F0103509F0B5CF81E090E0CB
:103000009093580580935705133271F080935505BE
:1030100081E08093560510932505A5CFE0915605D4
:10302000E033F0F6133219F410925505F1CF17344E
:1030300021F01D3411F0103579F48091550581117E
:10304000E7CF81E0809355058E0F80935605F0E021
:10305000EB5DFA4F108387CFAE2FB0E0AB5DBA4F78
:103060001A3009F0C9C61C92E5E2F5E00190002093
:10307000E9F73197A5E2B5E0AE17BF0709F4B0CF85
:1030800082918F01082E000C990B0E949E23892BA0
:1030900009F41DC7F8011082EDCF23E2F21621F0EA
:1030A0003081A6963FAFA6970E94911F6BAB7CAB79
:1030B0008DAB9EAB64E371E090E080E00E94951FD1
:1030C000FC010F5F1F4F309759F10630110541F198
:1030D000CF0101960115110501F30130110591F0A1
:1030E0000E94911FF801EE0FFF1FEE0FFF1F23E359
:1030F00030E02C0F3D1FE20FF31F6083718382834A
:103100009383D8CF43E2F41204C0A081A696AFAF58
:10311000A6970E94911F6FAB78AF89AF9AAFCACFC5
:103120006BA97CA98DA99EA90E94AC261B0133E244
:10313000F3122FC06FA978AD89AD9AAD0E94AC266D
:103140000250110922E030E0A6964FADA6974D340B
:1031500009F471C1403509F44FC4473409F040CF38
:103160003901660C771C660C771C83E390E08C0FAA
:103170009D1F680E791E693C710509F4CDC084F469
:10318000672B09F48DC064E170E0C1010E946410F6
:1031900027CF01501109312C212C21E030E0D4CF70
:1031A0006A3C710509F417C16C3C710561F7043084
:1031B000110509F01FC4D3011C96AD90BD90CD90B0
:1031C000DC901F9718968D919D910D90BC91A02D2C
:1031D000A5968CAF9DAFAEAFBFAFA597D3011496A8
:1031E0008D919D910D90BC91A02DA1968CAF9DAF1E
:1031F000AEAFBFAFA197F3016080718082809380F2
:10320000A201BE01655B7F4FCE018F5A9F4F0E9486
:103210006A0A65962CAD3DAD4EAD5FAD6597C401B4
:10322000B3010E949A253B014C0165966CAE7DAEC0
:103230008EAE9FAE65972F962CAD3DAD4EAD5FAD7A
:103240002F97A1966CAD7DAD8EAD9FADA1970E94DD
:103250009A25A1966CAF7DAF8EAF9FAFA1972F96A9
:103260006CAF7DAF8EAF9FAF2F9729813A814B8195
:103270005C81A5966CAD7DAD8EAD9FADA5970E948E
:103280009A2569837A838B839C837B018C01A19629
:103290002CAD3DAD4EAD5FADA197C401B3011BC0D8
:1032A0000430110509F0A6C3D3011C96AD90BD9062
:1032B000CD90DC901F971896ED90FD900D911C918C
:1032C0001B9714962D913D914D915C9117976D919F
:1032D0007D918D919C910E94570B823009F0A7C07F
:1032E0001AE080E391E00E94EE07C1010E94F10F15
:1032F00084E391E00E94EE078CE391E00E94EE07E8
:10330000612F70E090E080E04AE00E94AA0786E327
:1033100091E00E949D0764CE0430110509F06AC354
:10332000D3018D919D910D90BC91A02DA1968CAF54
:103330009DAFAEAFBFAFA19726EE3EE245E652E4A9
:10334000F30164817581868197810E943A266B0121
:103350007C010E943526A5966CAF7DAF8EAF9FAFE6
:10336000A597C701B6010E9475279B01AC01D30147
:103370001C96AD90BD90CD90DC901F9718968D91C6
:103380009D910D90BC91A02DAA968CAF9DAFAEAF34
:10339000BFAFAA97A1966CAD7DAD8EAD9FADA19745
:1033A0000E9435243B014C01A5962CAD3DAD4EADA0
:1033B0005FADA597A1966CAD7DAD8EAD9FADA1978C
:1033C0000E943524AA96ECACFDAC0EAD1FADAA97B9
:1033D000A401930180CF0230110509F00BC3F30162
:1033E000C480D580E680F78060817181828193817D
:1033F0000E94B326162F643008F0FCC220E030E0B3
:1034000044E353E4C701B6010E94682718160CF480
:10341000F1C220E030E0A901C701B6010E94CF232C
:1034200087FDE8C2B701A601812F0E946101C10199
:103430000E944910D5CD220F331F220F331F53E3B3
:10344000652E712C6C0E7D1E620E731E6D3D710516
:1034500009F4A0C10CF070C06A3C710509F403C105
:103460006C3D710509F41FC1693C710509F08BCEF3
:103470000130110509F0BEC2D3016D917D918D918E
:103480009C910E94B326643008F02ACF062F10E0EA
:10349000F801E15CF94FB5A87801EE0CFF1CC701FB
:1034A000800F911FFC01E15CF94F6F0180818C302E
:1034B00008F0BDCF8B2D0E946604D6018C91B6E03A
:1034C0008B9FF0011124EA50FA4F2B2D2F7390811E
:1034D000907C922B90832CE0622F0E940528482F2D
:1034E00050E0829FB001112430E020E086E0DB0153
:1034F000A20FB31F8A9FF0018B9FF00D1124EA5099
:10350000FA4F908196FD08C02F5F3F4F2C30310558
:1035100071F7CA010E948B070E0D1F1DF801E15CB7
:10352000F94FE08126E0E29FF0011124EA50FA4FC2
:103530008081806480837BCF673E710509F428C257
:103540000CF070C06E3D710509F01DCE0430110500
:1035500009F050C2D30114968D909D90AD90BC900F
:103560001797CD90DD90ED90FC90139720E030E020
:1035700040E85FE31C966D917D918D919C911F9722
:103580000E94CF23811128C026EE3EE245E652E498
:10359000C501B4010E943A264B015C010E94352608
:1035A0009B01AC01C701B6010E943524F301608381
:1035B000718382839383C501B4010E9475279B01A7
:1035C000AC01C701B6010E943524D30114966D9356
:1035D0007D938D939C931797F301E084F18402858A
:1035E0001385248135814681578160817181828173
:1035F00093811F924201DE01A55BBF4F5D01FE0179
:10360000EF5AFF4F6F010E94F0070F90823009F4CC
:10361000CDC38A3009F4CAC3813009F06EC363E6B2
:1036200071E068C3683E710509F4D0C1603F71055F
:1036300009F0A9CD0230110509F0DCC1D3016D916B
:103640007D918D919C910E94B326162FF301648188
:103650007581868197810E94B326662309F4C8C1CB
:1036600061E0812FAAC10130110509F0C3C1D30166
:103670006D917D918D919C910E94B326643008F0EC
:103680002FCE70E0FB01EE0FFF1FE60FF71FE15C8E
:10369000F94FE081B6E0EB9FF0011124EA50FA4FB8
:1036A00080818F7B47CF0330110509F0A3C1F3015F
:1036B000E084F18402851385248135814681578118
:1036C0006081718182819381E1E0EF93DE01AF5AE5
:1036D000BF4F4D01FE01EB5AFF4F5F0118966D0180
:1036E0000E94F0076A963FAD6A976B962FAD6B9775
:1036F0006C969FAD6C976D968FAD6D97632F722F03
:103700006C01CB01AD2DBC2DF30180839183A2838D
:10371000B38366963FAD669767962FAD67976896B9
:103720009FAD689769968FAD699789017C01812F5C
:10373000902FAF2DBE2D84839583A683B783629689
:10374000BFAD62976396AFAD639764969FAD649784
:1037500065968FAD65972B2F3A2F492F582FC901AA
:10376000DA0180879187A287B3875F934F933F9356
:103770002F93EF92FF920F931F93CF92DF927F933D
:103780006F932BE431E03F932F935F924F920E940F
:10379000501165C20330110509F02CC126EE3EE23E
:1037A00045E652E4D30114966D917D918D919C91E3
:1037B00017970E943A266B017C010E9435264B0127
:1037C0005C0126EE3EE245E652E4F3016085718538
:1037D000828593850E943A26A1966CAF7DAF8EAF0D
:1037E0009FAFA1970E943526A5966CAF7DAF8EAF97
:1037F0009FAFA59720E030E444E153E4C501B40154
:103800000E9435244B015C0123E333E340E253E49F
:10381000A5966CAD7DAD8EAD9FADA5970E9435246C
:103820009B01AC01C501B4010E949A2529E23CE547
:1038300049EA51E40E949A2520E030E048EC51E446
:103840000E949A254B015C01C701B6010E947527B1
:103850006B017C01A1966CAD7DAD8EAD9FADA19746
:103860000E947527A1966CAF7DAF8EAF9FAFA197D9
:1038700020E030E444E153E4C701B6010E9435245E
:103880006B017C0123E333E340E253E4A1966CAD8A
:103890007DAD8EAD9FADA1970E9435249B01AC01FB
:1038A000C701B6010E94992526E636EE46ED52E4A0
:1038B0000E949A258B01A2968FAFA297A7969FAFE1
:1038C000A79726EE3EE245E652E4D3016D917D9145
:1038D0008D919C910E943A26A1966CAF7DAF8EAFE0
:1038E0009FAFA1970E9435269B01AC01C501B40191
:1038F0000E943524F62EE72ED82EC92EA1966CAD47
:103900007DAD8EAD9FADA1970E9475279B01AC0147
:10391000C501B4010E9435249B01D701F6014B2F4C
:103920005A2F6F2F7E2FF30140835183628373835D
:10393000422F532F682F792FD30114964D935D9307
:103940006D937C931797A296FFADA297A796EFADC4
:10395000A797402F512F6F2F7E2FF301408751875C
:10396000628773877F93A2964FADA2974F931F9361
:103970000F939F938F933F932F93CF92DF92EF926A
:10398000FF9287E591E09F938F935F924F92FFCED6
:103990000130110579F520E030E0A901D3016D91E6
:1039A0007D918D919C910E94CF23811109C060E08F
:1039B00086E00E94E40561E085E00E94E40537CDE1
:1039C00061E086E00E94E40560E0F6CF0130110579
:1039D00089F420E030E0A901F301608171818281E6
:1039E00093810E94CF2361E0811160E089E0E5CFFF
:1039F00060E037CE15E175CC3901660C771C660C9A
:103A0000771C23E330E02C0F3D1F620E731E6D3CCC
:103A1000710509F46AC11CF56A3C710509F436C1E7
:103A20008CF4683C710509F4CCC0693C710509F05F
:103A3000AACB89E791E0012B09F42DC185E1682F1C
:103A400070E0A3CB6B3C710509F447C16C3C710578
:103A500009F099CBB801C1010E94551242C1673EDD
:103A6000710509F49AC10CF087C06C3D710509F429
:103A700056C16D3D710509F086CB012BF9F68CE43A
:103A8000E82E86E0F82E10E0812F0E942E0FD7013D
:103A90006D937D938D939D937D011F5F1430A1F7EE
:103AA000A201BE01655B7F4FCE018F5A9F4F0E94DE
:103AB0006A0AB0914C066E96BFAF6E97E0914D06C4
:103AC000A296EFAFA29700914E0610914F06659611
:103AD0006CAD7DAD8EAD9FAD65972F96CCACDDAC5A
:103AE000EEACFFAC2F979B01AC010E9435244B013B
:103AF0005C01A7019601C701B6010E9435249B0114
:103B0000AC01C501B4010E949A250E9483279B0144
:103B1000AC01CB01DA01F30180839183A283B383EB
:103B20006E966FAD6E97A2967FADA297D02EC12EE6
:103B3000CB01A02FB12F84839583A683B783B9814E
:103B4000AA819B818C818D017C01812F902FAF2DCB
:103B5000BE2D80879187A287B387EF92FF920F9344
:103B60001F93CF92DF927F936F935F934F933F9317
:103B70002F932FE831E00EC1603F710509F41DC19C
:103B8000613F710509F429C1683E710509F0FBCA5E
:103B9000012B09F053CF89E00E94BB05019709F47E
:103BA00008C184E190E00E942007893592400CF41E
:103BB00002C181E01F928F93EBE9F1E0FF93EF9355
:103BC00070C0012B09F03ACF80E00E942E0FD30184
:103BD0006D937D938D939C93139781E00E942E0F9C
:103BE000F301648375838683978382E00E942E0F9E
:103BF000D30118966D937D938D939C931B9783E0CF
:103C00000E942E0F9B01AC01CB01DA01F3018487E6
:103C10009587A687B7875F934F933F932F938385AD
:103C20008F9382858F9381858F9380858F938781F2
:103C30008F9386818F9385818F9384818F938381E6
:103C40008F9382818F9381818F9380818F9389E677
:103C500091E09F938F935F924F920E945011B20117
:103C6000CE01855B9F4F0E949210BE01655B7F4F26
:103C7000C1010E942110CE01855B9F4F0E948A10D6
:103C80000FB6F894DEBF0FBECDBFAAC9012B09F055
:103C9000D5CE8FE791E09F938F9384E491E09F933B
:103CA0008F935F924F920E945011B201CE01855BBB
:103CB0009F4F0E949210BE01655B7F4FC1010E9421
:103CC0002110CE01855B9F4F0E948A100F900F90AC
:103CD0000F900F900F900F9083C9B801C1010E94FF
:103CE0005512882309F47CC9AACE63E871E0012B40
:103CF00009F0A4CEC2010E943A2AB201CE01855B2E
:103D00009F4F0E949210BE01655B7F4FC1010E94D0
:103D10002110CE01855B9F4F0E948A1061C9012B43
:103D200009F08CCE630138E0C30ED11C730144E06E
:103D3000E40EF11C0CE416E0B12C8B2D0E942E0F2A
:103D4000D8016D937D938D939D938D01B394B4E0D1
:103D5000BB12F3CFA601B701C3010E946A0AF301A7
:103D600083858F9382858F9381858F9380858F93B1
:103D700087818F9386818F9385818F9384818F93A1
:103D800083818F9382818F9381818F9380818F93A1
:103D900027E531E03F932F93F8CD012B09F04ECE6C
:103DA00086E00E94BB05019709F439CC66E671E014
:103DB000A1CF80E0FFCE82E0FDCE0130110509F0F9
:103DC0003DCED3016D917D918D919C910E94B32642
:103DD000862F0E94BB059F93EECE0130110509F09E
:103DE0002DCED3016D917D918D919C910E94B32632
:103DF000CB010E942007EFCFEF5FE09356051C93A5
:103E0000B2C889E595E00E94E304892B09F452C009
:103E100089E595E00E94C1048C01019691F3C09060
:103E20008006D0908106E0908206F0908306C7015C
:103E3000B6016F5F7F4F8F4F9F4F20918606309165
:103E4000870640918806509189060E9457258090E8
:103E50007C0690907D06A0907E06B0907F06681547
:103E600079058A059B0569F2E0918406F091850643
:103E7000EC0DFD1D0083609180067091810680919C
:103E80008206909183066F5F7F4F8F4F9F4F2091E7
:103E900086063091870640918806509189060E94D7
:103EA00057256093800670938106809382069093D5
:103EB0008306A7CF80E090E0892B09F454C80E94C4
:103EC000EF04882309F44BC80E94000048C8F09012
:103ED000250564E371E085E295E00E94951FFC01F1
:103EE00010E000E0F0C8EF920F931F93CF93DF93A1
:103EF000E80134E047FD34E1042E000C550B57FF78
:103F000003C0519541955109E32E022F242FAE0194
:103F10000E941720CE01DF91CF911F910F91EF905A
:103F20000895662777270C9476214AE856E00E9488
:103F30009A1F0895FA01A191B081009719F4109782
:103F4000E1F0CD01DC01CD010D90002011F4C001A4
:103F500013C0FB012191222319F02015D9F7F3CFCB
:103F6000FB012191201519F41E92119606C02223FF
:103F7000C1F70D900020A1F7D001FA01A193B08301
:103F80000895BB274A3031F4992322F4BDE290957D
:103F900081959F4F0C94FE1FBB272A3051F4992323
:103FA00042F4BDE290958095709561957F4F8F4F5B
:103FB0009F4F0C94DC1FBB27FA01A62F62177105D7
:103FC00081059105330B30FB66F0AA27660F771F3A
:103FD000881F991FAA1FA21710F0A21B63953850C3
:103FE000A9F7A05DAA3308F0A95DA19336F7B11136
:103FF000B1931082CA010C94BF23BB27FB01552744
:10400000AA27880F991FAA1FA41710F0A41B839535
:104010005051B9F7A05DAA3308F0A95DA1930097AC
:1040200079F7B111B1931192CB010C94BF23A9E0A0
:10403000B0E0EDE1F0E20C9426256A01F22EB02EFC
:10404000102FFBE3AF2EA01608F41BE31F5F012F18
:1040500027E0AE014F5F5F4F0E94C622BC018981FD
:10406000982F9970913009F43FC09BE2E1FC04C0A5
:104070009E2D9170E0FC3AC05E2D5071E82FE870E3
:1040800083FF46C084E0911101C083E0EF2DE81B5F
:104090008F1508F0E0E0D6018E2F20E2552351F174
:1040A000992329F0D6019C93C60101966C019601D3
:1040B0002D5F3F4FE2FE24C08EE4D6018C9391E445
:1040C00011969C93119712968C93D9018E2F90E2A2
:1040D00081111BC0E20FF32FF11D10828EEF9FEFB5
:1040E0002996ECE00C9442259DE2C6CF90E2C4CF25
:1040F0002D9381508111FCCFCE0ED11CE0E0D0CFAA
:104100008EE6D6018C9391E6DBCF9D938150E0CF74
:10411000482F447082FF3DC084E0911101C083E0CC
:104120008F1510F4EF2DE81BD6018E2F20E25523BA
:1041300009F1992329F0D6019C93C60101966C01DF
:1041400096012D5F3F4FE2FE1BC089E4D6018C93A0
:104150008EE411968C93119786E412968C93D90174
:104160008E2F90E2882309F4B5CF9D938150FACF2A
:104170002D9381508111FCCFCE0ED11CE0E0D9CF20
:1041800089E6D6018C938EE611968C93119786E67C
:10419000E4CF9B0177FF02C030E020E0A1E0B0E077
:1041A000911102C0B0E0A0E0F9013196AE0FBF1F3F
:1041B0008B2C912CBB2009F461C05401EFEFAE1A97
:1041C000BE0AAA0DBB1DFA161B0619F014F04F2DDE
:1041D0004A1B511188C0E3FC59C07601A42FB0E2FC
:1041E000A1114FC0C40ED11C992309F45BC040E05B
:1041F000D6011196F60190836D01552309F448C04C
:10420000012F060F9A81582F507184FF03C09133FC
:1042100009F4015010160CF047C0093008F008E00E
:10422000EEE2FE2E5B01A01AB10885019194819403
:1042300091082F3F320729F4D601FC92F6013196FE
:104240006F016217730794F1021713077CF5DB0106
:10425000A21BB30BAA24A394B12CAC0EBD1EAA0DB5
:10426000BB1D11968C9121503109D601119628154C
:104270003905F4F0F60180836D01DBCFB12CA12C60
:10428000A0CFF701B1937F01A150AACF9111B0CF78
:10429000D601942F50E302C05D9391509111FCCF51
:1042A000C40ED11C40E0ACCF01E0BACF80E3DBCF3D
:1042B0006217730731F4963388F4953311F455235C
:1042C00069F0F6018083FD01842F90E2811108C01E
:1042D000A40FB11D1C9290E080E002CF81E3F1CFEA
:1042E00091938150F3CF911183CF8ACFB0E0A0E0BA
:1042F000ECE7F1E20C9426255C017B016115710568
:1043000019F0DB018D939C9385010F5F1F4FF50121
:10431000D0818D2F90E00E949E236C01892BB9F5EE
:10432000DD32B9F50F5F1F4FD5011196DC91C1E069
:104330005801F1E0AF1AB10843E050E064EE70E0DC
:10434000C5010E94A723892B69F5680182E0C80E88
:10435000D11C45E050E06FED70E0C6010E94A7233C
:10436000892B21F4680197E0C90ED11CE114F104F6
:1043700019F0D701CD92DC9260E070E080E89FEF09
:10438000C111FFC060E070E080E89FE7FAC058010B
:10439000BBCFDB3229F485010E5F1F4FF501D181C0
:1043A000C0E0C6CF43E050E06CED70E0C5010E9474
:1043B000A723892BE9F0F80110E000E020E030E0CD
:1043C000A9015F01B0ED8B2E8D0E89E08815C8F133
:1043D0009C2E689491F88C2F8870C2FF16C08111B2
:1043E00002C00F5F1F4F3196D501DC91C92DE9CF77
:1043F000E114F10429F00E5F1F4FF70111830083D0
:1044000060E070E080EC9FE7BCC0882311F00150B1
:104410001109A5E0B0E00E9415259B01AC01220F17
:10442000331F441F551F280D311D411D511D2839B3
:1044300099E93907490799E15907A8F2C6609C2E06
:10444000D2CFAEEF8A1206C0C3FD3CC09C2E68944A
:1044500093F8C9CFDF7DD534A9F580818D3239F449
:10446000C061DF011296818162E070E006C0DF0169
:104470008B32C1F3119661E070E080535D01A61AA2
:10448000B70A8A30F8F4E0E8CE16ECE0DE065CF419
:10449000B601660F771F660F771FC60ED71ECC0CAE
:1044A000DD1CC80ED11C5D01FFEFAF1ABF0A8C9155
:1044B00080538A30A8F1C4FF03C0D194C194D108BD
:1044C0000C0D1D1DC1FF09C0E114F10431F081E0A4
:1044D000A81AB108D701AD92BC92CA01B9010E94D5
:1044E000D423C370C33009F490584B015C0120E021
:1044F00030E0A9010E94CF23882309F440C0C3E122
:10450000D1E017FF05C0119501951109CBEFD0E05F
:104510006E01B8E1CB1AD10880E2E82EF12C0FC071
:10452000D501B1CFFE0125913591459154910E19D8
:104530001F09C501B4010E9435244B015C01D5015E
:10454000C4010E151F0574F72497F594E794CC1653
:10455000DD06A9F78A2F880F8B2F881F8F3F49F020
:1045600020E030E0A901C501B4010E94CF238111F0
:1045700006C082E290E090938D0680938C06C50180
:10458000B401CDB7DEB7ECE00C944225283008F03A
:1045900027E03327DA01990F311D87FD91600096DE
:1045A0006105710539F432602E5F3D9330E32A9541
:1045B000E1F708959F3F30F080387105610509F0FB
:1045C0003C5F3C5F3D93913008F08068911DDF9324
:1045D000CF931F930F93FF92EF92192F987F969589
:1045E000E92F96959695E90FFF27EF58FE4F9927EB
:1045F0003327EE24FF24A701E701059008940794D0
:1046000028F4360FE71EF81E491F511D660F771F4D
:10461000881F991F0694A1F70590079428F4E70EC8
:10462000F81E491F561FC11D770F881F991F661F4F
:104630000694A1F70590079428F4F80E491F561F19
:10464000C71FD11D880F991F661F771F0694A1F7FA
:104650000590079420F4490F561FC71FD81F990FC4
:10466000661F771F881F0694A9F78491109517700D
:1046700041F0D695C79557954795F794E7941A95C5
:10468000C1F7E7E1F1E068941590159135916591D6
:10469000959105907FE27395E118F10A430B560B53
:1046A000C90BD009C0F7E10CF11E431F561FC91FEB
:1046B000D01D7EF4703311F48A95E6CFE894015052
:1046C00030F0080F0AF40027021708F4202F239572
:1046D000022F7A3328F079E37D932A95E9F710C009
:1046E0007D932A9589F60694979567953795179542
:1046F0001794E118F10A430B560BC90BD00998F037
:1047000023957E9173957A3308F070E37C932013A0
:10471000B8F77E9170617D9330F0839571E37D935E
:1047200070E32A95E1F71124EF90FF900F911F910C
:10473000CF91DF91992787FD9095089591110C9461
:10474000A224803219F089508550C8F70895FB01E2
:10475000DC014150504088F08D9181341CF08B3544
:104760000CF4805E659161341CF06B350CF4605E76
:10477000861B611171F3990B0895881BFCCFDC0136
:10478000FC01672F71917723E1F7329704C07C9188
:104790006D9370836291AE17BF07C8F308950E94AE
:1047A000112408F481E00895E89409C097FB3EF4D1
:1047B00090958095709561957F4F8F4F9F4F99236E
:1047C000A9F0F92F96E9BB279395F69587957795EC
:1047D0006795B795F111F8CFFAF4BB0F11F460FFAC
:1047E0001BC06F5F7F4F8F4F9F4F16C0882311F004
:1047F00096E911C0772321F09EE8872F762F05C018
:10480000662371F096E8862F70E060E02AF09A95B2
:10481000660F771F881FDAF7880F9695879597F9A7
:104820000895990F0008550FAA0BE0E8FEEF161641
:104830001706E807F907C0F012161306E407F50794
:1048400098F0621B730B840B950B39F40A2661F008
:10485000232B242B252B21F408950A2609F4A140AB
:10486000A6958FEF811D811D08950E9448240C9408
:10487000BC240E94AE2438F00E94B52420F0952379
:1048800011F00C94A5240C94AB2411240C94F02466
:104890000E94CD2470F3959FC1F3950F50E0551FF2
:1048A000629FF001729FBB27F00DB11D639FAA2785
:1048B000F00DB11DAA1F649F6627B00DA11D661FD4
:1048C000829F2227B00DA11D621F739FB00DA11DF5
:1048D000621F839FA00D611D221F749F3327A00DAF
:1048E000611D231F849F600D211D822F762F6A2F4B
:1048F00011249F5750409AF0F1F088234AF0EE0FB0
:10490000FF1FBB1F661F771F881F91505040A9F7DC
:104910009E3F510580F00C94A5240C94F0245F3F39
:10492000E4F3983ED4F3869577956795B795F79518
:10493000E7959F5FC1F7FE2B880F911D9695879590
:1049400097F9089599278827089597F99F6780E830
:1049500070E060E008959FEF80EC089500240A94D1
:104960001616170618060906089500240A9412164A
:104970001306140605060895092E0394000C11F47D
:10498000882352F0BB0F40F4BF2B11F460FF04C02A
:104990006F5F7F4F8F4F9F4F089557FD9058440F83
:1049A000551F59F05F3F71F04795880F97FB991F8E
:1049B00061F09F3F79F0879508951216130614064B
:1049C000551FF2CF4695F1DF08C0161617061806D8
:1049D000991FF1CF86957105610508940895E894B3
:1049E000BB2766277727CB0197F90895052E97FBFC
:1049F0001EF400940E940D2557FD07D00E945725F4
:104A000007FC03D04EF40C940D255095409530953D
:104A100021953F4F4F4F5F4F08959095809570952A
:104A200061957F4F8F4F9F4F08950E947925A59FD5
:104A3000900DB49F900DA49F800D911D1124089599
:104A40002F923F924F925F926F927F928F929F929E
:104A5000AF92BF92CF92DF92EF92FF920F931F938C
:104A6000CF93DF93CDB7DEB7CA1BDB0B0FB6F8943D
:104A7000DEBF0FBECDBF09942A88398848885F847D
:104A80006E847D848C849B84AA84B984C884DF80EE
:104A9000EE80FD800C811B81AA81B981CE0FD11DD2
:104AA0000FB6F894DEBF0FBECDBFED010895A1E2B1
:104AB0001A2EAA1BBB1BFD010DC0AA1FBB1FEE1F98
:104AC000FF1FA217B307E407F50720F0A21BB30BE3
:104AD000E40BF50B661F771F881F991F1A9469F75F
:104AE00060957095809590959B01AC01BD01CF01BB
:104AF0000895A29FB001B39FC001A39F700D811DB7
:104B00001124911DB29F700D811D1124911D0895D6
:104B10009F939F770E94E2260F90002042F49058C6
:104B2000A2EA2AED3FE049E450E40E94B1250C944A
:104B3000BC245058BB27AA270E94B1250C94BC2442
:104B40000E94AE2438F00E94B52420F039F49F3F33
:104B500019F426F40C94AB240EF4E095E7FB0C94C6
:104B6000A524E92F0E94CD2458F3BA1762077307D2
:104B70008407950720F079F4A6F50C94EF240EF441
:104B8000E0950B2EBA2FA02D0B01B90190010C015D
:104B9000CA01A0011124FF27591B99F0593F50F475
:104BA000503E68F11A16F040A22F232F342F4427CD
:104BB000585FF3CF469537952795A795F0405395C5
:104BC000C9F77EF41F16BA0B620B730B840BBAF095
:104BD0009150A1F0FF0FBB1F661F771F881FC2F700
:104BE0000EC0BA0F621F731F841F48F48795779514
:104BF0006795B795F7959E3F08F0B0CF9395880FCE
:104C000008F09927EE0F979587950895DF93DD2794
:104C1000B92FBF7740E85FE31616170648075B0712
:104C200018F4D92F0E946D279F938F937F936F93D2
:104C30000E94C327E8E6F0E00E9402270E94BC24FD
:104C40002F913F914F915F910E944824DD2351F0B5
:104C50009058A2EA2AED3FE049EC5FE3D0785D2767
:104C60000E94B125DF910C94BC240E942B27E39570
:104C70000C9454270E944E260C94BC240E94B52408
:104C800058F00E94AE2440F029F45F3F29F00C94C4
:104C9000A52451110C94F0240C94AB240E94CD2433
:104CA00068F39923B1F3552391F3951B550BBB275B
:104CB000AA2762177307840738F09F5F5F4F220FA0
:104CC000331F441FAA1FA9F335D00E2E3AF0E0E897
:104CD00032D091505040E695001CCAF72BD0FE2FE1
:104CE00029D0660F771F881FBB1F26173707480775
:104CF000AB07B0E809F0BB0B802DBF01FF2793582D
:104D00005F4F3AF09E3F510578F00C94A5240C9427
:104D1000F0245F3FE4F3983ED4F38695779567954A
:104D2000B795F7959F5FC9F7880F911D9695879561
:104D300097F90895E1E0660F771F881FBB1F621780
:104D400073078407BA0720F0621B730B840BBA0B3E
:104D5000EE1F88F7E09508950E94B3266894B1117C
:104D60000C94F02408950E94D52488F09F5798F061
:104D7000B92F9927B751B0F0E1F0660F771F881F60
:104D8000991F1AF0BA95C9F714C0B13091F00E947A
:104D9000EF24B1E008950C94EF24672F782F882733
:104DA000B85F39F0B93FCCF3869577956795B395A1
:104DB000D9F73EF490958095709561957F4F8F4F10
:104DC0009F4F0895DF93CF931F930F938B01EC01B7
:104DD000E5E9F0E00E9402270E94BC249801AE01A0
:104DE0008B01EC0160E070E080E89FE30E94992570
:104DF0000E9483279801AE010F911F91CF91DF91FF
:104E00000C944824DF93CF931F930F93FF92EF925C
:104E1000DF927B018C01689406C0DA2EEF010E94BC
:104E20004824FE01E894A59125913591459155912D
:104E3000A6F3EF010E94B125FE019701A801DA94C3
:104E400069F7DF90EF90FF900F911F91CF91DF9165
:104E500008950C94AB240E94D524D8F3E894E0E0A4
:104E6000BB279F57F0F02AED3FE049EC06C0EE0F5C
:104E7000BB0F661F771F881F28F0B23A62077307BF
:104E8000840728F0B25A620B730B840BE3959A9552
:104E900072F7803830F49A95BB0F661F771F881F12
:104EA000D2F790480C94CE27EF93E0FF07C0A2EA18
:104EB0002AED3FE049EC5FEB0E94B1250E94BC2443
:104EC0000F90039401FC9058EDEBF0E00C94E12777
:104ED0000E94112408F48FEF08959B01AC0160E05B
:104EE00070E080E89FE30C943A269F930E942B2762
:104EF0000F9007FCEE5F0C94542719F416F40C94F1
:104F0000AB240C94CC270E94D524B8F39923C9F381
:104F1000B6F39F57550B87FF0E94DA270024A0E6BF
:104F200040EA900180585695979528F4805C660F6A
:104F3000771F881F20F026173707480730F4621BB9
:104F4000730B840B202931294A2BA69517940794BB
:104F5000202531254A2758F7660F771F881F20F034
:104F600026173707480730F4620B730B840B200DAC
:104F7000311D411DA09581F7B901842F9158880FEB
:104F80009695879508959B01AC010C9435240E9459
:104F90001124880B990B08959F3F31F0915020F414
:104FA000879577956795B795880F911D9695879505
:104FB00097F9089591505040660F771F881FD2F7D8
:104FC00008959F938F937F936F93FF93EF939B012C
:104FD000AC010E943524EF91FF910E9402272F918E
:104FE0003F914F915F910C943524DB018F939F93F8
:104FF0000E941525BF91AF91A29F800D911DA39F87
:10500000900DB29F900D11240895991B79E004C072
:10501000991F961708F0961B881F7A95C9F78095F7
:10502000089597FB072E16F4009407D077FD09D05A
:105030000E94252807FC05D03EF4909581959F4F4E
:105040000895709561957F4F0895AA1BBB1B51E190
:1050500007C0AA1FBB1FA617B70710F0A61BB70BE8
:10506000881F991F5A95A9F780959095BC01CD018D
:105070000895EE0FFF1F0590F491E02D09940F9312
:105080001F93CF93DF938230910510F482E090E07C
:10509000E0919006F091910630E020E0B0E0A0E0D1
:1050A000309799F42115310509F44AC0281B390BB2
:1050B00024303105D8F58A819B816115710589F10C
:1050C000FB0193838283FE0111C0408151810281E3
:1050D000138148175907E0F04817590799F41097BA
:1050E00061F012960C93129713961C933296CF018F
:1050F000DF91CF911F910F91089500939006109327
:105100009106F4CF2115310551F04217530738F0BD
:10511000A901DB019A01BD01DF01F801C1CFEF0157
:10512000F9CF9093910680939006CDCFFE01E20FC8
:10513000F31F819391932250310939832883D7CF6C
:1051400020918E0630918F06232B41F4209102018D
:105150003091030130938F0620938E062091000139
:10516000309101012115310541F42DB73EB7409131
:10517000040150910501241B350BE0918E06F0913E
:105180008F06E217F307A0F42E1B3F0B28173907F1
:1051900078F0AC014E5F5F4F2417350748F04E0F93
:1051A0005F1F50938F0640938E06819391939FCFFC
:1051B000F0E0E0E09CCFCF93DF930097E9F0FC01B3
:1051C000329713821282A0919006B0919106ED0160
:1051D00030E020E01097A1F420813181820F931FED
:1051E00020918E0630918F062817390709F061C08B
:1051F000F0938F06E0938E06DF91CF910895EA0138
:10520000CE17DF07E8F54A815B819E014115510504
:10521000B1F7E901FB83EA8349915991C40FD51F86
:10522000EC17FD0761F4808191810296840F951F30
:10523000E90199838883828193819B838A83F0E04B
:10524000E0E012968D919C9113970097B9F52D91FE
:105250003C911197CD010296820F931F20918E06EB
:1052600030918F062817390739F6309751F510928B
:10527000910610929006B0938F06A0938E06BCCF35
:10528000D383C28340815181840F951FC817D907EA
:1052900061F44E5F5F4F88819981480F591F518398
:1052A00040838A819B81938382832115310509F094
:1052B000B0CFF0939106E09390069ECFFD01DC0104
:1052C000C0CF13821282D7CFB0E0A0E0EAE6F9E2C5
:1052D0000C9422258C01009751F4CB010E943F28A9
:1052E0008C01C801CDB7DEB7E0E10C943E25FC018E
:1052F000E60FF71F9C0122503109E217F30708F46B
:105300009DC0D901CD91DC911197C617D70798F0B0
:10531000C530D10530F3CE0104978617970708F3FF
:10532000C61BD70B2297C193D1936D937C93CF016A
:105330000E94DB28D6CF5B01AC1ABD0A4C018C0E53
:105340009D1EA0919006B0919106512C412CF12CFC
:10535000E12C109731F580918E0690918F0688157B
:10536000990509F05CC04616570608F058C08091B0
:10537000000190910101009741F48DB79EB74091D3
:10538000040150910501841B950BE817F90708F0FB
:1053900055C0F0938F06E0938E06F9017183608308
:1053A000A0CF8D919C91119712966C9012971396A5
:1053B0007C901397A815B90559F56C0142E0C40E0D
:1053C000D11CCA14DB0420F1AC014A195B09DA01D3
:1053D0001296159780F06282738251834083D901BF
:1053E0006D937C93E114F10471F0D7011396FC9353
:1053F000EE93129776CF22968C0F9D1FF901918321
:105400008083F301EFCFF0939106E093900669CF8C
:105410004816590608F42C017D01D3019ACFCB011F
:105420000E943F287C01009749F0AE01B8010E941C
:10543000262AC8010E94DB28870153CF10E000E034
:1054400050CF81E090E0F8940C94412AFB01DC01FC
:1054500002C001900D9241505040D8F70895FB01D1
:10546000DC010D900020E9F7119701900D920020CA
:10547000E1F70895FB01DC0101900D920020E1F7B6
:065480000895F894FFCF2F
:105486000000920680000000B4420000B442000012
:1054960000000000B4420B0D0C0A020001030000DC
:1054A600000025058504B2047205E304C104D50491
:1054B60024004F4B20000D0A004F4B004500322EB2
:1054C600322E330056257300403100422566204CAB
:1054D6002566205225660058256620592566205ADD
:1054E600256600563100563000422566204C25665A
:1054F6002052256620482566004D6574616C003291
:105506002E31005631323334353637383930005380
:10551600256620522566204825660056256400002B
:00000001FF
