:100000000C9432010C945A010C945A010C945A012C
:100010000C945A010C945A010C945A010C945A01F4
:100020000C945A010C945A010C945A010C94EC0A49
:100030000C945A010C945A010C945A010C945A01D4
:100040000C94A20A0C945A010C94700A0C944A0A5B
:100050000C945A010C945A010C945A010C945A01B4
:100060000C945A010C945A01084AD73B3BCE016EBE
:1000700084BCBFFDC12F3D6C74319ABD56833DDAFF
:100080003D00C77F11BED9E4BB4C3E916BAAAABE0E
:10009000000000803F072C7AA5BA6CC590DA3B932C
:1000A00065FC8BBC53F810FD3C5692834DBD879D7B
:1000B0003AB63DCBC9BF5BBE73DA0FC93F05A84C4A
:1000C000CDB2D44EB93836A9020C50B99186880801
:1000D0003CA6AAAA2ABE000000803F004E414E491D
:1000E0004E495459494E46CDCCCC3D0AD7233C17F6
:1000F000B7D13877CC2B329595E6241FB14F0A0043
:100100000020410000C84200401C4620BCBE4CCA32
:100110001B0E5AAEC59D7400407A10F35A00A072AF
:100120004E18090010A5D4E80000E8764817000032
:10013000E40B54020000CA9A3B000000E1F5050000
:100140000080969800000040420F000000A0860149
:10015000000000102700000000E803000000006419
:1001600000000000000A0000000000010000000084
:10017000002C76D888DC674F0823DFC1DFAE59E159
:10018000B1B796E5E3E453C63AE651997696E8E6C8
:10019000C28426EB898C9B62ED407C6FFCEFBC9C9B
:1001A0009F40F2BAA56FA5F490055A2AF75C936BAD
:1001B0006CF9676DC11BFCE0E40D47FEF520E6B568
:1001C00000D0ED902E0300943577050080841E0842
:1001D0000000204E0A000000C80C333333330F9860
:1001E0006E12831141EF8D2114893BE65516CFFE27
:1001F000E6DB18D1844B381BF77C1D901DA4BBE4B3
:1002000024203284725E228100C9F124ECA1E53DF4
:10021000270000000800020100000304070000009E
:10022000000000000000000000250028002B000056
:10023000000000240027002A00040404040404042D
:100240000402020202020203030303030301020485
:100250000810204080010204081020010204081048
:100260002000270C11241FBECFEFD8E0DEBFCDBF8A
:1002700011E0A0E0B1E0ECECF9E302C005900D92D2
:10028000AC35B107D9F722E0ACE5B1E001C01D9271
:10029000AA3EB207E1F711E0C2E3D1E004C0219722
:1002A000FE010E94E11AC133D107C9F70E94B00CC8
:1002B0000C94E41C0C940000CF93DF93CDB7DEB711
:1002C00060970FB6F894DEBF0FBECDBF92EF980FC8
:1002D0008E3008F0892F87708064FE013196BE0150
:1002E0006F5E7F4FAF0180937C0090917A009064A5
:1002F00090937A0090917A0096FDFCCF90917800CF
:1003000020917900322F292F219331936E177F0787
:1003100051F780E090E0E92FF0E09F01280F311DB8
:1003200027303105B4F4EE0FFF1FDA01AE0FBF1F07
:100330002D913C9111973296E40FF51F60817181E8
:100340006217730720F46D937C93318320839F5F42
:10035000E2CF8F5F8830F1F68D819E812F813885C5
:10036000820F931F29853A85820F931F2B853C8529
:10037000820F931F969587959695879560960FB6F1
:10038000F894DEBF0FBECDBFDF91CF910895CF921D
:10039000DF92EF92FF928330A9F58091D30290E033
:1003A0000E945C01B0E0A0E09C01AD012256310941
:1003B00041095109A4EBB0E00E94BD172AE631E0E3
:1003C00040E050E00E949E17CA01B9010E947E16CB
:1003D0006B017C0120E030E0A9010E94771687FDC7
:1003E00021C020E030E044E353E4C701B6010E949D
:1003F000101A1816D4F4C12CD12C84E3E82E83E40F
:10040000F82E13C0E82FF0E0E055FD4F80A190E0FA
:100410000E945C01BC0190E080E00E947E166B01AE
:100420007C01DFCFC12CD12C7601C701B601FF9032
:10043000EF90DF90CF90089590E0FC01E35BFD4FDB
:100440002491875C9D4FFC018491882399F090E072
:10045000880F991FFC01E15DFD4FA591B491FC014E
:10046000EB5DFD4F859194918FB7F894EC91E22B61
:10047000EC938FBF0895AF92BF92CF92DF92EF922D
:10048000FF920F931F93CF93DF936C017B018B013E
:10049000040F151FEB015E01AE18BF08C017D1078E
:1004A00059F06991D601ED91FC910190F081E02D18
:1004B000C6010995892B79F7C501DF91CF911F916D
:1004C0000F91FF90EF90DF90CF90BF90AF90089585
:1004D000FC01538D448D252F30E0842F90E0821B4A
:1004E000930B541710F0CF96089501970895FC01CF
:1004F000918D828D981761F0A28DAE0FBF2FB11D27
:100500005D968C91928D9F5F9F73928F90E008957E
:100510008FEF9FEF0895FC01918D828D981731F038
:10052000828DE80FF11D858D90E008958FEF9FEF8C
:100530000895FC01918D228D892F90E0805C9F4F62
:10054000821B91098F73992708958AEC91E00E948C
:10055000990221E0892B09F420E0822F089580E0A0
:1005600090E0892B29F00E94A50281110C940000D3
:100570000895FC01A48DA80FB92FB11DA35ABF4F38
:100580002C91848D90E001968F739927848FA68992
:10059000B7892C93A089B1898C91837080648C93E6
:1005A000938D848D981306C00288F389E02D808195
:1005B0008F7D80830895EF92FF920F931F93CF93C7
:1005C000DF93EC0181E0888F9B8D8C8D98131AC08E
:1005D000E889F989808185FF15C09FB7F894EE8975
:1005E000FF896083E889F9898081837080648083D2
:1005F0009FBF81E090E0DF91CF911F910F91FF901D
:10060000EF900895F62E0B8D10E00F5F1F4F0F73C4
:100610001127E02E8C8D8E110CC00FB607FCFACF7F
:10062000E889F989808185FFF5CFCE010E94B90262
:10063000F1CFEB8DEC0FFD2FF11DE35AFF4FF08250
:100640009FB7F8940B8FEA89FB8980818062CFCFB6
:10065000CF93DF93EC01888D8823B9F0AA89BB89F9
:10066000E889F9898C9185FD03C0808186FD0DC0E4
:100670000FB607FCF7CF8C9185FFF2CF808185FF05
:10068000EDCFCE010E94B902E9CFDF91CF9108955D
:1006900090E0FC01EF5EFD4F2491FC01E35BFD4F18
:1006A0003491FC01E75CFD4FE491EE23C9F0222375
:1006B00039F0233001F1A8F4213019F1223029F169
:1006C000F0E0EE0FFF1FEB5DFD4FA591B4918FB7EA
:1006D000F894EC91611126C030953E233C938FBF76
:1006E00008952730A9F02830C9F0243049F78091C7
:1006F00080008F7D03C0809180008F778093800081
:10070000DFCF84B58F7784BDDBCF84B58F7DFBCF02
:100710008091B0008F778093B000D2CF8091B000ED
:100720008F7DF9CF3E2BDACF3FB7F89480916201ED
:1007300090916301A0916401B091650126B5A89BD9
:1007400005C02F3F19F00196A11DB11D3FBFBA2F63
:10075000A92F982F8827BC01CD01620F711D811D23
:10076000911D42E0660F771F881F991F4A95D1F7A8
:1007700008954F925F926F927F928F929F92AF9265
:10078000BF92CF92DF92EF92FF921F93CF93DF93AE
:10079000EC014A015B0120E030E04AEF53E4CB0179
:1007A000B4010E94771687FF5CC020E030E0A90109
:1007B000C501B4010E94771687FD96C020E030E0A5
:1007C00044E353E4C501B4010E94101A181634F42E
:1007D000812C912C14E3A12E13E4B12E8981EDE735
:1007E0004E2E512C481A510887FD5394440C551C29
:1007F000440C551C052C000C660877088A81A1E77B
:10080000CA2EA2E0DA2EC81AD10887FDD394CC0CE8
:10081000DD1CCC0CDD1C0D2C000CEE08FF08C418F0
:10082000D508E608F70820E030E040E251E4C501D1
:10083000B4010E94DD160E945419A70196010E947E
:100840009D1A28E037E040E050E00E949E17CA0160
:10085000B901640D751D861D971D0E947E164B0102
:100860005C0118811C3080F5C501B4010E94541947
:10087000AB01E9818DE790E08E1B9109E7FD93952F
:10088000880F991F880F991F481759077CF0EA8134
:1008900081E792E08E1B9109E7FD9395880F991FE0
:1008A000880F991F481759070CF4CA010297880F3F
:1008B000991F2FB7F89436E0139FF0011124E959DE
:1008C000FD4F928381832FBFDF91CF911F91FF90C6
:1008D000EF90DF90CF90BF90AF909F908F907F90E0
:1008E0006F905F904F900895812C912C540176CF9A
:1008F000892B79F41092800082E08093810010921D
:10090000850010928400B19A80916F00826080937C
:100910006F000895FC0101900020E9F73197AF01C5
:10092000481B590BBC018AEC91E00C943B028F925E
:100930009F92AF92BF920F931F93CF93DF93CDB748
:10094000DEB7A1970FB6F894DEBF0FBECDBF19A2D8
:10095000423008F44AE08E010F5D1F4F842E912C27
:10096000B12CA12CA50194010E94FF17E62FB9011B
:10097000CA01EA30F4F4E05DD801EE938D01232B37
:10098000242B252B79F790E080E0109719F0CD010A
:100990000E948A04A1960FB6F894DEBF0FBECDBFA9
:1009A000DF91CF911F910F91BF90AF909F908F904B
:1009B0000895E95CE1CF0C948A04CF92DF92EF9224
:1009C000FF92CF93DF936C01990FEE08FF08F7FEBB
:1009D00019C06DE28AEC91E00E94DB02EC0166270F
:1009E0007727CB016C197D098E099F094AE00E9487
:1009F00097048C0F9D1FDF91CF91FF90EF90DF90B8
:100A0000CF9008954AE0C701B601DF91CF91FF90E2
:100A1000EF90DF90CF900C9497040F931F93CF9398
:100A2000DF938C01EB01181619065CF480E391E06A
:100A30000E94DB04C8010E94DD0484E391E00E946F
:100A4000DB0482E391E00E94DB044C815D816881DC
:100A500079818AEC91E00E943B0286E391E0DF918C
:100A6000CF911F910F910C948A04CF93DF93EC01E7
:100A7000181619065CF480E391E00E94DB04CE01B5
:100A80000E94DD0484E391E00E94DB0489E391E0AD
:100A90000E948A0486E391E0DF91CF910C948A044E
:100AA0000F931F93CF93DF938C01EB011816190658
:100AB0005CF480E391E00E94DB04C8010E94DD0445
:100AC00084E391E00E94DB048CE391E00E94DB046C
:100AD000BE0190E080E04AE00E94970486E391E046
:100AE000DF91CF911F910F910C948A04FC018081BA
:100AF0009181009711F00C94831B0895EF92FF925F
:100B00000F931F93CF93DF93EC017B01198218821F
:100B10001B821A821D821C82FB0101900020E9F7D2
:100B200031978F01061B170BB8016F5F7F4F90E065
:100B300080E00E940C1C0097B9F0998388831B8386
:100B40000A832C813D81232B11F4FC0110821D832B
:100B50000C83B70188819981DF91CF911F910F910B
:100B6000FF90EF900C94DD1C88819981009711F023
:100B70000E94831B198218821D821C821B821A828A
:100B8000DF91CF911F910F91FF90EF9008952F92D9
:100B90003F924F925F926F927F928F929F92AF920D
:100BA000BF92CF92DF92EF92FF920F931F93CF935A
:100BB000DF93CDB7DEB7C057D1090FB6F894DEBFCB
:100BC0000FBECDBFCB57DF4FC880D980C558D040AE
:100BD000C957DF4F68807980C758D040D301F301EF
:100BE00010E000E0819148019FEF891A990A88235B
:100BF00029F0853209F048018401F4CFF601108212
:100C00000115110571F58D91882311F08193FBCFAA
:100C10001082E1E0F0E0EC0FFD1FE00FF11F108209
:100C2000BE016F5F7F4FC6010E94D21CC401C05934
:100C3000DF4F0FB6F894DEBF0FBECDBFDF91CF916F
:100C40001F910F91FF90EF90DF90CF90BF90AF90EA
:100C50009F908F907F906F905F904F903F902F90DC
:100C600008957E01F9E8EF0EF11C10E000E0B12CD0
:100C7000A12C82E3282E312CF301EA0DFB1D80818B
:100C8000882339F2853209F06CC08FEFA81AB80AB0
:100C9000E1E0F0E0EC0FFD1FE00FF11F1082BE015C
:100CA0006F5F7F4FC6010E94D21C1982F301EA0DCB
:100CB000FB1D80818636B9F144F4833609F449C0BE
:100CC000843671F010E000E063C08C36E9F08337C1
:100CD000C9F787010E5F1F4FF701608171810FC057
:100CE00087010E5F1F4F4AE0BE016C5C7F4FF7012A
:100CF000808191810E946912BE016C5C7F4FC601A8
:100D00000E94D21C7801DECF87010C5F1F4FF701D4
:100D100060817181828193812AE0AE014C5C5F4FDA
:100D20000E947412E9CF2701F4E04F0E511CF70125
:100D300060817181828193818E0109591F4F22E068
:100D400044E00E941B12B801C6010E94D21C72012D
:100D5000B9CF87010E5F1F4FF70180818CAB1DAAB1
:100D6000CBCFE1E0F0E0EC0FFD1FE00FF11F80833F
:100D7000C8010196B1010E94B91A8C01892B41F476
:100D80001BAABE016F5F7F4FC6010E94D21C198251
:100D9000FFEFAF1ABF0A70CF4F925F926F927F92B0
:100DA0008F929F92AF92BF92CF92DF92EF92FF927B
:100DB0000F931F93CF93DF93CDB7DEB728970FB66E
:100DC000F894DEBF0FBECDBF4B015C0129013A0193
:100DD0006701780120E030EC4CE455EC0E94771676
:100DE00087FD44C220E030EC4CE455E4C501B40179
:100DF0000E94101A18160CF441C220E030EC4CE4AA
:100E000055ECC301B2010E94771687FD3FC220E076
:100E100030EC4CE455E4C301B2010E94101A1816DC
:100E20000CF43CC220E030EC4CE455ECC701B601B8
:100E30000E94771687FD3AC220E030EC4CE455E47E
:100E4000C701B6010E94101A18160CF437C220E030
:100E500030E040E251E4C701B6010E94DD160E9475
:100E60005419072E000C880B990B0E947E1620E067
:100E700030E040E251E40E94E2186B017C0120E086
:100E800030E042E853E40E94101A18160CF4DFC256
:100E900020E030E040EF52ECC701B6010E94771627
:100EA00087FDD5C220E030E040E251E4C501B40145
:100EB0000E94DD160E945419072E000C880B990B16
:100EC0000E947E1620E030E040E251E40E94E218E9
:100ED0004B015C0120E030E040E251E4C301B2018B
:100EE0000E94DD160E945419072E000C880B990BE6
:100EF0000E947E1620E030E040E251E40E94E218B9
:100F00002B013C0126E636EE46ED52E4C701B60160
:100F10000E94411820E030E444E153E40E94E218CA
:100F200069837A838B839C8320E030E0A901C5012B
:100F3000B4010E947716882309F4C8C120E030E08C
:100F4000A901C501B4010E94101A18160CF081C243
:100F5000A5019401C301B2010E94E2180E94AE18DB
:100F60006B017C0120E030E0A901C501B4010E94C1
:100F7000771687FD7AC226EE3EE245E652E4C701C7
:100F8000B6010E94DD166B017C0120E030E044EBED
:100F900052E40E947716882309F498C126EE3EE2B7
:100FA00045E652E4C701B6010E94E2180E94DD182E
:100FB0009B01AC01C501B4010E94E21829E23CE5A5
:100FC00049EA51E40E94411820E030E048EC51E445
:100FD0000E94411820E030E444E153E40E94E2180A
:100FE0004B015C01A501940169817A818B819C810F
:100FF0000E94E2180E94AE1826EE3EE245E652E458
:101000000E94DD166D837E838F83988729813A81C4
:101010004B815C81CA01B9010E94DD162B013C01A4
:10102000A5019401C501B4010E94DD169B01AC012C
:10103000C301B2010E9442180E942B1A4B015C01AD
:10104000AC019B010E94DD162B013C0123E937E72F
:1010500045E95FE30E94421820E030E040E85FE3AA
:101060000E94411869837A838B839C8325E531E54F
:101070004AE050E4C501B4010E94DD169B01AC01B9
:1010800069817A818B819C810E94E2180E943018CC
:1010900069837A838B839C8320E030E040E85FE3C0
:1010A000C301B2010E94421823E937E745E95FE333
:1010B0000E9441182B013C01A5019401C501B40116
:1010C0000E9442189B01AC01C301B2010E94E218C8
:1010D0000E94301826EE3EE245E652E40E94DD16FC
:1010E0002D813E814F8158850E9442182B013C0181
:1010F00026EE3EE245E652E469817A818B819C814D
:101100000E94DD162D813E814F8158850E94411835
:101110004B015C01A7019601C701B6010E946F1A3D
:101120008111F1C0A3019201C301B2010E946F1AA3
:101130008111E9C0A5019401C501B4010E946F1A93
:101140008111E1C020E030E040EA50E4C301B20187
:101150000E94771687FDD9C020E030E040EF52E4CE
:10116000C301B2010E94101A18160CF4CEC020E080
:1011700030E040EA50E4C501B4010E94771687FDD3
:10118000C4C020E030E040EF52E4C501B4010E9449
:10119000101A18160CF4B9C0A301920160E070E0B7
:1011A00084E393E40E944118A50194010E94411830
:1011B00069837A838B839C8320E030E046E153E4AB
:1011C0000E94101A18160CF4A0C020E030E040EF86
:1011D00051E469817A818B819C810E94771687FD19
:1011E00094C081E0898320E030E0A901C701B60105
:1011F0000E94771687FD8BC020E030E044E353E483
:10120000C701B6010E94101A18160CF484C020E021
:1012100030E0A901C301B2010E94771687FD82C0A8
:1012200020E030E044E353E4C301B2010E94101A0D
:1012300018160CF47BC020E030E0A901C501B40110
:101240000E94771687FD79C020E030E044E353E444
:10125000C501B4010E94101A18160CF071C0812C3F
:10126000912C34E3A32E33E4B32E6AC0812C10EC0E
:10127000912E1CE4A12E15ECB12EBFCD812CB0EC2B
:101280009B2EBCE4AB2EB5E4BB2EB7CD412CA0EC1D
:101290005A2EACE46A2EA5EC7A2EC4CD412CF0EC8B
:1012A0005F2EFCE46F2EF5E47F2EBCCDC12CE0EC6C
:1012B000DE2EECE4EE2EE5ECFE2EC9CDC12C70EC5A
:1012C000D72E7CE4E72E75E4F72EC1CD29E23CE56C
:1012D00049EA51E4C301B2010E94411820E030E024
:1012E00048EC51E40E94411820E030E444E153E42A
:1012F0000E94E2184B015C01C12CD12C64EBE62E5C
:1013000062E4F62E6FCE82E06DCF83E06BCFC12C0E
:10131000D12C76017CCFC12CD12C54E3E52E53E4A3
:10132000F52E75CF412C512C320185CF412C512CFB
:1013300044E3642E43E4742E7ECF812C912C54011F
:101340008981823009F46BC020E030E0A901C70137
:10135000B6010E94771687FD11C020E030E044E31B
:1013600053E4C701B6010E94101A181654F4C12C98
:10137000D12C24E3E22E23E4F22E03C0C12CD12C85
:101380007601B701A60180EB92E00E94B90320E04C
:1013900030E0A901C301B2010E94771687FD11C098
:1013A00020E030E044E353E4C301B2010E94101A8C
:1013B000181654F4412C512C94E3692E93E4792EA1
:1013C00003C0412C512C3201B301A20183EB92E006
:1013D0000E94B90320E030E0A901C501B4010E94D8
:1013E000771687FD11C020E030E044E353E4C501E7
:1013F000B4010E94101A181654F4812C912C84E325
:10140000A82E83E4B82E03C0812C912C5401B50181
:10141000A40186EB92E00E94B90381E0898389816F
:1014200028960FB6F894DEBF0FBECDBFDF91CF91E7
:101430001F910F91FF90EF90DF90CF90BF90AF90F2
:101440009F908F907F906F905F904F90089582E073
:10145000E5CF20E030E0A901C501B4010E94771674
:10146000C12CD12C760187FF99CDA5019401C30130
:10147000B2010E94E2180E94AE1826EE3EE245E656
:1014800052E40E94DD1620E030E044E353E40E9481
:10149000421879CD1F920F920FB60F9211242F93FD
:1014A0003F934F935F936F937F938F939F93AF93EC
:1014B000BF93EF93FF938AEC91E00E94B902FF91F2
:1014C000EF91BF91AF919F918F917F916F915F91BC
:1014D0004F913F912F910F900FBE0F901F90189535
:1014E0001F920F920FB60F9211242F938F939F93F9
:1014F000EF93FF93E091DA01F091DB018081E091BD
:10150000E001F091E10182FD1BC090818091E30137
:101510008F5F8F732091E401821741F0E091E30126
:10152000F0E0E653FE4F958F8093E301FF91EF913A
:101530009F918F912F910F900FBE0F901F90189534
:101540008081F4CF1F920F920FB60F9211242F9328
:101550003F938F939F93AF93BF9380915E01909140
:101560005F01A0916001B091610130915D0123E0C4
:10157000230F2D3758F50196A11DB11D20935D0154
:1015800080935E0190935F01A0936001B09361012D
:101590008091620190916301A0916401B091650115
:1015A0000196A11DB11D8093620190936301A093E8
:1015B0006401B0936501BF91AF919F918F913F916D
:1015C0002F910F900FBE0F901F90189526E8230FB4
:1015D0000296A11DB11DD2CF1F920F920FB60F928E
:1015E00011242F933F934F935F936F937F938F9328
:1015F0009F93AF93BF93CF93DF93EF93FF9380912C
:101600005C01C091AF02D0E087FF24C0109285003A
:101610001092840080915C018F5F80935C018091C7
:101620005C01082E000C990B8C179D0724F4809107
:101630005C018C307CF1809184009091850004964F
:1016400080349C4908F4F9C0809184009091850011
:101650000496F5C080915C01082E000C990B8C1744
:101660009D07C4F630915C0126E03203F00111249D
:10167000E959FD4F808186FFCDCF30915C01320367
:10168000F0011124E959FD4F808160E08F730E94C1
:101690004803C0CF30915C0126E03203F0011124F1
:1016A000E959FD4F8581882309F48AC030915C0196
:1016B00040915C014203F0011124E959FD4F818101
:1016C00092813203F0011124E959FD4F4381548185
:1016D0008417950708F048C040915C0130915C0187
:1016E0003203F0011124E959FD4F618172814203F7
:1016F000D0011124A959BD4F15968C91860F972FB3
:10170000911D9283818330915C0140915C01420381
:10171000F0011124E959FD4F818192813203F001DA
:101720001124E959FD4F438154818417950708F42A
:1017300047C040915C0130915C014203F0011124EB
:10174000E959FD4F838194813203F0011124E95955
:10175000FD4F9283818330915C013203F0011124AB
:10176000E959FD4F15822CC040915C0130915C011C
:101770003203F0011124E959FD4F81819281420326
:10178000D0011124A959BD4F15963C91831B910995
:101790009283818330915C0140915C014203F001AE
:1017A0001124E959FD4F818192813203F001112406
:1017B000E959FD4F438154814817590708F0B9CFC3
:1017C000809184009091850030915C0126E0320385
:1017D000F0011124E959FD4F41815281840F951F79
:1017E000909389008093880030915C013203F0016E
:1017F0001124E959FD4F808186FF0CC030915C01B6
:101800003203F0011124E959FD4F808161E08F73AB
:101810000E944803FF91EF91DF91CF91BF91AF916B
:101820009F918F917F916F915F914F913F912F91F8
:101830000F900FBE0F901F90189580E49CE9909335
:101840008900809388008FEF80935C01E3CF109232
:10185000CD011092CC0188EE93E0A0E0B0E080933F
:10186000CE019093CF01A093D001B093D10182E239
:1018700091E09093CB018093CA0185EC90E0909326
:10188000D7018093D60184EC90E09093D9018093A6
:10189000D80180EC90E09093DB018093DA0181EC39
:1018A00090E09093DD018093DC0182EC90E09093D6
:1018B000DF018093DE0186EC90E09093E10180935C
:1018C000E0011092E3011092E4011092E501109200
:1018D000E601A0EBB2E08FEF96E028EB3BE0E09171
:1018E000AF02EC30D8F541E04E0F4093AF02EC93DD
:1018F0009E9FF0011124E959FD4F328321831396F5
:1019000042E0AC3BB40759F780E1E6E0F1E0ACEB34
:10191000B2E001900D928A95E1F7809116019091C5
:101920001701A0911801B09119018093CC029093F6
:10193000CD02A093CE02B093CF0280911A01909174
:101940001B01A0911C01B0911D018093D0029093C6
:10195000D102A093D202B093D30208958C93CFCF3B
:10196000CF93DF93CDB7DEB7C555D1090FB6F89445
:10197000DEBF0FBECDBF789484B5826084BD84B5D0
:10198000816084BD85B5826085BD85B5816085BD7A
:1019900080916E00816080936E0010928100809132
:1019A00081008260809381008091810081608093BA
:1019B0008100809180008160809380008091B100DF
:1019C00084608093B1008091B00081608093B0000A
:1019D00080917A00846080937A0080917A0082609E
:1019E00080937A0080917A00816080937A00809160
:1019F0007A00806880937A001092C100E091DA0149
:101A0000F091DB0182E08083E091D601F091D70173
:101A10001082E091D801F091D90180E18083109289
:101A2000E201E091DE01F091DF0186E08083E09148
:101A3000DC01F091DD01808180618083E091DC0137
:101A4000F091DD01808188608083E091DC01F0917C
:101A5000DD01808180688083E091DC01F091DD010F
:101A600080818F7D808386E00E941C0289E00E9435
:101A70001C0285E00E941C020E9494034B015C0141
:101A800022E3C22ED12CE12CF12C0E949403681980
:101A900079098A099B09683E734081059105A8F37D
:101AA00021E0C21AD108E108F10838EE830E33E0D4
:101AB000931EA11CB11CC114D104E104F10429F747
:101AC0001092B1021092B2021092B4021092B502BA
:101AD0001092B7021092B80287EE8093BA0289E1A1
:101AE0008093BB0200EB12E0780186E0D82E9CE0E8
:101AF000C92EF80180818C30D0F5D7015C96BC905E
:101B00008B2D0E941C02F8018081D89EF0011124C7
:101B1000E959FD4F2B2D2F739081907C922B908350
:101B20006C2D0E94AD1A8C9DA001112430E020E0A4
:101B3000BA01620F731FD69EF001D79EF00D1124DB
:101B4000E959FD4F908196FD08C02F5F3F4F2C3023
:101B5000310571F790E00E947804D801EC91DE9E87
:101B6000F0011124E959FD4F8081806480830D5F6D
:101B70001F4FBFEFEB1AFB0AE2E00C3B1E0709F018
:101B8000B8CF80E00E94C7016093BC027093BD0291
:101B90008093BE029093BF0281E00E94C7016093D0
:101BA000C0027093C1028093C2029093C30282E08C
:101BB0000E94C7016093C4027093C5028093C6025D
:101BC0009093C70283E00E94C7016093C80270939C
:101BD000C9028093CA029093CB021092D402109251
:101BE000D5021092D6021092D7021092D80210920B
:101BF000D9021092DA021092DB0286E691E090930D
:101C0000DD028093DC0280E390E0A0E0B0E080930E
:101C1000DE029093DF02A093E002B093E102E12C98
:101C2000F12C06E113E4A801970160E070E0CB011C
:101C30000E94CC068EE391E00E948A0486E391E044
:101C40000E948A048091D4029091D502A091D6027C
:101C5000B091D7020091D8021091D9022091DA02F6
:101C60003091DB0280179107A207B30709F471C313
:101C7000E091DC02F091DD02E80FF91F1081BC0158
:101C8000CD016F5F7F4F8F4F9F4F2091DE023091CC
:101C9000DF024091E0025091E1020E94FF17609341
:101CA000D4027093D5028093D6029093D70280918C
:101CB000C8019091C901009739F0019711F1109274
:101CC000C9011092C801BECF133239F0173429F080
:101CD0001D3419F0103509F0B5CF21E030E0309314
:101CE000C9012093C801133249F031E03093C60195
:101CF00081E08093C70110939601A4CF1092C60192
:101D0000F7CFE091C701E033D0F6133231F41092EF
:101D1000C60191E09093C701EECF173421F01D3436
:101D200011F01035A1F48091C601882321F0A1E0C3
:101D3000A093C701E0CFB1E0B093C60181E08E0F60
:101D40008093C701F0E0EA56FE4F10837BCFAE2FA1
:101D5000B0E0AA56BE4F1A3009F0F6C21C92E6E96E
:101D6000F1E001900020E9F7319726E931E02E17E4
:101D70003F0709F4A4CFDF018E918D01082E000CDE
:101D8000990B0E944616892B09F449C3F801108269
:101D9000ECCFB3E2FB1621F0208162962FAF629761
:101DA0000E9439126BAB7CAB8DAB9EAB64E371E0F0
:101DB00090E080E00E943D12FC010F5F1F4F3097C2
:101DC00059F10630110541F1CF01019601151105B8
:101DD00001F30130110591F00E943912F801EE0F64
:101DE000FF1FEE0FFF1F23E330E02C0F3D1FE20F1C
:101DF000F31F6083718382839383D8CF33E2F3121E
:101E000004C0A0816296AFAF62970E9439126FAB97
:101E100078AF89AF9AAFCACF6BA97CA98DA99EA9CB
:101E20000E9454191B0133E2F3123CC06FA978AD34
:101E300089AD9AAD0E94541998012250310902E0EF
:101E400010E062968FAD62978D34A1F1803509F470
:101E500006C1873409F033CF672B09F06CC22430F8
:101E6000310509F0FAC0000F111F000F111FE3E345
:101E7000F0E0EC0FFD1FE00FF11FE084F18402851C
:101E800013852481358146815781608171818281EA
:101E900093810E94CC06823009F4C3C0C1010E9424
:101EA00035050DCF980121503109312C212C01E04D
:101EB00010E0C7CF000F111F000F111FE3E3F0E088
:101EC000EC0FFD1FE00FF11F6A3C710509F46EC0B5
:101ED000673E710509F488C0693C710509F02BC2A1
:101EE0002130310509F0B9C060817181828193810F
:101EF0000E945B19643008F094C0062F10E0F801CE
:101F0000E055FD4FB48C6801CC0CDD1CC601800F80
:101F1000911FDC01A055BD4F7D018C918C3008F0E4
:101F2000BDCF8B2D0E941C02F701808126E0829F8D
:101F3000F0011124E959FD4F3B2D3F73B32E9081E1
:101F4000907CB92AB0822CE0622F0E94AD1AE82F53
:101F5000F0E0829FB001112430E020E046E0F42E52
:101F6000CB01820F931FF89EA001F99E500D112402
:101F700049595D4FDA018C9186FD08C02F5F3F4FB4
:101F80002C30310569F7CF010E9478040C0D1D1D1E
:101F9000F801E055FD4FE081B6E0EB9FF001112420
:101FA000E959FD4F80818064808378CF21303105ED
:101FB00009F053C060817181828193810E945B1915
:101FC000643078F570E0FB01EE0FFF1FE60FF71F9E
:101FD000E055FD4FE08126E0E29FF0011124E95930
:101FE000FD4F80818F7BE0CF21303105B1F520E0BE
:101FF00030E0A90160817181828193810E9477160E
:10200000811109C060E086E00E94480361E085E03C
:102010000E94480343CF61E086E00E94480360E0ED
:10202000F6CF1AE080E391E00E94DB04C1010E9438
:10203000DD0484E391E00E94DB048CE391E00E94E4
:10204000DB04612F70E090E080E04AE00E9497049A
:1020500086E391E00E948A0432CE15E1E3CF6B3C27
:102060007105A9F16C3D710509F443C06A3C710525
:1020700009F061C1232B09F064C181E491E09F93D1
:102080008F93E5E4F1E0FF93EF9381E090E08C0F14
:102090009D1F9F938F930E94C705BE016F5F7F4F67
:1020A000CE01855B9F4F0E947E05BE01655B7F4F21
:1020B000C1010E940D05CE01855B9F4F0E947605F0
:1020C0000F900F900F900F900F900F90F8CD232B43
:1020D00009F037C1A9E4B1E0BF93AF9325E431E043
:1020E0003F932F93A1E0B0E0AC0FBD1FBF93AF9320
:1020F000D2CF232B09F025C19CEBE92E92E0F92EDB
:10210000D12C8D2D0E94C701F701619371938193AA
:1021100091937F01D394F4E0DF12F3CF000F111FEE
:10212000000F111F23E330E02C0F3D1F020F131F80
:1021300026EE3EE245E652E46091C0027091C10293
:102140008091C2029091C3020E94E2186B017C014F
:102150000E94DD184B015C0126EE3EE245E652E4AA
:102160006091C4027091C5028091C6029091C7022D
:102170000E94E2182B013C010E94DD1866966CAFAC
:102180007DAF8EAF9FAF669720E030E444E153E42B
:10219000C501B4010E94DD164B015C0123E333E36A
:1021A00040E253E466966CAD7DAD8EAD9FAD669713
:1021B0000E94DD169B01AC01C501B4010E944218CA
:1021C00029E23CE549EA51E40E94421820E030E06F
:1021D00048EC51E40E9442184B015C01C701B60172
:1021E0000E941D1A6B017C01C301B2010E941D1ADD
:1021F0002B013C0120E030E444E153E4C701B60187
:102200000E94DD166B017C0123E333E340E253E4DB
:10221000C301B2010E94DD169B01AC01C701B601EA
:102220000E94411826E636EE46ED52E40E9442181E
:102230002B01782E692E26EE3EE245E652E46091AF
:10224000BC027091BD028091BE029091BF020E94BB
:10225000E21866966CAF7DAF8EAF9FAF66970E9417
:10226000DD189B01AC01C501B4010E94DD16F62EFC
:10227000E72ED82EC92EA7019601852F942FA32FC4
:10228000B22FF80180839183A283B38366966CADED
:102290007DAD8EAD9FAD66970E941D1A9B01AC016E
:1022A000C501B4010E94DD169B01462F532F682FF4
:1022B000792FD80114964D935D936D937C93179766
:1022C000F301442D552D6F2F7E2FF8014087518744
:1022D000628773876F927F925F924F929F938F93E3
:1022E0003F932F93CF92DF92EF92FF922FE431E052
:1022F0003F932F93A1E0B0E0AC0FBD1FBF93AF930E
:102300000E94C705BE016F5F7F4FCE01855B9F4F67
:102310000E947E05BE01655B7F4FC1010E940D05D5
:10232000CE01855B9F4F0E9476050FB6F894DEBF05
:102330000FBECDBFC4CC64E170E0C1010E94500566
:10234000BECC65E170E0F9CFEF5FE093C7011C936D
:1023500079CC8AEC91E00E949902892B09F452C051
:102360008AEC91E00E9477028C01019691F3C09073
:10237000D802D090D902E090DA02F090DB02C701D7
:10238000B6016F5F7F4F8F4F9F4F2091DE023091DC
:10239000DF024091E0025091E1020E94FF1780901D
:1023A000D4029090D502A090D602B090D7026815C2
:1023B00079058A059B0569F2E091DC02F091DD0266
:1023C000EC0DFD1D00836091D8027091D9028091BF
:1023D000DA029091DB026F5F7F4F8F4F9F4F20910A
:1023E000DE023091DF024091E0025091E1020E9452
:1023F000FF176093D8027093D9028093DA0290930A
:10240000DB02A7CF80E090E0892B09F41BCC0E946F
:10241000A502882309F416CC0E94000013CCF0908A
:10242000960164E371E086E991E00E943D12FC01AF
:1024300010E000E0C4CCEF920F931F93CF93DF9393
:10244000E80134E047FD34E1042E000C550B57FF42
:1024500003C0519541955109E32E022F242FAE015F
:102460000E94BF12CE01DF91CF911F910F91EF908B
:102470000895662777270C941E1442EE52E00E94BE
:1024800042120895FA01A191B081009719F41097B2
:10249000E1F0CD01DC01CD010D90002011F4C0016F
:1024A00013C0FB012191222319F02015D9F7F3CF96
:1024B000FB012191201519F41E92119606C02223CA
:1024C000C1F70D900020A1F7D001FA01A193B083CC
:1024D0000895BB274A3031F4992322F4BDE2909548
:1024E00081959F4F0C94A612BB272A3051F4992353
:1024F00042F4BDE290958095709561957F4F8F4F26
:102500009F4F0C948412BB27FA01A62F6217710506
:1025100081059105330B30FB66F0AA27660F771F04
:10252000881F991FAA1FA21710F0A21B639538508D
:10253000A9F7A05DAA3308F0A95DA19336F7B11100
:10254000B1931082CA010C946716BB27FB01552773
:10255000AA27880F991FAA1FA41710F0A41B839500
:102560005051B9F7A05DAA3308F0A95DA193009777
:1025700079F7B111B1931192CB010C946716A9E0D0
:10258000B0E0E5ECF2E10C94CE176A01F22EB02E29
:10259000102FFBE3AF2EA01608F41BE31F5F012FE3
:1025A00027E0AE014F5F5F4F0E946E15BC0189812D
:1025B000982F9970913009F43FC09BE2E1FC04C070
:1025C0009E2D9170E0FC3AC05E2D5071E82FE870AE
:1025D00083FF46C084E0911101C083E0EF2DE81B2A
:1025E0008F1508F0E0E0D6018E2F20E2552351F13F
:1025F000992329F0D6019C93C60101966C0196019E
:102600002D5F3F4FE2FE24C08EE4D6018C9391E40F
:1026100011969C93119712968C93D9018E2F90E26C
:1026200081111BC0E20FF32FF11D10828EEF9FEF7F
:102630002996ECE00C94EA179DE2C6CF90E2C4CF55
:102640002D9381508111FCCFCE0ED11CE0E0D0CF74
:102650008EE6D6018C9391E6DBCF9D938150E0CF3F
:10266000482F447082FF3DC084E0911101C083E097
:102670008F1510F4EF2DE81BD6018E2F20E2552385
:1026800009F1992329F0D6019C93C60101966C01AA
:1026900096012D5F3F4FE2FE1BC089E4D6018C936B
:1026A0008EE411968C93119786E412968C93D9013F
:1026B0008E2F90E2882309F4B5CF9D938150FACFF5
:1026C0002D9381508111FCCFCE0ED11CE0E0D9CFEB
:1026D00089E6D6018C938EE611968C93119786E647
:1026E000E4CF9B0177FF02C030E020E0A1E0B0E042
:1026F000911102C0B0E0A0E0F9013196AE0FBF1F0A
:102700008B2C912CBB2009F461C05401EFEFAE1A61
:10271000BE0AAA0DBB1DFA161B0619F014F04F2DA8
:102720004A1B511188C0E3FC59C07601A42FB0E2C6
:10273000A1114FC0C40ED11C992309F45BC040E025
:10274000D6011196F60190836D01552309F448C016
:10275000012F060F9A81582F507184FF03C09133C7
:1027600009F4015010160CF047C0093008F008E0D9
:10277000EEE2FE2E5B01A01AB108850191948194CE
:1027800091082F3F320729F4D601FC92F6013196C9
:102790006F016217730794F1021713077CF5DB01D1
:1027A000A21BB30BAA24A394B12CAC0EBD1EAA0D80
:1027B000BB1D11968C9121503109D6011196281517
:1027C0003905F4F0F60180836D01DBCFB12CA12C2B
:1027D000A0CFF701B1937F01A150AACF9111B0CF43
:1027E000D601942F50E302C05D9391509111FCCF1C
:1027F000C40ED11C40E0ACCF01E0BACF80E3DBCF08
:102800006217730731F4963388F4953311F4552326
:1028100069F0F6018083FD01842F90E2811108C0E8
:10282000A40FB11D1C9290E080E002CF81E3F1CFB4
:1028300091938150F3CF911183CF8ACFB0E0A0E084
:10284000E4E2F4E10C94CE175C017B0161157105A3
:1028500019F0DB018D939C9385010F5F1F4FF501EC
:10286000D0818D2F90E00E9446166C01892BB9F51E
:10287000DD32B9F50F5F1F4FD5011196DC91C1E034
:102880005801F1E0AF1AB10843E050E064EE70E0A7
:10289000C5010E944F16892B69F5680182E0C80EB8
:1028A000D11C45E050E06FED70E0C6010E944F166C
:1028B000892B21F4680197E0C90ED11CE114F104C1
:1028C00019F0D701CD92DC9260E070E080E89FEFD4
:1028D000C111FFC060E070E080E89FE7FAC05801D6
:1028E000BBCFDB3229F485010E5F1F4FF501D1818B
:1028F000C0E0C6CF43E050E06CED70E0C5010E943F
:102900004F16892BE9F0F80110E000E020E030E0FC
:10291000A9015F01B0ED8B2E8D0E89E08815C8F1FD
:102920009C2E689491F88C2F8870C2FF16C081117C
:1029300002C00F5F1F4F3196D501DC91C92DE9CF41
:10294000E114F10429F00E5F1F4FF701118300839A
:1029500060E070E080EC9FE7BCC0882311F001507C
:102960001109A5E0B0E00E94BD179B01AC01220F48
:10297000331F441F551F280D311D411D511D28397E
:1029800099E93907490799E15907A8F2C6609C2ED1
:10299000D2CFAEEF8A1206C0C3FD3CC09C2E689415
:1029A00093F8C9CFDF7DD534A9F580818D3239F414
:1029B000C061DF011296818162E070E006C0DF0134
:1029C0008B32C1F3119661E070E080535D01A61A6D
:1029D000B70A8A30F8F4E0E8CE16ECE0DE065CF4E4
:1029E000B601660F771F660F771FC60ED71ECC0C79
:1029F000DD1CC80ED11C5D01FFEFAF1ABF0A8C9120
:102A000080538A30A8F1C4FF03C0D194C194D10887
:102A10000C0D1D1DC1FF09C0E114F10431F081E06E
:102A2000A81AB108D701AD92BC92CA01B9010E949F
:102A30007C16C370C33009F490584B015C0120E050
:102A400030E0A9010E947716882309F440C0C3E151
:102A5000D1E017FF05C0119501951109CBEFD0E02A
:102A60006E01B8E1CB1AD10880E2E82EF12C0FC03C
:102A7000D501B1CFFE0125913591459154910E19A3
:102A80001F09C501B4010E94DD164B015C01D5018F
:102A9000C4010E151F0574F72497F594E794CC161E
:102AA000DD06A9F78A2F880F8B2F881F8F3F49F0EB
:102AB00020E030E0A901C501B4010E947716811120
:102AC00006C082E290E09093E5028093E402C501A3
:102AD000B401CDB7DEB7ECE00C94EA17283008F06B
:102AE00027E03327DA01990F311D87FD91600096A9
:102AF0006105710539F432602E5F3D9330E32A950C
:102B0000E1F708959F3F30F080387105610509F0C5
:102B10003C5F3C5F3D93913008F08068911DDF93EE
:102B2000CF931F930F93FF92EF92192F987F969553
:102B3000E92F96959695E90FFF27EF58FE4F9927B5
:102B40003327EE24FF24A701E7010590089407949A
:102B500028F4360FE71EF81E491F511D660F771F18
:102B6000881F991F0694A1F70590079428F4E70E93
:102B7000F81E491F561FC11D770F881F991F661F1A
:102B80000694A1F70590079428F4F80E491F561FE4
:102B9000C71FD11D880F991F661F771F0694A1F7C5
:102BA0000590079420F4490F561FC71FD81F990F8F
:102BB000661F771F881F0694A9F7849110951770D8
:102BC00041F0D695C79557954795F794E7941A9590
:102BD000C1F7E7E1F1E068941590159135916591A1
:102BE000959105907FE27395E118F10A430B560B1E
:102BF000C90BD009C0F7E10CF11E431F561FC91FB6
:102C0000D01D7EF4703311F48A95E6CFE89401501C
:102C100030F0080F0AF40027021708F4202F23953C
:102C2000022F7A3328F079E37D932A95E9F710C0D3
:102C30007D932A9589F6069497956795379517950C
:102C40001794E118F10A430B560BC90BD00998F001
:102C500023957E9173957A3308F070E37C9320136B
:102C6000B8F77E9170617D9330F0839571E37D9329
:102C700070E32A95E1F71124EF90FF900F911F91D7
:102C8000CF91DF91992787FD9095089591110C942C
:102C90004A17803219F089508550C8F70895FB0112
:102CA000DC014150504088F08D9181341CF08B350F
:102CB0000CF4805E659161341CF06B350CF4605E41
:102CC000861B611171F3990B0895881BFCCFDC0101
:102CD000FC01672F71917723E1F7329704C07C9153
:102CE0006D9370836291AE17BF07C8F308950E9479
:102CF000B91608F481E00895E89409C097FB3EF402
:102D000090958095709561957F4F8F4F9F4F992338
:102D1000A9F0F92F96E9BB279395F69587957795B6
:102D20006795B795F111F8CFFAF4BB0F11F460FF76
:102D30001BC06F5F7F4F8F4F9F4F16C0882311F0CE
:102D400096E911C0772321F09EE8872F762F05C0E2
:102D5000662371F096E8862F70E060E02AF09A957D
:102D6000660F771F881FDAF7880F9695879597F972
:102D70000895990F0008550FAA0BE0E8FEEF16160C
:102D80001706E807F907C0F012161306E407F5075F
:102D900098F0621B730B840B950B39F40A2661F0D3
:102DA000232B242B252B21F408950A2609F4A14076
:102DB000A6958FEF811D811D08950E94F0160C9439
:102DC00064170E94561738F00E945D1720F0952373
:102DD00011F00C944D170C94531711240C94981760
:102DE0000E94751770F3959FC1F3950F50E0551F22
:102DF000629FF001729FBB27F00DB11D639FAA2750
:102E0000F00DB11DAA1F649F6627B00DA11D661F9E
:102E1000829F2227B00DA11D621F739FB00DA11DBF
:102E2000621F839FA00D611D221F749F3327A00D79
:102E3000611D231F849F600D211D822F762F6A2F15
:102E400011249F5750409AF0F1F088234AF0EE0F7A
:102E5000FF1FBB1F661F771F881F91505040A9F7A7
:102E60009E3F510580F00C944D170C9498175F3FCE
:102E7000E4F3983ED4F3869577956795B795F795E3
:102E8000E7959F5FC1F7FE2B880F911D969587955B
:102E900097F9089599278827089597F99F6780E8FB
:102EA00070E060E008959FEF80EC089500240A949C
:102EB0001616170618060906089500240A94121615
:102EC0001306140605060895092E0394000C11F448
:102ED000882352F0BB0F40F4BF2B11F460FF04C0F5
:102EE0006F5F7F4F8F4F9F4F089557FD9058440F4E
:102EF000551F59F05F3F71F04795880F97FB991F59
:102F000061F09F3F79F08795089512161306140615
:102F1000551FF2CF4695F1DF08C0161617061806A2
:102F2000991FF1CF86957105610508940895E8947D
:102F3000BB2766277727CB0197F90895052E97FBC6
:102F40001EF400940E94B51757FD07D00E94FF178A
:102F500007FC03D04EF40C94B5175095409530956E
:102F600021953F4F4F4F5F4F0895909580957095F5
:102F700061957F4F8F4F9F4F08950E942118A59F05
:102F8000900DB49F900DA49F800D911D1124089564
:102F90002F923F924F925F926F927F928F929F9269
:102FA000AF92BF92CF92DF92EF92FF920F931F9357
:102FB000CF93DF93CDB7DEB7CA1BDB0B0FB6F89408
:102FC000DEBF0FBECDBF09942A88398848885F8448
:102FD0006E847D848C849B84AA84B984C884DF80B9
:102FE000EE80FD800C811B81AA81B981CE0FD11D9D
:102FF0000FB6F894DEBF0FBECDBFED010895A1E27C
:103000001A2EAA1BBB1BFD010DC0AA1FBB1FEE1F62
:10301000FF1FA217B307E407F50720F0A21BB30BAD
:10302000E40BF50B661F771F881F991F1A9469F729
:1030300060957095809590959B01AC01BD01CF0185
:103040000895A29FB001B39FC001A39F700D811D81
:103050001124911DB29F700D811D1124911D0895A1
:103060009F939F770E948A190F90002042F49058F6
:10307000A2EA2AED3FE049E450E40E9459180C947A
:1030800064175058BB27AA270E9459180C9464173C
:103090000E94561738F00E945D1720F039F49F3FC8
:1030A00019F426F40C9453170EF4E095E7FB0C94F6
:1030B0004D17E92F0E94751758F3BA176207730767
:1030C0008407950720F079F4A6F50C9497170EF471
:1030D000E0950B2EBA2FA02D0B01B90190010C0128
:1030E000CA01A0011124FF27591B99F0593F50F440
:1030F000503E68F11A16F040A22F232F342F442798
:10310000585FF3CF469537952795A795F04053958F
:10311000C9F77EF41F16BA0B620B730B840BBAF05F
:103120009150A1F0FF0FBB1F661F771F881FC2F7CA
:103130000EC0BA0F621F731F841F48F487957795DE
:103140006795B795F7959E3F08F0B0CF9395880F98
:1031500008F09927EE0F979587950895DF93DD275F
:10316000B92FBF7740E85FE31616170648075B07DD
:1031700018F4D92F0E94151A9F938F937F936F9302
:103180000E946B1AE8E6F0E00E94AA190E946417F8
:103190002F913F914F915F910E94F016DD2351F0E6
:1031A0009058A2EA2AED3FE049EC5FE3D0785D2732
:1031B0000E945918DF910C9464170E94D319E3956B
:1031C0000C94FC190E94F6180C9464170E945D1769
:1031D00058F00E94561740F029F45F3F29F00C94F4
:1031E0004D1751110C9498170C9453170E94751792
:1031F00068F39923B1F3552391F3951B550BBB2726
:10320000AA2762177307840738F09F5F5F4F220F6A
:10321000331F441FAA1FA9F335D00E2E3AF0E0E861
:1032200032D091505040E695001CCAF72BD0FE2FAB
:1032300029D0660F771F881FBB1F2617370748073F
:10324000AB07B0E809F0BB0B802DBF01FF279358F7
:103250005F4F3AF09E3F510578F00C944D170C9457
:1032600098175F3FE4F3983ED4F38695779567957A
:10327000B795F7959F5FC9F7880F911D969587952C
:1032800097F90895E1E0660F771F881FBB1F62174B
:1032900073078407BA0720F0621B730B840BBA0B09
:1032A000EE1F88F7E09508950E945B196894B111AC
:1032B0000C94981708950E947D1788F09F5798F0F6
:1032C000B92F9927B751B0F0E1F0660F771F881F2B
:1032D000991F1AF0BA95C9F714C0B13091F00E9445
:1032E0009717B1E008950C949717672F782F8827C8
:1032F000B85F39F0B93FCCF3869577956795B3956C
:10330000D9F73EF490958095709561957F4F8F4FDA
:103310009F4F0895DF93CF931F930F938B01EC0181
:10332000E5E9F0E00E94AA190E9464179801AE0135
:103330008B01EC0160E070E080E89FE30E9441189F
:103340000E942B1A9801AE010F911F91CF91DF912E
:103350000C94F016DF93CF931F930F93FF92EF928D
:10336000DF927B018C01689406C0DA2EEF010E9487
:10337000F016FE01E894A59125913591459155915E
:10338000A6F3EF010E945918FE019701A801DA94F3
:1033900069F7DF90EF90FF900F911F91CF91DF9130
:1033A00008950C9453170E947D17D8F3E894E0E039
:1033B000BB279F57F0F02AED3FE049EC06C0EE0F27
:1033C000BB0F661F771F881F28F0B23A620773078A
:1033D000840728F0B25A620B730B840BE3959A951D
:1033E00072F7803830F49A95BB0F661F771F881FDD
:1033F000D2F790480C94761AEF93E0FF07C0A2EA48
:103400002AED3FE049EC5FEB0E9459180E946417D7
:103410000F90039401FC9058EDEBF0E00C94891AA6
:103420000E94B91608F48FEF08959B01AC0160E08B
:1034300070E080E89FE30C94E2189F930E94D319F8
:103440000F9007FCEE5F0C94FC1919F416F40C9421
:1034500053170C94741A0E947D17B8F39923C9F37B
:10346000B6F39F57550B87FF0E94821A0024A0E6EF
:1034700040EA900180585695979528F4805C660F35
:10348000771F881F20F026173707480730F4621B84
:10349000730B840B202931294A2BA6951794079486
:1034A000202531254A2758F7660F771F881F20F0FF
:1034B00026173707480730F4620B730B840B200D77
:1034C000311D411DA09581F7B901842F9158880FB6
:1034D0009695879508959B01AC010C94DD160E948A
:1034E000B916880B990B08959F3F31F0915020F445
:1034F000879577956795B795880F911D96958795D0
:1035000097F9089591505040660F771F881FD2F7A2
:1035100008959F938F937F936F93FF93EF939B01F6
:10352000AC010E94DD16EF91FF910E94AA192F9124
:103530003F914F915F910C94DD16DB018F939F9328
:103540000E94BD17BF91AF91A29F800D911DA39FB7
:10355000900DB29F900D11240895991B79E004C03D
:10356000991F961708F0961B881F7A95C9F78095C2
:10357000089597FB072E16F4009407D077FD09D025
:103580000E94CD1A07FC05D03EF4909581959F4F7F
:103590000895709561957F4F0895AA1BBB1B51E15B
:1035A00007C0AA1FBB1FA617B70710F0A61BB70BB3
:1035B000881F991F5A95A9F780959095BC01CD0158
:1035C0000895EE0FFF1F0590F491E02D09940F93DD
:1035D0001F93CF93DF938230910510F482E090E047
:1035E000E091E802F091E90230E020E0B0E0A0E0F4
:1035F000309799F42115310509F44AC0281B390B7D
:1036000024303105D8F58A819B816115710589F1D6
:10361000FB0193838283FE0111C0408151810281AD
:10362000138148175907E0F04817590799F4109784
:1036300061F012960C93129713961C933296CF0159
:10364000DF91CF911F910F9108950093E80210939D
:10365000E902F4CF2115310551F04217530738F034
:10366000A901DB019A01BD01DF01F801C1CFEF0122
:10367000F9CF9093E9028093E802CDCFFE01E20FEB
:10368000F31F819391932250310939832883D7CF37
:103690002091E6023091E702232B41F420910201B0
:1036A000309103013093E7022093E602209100015C
:1036B000309101012115310541F42DB73EB74091FC
:1036C000040150910501241B350BE091E602F091B5
:1036D000E702E217F307A0F42E1B3F0B2817390768
:1036E00078F0AC014E5F5F4F2417350748F04E0F5E
:1036F0005F1F5093E7024093E602819391939FCF1F
:10370000F0E0E0E09CCFCF93DF930097E9F0FC017D
:10371000329713821282A091E802B091E902ED0182
:1037200030E020E01097A1F420813181820F931FB7
:103730002091E6023091E7022817390709F061C0AD
:10374000F093E702E093E602DF91CF910895EA015A
:10375000CE17DF07E8F54A815B819E0141155105CF
:10376000B1F7E901FB83EA8349915991C40FD51F51
:10377000EC17FD0761F4808191810296840F951FFB
:10378000E90199838883828193819B838A83F0E016
:10379000E0E012968D919C9113970097B9F52D91C9
:1037A0003C911197CD010296820F931F2091E60262
:1037B0003091E7022817390739F6309751F5109202
:1037C000E9021092E802B093E702A093E602BCCFB0
:1037D000D383C28340815181840F951FC817D907B5
:1037E00061F44E5F5F4F88819981480F591F518363
:1037F00040838A819B81938382832115310509F05F
:10380000B0CFF093E902E093E8029ECFFD01DC0126
:10381000C0CF13821282D7CFB0E0A0E0E2E1FCE19A
:103820000C94CA178C01009751F4CB010E94E71A3F
:103830008C01C801CDB7DEB7E0E10C94E617FC01BE
:10384000E60FF71F9C0122503109E217F30708F435
:103850009DC0D901CD91DC911197C617D70798F07B
:10386000C530D10530F3CE0104978617970708F3CA
:10387000C61BD70B2297C193D1936D937C93CF0135
:103880000E94831BD6CF5B01AC1ABD0A4C018C0E83
:103890009D1EA091E802B091E902512C412CF12C1F
:1038A000E12C109731F58091E6029091E70288159E
:1038B000990509F05CC04616570608F058C080917B
:1038C000000190910101009741F48DB79EB740919E
:1038D000040150910501841B950BE817F90708F0C6
:1038E00055C0F093E702E093E602F901718360832B
:1038F000A0CF8D919C91119712966C901297139670
:103900007C901397A815B90559F56C0142E0C40ED7
:10391000D11CCA14DB0420F1AC014A195B09DA019D
:103920001296159780F06282738251834083D90189
:103930006D937C93E114F10471F0D7011396FC931D
:10394000EE93129776CF22968C0F9D1FF9019183EB
:103950008083F301EFCFF093E902E093E80269CFAF
:103960004816590608F42C017D01D3019ACFCB01EA
:103970000E94E71A7C01009749F0AE01B8010E944D
:10398000C91CC8010E94831B870153CF10E000E0CF
:1039900050CFFB01DC0102C001900D92415050401C
:1039A000D8F70895FB01DC010D900020E9F711978D
:1039B00001900D920020E1F70895FB01DC010190D8
:0C39C0000D920020E1F70895F894FFCF6D
:1039CC000000EA0280000000B4420000B442000093
:1039DC0000000000B4420B0D0C0A020001030000B1
:1039EC000000DB023B0268022803990277028B027B
:1039FC0024004F4B20000D0A004F4B004500403176
:103A0C0000322E310056257300322E322E330058E0
:0C3A1C00256620592566205A256600000A
:00000001FF
