:100000000C9437010C945F010C945F010C945F0118
:100010000C945F010C945F010C945F010C945F01E0
:100020000C945F010C945F010C945F010C945C0DC7
:100030000C945F010C945F010C945F010C945F01C0
:100040000C94120D0C945F010C94E00C0C94BA0CFF
:100050000C945F010C945F010C945F010C945F01A0
:100060000C945F010C945F01084AD73B3BCE016EB4
:1000700084BCBFFDC12F3D6C74319ABD56833DDAFF
:100080003D00C77F11BED9E4BB4C3E916BAAAABE0E
:10009000000000803F072C7AA5BA6CC590DA3B932C
:1000A00065FC8BBC53F810FD3C5692834DBD879D7B
:1000B0003AB63DCBC9BF5BBE73DA0FC93F05A84C4A
:1000C000CDB2D44EB93836A9020C50B99186880801
:1000D0003CA6AAAA2ABE000000803F004E414E491D
:1000E0004E495459494E46CDCCCC3D0AD7233C17F6
:1000F000B7D13877CC2B329595E6241FB14F0A0043
:100100000020410000C84200401C4620BCBE4CCA32
:100110001B0E5AAEC59D7400407A10F35A00A072AF
:100120004E18090010A5D4E80000E8764817000032
:10013000E40B54020000CA9A3B000000E1F5050000
:100140000080969800000040420F000000A0860149
:10015000000000102700000000E803000000006419
:1001600000000000000A0000000000010000000084
:10017000002C76D888DC674F0823DFC1DFAE59E159
:10018000B1B796E5E3E453C63AE651997696E8E6C8
:10019000C28426EB898C9B62ED407C6FFCEFBC9C9B
:1001A0009F40F2BAA56FA5F490055A2AF75C936BAD
:1001B0006CF9676DC11BFCE0E40D47FEF520E6B568
:1001C00000D0ED902E0300943577050080841E0842
:1001D0000000204E0A000000C80C333333330F9860
:1001E0006E12831141EF8D2114893BE65516CFFE27
:1001F000E6DB18D1844B381BF77C1D901DA4BBE4B3
:1002000024203284725E228100C9F124ECA1E53DF4
:10021000270000000023002600290000000008003D
:1002200002010000030407000000000000000000BD
:10023000000000250028002B0000000000240027FB
:10024000002A00040404040404040402020202025A
:10025000020303030303030102040810204080018A
:10026000020408102001020408102000970E112437
:100270001FBECFEFD8E0DEBFCDBF11E0A0E0B1E000
:10028000E8E0F8E402C005900D92A03BB107D9F771
:1002900026E0A0EBB1E001C01D92A732B207E1F762
:1002A00011E0C7E3D1E004C02197FE010E94FA21CA
:1002B000C633D107C9F70E94400F0C9402240C9456
:1002C0000000CF93DF93CDB7DEB760970FB6F894F9
:1002D000DEBF0FBECDBF92EF980F8E3008F0892F92
:1002E00087708064FE013196BE016F5E7F4FAF0163
:1002F00080937C0090917A00906490937A00909122
:100300007A0096FDFCCF9091780020917900322FF1
:10031000292F219331936E177F0751F780E090E0EA
:10032000E92FF0E09F01280F311D27303105B4F48B
:10033000EE0FFF1FDA01AE0FBF1F2D913C911197F9
:100340003296E40FF51F608171816217730720F404
:100350006D937C93318320839F5FE2CF8F5F8830E2
:10036000F1F68D819E812F813885820F931F29851B
:100370003A85820F931F2B853C85820F931F96959C
:1003800087959695879560960FB6F894DEBF0FBE59
:10039000CDBFDF91CF91089590E0FC01E95AFD4F68
:1003A00024918D5B9D4FFC018491882399F090E00E
:1003B000880F991FFC01E75CFD4FA591B491FC01EA
:1003C000E15DFD4F859194918FB7F894EC91E22B0C
:1003D000EC938FBF0895CF92DF92EF92FF920F932D
:1003E0001F93CF93DF93082F6A017B0120E030E059
:1003F000A901CB01B6010E94981D87FDA4C020E091
:1004000030E044E353E4C701B6010E9439211816D5
:100410000CF49DC010E0F801EE0FFF1FEE0FFF1F60
:10042000EC52FA4FC586D686E786F08A258D368D42
:10043000478D50A1C701B6010E946B1F0E947D200D
:100440009B01E801CC0FDD1F643F41E074070CF015
:100450003EC0FE01E00FF11FEC52FA4F2181ADE7E3
:10046000CA2ED12CC21AD10827FDD394CC0CDD1C86
:10047000CC0CDD1C0D2C000CEE08FF08428121E79E
:1004800032E0241B310947FD3395220F331F220F21
:10049000331F032E000C440B550B2C193D094E093C
:1004A0005F09DB01653B710514F0A4EBB0E0B7FF19
:1004B00002C0B0E0A0E00E94E91E24EB30E040E082
:1004C00050E00E94BF1E2C0D3D1D4E1D5F1DC00F34
:1004D000D11FCC52DA4FE881EC3060F589814DE7CD
:1004E00050E0481B510987FD5395440F551F440F99
:1004F000551F241735077CF08A8141E752E0481BDD
:10050000510987FD5395440F551F440F551F24175C
:1005100035070CF4A90142505109440F551F8FB7FC
:10052000F89496E0E99FF0011124E557FA4F5283C1
:1005300041838FBFDF91CF911F910F91FF90EF907B
:10054000DF90CF900895C12CD12C760163CFC12CC0
:10055000D12C54E3E52E53E4F52E5CCF8F929F927D
:10056000AF92BF92CF92DF92EF92FF920F931F93C1
:1005700049015A016701AB01BC0180E00E94EB0117
:10058000B501A40181E00E94EB01B801A60182E05F
:100590001F910F91FF90EF90DF90CF90BF90AF90A1
:1005A0009F908F900C94EB012F923F924F925F920D
:1005B0006F927F928F929F92AF92BF92CF92DF9273
:1005C000EF92FF921F93CF93DF93CDB7DEB72897BB
:1005D0000FB6F894DEBF0FBECDBF9E838D837887A4
:1005E0006F831A01DC018D909D90AD90BC90A501A8
:1005F0009401C501B4010E949821811188C0AF8186
:10060000B8858D919D910D90BC91A02D89839A8381
:10061000AB83BC839C01AD01CD01B9010E9498213F
:10062000811175C0F101C080D180E280F380A70103
:100630009601C701B6010E949821811168C02091DE
:10064000F5053091F6054091F7055091F80569815F
:100650007A818B819C810E946B1F2B013C0120E0E1
:1006600030E040EA50E40E94981D87FD4EC020E033
:1006700030E040EF52E4C301B2010E943921181664
:100680000CF443C02091F9053091FA054091FB0527
:100690005091FC05C701B6010E946B1F2B013C0164
:1006A00020E030E040EA50E40E94981D87FD2DC014
:1006B00020E030E040EF52E4C301B2010E94392152
:1006C00018161CF129813A814B815C8160E070E051
:1006D00084E393E40E946A1FA70196010E946A1FA7
:1006E0006B017C0120E030E046E153E40E943921B7
:1006F00018165CF020E030E040EF51E4C701B6018D
:100700000E94981D11E087FF03C013E001C012E0B2
:1007100020E030E0A901C501B4010E94981D87FDC9
:1007200051C020E030E044E353E4C501B4010E942D
:10073000392118160CF44AC0AD81BE818D929D926C
:10074000AD92BC921397EF81F88580809180A28052
:10075000B38020E030E0A901C501B4010E94981DDA
:1007600087FD3BC020E030E044E353E4C501B40121
:100770000E9439211816ACF1AF81B8858D929D92F7
:10078000AD92BC921397F10180809180A280B380DA
:1007900020E030E0A901C501B4010E94981D87FD49
:1007A00027C020E030E044E353E4C501B4010E94D7
:1007B0003921181604F5812C912C84E3A82E83E4AA
:1007C000B82E19C0812C912C5401B6CF812C912CBC
:1007D00024E3A22E23E4B22EAFCF812C912C54011E
:1007E000CBCF812C912C94E3A92E93E4B92EC4CFC6
:1007F000812C912C5401D1018D929D92AD92BC928D
:100800001397812F28960FB6F894DEBF0FBECDBF89
:10081000DF91CF911F91FF90EF90DF90CF90BF902D
:10082000AF909F908F907F906F905F904F903F9090
:100830002F900895AF92BF92CF92DF92EF92FF92E6
:100840000F931F93CF93DF936C017B018B01040FF8
:10085000151FEB015E01AE18BF08C017D10759F094
:100860006991D601ED91FC910190F081E02DC601D6
:100870000995892B79F7C501DF91CF911F910F91D0
:10088000FF90EF90DF90CF90BF90AF900895FC0164
:10089000538D448D252F30E0842F90E0821B930BE5
:1008A000541710F0CF96089501970895FC01918D8B
:1008B000828D981761F0A28DAE0FBF2FB11D5D968E
:1008C0008C91928D9F5F9F73928F90E008958FEF30
:1008D0009FEF0895FC01918D828D981731F0828DE4
:1008E000E80FF11D858D90E008958FEF9FEF08953B
:1008F000FC01918D228D892F90E0805C9F4F821B9F
:1009000091098F73992708958EEE94E00E947804E0
:1009100021E0892B09F420E0822F089580E090E007
:10092000892B29F00E94840481110C940000089501
:10093000FC01A48DA80FB92FB11DA35ABF4F2C9154
:10094000848D90E001968F739927848FA689B7894B
:100950002C93A089B1898C91837080648C93938D42
:10096000848D981306C00288F389E02D80818F7DE5
:1009700080830895EF92FF920F931F93CF93DF939D
:10098000EC0181E0888F9B8D8C8D98131AC0E889CB
:10099000F989808185FF15C09FB7F894EE89FF899A
:1009A0006083E889F98980818370806480839FBF38
:1009B00081E090E0DF91CF911F910F91FF90EF9038
:1009C0000895F62E0B8D10E00F5F1F4F0F73112748
:1009D000E02E8C8D8E110CC00FB607FCFACFE88983
:1009E000F989808185FFF5CFCE010E949804F1CF6F
:1009F000EB8DEC0FFD2FF11DE35AFF4FF0829FB7F7
:100A0000F8940B8FEA89FB8980818062CFCFCF93E6
:100A1000DF93EC01888D8823B9F0AA89BB89E88926
:100A2000F9898C9185FD03C0808186FD0DC00FB6CC
:100A300007FCF7CF8C9185FFF2CF808185FFEDCF4A
:100A4000CE010E949804E9CFDF91CF9108958330C1
:100A500081F028F4813099F08230A9F00895873030
:100A6000A9F08830C9F08430B1F4809180008F7D86
:100A700003C0809180008F7780938000089584B5B3
:100A80008F7784BD089584B58F7DFBCF8091B000B2
:100A90008F778093B00008958091B0008F7DF9CF5B
:100AA000CF93DF93282F30E0F901E55EFD4F84916D
:100AB000F901E95AFD4FD491F901ED5BFD4FC49165
:100AC000CC23A1F081110E942705EC2FF0E0EE0F5E
:100AD000FF1FEF5EFD4FA591B491EC91ED2381E0F6
:100AE00090E009F480E0DF91CF91089580E090E0FC
:100AF000FACF1F93CF93DF93282F30E0F901E55E03
:100B0000FD4F8491F901E95AFD4FD491F901ED5B54
:100B1000FD4FC491CC23A9F0162F81110E94270507
:100B2000EC2FF0E0EE0FFF1FE15DFD4FA591B491BA
:100B30008FB7F894EC91111108C0D095DE23DC93A7
:100B40008FBFDF91CF911F910895DE2BF8CF892BB6
:100B500079F41092800082E08093810010928500E9
:100B600010928400B19A80916F00826080936F0030
:100B700008958F929F92AF92BF92CF92DF92EF92A1
:100B8000FF921F93CF93DF93182FC82FD0E08330AD
:100B900009F04EC08091080690E00E946101B0E02B
:100BA000A0E09C01AD012256310941095109A4EB95
:100BB000B0E00E94DE1E2AE631E040E050E00E94F4
:100BC000BF1ECA01B9010E949F1DCC0FDD1FCC0FB3
:100BD000DD1FCC52DA4F2D8D3E8D4F8D58A10E94D6
:100BE0006A1F6B017C0120E030E0A9010E94981D82
:100BF00087FD7EC020E030E044E353E4C701B60146
:100C00000E943921181634F4C12CD12C84E3E82E2B
:100C100083E4F82EC701B601DF91CF911F91FF90B9
:100C2000EF90DF90CF90BF90AF909F908F900895FE
:100C3000FE01EC52FA4F81A990E00E94610111304F
:100C400009F445C0A0F11230A1F077ED872E73EAC8
:100C5000972E70EFA72E7EE3B72EE4E1CE2EEEEABC
:100C6000DE2EEAE2EE2EE2ECFE2E133089F00E9438
:100C7000E223F3E38F2E982CF3EBAF2EFEE3BF2E8F
:100C8000ADECCA2EACECDA2EACEEEA2EA1ECFA2ECC
:100C9000BC01990F880B990B0E949F1DA50194011F
:100CA0000E94FE1DA70196010E946B1F8ECF53E389
:100CB000852E982C53EBA52E5EE3B52E6AE9C62E41
:100CC00069E9D62E63EFE62E61ECF62EE1CF3BE725
:100CD000832E34E1932E3EEAA32E3EE3B32E43EC63
:100CE000C42E45EFD42E42EEE42E41ECF42ED0CFAC
:100CF000C12CD12C76018ECFFC0101900020E9F7A8
:100D00003197AF01481B590BBC018EEE94E00C9457
:100D10001A048F929F92AF92BF920F931F93CF931B
:100D2000DF93CDB7DEB7A1970FB6F894DEBF0FBE45
:100D3000CDBF19A2423008F44AE08E010F5D1F4F6B
:100D4000842E912CB12CA12CA50194010E94281F66
:100D5000E62FB901CA01EA30F4F4E05DD801EE9360
:100D60008D01232B242B252B79F790E080E0109721
:100D700019F0CD010E947C06A1960FB6F894DEBF53
:100D80000FBECDBFDF91CF911F910F91BF90AF905C
:100D90009F908F900895E95CE1CF0C947C062F9290
:100DA0003F924F925F926F927F928F929F92AF92FB
:100DB000BF92CF92DF92EF92FF920F931F93CF9348
:100DC000DF93CDB7DEB72B970FB6F894DEBF0FBE1B
:100DD000CDBF2B013C0129833A834B835C83ED8299
:100DE000FE820F8318878601BA86A986140188A11E
:100DF0008B8720E030EC4CE455ECC3010E94981D39
:100E000087FDBAC120E030EC4CE455E4C301B201E7
:100E10000E94392118160CF4B7C120E030EC4CE4E4
:100E200055EC69817A818B819C810E94981D87FD98
:100E3000B3C120E030EC4CE455E469817A818B81C8
:100E40009C810E94392118160CF4AFC120E030ECCF
:100E50004CE455EC6D817E818F8198850E94981DB0
:100E600087FDA8C120E030EC4CE455E46D817E8123
:100E70008F8198850E94392118160CF4A4C120E0B6
:100E800030E040E251E46D817E818F8198850E943F
:100E9000FE1D0E947D20072E000C880B990B0E94DE
:100EA0009F1D20E030E040E251E40E940B204B0106
:100EB0005C0120E030E042E853E40E94392118163A
:100EC0000CF4CDC120E030E040EF52ECC501B4019C
:100ED0000E94981D87FDC3C120E030E040E251E44C
:100EE00069817A818B819C810E94FE1D0E947D20F8
:100EF000072E000C880B990B0E949F1D20E030E00C
:100F000040E251E40E940B206B017C0126E636EEA4
:100F100046ED52E4C501B4010E946A1F20E030E4AE
:100F200044E153E40E940B204B015C019B8591112D
:100F300009C020E030E0A901C701B6010E94981D58
:100F400087FD8DC120E030E040E251E4C301B201F1
:100F50000E94FE1D0E947D20072E000C880B990B1D
:100F60000E949F1D20E030E040E251E40E940B20EF
:100F70002B013C0120E030E0A9010E94981D811165
:100F800027C180E090E0A4EBB2E4F8018083918374
:100F9000A283B383D8018D919D910D90BC91A02D1A
:100FA00089839A83AB83BC8320E030E044EB52E436
:100FB000BC01CD010E94981D882309F449C126EE89
:100FC0003EE245E652E469817A818B819C810E94F0
:100FD0000B200E9406209B01AC01C301B2010E94BC
:100FE0000B2029E23CE549EA51E40E946A1F20E017
:100FF00030E048EC51E40E946A1F20E030E444E114
:1010000053E40E940B206B017C01AC019B01C501E4
:10101000B4010E940B200E94D71F26EE3EE245E657
:1010200052E40E94FE1D2B013C01A5019401C50163
:10103000B4010E94FE1D4B015C01A7019601C7018E
:10104000B6010E94FE1D9B01AC01C501B4010E94C6
:101050006B1F0E9454216B017C01AC019B010E941B
:10106000FE1D4B015C0123E937E745E95FE30E9480
:101070006B1F20E030E040E85FE30E946A1F698355
:101080007A838B839C8325E531E54AE050E4C701F0
:10109000B6010E94FE1D9B01AC0169817A818B81A2
:1010A0009C810E940B200E94591F26EE3EE245E6DD
:1010B00052E40E94FE1DF101608371838283938359
:1010C00020E030E040E85FE3C501B4010E946B1FFF
:1010D00023E937E745E95FE30E946A1F4B015C01A2
:1010E000A7019601C701B6010E946B1F9B01AC01CD
:1010F000C501B4010E940B200E94591F26EE3EE25A
:1011000045E652E40E94FE1DA30192010E946B1F5E
:10111000A985BA856D937D938D939C931397A301B5
:101120009201F10160817181828193810E946A1F25
:10113000D1016D937D938D939C931397A101698544
:101140007A85C8012B960FB6F894DEBF0FBECDBFCF
:10115000DF91CF911F910F91FF90EF90DF90CF9093
:10116000BF90AF909F908F907F906F905F904F90C7
:101170003F902F900C94D402412C90EC592E9CE47B
:10118000692E95EC792E49CE412C80EC582E8CE4BA
:10119000682E85E4782E41CE80E090ECACE4B5EC8E
:1011A00089839A83AB83BC8351CE80E090ECACE41E
:1011B000B5E4F6CF80E090ECACE4B5EC8D839E8393
:1011C000AF83B8875CCE80E090ECACE4B5E4F6CFBA
:1011D00020E030E0A901C301B2010E9439211816B4
:1011E000A4F4A3019201C701B6010E940B200E9442
:1011F000D71F26EE3EE245E652E40E94FE1DD801CE
:101200006D937D938D939C93139720E030E0A9011B
:10121000C301B2010E94981D87FFBCCEA3019201B9
:10122000C701B6010E940B200E94D71F26EE3EE2A6
:1012300045E652E40E94FE1D20E030E044E353E422
:101240000E946B1FF8016083718382839383A2CE17
:1012500029E23CE549EA51E4C701B601C6CE82E085
:101260002B960FB6F894DEBF0FBECDBFDF91CF91A6
:101270001F910F91FF90EF90DF90CF90BF90AF90B4
:101280009F908F907F906F905F904F903F902F90A6
:1012900008958F929F92AF92BF92CF92DF92EF927A
:1012A000FF920F931F93CF93DF93CDB7DEB72C97A9
:1012B0000FB6F894DEBF0FBECDBF19821A821B8213
:1012C0001C821D821E821F82188619861A861B8622
:1012D0001C86E1E0EF93FE0139964F0134975F01E0
:1012E00034976F010E94CF060F90823079F0E98425
:1012F000FA840B851C852D813E814F81588569813B
:101300007A818B819C810E94AE0281E02C960FB67F
:10131000F894DEBF0FBECDBFDF91CF911F910F912B
:10132000FF90EF90DF90CF90BF90AF909F908F9005
:101330000895CF92DF92EF92FF92CF93DF936C01EB
:10134000990FEE08FF08F7FE19C06DE28EEE94E0EB
:101350000E94BA04EC0166277727CB016C197D093E
:101360008E099F094AE00E9489068C0F9D1FDF911C
:10137000CF91FF90EF90DF90CF9008954AE0C701A2
:10138000B601DF91CF91FF90EF90DF90CF900C945A
:1013900089060F931F93CF93DF938C01EB011816EF
:1013A00019065CF480E491E00E94CD06C8010E9419
:1013B000990984E491E00E94CD0682E491E00E94C4
:1013C000CD064C815D81688179818EEE94E00E942A
:1013D0001A0486E491E0DF91CF911F910F910C9454
:1013E0007C06CF93DF93EC01181619065CF480E4B9
:1013F00091E00E94CD06CE010E94990984E491E01B
:101400000E94CD0689E491E00E947C0686E491E08A
:10141000DF91CF910C947C060F931F93CF93DF93B2
:101420008C01EB01181619065CF480E491E00E942F
:10143000CD06C8010E94990984E491E00E94CD067E
:101440008CE491E00E94CD06BE0190E080E04AE08D
:101450000E94890686E491E0DF91CF911F910F9160
:101460000C947C062F923F924F925F926F927F92E4
:101470008F929F92AF92BF92CF92DF92EF92FF92A4
:101480000F931F93CF93DF9300D000D000D0CDB740
:10149000DEB78C011B015E834D8326EE3EE245E6FE
:1014A00052E46091E5057091E6058091E705909121
:1014B000E8050E940B204B015C010E9406202B01D5
:1014C0003C0126EE3EE245E652E46091E90570916A
:1014D000EA058091EB059091EC050E940B206B01D1
:1014E0007C010E94062069837A838B839C8320E0A1
:1014F00030E444E153E4C301B2010E94FE1D2B011C
:101500003C0123E333E340E253E469817A818B8138
:101510009C810E94FE1D9B01AC01C301B2010E948F
:101520006B1F29E23CE549EA51E40E946B1F20E071
:1015300030E048EC51E40E946B1F2B013C01C501D7
:10154000B4010E9446214B015C01C701B6010E9413
:1015500046216B017C0126EE3EE245E652E46091B5
:10156000E1057091E2058091E3059091E4050E9408
:101570000B200E9406209B01AC01C301B2010E9416
:10158000FE1DF801608371838283938326EE3EE221
:1015900045E652E46091E1057091E2058091E30532
:1015A0009091E4050E940B200E9446219B01AC0112
:1015B000C301B2010E94FE1DF10160837183828329
:1015C000938320E030E444E153E4C501B4010E9478
:1015D000FE1D4B015C0123E333E340E253E4C7010A
:1015E000B6010E94FE1D9B01AC01C501B4010E9421
:1015F0006A1F26E636EE46ED52E40E946B1FED812F
:10160000FE81608371838283938381E026960FB687
:10161000F894DEBF0FBECDBFDF91CF911F910F9128
:10162000FF90EF90DF90CF90BF90AF909F908F9002
:101630007F906F905F904F903F902F900895FC01A6
:1016400080819181009711F00C949C220895EF9273
:10165000FF920F931F93CF93DF93EC017B011982CD
:1016600018821B821A821D821C82FB0101900020BD
:10167000E9F731978F01061B170BB8016F5F7F4F9A
:1016800090E080E00E9425230097B9F09983888339
:101690001B830A832C813D81232B11F4FC011082D2
:1016A0001D830C83B70188819981DF91CF911F91B0
:1016B0000F91FF90EF900C94FB2388819981009704
:1016C00011F00E949C22198218821D821C821B82AA
:1016D0001A82DF91CF911F910F91FF90EF900895A3
:1016E0002F923F924F925F926F927F928F929F9232
:1016F000AF92BF92CF92DF92EF92FF920F931F9320
:10170000CF93DF93CDB7DEB7C057D1090FB6F894AA
:10171000DEBF0FBECDBFCB57DF4FC880D980C558C5
:10172000D040C957DF4F68807980C758D040D30177
:10173000F30110E000E0819148019FEF891A990AB6
:10174000882329F0853209F048018401F4CFF6019D
:1017500010820115110571F58D91882311F0819387
:10176000FBCF1082E1E0F0E0EC0FFD1FE00FF11F76
:101770001082BE016F5F7F4FC6010E94F023C4013B
:10178000C059DF4F0FB6F894DEBF0FBECDBFDF915B
:10179000CF911F910F91FF90EF90DF90CF90BF906E
:1017A000AF909F908F907F906F905F904F903F9001
:1017B0002F9008957E01F9E8EF0EF11C10E000E093
:1017C000B12CA12C82E3282E312CF301EA0DFB1D54
:1017D0008081882339F2853209F06CC08FEFA81A16
:1017E000B80AE1E0F0E0EC0FFD1FE00FF11F1082FE
:1017F000BE016F5F7F4FC6010E94F0231982F30183
:10180000EA0DFB1D80818636B9F144F4833609F474
:1018100049C0843671F010E000E063C08C36E9F016
:101820008337C9F787010E5F1F4FF7016081718110
:101830000FC087010E5F1F4F4AE0BE016C5C7F4FF7
:10184000F701808191810E948A19BE016C5C7F4FF3
:10185000C6010E94F0237801DECF87010C5F1F4F85
:10186000F70160817181828193812AE0AE014C5C35
:101870005F4F0E949519E9CF2701F4E04F0E511CEC
:10188000F70160817181828193818E0109591F4F17
:1018900022E044E00E943C19B801C6010E94F023F6
:1018A0007201B9CF87010E5F1F4FF70180818CABAA
:1018B0001DAACBCFE1E0F0E0EC0FFD1FE00FF11F20
:1018C0008083C8010196B1010E94D2218C01892B2D
:1018D00041F41BAABE016F5F7F4FC6010E94F02337
:1018E0001982FFEFAF1ABF0A70CFEF92FF920F93EA
:1018F0001F93CF93DF93CDB7DEB7E8970FB6F89479
:10190000DEBF0FBECDBF672B99F58C018EE491E051
:101910009F938F9384E591E09F938F93CE010196DF
:101920007C019F938F930E94700BB701CE01C396E9
:101930000E94270BBE016D5C7F4FC8010E94C90940
:10194000CE01C3960E941F0B0F900F900F900F9027
:101950000F900F9080E0E8960FB6F894DEBF0FBEB0
:10196000CDBFDF91CF911F910F91FF90EF90089520
:1019700085E1F1CF1F920F920FB60F9211242F9392
:101980003F934F935F936F937F938F939F93AF9307
:10199000BF93EF93FF938EEE94E00E949804FF9123
:1019A000EF91BF91AF919F918F917F916F915F91D7
:1019B0004F913F912F910F900FBE0F901F90189550
:1019C0001F920F920FB60F9211242F938F939F9314
:1019D000EF93FF93E091FE04F091FF048081E0918A
:1019E0000405F091050582FD1BC0908180910705DB
:1019F0008F5F8F7320910805821741F0E0910705F2
:101A0000F0E0E251FB4F958F80930705FF91EF9136
:101A10009F918F912F910F900FBE0F901F9018954F
:101A20008081F4CF1F920F920FB60F9211242F9343
:101A30003F938F939F93AF93BF938091170690919D
:101A40001806A0911906B0911A063091B50123E04D
:101A5000230F2D3758F50196A11DB11D2093B50117
:101A60008093170690931806A0931906B0931A0650
:101A70008091B1019091B201A091B301B091B401F4
:101A80000196A11DB11D8093B1019093B201A09365
:101A9000B301B093B401BF91AF919F918F913F91EA
:101AA0002F910F900FBE0F901F90189526E8230FCF
:101AB0000296A11DB11DD2CF1F920F920FB60F92A9
:101AC00011242F933F934F935F936F937F938F9343
:101AD0009F93AF93BF93CF93DF93EF93FF93809147
:101AE000B001C091D305D0E087FF24C010928500DB
:101AF000109284008091B0018F5F8093B00180913B
:101B0000B001082E000C990B8C179D0724F48091CE
:101B1000B0018C307CF18091840090918500049616
:101B200080349C4908F4F9C080918400909185002C
:101B30000496F5C08091B001082E000C990B8C170B
:101B40009D07C4F63091B00126E03203F001112464
:101B5000E557FA4F808186FFCDCF3091B001320337
:101B6000F0011124E557FA4F808160E08F730E94E5
:101B70007905C0CF3091B00126E03203F001112485
:101B8000E557FA4F8581882309F48AC03091B00166
:101B90004091B0014203F0011124E557FA4F8181D1
:101BA00092813203F0011124E557FA4F43815481A9
:101BB0008417950708F048C04091B0013091B001FA
:101BC0003203F0011124E557FA4F6181728142031B
:101BD000D0011124A557BA4F15968C91860F972FD7
:101BE000911D928381833091B0014091B0014203F5
:101BF000F0011124E557FA4F818192813203F001FF
:101C00001124E557FA4F438154818417950708F44E
:101C100047C04091B0013091B0014203F00111245E
:101C2000E557FA4F838194813203F0011124E5577F
:101C3000FA4F928381833091B0013203F001112475
:101C4000E557FA4F15822CC04091B0013091B00198
:101C50003203F0011124E557FA4F8181928142034A
:101C6000D0011124A557BA4F15963C91831B9109B9
:101C7000928381833091B0014091B0014203F00121
:101C80001124E557FA4F818192813203F00111242A
:101C9000E557FA4F438154814817590708F0B9CFE7
:101CA00080918400909185003091B00126E032034C
:101CB000F0011124E557FA4F41815281840F951F9D
:101CC00090938900809388003091B0013203F00135
:101CD0001124E557FA4F808186FF0CC03091B00186
:101CE0003203F0011124E557FA4F808161E08F73D0
:101CF0000E947905FF91EF91DF91CF91BF91AF9154
:101D00009F918F917F916F915F914F913F912F9113
:101D10000F900FBE0F901F90189580E49CE9909350
:101D20008900809388008FEF8093B001E3CF1092F9
:101D3000F1041092F00488EE93E0A0E0B0E080930C
:101D4000F2049093F304A093F404B093F50482E3B7
:101D500091E09093EF048093EE0485EC90E09093F3
:101D6000FB048093FA0484EC90E09093FD0480934C
:101D7000FC0480EC90E09093FF048093FE0481ECDF
:101D800090E0909301058093000582EC90E09093A1
:101D900003058093020586EC90E0909305058093FF
:101DA000040510920705109208051092090510927B
:101DB0000A05A4EDB5E08FEF96E028EB3BE0E0915B
:101DC000D305EC3008F05AC041E04E0F4093D305E4
:101DD000EC939E9FF0011124E557FA4F3283218343
:101DE000139645E0A03EB40751F78FEF8093E005CE
:101DF00080E1E6E0F1E0A1EEB5E001900D928A9578
:101E0000E1F780E1E6E1F1E0A1EFB5E001900D92AC
:101E10008A95E1F78091260190912701A0912801F0
:101E2000B09129018093010690930206A0930306C6
:101E3000B093040680912A0190912B01A0912C016E
:101E4000B0912D018093050690930606A093070696
:101E5000B09308062FB7F894809117069091180652
:101E6000A0911906B0911A062FBF80931B0690937C
:101E70001C06A0931D06B0931E0608958C93B0CF48
:101E8000CF93DF93CDB7DEB7CA56D1090FB6F8941A
:101E9000DEBF0FBECDBF789484B5826084BD84B5AB
:101EA000816084BD85B5826085BD85B5816085BD55
:101EB00080916E00816080936E001092810080910D
:101EC0008100826080938100809181008160809395
:101ED0008100809180008160809380008091B100BA
:101EE00084608093B1008091B00081608093B000E5
:101EF00080917A00846080937A0080917A00826079
:101F000080937A0080917A00816080937A0080913A
:101F10007A00806880937A001092C100E091FE04FC
:101F2000F091FF0482E08083E091FA04F091FB04D9
:101F30001082E091FC04F091FD0480E18083109216
:101F40000605E0910205F091030586E08083E091AB
:101F50000005F0910105808180618083E09100059A
:101F6000F0910105808188608083E0910005F09107
:101F70000105808180688083E0910005F091010572
:101F800080818F7D808386E00E94CC0189E00E9461
:101F9000CC0185E00E94CC011092D5051092D605A7
:101FA0001092D8051092D9051092DB051092DC052D
:101FB00087EE8093DE0589E18093DF0504ED15E06F
:101FC000780186E0D82E9CE0C92ED8018C918C3007
:101FD000F0F5F701B5A48B2D0E94CC01D8018C91AE
:101FE000D89EF0011124E557FA4F2B2D2F739081C5
:101FF000907C922B908311961C92119712961C92B2
:102000006C2D0E94C6218C9DA001112430E020E09F
:10201000BA01620F731FD69EF001D79EF00D1124F6
:10202000E557FA4F908196FD08C02F5F3F4F2C3047
:10203000310571F790E00E94A705D801EC91DE9E72
:10204000F0011124E557FA4F8081806480830D5F91
:102050001F4FBFEFEB1AFB0AE5E0003E1E0709F039
:10206000B4CF80E00E94B9056093E1057093E2056A
:102070008093E3059093E40581E00E94B9056093A5
:10208000E5057093E6058093E7059093E80582E007
:102090000E94B9056093E9057093EA058093EB050A
:1020A0009093EC0583E00E94B9056093ED05709371
:1020B000EE058093EF059093F0058FEF9FEF9093DF
:1020C000B9048093B8049093B7048093B604109237
:1020D000090610920A0610920B0610920C06109236
:1020E0000D0610920E0610920F061092100686EB47
:1020F00091E0909312068093110680E390E0A0E0B7
:10210000B0E08093130690931406A0931506B09345
:102110001606E12CF12C06E113E4A801970160E01A
:1021200070E0CB010E94490988E591E00E947C069D
:1021300086E491E00E947C068091090690910A064F
:10214000A0910B06B0910C0600910D0610910E06A1
:1021500020910F063091100680179107A207B30750
:1021600009F4E6C7E0911106F0911206E80FF91F95
:102170001081BC01CD016F5F7F4F8F4F9F4F20912A
:1021800013063091140640911506509116060E94D0
:10219000281F6093090670930A0680930B0690939C
:1021A0000C068091EC049091ED04009739F00197B2
:1021B000F9F01092ED041092EC04BECF133239F016
:1021C000173429F01D3419F0103509F0B5CF21E08E
:1021D00030E03093ED042093EC04133279F081E089
:1021E0008093EA0481E08093EB041093BA04A4CFB7
:1021F000E091EB04E033E8F6133219F41092EA04AC
:10220000F1CF173421F01D3411F0103579F480919D
:10221000EA048111E7CF81E08093EA048E0F809376
:10222000EB04F0E0E654FB4F108386CFAE2FB0E016
:10223000A654BB4F1A3009F076C71C92EAEBF4E0C3
:1022400001900020E9F731978AEB94E08E179F0701
:1022500009F4AFCFDF018E918D01082E000C990B90
:102260000E94671D892B11F40C943019F80110821B
:10227000EBCFB3E2FB1621F02081AA962FAFAA97ED
:102280000E945A196BAB7CAB8DAB9EAB64E471E0E2
:1022900090E080E00E945E19FC010F5F1F4F3097B5
:1022A00059F10630110541F1CF01019601151105D3
:1022B00001F30130110591F00E945A19F801EE0F57
:1022C000FF1FEE0FFF1FA3E3B0E0AC0FBD1FEA0F2F
:1022D000FB1F6083718382839383D8CF33E2F31231
:1022E00004C04081AA964FAFAA970E945A196FABBB
:1022F00078AF89AF9AAFCACF6BA97CA98DA99EA9E7
:102300000E947D201B01B3E2FB122FC06FA978ADA4
:1023100089AD9AAD0E947D200250110922E030E083
:10232000AA96EFADAA97ED3409F4D5C1E03509F4CA
:10233000F3C4E73409F03DCF3901660C771C660C15
:10234000771C23E330E02C0F3D1F620E731E693CA7
:10235000710509F447C184F4672B09F40DC164E1E8
:1023600070E0C1010E940C0A24CF01501109312CE8
:10237000212C21E030E0D4CF6A3C710509F47BC107
:102380006C3C710561F70430110509F0C3C4D30139
:102390001896CD90DD90ED90FC901B9714968D9043
:1023A0009D90AD90BC9017974D905D906D907C90F6
:1023B000AE014B5A5F4FBE01675A7F4FCE01835A21
:1023C0009F4F0E94320AA1962CAD3DAD4EAD5FAD40
:1023D000A197C301B2010E946B1F2B013C01A19682
:1023E0004CAE5DAE6EAE7FAEA1976D962CAD3DADA1
:1023F0004EAD5FAD6D97C501B4010E946B1FA596F0
:102400006CAF7DAF8EAF9FAFA5976D966CAF7DAF74
:102410008EAF9FAF6D9769962CAD3DAD4EAD5FAD64
:102420006997C701B6010E946B1F69966CAF7DAFBB
:102430008EAF9FAF699765961CAE1DAE1EAE1FAEE8
:1024400065972F961CAE1DAE1EAE1FAE2F9719823C
:102450001A821B821C8221E02F93FE0131964F01CC
:102460009E01255B3F4F5901DE01AF5ABF4F6D0101
:102470007B018C01A5962CAD3DAD4EAD5FADA59712
:10248000C301B2010E94CF060F90823009F48EC0C2
:102490008FEF9FEF9093B9048093B804E980FA809E
:1024A0000B811C812F962CAD3DAD4EAD5FAD2F97AE
:1024B00065966CAD7DAD8EAD9FAD65970E94AE0209
:1024C00088248A94982C8091B8049091B90497FD3F
:1024D000FEC02091B6043091B704821793070CF028
:1024E000F6C08FB7F8944091170650911806609186
:1024F000190670911A068FBFC090B804D090B90425
:102500008601000F111F000F111FF801EA53FC4F45
:102510007F0198012A523D4F5901C8018A519E4FAF
:102520003C01AF01B9010E94D402823089F0D70189
:10253000ED90FD900D911C91F5012081318142813A
:102540005381D3016D917D918D919C910E94AE023A
:10255000BFEFCB1ADB0AD092B904C092B8048091C5
:10256000B6049091B704C816D9060CF4ACCF90927B
:10257000B9048092B804A7CF0430110509F0CAC38A
:10258000D3011896ED90FD900D911C911B97149618
:102590002D913D914D915C9117976D917D918D910C
:1025A0009C910E944909823009F091C01AE080E4B0
:1025B00091E00E94CD06C1010E94990984E491E056
:1025C0000E94CD068CE491E00E94CD06612F70E060
:1025D00090E080E04AE00E94890686E491E00E9453
:1025E0007C06E7CD0430110509F094C3F301C080E7
:1025F000D180E280F38026EE3EE245E652E464813B
:102600007581868197810E940B204B015C010E949D
:102610000620A5966CAF7DAF8EAF9FAFA597C50185
:10262000B4010E9446219B01AC01D30118968D9103
:102630009D910D90BC91A02DA9968CAF9DAFAEAF92
:10264000BFAFA997C701B6010E94FE1D2B013C0137
:10265000A5962CAD3DAD4EAD5FADA597C701B601BA
:102660000E94FE1DA996ECACFDAC0EAD1FADA99766
:10267000A301920196CF0230110509F04BC3F3017B
:10268000C480D580E680F7806081718182819381EA
:102690000E948420162F643008F03CC320E030E014
:1026A00044E353E4C701B6010E94392118160CF423
:1026B00031C320E030E0A901C701B6010E94981D96
:1026C00087FD28C3B701A601812F0E94EB01C1013C
:1026D0000E94F1096ECD220F331F220F331FE3E357
:1026E000F0E0EC0FFD1FE20FF31FA396FFAFEEAF7C
:1026F000A3976D3D710509F4D5C10CF076C06A3C15
:10270000710509F42BC16C3D710509F44AC1693C9E
:10271000710509F024CE0130110509F0FBC2A39622
:10272000AEADBFADA3976D917D918D919C910E94AF
:102730008420643008F03ACF062F10E0F801EC5204
:10274000FA4FB5A46801CC0CDD1CC601800F911FA7
:10275000FC01EC52FA4F7F0180818C3008F0B7CF3A
:102760008B2D0E94CC01D7018C91B6E08B9FF0019C
:102770001124E557FA4F2B2D2F739081907C922BCB
:102780009083F701118212822CE0622F0E94C621F1
:10279000482F50E0829FB001112430E020E086E015
:1027A000DB01A20FB31F8A9FF0018B9FF00D112454
:1027B000E557FA4F908196FD08C02F5F3F4F2C30B0
:1027C000310571F7CA010E94A7050C0D1D1DF80106
:1027D000EC52FA4FE08126E0E29FF0011124E55728
:1027E000FA4F80818064808372CF673E710509F45F
:1027F00059C20CF08CC06E3D710509F0B0CD0430AB
:10280000110509F087C2A396EEADFFADA3978480B2
:102810009580A680B780C080D180E280F38020E0E0
:1028200030E040E85FE364857585868597850E9482
:10283000981D811129C026EE3EE245E652E4C5010D
:10284000B4010E940B204B015C010E940620A701ED
:1028500096010E94FE1DA396AEADBFADA3976D93EA
:102860007D938D939C931397C501B4010E944621DB
:10287000A70196010E94FE1DA396EEADFFADA397A2
:102880006483758386839783A396AEADBFADA3970C
:102890001896ED90FD900D911C911B9714962D911B
:1028A0003D914D915C9117976D917D918D919C918A
:1028B0001F92FE0131964F01DE01A55BBF4F5D0106
:1028C000E05BFF4F6F010E94CF060F90823009F44A
:1028D00002C48A3009F4FFC3813029F463E771E050
:1028E000C4010E94FB23BE016F5F7F4FCE01855B59
:1028F0009F4F0E94270BBE01655B7F4FC1010E9465
:10290000C909CE01855B9F4F0E941F0B52CC683EC8
:10291000710509F4E8C1603F710509F020CD02306E
:10292000110509F0F7C1A396AEADBFADA3976D91A8
:102930007D918D919C910E948420162FA396EEADDF
:10294000FFADA39764817581868197810E94842061
:10295000662309F4DDC161E0812FBCC1013011059E
:1029600009F0D8C1A396AEADBFADA3976D917D918F
:102970008D919C910E948420643008F017CE70E005
:10298000FB01EE0FFF1FE60FF71FEC52FA4FE0813D
:10299000B6E0EB9FF0011124E557FA4F80818F7B61
:1029A00022CF0330110509F0B5C1A396EEADFFADFE
:1029B000A397E084F18402851385248135814681C3
:1029C00057816081718182819381E1E0EF93DE0123
:1029D000AF5ABF4F4D01FE01EB5AFF4F5F011896F2
:1029E0006D010E94CF066A963FAD6A976B962FAD38
:1029F0006B976C969FAD6C976D968FAD6D97632FAF
:102A0000722F6C01CB01AD2DBC2DA396EEADFFADA9
:102A1000A39780839183A283B38366963FAD669725
:102A200067962FAD679768969FAD689769968FAD4B
:102A3000699789017C01812F902FAF2DBE2D848352
:102A40009583A683B7836296BFAD62976396AFAD59
:102A5000639764969FAD649765968FAD65972B2FAE
:102A60003A2F492F582FC901DA0180879187A28711
:102A7000B3875F934F933F932F93EF92FF920F9300
:102A80001F93CF92DF927F936F932BE531E03F93BB
:102A90002F9381E090E08C0F9D1F9F938F930E9456
:102AA000700B9CC20330110509F034C126EE3EE2E2
:102AB00045E652E4A396EEADFFADA3976481758120
:102AC000868197810E940B202B013C010E940620E9
:102AD0004B015C0126EE3EE245E652E4A396AEAD24
:102AE000BFADA39718966D917D918D919C911B9789
:102AF0000E940B206B017C010E940620A9966CAFFE
:102B00007DAF8EAF9FAFA99720E030E444E153E45E
:102B1000C501B4010E94FE1D4B015C0123E333E3B8
:102B200040E253E4A9966CAD7DAD8EAD9FADA99703
:102B30000E94FE1D9B01AC01C501B4010E946B1FE8
:102B400029E23CE549EA51E40E946B1F20E030E0B5
:102B500048EC51E40E946B1F4B015C01C301B201C0
:102B60000E9446212B013C01C701B6010E9446216B
:102B70006B017C0120E030E444E153E4C301B20185
:102B80000E94FE1D2B013C0123E333E340E253E4AA
:102B9000C701B6010E94FE1D9B01AC01C301B20139
:102BA0000E946A1F26E636EE46ED52E40E946B1F35
:102BB000A6966FAFA697AB967FAFAB976C0126EE4C
:102BC0003EE245E652E4A396EEADFFADA3976081E9
:102BD0007181828193810E940B202B013C010E9414
:102BE00006209B01AC01C501B4010E94FE1D162FF9
:102BF000072FF82EE92EC301B2010E9446219B0146
:102C0000AC01C501B4010E94FE1D9B01D801F70172
:102C10004B2F5A2F6F2F7E2FA396AEADBFADA3972C
:102C20004D935D936D937C931397422F532F682F91
:102C3000792FA396EEADFFADA397448355836683AA
:102C40007783A696BFADA697AB96AFADAB974B2F4C
:102C50005A2F6C2D7D2DA396AEADBFADA3971896C0
:102C60004D935D936D937C931B97DF92CF92AB96C0
:102C7000BFADAB97BF93A696EFADA697EF939F938B
:102C80008F933F932F93EF92FF920F931F9327E61B
:102C900031E03F932F9381E090E08C0F9D1F9F9335
:102CA0008F93FDCE01301105A9F520E030E0A90198
:102CB000A396AEADBFADA3976D917D918D919C9183
:102CC0000E94981D811109C060E086E00E9479058C
:102CD00061E085E00E947905FACC61E086E00E941F
:102CE000790560E0F6CF01301105A1F420E030E075
:102CF000A901A396EEADFFADA3976081718182819A
:102D000093810E94981D61E0811160E089E0E2CF2B
:102D100060E022CE15E14BCC3901660C771C660CC5
:102D2000771C23E330E02C0F3D1F620E731E6D3CB9
:102D3000710509F485C10CF047C06A3C710509F4BE
:102D400066C1ACF5683C710509F4F6C0693C7105D3
:102D500009F005CB012B09F078C189E891E09F9338
:102D60008F9384E591E09F938F93A1E0B0E0AC0F47
:102D7000BD1FBF93AF930E94700BBE016F5F7F4F6B
:102D8000CE01855B9F4F0E94270BBE01655B7F4F85
:102D9000C1010E94C909CE01855B9F4F0E941F0B94
:102DA0000F900F900F900F900F900F9002CA6B3CF6
:102DB000710509F43DC16C3C710509F0D0CAB80138
:102DC000C1010E94750C38C1673E710509F47AC1D2
:102DD0000CF087C06C3D710509F43BC16D3D710578
:102DE00009F0BDCA012B09F030C181EEE82E85E063
:102DF000F82E10E0812F0E94B905F70161937193BD
:102E0000819391937F011F5F1430A1F7AE014F5F53
:102E10005F4FBE01655B7F4FCE018F5A9F4F0E946F
:102E2000320A4090E1055090E2050091E3051091CF
:102E3000E40565966CAD7DAD8EAD9FAD65972F9623
:102E4000CCACDDACEEACFFAC2F979B01AC010E948B
:102E5000FE1D4B015C01A7019601C701B6010E944E
:102E6000FE1D9B01AC01C501B4010E946B1F0E94B5
:102E700054219B01AC01CB01DA01F30180839183E2
:102E8000A283B383B201D02EC12ECB01A02FB12FCC
:102E900084839583A683B783B981AA819B818C8122
:102EA0008D017C01812F902FAF2DBE2D80879187C2
:102EB000A287B387EF92FF920F931F93CF92DF9277
:102EC0007F936F935F934F933F932F938FE991E09D
:102ED0009F938F9321E030E02C0F3D1F3F932F9362
:102EE000DECD603F710509F4FFC0613F710509F453
:102EF0000BC1683E710509F032CA012B09F0A5C06B
:102F000089E00E945005019709F4EAC084E190E04D
:102F10000E946101893592400CF4E4C081E01F9267
:102F20008F93EBEAF1E0FF93EF9381E090E08C0F59
:102F30009D1F9F938F931FCF012B09F086C080E0C8
:102F40000E94B905D3016D937D938D939C93139744
:102F500081E00E94B905F3016483758386839783BA
:102F600082E00E94B905D30118966D937D938D93ED
:102F70009C931B9783E00E94B9059B01AC01CB0198
:102F8000DA01F30184879587A687B7875F934F930C
:102F90003F932F9383858F9382858F9381858F9322
:102FA00080858F9387818F9386818F9385818F937F
:102FB00084818F9383818F9382818F9381818F937B
:102FC00080818F9389E791E09F938F9321E030E098
:102FD0002C0F3D1F3F932F930E94700BBE016F5F1C
:102FE0007F4FCE01855B9F4F0E94270BBE01655B23
:102FF0007F4FC1010E94C909CE01855B9F4F0E948E
:103000001F0B0FB6F894DEBF0FBECDBFD2C8012B89
:10301000E1F48FE891E09F938F9384E591E09F9393
:103020008F93E1E0F0E0EC0FFD1FFF93EF93A3CE51
:10303000B801C1010E94750C882309F4BAC806C002
:1030400063E971E0012B09F448C085E1682F70E065
:1030500088C9012BD1F76301F8E0CF0ED11C7301B1
:1030600024E0E20EF11C01EE15E0B12C8B2D0E9444
:10307000B905D8016D937D938D939D938D01B39484
:10308000B4E0BB12F3CFA601B701C3010E94320A1C
:10309000F30183858F9382858F9381858F938085BC
:1030A0008F9387818F9386818F9385818F9384817E
:1030B0008F9383818F9382818F9381818F9380817E
:1030C0008F93E5CD012B09F686E00E94500563E75A
:1030D00071E0019711F066E771E0CE01019601CC35
:1030E00080E01DCF82E01BCF0130110509F0ADCF8C
:1030F000D3016D917D918D919C910E948420862FAA
:103100000E9450059F930CCF0130110509F09DCF0F
:10311000D3016D917D918D919C910E948420CB0172
:103120000E946101EFCFEF5FE093EB041C9304C8B2
:103130008EEE94E00E947804892B09F453C08EEE41
:1031400094E00E9456048C010F3F100789F3C09051
:103150000D06D0900E06E0900F06F0901006C70105
:10316000B6016F5F7F4F8F4F9F4F209113063091B5
:10317000140640911506509116060E94281F809053
:10318000090690900A06A0900B06B0900C066815F0
:1031900079058A059B0561F2E0911106F09112060E
:1031A000EC0DFD1D008360910D0670910E0680915F
:1031B0000F06909110066F5F7F4F8F4F9F4F2091AA
:1031C00013063091140640911506509116060E9480
:1031D000281F60930D0670930E0680930F06909340
:1031E0001006A6CF2FB7F894809117069091180675
:1031F000A0911906B0911A062FBF40911B0650915D
:103200001C0660911D0670911E06841B950BA60B73
:10321000B70BC297A105B10598F02FB7F89480912C
:10322000170690911806A0911906B0911A062FBFA3
:1032300080931B0690931C06A0931D06B0931E0658
:1032400080E090E0892B11F40C949C100E9484047F
:10325000882311F40C949C100E9400000C949C1084
:10326000F090BA0464E471E08AEB94E00E945E1985
:10327000FC0110E000E013C8EF920F931F93CF936F
:10328000DF93E80134E047FD34E1042E000C550BD8
:1032900057FF03C0519541955109E32E022F242F6A
:1032A000AE010E94E019CE01DF91CF911F910F91E5
:1032B000EF900895662777270C943F1B4FE156E067
:1032C0000E9463190895FA01A191B081009719F441
:1032D0001097E1F0CD01DC01CD010D90002011F43B
:1032E000C00113C0FB012191222319F02015D9F749
:1032F000F3CFFB012191201519F41E92119606C0FF
:103300002223C1F70D900020A1F7D001FA01A1936B
:10331000B0830895BB274A3031F4992322F4BDE2EB
:10332000909581959F4F0C94C719BB272A3051F473
:10333000992342F4BDE290958095709561957F4FF9
:103340008F4F9F4F0C94A519BB27FA01A62F621728
:10335000710581059105330B30FB66F0AA27660FD6
:10336000771F881F991FAA1FA21710F0A21B639531
:103370003850A9F7A05DAA3308F0A95DA19336F7EC
:10338000B111B1931082CA010C94881DBB27FB01B7
:103390005527AA27880F991FAA1FA41710F0A41B4E
:1033A00083955051B9F7A05DAA3308F0A95DA193A8
:1033B000009779F7B111B1931192CB010C94881D4C
:1033C000A9E0B0E0E6EEF9E10C94F71E6A01F22EF6
:1033D000B02E102FFBE3AF2EA01608F41BE31F5FE7
:1033E000012F27E0AE014F5F5F4F0E948F1CBC0191
:1033F0008981982F9970913009F43FC09BE2E1FCDC
:1034000004C09E2D9170E0FC3AC05E2D5071E82FF3
:10341000E87083FF46C084E0911101C083E0EF2D86
:10342000E81B8F1508F0E0E0D6018E2F20E255232F
:1034300051F1992329F0D6019C93C60101966C01A4
:1034400096012D5F3F4FE2FE24C08EE4D6018C939F
:1034500091E411969C93119712968C93D9018E2F1B
:1034600090E281111BC0E20FF32FF11D10828EEF4D
:103470009FEF2996ECE00C94131F9DE2C6CF90E2DB
:10348000C4CF2D9381508111FCCFCE0ED11CE0E032
:10349000D0CF8EE6D6018C9391E6DBCF9D93815001
:1034A000E0CF482F447082FF3DC084E0911101C0FD
:1034B00083E08F1510F4EF2DE81BD6018E2F20E24C
:1034C000552309F1992329F0D6019C93C601019651
:1034D0006C0196012D5F3F4FE2FE1BC089E4D601CF
:1034E0008C938EE411968C93119786E412968C93AC
:1034F000D9018E2F90E2882309F4B5CF9D93815096
:10350000FACF2D9381508111FCCFCE0ED11CE0E07B
:10351000D9CF89E6D6018C938EE611968C931197BC
:1035200086E6E4CF9B0177FF02C030E020E0A1E017
:10353000B0E0911102C0B0E0A0E0F9013196AE0F09
:10354000BF1F8B2C912CBB2009F461C05401EFEFFD
:10355000AE1ABE0AAA0DBB1DFA161B0619F014F00E
:103560004F2D4A1B511188C0E3FC59C07601A42F8E
:10357000B0E2A1114FC0C40ED11C992309F45BC065
:1035800040E0D6011196F60190836D01552309F4B0
:1035900048C0012F060F9A81582F507184FF03C035
:1035A000913309F4015010160CF047C0093008F0AF
:1035B00008E0EEE2FE2E5B01A01AB10885019194AD
:1035C000819491082F3F320729F4D601FC92F6012D
:1035D00031966F016217730794F1021713077CF598
:1035E000DB01A21BB30BAA24A394B12CAC0EBD1E0D
:1035F000AA0DBB1D11968C9121503109D60111964F
:1036000028153905F4F0F60180836D01DBCFB12C6C
:10361000A12CA0CFF701B1937F01A150AACF9111A6
:10362000B0CFD601942F50E302C05D939150911119
:10363000FCCFC40ED11C40E0ACCF01E0BACF80E398
:10364000DBCF6217730731F4963388F4953311F4A6
:10365000552369F0F6018083FD01842F90E28111EA
:1036600008C0A40FB11D1C9290E080E002CF81E35E
:10367000F1CF91938150F3CF911183CF8ACFB0E0F6
:10368000A0E0E5E4FBE10C94F71E5C017B01611511
:10369000710519F0DB018D939C9385010F5F1F4F1E
:1036A000F501D0818D2F90E00E94671D6C01892B60
:1036B000B9F5DD32B9F50F5F1F4FD5011196DC91D9
:1036C000C1E05801F1E0AF1AB10843E050E064EE08
:1036D00070E0C5010E94701D892B69F5680182E0C8
:1036E000C80ED11C45E050E06FED70E0C6010E94AD
:1036F000701D892B21F4680197E0C90ED11CE114DB
:10370000F10419F0D701CD92DC9260E070E080E81E
:103710009FEFC111FFC060E070E080E89FE7FAC052
:103720005801BBCFDB3229F485010E5F1F4FF50135
:10373000D181C0E0C6CF43E050E06CED70E0C50140
:103740000E94701D892BE9F0F80110E000E020E0F4
:1037500030E0A9015F01B0ED8B2E8D0E89E0881558
:10376000C8F19C2E689491F88C2F8870C2FF16C007
:10377000811102C00F5F1F4F3196D501DC91C92D19
:10378000E9CFE114F10429F00E5F1F4FF701118317
:10379000008360E070E080EC9FE7BCC0882311F0FC
:1037A00001501109A5E0B0E00E94DE1E9B01AC01B2
:1037B000220F331F441F551F280D311D411D511D60
:1037C000283999E93907490799E15907A8F2C660EC
:1037D0009C2ED2CFAEEF8A1206C0C3FD3CC09C2EF9
:1037E000689493F8C9CFDF7DD534A9F580818D32F7
:1037F00039F4C061DF011296818162E070E006C099
:10380000DF018B32C1F3119661E070E080535D01FE
:10381000A61AB70A8A30F8F4E0E8CE16ECE0DE0625
:103820005CF4B601660F771F660F771FC60ED71EB2
:10383000CC0CDD1CC80ED11C5D01FFEFAF1ABF0A16
:103840008C9180538A30A8F1C4FF03C0D194C194F5
:10385000D1080C0D1D1DC1FF09C0E114F10431F0A8
:1038600081E0A81AB108D701AD92BC92CA01B90192
:103870000E949D1DC370C33009F490584B015C0138
:1038800020E030E0A9010E94981D882309F440C07F
:10389000C3E1D1E017FF05C0119501951109CBEFE8
:1038A000D0E06E01B8E1CB1AD10880E2E82EF12C0D
:1038B0000FC0D501B1CFFE012591359145915491AD
:1038C0000E191F09C501B4010E94FE1D4B015C01C8
:1038D000D501C4010E151F0574F72497F594E794DC
:1038E000CC16DD06A9F78A2F880F8B2F881F8F3FF4
:1038F00049F020E030E0A901C501B4010E94981D03
:10390000811106C082E290E0909322068093210606
:10391000C501B401CDB7DEB7ECE00C94131F28301D
:1039200008F027E03327DA01990F311D87FD9160F8
:1039300000966105710539F432602E5F3D9330E3E6
:103940002A95E1F708959F3F30F0803871056105B1
:1039500009F03C5F3C5F3D93913008F08068911D19
:10396000DF93CF931F930F93FF92EF92192F987FBE
:103970009695E92F96959695E90FFF27EF58FE4FFC
:1039800099273327EE24FF24A701E7010590089427
:10399000079428F4360FE71EF81E491F511D660FC5
:1039A000771F881F991F0694A1F70590079428F4A4
:1039B000E70EF81E491F561FC11D770F881F991F5C
:1039C000661F0694A1F70590079428F4F80E491F86
:1039D000561FC71FD11D880F991F661F771F06949A
:1039E000A1F70590079420F4490F561FC71FD81F51
:1039F000990F661F771F881F0694A9F78491109569
:103A0000177041F0D695C79557954795F794E79469
:103A10001A95C1F7E7E1F1E0689415901591359199
:103A20006591959105907FE27395E118F10A430B3A
:103A3000560BC90BD009C0F7E10CF11E431F561FEE
:103A4000C91FD01D7EF4703311F48A95E6CFE89437
:103A5000015030F0080F0AF40027021708F4202F55
:103A60002395022F7A3328F079E37D932A95E9F79D
:103A700010C07D932A9589F606949795679537959A
:103A800017951794E118F10A430B560BC90BD0098F
:103A900098F023957E9173957A3308F070E37C93C8
:103AA0002013B8F77E9170617D9330F0839571E3B8
:103AB0007D9370E32A95E1F71124EF90FF900F9129
:103AC0001F91CF91DF91992787FD909508959111CE
:103AD0000C946B1E803219F089508550C8F70895F8
:103AE000FB01DC014150504088F08D9181341CF085
:103AF0008B350CF4805E659161341CF06B350CF4F1
:103B0000605E861B611171F3990B0895881BFCCFD1
:103B1000DC01FC01672F71917723E1F7329704C034
:103B20007C916D9370836291AE17BF07C8F30895BF
:103B30000E94DA1D08F481E00895E89409C097FB1B
:103B40003EF490958095709561957F4F8F4F9F4F74
:103B50009923A9F0F92F96E9BB279395F6958795B8
:103B600077956795B795F111F8CFFAF4BB0F11F47B
:103B700060FF1BC06F5F7F4F8F4F9F4F16C0882322
:103B800011F096E911C0772321F09EE8872F762F58
:103B900005C0662371F096E8862F70E060E02AF099
:103BA0009A95660F771F881FDAF7880F9695879585
:103BB00097F90895990F0008550FAA0BE0E8FEEF5A
:103BC00016161706E807F907C0F012161306E407E1
:103BD000F50798F0621B730B840B950B39F40A26DA
:103BE00061F0232B242B252B21F408950A2609F4B8
:103BF000A140A6958FEF811D811D08950E94111E81
:103C00000C94851E0E94771E38F00E947E1E20F0C4
:103C1000952311F00C946E1E0C94741E11240C94B8
:103C2000B91E0E94961E70F3959FC1F3950F50E048
:103C3000551F629FF001729FBB27F00DB11D639F5E
:103C4000AA27F00DB11DAA1F649F6627B00DA11D04
:103C5000661F829F2227B00DA11D621F739FB00DAA
:103C6000A11D621F839FA00D611D221F749F33271A
:103C7000A00D611D231F849F600D211D822F762FB3
:103C80006A2F11249F5750409AF0F1F088234AF090
:103C9000EE0FFF1FBB1F661F771F881F91505040FC
:103CA000A9F79E3F510580F00C946E1E0C94B91E2E
:103CB0005F3FE4F3983ED4F3869577956795B79583
:103CC000F795E7959F5FC1F7FE2B880F911D96959D
:103CD000879597F9089599278827089597F99F67F9
:103CE00080E870E060E008959FEF80EC0895002484
:103CF0000A941616170618060906089500240A9451
:103D000012161306140605060895092E0394000CD6
:103D100011F4882352F0BB0F40F4BF2B11F460FF65
:103D200004C06F5F7F4F8F4F9F4F089557FD90588E
:103D3000440F551F59F05F3F71F04795880F97FB6F
:103D4000991F61F09F3F79F0879508951216130629
:103D50001406551FF2CF4695F1DF08C01616170658
:103D60001806991FF1CF869571056105089408958D
:103D7000E894BB2766277727CB0197F90895052E8E
:103D800097FB1EF400940E94D61E57FD07D00E9498
:103D9000281F07FC03D04EF40C94D61E5095409576
:103DA000309521953F4F4F4F5F4F089590958095E7
:103DB000709561957F4F8F4F9F4F08950E944A1FC6
:103DC000A59F900DB49F900DA49F800D911D11246F
:103DD0000895B7FF0C94DE1E0E94DE1E821B930B1B
:103DE00008952F923F924F925F926F927F928F929F
:103DF0009F92AF92BF92CF92DF92EF92FF920F937A
:103E00001F93CF93DF93CDB7DEB7CA1BDB0B0FB683
:103E1000F894DEBF0FBECDBF09942A883988488840
:103E20005F846E847D848C849B84AA84B984C884D6
:103E3000DF80EE80FD800C811B81AA81B981CE0FCD
:103E4000D11D0FB6F894DEBF0FBECDBFED010895B2
:103E5000A1E21A2EAA1BBB1BFD010DC0AA1FBB1F8E
:103E6000EE1FFF1FA217B307E407F50720F0A21B00
:103E7000B30BE40BF50B661F771F881F991F1A946D
:103E800069F760957095809590959B01AC01BD0197
:103E9000CF010895A29FB001B39FC001A39F700DF1
:103EA000811D1124911DB29F700D811D1124911D42
:103EB00008959F939F770E94B3200F90002042F4B3
:103EC0009058A2EA2AED3FE049E450E40E94821FA4
:103ED0000C94851E5058BB27AA270E94821F0C9461
:103EE000851E0E94771E38F00E947E1E20F039F455
:103EF0009F3F19F426F40C94741E0EF4E095E7FB32
:103F00000C946E1EE92F0E94961E58F3BA17620792
:103F100073078407950720F079F4A6F50C94B81E72
:103F20000EF4E0950B2EBA2FA02D0B01B9019001D4
:103F30000C01CA01A0011124FF27591B99F0593F18
:103F400050F4503E68F11A16F040A22F232F342F60
:103F50004427585FF3CF469537952795A795F040AE
:103F60005395C9F77EF41F16BA0B620B730B840BC3
:103F7000BAF09150A1F0FF0FBB1F661F771F881F7B
:103F8000C2F70EC0BA0F621F731F841F48F48795D3
:103F900077956795B795F7959E3F08F0B0CF9395C5
:103FA000880F08F09927EE0F979587950895DF936E
:103FB000DD27B92FBF7740E85FE3161617064807DD
:103FC0005B0718F4D92F0E943E219F938F937F9314
:103FD0006F930E949421E8E6F0E00E94D3200E94B3
:103FE000851E2F913F914F915F910E94111EDD23FD
:103FF00051F09058A2EA2AED3FE049EC5FE3D07817
:104000005D270E94821FDF910C94851E0E94FC2078
:10401000E3950C9425210E941F200C94851E0E947C
:104020007E1E58F00E94771E40F029F45F3F29F071
:104030000C946E1E51110C94B91E0C94741E0E94A7
:10404000961E68F39923B1F3552391F3951B550BF5
:10405000BB27AA2762177307840738F09F5F5F4F5B
:10406000220F331F441FAA1FA9F335D00E2E3AF09A
:10407000E0E832D091505040E695001CCAF72BD0B2
:10408000FE2F29D0660F771F881FBB1F2617370703
:104090004807AB07B0E809F0BB0B802DBF01FF2735
:1040A00093585F4F3AF09E3F510578F00C946E1E86
:1040B0000C94B91E5F3FE4F3983ED4F38695779550
:1040C0006795B795F7959F5FC9F7880F911D9695EE
:1040D000879597F90895E1E0660F771F881FBB1F4A
:1040E000621773078407BA0720F0621B730B840BF7
:1040F000BA0BEE1F88F7E09508950E94842068941B
:10410000B1110C94B91E08950E949E1E88F09F570D
:1041100098F0B92F9927B751B0F0E1F0660F771FEB
:10412000881F991F1AF0BA95C9F714C0B13091F0E1
:104130000E94B81EB1E008950C94B81E672F782F26
:104140008827B85F39F0B93FCCF3869577956795A6
:10415000B395D9F73EF490958095709561957F4F12
:104160008F4F9F4F0895DF93CF931F930F938B0132
:10417000EC01E5E9F0E00E94D3200E94851E980141
:10418000AE018B01EC0160E070E080E89FE30E94EB
:104190006A1F0E9454219801AE010F911F91CF9187
:1041A000DF910C94111EDF93CF931F930F93FF9217
:1041B000EF92DF927B018C01689406C0DA2EEF014A
:1041C0000E94111EFE01E894A5912591359145911B
:1041D0005591A6F3EF010E94821FFE019701A801ED
:1041E000DA9469F7DF90EF90FF900F911F91CF91D4
:1041F000DF9108950C94741E0E949E1ED8F3E894DB
:10420000E0E0BB279F57F0F02AED3FE049EC06C005
:10421000EE0FBB0F661F771F881F28F0B23A6207A8
:104220007307840728F0B25A620B730B840BE39573
:104230009A9572F7803830F49A95BB0F661F771FF6
:10424000881FD2F790480C949F21EF93E0FF07C09E
:10425000A2EA2AED3FE049EC5FEB0E94821F0E9438
:10426000851E0F90039401FC9058EDEBF0E00C9448
:10427000B2210E94DA1D08F48FEF08959B01AC0172
:1042800060E070E080E89FE30C940B209F930E9415
:10429000FC200F9007FCEE5F0C94252119F416F416
:1042A0000C94741E0C949D210E949E1EB8F39923B9
:1042B000C9F3B6F39F57550B87FF0E94AB2100242B
:1042C000A0E640EA900180585695979528F4805CC6
:1042D000660F771F881F20F026173707480730F42E
:1042E000621B730B840B202931294A2BA695179446
:1042F0000794202531254A2758F7660F771F881F16
:1043000020F026173707480730F4620B730B840B35
:10431000200D311D411DA09581F7B901842F9158C1
:10432000880F9695879508959B01AC010C94FE1D0E
:104330000E94DA1D880B990B08959F3F31F0915030
:1043400020F4879577956795B795880F911D969579
:10435000879597F9089591505040660F771F881FF1
:10436000D2F708959F938F937F936F93FF93EF936B
:104370009B01AC010E94FE1DEF91FF910E94D32092
:104380002F913F914F915F910C94FE1D991B79E005
:1043900004C0991F961708F0961B881F7A95C9F7D5
:1043A0008095089597FB072E16F4009407D077FDAB
:1043B00009D00E94E62107FC05D03EF49095819536
:1043C0009F4F0895709561957F4F0895AA1BBB1B61
:1043D00051E107C0AA1FBB1FA617B70710F0A61B05
:1043E000B70B881F991F5A95A9F780959095BC0126
:1043F000CD010895EE0FFF1F0590F491E02D099473
:104400000F931F93CF93DF938230910510F482E0D6
:1044100090E0E0912506F091260630E020E0B0E043
:10442000A0E0309799F42115310509F44AC0281B02
:10443000390B24303105D8F58A819B8161157105CE
:1044400089F1FB0193838283FE0111C04081518178
:104450000281138148175907E0F04817590799F46A
:10446000109761F012960C93129713961C93329644
:10447000CF01DF91CF911F910F91089500932506F1
:1044800010932606F4CF2115310551F0421753073A
:1044900038F0A901DB019A01BD01DF01F801C1CFAC
:1044A000EF01F9CF9093260680932506CDCFFE012C
:1044B000E20FF31F819391932250310939832883AE
:1044C000D7CF2091230630912406232B41F420914D
:1044D000020130910301309324062093230620919A
:1044E0000001309101012115310541F42DB73EB78E
:1044F0004091040150910501241B350BE0912306E6
:10450000F0912406E217F307A0F42E1B3F0B2817A7
:10451000390778F0AC014E5F5F4F2417350748F03C
:104520004E0F5F1F5093240640932306819391936F
:104530009FCFF0E0E0E09CCFCF93DF930097E9F0CE
:10454000FC01329713821282A0912506B0912606B3
:10455000ED0130E020E01097A1F420813181820F3D
:10456000931F20912306309124062817390709F05C
:1045700061C0F0932406E0932306DF91CF91089564
:10458000EA01CE17DF07E8F54A815B819E014115FC
:104590005105B1F7E901FB83EA8349915991C40FB1
:1045A000D51FEC17FD0761F4808191810296840F7D
:1045B000951FE90199838883828193819B838A83F4
:1045C000F0E0E0E012968D919C9113970097B9F579
:1045D0002D913C911197CD010296820F931F20914E
:1045E0002306309124062817390739F6309751F5FC
:1045F0001092260610922506B0932406A093230657
:10460000BCCFD383C28340815181840F951FC817CB
:10461000D90761F44E5F5F4F88819981480F591F18
:10462000518340838A819B81938382832115310545
:1046300009F0B0CFF0932606E09325069ECFFD014A
:10464000DC01C0CF13821282D7CFB0E0A0E0EBE252
:10465000F3E20C94F31E8C01009751F4CB010E94FD
:1046600000228C01C801CDB7DEB7E0E10C940F1F2A
:10467000FC01E60FF71F9C0122503109E217F307F6
:1046800008F49DC0D901CD91DC911197C617D707C9
:1046900098F0C530D10530F3CE01049786179707FF
:1046A00008F3C61BD70B2297C193D1936D937C93CC
:1046B000CF010E949C22D6CF5B01AC1ABD0A4C01EF
:1046C0008C0E9D1EA0912506B0912606512C412CE2
:1046D000F12CE12C109731F580912306909124065E
:1046E0008815990509F05CC04616570608F058C0B1
:1046F0008091000190910101009741F48DB79EB720
:104700004091040150910501841B950BE817F907AE
:1047100008F055C0F0932406E0932306F901718355
:104720006083A0CF8D919C91119712966C901297F7
:1047300013967C901397A815B90559F56C0142E0C2
:10474000C40ED11CCA14DB0420F1AC014A195B0968
:10475000DA011296159780F062827382518340834A
:10476000D9016D937C93E114F10471F0D701139694
:10477000FC93EE93129776CF22968C0F9D1FF90132
:1047800091838083F301EFCFF0932606E093250613
:1047900069CF4816590608F42C017D01D3019ACF40
:1047A000CB010E9400227C01009749F0AE01B801C4
:1047B0000E94E723C8010E949C22870153CF10E08A
:1047C00000E050CF81E090E0F8940C940224FB01CB
:1047D000DC0102C001900D9241505040D8F708957D
:1047E000FB01DC010D900020E9F7119701900D927B
:1047F0000020E1F70895FB01DC0101900D920020FB
:08480000E1F70895F894FFCFE1
:104808000000270680000000B4420000B442000007
:1048180000000000B4427B1496C100002041000053
:10482800A0C1000000000B0D0C0A020001030000EB
:104838000000BA041A0447040705780456046A04F9
:1048480024004F4B20000D0A004F4B004500322E2C
:10485800322E330056257300403100422566204C25
:104868002566205225660058256620592566205A57
:10487800256600563100563000422566204C2566D4
:104888002052256620482566004D6574616C00320B
:104898002E310056313233343536373839300053FB
:1048A80025662052256620482566005625640000A6
:00000001FF
