:100000000C9437010C945F010C945F010C945F0118
:100010000C945F010C945F010C945F010C946017C9
:100020000C945F010C945F010C945F010C94DB0C49
:100030000C945F010C945F010C945F010C945F01C0
:100040000C94A41A0C945F010C94BB190C94951990
:100050000C945F010C945F010C945F010C945F01A0
:100060000C945F010C945F01084AD73B3BCE016EB4
:1000700084BCBFFDC12F3D6C74319ABD56833DDAFF
:100080003D00C77F11BED9E4BB4C3E916BAAAABE0E
:10009000000000803F072C7AA5BA6CC590DA3B932C
:1000A00065FC8BBC53F810FD3C5692834DBD879D7B
:1000B0003AB63DCBC9BF5BBE73DA0FC93F05A84C4A
:1000C000CDB2D44EB93836A9020C50B99186880801
:1000D0003CA6AAAA2ABE000000803F000102040834
:1000E00010204080010204081020010204081020A2
:1000F00000000000250028002B0004040404040470
:1001000004040202020202020303030303030200C7
:10011000000000240027002A000000000023002621
:10012000002900000000080002010000030407008D
:10013000000000000000004E414E494E495459490C
:100140004E46CDCCCC3D0AD7233C17B7D13877CC1F
:100150002B329595E6241FB14F0A00002041000084
:10016000C84200401C4620BCBE4CCA1B0E5AAEC53D
:100170009D7400407A10F35A00A0724E18090010C6
:10018000A5D4E80000E87648170000E40B5402000C
:1001900000CA9A3B000000E1F50500008096980037
:1001A000000040420F000000A08601000000102760
:1001B00000000000E80300000000640000000000F0
:1001C0000A00000000000100000000002C76D88822
:1001D000DC674F0823DFC1DFAE59E1B1B796E5E335
:1001E000E453C63AE651997696E8E6C28426EB894E
:1001F0008C9B62ED407C6FFCEFBC9C9F40F2BAA5EB
:100200006FA5F490055A2AF75C936B6CF9676DC182
:100210001BFCE0E40D47FEF520E6B500D0ED902E86
:100220000300943577050080841E080000204E0AE4
:10023000000000C80C333333330F986E1283114122
:10024000EF8D2114893BE65516CFFEE6DB18D184ED
:100250004B381BF77C1D901DA4BBE4242032847214
:100260005E228100C9F124ECA1E53D27D2291124A9
:100270001FBECFEFD8E0DEBFCDBF11E0A0E0B1E000
:10028000E8ECFBE602C005900D92AE39B107D9F754
:1002900026E0AEE9B1E001C01D92AB32B207E1F752
:1002A00011E0C7E3D1E004C02197FE010E94EF2ACC
:1002B000C633D107C9F70E94EE1A0C94E2350C94AC
:1002C00000002F923F924F925F926F927F928F9297
:1002D0009F92AF92BF92CF92DF92EF92FF920F93D5
:1002E0001F93CF93DF93CDB7DEB72B970FB6F8945C
:1002F000DEBF0FBECDBF29013A011801870120E002
:1003000030E040E251E40E94A72B4B015C0120E069
:1003100030E040E251E4C301B2010E94A72BA501E5
:1003200094010E94062B69837A838B839C8321E04E
:100330002B87C701FF0CAA0BBB0B8F839887A9875C
:10034000BA87EB856E2E712C061517050CF45DC06F
:10035000AB856A2F70E080E090E00E9418346B015A
:100360007C016F81788589859A850E941A349B016A
:10037000AC01C701B6010E94A72B6B017C01B1E063
:100380006B1AB0EC7B0A660C771C660C771CF101CB
:10039000E60DF71DFE83ED83A7019601C701B601A7
:1003A0000E94793429813A814B815C810E947934A1
:1003B0002B013C0120E030E040E050ECC701B601E9
:1003C0000E94793420E030E040E450E40E94072BA2
:1003D0009B01AC01C301B2010E9479349B01AC01C5
:1003E000C501B4010E94072B20E030E040E251E457
:1003F0000E947934AD81BE816D937D938D939C93E2
:100400001397BB85BF5FBB879CCF2B960FB6F89425
:10041000DEBF0FBECDBFDF91CF911F910F91FF9037
:10042000EF90DF90CF90BF90AF909F908F907F9094
:100430006F905F904F903F902F9008954F925F92F2
:100440006F927F928F929F92AF92BF92DF92EF92C4
:10045000FF920F931F93CF93DF9329013A0120E07E
:1004600030E040E251E40E94A72B4B015C0120E008
:1004700030E040E251E4C301B2010E94A72BA50184
:1004800094010E94062B2B013C01B7010F2C000C9C
:10049000880B990B0E941A349B01AC01C301B20175
:1004A0000E94A72B2B013C01DD24D3946D2D70E01D
:1004B000E616F7063CF1EB01C150D04CCC0FDD1F26
:1004C000CC0FDD1FC00FD11F072E000C880B990B1E
:1004D0000E941A349B01AC01C301B2010E9479341D
:1004E0009B01AC01C501B4010E94072B20E030E064
:1004F00040E251E40E947934688379838A839B8344
:10050000D394D4CFDF91CF911F910F91FF90EF90B3
:10051000DF90BF90AF909F908F907F906F905F9093
:100520004F900895009769F0FC0101900020E9F7D1
:100530003197AF01481B590BBC018EE695E00C9436
:100540009C1880E090E008958F929F92AF92BF92A6
:10055000CF92DF92EF92FF920F931F93CF93DF938F
:1005600049015A0167017801C7E3D2E06C877D87B2
:100570008E879F872CA13DA14EA15FA10E94072BD2
:10058000AB01BC01CE010E94E217888A998AAA8A2F
:10059000BB8A28A539A54AA55BA5C501B4010E945F
:1005A000072BAB01BC018AE392E00E94E217CC8AE0
:1005B000DD8AEE8AFF8A2CA53DA54EA55FA5C70161
:1005C000B6010E94072BAB01BC018DE392E0DF91E5
:1005D000CF911F910F91FF90EF90DF90CF90BF9040
:1005E000AF909F908F900C94E2172F923F924F9272
:1005F0005F926F927F928F929F92AF92BF92CF92B3
:10060000DF92EF92FF920F931F93CF93DF93CDB7BB
:10061000DEB7C654D1090FB6F894DEBF0FBECDBF0A
:100620006BA77CA78DA79EA72FA738AB49AB5AAB6A
:10063000EBAAFCAA0DAB1EABAFA2B8A6C9A6DAA660
:1006400019A21AA21BA21CA21D8E1E8E1F8E18A2FA
:10065000198E1A8E1B8E1C8E1D8A1E8A1F8A188E5A
:10066000198A1A8A1B8A1C8A1D861E861F86188A6A
:1006700019861A861B861C861D821E821F8218867A
:1006800019821A821B821C8281E08F93CE010D9603
:100690009F938F939E012F5E3F4F490108965C0107
:1006A000CBA8DCA8EDA8FEA80FA518A929A93AA9EE
:1006B0004BA55CA56DA57EA587E392E00E94031083
:1006C0000F900F900F90823011F482E092C220E0E0
:1006D00030E0A9016FA178A589A59AA50E941334DD
:1006E000811115C08FEF9FEF909375028093740274
:1006F000ED84FE840F85188929893A894B895C89A4
:100700006D897E898F89988D0E94A402BBC18091DA
:10071000430290914402A0914502B09146028BAFF2
:100720009CAFADAFBEAF8091470290914802A091BF
:100730004902B0914A0223968CAF9DAFAEAFBFAFD6
:10074000239780914B0290914C02A0914D02B09161
:100750004E0227968CAF9DAFAEAFBFAF27979E01DD
:100760002F5F3F4FAE014B5F5F4FBE01675F7F4F13
:1007700087E392E00E9441132BAD3CAD4DAD5EADE1
:100780006D897E898F89988D0E94062B6B017C0173
:1007900020E030E0A9010E94D52C2601370118166F
:1007A00024F077FA709477F8709423962CAD3DADD1
:1007B0004EAD5FAD239769897A898B899C890E94A8
:1007C000062B4B015C0120E030E0A9010E94D52CF2
:1007D000181624F0B7FAB094B7F8B094A5019401B4
:1007E000C301B2010E94D52C181684F420E030E039
:1007F000A901C701B6010E94D52C18161CF4C70127
:10080000B60106C0C701B601905802C0C501B401C7
:100810000E94192C3B01072E000C880B990B0E949B
:100820001A344B015C0127962CAD3DAD4EAD5FAD4A
:1008300027976D857E858F8598890E94062B6B0191
:100840007C0120E030E0A9010E94D52C181624F08C
:10085000F7FAF094F7F8F094A7019601C501B401F6
:100860000E94D52C18162CF0C701B6010E94192C35
:100870003B01161417040CF028CF83010D3311052A
:1008800014F00CE310E089859A85AB85BC858FABAD
:1008900098AFA9AFBAAF9C01AD016BA57CA58DA5A2
:1008A0009EA50E94062B4B015C012D813E814F814C
:1008B00058856FA578A989A99AA90E94062B6B0172
:1008C0007C0129813A814B815C816BA97CA98DA92E
:1008D0009EA90E94062B2B013C01A5019401C50194
:1008E000B4010E9479344B015C01A7019601C70154
:1008F000B6010E9479349B01AC01C501B4010E948C
:10090000072B6B017C01A3019201C301B2010E947C
:1009100079349B01AC01C701B6010E94072B0E94EC
:10092000F02C4B015C0120E030E048EC52E46FA178
:1009300078A589A59AA50E94133487FFA5C080E0F9
:1009400090E0A8ECB2E48FA398A7A9A7BAA7B80132
:10095000012E000C880B990B0E941A346B017C014C
:100960002FA138A549A55AA5C501B4010E94A72BFE
:1009700020E030E04AE754E40E947934A701960170
:100980000E94A72B0E94202C78A76FA365317105C8
:1009900008F08CC038010D3311051CF04CE3642EB7
:1009A000712C73010EE712E02BA53CA54DA55EA5A9
:1009B0006FA978AD89AD9AAD0E9461016D817E818C
:1009C0008F8198850EE613E02FA538A949A95AA969
:1009D0000E94610169817A818B819C810EE514E01E
:1009E0002BA93CA94DA95EA90E94610137E3432EC2
:1009F00032E0532E212C312CDE015996BEA3ADA33B
:100A0000261437040CF47DC0C301880F991F880F8A
:100A1000991F8D5C9D4FFC01E95BFF4F4D895E89FD
:100A20006F89788D4083518362837383E051FF4FD8
:100A300049895A896B897C89408351836283738396
:100A4000E051FF4F8D859E85AF85B8898083918366
:100A5000A283B3832FA138A5309379022093780223
:100A60007092770260927602109275021092740270
:100A70000E94981A60937A0270937B0280937C02A2
:100A800090937D0281E0B5C020E030E04AE754E475
:100A90006FA178A589A59AA50E94D52C18160CF0EF
:100AA00056CF80E090E0AAE7B4E44DCF80E090E03C
:100AB0000E94183420E030E040EA51E40E94A72B65
:100AC0009B01AC01C701B6010E9479346B017C0126
:100AD00020E030E040E752E40E94133487FF0AC070
:100AE000C701B6010E94192C8B0124E130E038A720
:100AF0002FA350CF84E190E098A78FA30CE310E0E0
:100B000049CFF201E95DFD4FC080D180E280F380E2
:100B1000E05FF1090081118122813381E05FF109F9
:100B20004081518162817381B1E0BF938EA18F9327
:100B30009DA19F93DE015D964D01CE0181965C01E2
:100B400087E392E00E94031094E0490E511C0F903D
:100B50000F900F90813019F589A19AA1ABA1BCA18A
:100B6000F201ED5BFF4F80839183A283B3838D8D70
:100B70009E8DAF8DB8A1E051FF4F80839183A283FA
:100B8000B383898D9A8DAB8DBC8DE051FF4F8083EF
:100B90009183A283B383AFEF2A1A3A0A31CF2D890A
:100BA0003E894F89588D73010EE712E06BAD7CAD25
:100BB0008DAD9EAD0E94610129893A894B895C897E
:100BC0000EE613E023966CAD7DAD8EAD9FAD239701
:100BD0000E9461012D853E854F8558890EE514E000
:100BE00027966CAD7DAD8EAD9FAD27970E946101BC
:100BF0000BCFCA5BDF4F0FB6F894DEBF0FBECDBF81
:100C0000DF91CF911F910F91FF90EF90DF90CF90E8
:100C1000BF90AF909F908F907F906F905F904F901C
:100C20003F902F900895AF92BF92CF92DF92EF92B4
:100C3000FF920F931F93CF93DF93CDB7DEB7289723
:100C40000FB6F894DEBF0FBECDBF7C01062F10E0BB
:100C5000FC016330D1F463AD0E94F40EA0E0B0E07B
:100C60009C01AD012256310941095109A4EBB0E0C4
:100C70000E946F352AE631E040E050E00E94503596
:100C8000CA01B9010E941A3434C0E00FF11F60ADEF
:100C90000E94F40E5C011D821E821F82188619823A
:100CA0001A821B821C82BE016B5F7F4F6801CC0CD5
:100CB000DD1CCC0CDD1CC6018A5B9F4F0E94CE0E52
:100CC000BE016F5F7F4FC601C2960E94CE0EB50176
:100CD000BB0C880B990B0E941A3429813A814B81F5
:100CE0005C810E9479342D813E814F8158850E941C
:100CF000072B075F1F4F000F111F000F111FF70178
:100D0000E00FF11F20813181428153810E94062B27
:100D10006B017C0120E030E0A9010E94133487FDC3
:100D200011C020E030E044E353E4C701B6010E9463
:100D3000D52C181654F4C12CD12C84E3E82E83E46E
:100D4000F82E03C0C12CD12C7601C701B60128961C
:100D50000FB6F894DEBF0FBECDBFDF91CF911F91CC
:100D60000F91FF90EF90DF90CF90BF90AF900895DC
:100D70000F931F93CF938C01C62FDC018C918C3085
:100D800008F049C061E08C2F0E94BC16F8018081F8
:100D900096E0899FF0011124E251FE4FCF739081BC
:100DA000907CC92BC0836CE00E94BB2AACE08A9F78
:100DB000A001112420E030E096E0B901640F751F16
:100DC000969FF001979FF00D1124E251FE4F608134
:100DD00066FD16C02F5F3F4F2C30310571F7811132
:100DE0000FC01092800082E08093810010928500F5
:100DF00010928400B19A80916F00826080936F009E
:100E0000D801EC91B6E0EB9FF0011124E251FE4FC6
:100E1000808180648083F8018081CF911F910F9140
:100E200008950F931F93CF93DF930BE612E0C7E370
:100E3000D2E0F80161918F0170E0CE010E94B80606
:100E40002396F2E0C334DF07A1F7DF91CF911F9122
:100E50000F910895EF92FF920F931F93CF93DF931B
:100E60008C017B01D82FDF77DC37D0F0E0E8CE2F84
:100E7000CD1B2C2FAC0160EAC7010E94780E65E003
:100E800070E080E090E00E945E1A8C2F90E025E8F0
:100E90002D0FAC01400F511F60EA8E0D9F1D04C045
:100EA00025E0AC0160EAC701DF91CF911F910F915E
:100EB000FF90EF900C94780E2F923F924F925F929A
:100EC0006F927F928F929F92AF92BF92CF92DF925A
:100ED000EF92FF920F931F93CF93DF93CDB7DEB7BF
:100EE000CA54D1090FB6F894DEBF0FBECDBF009132
:100EF0004F0510915005302F3F773C3728F180E89F
:100F0000F82EF31A2F2DA80160EACE0101962B9638
:100F10003FAF2B970E94130E65E070E080E090E0F9
:100F20000E945E1A8F2D90E02B963FAD2B9725E8FF
:100F3000230FAC01400F511F60EAA1E0B0E0AC0FFD
:100F4000BD1F8A0F9B1F05C025E0A80160EACE01E6
:100F500001960E94130E19811F3F09F44DC16A8149
:100F600070E080E090E00E9418346CAB7DAB1C0117
:100F7000612F70E080E090E00E9418346CA77DA79C
:100F80008EA79FA76B8170E080E090E00E941834EC
:100F900068AB79AB8AAB9BAB1EA21FA218A619A6A1
:100FA0001AA21BA21CA21DA21E8E1F8E18A219A27D
:100FB0001A8E1B8E1C8E1D8E1E8A1F8A188E198EED
:100FC0001A8A1B8A1C8A1D8A1E861F86188A198AFD
:100FD0001A861B861C861D861E821F82188619860D
:100FE0003F922F92BDA9BF93ECA9EF93ACA4BDA4EF
:100FF000CEA4DFA4E8A8F9A80AA91BA99E012E5E29
:101000003F4FAE014A5E5F4FBE01665E7F4F87E392
:1010100092E00E945F120F900F900F900F9082301D
:1010200009F4B8C020914302309144024091450236
:10103000509146022CAF3DAF4EAF5FAF809147025B
:1010400090914802A0914902B0914A0224968CAF37
:101050009DAFAEAFBFAF249720914B0230914C02B1
:1010600040914D0250914E0228962CAF3DAF4EAFAD
:101070005FAF28979E012A5F3F4FAE01465F5F4FEB
:10108000BE01625F7F4F87E392E00E9441132CAD67
:101090003DAD4EAD5FAD68A979A98AA99BA90E9413
:1010A000062B6B017C0120E030E0A9010E94D52CC9
:1010B00026013701181624F077FA709477F87094A7
:1010C00024962CAD3DAD4EAD5FAD24976CA57DA5AE
:1010D0008EA59FA50E94062B4B015C0120E030E00D
:1010E000A9010E94D52C181624F0B7FAB094B7F8CD
:1010F000B094A5019401C301B2010E94D52C181629
:1011000084F420E030E0A901C701B6010E94D52C8B
:1011100018161CF4C701B60106C0C701B6019058E5
:1011200002C0C501B4010E94192C7B01072E000CDE
:10113000880B990B0E941A342B013C0128962CAD88
:101140003DAD4EAD5FAD2897BCA9ADA96B2F7A2FF1
:10115000822D932D0E94062B4B015C0120E030E094
:10116000A9010E94D52C181624F0B7FAB094B7F84C
:10117000B094A5019401C301B2010E94D52C1816A8
:101180002CF0C501B4010E94192C7B011E141F0410
:101190000CF443C06C8170E080E090E00E94183451
:1011A00060934F02709350028093510290935202C9
:1011B00020916702309168024091690250916A0261
:1011C0000E94072BAB01BC0180E492E00E94E21771
:1011D00086E00E9463162D8131E0019709F030E02E
:1011E000321781F087E392E0222319F00E94321433
:1011F00009C00E942A1406C087E392E00E942A14C4
:1012000080E015C180914F0590915005059690930F
:10121000500580934F0581E00AC137013DE3E31695
:10122000F1041CF03CE3632E712C82E390E0B301E7
:101230000E94C72A2A967FAF6EAF2A972A8D3B8DD0
:101240004C8D5D8D6E857F858889998973010EE748
:1012500012E00E941E022E893F89488D598D6A85B1
:101260007B858C859D850EE613E00E941E022A89EF
:101270003B894C895D896E817F81888599850EE5E2
:1012800014E00E941E024EE752E059AF48AF8EE6CE
:1012900093E09BAF8AAF1FAB0EAB412C512CFE01EC
:1012A0007E96FBA7EAA7AEA9BFA9CD90DD90ED90F1
:1012B000FC90EAADFBAD0081118122813381A8ADA4
:1012C000B9AD4D915D916D917C91B1E0BF93EBA56E
:1012D000EF93FAA5FF93CE0182964C01DE0196961C
:1012E0005D0187E392E00E9403100F900F900F9032
:1012F000813061F58EA19FA1A8A5B9A5E8ADF9AD92
:1013000081939193A193B193F9AFE8AF8AA19BA187
:10131000ACA1BDA1EAADFBAD81939193A193B19333
:10132000FBAFEAAF8E8D9F8DA8A1B9A1EEA9FFA951
:1013300081939193A193B193FFABEEABFFEF4F1A63
:101340005F0A4614570409F0AECF2EC04614570466
:101350005CF573010EE712E028A939A94AA95BA937
:101360006CAD7DAD8EAD9FAD0E941E020EE613E00A
:101370002CA53DA54EA55FA524966CAD7DAD8EAD8B
:101380009FAD24970E941E020EE514E07CA96DA972
:10139000272F362F422D532D28966CAD7DAD8EAD67
:1013A0009FAD28970E941E02C301880F991F880FC6
:1013B000991F8D5C9D4FFC01E95BFF4F28A939A95E
:1013C0004AA95BA92083318342835383E051FF4FB5
:1013D0002CA53DA54EA55FA5208331834283538371
:1013E000E051FF4F5CA94DA9852F942FA22DB32D5D
:1013F00080839183A283B3832A964EAD5FAD2A97F3
:10140000509379024093780270927702609276024C
:1014100010927502109274020E94981A60937A02D8
:1014200070937B0280937C0290937D02B3CEC65B67
:10143000DF4F0FB6F894DEBF0FBECDBFDF91CF9167
:101440001F910F91FF90EF90DF90CF90BF90AF90E2
:101450009F908F907F906F905F904F903F902F90D4
:1014600008953F924F925F926F927F928F929F92D8
:10147000AF92BF92CF92DF92EF92FF920F931F93A2
:10148000CF93DF9300D000D0CDB7DEB78C012A0117
:101490003B0181E08093E50161E08091E4010E94DD
:1014A000BC164092EA015092EB016092EC017092FE
:1014B000ED010E94981A6093E6017093E701809312
:1014C000E8019093E9018091E4019091000198175F
:1014D00021F09F3F09F033C204C0EEE0F1E0349008
:1014E00081C080930001EEE0F1E0E491EF3F09F468
:1014F00026C2E13031F1E23009F44BC0E11171C094
:1015000014BC15BC94B5926094BD95B5916095BD21
:10151000282F30E0F901E650FF4FE491F0E0EE0FA4
:10152000FF1FE051FF4F4591549150931006409397
:101530000F06F901E452FF4FE491E0930E06312CBF
:1015400053C01092800010928100909181009860A9
:101550009093810090918100916090938100282F59
:1015600030E0F901E650FF4FE491F0E0EE0FFF1F8D
:10157000E051FF4F4591549150930D0640930C0656
:10158000F901E452FF4FE491E0930B0633243394C6
:101590002BC01092B0001092B1009091B0009260F8
:1015A0009093B0009091B10091609093B100282F7A
:1015B00030E0F901E650FF4FE491F0E0EE0FFF1F3D
:1015C000E051FF4F459154915093A00140939F01EA
:1015D000F901E452FF4FE491E0939E0162E0362E60
:1015E00003C03E2E37FCABC161E00E94BC1648012F
:1015F000A12CB12C832D8D7F09F0BBC060E072E17E
:101600008AE790E0A50194010E94503529833A832E
:101610004B835C8369017A0121E0C21AD108E10899
:10162000F1088FEFC816D104E104F10409F008F4C1
:101630004CC060E472E48FE090E0A50194010E9448
:10164000503569017A01E1E0CE1AD108E108F108CC
:10165000F2E03F1220C02FEFC216D104E104F104E2
:1016600009F008F46AC160E970ED83E090E0A5013B
:1016700094010E94503569017A0181E0C81AD108AD
:10168000E108F108EFEFCE16D104E104F10409F00E
:10169000D0F583E067C0FFEFCF16D104E104F10479
:1016A000B1F0A8F068E478EE81E090E0A501940143
:1016B0000E94503569017A0181E0C81AD108E10819
:1016C000F108332009F4DFC02FC181E001C082E0BE
:1016D0003320A1F047C089819A81AB81BC812AE087
:1016E000B595A795979587952A95D1F76C017D01BA
:1016F00021E0C21AD108E108F10885E095B5987F8C
:10170000892B85BD6FC068E478EE81E090E0A5018B
:1017100094010E94503569017A01F1E0CF1AD10895
:10172000E108F1082FEFC216D104E104F10409F039
:1017300008F4A7C064E274EF80E090E0A501940192
:101740000E94503569017A01E1E0CE1AD108E10822
:10175000F108FFEFCF16D104E104F10411F008F015
:10176000B4C085E09091B100987F892B8093B1003F
:1017700039C060E072E18AE790E0A50194010E941F
:10178000503569017A0181E0C81AD108E108F108F1
:10179000C114D104E1E0EE06F10488F068E478EECB
:1017A00081E090E0A50194010E94503569017A0121
:1017B000F1E0CF1AD108E108F10893E001C091E00F
:1017C00021E032120FC080918100887F892B8093A5
:1017D0008100411451046104710449F42FEF3FEF7B
:1017E000A9012DC0411451046104710471F0D801A4
:1017F000AA0FBB1FA30192010E946F3528EE33E0B0
:1018000040E050E00E94B13503C02FEF3FEFA90147
:1018100081E03816A1F0E2E03E1619F131108FC0D8
:10182000C7BC2093150630931606409317065093B5
:10183000180680916E00826080936E0080C0D09206
:101840008900C092880020931106309312064093BD
:1018500013065093140680916F00826080936F008E
:101860006EC0C092B3002093A1013093A2014093B7
:10187000A3015093A4018091700082608093700056
:101880005EC084E06FCFFFEFCF16D104E104F10416
:10189000D1F0C8F062E17AE780E090E0A501940120
:1018A0000E94503569017A0181E0C81AD108E10827
:1018B000F108EFEFCE16D104E104F10411F008F0C5
:1018C0000ACF84E01BCF83E019CF62E17AE780E0A2
:1018D00090E0A50194010E94503569017A0181E0F0
:1018E000C81AD108E108F108EFEFCE16D104E104DF
:1018F000F104C1F0B8F089819A81AB81BC814AE0E2
:10190000B595A795979587954A95D1F76C017D0177
:1019100021E0C21AD108E108F108332009F4EDCE24
:1019200087E020CF86E0D4CEFFEFCF16D104E104CC
:10193000F10409F050F684E0CBCE82E013CF0F9093
:101940000F900F900F90DF91CF911F910F91FF900B
:10195000EF90DF90CF90BF90AF909F908F907F904F
:101960006F905F904F903F90089598E087FF02C07E
:10197000449A01C04498880F459A45989150B1F710
:10198000089545984498459A449A089527B13C98FB
:10199000449A459A96B1892F8071459894FF04C066
:1019A0000E94C10C81E0089527B90895459A449A90
:1019B0004498459808951F920F920FB60F921124E4
:1019C0002F933F934F935F936F937F938F939F9347
:1019D000AF93BF93EF93FF938091190687FF05C0E4
:1019E000109285001092840016C020911906022ED4
:1019F000000C330B8091360290E0281739075CF415
:101A00003091190626E03203F0011124E251FE4F15
:101A1000808186FD15C0809119068F5F809319061D
:101A200020911906022E000C330B8091360290E0B3
:101A30002817390794F4809119068C3034F10DC0C1
:101A4000309119063203F0011124E251FE4F8081DA
:101A500060E08F730E948C16DECF8091840090919D
:101A60008500049680349C4918F480E49CE905C004
:101A700080918400909185000496909389008093D2
:101A800088008FEF80931906BDC03091190626E0BB
:101A90003203F0011124E251FE4F8581882309F4BD
:101AA00087C030911906409119064203F0011124B4
:101AB000E251FE4F818192813203F0011124E25103
:101AC000FE4F438154818417950768F540911906AC
:101AD000309119063203F0011124E251FE4F818149
:101AE00092814203D0011124A251BE4F15963C9120
:101AF000830F911D928381833091190640911906BD
:101B00004203F0011124E251FE4F818192813203A0
:101B1000F0011124E251FE4F43815481841795074F
:101B200008F446C02BC040911906309119063203C3
:101B3000F0011124E251FE4F818192814203D001D4
:101B40001124A251BE4F15963C91831B910992839B
:101B5000818330911906409119064203F001112446
:101B6000E251FE4F818192813203F0011124E25152
:101B7000FE4F4381548148175907D0F03091190620
:101B8000409119064203F0011124E251FE4F838176
:101B900094813203F0011124E251FE4F928381833C
:101BA000309119063203F0011124E251FE4F1582E3
:101BB00080918400909185003091190626E03203CF
:101BC000F0011124E251FE4F41815281840F951F93
:101BD0009093890080938800309119063203F001B8
:101BE0001124E251FE4F808186FF0CC0309119060E
:101BF0003203F0011124E251FE4F808161E08F73C6
:101C00000E948C16FF91EF91BF91AF919F918F91A0
:101C10007F916F915F914F913F912F910F900FBEE8
:101C20000F901F901895DF92EF92FF920F931F93E2
:101C3000CF93DF931F92CDB7DEB78C01E62EF42E43
:101C4000D22E3D9A3C9A459A449A59830E94D60CCA
:101C50008E2D0E94B50C0E94C60C5981882311F06C
:101C600081E03DC0852F0E94B50C0E94C60C8111F9
:101C7000F7CF8F2D0E94B50C0E94C60C8111F0CFBA
:101C80000E94D60C81E08E0D0E94B50C0E94C60CFD
:101C90008111E6CF2D2D4D2D50E02223E1F0FA01E8
:101CA000E21BF109E00FF11F67B13C9838E090E0CA
:101CB000459A990F34999160459867B93150C1F7A9
:101CC0009083215041F097B13C9A4498459A4598A9
:101CD00097B9449AE2CF89830E94C10C89810F9001
:101CE000DF91CF911F910F91FF90EF90DF900895BA
:101CF000CF92DF92EF92FF920F931F93CF93DF93D8
:101D000000D0CDB7DEB78C01F42EC22E3D9A3C9A9E
:101D1000459A449A5A8369830E94D60C89810E940D
:101D2000B50C0E94C60C5A81882319F0DD24D39487
:101D300029C0852F0E94B50C0E94C60C8111F6CFD8
:101D40008F2D0E94B50C0E94C60CD82E8111EECFAB
:101D5000EC2CF12CCC20A1F0F701EC19F109E00FEB
:101D6000F11F80810E94B50CCA940E94C60C81119B
:101D7000DDCF65E070E080E090E00E945E1AEACF7F
:101D80000E94C10C8D2D0F900F90DF91CF911F916C
:101D90000F91FF90EF90DF90CF900895CF92DF9258
:101DA000EF92FF920F931F93CF93DF93EB017B0191
:101DB00024E0E20EF11C8B016C01C61AD70AC601A1
:101DC000800F911F0E943A35F80181938F01EE1523
:101DD000FF05A9F7CE01DF91CF911F910F91FF90E1
:101DE000EF90DF90CF900895CF92DF92EF92FF9225
:101DF0000F931F93CF93DF93CDB7DEB761970FB6E5
:101E0000F894DEBF0FBECDBF8E010F5F1F4F6E0176
:101E100081E1C80ED11C7801862F698B0E94F816CB
:101E2000F801819391938F016989EC15FD05A1F764
:101E300020E030E040E0842F90E0B901680F791F86
:101E400067307105BCF4880F991FD701A80FB91F1F
:101E50006D917C9111970296F701E80FF91F80812F
:101E600091818617970720F48D939C9371836083EB
:101E70004F5FE1CF2F5F3F4F28303105D9F62F81DB
:101E800038858D819E81820F931F29853A85820F27
:101E9000931F2B853C85820F931F9695879596956A
:101EA000879561960FB6F894DEBF0FBECDBFDF9168
:101EB000CF911F910F91FF90EF90DF90CF900895F9
:101EC0004F925F926F927F928F929F92AF92BF924A
:101ED000CF92DF92EF92FF92CF93DF93EC017A01E2
:101EE0005901FB0160817181828193819B01AC0169
:101EF0000E94342D81111AC0F701C080D180E28088
:101F0000F380A7019601C701B6010E94342D81110B
:101F10000DC0F50180809180A280B380A50194015D
:101F2000C501B4010E94342D882311F082E05CC009
:101F300028A539A54AA55BA5C701B6010E94072BB4
:101F40002B013C0120E030E040EA50E40E941334D1
:101F500087FD49C020E030E040EF52E4C301B20108
:101F60000E94D52C18160CF43EC02CA53DA54EA5FC
:101F70005FA5C501B4010E94072B2B013C0120E0A5
:101F800030E040EA50E40E94133487FD2CC020E08A
:101F900030E040EF52E4C301B2010E94D52C181684
:101FA00014F1A701960160E070E084E393E40E94DD
:101FB000062BA50194010E94062B6B017C0120E0F9
:101FC00030E046E153E40E94D52C181664F020E07E
:101FD00030E040EF51E4C701B6010E94133487FDA1
:101FE00002C081E001C083E0DF91CF91FF90EF90CC
:101FF000DF90CF90BF90AF909F908F907F906F9029
:102000005F904F9008952F923F924F925F926F9200
:102010007F928F929F92AF92BF92CF92DF92EF9278
:10202000FF920F931F93CF93DF93CDB7DEB729971E
:102030000FB6F894DEBF0FBECDBF98878F832A01FD
:102040003B0109831A832B833C8315019E828D8279
:102050000E8D1F8D88A1898720E030EC4CE455EC73
:10206000C301B2010E94133487FD12C020E030EC9E
:102070004CE455E4C301B2010E94D52C18167CF43F
:10208000412C20EC522E2CE4622E25E4722E07C047
:10209000412C30EC532E3CE4632E35EC732E20E0C3
:1020A00030EC4CE455EC69817A818B819C810E94F3
:1020B000133487FD11C020E030EC4CE455E4698115
:1020C0007A818B819C810E94D52C18166CF480E05B
:1020D00090ECACE4B5E404C080E090ECACE4B5EC8A
:1020E00089839A83AB83BC8320E030EC4CE455ECCD
:1020F000C701B6010E94133487FD12C020E030EC06
:102100004CE455E4C701B6010E94D52C18167CF4A6
:10211000C12C80ECD82E8CE4E82E85E4F82E07C084
:10212000C12C90ECD92E9CE4E92E95ECF92E20E000
:1021300030E040E251E4C301B2010E9479340E94D0
:10214000192C072E000C880B990B0E941A3420E0E2
:1021500030E040E251E40E94A72B2B013C0120E03B
:1021600030E040E251E469817A818B819C810E9458
:1021700079340E94192C072E000C880B990B0E94B1
:102180001A3420E030E040E251E40E94A72B4B01DA
:102190005C0120E030E040E251E4C701B6010E945A
:1021A00079340E94192C072E000C880B990B0E9481
:1021B0001A3420E030E040E251E40E94A72B26E6EA
:1021C00036EE46ED52E40E94062B20E030E444E176
:1021D00053E40E94A72B6B017C019985911109C0E2
:1021E00020E030E0A901C501B4010E94133487FD4D
:1021F0004CC120E030E0A901C301B2010E941334B8
:1022000081110AC080E090E0A4EBB2E4F101808388
:102210009183A283B3833FC020E030E0A901C301D2
:10222000B2010E94D52C1816A4F4A3019201C50195
:10223000B4010E94A72B0E94732B26EE3EE245E6D6
:1022400052E40E947934D1016D937D938D939C93D8
:10225000139720E030E0A901C301B2010E941334BA
:1022600087FF19C0A3019201C501B4010E94A72BE9
:102270000E94732B26EE3EE245E652E40E9479343A
:1022800020E030E044E353E40E94072BF101608337
:10229000718382839383D1018D919D910D90BC9127
:1022A000A02D89839A83AB83BC8320E030E044EB8C
:1022B00052E4BC01CD010E9413348823B9F026EE0C
:1022C0003EE245E652E469817A818B819C810E94DD
:1022D000A72B0E94A22B9B01AC01C301B2010E945B
:1022E000A72B29E23CE549EA51E406C029E23CE596
:1022F00049EA51E4C501B4010E94062B20E030E018
:1023000048EC51E40E94062B20E030E444E153E421
:102310000E94A72B4B015C019B01AC01C701B601D8
:102320000E94A72B0E94732B26EE3EE245E652E464
:102330000E9479342B013C01A7019601C701B60127
:102340000E9479346B017C01A5019401C501B4019F
:102350000E9479349B01AC01C701B6010E94072B92
:102360000E94F02C6B017C019B01AC010E9479342E
:102370004B015C0123E937E745E95FE30E94072B46
:1023800020E030E040E85FE30E94062B69837A8317
:102390008B839C8325E531E54AE050E4C701B60113
:1023A0000E9479349B01AC0169817A818B819C8187
:1023B0000E94A72B0E94F52A26EE3EE245E652E453
:1023C0000E947934F801608371838283938320E0D3
:1023D00030E040E85FE3C501B4010E94072B23E928
:1023E00037E745E95FE30E94062B4B015C01A7013B
:1023F0009601C701B6010E94072B9B01AC01C501E4
:10240000B4010E94A72B0E94F52A26EE3EE245E683
:1024100052E40E947934A30192010E94072BAD81FE
:10242000BE816D937D938D939C931397A30192012D
:10243000F80160817181828193810E94062BD8010D
:102440006D937D938D939C93139798014D815E813D
:10245000B1018F81988529960FB6F894DEBF0FBE23
:10246000CDBFDF91CF911F910F91FF90EF90DF9043
:10247000CF90BF90AF909F908F907F906F905F9024
:102480004F903F902F900C94600F82E029960FB6EA
:10249000F894DEBF0FBECDBFDF91CF911F910F919A
:1024A000FF90EF90DF90CF90BF90AF909F908F9074
:1024B0007F906F905F904F903F902F9008952F9254
:1024C0003F924F925F926F927F928F929F92AF92C4
:1024D000BF92CF92DF92EF92FF920F931F93CF9311
:1024E000DF93CDB7DEB72C970FB6F894DEBF0FBEE3
:1024F000CDBF1B015E834D8338872F83E986FA8623
:102500000B871C87C601B50126EE3EE245E652E484
:102510000E94A72B4B015C010E94A22B2B013C01C6
:1025200026EE3EE245E652E469A17AA18BA19CA188
:102530000E94A72B6B017C010E94A22B69837A83E6
:102540008B839C8320E030E444E153E4C301B20177
:102550000E9479342B013C0123E333E340E253E44E
:1025600069817A818B819C810E9479349B01AC01C5
:10257000C301B2010E94072B29E23CE549EA51E47C
:102580000E94072B20E030E048EC51E40E94072B2A
:102590002B013C01C501B4010E94E22C4B015C01FE
:1025A000C701B6010E94E22C69837A838B839C83E6
:1025B00026EE3EE245E652E469857A858B859C8568
:1025C0000E94A72B6B017C010E94A22B9B01AC01F6
:1025D000C301B2010E947934F10160837183828367
:1025E0009383C701B6010E94E22C9B01AC01C30199
:1025F000B2010E947934ED81FE8160837183828310
:10260000938320E030E444E153E4C501B4010E9427
:1026100079346B017C0123E333E340E253E46981C5
:102620007A818B819C810E9479349B01AC01C70126
:10263000B6010E94062B26E636EE46ED52E40E94D5
:10264000072BEF81F885608371838283938381E018
:102650002C960FB6F894DEBF0FBECDBFDF91CF91A1
:102660001F910F91FF90EF90DF90CF90BF90AF90B0
:102670009F908F907F906F905F904F903F902F90A2
:1026800008952F923F924F925F926F927F928F9216
:102690009F92AF92BF92CF92DF92EF92FF920F93F1
:1026A0001F93CF93DF93CDB7DEB728970FB6F8947B
:1026B000DEBF0FBECDBF98878F838B011A013E838B
:1026C0002D8326EE3EE245E652E4FC0160897189E5
:1026D000828993890E94A72B4B015C010E94A22B47
:1026E0002B013C0126EE3EE245E652E4EF81F885FF
:1026F00064897589868997890E94A72B6B017C0163
:102700000E94A22B69837A838B839C8320E030E430
:1027100044E153E4C301B2010E9479342B013C012E
:1027200023E333E340E253E469817A818B819C8126
:102730000E9479349B01AC01C301B2010E94072BB6
:1027400029E23CE549EA51E40E94072B20E030E011
:1027500048EC51E40E94072B2B013C01C501B40158
:102760000E94E22C4B015C01C701B6010E94E22CE1
:102770006B017C0126EE3EE245E652E4EF81F885EE
:1027800064857585868597850E94A72B0E94A22B5C
:102790009B01AC01C301B2010E947934F80160834E
:1027A00071838283938326EE3EE245E652E4EF8115
:1027B000F88564857585868597850E94A72B0E947C
:1027C000E22C9B01AC01C301B2010E947934F101FA
:1027D000608371838283938320E030E444E153E497
:1027E000C501B4010E9479344B015C0123E333E35A
:1027F00040E253E4C701B6010E9479349B01AC0169
:10280000C501B4010E94062B26E636EE46ED52E4E1
:102810000E94072BED81FE81608371838283938305
:1028200081E028960FB6F894DEBF0FBECDBFDF91D2
:10283000CF911F910F91FF90EF90DF90CF90BF90BD
:10284000AF909F908F907F906F905F904F903F9050
:102850002F90089560E086E00E948C1661E085E08C
:102860000C948C1661E086E00E948C1660E085E096
:102870000C948C164F925F926F927F928F929F92E0
:10288000AF92BF92CF92DF92EF92FF920F931F937E
:10289000CF93DF93CDB7DEB7C057D1090FB6F89409
:1028A000DEBF0FBECDBFCD57DF4FE880F980C358E4
:1028B000D040CB57DF4F88809980C558D040F40175
:1028C000A12CB12C8191882331F08532D9F78FEF7B
:1028D000A81AB80AF7CFF70110828E0109571F4FC7
:1028E000612C712CC12CD12C82E3482E512CF40187
:1028F000EC0DFD1D8081882309F488C0E4E3F0E03D
:10290000EC0FFD1FE60DF71D853209F065C0108242
:10291000BE016C5C7F4FC7010E94672F1CAAFFEFAE
:10292000CF1ADF0AF401EC0DFD1D8081863691F18E
:10293000A4F4833609F440C0843609F061C038013C
:1029400082E0680E711C4AE0BE016F5F7F4FF801A4
:10295000808191810E94C92F37C08C3659F083370E
:1029600009F04EC03801F2E06F0E711CF801608171
:1029700071812DC03801F4E06F0E711CF801608187
:102980007181828193812AE0AE014F5F5F4F0E9487
:10299000D42F1AC03801F4E06F0E711CF801608169
:1029A0007181828193818E0109591F4F22E044E099
:1029B0000E94792FB8010BC03801F2E06F0E711C34
:1029C000F801808189831A82BE016F5F7F4FC70142
:1029D0000E94672F830114C08083C3010196B20156
:1029E0000E94C72A3C01892B69F4A7961FAEA797BE
:1029F000BE016C5C7F4FC7010E94672F1CAA02C0FA
:102A0000612C712CFFEFCF1ADF0A71CFC50101963F
:102A1000C059DF4F0FB6F894DEBF0FBECDBFDF91B8
:102A2000CF911F910F91FF90EF90DF90CF90BF90CB
:102A3000AF909F908F907F906F905F904F90089590
:102A4000EF92FF920F931F93CF93DF931F92CDB717
:102A5000DEB77C01FC0100811181C80169830E94FD
:102A60003A356981681719F0C8010E944235C701DB
:102A70000F90DF91CF911F910F91FF90EF900895EC
:102A8000833081F028F4813099F08230A1F00895EC
:102A90008730A9F08830B9F08430D1F4809180007B
:102AA0008F7D03C0809180008F7780938000089590
:102AB00084B58F7702C084B58F7D84BD08958091E1
:102AC000B0008F7703C08091B0008F7D8093B000FD
:102AD0000895CF93DF93FC0144815581608171811A
:102AE0008EE695E00E949C18EC018EE291E00E9437
:102AF00092028C0F9D1FDF91CF9108950C9492024A
:102B00008F929F92AF92BF920F931F93CF93DF93B9
:102B1000CDB7DEB7A1970FB6F894DEBF0FBECDBF1D
:102B200019A2423008F44AE08E010F5D1F4F842E37
:102B3000912CA12CB12CA50194010E94B135E62F56
:102B4000B901CA0101501109EA3014F4E05D01C075
:102B5000E95CD801EC93232B242B252B61F7C801CA
:102B60000E949202A1960FB6F894DEBF0FBECDBFB1
:102B7000DF91CF911F910F91BF90AF909F908F9059
:102B80000895CF92DF92EF92FF92CF93DF9397FF5A
:102B900021C06B017C01E0916E05F0916F05019001
:102BA000F081E02D6DE28EE695E00995EC01662757
:102BB0007727CB016C197D098E099F094AE00E9495
:102BC00080158C0F9D1FDF91CF91FF90EF90DF90CC
:102BD000CF9008954AE0DF91CF91FF90EF90DF9082
:102BE000CF900C9480150F931F93CF9303E412E0C2
:102BF000C0E06C2F87E392E00E941306F801619316
:102C00007193819391938F01CF5FC43091F7CF91EE
:102C10001F910F9108950F931F93CF93DF938C0112
:102C2000EB0181E391E00E947E15B801110F880B42
:102C3000990B0E94C11583E991E00E947E15BE01A7
:102C400080E090E04AE00E9480158EE291E0DF9102
:102C5000CF911F910F910C9492020F931F93CF93DA
:102C6000DF93EC018B0181E391E00E947E15BE01B0
:102C7000DD0F880B990B0E94C11586E991E00E9437
:102C80007E15C801DF91CF911F910F910C946915AA
:102C9000CF93DF93EC0181E391E00E947E15BE01AA
:102CA000DD0F880B990B0E94C11589E991E00E9404
:102CB0007E158BE991E00E9492028EE291E0DF9115
:102CC000CF910C949202CF93DF93282F30E0F9013B
:102CD000ED5DFE4F8491F901E452FF4FD491F9016B
:102CE000E650FF4FC491CC2391F081110E94401512
:102CF000EC2FF0E0EE0FFF1FE75EFE4FA591B491C1
:102D0000EC91ED2381E090E021F480E002C080E0CE
:102D100090E0DF91CF9108951F93CF93DF93282FF9
:102D200030E0F901ED5DFE4F8491F901E452FF4F6F
:102D3000D491F901E650FF4FC491CC23C9F0162F6E
:102D400081110E944015EC2FF0E0EE0FFF1FE051C3
:102D5000FF4FA591B4918FB7F894111105C09C91C4
:102D6000ED2FE095E92302C0EC91ED2BEC938FBFA2
:102D7000DF91CF911F910895CF93DF9390E0FC01F5
:102D8000E452FF4F2491FC01E650FF4F84918823C9
:102D900061F190E0880F991FFC01E15FFE4FC59142
:102DA000D491FC01E051FF4FA591B491611109C08C
:102DB0009FB7F8948881209582238883EC912E23F5
:102DC0000BC0623061F49FB7F8943881822F8095F0
:102DD00083238883EC912E2B2C939FBF06C08FB743
:102DE000F894E8812E2B28838FBFDF91CF9108952F
:102DF0008E3008F08E508770806480937C008091C4
:102E00007A00806480937A0080917A0086FDFCCFFE
:102E1000809178002091790090E0922B0895FC0138
:102E2000808191810C94F72DEF92FF920F931F9365
:102E3000CF93DF93EC01198218821B821A821D82C4
:102E40001C8261157105A9F17B01FB010190002035
:102E5000E9F731978F01061B170BB8016F5F7F4FA2
:102E600080E090E00E948F2E009759F0998388832C
:102E70001B830A832C813D81232B81F4FC0110826A
:102E80000DC088819981009711F00E94F72D198259
:102E900018821D821C821B821A820BC01D830C8328
:102EA000B701DF91CF911F910F91FF90EF900C949C
:102EB000722FDF91CF911F910F91FF90EF900895A6
:102EC0001F920F920FB60F9211242F933F934F939F
:102ED0005F936F937F938F939F93AF93BF93EF9382
:102EE000FF938091A1019091A201A091A301B091C3
:102EF000A401892B8A2B8B2B59F180919E01E091A3
:102F00009F01F091A0019081892780838091A10188
:102F10009091A201A091A301B091A40118161906E5
:102F20001A061B060CF03DC08091A1019091A201F0
:102F3000A091A301B091A4010197A109B1098093C7
:102F4000A1019093A201A093A301B093A40129C071
:102F500080910001EEE0F1E0E4919FEF9093000199
:102F6000E130B9F098F0E230C9F4909170009D7FA3
:102F70009093700091E09093B0009091B100987F91
:102F800094609093B1001092B30008C010926E004C
:102F900005C090916F009D7F90936F0060E00E944C
:102FA0008C16FF91EF91BF91AF919F918F917F917F
:102FB0006F915F914F913F912F910F900FBE0F90A6
:102FC0001F9018958F929F92AF92BF92CF92DF92EF
:102FD000EF92FF921F93CF93DF93EC014A015B01C5
:102FE00020E030E04AEF53E4C501B4010E941334FD
:102FF00087FF60C020E030E0A901C501B4010E9454
:10300000133487FD11C020E030E044E353E4C501F0
:10301000B4010E94D52C181654F4812C912C74E321
:10302000A72E73E4B72E03C0812C912C5401898103
:103030002DE730E06901C81AD10887FDD394CC0C84
:10304000DD1CCC0CDD1C0D2C000CEE08FF0820E074
:1030500030E040E251E4C501B4010E9479340E949D
:10306000192C9B01AC016A8181E792E0861B9109D2
:1030700067FD9395880F991F880F991F092E000CE3
:10308000AA0BBB0BBC01CD016C197D098E099F09F0
:103090000E94AB2A28E037E040E050E00E94503523
:1030A000CA01B9016C0D7D1D8E1D9F1D0E941A3431
:1030B0004B015C0118811C3098F5C501B4010E94D8
:1030C000192C49812DE730E0241B310947FD339548
:1030D000220F331F220F331F6217730794F02A81C8
:1030E00041E752E0FA01E21BF10927FDF395AF0138
:1030F000440F551F440F551F9B01461757070CF4EB
:103100009A0122503109220F331F8FB7F89496E0AD
:10311000199FF0011124E251FE4F328321838FBFAA
:10312000DF91CF911F91FF90EF90DF90CF90BF90F4
:10313000AF909F908F900895CF92DF92EF92FF9281
:103140000F931F93CF93DF936C017A018B01C0E043
:10315000D0E0CE15DF0589F0D8016D918D01D60143
:10316000ED91FC910190F081E02DC6010995892B2C
:1031700011F47E0102C02196ECCFC701DF91CF91FF
:103180001F910F91FF90EF90DF90CF900895FC0179
:10319000918D828D981761F0828DDF01A80FB11D8E
:1031A0005D968C91928D9F5F9F73928F90E00895B2
:1031B0008FEF9FEF0895FC01918D828D981731F06C
:1031C000828DE80FF11D858D90E008958FEF9FEFC0
:1031D0000895FC01918D228D892F90E0805C9F4F96
:1031E000821B91098F73992708958EE695E00E94BE
:1031F000E91821E0892B09F420E0822F0895FC01D1
:10320000848DDF01A80FB11DA35ABF4F2C91848D6F
:1032100090E001968F739927848FA689B7892C93A4
:10322000A089B1898C9180648C93938D848D98133F
:1032300006C00288F389E02D80818F7D8083089508
:10324000EF92FF920F931F93CF93DF93EC0181E0F6
:10325000888F9B8D8C8D981305C0E889F9898081B2
:1032600085FD24C0F62E0B8D10E00F5F1F4F0F73EE
:103270001127E02E8C8DE8120CC00FB607FCFACF98
:10328000E889F989808185FFF5CFCE010E94FF187A
:10329000F1CF8B8DFE01E80FF11DE35AFF4FF08255
:1032A0000B8FEA89FB898081806207C0EE89FF89E4
:1032B0006083E889F98980818064808381E090E07F
:1032C000DF91CF911F910F91FF90EF900895CF93D1
:1032D000DF93EC01888D8823C9F0EA89FB8980811E
:1032E00085FD05C0A889B9898C9186FD0FC00FB6F0
:1032F00007FCF5CF808185FFF2CFA889B9898C9131
:1033000085FFEDCFCE010E94FF18E7CFDF91CF916F
:10331000089580E090E0892B29F00E94F518811132
:103320000C94000008950E94592F1F920F920FB61F
:103330000F9211242F933F934F935F936F937F933B
:103340008F939F93AF93BF93EF93FF938EE695E098
:103350000E94FF18FF91EF91BF91AF919F918F91C4
:103360007F916F915F914F913F912F910F900FBE81
:103370000F901F9018951F920F920FB60F92112465
:103380002F938F939F93EF93FF93E0917E05F0919E
:103390007F058081E0918405F091850582FD12C052
:1033A0009081809187058F5F8F73209188058217A8
:1033B00051F0E0918705F0E0E259FA4F958F809344
:1033C000870501C08081FF91EF919F918F912F918F
:1033D0000F900FBE0F901F9018953FB7F8948091F3
:1033E0001F0690912006A0912106B091220626B5D5
:1033F000A89B05C02F3F19F00196A11DB11D3FBF2D
:10340000BA2FA92F982F8827820F911DA11DB11DBA
:10341000BC01CD0142E0660F771F881F991F4A95B6
:10342000D1F70895CF93DF93EC018C819D81823099
:103430009105A1F01CF4019739F03DC0833091054E
:1034400099F00497E1F037C088810E946316892BB8
:1034500091F51A82198282E090E02BC088810E9447
:103460006316892BB1F418C088810E946316892BDA
:10347000F1F489819A8101969A8389831CC089819C
:103480009A81449710F082E001C081E08B831A8218
:10349000198281E090E00DC044E650E060E070E009
:1034A00080EA9FE00E94310A83E090E002C084E05D
:1034B00090E09D838C83DF91CF9108958F929F92AE
:1034C000AF92BF92CF92DF92EF92FF926B017C019D
:1034D0000E94ED194B015C01C114D104E104F10417
:1034E000F1F00E94ED19DC01CB0188199909AA09B4
:1034F000BB09883E9340A105B10570F321E0C21AD3
:10350000D108E108F10888EE880E83E0981EA11C1E
:10351000B11CC114D104E104F10419F7DDCFFF900F
:10352000EF90DF90CF90BF90AF909F908F900895D5
:103530002FB7F89460911B0670911C0680911D06B0
:1035400090911E062FBF08951F920F920FB60F92F3
:1035500011242F933F938F939F93AF93BF938091A9
:103560001B0690911C06A0911D06B0911E0630917D
:103570001A0623E0230F2D3720F40196A11DB11D5B
:1035800005C026E8230F0296A11DB11D20931A063F
:1035900080931B0690931C06A0931D06B0931E06F5
:1035A00080911F0690912006A0912106B0912206DD
:1035B0000196A11DB11D80931F0690932006A09334
:1035C0002106B0932206BF91AF919F918F913F91B9
:1035D0002F910F900FBE0F901F901895CF93DF93F0
:1035E000CDB7DEB7C95CD1090FB6F894DEBF0FBE08
:1035F000CDBF789484B5826084BD84B5816084BD7C
:1036000085B5826085BD85B5816085BD80916E0080
:10361000816080936E0010928100809181008260B1
:1036200080938100809181008160809381008091EE
:1036300080008160809380008091B10084608093DD
:10364000B1008091B00081608093B00080917A00D9
:10365000846080937A0080917A00826080937A00FF
:1036600080917A00816080937A0080917A008068EE
:1036700080937A001092C100E0917E05F0917F0561
:1036800082E08083E0917A05F0917B051082E091E1
:103690007C05F0917D0580E1808310928605E091A4
:1036A0008205F091830586E08083E0918005F091AA
:1036B0008105808180618083E0918005F0918105A2
:1036C000808188608083E0918005F0918105808110
:1036D00080688083E0918005F091810580818F7DF5
:1036E000808362E084E00E94BC1661E083E00E9477
:1036F000BC1662E082E00E94BC1662E087E00E9495
:10370000BC1661E086E00E94BC1661E089E00E9480
:10371000BC1661E085E00E94BC160EE110E0198243
:103720001A821B821C82BE016F5F7F4FC8010E94FC
:10373000CE0E69817A818B819C819B01AC010E94B4
:10374000342D98012C5F3F4F6901811116C0F8019B
:10375000E95CFD4F89819A81AB81BC818683978327
:10376000A087B18786010E321105C9F613E5E12E57
:1037700012E0F12E00E010E01DC019821A821B82B7
:103780001C82CE0101965C017801D5016D915D012D
:10379000CF57DF4FF982E882C158D040CE018F5712
:1037A0009F4F0E942015BFEFEB1AFB0AEC14FD049B
:1037B00061F7CDCF6AE070E080E090E00E945E1A91
:1037C000A8014C505E4E22E062EACE0101960E94B2
:1037D000130E898190E0982F88272A81820F911DEE
:1037E000F701819391937F011C5F0115FCE01F0796
:1037F00009F7109238021092390210923B0210928F
:103800003C0210923E0210923F0287EE80934102EA
:1038100089E1809342020E94110760E087E392E011
:103820000E94130660934302709344028093450202
:103830009093460261E087E392E00E941306609352
:103840004702709348028093490290934A0262E0D3
:1038500087E392E00E94130660934B0270934C0240
:1038600080934D0290934E0263E087E392E00E94C2
:10387000130660934F02709350028093510290930D
:10388000520284E08093560581E090E090935B05BE
:1038900080935A0527E020935C05909361058093FF
:1038A000600583E08093E4018FEF9FEF90937502B2
:1038B000809374029093770280937602A12CB12CAE
:1038C000F8ECCF2EF2E4DF2EE12CF12C06E113E42C
:1038D000A801970160E070E0CB010E94F5028BE245
:1038E00091E00E9492028EE291E00E9492021E01FB
:1038F00029E9220E311CCE0181569F4FC555DF4F5D
:1039000099838883CB5AD040D1011496CB53DF4F93
:10391000B983A883C55CD040E1E8F0E0EC0FFD1F5F
:103920007096C953DF4FF983E883C75CD0409E018E
:103930002F5F3F4F39012E0135E0430E511C81E8C6
:1039400090E08C0F9D1F0C96CF53DF4F9983888397
:10395000C15CD040A1E8B0E0AC0FBD1F1896CD53BC
:10396000DF4FB983A883C35CD0408EE695E00E9408
:10397000E918892B31F08EE695E00E94C7188F3F39
:1039800039F4809174029091750297FF9DC006C131
:103990002091A5013091A6012115310521F021309A
:1039A000310551F08CC0833201F7E1E0F0E0F09393
:1039B000A601E093A50107C09091E3019C3308F0B4
:1039C0007EC0833219F41092E301CFCF292F30E06B
:1039D0008A3021F5F901EB55FE4F1282E7EAF1E05A
:1039E00001900020E9F78F01085A114098012955EC
:1039F0003E4F7901101611060CF061C0D7018E916F
:103A00007D01082E000C990B0E94E233892B09F4EA
:103A1000B4C2F701108201501109ECCF9F5F90935F
:103A2000E301F901EB55FE4F82839FCF063011056C
:103A3000D9F00115110509F0AEC20E94992FCF5798
:103A4000DF4F688379838A839B83C158D04069E9BB
:103A500071E080E090E00E949D2F0F5F1F4FF4E027
:103A6000CF0ED11C009711F7CF57DF4F68817981B6
:103A70008A819B81C158D0400E94192CC355DF4FC9
:103A8000688379838A839B83CD5AD040CB57DF4F9D
:103A9000688179818A819B81C558D0400E94192C08
:103AA000025011092DE4F21609F439C430E5F31679
:103AB00011F40C943A2787E4F81609F489C210929D
:103AC000A6011092A50151CF209176023091770284
:103AD000821793070CF062C00E94981A009174023A
:103AE00010917502C0907A02D0907B02E0907C0227
:103AF000F0907D02AB01BC014C195D096E097F0994
:103B00002091780230917902029FC001039F900DAD
:103B1000129F900D1124A0E0B0E0481759076A07E2
:103B20007B0708F441C0000F111F000F111F9801FF
:103B3000225A3B4FA80142595C4FB80162587D4F51
:103B400087E392E00E94600F8230C1F0C801895C77
:103B50009D4FFC01E95DFD4FE080F1800281138102
:103B6000E05FF1092081318142815381E05FF109F9
:103B700060817181828193810E94A402809174028C
:103B80009091750201969093750280937402209132
:103B90007602309177028217930734F08FEF9FEF10
:103BA000909375028093740280915905813009F0D9
:103BB00040C01092590580914E05823050F08230FD
:103BC000C1F585E080934E0587E392E00E942A14B8
:103BD00030C082E080934E051092500510924F0540
:103BE000E091370286E08E9FF0011124E251FE4FF2
:103BF00090819F7B9083E0913A028E9FF001112487
:103C0000E251FE4F90819F7B9083E0913D028E9F19
:103C1000F0011124E251FE4F90819F7B9083E0914F
:103C200040028E9FF0011124E251FE4F80818F7B74
:103C3000808380915F05823061F410925F058091EE
:103C40004E05823058F51092500510924F0584E0D1
:103C500017C0813019F510925F0580914E058230B2
:103C600091F048F08530D0F487E392E00E942A1466
:103C700010924E0513C01092500510924F0583E02C
:103C800080934E050BC086E00E946316019711F0E9
:103C90000C94CC2987E392E00E942A14809162055B
:103CA00090916305892B09F49AC00E94981A00919B
:103CB0006605109167052091680530916905AB0193
:103CC000BC01401B510B620B730B809162059091FC
:103CD0006305A0E0B0E0481759076A077B0708F4BE
:103CE0007EC00E94981A6093660570936705809362
:103CF0006805909369050E94F3159101AE01415644
:103D00005F4FBE016D557F4F87E392E00E944113E4
:103D1000F10183818F9382818F9381818F93808141
:103D20008F93CE55DF4F8881C25AD0408F93CF55A5
:103D3000DF4F8881C15AD0408F93C056DF4F8881B2
:103D4000C05AD0408F93C156DF4F8881CF59D040A1
:103D50008F93CA55DF4F8881C65AD0408F93CB5579
:103D6000DF4F8881C55AD0408F93CC55DF4F888173
:103D7000C45AD0408F93CD55DF4F8881C35AD0406D
:103D80008F938DE491E09F938F938E010F5F1F4F70
:103D90001F930F930E943A14B801CE018F579F4F83
:103DA0000E94141781E991E00E947E1563E070E0A3
:103DB00080E090E00E94C11589E991E00E947E15A3
:103DC000CE018F579F4F0E946915CE018F579F4F8D
:103DD0000E940F170FB6F894DEBF0FBECDBF0E9432
:103DE000981A009152051091530520915405309175
:103DF0005505DC01CB01801B910BA20BB30BC297C5
:103E0000A105B10590F00E94981A60935205709335
:103E1000530580935405909355058CE595E00E94D9
:103E2000121A86E595E00E94121A0E94981A0091D3
:103E30006A0510916B0520916C0530916D05DC01D0
:103E4000CB01801B910BA20BB30BC297A105B1054F
:103E500008F490C00E94981A60936A0570936B05ED
:103E600080936C0590936D0590914E05933049F0C9
:103E700018F49230B1F07EC0943051F0953089F052
:103E800079C00E945C07811175C010924E0504C074
:103E90000E945C0781116EC01092500510924F0570
:103EA00069C020914F05309150052B3F8FEF3807A7
:103EB00048F010924E051092500510924F050E9446
:103EC000110758C02A3FAFEF3A0709F44AC09530AE
:103ED00009F447C060E087E392E00E9413066B019B
:103EE0007C0161E087E392E00E9413062B013C0114
:103EF00062E087E392E00E9413064B015C01C3017C
:103F0000B2010E94202C6983C501B4010E94202CBB
:103F10006A83C701B6010E94202C6B8363E087E3AC
:103F200092E00E9413060E94202C6C8386E00E947F
:103F3000631621E0019709F020E02D83BE016F5F39
:103F40007F4F80914F05909150050E942A078091E4
:103F50004F059091500505969093500580934F051D
:103F600009C08FEF8983BE016F5F7F4FC9010E9437
:103F70002A079FCF0E948919DACC69E971E087EAA4
:103F800091E00E949D2FFE01EF57FF4F6F01F12C32
:103F900000E010E067CD9C012F5F3F4F013011051D
:103FA00071F4DC01FC90C9010E94992FCB57DF4FBF
:103FB000688379838A839B83C558D04048CDC901E3
:103FC0000E94992FF60160837183828393833FCD92
:103FD0006A3C710509F4C5C044F46115710579F0B6
:103FE000693C710591F10C94B7296B3C710509F49A
:103FF000F7C06C3C710509F4FEC00C94B72904307D
:10400000110511F00C94BA29CB56DF4FA880B98066
:10401000CA80DB80C559D040CF56DF4FE880F98099
:104020000A811B81C159D040C357DF4F2881398194
:104030004A815B81CD58D040C757DF4F6881798175
:104040008A819B81C958D04055C10430110511F0B7
:104050000C94BA29C757DF4F88819981AA81BB8107
:10406000C958D040CF54DF4F88839983AA83BB833C
:10407000C15BD04026EE3EE245E652E4C357DF4F37
:10408000688179818A819B81CD58D0400E94A72B7D
:104090006B017C010E94A22BCB54DF4F6883798394
:1040A0008A839B83C55BD040C701B6010E94E22C86
:1040B0009B01AC01CB56DF4FA880B980CA80DB8062
:1040C000C559D040CF56DF4F88819981AA81BB81E5
:1040D000C159D040C754DF4F88839983AA83BB83DB
:1040E000C95BD040CF54DF4F688179818A819B8141
:1040F000C15BD0400E947934C354DF4F6883798319
:104100008A839B83CD5BD040CB54DF4F288139819C
:104110004A815B81C55BD040CF54DF4F6881798194
:104120008A819B81C15BD0400E947934C754DF4FA4
:10413000E880F9800A811B81C95BD040C354DF4FFE
:10414000288139814A815B81CD5BD0400E94F50294
:10415000C355DF4F88819981CD5AD0400E944816BF
:10416000AECC0230110511F00C94BA29C357DF4FC1
:10417000C880D980EA80FB80CD58D040C757DF4F38
:10418000688179818A819B81C958D0400E94202C06
:10419000062F10E0F801EE0FFF1FEE0FFF1FED5B83
:1041A000FD4FC082D182E282F382F801EE0FFF1F41
:1041B000EE0FFF1FE55AFD4F20813181428153816F
:1041C000C701B6010E94072BAB01BC01C801880FD3
:1041D000991F800F911F895C9D4F0E94E217B8CFF5
:1041E000012B11F00C94BA298FEF9FEF9093750279
:1041F00080937402ADCF0430110511F00C94BA29EC
:104200009301A101BE0161567F4F87E392E00E94B6
:104210004113C156DF4F288139814A815B81CF59D3
:10422000D040C757DF4F688179818A819B81C95807
:10423000D0400E94072BCF54DF4F688379838A8355
:104240009B83C15BD040C757DF4F688379838A83E4
:104250009B83C958D040D1012D913D914D915C91E6
:10426000C357DF4F688179818A819B81CD58D040C7
:104270000E94072BCB54DF4F688379838A839B830B
:10428000C55BD040C357DF4F688379838A839B83A4
:10429000CD58D04029813A814B815C81CF56DF4F88
:1042A000688179818A819B81C159D0400E94072B06
:1042B000CF56DF4F688379838A839B83C159D0406F
:1042C000CB56DF4FA880B980CA80DB80C559D0406B
:1042D0007B018C01CB54DF4F288139814A815B817E
:1042E000C55BD040CF54DF4F688179818A819B8143
:1042F000C15BD0400E94F502823009F029CF1AE05C
:1043000081E391E00E947E15C355DF4FE881F9817A
:10431000CD5AD040BF01FF0F880B990B94C5643D67
:10432000710509F42BC2D4F4693C710509F455C038
:104330004CF46837710569F1683C710509F442C0B5
:104340000C94B729623D710509F488C00CF0B3C024
:104350006A3C710509F460C00C94B7296E3D710583
:1043600009F472C44CF46C3D710509F40CC36D3D45
:10437000710509F4B7C3FBC7683E710509F40DC5A3
:10438000603F710509F421C5673E710509F0EFC76B
:10439000E7C40130110509F047C520E030E04AE7E5
:1043A00054E4C757DF4F688179818A819B81C9585E
:1043B000D0400E9479340E94202C70936305609352
:1043C0006205C6CE012B09F02FC580917402909131
:1043D0007502019609F470C7D0C70130110509F0C4
:1043E00023C5C757DF4F688179818A819B81C9586E
:1043F000D0400E94202C862F90E0FC01E95CFD4F0C
:1044000064A970E09C01220F331F820F931F895C07
:104410009D4F0E94B8069CCE0130110509F004C5DD
:10442000C757DF4F688179818A819B81C958D04005
:104430000E94202C70E0FB01EE0FFF1F6E0F7F1F0C
:10444000FB01E95CFD4FE08126E0E29FF0011124D1
:10445000E251FE4F80818F7B80837ACE023011053E
:1044600009F0E2C420E030E04AE754E4C357DF4FEC
:10447000688179818A819B81CD58D0400E947934AE
:104480000E94202C6B017C01C757DF4F6881798126
:104490008A819B81C958D0400E94202CDC01CB012D
:1044A000C114D104E104F10409F452CEB701A6010C
:1044B0000E94310A4DCE0330110509F0B5C4C3572F
:1044C000DF4F688179818A819B81CD58D0400E94DD
:1044D000202C6B017C01C757DF4F688179818A816D
:1044E0009B81C958D0400E94192CCF54DF4F68835C
:1044F00079838A839B83C15BD040CF54DF4FA880F0
:10450000B980C15BD040CF56DF4F688179818A8105
:104510009B81C159D0400E94192C4B0131E0A31658
:10452000B10409F474C082E0A816B10421F0AB28EC
:1045300009F027C202C032EA6DC092E089169104E8
:1045400071F0A4E08A16910451F1B1E08B16910448
:1045500009F05FC0C6010E943A351F9210C0F101F8
:1045600011821082C6010E943A35D1018C93C60196
:1045700001960E943A35F10181838F9380818F9358
:1045800089E391E09F938F937F926F920E943A14F8
:104590000F900F900F900F900F900F903AC0D10195
:1045A0001D921D921D921C921397510186010219B2
:1045B0001309C8018A0D9B1D0E943A35F5018193AC
:1045C0005F01CB53DF4F28813981C55CD040E217B2
:1045D000F30779F7D10113968C9113978F93129665
:1045E0008C9112978F9311968C9111978F938C9138
:1045F0008F938DE391E09F938F937F926F920E94B0
:104600003A140FB6F894DEBF0FBECDBF02C030EA39
:1046100001C030E0CF54DF4F88819981C15BD04029
:104620000197029708F04DC6F2E08F16910461F0F1
:1046300024E08216910459F081E08816910409F073
:10464000F3C301E010E005C002E010E002C004E0A6
:1046500010E02C2D2F77422F50E081E890E0801B56
:10466000910B481759074CF110E8121B212FA60196
:10467000632FCE0181569F4FC753DF4F3883C95CEC
:10468000D0400E94130E65E070E080E090E00E9450
:104690005E1A812F90E0202F211BAC014C0D5D1D77
:1046A000C753DF4F3881C95CD040632FAFE9B0E01A
:1046B000AC0FBD1F8A0F9B1F06C0202FA601632FC2
:1046C000CE0181569F4F0E94130EB2E08B169104CB
:1046D00079F0E4E08E16910459F18A94892809F062
:1046E000F0C5C156DF4F8881CF59D0401F9210C00E
:1046F000C156DF4F8881CF59D04090E0982F88274E
:10470000C056DF4F2881C05AD040820F911D9F9321
:104710008F9389E391E09F938F937F926F920E9492
:104720003A140F900F900F900F900F900F90C9C5F3
:10473000CE55DF4F8881C25AD0408F93CF55DF4F7F
:104740008881C15AD0408F93C056DF4F8881C05AAC
:10475000D0408F93C156DF4F8881CF59D0408F937F
:104760008DE391E09F938F937F926F920E943A1412
:104770000FB6F894DEBF0FBECDBFA3C50430110540
:1047800009F052C3C357DF4F688179818A819B81C9
:10479000CD58D0400E94202C6B017C01CF56DF4FBA
:1047A000688179818A819B81C159D0400E94192CEE
:1047B0008B01C757DF4F688179818A819B81C958F6
:1047C000D0400E94192CCF54DF4F688379838A83AD
:1047D0009B83C15BD040CF54DF4F88819981C15BFF
:1047E000D0408130910509F45EC08230910521F0FE
:1047F000892B09F0C6C003C022EAB22E58C002308D
:104800001105A9F00430110571F10130110509F00D
:104810004DC0CB56DF4F688179818A819B81C55914
:10482000D0400E94202CC6010E9442353FC0CB568A
:10483000DF4F688179818A819B81C559D0400E9470
:10484000192CD1016D937C93DA82C982C3010E9435
:104850002015F1016181C60101969A838983C30104
:104860000E94201523C0CB56DF4F88819981AA81F1
:10487000BB81C559D04089839A83AB83BC835301E4
:10488000460186189708C4018A0D9B1DD5016D91BC
:104890005D01F10191838083C1010E942015A41460
:1048A000B50489F703C090EAB92E01C0B12CCF54EA
:1048B000DF4F88819981C15BD0400197029708F052
:1048C00047CC02301105A9F00430110509F101307F
:1048D000110509F0A9C2CB56DF4F688179818A8121
:1048E0009B81C559D0400E94202C698301E010E0D3
:1048F0001DC0CB56DF4F688179818A819B81C55964
:10490000D0400E94192C79836A8302E010E00EC027
:10491000CB56DF4F88819981AA81BB81C559D04090
:1049200089839A83AB83BC8304E010E04C2D4F77DE
:10493000242F30E081E890E0801B910B2817390785
:10494000CCF010E8141B212FA6016B2DC3010E948F
:10495000780E65E070E080E090E00E945E1A812FA2
:1049600090E0202F211BAC014C0D5D1D6B2D860DA1
:10497000971D04C0202FA6016B2DC3010E94780E45
:10498000E7CB16E152C20330110509F04DC2CF56F4
:10499000DF4FC880D980EA80FB80C159D040C3571F
:1049A000DF4F088119812A813B81CD58D040C757FC
:1049B000DF4F488159816A817B81C958D04081E0AD
:1049C0008F93C455DF4FF881CC5AD040FF93C55523
:1049D000DF4F8881CB5AD0408F93DE01AD55BF4F5A
:1049E0004D01FE01E955FF4F5F0187E392E00E9410
:1049F0000310C955DF4F7881C75AD040C855DF4FE3
:104A00006881C85AD040C755DF4F9881C95AD040F5
:104A1000C655DF4F8881CA5AD040272F362F492FDD
:104A2000582FC901DA01C757DF4F88839983AA83BA
:104A3000BB83C958D040CD55DF4FB881C35AD04051
:104A4000CC55DF4FA881C45AD040CB55DF4F988159
:104A5000C55AD040CA55DF4F8881C65AD0406B2F07
:104A60007A2FE92FF82FCB01DF01C357DF4F88835F
:104A70009983AA83BB83CD58D040C156DF4FB881FC
:104A8000CF59D040C056DF4FA881C05AD040CF5533
:104A9000DF4F9881C15AD040CE55DF4F8881C25A2E
:104AA000D0408D017C01812F902FAF2DBE2DCF5690
:104AB000DF4F88839983AA83BB83C159D040EF928B
:104AC000FF920F931F93FF93EF937F936F935F93E7
:104AD0004F933F932F9381E491E09F938F937F9225
:104AE0006F92A8C30330110509F09EC1C357DF4F71
:104AF000A880B980CA80DB80CD58D040C757DF4F2F
:104B0000E880F9800A811B81C958D040CC56DF4F1C
:104B10008881C459D0408F93CD56DF4F8881C359C7
:104B2000D0408F93CE56DF4F8881C259D0408F93AB
:104B3000CF56DF4F8881C159D0408F939E012156B7
:104B40003F4FAE014D555F4FBE0169557F4F87E323
:104B500092E00E945F12C955DF4F7881C75AD0405A
:104B6000C855DF4F6881C85AD040C755DF4F98817C
:104B7000C95AD040C655DF4F8881CA5AD040272F26
:104B8000362F492F582FC901DA01C757DF4F8883C5
:104B90009983AA83BB83C958D040CD55DF4FB881D4
:104BA000C35AD040CC55DF4FA881C45AD040CB5512
:104BB000DF4F9881C55AD040CA55DF4F8881C65A09
:104BC000D0406B2F7A2FE92FF82FCB01DF01C3578D
:104BD000DF4F88839983AA83BB83CD58D040C156C9
:104BE000DF4FB881CF59D040C056DF4FA881C05A9F
:104BF000D040CF55DF4F9881C15AD040CE55DF4FBE
:104C00008881C25AD0408D017C01812F902FAF2D19
:104C1000BE2DCF56DF4F88839983AA83BB83C159AA
:104C2000D040EF92FF920F931F93FF93EF937F93E8
:104C30006F935F934F933F932F938DE491E09F93F6
:104C40008F937F926F92F6C20430110509F0ECC089
:104C500020E030E040E85FE3CB56DF4F68817981A8
:104C60008A819B81C559D0400E94133481113AC07A
:104C7000C757DF4FC880D980EA80FB80C958D04031
:104C800026EE3EE245E652E4C357DF4F6881798164
:104C90008A819B81CD58D0400E94A72B4B015C019B
:104CA0000E94A22B9B01AC01C701B6010E9479347E
:104CB000C757DF4F688379838A839B83C958D04065
:104CC000C501B4010E94E22C9B01AC01C701B601F1
:104CD0000E947934C357DF4F688379838A839B832B
:104CE000CD58D040CF56DF4FC880D980EA80FB80B6
:104CF000C159D040C357DF4F088119812A813B81B8
:104D0000CD58D040C757DF4F488159816A817B8198
:104D1000C958D0401F92C455DF4F9881CC5AD0401B
:104D20009F93C555DF4FA881CB5AD040AF93FE016A
:104D3000ED55FF4F4F01CE0189559F4F5C0187E331
:104D400092E00E9403100F900F900F90823009F4B0
:104D5000B3C28A3009F4B0C2813009F0B2C20DC3C7
:104D60000130110509F060C020E030E0A901C7570B
:104D7000DF4F688179818A819B81C958D0400E9428
:104D80001334811105C087E392E00E942A14E0C920
:104D900087E392E00E943214DBC90130110509F06B
:104DA00043C020E030E0A901C757DF4F6881798117
:104DB0008A819B81C958D0400E941334811102C05E
:104DC00061E001C060E089E02CC00230110561F5AE
:104DD00020E030E040E85FE3C357DF4F688179812E
:104DE0008A819B81CD58D0400E94133481110DC01F
:104DF000C757DF4F688179818A819B81C958D0402C
:104E00000E94202C862F61E00CC0C757DF4F6881BD
:104E100079818A819B81C958D0400E94202C862F9D
:104E200060E00E948C1694C915E181E391E00E9434
:104E30007E15C355DF4FA881B981CD5AD040BD0141
:104E4000BB0F880B990B0E94C11589E991E00E9464
:104E50007E1584E991E00E947E15612F70E080E06C
:104E600090E04AE00E9480158EE291E00E9492025A
:104E70000C945F1D6C3D710509F4E0C0C4F46A3CFC
:104E8000710509F4C5C044F4683C710559F1693CE9
:104E9000710509F4B7C06BC26C3C710509F4BEC062
:104EA0000CF4BCC06D3C710509F4C2C060C2683E20
:104EB000710509F4E1C14CF46D3D710509F424C19B
:104EC000673E710509F4CFC152C2603F710509F414
:104ED0000AC2613F710509F418C2693E710509F003
:104EE00046C2E1C1012B09F04BC260E087E392E0CA
:104EF0000E941306C757DF4F688379838A839B8399
:104F0000C958D04061E087E392E00E941306C3577E
:104F1000DF4F688379838A839B83CD58D04062E0DA
:104F200087E392E00E941306CF56DF4F68837983B0
:104F30008A839B83C159D04063E087E392E00E945B
:104F400013069B01AC01CB01DA01CB56DF4F8883FE
:104F50009983AA83BB83C559D0405F934F933F93F6
:104F60002F93CC56DF4F8881C459D0408F93CD56B4
:104F7000DF4F8881C359D0408F93CE56DF4F888151
:104F8000C259D0408F93CF56DF4F8881C159D0404E
:104F90008F93C057DF4F8881C059D0408F93C1573E
:104FA000DF4F8881CF58D0408F93C257DF4F888121
:104FB000CE58D0408F93C357DF4F8881CD58D04013
:104FC0008F93C457DF4F8881CC58D0408F93C557FB
:104FD000DF4F8881CB58D0408F93C657DF4F8881F1
:104FE000CA58D0408F93C757DF4F8881C958D040E7
:104FF0008F9389E591E09F938F937F926F920E94A8
:105000003A141AC1012B09F0BBC189E691E00BC02B
:10501000012B09F0B5C185E791E005C0012B09F02E
:10502000AFC183E791E09F938F938FE691E081C1B9
:10503000012B09F0A5C169E771E040C1012B09F01E
:105040009FC10E94F315C953DF4F28813981C75C86
:10505000D040CF53DF4F48815981C15CD040CD5300
:10506000DF4F68817981C35CD04087E392E00E9482
:105070004113CC56DF4F8881C459D0408F93CD5611
:10508000DF4F8881C359D0408F93CE56DF4F888140
:10509000C259D0408F93CF56DF4F8881C159D0403D
:1050A0008F93C057DF4F8881C059D0408F93C1572D
:1050B000DF4F8881CF58D0408F93C257DF4F888110
:1050C000CE58D0408F93C357DF4F8881CD58D04002
:1050D0008F93C457DF4F8881CC58D0408F93C557EA
:1050E000DF4F8881CB58D0408F93C657DF4F8881E0
:1050F000CA58D0408F93C757DF4F8881C958D040D6
:105100008F938DE491E092C0012B09F039C10E9488
:10511000F3159E0121563F4FAE014D555F4FBE0125
:1051200069557F4F87E392E00E94411380904302CC
:1051300090904402A0904502B0904602C955DF4FBE
:10514000688179818A819B81C75AD040CD55DF4FD4
:10515000C880D980EA80FB80C35AD0409B01AC0153
:105160000E947934CF54DF4F688379838A839B838D
:10517000C15BD040A7019601C701B6010E947934F6
:105180009B01AC01CF54DF4F688179818A819B817B
:10519000C15BD0400E94072B0E94F02C9B01AC0108
:1051A000CB01DA01C757DF4F88839983AA83BB837A
:1051B000C958D040B401F501CB01DF01C357DF4F1F
:1051C00088839983AA83BB83CD58D040C156DF4FD3
:1051D000B881CF59D040C056DF4FA881C05AD040C7
:1051E000CF55DF4F9881C15AD040CE55DF4F8881CF
:1051F000C25AD0408D017C01812F902FAF2DBE2D42
:10520000CF56DF4F88839983AA83BB83C159D0408F
:10521000EF92FF920F931F93FF93EF937F936F9300
:105220005F934F933F932F9385E891E09F938F93E4
:105230007F926F920E943A14B301C1010E94141729
:10524000B101C355DF4F88819981CD5AD0400E946A
:105250002D16C1010E940F170FB6F894DEBF0FBEC6
:10526000CDBF0C945F1D012B09F08AC086E00E941F
:105270006316019709F581C0012B09F081C089E00F
:105280000E946316019751F064E187E392E00E9467
:10529000F40E8935924020F482E003C080E001C022
:1052A00081E01F9243C0012B09F06AC082E00E9496
:1052B0006316892B09F061C066E371E0C3010E94A7
:1052C000722FB301C1010E941417B101C355DF4F02
:1052D00088819981CD5AD0400E942D16C1010E942B
:1052E0000F170C945F1D0130110509F049C0C75715
:1052F000DF4F688179818A819B81C958D0400E94A3
:10530000202C862F0E94631610C001301105C1F5B4
:10531000C757DF4F688179818A819B81C958D04006
:105320000E94202C862F0E94F8169F938F9389E36A
:1053300091E09F938F937F926F920E943A14B301F2
:10534000C1010E941417B101C355DF4F88819981B3
:10535000CD5AD0400E942D16C1010E940F170F9008
:105360000F900F900F900F900F900C945F1D64E1C1
:1053700070E008C015E10C94802163E371E09ECFDA
:1053800065E170E0C355DF4F88819981CD5AD040E7
:105390000E940B160C945F1D87E392E00E9432146A
:1053A0000C944E1E1092E3011092A6011092A501DA
:1053B0001092E50180913602E7E3F2E09FEF26E0EC
:1053C00048EB5BE08C3060F48083289FD00111248F
:1053D000A251BE4F12965C934E9311978F5F01C0FE
:1053E0009083339632E0E334F30761F7809336021B
:1053F00080E1EBE0F1E0A3E4B2E001900D928A9548
:10540000E1F788E0E3E5F2E0DF011D928A95E9F734
:1054100084EB90E090935402809353028BE080934E
:105420006B028DE080936C028CE080936D028AE0C9
:1054300080936E0282E080936F021092700281E08E
:105440008093710283E08093720210924E05109255
:10545000500510924F058FEF8093560510925B0513
:1054600010925A051092590580935C0510926105BF
:105470001092600510925F058FEF9FEF9093750279
:105480008093740290937702809376021092630562
:10549000109262050E94981A6093660570936705E2
:1054A00080936805909369050E94981A609352054D
:1054B0007093530580935405909355050E94981A54
:1054C00060936A0570936B0580936C0590936D05EE
:1054D000109271051092700588EE93E0A0E0B0E0A4
:1054E0008093720590937305A0937405B09375052E
:1054F0008FE191E090936F0580936E0585EC90E0CD
:1055000090937B0580937A0584EC90E090937D05E1
:1055100080937C0580EC90E090937F0580937E05DE
:1055200081EC90E0909381058093800582EC90E07F
:10553000909383058093820586EC90E09093850597
:105540008093840510928705109288051092890532
:1055500010928A050895DB018F939F930E946F3507
:10556000BF91AF91A29F800D911DA39F900DB29FFF
:10557000900D11240895991B79E004C0991F961786
:1055800008F0961B881F7A95C9F78095089597FBB8
:10559000072E16F4009407D077FD09D00E94DB2A6D
:1055A00007FC05D03EF4909581959F4F0895709526
:1055B00061957F4F0895AA1BBB1B51E107C0AA1F2D
:1055C000BB1FA617B70710F0A61BB70B881F991FA4
:1055D0005A95A9F780959095BC01CD010895EE0FDD
:1055E000FF1F0590F491E02D09949F939F770E94EF
:1055F0004F2C0F90002042F49058A2EA2AED3FE091
:1056000049E450E40E941E2B0C9400355058BB27EF
:10561000AA270E941E2B0C9400350E94F23438F009
:105620000E94F93420F039F49F3F19F426F40C94C9
:10563000EF340EF4E095E7FB0C94E934E92F0E9477
:10564000113558F3BA17620773078407950720F0DE
:1056500079F4A6F50C9433350EF4E0950B2EBA2FA1
:10566000A02D0B01B90190010C01CA01A001112468
:10567000FF27591B99F0593F50F4503E68F11A1614
:10568000F040A22F232F342F4427585FF3CF4695A5
:1056900037952795A795F0405395C9F77EF41F16C7
:1056A000BA0B620B730B840BBAF09150A1F0FF0F91
:1056B000BB1F661F771F881FC2F70EC0BA0F621F7D
:1056C000731F841F48F4879577956795B795F7956D
:1056D0009E3F08F0B0CF9395880F08F09927EE0F02
:1056E000979587950895DF93DD27B92FBF7740E819
:1056F0005FE31616170648075B0718F4D92F0E94B8
:10570000DA2C9F938F937F936F930E94302DE8E65E
:10571000F0E00E946F2C0E9400352F913F914F9135
:105720005F910E948C34DD2351F09058A2EA2AED5B
:105730003FE049EC5FE3D0785D270E941E2BDF91AC
:105740000C9400350E94982CE3950C94C12C0E9477
:10575000BB2B0C9400350E94F93458F00E94F234AF
:1057600040F029F45F3F29F00C94E93451110C9476
:1057700034350C94EF340E94113568F39923B1F35A
:10578000552391F3951B550BBB27AA276217730767
:10579000840738F09F5F5F4F220F331F441FAA1FFB
:1057A000A9F335D00E2E3AF0E0E832D091505040B7
:1057B000E695001CCAF72BD0FE2F29D0660F771F65
:1057C000881FBB1F261737074807AB07B0E809F04B
:1057D000BB0B802DBF01FF2793585F4F3AF09E3FD0
:1057E000510578F00C94E9340C9434355F3FE4F3C0
:1057F000983ED4F3869577956795B795F7959F5F13
:10580000C9F7880F911D9695879597F90895E1E05E
:10581000660F771F881FBB1F621773078407BA07BD
:1058200020F0621B730B840BBA0BEE1F88F7E09518
:1058300008950E94202C6894B1110C943435089579
:105840000E94193588F09F5798F0B92F9927B751C2
:10585000B0F0E1F0660F771F881F991F1AF0BA9514
:10586000C9F714C0B13091F00E943335B1E008950A
:105870000C943335672F782F8827B85F39F0B93FFC
:10588000CCF3869577956795B395D9F73EF49095C7
:105890008095709561957F4F8F4F9F4F0895DF934F
:1058A000CF931F930F938B01EC01E5E9F0E00E9489
:1058B0006F2C0E9400359801AE018B01EC0160E075
:1058C00070E080E89FE30E94062B0E94F02C980174
:1058D000AE010F911F91CF91DF910C948C34DF9327
:1058E000CF931F930F93FF92EF92DF927B018C0176
:1058F000689406C0DA2EEF010E948C34FE01E89411
:10590000A5912591359145915591A6F3EF010E94FE
:105910001E2BFE019701A801DA9469F7DF90EF9042
:10592000FF900F911F91CF91DF9108950C94EF3468
:105930000E941935D8F3E894E0E0BB279F57F0F0B8
:105940002AED3FE049EC06C0EE0FBB0F661F771F44
:10595000881F28F0B23A62077307840728F0B25A0A
:10596000620B730B840BE3959A9572F7803830F4D1
:105970009A95BB0F661F771F881FD2F790480C942B
:105980003B2DEF93E0FF07C0A2EA2AED3FE049EC90
:105990005FEB0E941E2B0E9400350F90039401FCC8
:1059A0009058EDEBF0E00C944E2D0E94553408F425
:1059B0008FEF08959B01AC0160E070E080E89FE309
:1059C0000C94A72B9F930E94982C0F9007FCEE5FDE
:1059D0000C94C12C19F416F40C94EF340C94392D5A
:1059E0000E941935B8F39923C9F3B6F39F57550BA5
:1059F00087FF0E94472D0024A0E640EA90018058CE
:105A00005695979528F4805C660F771F881F20F0C5
:105A100026173707480730F4621B730B840B2029C5
:105A200031294A2BA69517940794202531254A271A
:105A300058F7660F771F881F20F02617370748078B
:105A400030F4620B730B840B200D311D411DA095AA
:105A500081F7B901842F9158880F969587950895FD
:105A60009B01AC010C9479340E945534880B990B3E
:105A700008959F3F31F0915020F487957795679571
:105A8000B795880F911D9695879597F90895915030
:105A90005040660F771F881FD2F708959F938F930A
:105AA0007F936F93FF93EF939B01AC010E94793436
:105AB000EF91FF910E946F2C2F913F914F915F9139
:105AC0000C947934CF93DF938230910510F482E007
:105AD00090E0E0912706F091280620E030E0C0E059
